:100000000C9423020C944B020C944B020C94891B0D
:100010000C94891B0C94891B0C944B2B0C944B0255
:100020000C944B020C944B020C944B020C946227E0
:100030000C944B020C944B020C944B020C944B020C
:100040000C943F1B0C944B020C944B020C944B02EF
:100050000C944B020C944B020C944B020C944B02EC
:100060000C94191C0C944B02F60AF90AFB0AFD0ABF
:10007000FF0A020B040B060B080B0A0B0C0B2D0BD3
:100080003A0B4B0B570B620B6E0B840B950B9A0BB9
:10009000AC0B890FCC0F031041107810AA10BC10C4
:1000A00090189718A918C118CB18D518E718F11887
:1000B000F8181019231933194B19DE29E029E329FF
:1000C000E529E729E929EC29EE29F029F2290F2A67
:1000D000162A1D2A2B2A402A4E2A5C2A6A2A7E2AA0
:1000E0008C2A426972746864617900486170707921
:1000F0000057757373746573742044752C206461A4
:1001000073732E2E2E004963682062696E20686921
:10011000657221005B205D204D5033005B205D2027
:10012000526164696F005B205D205765636B746F7B
:100130006E0020205B6175735D0020205B616E2086
:100140005D004D503300526164696F00546F6E0062
:100150005765636B746F6E202020205B2020202069
:10016000205D004E657565205765636B7A6569741F
:100170000061757300616E20002E3230004E6163A5
:1001800068746D6F647573205B2020205D004E6580
:100190007565205568727A6569742F446174756D50
:1001A000005A3A2000416B6B753A0020543A200007
:1001B00052414D3A2020004932433A20002D313738
:1001C00030353137004669726D776172653A2000CB
:1001D0006279204E696B6F6C6169205261646B6556
:1001E00000446965736572204E4F4B4F2067656808
:1001F000207274004D65696E204E4F4B4F0044696C
:100200007374616E7A6C696368742020205B205D72
:10021000005374756D6D2020202020202020202088
:100220005B205D00416B6B752073706172656E20A1
:100230002020205B205D007765697465722E2E2E6C
:100240000044697374616E7A202B2F2D205B205D32
:10025000004576656E747320202B2F2D205B205D6A
:10026000004C454420202020202B2F2D205B205D9A
:10027000004E4F4B4F207374656C6C656E007A6551
:100280006974207374656C6C656E00416C61726D8D
:10029000207374656C6C656E00537069656C2077B3
:1002A000617320766F72004E617365206472206303
:1002B0006B656E0020617566205600205570646184
:1002C0007465206572666F6C677265696368005358
:1002D000616D73746167004672656974616700449B
:1002E0006F6E6E2E746167004D697474776F63680A
:1002F000004469656E73746167004D6F6E74616769
:1003000000536F6E6E746167000020416C61726D06
:1003100020004E61736520647220636B656E00205F
:100320005568720072656E00476562757274737409
:100330006167210009030103FA02F102E802DF020A
:10034000D702CF0200000000240027002A0000008E
:100350000008000201000003040700000000000084
:1003600000005041555345004B65696E65204D5066
:10037000337320676566756E64656E0047657363E9
:10038000686963687465005B3C5D5B205D5B205D54
:100390005B3E5D00476573636869636874656E20E2
:1003A00068004155582D45696E67616E6700456963
:1003B00067656E6573206800526164696F2068002C
:1003C00000000000250028002B0000000000230092
:1003D00026002900040404040404040402020202A6
:1003E00002020303030303030102040810204080F8
:1003F0000102040810200102040810202057656340
:100400006B746F6E202B2F2D205B205D0061757348
:1004100000616E200062697300766F6E005B2020C1
:10042000205D2044696D6D656E205B205D004E612E
:100430006368746D6F647573207374656C6C656E3E
:1004400000009420B62711241FBECFEFD8E0DEBFF6
:10045000CDBF12E0A0E0B1E0E2E9FFE502C0059007
:100460000D92AC30B107D9F723E0ACE0B2E001C0A7
:100470001D92A83BB207E1F712E0C2E2D2E004C04D
:100480002197FE010E94AF2FC132D107C9F70E9408
:1004900092020C94BC2F0C940000CF92DF92EF924A
:1004A000FF920F931F93E82FF92F05C001501109F8
:1004B0002109310961F1908196239417B9F305C0A0
:1004C000015011092109310911F1908196239413EA
:1004D000F7CFC12CD12CE12CF12C0AC08FEFC81A18
:1004E000D80AE80AF80A0C151D052E053F0579F013
:1004F00080818623841791F36C2D7D2D8E2D9F2D69
:100500001F910F91FF90EF90DF90CF90089560E0E2
:1005100070E080E090E01F910F91FF90EF90DF90EE
:10052000CF900895A5E0B0E0E8E9F2E00C948F2EBA
:10053000789484B5826084BD84B5816084BD85B5BE
:10054000826085BD85B5816085BD80916E008160CA
:1005500080936E0010928100809181008260809370
:100560008100809181008160809381008091800072
:100570008160809380008091B10084608093B1009D
:100580008091B00081608093B00080917A00846097
:1005900080937A0080917A00826080937A008091C3
:1005A0007A00816080937A0080917A0080688093DD
:1005B0007A001092C1001CBC80E880BF8FE380935A
:1005C0007E00809164008460809364008091640068
:1005D00082608093640080916400806480936400F2
:1005E00088EC8AB98CE284B98EE387B980E48BB950
:1005F00081E088B910925F0310925E0310925D0350
:1006000010925C0310925B0310925A038DE991E003
:10061000909361038093600390915003963108F0AA
:1006200057C02DEB30E030935B0320935A032BE946
:1006300031E030935D0320935C032CE231E0309392
:100640005F0320935E0320916800983050F031E002
:100650009E3008F430E081E001C0880F3A95EAF757
:1006600001C084E0822B80936800983038F09E307F
:1006700040F0963148F020E030E008C02DE630E050
:1006800005C02BE630E002C02CE630E03093580382
:1006900020935703983030F481E001C0880F9A9579
:1006A000EAF70EC0292F30E09E3018F428503109A7
:1006B00002C02E50310981E001C0880F2A95EAF767
:1006C0008093590380916003909161030197F1F742
:1006D00080915E0390915F03892B21F18091C60286
:1006E0009091C70223E084349207E1F0009711F063
:1006F0000E94031C809162038E7F8093620310929C
:10070000C4021092C50284E493E09093C7028093E0
:10071000C602E0915703F0915803908180915903EC
:10072000892B80830E941F238CE00E94122384EF78
:1007300091E00E94721286E06EE140E020E030E03D
:1007400000E010E00E947E2284E00E94232380E0EB
:1007500090E00E94152E3EE1839FC00111249093EA
:1007600088038093870381E00E94CC2791E0811168
:1007700001C090E09093280282E00E94CC278093F1
:10078000200283E00E94CC2791E0811101C090E01B
:100790009093290284E00E94CC278093230285E075
:1007A0000E94CC278093220286E00E94CC2780936F
:1007B000210287E00E94CC278093AB0388E00E944F
:1007C000CC2780932C0289E00E94CC2780931F02C3
:1007D0008AE00E94CC2791E0811101C090E09093C3
:1007E0001E028BE00E94CC2791E0811101C090E0B5
:1007F0009093B1038CE00E94CC278093AF038DE0EF
:100800000E94CC278093AE038EE00E94CC27809379
:10081000AD038FE00E94CC278093AC0380E10E945F
:10082000CC2791E0811101C090E090931D0281E1FD
:100830000E94CC27182F82E10E94CC27282F30E07D
:10084000C9014AE0149F800D911D112490931C0250
:1008500080931B0283E10E94CC278093AA0315E1B9
:10086000E12E12E0F12E15E1812F0E94CC27082FF6
:1008700081E0810F0E94CC27282F30E0C9016AE077
:10088000069F800D911D1124F701819391937F01A3
:100890001E5F1B3149F78BE10E94CC2791E081114B
:1008A00001C090E0909314028CE10E94CC2791E06B
:1008B000811101C090E09093B00387E560E070E0A3
:1008C0000E94D7278093130287E561E070E00E94C1
:1008D000D727809312021092D40288E60E94B22198
:1008E00086E793E069E971E00E946C2B0E94552134
:1008F00084E10E94461288E60E94B22186E793E0D6
:100900006CE971E00E946C2B0E9455210E94B51188
:1009100080916703882309F49CC0809168038860F4
:1009200080936803B4E0FB2EF0926B038BE39DE0B1
:100930000197F1F783E693E060916E030E94822BAA
:100940008BEF98E00197F1F783E693E060E30E9474
:100950009C2B0BE416E4C8010197F1F783E693E0C2
:1009600060E30E949C2BC8010197F1F783E693E0B6
:1009700060E30E949C2B83E592E00197F1F783E608
:1009800093E060E20E949C2B8091680380620E9449
:100990004223F09269038CE00E9442230E94542378
:1009A00082E080936A0386E00E94422382E00E94F4
:1009B00042238BE39FE10197F1F70E94171384E133
:1009C00090E00E94152E182F8A3008F055C00E9422
:1009D00054238BEB92E00E94B82383E061E046E56C
:1009E0000E94C01380E090E00E9428248EE20E94C2
:1009F000D923812F6AE00E947B2F892F90E00E94EB
:100A0000282484EB92E00E94B82381E090E00E94C9
:100A100028248EE20E94D92380E090E00E942824BE
:100A200084E064E00E945C2387EA92E00E94B8239D
:100A30008BE064E045EF0E94C01384E190E06AE03F
:100A40000E941D2E81E060E00E94A8160E9454239F
:100A500013C080E28093670380916703803408F0BD
:100A60005CCF0E94B2210E945521882309F455CF02
:100A7000809167038F5FEECF0E94FC2788E592E0AC
:100A800060E570E040E020E530E00E94131780E769
:100A900093E066E970E040E026E930E00E94131739
:100AA0005E9A0E944A200E94F71F8093D30287E437
:100AB0000E94F6229091D402891B8F568093D60211
:100AC000F3E6FC8323E62B83CE0101961C010E94F2
:100AD0004A2087E00E941C1B8132934024F08091C1
:100AE0002602882351F087E00E941C1B803293402D
:100AF00004F5809126028823E1F09091260281E09E
:100B000089278093260287E00E941C1B8032934035
:100B100014F00C942D0F80912B02882311F40C9467
:100B20002D0F80911E02882311F40C942D0F0E942A
:100B30000D138091F8022B81281709F4CEC1809102
:100B40002E028823E1F08091B0038823C1F08091C8
:100B50002502811114C080911E02882339F08091F2
:100B60002602811103C00E940D1309C080912B023F
:100B7000811105C00E94312381E080932B021092E5
:100B800011028091F9023C81381709F4DDC080918F
:100B90002502811175C00E943B1390911202809131
:100BA000FC02981369C0909113028091FB02981384
:100BB00063C081E080932A0280911002811160C09D
:100BC00080912E0281115CC061E771E00E94932345
:100BD0008091830381115F9880912802811107C061
:100BE00080918403811103C08FE60E94022880ED6A
:100BF00097E00E9472120E945B27082F0E945B27D9
:100C0000081721F04C9902C00C94430F8091820385
:100C1000843011F40C94430F0E94542387E061E068
:100C20000E945C238BEE90E00E94B82386E062E095
:100C30000E945C2382EE90E00E94B82381E065E090
:100C40000E949712182F112391F080E064E10E9416
:100C5000971260E040E00E94C01380E064E10E94CF
:100C6000971263E040E00E94C0131150ECCF84EF74
:100C700091E00E94E216C2CF1092100210922A0256
:100C800010911D020E943F11181709F45DC0809158
:100C9000F902843008F458C0112311F40C94540F55
:100CA00081508093F90281E0D12ED826D0921D0286
:100CB0008091F9026091F80270E04091F70250E0F3
:100CC0002091FB0230E00091FC0210E0E0903B023A
:100CD000F0903C0290E00E942F2580913B02825BC5
:100CE0008093FD020E94BC2180918703805F6D2D5F
:100CF0000E94C12700918703109188030E3D43E0B5
:100D0000140711F40C94570F025E1F4F91E0F92E57
:100D1000F00E80918703890F9D830E94CC27682F56
:100D20008F2D0E94C1279D819F5F9E3181F7109377
:100D3000880300938703C8016EE170E00E94872F4B
:100D400080E090E00E941D2E80912502811102C05A
:100D50000E94D11380912E028111BFC08091280280
:100D60008111BBC08091390290913A020A977CF4BC
:100D70008091260281110BC00E94FC2788E993E034
:100D800060E570E040E020E530E00E9413174C99E8
:100D9000A4C08091D5028111A0C080912702811149
:100DA0009CC08091390290913A0202970CF495C050
:100DB000E0911F02F0E0EF55FE4F108161E0610FFE
:100DC00081E00E949712811388C080E06CE00E944D
:100DD0009712182F8091250281111AE00E9480231A
:100DE000183010F00C94E71080912B0281110C94B4
:100DF0005B0F153010F40E945423812F90E0FC010A
:100E00003197E730F10510F40C94850F80E06AE12A
:100E10000E94971260E5869FC00111248C01005B3F
:100E2000194BF12C80E5B8010E94D727482F8F2D50
:100E300060E00E94C013B8016C5E7F4F80E50E94A5
:100E4000D727482F8F2D61E00E94C013B801685D3D
:100E50007F4F80E50E94D727482F8F2D62E00E94A8
:100E6000C013B801645C7F4F80E50E94D727482FEC
:100E70008F2D63E00E94C013F3940F5F1F4F84E136
:100E8000F812D0CF0E94FC2780E793E060E570E085
:100E900040E026E930E00E94131780E793E060E924
:100EA00071E040E020E931E00E9413175E9A81E092
:100EB00061E00E94A8160E945B2080912B0288238B
:100EC00061F08091B103882311F40C94810F80911B
:100ED0002E02882311F40C94810F80912502811138
:100EE00078C080912D02811174C080912C028823DA
:100EF00009F46FC02D988FE090E00197F1F72D9ADB
:100F000083E290E00197F1F72D98E4EFF3E044914C
:100F1000E0EEF3E0E491F0E0EE0FFF1FE653FC4F4C
:100F200085919491642F00E412E42FE030E00E9458
:100F30004D02611571058105910549F0DC01CB0178
:100F40000196A11DB11DBC01CD019F7003C060E0E1
:100F500070E0CB0110912C022AE330E040E050E039
:100F60000E943B2EF9E11F9FC0011124092E000CA5
:100F7000AA0BBB0B281739074A075B0750F580916E
:100F80002B02882381F080911402882361F00E9453
:100F900039230E94331B60930C0270930D028093DF
:100FA0000E0290930F0280912E02811112C0809147
:100FB000110281110EC08091270281110AC0809117
:100FC000D502811106C080912802811102C04C9B7C
:100FD0007FC780912B028823C1F08091140288235F
:100FE000A1F00E94331B00910C0210910D02209180
:100FF0000E0230910F020A561F4F2F4F3F4F061718
:1010000017072807390708F46DC72091F8022B83CA
:101010003091F9023C8380E00E940D158093820399
:1010200090912502823009F4C6C6833009F4D6C6F1
:10103000813009F007C7911105C780E50E9446126B
:101040000E9480230E94542380912802882331F03B
:1010500088E70E94D923CC24C39401C0C12C82E02C
:1010600060E00E945C2389E992E00E94B82382E05C
:1010700061E00E945C238BE892E00E94B82381E04B
:1010800062E00E945C230E9432138EE792E00E948D
:10109000B82382E063E00E945C2381E792E00E9433
:1010A000B823DC2C80918203843009F49DC680E053
:1010B0006D2D4EE70E94C01380E061E00E94A816EB
:1010C00080918203823009F461C6833009F469C6D5
:1010D000813041F741E0D41681F1D41658F162E035
:1010E000D61609F4D9C183E0D812DCCF0E9454236C
:1010F00082E060E00E945C2381E692E00E94B823D7
:1011000082E061E00E945C2381E592E00E94B823C6
:1011100082E062E00E945C2381E492E00E94B823B6
:1011200082E063E00E945C2387E392E00E94B823A0
:1011300010E07FC30E94471DB5CFD092A90389E874
:1011400091E00E94A613809122028A3010F40E943E
:101150003713809122026AE070E00E9460198AE3EE
:101160000E94D923809123028A3010F40E94371301
:10117000809123026AE070E00E9460190E9432139D
:1011800080E061E00E945C2383E691E00E94B82346
:1011900082E063E00E945C2380E591E00E94B82336
:1011A0008EE063E00E945C2380912102813049F04F
:1011B00028F0823051F482E491E005C08CE491E0A3
:1011C00002C086E491E00E94B8230E94892300E0D7
:1011D00010E06AE0F62E74E1E72E809182038430FD
:1011E00009F441C1153010F062E001C063E080E015
:1011F00040E20E94C013153010F063E001C062E0CD
:1012000080E04EE70E94C01382E062E00E945C230F
:10121000809122028A3010F40E94371380912202BA
:101220006AE070E00E9460198AE30E94D9238091ED
:1012300023028A3010F40E943713809123026AE05F
:1012400070E00E9460190E94321380912902882365
:1012500019F08AE391E002C082E391E00E94B82392
:10126000123089F030F4112361F01130A1F483E0E1
:101270000FC0143061F048F0153069F48EE063E07F
:1012800008C082E005C085E003C086E001C08EE0B2
:1012900062E00E945C2380E061E00E94A8168091D9
:1012A0008203823009F4D3C0833009F4D5C0813081
:1012B00009F093CF123009F453C028F4112369F1D7
:1012C0001130C9F1CEC0143009F466C008F456C01C
:1012D000153009F0C6C00E948023B09029021092F8
:1012E00029020E94542382E060E00E945C2386E28F
:1012F00091E00E94B82382E061E00E945C238CE1CF
:1013000091E00E94B82382E062E00E945C2384E1C5
:1013100091E00E94B82300E065C0809122028E30E7
:1013200020F4865F809322029CC06F2D0E947B2F49
:101330009093220296C020912202822F6F2D0E944C
:101340007B2F993011F4295001C02F5F2093220286
:1013500080912202883109F084C0E092220281C08B
:1013600080912302813320F4865F8093230279C029
:101370006F2D0E947B2F9093230273C02091230234
:10138000822F6F2D0E947B2F993011F4295001C0BC
:101390002F5F2093230265C09091290289278093B3
:1013A00029025FC083E06091210248E50E94C013DA
:1013B00080E0602F4EE70E94C01383E061E04DE2C1
:1013C0000E94C01383E0602F0E945C2380E061E0F4
:1013D0000E94A816809182038230F9F0833031F1A7
:1013E000813029F0809182038430E1F628C00130F9
:1013F000C9F30093210286E0602F0E94C1278091EB
:101400002102811103C081E00E94CE2A8091210235
:10141000823041F70E94CE2AE5CF80E0602F40E283
:101420000E94C0130230F0F60F5FDCCF80E0602F27
:1014300040E20E94C0130023A9F20150D3CFB09222
:10144000290280E061E071E00E9493230AC0153018
:1014500008F0C3CE1F5FC1CE112309F4BECE1150D8
:10146000BCCE01E0BACE002379F083E0609129027E
:101470000E94C12784E0609123020E94C12785E079
:10148000609122020E94C12780E061E071E00E9429
:1014900093231092A90306CEA090F9028090F8023F
:1014A000B090FB029090FC0281E891E00E94A613AC
:1014B0008EE891E00E94B82382E061E00E945C2304
:1014C0008DE791E00E94B8230E94892380913B021E
:1014D00090913C02805D974090933C0280933B0248
:1014E00010E000E080918203843009F458C182E06A
:1014F00062E00E945C2399E09A1510F00E94371375
:101500008A2D6AE070E00E9460198AE30E94D92364
:10151000E9E0E81510F00E943713882D6AE070E0CA
:101520000E9460190E94321382E063E00E945C23F3
:10153000F9E0FB1510F00E9437138B2D6AE070E084
:101540000E9460198EE20E94D92329E0291510F02B
:101550000E943713892D6AE070E00E94601989E7C4
:1015600091E00E94B82380913B0290913C020A973F
:1015700014F40E94371380913B0290913C020E9428
:1015800028248EE061E00E945C238091B1038823CF
:1015900019F085E791E002C081E791E00E94B8234D
:1015A00080E00111A2C462E040E20E94C01380E02A
:1015B00061E00E945C238BEF800F863048F480E06E
:1015C00062E040E20E94C01380E063E00E945C237E
:1015D0008EE70E94D923402E512C3BE04316510444
:1015E000F8F4F201EC5CFF4F0C94AF2F8EE061E059
:1015F00015C082E005C083E003C085E001C086E03D
:1016000062E00CC082E009C083E007C085E005C04D
:1016100086E003C08AE001C08BE063E00E945C23A7
:1016200080E061E00E94A81680918203823009F474
:10163000A8C0833009F4AAC0813009F053CF002339
:1016400049F0F2013197EA30F10590F4E15CFF4F87
:101650000C94AF2F0E94202945CF4DE04A1518F079
:101660006AE0A60E05C08A2D6AE00E947B2FA92E93
:1016700011E038CF8A2D6AE00E947B2F993019F44F
:1016800087EFA80E01C0A39498E111E0A9122ACF18
:1016900054E1A52E27CFE0E3E81518F0FAE08F0E0D
:1016A000E7CF882D6AE00E947B2F892EE1CF882D1D
:1016B0006AE00E947B2F993019F427EF820ED8CF71
:1016C0008394D6CF35E13B1518F04AE0B40ED0CF65
:1016D0008B2D6AE00E947B2FB92E0DC08B2D6AE006
:1016E0000E947B2F993019F467EFB60E01C0B394B6
:1016F0008FE18B1530F0B110BBCF11E0BB24B39458
:10170000F1CE4EE1B42EB4CF92E0991518F0EAE094
:101710009E0EAECF892D6AE00E947B2F992E9111EB
:10172000A7CF11E099249394DDCEFBE0F91598F151
:1017300093949ECF80913B0290913C028935910514
:1017400014F40A9604C06AE070E00E949B2F909304
:101750003C0280933B028CCF20913B0230913C02B3
:10176000C9016AE070E00E949B2F099719F4295083
:10177000310902C02F5F3F4F30933C0220933B0260
:1017800077CF0A3008F0AECE0F5FACCE002309F45D
:10179000A9CE0150A7CE11E03AE0932EA3CEE0905F
:1017A0003B02F0903C0220E3E21A28EFF20AF092AA
:1017B0003C02E0923B02112339F1682D70E02B2DA1
:1017C00030E0092D10E08A2D90E040E050E00E94CA
:1017D0002F25A092F9028092F8021092F702B0929F
:1017E000FB029092FC0280913B02825B8093FD029F
:1017F0000E94BC210E945B200E943F11682F8093B1
:101800001D0280E10E94C12780E061E071E00E943A
:10181000932348CC82E390E00E947212809182036D
:10182000823009F495C2833009F49BC2813009F4F7
:101830004BC080918203843009F49FC20E948923A7
:10184000111107C0809120023CE1839FC001112447
:1018500002C080E090E00E94C21A133011F40E948E
:10186000802380E0612F4EE70E94C0138FE060E08C
:101870000E945C23809120026AE070E00E9460195F
:101880008FE061E00E945C2380911F026AE070E0BB
:101890000E9460198FE062E00E945C2380912C021C
:1018A0006AE070E00E9460198FE0612F0E945C2363
:1018B00080E00E940D15809382038111ABCF84E6F6
:1018C00090E00E947212F4CF113009F441C050F13F
:1018D000123009F44DC0133009F0ABCF0E945423ED
:1018E00082E060E00E945C2384E292E00E94B823E0
:1018F00082E061E00E945C2381E192E00E94B823D3
:1019000082E062E00E945C238EEF91E00E94B823A7
:1019100082E063E00E945C2384EF91E00E94B823A0
:1019200000E06AC080912002893020F48F5F8093AC
:10193000200202C010922002609120024CE1649FBC
:10194000C00111246D830E94C21A82E06D810DC016
:1019500080911F02893020F48F5F80931F0202C0A4
:1019600010921F0289E060911F020E94C12761CF7F
:1019700080912C02893020F48F5F80932C0202C06A
:1019800010922C0288E060912C02EFCF80911E0211
:10199000811137C040E282E160E00E94C013809173
:1019A0002802811130C040E282E161E00E94C01350
:1019B00080911402811129C040E282E162E00E941C
:1019C000C01380E0602F4EE70E94C01382E1602FB9
:1019D0000E945C230330D8F40E94892380E061E0F8
:1019E0000E94A81680918203823009F49DC1833041
:1019F00009F4A4C1813071F080918203843031F602
:101A000018CF48E5C8CF48E5CFCF48E5D6CF0E94EC
:101A10008023E4CF013009F1C8F00230B1F1033086
:101A200059F789E691E00E94A61381EE91E00E94A9
:101A3000B82381E160E04FEE0E94C01380E061E0D6
:101A40000E945C2324E1E22EF12C2BC060911E0247
:101A5000682760931E028AE01EC00E948023809146
:101A60002802811109C082E161E04EE20E94C013A8
:101A70000E942F280E943E286091280281E068275A
:101A8000609328020E94C127B7CF60911402682793
:101A9000609314028AE10E94C12782E30E944612E9
:101AA000ABCF8CEE8E0D843119F480E062E004C07F
:101AB000883221F480E063E00E945C2387E5B7016F
:101AC0000E94D7270E94D9236FEFE61AF60A80E515
:101AD000E816F10431F780E060E00E94A81680E08B
:101AE00061E071E00E9493230E94542380E06BE048
:101AF0000E94711883E060E00E94711886E06CE03B
:101B00000E94711888E060E00E9471188DE061E029
:101B10000E94711880E161E044E00E94C01381E1FD
:101B200060E00E94711880E063E00E945C2380ED19
:101B300091E00E94B82380918203843009F45CCF45
:101B400080E00E940D158093820380E00E940D15B5
:101B5000823089F780918203843069F380E00E94AB
:101B60000D158093820380E00E940D15833091F75C
:101B70000E94542380E060E00E945C2385EC91E0A9
:101B80000E94B82381E090E00E9428248EE20E9407
:101B9000D92380E090E00E9428248DEB91E00E9400
:101BA000B82380E061E00E945C2387EB91E00E9413
:101BB000B82398E0F92E8F2D0E94B2210E94552162
:101BC000811108C088E70E94D9238F2D60E170E061
:101BD0000E946019F39498E7F912EDCF80E062E07B
:101BE0000E945C2380EB91E00E94B8238091B203B5
:101BF0009091B303009711F488EB93E0F101E81B97
:101C0000F90BCF010E9428248BEA91E00E94B823AF
:101C100088E60E94B22186E793E061E10E94CE242B
:101C20000E94552188E690E062E070E00E94332235
:101C30009091740380917503981769F186E793E09A
:101C40000E9489245C0186E793E00E9489247C013C
:101C5000B5016F777727072E000C880B990B0E9430
:101C6000F82C4B015C01B701772786E075956795E5
:101C70008A95E1F7072E000C880B990B0E94F82C2F
:101C800020E030E040E85EE30E94572DA50194017A
:101C90000E94D62E03C060E070E0CB0140E050E02F
:101CA0000E9477198FED0E94D92380E063E00E94A3
:101CB0005C2385EA91E00E94B8238BE063E00E94F8
:101CC0005C2381EA91E00E94B82380911D02882361
:101CD00011F083E501C087E50E94D923809182033A
:101CE000843009F437CF81E00E940D158093820380
:101CF00086E063E00E945C2386E00E941C1BBC011E
:101D0000990F880B990B0E94F82C20E030E040EAF4
:101D10005BE30E94572D42E050E00E94771984E671
:101D200090E00E94E216DACF80E0602F40E20E944D
:101D3000C013033008F060CE0F5F5ECE80E0602FEE
:101D400040E20E94C013002309F456CE015054CE45
:101D500080E0612F40E20E94C013133048F41F5FFF
:101D600007C080E0612F40E20E94C01311111150A2
:101D700080E0612F0E945C235CCD80912B02811159
:101D800091C980E090E00E94C21A8CC980E06D2D5C
:101D900040E20E94C013F2E0FD1508F483C9D39419
:101DA00081C980E06D2D40E20E94C013CD1408F07F
:101DB00079C9DA9477C9911145C080912B028111BC
:101DC00041C080912C028823E9F190912D0281E09D
:101DD000892780932D020E94D11334C0992339F0B2
:101DE0001092250210922B020E945B202BC0809142
:101DF0001E02882339F080912602811103C00E94BF
:101E00000D1320C090912B0281E0892780932B0233
:101E10000E94D11380912B02811107C080E090E0D5
:101E20000E94C21A0E9439230AC0809120022CE12C
:101E3000829FC00111240E94C21A0E94312382E3B2
:101E40000E94461280912502811102C088E701C0DC
:101E500080EF0E9446120C94670587E00E941C1BCD
:101E60008132934064F080912502882341F01092E2
:101E7000250210922B020E945B200C9499050E946F
:101E8000D1130C94990581E0809310028091840312
:101E9000811102C00E941F238091830381115F9AE8
:101EA0000E945B200C9440068F5F0C94510600E06A
:101EB00010E00C9486068091B103882329F080916C
:101EC0002E0281110C94F9060E9439230C94F90614
:101ED0008DE361E50E9497120E94022881E08093C1
:101EE000110277C80E94312390C861E040E20E944D
:101EF000C01380E063E040E20E94C01380E062E033
:101F000058CB0E9431230C946D07E75BFF4F0C9474
:101F1000AF2F80E062E00E949712182F80E061E00E
:101F20000E945C2380E065E60E949712EAE08E9FA3
:101F3000C00111240E940629111106C083E693E016
:101F40006FE971E00E946C2B80E062E00E945C23EC
:101F500080E065E60E949712FAE08F9FC00111248D
:101F600088519C4F0E94062980E065E60E949712E6
:101F70002AE0829FC0011124112319F028EB3BE0D5
:101F800002C020ED37E0820F931F0E9406298BE0EC
:101F90000E9402280C94570780E064E60E94971282
:101FA000082F81EF90E00E94B8233CE3039F80015B
:101FB00011240056104FF12C80E5B8010E94D7275C
:101FC000482F8F2D61E00E94C013B8016C5E7F4FD7
:101FD00080E50E94D727482F8F2D62E00E94C01312
:101FE000B801685D7F4F80E50E94D727482F8F2D6D
:101FF00063E00E94C013F3940F5F1F4F44E1F4129B
:10200000DBCF0C94570780E064E60E94971260E5EE
:10201000869FC00111248C01005F184DF12C80E5D2
:10202000B8010E94D727482F8F2D60E00E94C0136F
:10203000B8016C5E7F4F80E50E94D727482F8F2D17
:1020400061E00E94C013B801685D7F4F80E50E9487
:10205000D727482F8F2D62E00E94C013B801645C1F
:102060007F4F80E50E94D727482F8F2D63E00E9485
:10207000C013F3940F5F1F4F84E1F812D0CF0C947C
:10208000570783E061E00E945C2386E091E00E94B4
:10209000B82380912002ECE18E9FC00111240E94A0
:1020A000C21A0E94FC2780E293E06AEF70E040E0F1
:1020B0002EE031E00E94131780E293E066E970E0C1
:1020C00040E024EB30E00E94131784E992E06AEFCD
:1020D00070E040E02AEF30E00E94131780ED97E0B7
:1020E0000E94E21680E090E00E94C21A0C945B0706
:1020F0000E945B27F82E80E069E671E00E9493233E
:1021000001E00E945B27F8125EC080918203843058
:1021100009F459C00093A9030E94542381E064E1AB
:102120000E949712182F112381F080E064E10E9431
:102130009712E82E80E064E00E949712682F8E2D9F
:1021400040E00E94C0131150EECF84EF91E00E9456
:10215000E216D7CF18E288E10E94422388EC90E093
:102160000E94E21680918203843009F411E011503C
:10217000123088F70C945B0780E069E671E00E94FA
:10218000932300E010E0812F602F40E00E94C013F5
:1021900086E990E00E94E21680918203843011F477
:1021A00014E104E0812F602F40E20E94C0131F5F02
:1021B000143148F30F5F043028F380ED97E00E945C
:1021C000E2160C945B071092A9030C945B0781E55F
:1021D0006FE60E9497120E9402280C946D0783FDFF
:1021E00002C098E001C098E28770892B98E10FB691
:1021F000F894A895909360000FBE80936000A89516
:102200008091600080648093600080912B0288231D
:1022100019F083B7817F0BC080912502882321F0BC
:1022200083B7817F846003C083B7817F8C6083BF65
:1022300083B7816083BF85B7806685BF8F7D85BF8B
:1022400080916400816080936400889583B78E7F5D
:1022500083BF0FB6F894A895809160008861809341
:102260006000109260000FBE809160008F7B8093B1
:102270006000809164008E7F809364000895809157
:10228000FC029DEF980F983008F06DC09CEF980FFE
:10229000963008F466C0833089F52091FB024091A6
:1022A0003B0250913C0235E0349FC001359F900DB8
:1022B000112497FD03969595879595958795049696
:1022C00067E070E00E949B2F4FE150E0BA01681B6D
:1022D000790B38E1369FA001379F500D11244F5FD5
:1022E0005F4F8091F90278E1279F90011124280F18
:1022F000311D81E042175307BCF135C08A3099F592
:102300002091FB0240913B0250913C0235E0349F0A
:10231000C001359F900D112497FD039695958795E3
:1023200095958795019667E070E00E949B2F4FE19D
:1023300050E0BA01681B790B38E1369FA001379F46
:10234000500D11244F5F5F4F8091F90278E1279F74
:1023500090011124280F311D81E04217530724F406
:1023600002C081E0089580E00895EF92FF920F93FC
:102370001F93CF93DF9388E60E94B22186E793E014
:1023800060E00E94CE240E94552188E690E067E03C
:1023900070E00E94332286E793E00E948924C7EF11
:1023A000D2E0982F9695969596959E70292F220F9C
:1023B000220F920F8F70890F888386E793E00E9427
:1023C0008924982F92959F708F702AE0929F800D9C
:1023D0001124898386E793E00E948924982F96959B
:1023E000969596959670292F220F220F920F8F7037
:1023F000890F8A8386E793E00E948924982F92951B
:102400009F708F702AE0929F800D11248B8386E746
:1024100093E00E948924982F92959F708F702AE0F4
:10242000929F800D11248C8386E793E00E9489247B
:10243000982F92959F708F702AE0929F800D1124A3
:102440008D8386E793E00E948924982F9F70925E87
:1024500082958F70E92E2AE0829FE00C1124EE8293
:102460008A81698170E0488150E02C8130E00D81E3
:1024700010E0F12C9EE4E91A98EFF90A90E00E942E
:102480002F25CDB7DEB7E6E00C94B72ECF93C82F3B
:1024900080912B02882329F08091640080628093D0
:1024A0006400C7FF04C083E00E94EF10C857C03427
:1024B00020F082E00E94EF10CC53C03220F081E087
:1024C0000E94EF10CE51C03118F080E00E94EF1052
:1024D00080912B02882321F0809164001092640087
:1024E000CF9108958F929F92AF92BF92CF92DF9239
:1024F000EF92FF926C010E94331B4B015C01E12CB7
:10250000F12C0E94331BDC01CB0188199909AA091F
:10251000BB098C159D05AE05BF0598F3FF90EF90A4
:10252000DF90CF90BF90AF909F908F900895A0E0E4
:10253000B0E0EDE9F2E10C94952E962F3FB7F894B8
:102540004091C8025091C9026091CA027091CB02B9
:1025500026B5A89B06C02F3F21F04F5F5F4F6F4FFE
:102560007F4F3FBF762F652F542F4427420F511DB9
:10257000611D711DE2E0440F551F661F771FEA952C
:10258000D1F7EA01CC0FDD1FCC0FDD1F4C275D27F3
:10259000EA01CC0FCD2FCC1FDD0BD195C427D52759
:1025A0007E01F694FE2CEE24F794E794082F10E0B9
:1025B000692F70E0601B710B072E000C880B990BC4
:1025C0000E94F82C20E830E040E857E30E94572DA5
:1025D0004B015C01CE25DF25BE0180E090E00E942A
:1025E000F62C9B01AC01C501B4010E94572D6B0173
:1025F0007C01B801110F880B990B0E94F82C9B01EC
:10260000AC01C701B6010E94D62E0E94422F862F30
:10261000CDB7DEB7ECE00C94B12E80E090E00E94E4
:10262000C21A81E08093250210922B0208950F9325
:102630001F93CF9301E011E0C0E08C2FB8010E94FE
:102640009323CF5F085F1F4FC830B9F7CF911F9119
:102650000F9108958FEE0E94D92384E293E00E94A7
:10266000B82308958FE193E00E94B823089580E392
:102670000E94D92308950E94F4250E947E2680910D
:10268000A80390E08E54984F90933C0280933B02B5
:102690000E94F4250E947E268091A6038093FB026F
:1026A0000E94F4250E947E268091A7038093FC025D
:1026B00080E063E00E945C230E94F4250E947E2655
:1026C000E091A503F0E0EE0FFF1FEC5CFC4F65917D
:1026D00074918FE292E00E94E72C83E693E06FE230
:1026E00072E00E946C2B8AE063E00E945C23809180
:1026F000FB028A3010F40E9437138091FB026AE0DB
:1027000070E00E9460198EE20E94D9238091FC0241
:102710008A3010F40E9437138091FC026AE070E066
:102720000E9460198EE20E94D92380913B02909111
:102730003C020E9428248091390290913A020A9723
:1027400024F482E160E00E945C230895BC0180E0F3
:102750000E9493230E94542380E00E94D92380E2A8
:102760000E94D9230895CF93C42F0E945C23CC23C9
:1027700029F080E20E94D923C150F9CFCF9108956A
:10278000A1E0B0E0E6ECF3E10C949F2E49830E94B7
:102790005C234981842F0E94D9232196E2E00C9486
:1027A000BB2ECF930E944A200E94F71F80932E02D7
:1027B0008091F9028A3018F481E060E005C06AE097
:1027C0000E947B2F682F81E00E9471188091F9028E
:1027D000CAE06C2F0E947B2F84E0692F0E94711841
:1027E00087E06AE00E9471188091F8028A3018F43C
:1027F0008AE060E005C06C2F0E947B2F682F8AE082
:102800000E9471188091F8026AE00E947B2F8DE08F
:10281000692F0E94711881E161E043E00E94B313C7
:1028200081E161E00E945C2380912D02811104C04E
:1028300080912C02811103C088E70E94D9238091E6
:102840002B02882319F084E40E94D9238091B103DC
:10285000882349F080912E02882311F08EE401C074
:102860008EE60E94D92380912A02882341F083E0DA
:1028700062E00E945C2388E293E00E94B82381E139
:1028800062E043E00E94B31381E162E00E945C23B6
:1028900080912902882319F084EF0E94D923809126
:1028A000D502882319F080E70E94D923809128025D
:1028B000882319F083E50E94D92380918403811134
:1028C00008C080918303811104C08091270288236E
:1028D00019F080E50E94D92386E00E941C1B90938A
:1028E0003A0280933902C4E08AE00E94461286E0F0
:1028F0000E941C1B2091390230913A02820F931FD3
:1029000090933A0280933902C15071F765E070E00C
:102910000E949B2F072E000C880B990B0E94F82C0D
:1029200020E030E040EA5BE30E94572D26E636E6E1
:1029300046E350EC0E94D62E2CE938ED49E952E4EA
:102940000E94572D0E94422F1616170634F4643643
:1029500071052CF063E670E002C061E070E0CB012D
:10296000072E000CAA0BBB0B9C01AD016A3371054D
:10297000A4F02953310941095109ABE5B0E00E94A7
:102980007C2E2AE230E040E050E00E945D2EDA0129
:10299000C9010896A11DB11D13C02150310941097B
:1029A0005109A7E0B0E00E947C2E27E330E040E030
:1029B00050E00E945D2EDA01C9010196A11DB11DF2
:1029C00090933A028093390281E160E00E945C2397
:1029D0008091390290913A020A9744F481E160E0D3
:1029E00040E20E94C0130E94892302C00E948023FB
:1029F0008091390290913A020E9428248091260207
:102A0000882311F08BE201C085E20E94D92382E184
:102A100060E00E945C23CF910895CF93C82F8091EE
:102A2000D502811106C04C9904C0809184038111A4
:102A30003CC18091390290913A0205970CF4C1E0B3
:102A40004C990DC080912702811109C080918303A8
:102A5000811105C08091A903882309F429C18091BF
:102A60002902882309F4F0C08091A9038111ECC0E8
:102A70000E944A2020912402909123028091F80222
:102A80002111DFC09813DDC0309122022091F9029C
:102A90003213D7C080912B0281110E9439235E9896
:102AA00080E069E871E00E9493230E9454230E9411
:102AB000802387E060E00E945C238091F9028A30E5
:102AC00010F40E9437138091F9026AE070E00E94CE
:102AD00060198AE30E94D9238091F8028A3010F4A9
:102AE0000E9437138091F8026AE070E00E9460193A
:102AF00084E063E00E945C2382E193E00E94B823BB
:102B00008BE063E045EF0E94C01381E08093A9034E
:102B10008091830381115F9880912102813051F46B
:102B200090912702911106C090918403911102C0E7
:102B3000809327021092820380918203843009F4EB
:102B40004CC0909123028091F802981346C085E012
:102B500062E040E00E94C0138AE093E00E94B82344
:102B600080E00E94D92381E00E940D1580938203AA
:102B70008FEF90E00E94C21A80912102882341F0D9
:102B800080918403811104C08091D502882321F0B3
:102B90008091AB030E94422880912102823039F457
:102BA0004C9905C080918403882309F485C084EF83
:102BB00091E00E94E21685E062E049E00E94B313D2
:102BC00080E090E00E94C21A84EF91E00E94E21639
:102BD0000E945B278093F802AFCF8091840381111C
:102BE00003C00E941F2308C080912102813021F47C
:102BF0008091830381115F9A1092A903909123021F
:102C00008091F802981309C0909122028091F902F4
:102C1000981303C081E0809324020E945423809182
:102C20002502882331F080912702811102C04C9B3C
:102C300049C080912B0281110E9431230E945B20A8
:102C400019C09813109224028EE00E941C1B893C2C
:102C5000910508F079C087399105B0F182E30E94AF
:102C600046128EE00E941C1B873991050CF467C048
:102C70004C9B02C0C4E017C0809128028111FACF9A
:102C8000C111F8CF8091D5028111F4CF81E065E0C8
:102C90000E949712C82F843069F78FE16DE30E947C
:102CA00097120E9402288C2F51C010928403C1CE2B
:102CB0005E9A0E94B511D3CE8091AA038F5F0E94C5
:102CC000022875CF5E9AB5CF8536910550F082E324
:102CD0000E9446128EE00E941C1B8536910584F5E9
:102CE0002EC0C39748F082E30E9446128EE00E94F5
:102CF0001C1BC3973CF523C082E30E9446128EE062
:102D00000E941C1B18161906D4F44C9916C0809109
:102D10002802811112C0C11110C08091D502811109
:102D20000CC081E068E00E949712843031F48BE09F
:102D30006FE10E9497120E940228C1E0B4CF06C042
:102D4000C3E0B1CFC2E0AFCFC0E0ADCFCF91089527
:102D5000CF92DF92EF92FF921F93CF93DF93C82F12
:102D6000D62F0E94331B6B017C0120E6C20E2AEE97
:102D7000D21EE11CF11C1092820314E09091820398
:102D8000911115C08C2F0E940D1580938203D111D3
:102D900004C088E70E944612F1CF0E94331BC6167A
:102DA000D706E806F90650F710938203E7CF82E3CF
:102DB0000E944612DF91CF911F91FF90EF90DF901C
:102DC000CF9008958F929F92AF92BF92CF92DF9251
:102DD000EF92FF926C010E94331B4B015C01E12CCE
:102DE000F12C0E94331BDC01CB0188199909AA0937
:102DF000BB098C159D05AE05BF0528F481E00E9436
:102E00000D15843071F781E00E940D15843011F4A6
:102E100080938203FF90EF90DF90CF90BF90AF90B0
:102E20009F908F900895A0E0B0E0E9E1F7E10C9465
:102E3000972E5B01142FE9019C0140E050E060E017
:102E400079E08DE390E00E945D2E69017A0181E0D6
:102E5000C81AD108E108F108C114D104E1E0EE0676
:102E6000F10458F0CD2CDE2CEF2CFF24F1E0CF1A2A
:102E7000D108E108F10804E001C001E0A114B104A7
:102E800049F00E94331B6A0D7B1D70938D03609384
:102E90008C0306C08FEF9FEF90938D0380938C037C
:102EA00080918903811122C0E3EFF3E08491809344
:102EB00089036FED73E0FB019491E92FF0E0EE0FD1
:102EC000FF1FE054FC4F2591349130938B032093E6
:102ED0008A03FB016491E62FF0E0EE0FFF1FEC5B2D
:102EE000FC4FA591B491EC918E2B8C93D0928700DE
:102EF000C09286008091840090918500A0E0B0E0AF
:102F0000C816D906EA06FB0620F4D0928500C092C6
:102F1000840000610093810080E1809380008091B3
:102F20006F00826080936F00111104C0CE010E9477
:102F3000721207C080918203843019F0CE010E9482
:102F4000E216CDB7DEB7EAE00C94B32EA0E0B0E015
:102F5000ECEAF7E10C94992E6C017A018B01C0E048
:102F6000D0E0CE15DF0589F0D8016D918D01D60135
:102F7000ED91FC910190F081E02DC6010995892B1E
:102F800011F47E0102C02196ECCFC701CDB7DEB7A8
:102F9000E8E00C94B52E2091C6023091C7022817A4
:102FA000390771F49091C5028091C402981741F0DD
:102FB000E091C502F0E0EC57FD4F808190E008956C
:102FC0008FEF9FEF089508951F93CF93DF93DC0158
:102FD0005C962D913C915D972115310539F481E086
:102FE00090E013969C938E9312973DC05196ED916D
:102FF000FC91529750969C915097892F80951FB7BE
:103000005E964C915E9741FB772770F941FD609584
:10301000F8944081772311F0492B01C04823408365
:10302000E9012197F1F748E0508160FF02C0592B78
:1030300001C058235083E9012197F1F7669541506B
:1030400099F7772321F090818923808303C08081C1
:10305000982B90831FBF5C968D919C915D970197F3
:10306000F1F721E030E0C901DF91CF911F91089580
:103070002091C6023091C7022817390771F4809158
:10308000C4022091C50290E0805C9F4F821B910991
:1030900060E470E00E949B2F089580E090E0089526
:1030A0002091C6023091C70228173907B9F49091D0
:1030B000C5028091C402981789F0E091C502F0E042
:1030C000EC57FD4F80812091C50230E02F5F3F4FCC
:1030D0002F7333272093C50290E008958FEF9FEF61
:1030E0000895CF93C62F8093D2021092D10260E050
:1030F00043E00E94B3136091D1026F5F8091D202CE
:1031000043E00E94B3138C2F90E08D30910508F0BE
:10311000D5C0FC01E05BFF4F8091D2020C94AF2F31
:103120006091D10240E00E94C01381E067C06091CD
:10313000D10241E00E94C01382E00E94D923609135
:10314000D1026F5F8091D20244E00E94C01387E0F9
:1031500014C06091D10246E00E94C01386E00E9434
:10316000D92382E00E94D9236091D1026F5F8091C0
:10317000D20243E00E94C01384E00E94D92384E07D
:103180009BC06091D10246E00E94C01386E00E947D
:10319000D92382E013C06091D10243E00E94C013A2
:1031A00084E00E94D92387E044C06091D10243E0CB
:1031B0000E94C01386E00E94D92386E00E94D92392
:1031C0006091D1026F5F8091D20244E022C0609191
:1031D000D10240E00E94C01386E00E94D92386E01D
:1031E00010C06091D10241E00E94C01381E01EC076
:1031F0006091D10240E00E94C01386E00E94D92372
:1032000082E00E94D9236091D1026F5F8091D20247
:1032100043E00E94C01384E00E94D92385E04CC0A3
:103220006091D10240E00E94C01386E00E94D92341
:1032300082E00E94D9238091D2026091D1026F5F17
:103240008E5F47E00DC08F5F6091D10244E00E9425
:10325000C0138091D2026091D1026F5F8F5F44E012
:103260000E94C0132BC06091D10240E00E94C013A5
:1032700082E00E94D92380E00E94D9236091D1028C
:103280006F5F8091D20247E00E94C01383E00E94EA
:10329000D92387E011C06091D10247E00E94C0139A
:1032A00080E00E94D9236091D1026F5F8091D202A9
:1032B00047E00E94C01383E00E94D923CF91089574
:1032C000282FAB01672B61F4E0916303F091640355
:1032D0000190F081E02D83E693E0622F0995089537
:1032E000682F70E080E090E00E94E52308954F92FF
:1032F0005F926F927F928F929F92AF92BF92CF9286
:10330000DF92EF92FF92CF93DF936B017C01B42E9B
:10331000A70196010E94762F882329F083E693E087
:103320006BEA71E00FC0C701B6019F772FEF3FEF47
:103330004FE75FE70E94712F18163CF483E693E095
:103340006FEA71E00E946C2B86C0C701B6012FEFB7
:103350003FEF4FE75FE40E94712F18162CF483E6CD
:1033600093E063EB71E0EECFC701B6012FEF3FEFC3
:103370004FE75FEC0E94F12C87FDF1CFC701B6014A
:1033800020E030E0A9010E94F12C87FF09C08DE206
:103390000E94D923EC01F7FAF094F7F8F09402C0F8
:1033A000C0E0D0E0A12C60E070E080E09FE3AB14CF
:1033B00040F42DEC3CEC4CEC5DE30E94572DA394C3
:1033C000F6CFA70196010E94D62E2B013C010E9448
:1033D000422F6B017C010E94F62C9B01AC01C301C2
:1033E000B2010E94D52E2B013C01C701B6014AE073
:1033F0000E94E523C80FD91FBB2029F08EE20E944E
:10340000D923C80FD91FFB2CFF2021F1C301B20122
:1034100020E030E040E251E40E94572D2B013C01B6
:103420000E94422F4B01A12CB12CC501B4014AE0EE
:103430000E94E523C80FD91FC501B4010E94F62CD4
:103440009B01AC01C301B2010E94D52E2B013C01AE
:10345000FA94DACFCE01DF91CF91FF90EF90DF9019
:10346000CF90BF90AF909F908F907F906F905F9024
:103470004F90089590E0FC01E25BFC4F3491FC0119
:10348000E851FC4F2491FC01EC52FC4FE491EE23F7
:1034900009F43BC0332339F1333091F038F4313043
:1034A000A9F0323001F584B58F7D12C0373091F02C
:1034B0003830A1F03430B9F4809180008F7D03C0A2
:1034C000809180008F77809380000DC084B58F77C6
:1034D00084BD09C08091B0008F7703C08091B00097
:1034E0008F7D8093B000F0E0EE0FFF1FE054FC4FA3
:1034F000A591B4918FB7F894EC91611103C0209518
:103500002E2301C02E2B2C938FBF0895CF93DF93D2
:1035100090E0FC01E851FC4F2491FC01EC52FC4F7F
:103520008491882361F190E0880F991FFC01EC5B86
:10353000FC4FC591D491FC01E054FC4FA591B4918E
:10354000611109C09FB7F8948881209582238883F0
:10355000EC912E230BC0623061F49FB7F894388150
:10356000822F809583238883EC912E2B2C939FBFF1
:1035700006C08FB7F894E8812E2B28838FBFDF9188
:10358000CF910895CF93DF93EC018AE061E00E9430
:10359000861A209719F48AE060E005C0CF3FD10574
:1035A00029F48AE061E00E943A1A43C0E8E5F3E0BA
:1035B000E491E330F9F048F4E130B9F0E230A1F5FC
:1035C00084B5806284BDC8BD34C0E730E9F0E8301E
:1035D00019F1E43049F58091800080628093800089
:1035E000D0938B00C0938A0024C084B5806884BDCA
:1035F000C7BD1FC080918000806880938000D093F9
:103600008900C093880015C08091B00080688093C5
:10361000B000C093B3000DC08091B0008062809371
:10362000B000C093B40005C0C038D1050CF0B9CFCC
:10363000B2CFDF91CF9108958E3008F08E50877011
:10364000806480937C0080917A00806480937A000B
:1036500080917A0086FDFCCF8091780020917900DE
:1036600090E0922B08952FB7F8946091CD0270915D
:10367000CE028091CF029091D0022FBF08951F9269
:103680000F920FB60F9211242F933F938F939F9316
:10369000AF93BF938091CD029091CE02A091CF02C3
:1036A000B091D0023091CC0223E0230F2D3720F4CB
:1036B0000196A11DB11D05C026E8230F0296A11D8C
:1036C000B11D2093CC028093CD029093CE02A093A3
:1036D000CF02B093D0028091C8029091C902A0910C
:1036E000CA02B091CB020196A11DB11D8093C80200
:1036F0009093C902A093CA02B093CB02BF91AF913D
:103700009F918F913F912F910F900FBE0F901F901F
:1037100018951F920F920FB60F9211242F933F937B
:103720004F935F936F937F938F939F93AF93BF93C9
:10373000EF93FF93E091C602F091C702309709F42E
:1037400051C0968DA685B785858591FF04C09C9153
:10375000892329F447C09C91892309F043C0A38998
:10376000B4899C918589809589238C9386899789D2
:103770000197F1F7608D718DA685B785558538E085
:1037800020E0CB010197F1F7822F90E09595879586
:10379000282F4C91452309F02068315091F7868DF0
:1037A00081FD20958091C40290E001968F73992746
:1037B0003091C502381749F0A091C402B0E0AC576F
:1037C000BD4F2C938093C40203C0868D8160868F89
:1037D000828D938D0197F1F7A389B4899C91858996
:1037E000892B8C93FF91EF91BF91AF919F918F9116
:1037F0007F916F915F914F913F912F910F900FBEED
:103800000F901F901895E091C602F091C702E8173B
:10381000F90769F4A389B4899C91858980958923E6
:103820008C931092C7021092C60281E0089580E046
:1038300008951F920F920FB60F9211242F933F936A
:103840004F935F936F937F938F939F93AF93BF93A8
:10385000EF93FF938091B900887F803609F49CC074
:1038600068F5883209F45BC090F4803109F454C0E3
:1038700038F4882309F4F6C0883009F44DC0F6C046
:10388000883109F44CC0803209F45DC0EFC0803447
:1038900009F468C048F4803309F455C0883309F04E
:1038A000E5C080932103D8C0803509F44FC0883526
:1038B00009F45DC0883409F0D9C0D6C0883909F44C
:1038C000C7C0A8F4883709F467C038F4883609F40B
:1038D00063C0803709F460C0C9C0883809F4B8C033
:1038E000803909F45FC0803809F0C0C05BC0803BFC
:1038F00009F486C038F4803A09F466C0883A09F4BD
:103900007FC0B4C0803C09F4A7C0883C09F4A4C0BF
:10391000883B09F48AC0AAC08091FE0210C0909131
:10392000200380911F03981770F5E091200381E038
:103930008E0F80932003F0E0E150FD4F8081809353
:10394000BB0085EC86C0809321038EC0E0912003EC
:1039500081E08E0F809320038091BB00F0E0E15066
:10396000FD4F80839091200380911F036EC0E091F2
:10397000200381E08E0F809320038091BB00F0E054
:10398000E150FD4F80838091700381116DC081E013
:1039900080936F0384EA61C083E080937103109287
:1039A0008302CFCF80918302803208F051C0E09132
:1039B000830281E08E0F809383028091BB00F0E050
:1039C000ED59FD4F8083BDCF85EC8093BC001092F4
:1039D000710380918302803230F4E0918302F0E041
:1039E000ED59FD4F10826091830270E0E091610219
:1039F000F091620283E692E009951092830236C04C
:103A000084E0809371031092600210925F02E09153
:103A10005D02F0915E02099580915F02811105C0FF
:103A200081E080935F0210923D02E091600281E0AC
:103A30008E0F80936002F0E0E35CFD4F8081809305
:103A4000BB009091600280915F02981708F479CFD3
:103A500085E88093BC000AC085EC8093BC0010927E
:103A6000710304C0109221030E942525FF91EF915C
:103A7000BF91AF919F918F917F916F915F914F9186
:103A80003F912F910F900FBE0F901F901895ACE0B3
:103A9000B0E0EDE4FDE10C949A2E80E069E771E07E
:103AA0000E9493230E94542382E060E00E945C23E2
:103AB00088EB93E00E94B8230E942A1382E061E021
:103AC0000E945C238EEA93E00E94B8230E942A138E
:103AD00082E062E00E945C2382EA93E00E94B823C5
:103AE00082E063E00E945C2384E993E00E94B823B3
:103AF0000E942A13E12C80918203843009F42DC2A4
:103B000081E060E048E70E94C01380918603811144
:103B100002C040E201C040E081E061E00E94C013C9
:103B200080918303811102C040E201C040E081E046
:103B300062E00E94C01381E063E048E70E94C01386
:103B400080E06E2D4EE70E94C01381E061E00E948C
:103B5000A81680918203823009F4EAC1833009F407
:103B6000F2C1813041F6E81629F082E0E81609F446
:103B7000C5C1C1CF9091D60280918403992309F4E5
:103B800025C1811102C04C99FECF81E069E471E04A
:103B90000E94932382E061E571E00E94932383E019
:103BA00061E471E00E94932389E791E00E94A613EB
:103BB00084E063E00E945C2387E893E00E94B823DE
:103BC0008BE063E042E00E94C0138091D50288231D
:103BD00019F082E0F82E02C0FF24F3940E9489239A
:103BE000DD24D39480918203843009F484C14C99FC
:103BF00009C08091D502811105C080918503882379
:103C000009F4B1C182E060E00E945C2380918503E9
:103C1000882329F08CE793E00E94B82314C084E63F
:103C20000E94461282E560E040E09E012F5F3F4F18
:103C30000CE010E00E947E2283E693E0BE016F5FFD
:103C40007F4F0E946C2B87E062E00E945C234C9BBC
:103C500005C080918503882309F49FC180910001EC
:103C60008A3010F40E943713809100016AE070E0FE
:103C70000E9460198FE20E94D9238091D6028A3077
:103C800010F40E9437138091D6026AE070E00E941F
:103C900060198FE060E00E945C238091D502882348
:103CA00029F082E693E00E94B82305C08FE060E02F
:103CB00045E00E94B3134C9906C08091D502811152
:103CC00002C043E001C041E088E063E00E94C0130D
:103CD0008F2D880F8F0D8B5F63E00E945C2381E046
:103CE00061E00E94A81680918203823009F45BC0D3
:103CF000833009F462C0813009F074CFF816E1F026
:103D0000F81638F082E0F81659F183E0F81679F1E8
:103D100069CF80910001823018F0815080930001BA
:103D200080918503882321F010928503D092860329
:103D30004C9930C0F12C56CF4C990DC0F0928603AF
:103D4000909100018091D402890F81590E9402282C
:103D5000F092840302C00E942F280E943E2842CF86
:103D60008091D5024C9923C1811121C13BCF809113
:103D700000019091D602891718F48F5F809300019B
:103D800080918503882321F010928503D0928603C9
:103D90004C9B28CF909100018091D402890F8159CA
:103DA0000E9402281FCF8091D50281111BCF82E093
:103DB0008F1508F417CFF39415CF8091D502811198
:103DC00011CFFF2009F4B6CFFA940CCF811102C0B5
:103DD0004C99FECF81E069E471E00E94932382E078
:103DE00061E571E00E94932383E061E471E00E9449
:103DF000932389E791E00E94A61384E063E00E9488
:103E00005C2387E893E00E94B8238BE063E042E004
:103E10000E94C0138091D502882311F012E001C0E6
:103E200011E00E94892380918203843009F463C0E9
:103E300080E061E00E945C2388E693E00E94B82362
:103E40008FE060E00E945C238091D502882329F0F6
:103E500082E693E00E94B82305C08FE060E045E071
:103E60000E94B3134C9906C08091D502811102C003
:103E700043E001C041E088E063E00E94C013812F6D
:103E8000880F810F8B5F63E00E945C2381E061E01B
:103E90000E94A816809182038230D9F0833011F1FC
:103EA000813009F6113021F0123009F0BCCF0AC080
:103EB0004C9903C01093840302C00E942F280E94D3
:103EC0003E28B1CF8091D5024C997FC081117DC031
:103ED000AACF8091D5028111A6CF133008F0A3CFCD
:103EE0001F5FA1CF8091D50281119DCF112309F4CD
:103EF0009ACF115098CF0E941713FDCD8091830364
:103F0000811109C08091D502811102C04C996CC009
:103F10005E985F9A02C05E9A5F989091830381E0F9
:103F200089278093830384EF91E00E947212E3CD8E
:103F300080E06E2D40E20E94C01382E08E1508F4EE
:103F4000DACDE394D8CD80E06E2D40E20E94C0131C
:103F5000EE2009F4D0CDEA94CECD0E9417132C9612
:103F6000E7E00C94B62E4091D40250E041595F4FE7
:103F700080910001480F511D83E0652F20E030E063
:103F800000E010E00E947E2284E60E9446120E9419
:103F90002F2884E60E94461235CE84E60E944612FF
:103FA0008BE40E94F62287598093000157CE882324
:103FB00039F05E981092D5028DE00E94122312CE45
:103FC000D092D5020E941F230DCE882339F05E982F
:103FD0001092D5028DE00E94122325CF81E08093BC
:103FE000D5020E941F231FCF0E942F2891CFCF936D
:103FF0008091B1038823E9F18091AF039091AD03E3
:104000002091F902981730F4C1E0821768F029175F
:1040100058F009C0891738F4C0E0821728F429172E
:1040200018F4C1E001C0C0E0891310C05091AE0384
:104030003091AC03351738F04091F802451718F06D
:10404000341708F0C1E0381708F4C1E0281307C09E
:104050003091F8028091AE03381708F0C1E02913BF
:1040600009C09091F8028091AC03981718F4C1E050
:1040700001C0C0E08091D302C81749F0CC2311F0F1
:1040800087E401C086E60E940228C093D3028C2FE9
:10409000CF910895CF93DF930E945B27C7EFD2E0C3
:1040A00089830E94F4250E947E268091A4038A833E
:1040B000DF91CF9108950E9454230E9417130E940C
:1040C0003B130E94D11308958F929F92AF92BF929B
:1040D000CF92DF92EF92FF92CF93DF936B017C013F
:1040E0000E94331B4B015C0184E493E00E9438186A
:1040F000EC01892B69F40E94331BAB01BC01481908
:1041000059096A097B094C155D056E057F0560F349
:10411000CE01DF91CF91FF90EF90DF90CF90BF90D5
:10412000AF909F908F90089510927903109278032A
:1041300088EE93E0A0E0B0E080937A0390937B0355
:10414000A0937C03B0937D032BEC31E03093770395
:104150002093760310926603109265032BEF31E0F3
:1041600030936403209363031092670324E1209348
:104170006C0324E020936D0328E020936E031092DB
:104180004703109246038093480390934903A093FA
:104190004A03B0934B038BED91E0909345038093DA
:1041A000440310925B0310925A0310925D03109225
:1041B0005C0310925F0310925E03109261031092F1
:1041C0006003609162036E7F6D7F6093620366950A
:1041D000617081E0682783E00E943A1A83E061E021
:1041E0000E94861AEBEEF3E0E491E0935403E7EDCE
:1041F000F3E0E491F0E0EE0FFF1FE054FC4F8591F7
:104200009491909356038093550382E060E00E945E
:10421000861A8091620381FD04C082E061E00E9401
:104220003A1A82E080935003EAEEF3E0E491E093DF
:104230005103E6EDF3E0E491F0E0EE0FFF1FE653EB
:10424000FC4F8591949190935303809352038BEE8E
:1042500091E090934503809344031092750310926C
:10426000740310927303109272031092710381E031
:104270008093700310926F0382E161E00E943A1A0A
:1042800083E161E00E943A1A8091B9008E7F8093A9
:10429000B9008091B9008D7F8093B90088E4809344
:1042A000B80085E48093BC00089590914303209169
:1042B0007203213208F04AC0809171038111FCCF52
:1042C00032E03093710331E0309370033FEF30936D
:1042D00021031092200320931F03A3E2B3E04FEFCA
:1042E00052E0FA013E2F341B321718F43D913193FE
:1042F000F9CF1092FE022091FE02990F922B90931B
:10430000FE0290916F03913061F410926F039091CF
:10431000FE029093BB009091BC0093FDF8CF95EC0A
:1043200001C095EE9093BC00909171039230E1F33F
:10433000909121039F3F79F080912103803241F0D9
:1043400080912103803331F084E005C081E003C017
:1043500082E001C083E01092730310927203109206
:104360002203089591E090932203809343031092D7
:1043700073031092720308950F931F93CF9388E6EF
:104380000E94B22186E793E060E00E94CE2407EF0E
:1043900012E0F8018081CAE06C2F0E947B2F692F08
:1043A000F0E18F9F600D112486E793E00E94CE24F8
:1043B000F80181816C2F0E947B2F692FF0E18F9F84
:1043C000600D112486E793E00E94CE24F8018281DB
:1043D0006C2F0E947B2F692FF0E18F9F600D1124BD
:1043E00086E793E00E94CE24F80183816C2F0E941F
:1043F0007B2F692FF0E18F9F600D112486E793E0FA
:104400000E94CE24F80184816C2F0E947B2F692F9B
:10441000F0E18F9F600D112486E793E00E94CE2487
:10442000F80185816C2F0E947B2F692FF0E18F9F0F
:10443000600D112486E793E00E94CE24F801868166
:104440008E516C2F0E947B2F692FF0E18F9F600DA2
:10445000112486E793E00E94CE240E945521CF913B
:104460001F910F910895909171039111FCCF6132CA
:1044700008F060E291E090937103909370032FEF46
:104480002093210310922003260F20931F03909363
:10449000FE029091FE02880F892B8093FE0280918C
:1044A0006F03813061F410926F038091FE0280935C
:1044B000BB008091BC0083FDF8CF85EC01C085EE88
:1044C0008093BC00809171038130E1F380912003DF
:1044D000861710F460912003AFEFB2E027ED32E0D1
:1044E000F9018E2F821B861718F48D918193F9CFD5
:1044F0001092750360937403862F0895A0E0B0E0D6
:10450000E4E8F2E20C94992EE82EC62ED42EE901AE
:10451000EDEFE80FE03128F4F0E0E954FE4FF080D1
:1045200001C0F12C6AE070E080E090E00E9464201D
:10453000892B29F084E493E00E945018F3CF84E49F
:1045400093E06EE70E94E41784E493E062E06F0D6D
:104550000E94E41784E493E06E2D0E94E417FF208C
:1045600069F084E493E06C2D0E94E41782E0F81275
:1045700005C084E493E06D2D0E94E41784E493E089
:104580006FEE0E94E417209749F00115110531F0F4
:10459000CE0160E070E0A8010E94B52F68EE73E0E4
:1045A00080E090E00E946420E12CF12C0150110980
:1045B00062E370E080E090E00E946420892B89F043
:1045C00084E493E00E945018209791F3E016F106DE
:1045D00078F7FE01EE0DFF1D8083C70101967C0177
:1045E000E7CFCDB7DEB7E8E00C94B52EA5E0B0E09C
:1045F000ECEFF2E20C949D2E60E040E09E012F5F14
:104600003F4F05E010E00E947E22CE01019660E05F
:1046100070E040E150E00E94CC2BCB012596E4E015
:104620000C94B92E0F931F9360E040E020E030E03F
:1046300000E010E00E947E221F910F9108958EE00D
:104640000E94122308950F931F93682F81E140E089
:1046500020E030E000E010E00E947E221F910F91E8
:10466000089510926E0383E693E060E00E94822B2F
:10467000089588E080936E0383E693E060E00E94F3
:10468000822B0895CF93C82F682F607F83E693E035
:104690000E949C2B80E1C89FB001112483E693E027
:1046A0000E949C2BCF91089581E00E9442238BE3CE
:1046B0009FE10197F1F70895A8E0B0E0E2E6F3E2A8
:1046C0000C949F2E98E0E1E9F1E0DE011196019053
:1046D0000D929A95E1F790916B03961710F46FEF96
:1046E000690FFE013196E60FF11DE60FF11D908175
:1046F000890F80680E9442232896E2E00C94BB2E2A
:10470000E3E6F3E086818E7F868388600E94422301
:104710000895E3E6F3E08681982F9160968389609F
:104720000E9442230895A2E0B0E0E9E9F3E20C948C
:104730009B2E877028E0829FC001112480646983CA
:104740007A830E9442236981E62E7A81F72E8701BF
:10475000085F1F4FF70161917F0183E693E00E949C
:10476000B52BE016F106B1F72296E6E00C94B72ED1
:104770000F931F93CF93DF938C01C0E0D0E0F8013B
:10478000EC0FFD1F6491662371F0E0916303F091DB
:1047900064030190F081E02D83E693E00995892B75
:1047A00011F02196ECCFCE01DF91CF911F910F91A7
:1047B0000895682FE0916303F09164030190F08104
:1047C000E02D83E693E0099508958F929F92AF9232
:1047D000BF920F931F93CF93DF93CDB7DEB7A1970F
:1047E0000FB6F894DEBF0FBECDBF19A2423008F459
:1047F0004AE08E010F5D1F4F842E912CA12CB12C0D
:10480000A50194010E943B2EE62FB901CA01015077
:104810001109EA3014F4E05D01C0E95CD801EC93C1
:10482000232B242B252B61F783E693E0B8010E940C
:104830006C2BA1960FB6F894DEBF0FBECDBFDF91F3
:10484000CF911F910F91BF90AF909F908F9008953F
:10485000CF92DF92EF92FF92CF93DF936C01990F8B
:10486000EE08FF08F7FE11C08DE20E94D923EC018B
:1048700066277727CB016C197D098E099F094AE0CD
:104880000E94E5238C0F9D1F05C0C701B6014AE0B9
:104890000E94E523DF91CF91FF90EF90DF90CF90C2
:1048A000089540915F02262F30E0240F311D213200
:1048B0003105DCF4209171032430C9F4FC0180E05F
:1048C00090E0861758F430915F022191DC01A35CDF
:1048D000BD4FA30FB11D2C930196F3CF80915F02C2
:1048E000680F60935F0280E0089581E0089582E0A0
:1048F00008950895E091750380917403E81730F4EA
:10490000F0E0E952FD4F808190E008958FEF9FEF36
:1049100008959091750380917403981750F4E92FCE
:10492000F0E0E952FD4F208130E09F5F90937503E6
:1049300002C02FEF3FEFC90108958091740390E00A
:1049400020917503821B91090895A0E0B0E0EBEA85
:10495000F4E20C94992E7C01972F8A018091220316
:10496000882391F0C62FD72F6E01C40ED51ECC150B
:10497000DD0571F06991D701ED91FC910190F08115
:10498000E02DC7010995F3CF862F642F0E94512493
:10499000C801CDB7DEB7E8E00C94B52EA1E0B0E0D9
:1049A000E4EDF4E20C949F2E6983209122032223EC
:1049B000D1F020917203203240F021E030E0FC0180
:1049C0003383228380E090E015C080917303E82F49
:1049D000F0E0ED5DFC4F998190838F5F80937303CE
:1049E0008093720305C0CE01019661E00E945124BC
:1049F00081E090E02196E2E00C94BB2E60939E0350
:104A000070939F038093A0039093A103DC01CB01DB
:104A1000845D9E4FAF4FBF4F80939A0390939B034B
:104A2000A0939C03B0939D0382E090E09093990340
:104A3000809398030E94331B6093940370939503B3
:104A40008093960390939703089585ED8093BC001F
:104A50008091BC0084FDFCCF109271030895A0E00A
:104A6000B0E0E5E3F5E20C94902E382E962E842EDD
:104A7000F90184E6E816F1042CF082EBE81A87E0ED
:104A8000F80A03C08EE1E80EF11CE092A80300933F
:104A9000A703E093A6033092A4039092A30380920D
:104AA000A203AE2DB0E020E833E341EE51E00E94D6
:104AB0007C2E2B013C0122EB37E0FF2484E6C82E3C
:104AC000D12CC0E9D1E0C901825B97408E159F05CA
:104AD000DCF4C90183709927892B99F4C901B601C7
:104AE0000E949B2F892B31F4C901BE010E949B2F8C
:104AF000892B39F480E8480E81E5581E81E0681E54
:104B0000711C2F5F3F4FDFCF8EE4E81A88EFF80A61
:104B1000C70164E670E00E949B2F6C01C70160E949
:104B200071E00E949B2F5C01C1E0D0E0112783E07F
:104B3000E822FF24C017D1072CF5C230D10589F433
:104B4000E114F10471F4C114D10419F4A114B104F5
:104B500041F480E8480E8BE3581E86E2681E711C03
:104B60000FC0DE01A250BE4FAC91B0E020E831E5AD
:104B700041E050E00E947C2E460E571E681E791EB2
:104B80002196D8CF292D30E0ACE3B0E00E94C62EAC
:104B90006B017C01C80CD11CE11CF11C232D30E001
:104BA000A0E1BEE00E94C62EC60ED71EE81EF91E6A
:104BB000DF01BB27119720E831E541E050E00E947A
:104BC000872EDC01CB018C0D9D1DAE1DBF1DBC01D0
:104BD000CD01640D751D861D971D0E94FE24CDB765
:104BE000DEB7E1E10C94AC2ECF92DF92EF92FF9210
:104BF0000F931F930E94331BC0909403D090950392
:104C0000E0909603F09097038B019C010C191D090D
:104C10002E093F0980919E0390919F03A091A003CC
:104C2000B091A103083E134021053105D0F0019653
:104C3000A11DB11D80939E0390939F03A093A00399
:104C4000B093A103B701A60148515C4F6F4F7F4F4E
:104C50004093940350939503609396037093970346
:104C6000C9CF40919A0350919B0360919C0370912E
:104C70009D0384179507A607B70788F1E091920373
:104C8000F0919303309759F10995611571058105EC
:104C9000910519F00E94FE2422C080919E039091FC
:104CA0009F03A091A003B091A103845D9E4FAF4FDD
:104CB000BF4F80939A0390939B03A0939C03B09360
:104CC0009D0381E090E02091980330919903232B7C
:104CD00011F480E090E090939903809398036091A1
:104CE0009E0370919F038091A0039091A1031F9157
:104CF0000F91FF90EF90DF90CF900895A0E0B0E08B
:104D0000E4E8F6E20C94912E4B015C0180918E0355
:104D100090918F03A0919003B0919103881699060A
:104D2000AA06BB0609F4C2C08CE3C82ED12CE12C24
:104D3000F12CC501B401A70196010E943B2E60939E
:104D4000A203CA01B901A70196010E943B2E6093FC
:104D5000A303CA01B90128E130E040E050E00E941D
:104D60003B2E69017A016093A403CA01B9016C5F0B
:104D70007F4F8F4F9F4F27E030E040E050E00E9490
:104D80003B2E6F5F6093A503412C512C320140E014
:104D900004E610E0C0E9D1E0242F30E02E54384F73
:104DA000F901E370FF27309789F4C901B8010E9427
:104DB0009B2F892B31F4C901BE010E949B2F892BA7
:104DC00029F48EE691E0A0E0B0E004C08DE691E029
:104DD000A0E0B0E0480E591E6A1E7B1ED301C2013E
:104DE000AA27BB27C816D906EA06FB0610F04F5FB4
:104DF000D3CF4093A803309799F4C90164E670E0DB
:104E00000E949B2F892B39F4C90160E971E00E944F
:104E10009B2F892B29F48EE691E0A0E0B0E004C03E
:104E20008DE691E0A0E0B0E0481A590A6A0A7B0AD0
:104E3000C418D508E608F708C90164E670E00E94C6
:104E40009B2FEC01C90160E971E00E949B2FAFEF3D
:104E5000B1E020E0213039F4309749F4209729F46B
:104E6000009729F402C04C9103C04DE101C04CE110
:104E700050E060E070E0C416D506E606F70640F0A4
:104E8000C41AD50AE60AF70A2F5F11962C3011F7DB
:104E90002F5F2093A703C394C092A60380928E0332
:104EA00090928F03A0929003B0929103CDB7DEB79A
:104EB000E0E10C94AD2E0E94F4250E947E268091A4
:104EC000A30308951F920F920FB60F9211240F9310
:104ED0001F932F933F934F935F936F937F938F9382
:104EE0009F93AF93BF93EF93FF930E94331B209147
:104EF0008C0330918D03890120E030E06017710749
:104F000082079307B8F080916F008D7F80936F00C8
:104F100082E08093810081E080938000E0918A03A9
:104F2000F0918B0390818091890380958923808300
:104F300010928903E0918A03F0918B039081809114
:104F4000890389278083FF91EF91BF91AF919F9152
:104F50008F917F916F915F914F913F912F911F9111
:104F60000F910F900FBE0F901F9018958BED91E051
:104F7000909345038093440384E493E00E94031CD0
:104F800008952091870330918803A901480F511D8E
:104F9000CA010E941D2E0895209187033091880335
:104FA000A901480F511DCA010E94152E0895A1E0C4
:104FB000B0E0EDEDF7E20C949D2E182F062F7983CB
:104FC0000E94B22186E793E069810E94CE2486E7A1
:104FD00093E0602F0E94CE240E945521812F90E003
:104FE00061E070E00E94332286E793E00E9489240A
:104FF0002196E4E00C94B92E5E9886E490E00E943D
:1050000072120895A1E0B0E0E8E0F8E20C949D2E61
:1050100089830E94FC2783E060E0498120E030E042
:1050200000E010E00E947E2284E60E9446128091F9
:105030008603882319F081E00E9423238091850351
:10504000882349F081E164E040E020E030E000E0C6
:1050500010E00E947E222196E4E00C94B92E0E947A
:105060001F2384E60E944612109285031092860345
:105070001092840384E00E94232308955F98109285
:1050800083030895CF93823009F477C038F48823DE
:1050900021F1813009F0B8C0CAE060C0843009F461
:1050A0008BC008F472C0853009F0AEC088E592E08C
:1050B00068EC70E041E028EC30E00E94131784EFC8
:1050C00091E068EC70E041E028EC30E00E941317BA
:1050D00080E991E068EC70E092C086E091E06AEFD0
:1050E00070E041E02DE431E00E94131784EC90E081
:1050F0006DE770E041E027EA30E00E94131784EC8E
:1051000090E06DE770E041E027EA30E00E9413177D
:105110008CED90E06AEF70E041E02DE431E00E9418
:10512000131784EC90E06AEF70E041E02AE932E086
:105130000E94131787EF90E06AEF70E041E02DE4E2
:1051400031E00E94131786E091E06AEF70E041E0E1
:105150002DE431E057C0C15009F456C088EB91E00E
:1051600062E370E041E024E630E00E941317809192
:105170008203843081F7C0E0EECF88EB91E068ECE9
:1051800070E041E024EF31E03DC088E592E064E664
:1051900070E041E024E630E00E9413178CEB92E0CF
:1051A00064E670E041E024E630E00E94131780E2FC
:1051B00093E064E670E023C088E592E060E570E08B
:1051C00041E024E630E00E94131780E991E060E5B9
:1051D00070E041E024E630E00E94131784EF91E094
:1051E00060E570E041E024E630E00E94131780E9BA
:1051F00091E060E570E041E028EC30E003C041E080
:105200002CE231E00E941317CF9108950F931F9362
:10521000CF93DF93EC018C01065F1F4FC017D107BE
:1052200050F480E5BE010E94D727803211F00E9421
:10523000D9232196F3CFDF91CF911F910F9108953C
:10524000CF92DF92EF92FF92CF93DF9381E891E0CC
:105250000E94A6138EE294E00E94B82382E061E0EF
:105260000E945C238DE194E00E94B82382E062E01A
:105270000E945C2389E194E00E94B82382E063E00D
:105280000E945C2385E194E00E94B823C0E0D4E151
:1052900080918203843009F475C183E061E00E944B
:1052A0005C238091B103882319F081E194E002C06E
:1052B0008DE094E00E94B8238091B003811102C078
:1052C00040E201C048E580E161E00E94C01386E051
:1052D00062E00E945C238091AF038A3010F40E9448
:1052E00037138091AF036AE070E00E9460198AE38F
:1052F0000E94D9238091AE038A3010F40E943713A4
:105300008091AE036AE070E00E9460190E9432133F
:1053100086E063E00E945C238091AD038A3010F444
:105320000E9437138091AD036AE070E00E9460191B
:105330008AE30E94D9238091AC038A3010F40E9442
:1053400037138091AC036AE070E00E9460190E94FC
:105350003213C23048F480E062E040E20E94C013A1
:1053600080E061E00E945C238EEF8C0F843068F453
:1053700080E061E040E20E94C01380E063E040E230
:105380000E94C01380E062E009C0C63048F080E0AF
:1053900062E040E20E94C01380E063E00E945C2370
:1053A0008EE70E94D923CC2ED12C8AE0C816D104D6
:1053B000E8F4F601E35AFF4F0C94AF2F83E001C0ED
:1053C00080E161E011C086E005C087E003C089E0AC
:1053D00001C08AE062E008C086E005C087E003C043
:1053E00089E001C08AE063E00E945C2380E061E024
:1053F0000E94A81680918203823009F4B9C08330DC
:1054000009F4BBC0813009F043CF8AE0C816D1044B
:1054100008F08FC0F601E959FF4F0C94AF2F90911F
:10542000B10381E089278093B10383C09091B003D9
:1054300081E089278093B0037CC08091AF038E30D8
:1054400020F4865F8093AF0374C06AE00E947B2FD4
:105450009093AF036EC02091AF03822F6AE00E9449
:105460007B2F993011F4295001C02F5F2093AF0397
:105470008091AF03883109F05CC0D093AF0359C06D
:105480008091AE03813320F4865F8093AE0351C0D8
:105490006AE00E947B2F9093AE034BC02091AE0335
:1054A000822F6AE00E947B2F993011F4295001C0AD
:1054B0002F5F2093AE033DC08091AD038E3020F46A
:1054C000865F8093AD0335C06AE00E947B2F909386
:1054D000AD032FC02091AD03822F6AE00E947B2F85
:1054E000993011F4295001C02F5F2093AD038091B2
:1054F000AD038831F1F4D093AD031BC08091AC03B0
:10550000813320F4865F8093AC0313C06AE00E946D
:105510007B2F9093AC030DC02091AC03822F6AE0E7
:105520000E947B2F993011F4295001C02F5F2093E6
:10553000AC038BE06091B1030E94C1278CE06091C5
:10554000AF030E94C1278DE06091AE030E94C12786
:105550008EE06091AD030E94C1278FE06091AC03A3
:105560000E94C1278CE16091B0030E94C12790CEB8
:10557000C93008F08DCECF5F8BCECC2309F488CE16
:10558000C15086CE80E061E071E00E949323DF91FC
:10559000CF91FF90EF90DF90CF900895CF93DF935E
:1055A000C82F0E9454238EE70E94D9238CEF93E0EA
:1055B0000E94B8238FE060E00E945C230E94892350
:1055C000C13019F48091AB0302C08091AA036AE054
:1055D00070E00E9460190E94FC2781E08093A9037B
:1055E000D0E0809182038430F1F18FE060E00E948E
:1055F0005C2381E061E00E94A816809182038130E3
:1056000081F7C130A9F49091AB03953019F4109251
:10561000AB0303C09F5F9093AB038091AB036AE041
:1056200070E00E9460198091AB030E94422819C06B
:105630009091AA039A3019F41092AA0303C09F5FB5
:105640009093AA038091AA036AE070E00E94601917
:1056500080918403811105C08091AA038F5F0E940D
:105660000228D1E0BECFDD2359F0C13021F487E01C
:105670006091AB0303C083E16091AA030E94C1273C
:1056800080918403811102C00E941F231092A903FC
:10569000DF91CF9108951F920F920FB60F921124B0
:1056A0008F93EF93FF930FB6F894A89580916000C5
:1056B000886180936000109260000FBEA895E0E6BC
:1056C000F0E080818F7B8083FF91EF918F910F902D
:1056D0000FBE0F901F9018956115710581F0FB01A9
:1056E00001900020E9F73197AF01461B570BDC0111
:1056F000ED91FC910280F381E02D0995089580E001
:1057000090E00895A1E0B0E0E8E8FBE20C949D2E63
:105710008C01FC01848169830E94B221F801838598
:105720006981682B86E793E00E94CE240E94552170
:105730002196E4E00C94B92E0F931F93CF938C0124
:10574000C62F0E94822B6C2F6460C8010E94822B9E
:105750006C2F6B7FC8010E94822B83EC90E0019735
:10576000F1F7CF911F910F9108950F931F93CF934E
:105770008C01C62F607F61600E949C2B80E1C89FD6
:10578000B00111246160C8010E949C2B81E090E06F
:10579000CF911F910F910895A6E0B0E0E2EDFBE2FA
:1057A0000C948F2E5C016B017A016115710519F063
:1057B000DB018D939C93E114F10429F0C70102975A
:1057C000839708F0DCC03501BFEF6B1A7B0AF50147
:1057D0001081812F90E00E94DE2C892B11F0530163
:1057E000F2CF1D3249F43501F2E06F0E711CD50184
:1057F00011961C9101E009C01B3231F43501B2E071
:105800006B0E711CF501118100E0E114F10409F443
:10581000C4C0F0E1EF16F10489F4103399F5D30117
:105820008C918F7D883509F0B2C011961C91B2E041
:105830006B0E711C026050E1E52EF12CEAE0EE16D1
:10584000F10409F4B0C0F0E1EF16F104D9F028E05A
:10585000E216F10451F438E0E32EF12C88248A9406
:10586000982CA82C4FE1B42E13C06FEF7FEFCB0123
:1058700097010F2C000C440B550B0E943B2E490145
:105880005A0106C088248A94982CA82C2FE0B22EA6
:105890007E826D8260E020E030E0A90127010F2CBC
:1058A000000C660877082D803E80E0EDE10FEA30BD
:1058B00060F08FEB810F8A3110F4E9EC05C08FE9BD
:1058C000810F8A3190F5E9EAE10F8E2F90E08E1575
:1058D0009F055CF56F3F09F182169306A406B50695
:1058E000D8F0C301B2010E942B2E2E2F30E040E0F1
:1058F00050E029833A834B835C83260F371F481F70
:10590000591F89819A81AB81BC81281739074A07C1
:105910005B0710F061E001C06FEFED81FE81319611
:10592000FE83ED83D1011C91BECFC114D10489F057
:10593000662339F08D819E810197F60191838083E2
:1059400008C001FF06C08D819E810297D6018D930C
:105950009C9300FF07C050954095309521953F4F8F
:105960004F4F5F4F67FF10C082E290E09093B70304
:105970008093B6036FEF7FEF8FEF9FEF1BC060E068
:1059800070E080E090E016C0B901CA0113C010E3D6
:10599000E114F10409F45FCF51CF103309F43FCF84
:1059A0009AE0E92EF12C89E9882E982CA82C89E11F
:1059B000B82E6ECF2696E2E10C94AB2E91110C948A
:1059C000EE2C803219F089508550C8F70895FB01FC
:1059D000DC0105900D920020E1F7089599278827B2
:1059E00008950E94332D08F481E00895E89409C0D9
:1059F00097FB3EF490958095709561957F4F8F4F02
:105A00009F4F9923A9F0F92F96E9BB279395F69517
:105A1000879577956795B795F111F8CFFAF4BB0F95
:105A200011F460FF1BC06F5F7F4F8F4F9F4F16C0F9
:105A3000882311F096E911C0772321F09EE8872F83
:105A4000762F05C0662371F096E8862F70E060E03F
:105A50002AF09A95660F771F881FDAF7880F9695B8
:105A6000879597F90895990F0008550FAA0BE0E85C
:105A7000FEEF16161706E807F907C0F01216130610
:105A8000E407F50798F0621B730B840B950B39F450
:105A90000A2661F0232B242B252B21F408950A26B6
:105AA00009F4A140A6958FEF811D811D08950E94E4
:105AB0006A2D0C94DB2D0E94CD2D38F00E94D42D40
:105AC00020F0952311F00C94C42D0C94CA2D1124B0
:105AD0000C940F2E0E94EC2D70F3959FC1F3950F3F
