:100000000C945D020C9485020C9485020C942917C3
:100010000C9429170C9429170C9486300C948502A3
:100020000C9485020C9485020C9485020C94381B68
:100030000C9485020C9485020C9485020C94850224
:100040000C94BB220C9485020C9485020C948502BE
:100050000C9485020C9485020C9485020C94850204
:100060000C94B9170C948502400B430B450B470BBE
:10007000490B4C0B4E0B500B520B540B560B770B82
:10008000840B950BA10BAC0BB80BCE0BDF0BE40B69
:10009000F60BD80F1B1052109010C710D910EB1090
:1000A000FD1204130F1322132513301339133E13BB
:1000B0005E13631383138C13111E181E2A1E421E17
:1000C0004C1E561E681E721E791E911EA41EB41E62
:1000D000CC1E7A2D7C2D7F2D812D832D852D882D75
:1000E0008A2D8C2D8E2DAB2DB22DB92DC72DDC2D4B
:1000F000EA2DF82D062E1A2E282E42697274686495
:100100006179004861707079005775737374657315
:10011000742044752C20646173732E2E2E00496365
:10012000682062696E206869657221005B205D202D
:100130004D5033005B205D20526164696F005B208D
:100140005D205765636B746F6E0020205B61757373
:100150005D0020205B616E205D004D5033005261D8
:1001600064696F00546F6E005765636B746F6E2027
:100170002020205B20202020205D004E657565201A
:100180005765636B7A6569740061757300616E20F1
:10019000002E3230004E616368746D6F6475732099
:1001A0005B2020205D004E657565205568727A657C
:1001B00069742F446174756D005A3A2000416B6B6D
:1001C000753A0020543A200052414D3A202000490F
:1001D00032433A20002D31373035313700466972CD
:1001E0006D776172653A20006279204E696B6F6CA1
:1001F0006169205261646B650044696573657220B2
:100200004E4F4B4F20676568207274004D65696ED4
:10021000204E4F4B4F0044697374616E7A6C696372
:1002200068742020205B205D005374756D6D202064
:1002300020202020202020205B205D00416B6B755A
:100240002073706172656E202020205B205D007736
:1002500065697465722E2E2E0044697374616E7A1E
:10026000202B2F2D205B205D004576656E7473205A
:10027000202B2F2D205B205D004C4544202020208A
:10028000202B2F2D205B205D004E4F4B4F20737491
:10029000656C6C656E007A656974207374656C6C4E
:1002A000656E00416C61726D207374656C6C656E77
:1002B00000537069656C2077617320766F72004E11
:1002C00061736520647220636B656E0020617566E2
:1002D00020560020557064617465206572666F6CED
:1002E000677265696368006765647220636B742078
:1002F00068616C74656E202000524453204265652D
:100300006E64656E3A204C696E6B73005B317C7372
:100310005D205B327C735D205B337C735D20005D10
:100320005B3C5D5B205D5B205D5B3E5D5B00504147
:10033000555345004B65696E65204D5033732067FA
:100340006566756E64656E004765736368696368AA
:100350007465005B3C5D5B205D5B205D5B3E5D002A
:10036000476573636869636874656E20680041550A
:10037000582D45696E67616E6700456967656E65F2
:1003800073206800526164696F20680000000000FB
:10039000240027002A0000000008000201000003DA
:1003A0000407000000000000000053616D737461D9
:1003B00067004672656974616700446F6E6E2E74E3
:1003C0006167004D697474776F6368004469656E96
:1003D00073746167004D6F6E74616700536F6E6E6A
:1003E0007461670000205568720072656E0073705A
:1003F0006569636865726E2E2E2E004765627572A0
:1004000074737461672100E403DC03D503CC03C378
:1004100003BA03B203AA0353746174696F6E2000B8
:1004200000000000250028002B0000000000230031
:100430002600290004040404040404040202020245
:100440000202030303030303010204081020408097
:1004500001020408102001020408102020576563DF
:100460006B746F6E202B2F2D205B205D00617573E8
:1004700000616E200062697300766F6E005B202061
:10048000205D2044696D6D656E205B205D004E61CE
:100490006368746D6F647573207374656C6C656EDE
:1004A0000020416C61726D20004E617365206472A2
:1004B00020636B656E00D4288C1B11241FBECFEF08
:1004C000D8E0DEBFCDBF12E0A0E0B1E0E8E0FAE6A0
:1004D00002C005900D92AC30B107D9F723E0ACE033
:1004E000B2E001C01D92AB3DB207E1F712E0CCE5EE
:1004F000D2E004C02197FE010E94EA34CB35D10737
:10050000C9F70E94CC020C94F7340C940000CF92EF
:10051000DF92EF92FF920F931F93E82FF92F05C000
:10052000015011092109310961F190819623941735
:10053000B9F305C0015011092109310911F1908168
:1005400096239413F7CFC12CD12CE12CF12C0AC0A7
:100550008FEFC81AD80AE80AF80A0C151D052E05EF
:100560003F0579F080818623841791F36C2D7D2DD2
:100570008E2D9F2D1F910F91FF90EF90DF90CF90C8
:10058000089560E070E080E090E01F910F91FF908F
:10059000EF90DF90CF900895A5E0B0E0E2EDF2E0BB
:1005A0000C94CA33789484B5826084BD84B581602C
:1005B00084BD85B5826085BD85B5816085BD80912E
:1005C0006E00816080936E001092810080918100A6
:1005D000826080938100809181008160809381009E
:1005E000809180008160809380008091B100846060
:1005F0008093B1008091B00081608093B0008091C1
:100600007A00846080937A0080917A00826080937F
:100610007A0080917A00816080937A0080917A00DC
:10062000806880937A001092C1001CBC80E880BF73
:100630008FE380937E0080916400846080936400E7
:100640008091640082608093640080916400806483
:100650008093640088EC8AB98CE284B98EE387B910
:1006600080E48BB981E088B91092850310928403ED
:1006700010928303109282031092810310928003E0
:100680008DE991E0909387038093860390917603A0
:10069000963108F057C02DEB30E030938103209362
:1006A00080032BE931E030938303209382032CE213
:1006B00031E03093850320938403209168009830C3
:1006C00050F031E09E3008F430E081E001C0880F46
:1006D0003A95EAF701C084E0822B80936800983055
:1006E00038F09E3040F0963148F020E030E008C00D
:1006F0002DE630E005C02BE630E002C02CE630E00D
:1007000030937E0320937D03983030F481E001C064
:10071000880F9A95EAF70EC0292F30E09E3018F422
:100720002850310902C02E50310981E001C0880FE4
:100730002A95EAF780937F0380918603909187033F
:100740000197F1F78091840390918503892B21F122
:100750008091D5029091D60223E08A369207E1F08B
:10076000009711F00E94A317809188038E7F8093D9
:1007700088031092D3021092D4028AE693E09093F9
:10078000D6028093D502E0917D03F0917E039081A3
:1007900080917F03892B80830E944B2B8CE00E94E9
:1007A0003E2B84EF91E00E94832586E06EE140E0DD
:1007B00020E030E000E010E00E94AA2A84E00E94DD
:1007C0004F2B0E9466210E941A1F8091A2039091D4
:1007D000A303807F8A609093A3038093A2030E9467
:1007E000F81E0E94561F80E090E00E9450333EE1C8
:1007F000839FC001112490932B0280932A0281E0F1
:100800000E94A21B91E0811101C090E09093E4024C
:1008100082E00E94A21B8093180283E00E94A21B28
:1008200091E0811101C090E09093E50284E00E9484
:10083000A21B8093D30385E00E94A21B8093D20366
:1008400086E00E94A21B8093D10387E00E94A21B36
:100850008093CA0388E00E94A21B8093E80289E08B
:100860000E94A21B809317028AE00E94A21B91E0C3
:10087000811101C090E0909316028BE00E94A21BB0
:1008800091E0811101C090E09093D0038CE00E9430
:10089000A21B8093CE038DE00E94A21B8093CD0308
:1008A0008EE00E94A21B8093CC038FE00E94A21BCB
:1008B0008093CB0380E10E94A21B91E0811101C0D3
:1008C00090E09093150281E10E94A21B182F82E113
:1008D0000E94A21B282F30E0C9014AE0149F800D1E
:1008E000911D1124909324028093230283E10E949E
:1008F000A21B8093C90319E1E12E12E0F12E15E14C
:10090000812F0E94A21B082F81E0810F0E94A21B51
:10091000282F30E0C9016AE0069F800D911D112447
:10092000F701819391937F011E5F1B3149F78BE1A2
:100930000E94A21B91E0811101C090E090931402EB
:100940008CE10E94A21B91E0811101C090E0909384
:10095000CF0387E560E070E00E94AD1B8093130237
:1009600087E561E070E00E94AD1B80931202109257
:100970001F0288E60E94DE298CEB93E069E971E0B2
:100980000E94A7300E94812984E10E94EC2488E61D
:100990000E94DE298CEB93E06CE971E00E94A730A5
:1009A0000E9481290E945B2480918D03882309F491
:1009B0009CC080918E03886080938E03B4E0FB2EF0
:1009C000F09291038BE39DE00197F1F789E893E0C2
:1009D000609194030E94BD308BEF98E00197F1F78E
:1009E00089E893E060E30E94D7300BE416E4C80185
:1009F0000197F1F789E893E060E30E94D730C801DE
:100A00000197F1F789E893E060E30E94D73083E52E
:100A100092E00197F1F789E893E060E20E94D73015
:100A200080918E0380620E946E2BF0928F038CE087
:100A30000E946E2B0E94802B82E08093900386E0C0
:100A40000E946E2B82E00E946E2B8BE39FE1019748
:100A5000F1F70E94062684E190E00E945033182F9F
:100A60008A3008F055C00E94802B83ED92E00E94EE
:100A7000E42B83E061E046E50E944E2780E090E0B1
:100A80000E94792C8EE20E942A2C812F6AE00E941B
:100A9000B634892F90E00E94792C8CEC92E00E9471
:100AA000E42B81E090E00E94792C8EE20E942A2CB7
:100AB00080E090E00E94792C84E064E00E94882B22
:100AC0008FEB92E00E94E42B8BE064E045EF0E9404
:100AD0004E2784E190E06AE00E94583381E060E0B4
:100AE0000E9418250E94802B13C080E280938D0302
:100AF00080918D03803408F05CCF0E94DE290E9433
:100B00008129882309F455CF80918D038F5FEECF23
:100B10000E94D21B88E592E060E570E040E020E5AD
:100B200030E00E94A12680E793E066E970E040E0B3
:100B300026E930E00E94A1265E9A0E94D4230E94FA
:100B400055238093F90287E40E94222B90911F0283
:100B5000891B8F5680932102F3E6FC8323E62B83C7
:100B6000CE0101961C010E94D42387E00E94B5218A
:100B70008132934024F08091E302882351F087E092
:100B80000E94B5218032934004F58091E3028823CE
:100B9000E1F09091E30281E089278093E30287E00E
:100BA0000E94B5218032934014F00C94770F80910D
:100BB000E702882311F40C94770F809116028823A2
:100BC00011F40C94770F0E94FC2580911B032B815C
:100BD000281709F4D3C18091EA028823E1F08091BB
:100BE000CF038823C1F08091E202811114C080916B
:100BF0001602882339F08091E302811103C00E941C
:100C0000FC2509C08091E702811105C00E945D2B7F
:100C100081E08093E7021092110280911C033C81D5
:100C2000381709F4E2C08091E20281117AC00E9473
:100C300036269091120280911F0398136EC09091F6
:100C4000130280911E03981368C081E08093E6022E
:100C500080911002811165C08091EA02811161C00A
:100C600061E771E00E94BF2B8091250281110E94F3
:100C7000561F8091260281115F988091E4028111B4
:100C800007C080912702811103C08FE60E94D81B04
:100C900080ED97E00E9483250E94311B082F0E945F
:100CA000311B081721F04C9902C00C948D0F8091D4
:100CB0002202843011F40C948D0F0E94802B87E067
:100CC00061E00E94882B83E091E00E94E42B86E0A3
:100CD00062E00E94882B8AEF90E00E94E42B81E082
:100CE00065E00E948625182F112391F080E064E1D1
:100CF0000E94862560E040E00E944E2780E064E18B
:100D00000E94862563E040E00E944E271150ECCF00
:100D100084EF91E00E945225C2CF109210021092EF
:100D2000E602109115020E94E523181709F45DC030
:100D300080911C03843008F458C0112311F40C94E2
:100D4000A30F815080931C0381E0D12ED826D0922E
:100D5000150280911C0360911B0370E040911A03FF
:100D600050E020911E0330E000911F0310E0E0905E
:100D7000F702F090F80290E00E9405198091F702C6
:100D8000825B809320030E94E82980912A02805F81
:100D90006D2D0E94971B00912A0210912B020E3D8F
:100DA00043E0140711F40C94A60F025E1F4F91E06C
:100DB000F92EF00E80912A02890F9D830E94A21BBA
:100DC000682F8F2D0E94971B9D819F5F9E3181F719
:100DD00010932B0200932A02C8016EE170E00E947A
:100DE000C23480E090E00E9458338091E202811189
:100DF00002C00E945F278091EA028111BFC08091EA
:100E0000E4028111BBC08091F5029091F6020A972D
:100E10007CF48091E30281110BC00E94D21B88E90F
:100E200093E060E570E040E020E530E00E94A1261C
:100E30004C99A4C0809120028111A0C0809125020C
:100E400081119CC08091F5029091F60202970CF4FA
:100E500095C0E0911702F0E0EF55FE4F108161E080
:100E6000610F81E00E948625811388C080E06CE0DC
:100E70000E948625182F8091E20281111AE00E94BB
:100E8000AC2B183010F00C9436118091E7028111D0
:100E90000C94AA0F153010F40E94802B812F90E043
:100EA000FC013197E730F10510F40C94D40F80E089
:100EB0006AE10E94862560E5869FC00111248C01AD
:100EC000005B194BF12C80E5B8010E94AD1B482F47
:100ED0008F2D60E00E944E27B8016C5E7F4F80E549
:100EE0000E94AD1B482F8F2D61E00E944E27B80154
:100EF000685D7F4F80E50E94AD1B482F8F2D62E01B
:100F00000E944E27B801645C7F4F80E50E94AD1BB4
:100F1000482F8F2D63E00E944E27F3940F5F1F4FE1
:100F200084E1F812D0CF0E94D21B80E793E060E505
:100F300070E040E026E930E00E94A12680E793E0DF
:100F400060E971E040E020E931E00E94A1265E9A6C
:100F500081E061E00E9418250E949B288091E702B1
:100F6000882361F08091D003882311F40C94D00F72
:100F70008091EA02882311F40C94D00F8091E20250
:100F8000811178C08091E902811174C08091E802DA
:100F9000882309F46FC02D988FE090E00197F1F756
:100FA0002D9A83E290E00197F1F72D98E4E5F4E0C3
:100FB0004491E0E4F4E0E491F0E0EE0FFF1FE65D21
:100FC000FB4F85919491642F00E412E42FE030E010
:100FD0000E948702611571058105910549F0DC01C8
:100FE000CB010196A11DB11DBC01CD019F7003C0B5
:100FF00060E070E0CB011091E8022AE330E040E0CD
:1010000050E00E947633F9E11F9FC0011124092EA0
:10101000000CAA0BBB0B281739074A075B0750F5D2
:101020008091E702882381F080911402882361F087
:101030000E94652B0E94CC2160930C0270930D02DC
:1010400080930E0290930F028091EA02811112C0E8
:101050008091110281110EC08091250281110AC078
:1010600080912002811106C08091E402811102C0AA
:101070004C9B7DC78091E7028823C1F080911402C8
:101080008823A1F00E94CC2100910C0210910D0246
:1010900020910E0230910F020A561F4F2F4F3F4FE3
:1010A000061717072807390708F46BC720911B0399
:1010B0002B8330911C033C8380E00E94E72E8093B9
:1010C00022029091E202823009F4BFC6833009F413
:1010D000CFC6813009F000C79111FEC680E50E949D
:1010E000EC240E94AC2B0E94802B8091E402882388
:1010F00031F088E70E942A2CCC24C39401C0C12C73
:1011000082E060E00E94882B81EB92E00E94E42B59
:1011100082E061E00E94882B83EA92E00E94E42B47
:1011200081E062E00E94882B0E942D2686E992E0F1
:101130000E94E42B82E063E00E94882B89E892E021
:101140000E94E42BDC2C80912202843009F496C6A4
:1011500080E06D2D4EE70E944E2780E061E00E9406
:10116000182580912202823009F45AC6833009F48E
:1011700062C6813041F741E0D41681F1D41658F1AE
:1011800062E0D61609F4D2C183E0D812DCCF0E9407
:10119000802B82E060E00E94882B89E792E00E9429
:1011A000E42B82E061E00E94882B89E692E00E94B5
:1011B000E42B82E062E00E94882B89E592E00E94A5
:1011C000E42B82E063E00E94882B8FE492E00E948F
:1011D000E42B10E078C30E943E11B5CFD092C80333
:1011E00089E891E00E9434278091D2038A3010F47C
:1011F0000E9432268091D2036AE070E00E94E11ED4
:101200008AE30E942A2C8091D3038A3010F40E9432
:1012100032268091D3036AE070E00E94E11E0E94B2
:101220002D2680E061E00E94882B8BE791E00E94F0
:10123000E42B82E063E00E94882B88E691E00E9424
:10124000E42B8EE063E00E94882B8091D1038130F3
:1012500049F028F0823051F48AE591E005C084E637
:1012600091E002C08EE591E00E94E42B0E94B52B34
:1012700000E010E06AE0F62E74E1E72E8091220291
:10128000843009F43AC1153010F062E001C063E027
:1012900080E040E20E944E27153010F063E001C06C
:1012A00062E080E04EE70E944E2782E062E00E940A
:1012B000882B8091D2038A3010F40E9432268091CC
:1012C000D2036AE070E00E94E11E8AE30E942A2CA9
:1012D0008091D3038A3010F40E9432268091D30388
:1012E0006AE070E00E94E11E0E942D268091E502D6
:1012F000882319F082E591E002C08AE491E00E941F
:10130000E42B123089F030F4112361F01130A1F494
:1013100083E00FC0143061F048F0153069F48EE0BE
:1013200063E008C082E005C085E003C086E001C03C
:101330008EE062E00E94882B80E061E00E94182528
:1013400080912202823009F4CCC0833009F4CEC0EF
:10135000813009F093CF123009F453C028F41123DF
:1013600069F11130C9F1C7C0143009F466C008F43E
:1013700056C0153009F0BFC00E94AC2BB090E502FA
:101380001092E5020E94802B82E060E00E94882B90
:101390008EE391E00E94E42B82E061E00E94882BC2
:1013A00084E391E00E94E42B82E062E00E94882BBB
:1013B0008CE291E00E94E42B00E060C08091D203B7
:1013C0008E3020F4865F8093D20395C06F2D0E94EB
:1013D000B6349093D2038FC02091D203822F6F2D09
:1013E0000E94B634993011F4295001C02F5F209328
:1013F000D2038091D203883109F07DC0E092D203FC
:101400007AC08091D303813320F4865F8093D30325
:1014100072C06F2D0E94B6349093D3036CC020919C
:10142000D303822F6F2D0E94B634993011F42950C6
:1014300001C02F5F2093D3035EC09091E5028927FE
:101440008093E50258C083E06091D10348E50E9493
:101450004E2780E0602F4EE70E944E2783E0602FEA
:101460000E94882B80E061E00E9418258091220272
:101470008230E9F0833021F1813029F0809122021D
:10148000843009F726C00093D10386E0602F0E94C4
:10149000971B8091D103811103C081E00E946A2EC5
:1014A0008091D103823051F70E946A2EE7CF80E00D
:1014B000602F40E20E944E27023000F70F5FDECF20
:1014C00080E0602F40E20E944E270023B9F20150D5
:1014D000D5CFB092E50280E061E071E00E94BF2BC1
:1014E0000AC0153008F0CACE1F5FC8CE112309F418
:1014F000C5CE1150C3CE01E0C1CE002379F083E008
:101500006091E5020E94971B84E06091D3030E94E2
:10151000971B85E06091D2030E94971B80E061E0F9
:1015200071E00E94BF2B1092C8030DCEA0901C0347
:1015300080901B03B0901E0390901F0381E891E000
:101540000E94342786EA91E00E94E42B82E061E069
:101550000E94882B85E991E00E94E42B0E94B52B24
:101560008091F7029091F802805D97409093F80285
:101570008093F70210E000E080912202843009F4A9
:1015800058C182E062E00E94882B99E09A1510F021
:101590000E9432268A2D6AE070E00E94E11E8AE3F2
:1015A0000E942A2CE9E0E81510F00E943226882DCE
:1015B0006AE070E00E94E11E0E942D2682E063E056
:1015C0000E94882BF9E0FB1510F00E9432268B2D2B
:1015D0006AE070E00E94E11E8EE20E942A2C29E05F
:1015E000291510F00E943226892D6AE070E00E94D1
:1015F000E11E81E991E00E94E42B8091F702909135
:10160000F8020A9714F40E9432268091F702909112
:10161000F8020E94792C8EE061E00E94882B809174
:10162000D003882319F08DE891E002C089E891E0A9
:101630000E94E42B80E00111A7C462E040E20E9416
:101640004E2780E061E00E94882B8BEF800F863070
:1016500048F480E062E040E20E944E2780E063E0D0
:101660000E94882B8EE70E942A2C402E512C3BE0B2
:1016700043165104F8F4F201EC5CFF4F0C94EA3489
:101680008EE061E015C082E005C083E003C085E024
:1016900001C086E062E00CC082E009C083E007C0C0
:1016A00085E005C086E003C08AE001C08BE063E00E
:1016B0000E94882B80E061E00E9418258091220220
:1016C000823009F4A8C0833009F4AAC0813009F03F
:1016D00053CF002349F0F2013197EA30F10590F43D
:1016E000E15CFF4F0C94EA340E94BC2C45CF4DE0E6
:1016F0004A1518F06AE0A60E05C08A2D6AE00E941D
:10170000B634A92E11E038CF8A2D6AE00E94B63493
:10171000993019F487EFA80E01C0A39498E111E065
:10172000A9122ACF54E1A52E27CFE0E3E81518F03F
:10173000FAE08F0EE7CF882D6AE00E94B634892E3A
:10174000E1CF882D6AE00E94B634993019F427EF72
:10175000820ED8CF8394D6CF35E13B1518F04AE0FE
:10176000B40ED0CF8B2D6AE00E94B634B92E0DC0D6
:101770008B2D6AE00E94B634993019F467EFB60EEB
:1017800001C0B3948FE18B1530F0B110BBCF11E0E5
:10179000BB24B394F1CE4EE1B42EB4CF92E09915B0
:1017A00018F0EAE09E0EAECF892D6AE00E94B634B2
:1017B000992E9111A7CF11E099249394DDCEFBE0EF
:1017C000F91598F193949ECF8091F7029091F802C9
:1017D0008935910514F40A9604C06AE070E00E940D
:1017E000D6349093F8028093F7028CCF2091F702C1
:1017F0003091F802C9016AE070E00E94D63409977E
:1018000019F42950310902C02F5F3F4F3093F8027D
:101810002093F70277CF0A3008F0AECE0F5FACCE40
:10182000002309F4A9CE0150A7CE11E03AE0932E8F
:10183000A3CEE090F702F090F80220E3E21A28EF3E
:10184000F20AF092F802E092F702112339F1682DC2
:1018500070E02B2D30E0092D10E08A2D90E040E063
:1018600050E00E940519A0921C0380921B03109265
:101870001A03B0921E0390921F038091F702825BBD
:10188000809320030E94E8290E949B280E94E52360
:10189000682F8093150280E10E94971B80E061E031
:1018A00071E00E94BF2B4FCC82E390E00E94832521
:1018B00080912202823009F495C2833009F49BC2E0
:1018C000813009F44BC080912202843009F49FC218
:1018D0000E94B52B111107C0809118023CE1839F33
:1018E000C001112402C080E090E00E940C2113305E
:1018F00011F40E94AC2B80E0612F4EE70E944E272E
:101900008FE060E00E94882B809118026AE070E00E
:101910000E94E11E8FE061E00E94882B80911702F7
:101920006AE070E00E94E11E8FE062E00E94882B76
:101930008091E8026AE070E00E94E11E8FE0612F72
:101940000E94882B80E00E94E72E80932202811162
:10195000ABCF84E690E00E948325F4CF113009F4E8
:1019600041C050F1123009F44DC0133009F0ABCF33
:101970000E94802B82E060E00E94882B8CE392E042
:101980000E94E42B82E061E00E94882B89E292E0D1
:101990000E94E42B82E062E00E94882B86E192E0C4
:1019A0000E94E42B82E063E00E94882B8CE092E0AE
:1019B0000E94E42B00E06AC080911802893020F474
:1019C0008F5F8093180202C0109218026091180273
:1019D0004CE1649FC00111246D830E940C2182E0C0
:1019E0006D810DC080911702893020F48F5F809344
:1019F000170202C01092170289E0609117020E943C
:101A0000971B61CF8091E802893020F48F5F80932B
:101A1000E80202C01092E80288E06091E802EFCF8D
:101A200080911602811137C040E282E160E00E949D
:101A30004E278091E402811130C040E282E161E0F2
:101A40000E944E2780911402811129C040E282E158
:101A500062E00E944E2780E0602F4EE70E944E27F2
:101A600082E1602F0E94882B0330D8F40E94B52BAE
:101A700080E061E00E94182580912202823009F402
:101A80009DC1833009F4A4C1813071F0809122029C
:101A9000843031F618CF48E5C8CF48E5CFCF48E5C8
:101AA000D6CF0E94AC2BE4CF013009F1C8F0023050
:101AB000C1F1033059F789E691E00E94342789EF9C
:101AC00091E00E94E42B81E160E04FEE0E944E27FE
:101AD00080E061E00E94882B24E1E22EF12C2DC0F1
:101AE000609116026827609316028AE020C00E9467
:101AF000AC2B8091E40281110BC00E94181C82E182
:101B000061E04EE20E944E270E94051C0E94141CB8
:101B10006091E40281E068276093E4020E94971BD1
:101B2000B5CF609114026827609314028AE10E9485
:101B3000971B82E30E94EC24A9CF8CEE8E0D84319A
:101B400019F480E062E004C0883221F480E063E0B0
:101B50000E94882B87E5B7010E94AD1B0E942A2CAA
:101B60006FEFE61AF60A80E5E816F10431F780E037
:101B700060E00E94182580E061E071E00E94BF2BC8
:101B80000E94802B80E06BE00E94F21D83E060E009
:101B90000E94F21D86E06CE00E94F21D88E060E089
:101BA0000E94F21D8DE061E00E94F21D80E161E083
:101BB00044E00E944E2781E160E00E94F21D80E037
:101BC00063E00E94882B88EE91E00E94E42B8091D4
:101BD0002202843009F45ACF80E00E94E72E8093DD
:101BE000220280E00E94E72E823089F78091220253
:101BF000843069F380E00E94E72E8093220280E027
:101C00000E94E72E833091F70E94802B80E060E0F5
:101C10000E94882B8DED91E00E94E42B81E090E002
:101C20000E94792C8EE20E942A2C80E090E00E9493
:101C3000792C85ED91E00E94E42B80E061E00E9428
:101C4000882B8FEC91E00E94E42B98E0F92E8F2DE9
:101C50000E94DE290E948129811108C088E70E9424
:101C60002A2C8F2D60E170E00E94E11EF39498E72A
:101C7000F912EDCF80E062E00E94882B88EC91E0C1
:101C80000E94E42B8091D5039091D603009711F424
:101C90008BED93E0F101E81BF90BCF010E94792C49
:101CA00083EC91E00E94E42B88E60E94DE298CEB15
:101CB00093E061E10E94D2160E94812988E690E0BB
:101CC00062E070E00E945F2A9091BA038091BB03AA
:101CD000981769F18CEB93E00E948D165C018CEBF8
:101CE00093E00E948D167C01B5016F777727072E50
:101CF000000C880B990B0E9433324B015C01B70139
:101D0000772786E0759567958A95E1F7072E000C91
:101D1000880B990B0E94333220E030E040E85EE30C
:101D20000E949232A50194010E94113403C060E028
:101D300070E0CB0140E00E94621F8FED0E942A2CD0
:101D400080E063E00E94882B8DEB91E00E94E42B01
:101D50008BE063E00E94882B89EB91E00E94E42BEA
:101D600080911502882311F083E501C087E50E9468
:101D70002A2C80912202843009F438CF81E00E941D
:101D8000E72E8093220286E063E00E94882B86E0A3
:101D90000E94B521BC01990F880B990B0E94333228
:101DA00020E030E040EA5BE30E94923242E00E9491
:101DB000621F84E690E00E945225DBCF80E0602F16
:101DC00040E20E944E27033008F060CE0F5F5ECEE7
:101DD00080E0602F40E20E944E27002309F456CE97
:101DE000015054CE80E0612F40E20E944E27133014
:101DF00048F41F5F07C080E0612F40E20E944E2739
:101E00001111115080E0612F0E94882B5CCD8091D0
:101E1000E702811198C980E090E00E940C2193C9EB
:101E200080E06D2D40E20E944E27F2E0FD1508F49F
:101E30008AC9D39488C980E06D2D40E20E944E2764
:101E4000CD1408F080C9DA947EC9911145C0809103
:101E5000E702811141C08091E8028823E9F1909165
:101E6000E90281E089278093E9020E945F2734C05C
:101E7000992339F01092E2021092E7020E949B2807
:101E80002BC080911602882339F08091E3028111E2
:101E900003C00E94FC2520C09091E70281E08927C1
:101EA0008093E7020E945F278091E702811107C0BB
:101EB00080E090E00E940C210E94652B0AC0809176
:101EC00018022CE1829FC00111240E940C210E9463
:101ED0005D2B82E30E94EC248091E202811102C01A
:101EE00088E701C080EF0E94EC240C94B30587E0E2
:101EF0000E94B5218132934064F08091E2028823F0
:101F000041F01092E2021092E7020E949B280C948A
:101F1000E5050E945F270C94E50581E0809310029F
:101F200080912702811102C00E944B2B80912502D3
:101F300081110E941D1C8091260281115F9A0E94CE
:101F40009B280C9491068F5F0C94A20600E010E091
:101F50000C94D7068091D003882329F08091EA025F
:101F600081110C944A070E94652B0C944A078DE35B
:101F700061E50E9486250E94D81B81E080931102B2
:101F800079C80E945D2B92C861E040E20E944E2712
:101F900080E063E040E20E944E2780E062E053CBA5
:101FA0000E945D2B0C94BE07E75BFF4F0C94EA3454
:101FB00080E062E00E948625182F80E061E00E94A8
:101FC000882B80E065E60E948625EAE08E9FC001AE
:101FD00011240E94A22C111106C089E893E06FE938
:101FE00071E00E94A73080E062E00E94882B80E0D0
:101FF00065E60E948625FAE08F9FC0011124885172
:102000009C4F0E94A22C80E065E60E9486252AE073
:10201000829FC0011124112319F028EB3BE002C07C
:1020200020ED37E0820F931F0E94A22C8BE00E94CC
:10203000D81B0C94A80780E064E60E948625082F30
:1020400089E091E00E94E42B3CE3039F800111248E
:102050000056104FF12C80E5B8010E94AD1B482FAF
:102060008F2D61E00E944E27B8016C5E7F4F80E5A6
:102070000E94AD1B482F8F2D62E00E944E27B801B1
:10208000685D7F4F80E50E94AD1B482F8F2D63E078
:102090000E944E27F3940F5F1F4F44E1F412DBCFF1
:1020A0000C94A80780E064E60E94862560E5869F80
:1020B000C00111248C01005F184DF12C80E5B8019E
:1020C0000E94AD1B482F8F2D60E00E944E27B80163
:1020D0006C5E7F4F80E50E94AD1B482F8F2D61E025
:1020E0000E944E27B801685D7F4F80E50E94AD1BBE
:1020F000482F8F2D62E00E944E27B801645C7F4F0D
:1021000080E50E94AD1B482F8F2D63E00E944E2773
:10211000F3940F5F1F4F84E1F812D0CF0C94A807FF
:1021200083E061E00E94882B8EE191E00E94E42B25
:1021300080911802ECE18E9FC00111240E940C21B5
:102140000E94D21B80E293E06AEF70E040E02EE054
:1021500031E00E94A12680E293E066E970E040E071
:1021600024EB30E00E94A12684E992E06AEF70E05F
:1021700040E02AEF30E00E94A12680ED97E00E9427
:10218000522580E090E00E940C210C94AC070E9444
:10219000311BF82E80E069E671E00E94BF2B01E060
:1021A0000E94311BF8123EC0809122028430F1F56A
:1021B00039C018E288E10E946E2B88EC90E00E9402
:1021C000522580912202843009F411E0115012301E
:1021D00088F70C94AC0780E069E671E00E94BF2BA1
:1021E00000E010E0812F602F40E00E944E2786E93A
:1021F00090E00E94522580912202843011F414E173
:1022000004E0812F602F40E20E944E271F5F1431AF
:1022100048F30F5F043028F380ED97E00E945225C9
:102220000C94AC071092C8030C94AC070093C8033D
:102230000E94802B81E064E10E948625182F1123E3
:1022400081F080E064E10E948625E82E80E064E071
:102250000E948625682F8E2D40E00E944E27115047
:10226000EECF84EF91E00E9452259ACF81E56FE690
:102270000E9486250E94D81B0C94BE07AAE4B0E0F9
:10228000E4E4F1E10C94CC3380E069E771E00E9472
:10229000BF2B0E94802B82E060E00E94882B84E8A4
:1022A00093E00E94E42B0E94252682E061E00E94D8
:1022B000882B8AE793E00E94E42B0E94252682E087
:1022C00062E00E94882B8EE693E00E94E42B82E07D
:1022D00063E00E94882B80E693E00E94E42B0E943A
:1022E0002526E12CAE014F5F5F4F6A0180912202EB
:1022F000843009F474C480912502811102C040E247
:1023000001C040E081E060E00E944E2780912902F8
:10231000811102C040E201C040E081E061E00E9422
:102320004E2780912602811102C040E201C040E0A8
:1023300081E062E00E944E2781E063E048E70E946E
:102340004E2780E06E2D4EE70E944E2781E061E02F
:102350000E94182580912202823009F42BC4833018
:1023600009F433C4813011F651E0E51609F437C29F
:10237000E51628F082E0E81609F4FDC3B7CF81E046
:1023800069E471E00E94BF2B82E069E571E00E9480
:10239000BF2B83E061E671E00E94BF2B84E061E423
:1023A00071E00E94BF2B89E791E00E943427809161
:1023B0002502882329F0CE018F5B9F4F0E94422285
:1023C00002E010E0F12C812C20E4922E9C0C3AE0EB
:1023D000A32EB12C80912202843009F4DDC181E06A
:1023E00062E04BE50E944E2782E00E942A2C8FE19A
:1023F00093E00E94E42B83E00E942A2C8DE50E944A
:102400002A2C81E063E00E94882B8CE093E00E94FC
:10241000E42B81E061E043E10E9441270E94B52B5B
:1024200080912502811102C044E001C041E088E0B2
:1024300062E00E944E2780912502811102C040E295
:1024400001C042E58BE062E00E944E2782E060E03E
:102450000E94882B609123027091240280E090E01A
:102460000E9431322DEC3CEC4CEC5DE30E94923248
:1024700042E00E94621F80E20E942A2CFF2069F045
:102480005E980E941D1C89E060E04AE00E9441279E
:10249000CE018F5B9F4F0E94422289E060E00E9444
:1024A000882B80912502882339F089E893E0BE01CA
:1024B0006F5B7F4F0E94A730083099F030F40630F0
:1024C00059F00730D9F484E017C00A3089F070F071
:1024D0000B30A1F480E110C081E00E94A82382E0CB
:1024E0000BC082E00E94A82388E006C08AE004C0F6
:1024F00083E00E94A8238EE063E005C0802F880F50
:10250000800F8E5F62E00E94882B112309F45BC06C
:1025100010922202F60180E281939E12FDCF0E946A
:10252000AC2B80E062E044E10E94412781E062E060
:102530000E94882B89EF92E00E94E42B81E063E007
:102540000E94882B87EE92E00E94E42B85E063E0F6
:1025500045EF0E944E27809122028330C0F5C601CC
:102560000E94D821260194E0F92E13E082E061E078
:102570000E94882B612C712CF201E60DF71D8081E1
:1025800080310CF480E20E942A2C9FEF691A790AAC
:1025900020E16216710481F7C6010E94D8218BE008
:1025A00062E00E94882B80E00E94E72E8093220246
:1025B000833088F61150D1F6FA9440E1440E511C54
:1025C000F110D3CFC8CF80E061E00E941825809140
:1025D0002202823009F4C9C0833009F4D1C08130AD
:1025E00009F0D7C0802F90E08C30910508F0B7C07B
:1025F000FC01E05BFF4F0C94EA34809125028823B4
:1026000009F4ADC080E032C0809123029091240291
:102610008B3653E0950708F4A2C0019778C08091EB
:102620002502882319F00E94181C99C0809120026D
:10263000811102C04C99DAC20E94141C81E080937F
:1026400025028DC0109125028BC0809123029091AC
:102650002402883324E0920708F081C0019657C015
:1026600080912502882309F47AC081E00E94252008
:102670004EC08091190290911A0249C080912302A4
:102680009091240290931A0280931902B5010E943E
:10269000C234682F86E10E94971B20911902309165
:1026A0001A02C901B5010E94C234A901481B590B85
:1026B000CA01B5010E94C23485E14DC080911B0260
:1026C00090911C0224C08091230290912402909347
:1026D0001C0280931B02B5010E94C234682F88E15E
:1026E0000E94971B20911B0230911C02C901B50169
:1026F0000E94C234A901481B590BCA01B5010E94AE
:10270000C23487E128C080911D0290911E029093EF
:1027100024028093230223C08091230290912402FB
:1027200090931E0280931D02B5010E94C234682F4F
:102730008AE10E94971B20911D0230911E02C9015F
:10274000B5010E94C234A901481B590BCA01B50149
:102750000E94C23489E10E94971B0E94192610E052
:10276000F09025028824839435CE0B3008F40F5F57
:102770008091250281110DC0033059F404E009C095
:102780000111015080912502811103C0033009F429
:1027900002E010E0F12C1ECE882009F4E9C18091FE
:1027A0002302909124020AE010E0B8010E94C23492
:1027B000682F82E10E94971B20912302309124020E
:1027C000C901B8010E94C234A901481B590BCA01B2
:1027D000B8010E94C23481E10E94971BC9C1909147
:1027E000210280912702992309F427C1811102C097
:1027F0004C99FECF81E069E471E00E94BF2B82E03A
:1028000061E571E00E94BF2B83E061E471E00E940A
:10281000BF2B89E791E00E94342784E063E00E94A7
:10282000882B83E593E00E94E42B8BE063E042E099
:102830000E944E2780912002882319F082E0F82E12
:1028400002C0FF24F3940E94B52BBB24B394809163
:102850002202843009F48CC14C9909C08091200275
:10286000811105C080912802882309F4C2C182E049
:1028700060E00E94882B80912802882329F088E458
:1028800093E00E94E42B10C084E60E94EC2482E5D1
:1028900060E040E096010CE010E00E94AA2A89E87E
:1028A00093E0B6010E94A73087E062E00E94882B87
:1028B0004C9B05C080912802882309F4B4C1809103
:1028C00000018A3010F40E943226809100016AE0F3
:1028D00070E00E94E11E8FE20E942A2C809121026A
:1028E0008A3010F40E943226809121026AE070E062
:1028F0000E94E11E8FE060E00E94882B8091200200
:10290000882329F08EE293E00E94E42B05C08FE03B
:1029100060E045E00E9441274C9906C0809120026A
:10292000811102C043E001C041E088E063E00E9401
:102930004E278F2D880F8F0D8B5F63E00E94882BB1
:1029400081E061E00E94182580912202823009F422
:1029500061C0833009F468C0813009F078CF51E05C
:10296000F516E1F0F51638F082E0F81681F193E003
:10297000F916A1F16CCF80910001823018F08150DE
:102980008093000180912802882321F01092280270
:10299000B09229024C9935C0F12C59CF8091250273
:1029A00081110E94181C4C990DC0B092290290917F
:1029B000000180911F02890F81590E94D81BB0929B
:1029C000270202C00E94051C0E94141C40CF4C9993
:1029D00034C180912002811130C139CF8091000132
:1029E00090912102891718F48F5F809300018091E4
:1029F0002802882321F010922802B09229024C9BD1
:102A000026CF9091000180911F02890F81590E9469
:102A1000D81B1DCF80912002811119CF22E02F15E4
:102A200008F415CFF39413CF8091200281110FCFBA
:102A3000FF2009F4B1CFFA940ACF811102C04C995A
:102A4000FECF81E069E471E00E94BF2B82E061E586
:102A500071E00E94BF2B83E061E471E00E94BF2B14
:102A600089E791E00E94342784E063E00E94882B8C
:102A700083E593E00E94E42B8BE063E042E00E9458
:102A80004E2780912002882311F012E001C011E04E
:102A90000E94B52B80912202843009F469C080E045
:102AA00061E00E94882B84E393E00E94E42B8FE096
:102AB00060E00E94882B80912002882329F08EE21A
:102AC00093E00E94E42B05C08FE060E045E00E94A7
:102AD00041274C9906C080912002811102C043E039
:102AE00001C041E088E063E00E944E27812F880FFB
:102AF000810F8B5F63E00E94882B81E061E00E9480
:102B0000182580912202823009F1833041F1813011
:102B100009F6113021F0123009F0BCCF10C08091BD
:102B2000250281110E94181C4C9904C081E08093F9
:102B3000270202C00E94051C0E94141CABCF4C99B6
:102B400091C08091200281118DC0A4CF809120027C
:102B50008111A0CF133008F09DCF1F5F9BCF8091D4
:102B60002002811197CF112309F494CF115092CFF5
:102B70000E940626BBCB8091260281110EC0809157
:102B8000250281110E94181C80912002811102C02F
:102B90004C997EC05E985F9A02C05E9A5F98909151
:102BA000260281E089278093260284EF91E00E942B
:102BB00083259CCB80E06E2D40E20E944E2742E0B0
:102BC0004E1508F493CBE39491CB80E06E2D40E258
:102BD0000E944E27EE2009F489CBEA9487CB0E940D
:102BE0000626C65BDF4FE0E10C94E8330E94051C2B
:102BF00023CD40911F0250E041595F4F8091000169
:102C0000480F511D83E0652F20E030E000E010E028
:102C10000E94AA2A84E60E94EC240E94051C84E6F5
:102C20000E94EC2424CE84E60E94EC248BE40E94D3
:102C3000222B87598093000142CE80912502811179
:102C40000E94181C80912002882339F05E9810920F
:102C500020028DE00E943E2BFACDB09220020E940D
:102C60004B2BF5CD8091250281110E94181C80917B
:102C70002002882339F05E98109220028DE00E9495
:102C80003E2B08CF81E0809320020E944B2B02CF85
:102C90000E94051C7FCF85ED8093BC008091BC0015
:102CA00084FDFCCF10924703089540916E02262FB9
:102CB00030E0240F311D21323105DCF4209147032F
:102CC0002430C9F4FC0180E090E0861758F430917C
:102CD0006E022191DC01A45BBD4FA30FB11D2C93AB
:102CE0000196F3CF80916E02680F60936E0280E0D0
:102CF000089581E0089582E008950895E091BB036E
:102D00008091BA03E81730F4F0E0E650FD4F80817F
:102D100090E008958FEF9FEF08959091BB0380910D
:102D2000BA03981750F4E92FF0E0E650FD4F2081E8
:102D300030E09F5F9093BB0302C02FEF3FEFC901CC
:102D400008958091BA0390E02091BB03821B910902
:102D50000895A0E0B0E0EFEAF6E10C94D4337C01F2
:102D6000972F8A0180914803882391F0C62FD72F8F
:102D70006E01C40ED51ECC15DD0571F06991D70129
:102D8000ED91FC910190F081E02DC7010995F3CF01
:102D9000862F642F0E945516C801CDB7DEB7E8E034
:102DA0000C94F033A1E0B0E0E8EDF6E10C94DA33F6
:102DB0006983209148032223D1F02091B803203267
:102DC00040F021E030E0FC013383228380E090E09A
:102DD00015C08091B903E82FF0E0E75BFC4F9981C3
:102DE00090838F5F8093B9038093B80305C0CE01B1
:102DF000019661E00E94551681E090E02196E2E0A4
:102E00000C94F63360934102709342028093430224
:102E100090934402DC01CB01845D9E4FAF4FBF4FC6
:102E200080933D0290933E02A0933F02B0934002F4
:102E300082E090E090933C0280933B020E94CC2180
:102E400060933702709338028093390290933A026C
:102E500008951F920F920FB60F9211242F933F9354
:102E60004F935F936F937F938F939F93AF93BF9392
:102E7000EF93FF93E091D502F091D602309709F4D9
:102E800051C0968DA685B785858591FF04C09C911C
:102E9000892329F447C09C91892309F043C0A38961
:102EA000B4899C918589809589238C93868997899B
:102EB0000197F1F7608D718DA685B785558538E04E
:102EC00020E0CB010197F1F7822F90E0959587954F
:102ED000282F4C91452309F02068315091F7868DB9
:102EE00081FD20958091D30290E001968F73992700
:102EF0003091D402381749F0A091D302B0E0AD561A
:102F0000BD4F2C938093D30203C0868D8160868F42
:102F1000828D938D0197F1F7A389B4899C9185895E
:102F2000892B8C93FF91EF91BF91AF919F918F91DE
:102F30007F916F915F914F913F912F910F900FBEB5
:102F40000F901F901895E091D502F091D602E817E6
:102F5000F90769F4A389B4899C91858980958923AF
:102F60008C931092D6021092D50281E0089580E0F1
:102F700008951F920F920FB60F9211242F933F9333
:102F80004F935F936F937F938F939F93AF93BF9371
:102F9000EF93FF938091B900887F803609F49CC03D
:102FA00068F5883209F45BC090F4803109F454C0AC
:102FB00038F4882309F4F6C0883009F44DC0F6C00F
:102FC000883109F44CC0803209F45DC0EFC0803410
:102FD00009F468C048F4803309F455C0883309F017
:102FE000E5C080934503D8C0803509F44FC08835CB
:102FF00009F45DC0883409F0D9C0D6C0883909F415
:10300000C7C0A8F4883709F467C038F4883609F4D3
:1030100063C0803709F460C0C9C0883809F4B8C0FB
:10302000803909F45FC0803809F0C0C05BC0803BC4
:1030300009F486C038F4803A09F466C0883A09F485
:103040007FC0B4C0803C09F4A7C0883C09F4A4C088
:10305000883B09F48AC0AAC08091220310C09091D5
:10306000440380914303981770F5E091440381E095
:103070008E0F80934403F0E0ED5DFC4F80818093E0
:10308000BB0085EC86C0809345038EC0E09144036D
:1030900081E08E0F809344038091BB00F0E0ED5DF2
:1030A000FC4F808390914403809143036EC0E09174
:1030B000440381E08E0F809344038091BB00F0E0D5
:1030C000ED5DFC4F80838091460381116DC081E0EE
:1030D0008093210384EA61C083E0809347031092C8
:1030E0009202CFCF80919202803208F051C0E091DD
:1030F000920281E08E0F809392028091BB00F0E0FB
:10310000EE58FD4F8083BDCF85EC8093BC001092BC
:10311000470380919202803230F4E0919202F0E015
:10312000EE58FD4F10826091920270E0E0917002C3
:10313000F091710282E792E009951092920236C0F6
:1031400084E08093470310926F0210926E02E09128
:103150006C02F0916D02099580916E02811105C09B
:1031600081E080936E0210924C02E0916F0281E048
:103170008E0F80936F02F0E0E45BFD4F80818093BF
:10318000BB0090916F0280916E02981708F479CF7E
:1031900085E88093BC000AC085EC8093BC00109247
:1031A000470304C0109245030E944B16FF91EF9114
:1031B000BF91AF919F918F917F916F915F914F914F
:1031C0003F912F910F900FBE0F901F901895109266
:1031D000470381E0809346031092210382E161E07E
:1031E0000E94842083E161E00E948420E9EBF0E00A
:1031F00080818E7F808380818D7F808388E480932F
:10320000B80085E48093BC000895A0E0B0E0EBE056
:10321000F9E10C94CB33382E962E842EF90184E6F6
:10322000E816F1042CF082EBE81A87E0F80A03C0F4
:103230008EE1E80EF11CE0924B0200934A02E0930B
:103240004902309247029092460280924502AE2D8A
:10325000B0E020E833E341EE51E00E94B7332B01A8
:103260003C0122EB37E0FF2484E6C82ED12CC0E9D4
:10327000D1E0C901825B97408E159F05DCF4C9013E
:1032800083709927892B99F4C901B6010E94D6341D
:10329000892B31F4C901BE010E94D634892B39F43F
:1032A00080E8480E81E5581E81E0681E711C2F5F82
:1032B0003F4FDFCF8EE4E81A88EFF80AC70164E6D3
:1032C00070E00E94D6346C01C70160E971E00E9491
:1032D000D6345C01C1E0D0E0112783E0E822FF246E
:1032E000C017D1072CF5C230D10589F4E114F104DF
:1032F00071F4C114D10419F4A114B10441F480E8AB
:10330000480E8BE3581E86E2681E711C0FC0DE015A
:10331000A655BE4FAC91B0E020E831E541E050E069
:103320000E94B733460E571E681E791E2196D8CFCD
:10333000292D30E0ACE3B0E00E9401346B017C0148
:10334000C80CD11CE11CF11C232D30E0A0E1BEE033
:103350000E940134C60ED71EE81EF91EDF01BB27EE
:10336000119720E831E541E050E00E94C233DC01D2
:10337000CB018C0D9D1DAE1DBF1DBC01CD01640D8B
:10338000751D861D971D0E940217CDB7DEB7E1E1BE
:103390000C94E733CF92DF92EF92FF920F931F933B
:1033A0000E94CC21C0903702D0903802E0903902C0
:1033B000F0903A028B019C010C191D092E093F095E
:1033C0008091410290914202A0914302B091440247
:1033D000083E134021053105D0F00196A11DB11D15
:1033E0008093410290934202A0934302B09344021F
:1033F000B701A60148515C4F6F4F7F4F4093370292
:10340000509338026093390270933A02C9CF4091C9
:103410003D0250913E0260913F027091400284173C
:103420009507A607B70788F1E0913502F0913602BB
:10343000309759F10995611571058105910519F0CC
:103440000E94021722C08091410290914202A091F5
:103450004302B0914402845D9E4FAF4FBF4F8093B3
:103460003D0290933E02A0933F02B093400281E060
:1034700090E020913B0230913C02232B11F480E03C
:1034800090E090933C0280933B02609141027091E6
:10349000420280914302909144021F910F91FF904C
:1034A000EF90DF90CF900895A0E0B0E0EAE5FAE178
:1034B0000C94CC334B015C0180913102909132022B
:1034C000A0913302B091340288169906AA06BB0671
:1034D00009F4C2C08CE3C82ED12CE12CF12CC5011B
:1034E000B401A70196010E94763360934502CA0198
:1034F000B901A70196010E94763360934602CA0182
:10350000B90128E130E040E050E00E9476336901E3
:103510007A0160934702CA01B9016C5F7F4F8F4FF8
:103520009F4F27E030E040E050E00E9476336F5F2D
:1035300060934802412C512C320140E004E610E037
:10354000C0E9D1E0242F30E02E54384FF901E37068
:10355000FF27309789F4C901B8010E94D634892B1E
:1035600031F4C901BE010E94D634892B29F48EE6BC
:1035700091E0A0E0B0E004C08DE691E0A0E0B0E012
:10358000480E591E6A1E7B1ED301C201AA27BB2703
:10359000C816D906EA06FB0610F04F5FD3CF40935A
:1035A0004B02309799F4C90164E670E00E94D6346A
:1035B000892B39F4C90160E971E00E94D634892B66
:1035C00029F48EE691E0A0E0B0E004C08DE691E041
:1035D000A0E0B0E0481A590A6A0A7B0AC418D50864
:1035E000E608F708C90164E670E00E94D634EC01F1
:1035F000C90160E971E00E94D634ABEAB1E020E095
:10360000213039F4309749F4209729F4009729F4B0
:1036100002C04C9103C04DE101C04CE150E060E0BC
:1036200070E0C416D506E606F70640F0C41AD50ABF
:10363000E60AF70A2F5F11962C3011F72F5F2093BF
:103640004A02C394C092490280923102909232029F
:10365000A0923302B0923402CDB7DEB7E0E10C9411
:10366000E8330E94CA190E94541A809146020895B4
:103670001F920F920FB60F9211240F931F932F9347
:103680003F934F935F936F937F938F939F93AF93EA
:10369000BF93EF93FF930E94CC2120912F02309192
:1036A0003002890120E030E060177107820793073C
:1036B000B8F080916F008D7F80936F0082E08093DF
:1036C000810081E080938000E0912D02F0912E0234
:1036D000908180912C0280958923808310922C0206
:1036E000E0912D02F0912E02908180912C02892789
:1036F0008083FF91EF91BF91AF919F918F917F91C7
:103700006F915F914F913F912F911F910F910F906A
:103710000FBE0F901F90189587EE91E090936B036A
:1037200080936A038AE693E00E94A317089520918C
:103730002A0230912B02A901480F511DCA010E9493
:103740005833089520912A0230912B02A901480F85
:10375000511DCA010E9450330895A1E0B0E0E3EB8F
:10376000FBE10C94D833182F062F79830E94DE29B1
:103770008CEB93E069810E94D2168CEB93E0602F72
:103780000E94D2160E948129812F90E061E070E0B2
:103790000E945F2A8CEB93E00E948D162196E4E054
:1037A0000C94F4335E9886E490E00E94832508959B
:1037B000A1E0B0E0EEEDFBE10C94D83389830E94E8
:1037C000D21B83E060E0498120E030E000E010E0BF
:1037D0000E94AA2A84E60E94EC2480912902882370
:1037E00019F081E00E944F2B80912802882349F034
:1037F00081E164E040E020E030E000E010E00E9481
:10380000AA2A2196E4E00C94F4330E944B2B84E620
:103810000E94EC2410922802109229021092270292
:1038200084E00E944F2B08955F981092260208951D
:103830000E94561F109225020895CF93DF930E9495
:10384000662180912302909124022AE0289FE001C2
:10385000299FD00D1124CE52D2420E941A1F2091CE
:103860009E0330919F0322273E7F3068CE016AE09D
:1038700070E00E94C234262B372B30939F03209395
:103880009E030E94F81E0E941A1F8091AC03909123
:10389000AD0396FFF8CF0E941A1F80919E0390916E
:1038A0009F039F7790939F0380939E030E94F81E2F
:1038B0000E941A1F8091AC039091AD0396FDF8CF42
:1038C000DF91CF910895CF93823009F477C038F417
:1038D000882321F1813009F0B8C0CAE060C084308B
:1038E00009F48BC008F472C0853009F0AEC088E5D9
:1038F00092E068EC70E041E028EC30E00E94A12604
:1039000084EF91E068EC70E041E028EC30E00E9448
:10391000A12680E991E068EC70E092C086E091E039
:103920006AEF70E041E02DE431E00E94A12684ECD2
:1039300090E06DE770E041E027EA30E00E94A126C8
:1039400084EC90E06DE770E041E027EA30E00E940F
:10395000A1268CED90E06AEF70E041E02DE431E0CB
:103960000E94A12684EC90E06AEF70E041E02AE931
:1039700032E00E94A12687EF90E06AEF70E041E01C
:103980002DE431E00E94A12686E091E06AEF70E02C
:1039900041E02DE431E057C0C15009F456C088EB36
:1039A00091E062E370E041E024E630E00E94A1266D
:1039B00080912202843081F7C0E0EECF88EB91E065
:1039C00068EC70E041E024EF31E03DC088E592E032
:1039D00064E670E041E024E630E00E94A1268CEB32
:1039E00092E064E670E041E024E630E00E94A12627
:1039F00080E293E064E670E023C088E592E060E551
:103A000070E041E024E630E00E94A12680E991E0E8
:103A100060E570E041E024E630E00E94A12684EFFA
:103A200091E060E570E041E024E630E00E94A126EC
:103A300080E991E060E570E041E028EC30E003C00F
:103A400041E02CE231E00E94A126CF910895A0E050
:103A5000B0E0EDE2FDE10C94D4336C017A018B010E
:103A6000C0E0D0E0CE15DF0589F0D8016D918D0161
:103A7000D601ED91FC910190F081E02DC6010995F0
:103A8000892B11F47E0102C02196ECCFC701CDB77E
:103A9000DEB7E8E00C94F0332091D5023091D602E5
:103AA0002817390771F49091D4028091D3029817A6
:103AB00041F0E091D402F0E0ED56FD4F808190E0BE
:103AC00008958FEF9FEF089508951F93CF93DF938D
:103AD000DC015C962D913C915D972115310539F4FF
:103AE00081E090E013969C938E9312973DC051967F
:103AF000ED91FC91529750969C915097892F80950B
:103B00001FB75E964C915E9741FB772770F941FD98
:103B10006095F8944081772311F0492B01C0482328
:103B20004083E9012197F1F748E0508160FF02C02E
:103B3000592B01C058235083E9012197F1F766956D
:103B4000415099F7772321F090818923808303C026
:103B50008081982B90831FBF5C968D919C915D977F
:103B60000197F1F721E030E0C901DF91CF911F917A
:103B700008952091D5023091D6022817390771F4A3
:103B80008091D3022091D40290E0805C9F4F821BF1
:103B9000910960E470E00E94D634089580E090E0DE
:103BA00008952091D5023091D60228173907B9F42B
:103BB0009091D4028091D302981789F0E091D402B9
:103BC000F0E0ED56FD4F80812091D40230E02F5F70
:103BD0003F4F2F7333272093D40290E008958FEF47
:103BE0009FEF0895CF93C62F8093E1021092E002D9
:103BF00060E043E00E9441276091E0026F5F8091A6
:103C0000E10243E00E9441278C2F90E08D30910526
:103C100008F0D5C0FC01E45AFF4F8091E1020C94FA
:103C2000EA346091E00240E00E944E2781E067C0E4
:103C30006091E00241E00E944E2782E00E942A2C1F
:103C40006091E0026F5F8091E10244E00E944E27A4
:103C500087E014C06091E00246E00E944E2786E0B3
:103C60000E942A2C82E00E942A2C6091E0026F5F61
:103C70008091E10243E00E944E2784E00E942A2CBA
:103C800084E09BC06091E00246E00E944E2786E0FF
:103C90000E942A2C82E013C06091E00243E00E945F
:103CA0004E2784E00E942A2C87E044C06091E00205
:103CB00043E00E944E2786E00E942A2C86E00E9464
:103CC0002A2C6091E0026F5F8091E10244E022C003
:103CD0006091E00240E00E944E2786E00E942A2C7C
:103CE00086E010C06091E00241E00E944E2781E032
:103CF0001EC06091E00240E00E944E2786E00E94D4
:103D00002A2C82E00E942A2C6091E0026F5F809151
:103D1000E10243E00E944E2784E00E942A2C85E0C5
:103D20004CC06091E00240E00E944E2786E00E9475
:103D30002A2C82E00E942A2C8091E1026091E0020C
:103D40006F5F8E5F47E00DC08F5F6091E00244E0DF
:103D50000E944E278091E1026091E0026F5F8F5FC9
:103D600044E00E944E272BC06091E00240E00E9498
:103D70004E2782E00E942A2C80E00E942A2C60912B
:103D8000E0026F5F8091E10247E00E944E2783E0EE
:103D90000E942A2C87E011C06091E00247E00E9457
:103DA0004E2780E00E942A2C6091E0026F5F809194
:103DB000E10247E00E944E2783E00E942A2CCF9127
:103DC0000895282FAB01672B61F4E0918903F091EE
:103DD0008A030190F081E02D89E893E0622F099534
:103DE0000895682F70E080E090E00E94362C0895DE
:103DF0001F93CF93DF9380E10E94DE29CCE9D3E0CB
:103E00001881698122968CEB93E00E94D2168CEB8C
:103E100093E0612F0E94D21683E0C83AD80781F759
:103E20000E94812991E0811190E0892FDF91CF914B
:103E30001F9108950F931F93CF93DF9380E190E03C
:103E400060E270E00E945F2A8091BA0390E02091C6
:103E5000BB03821B910980329105ECF3CAE0D0E0EC
:103E60008CEB93E00E948D168E01000F111F0B56F4
:103E70001C4FF801138284838CEB93E00E948D1613
:103E8000F80123813481822B932B94838383C9305F
:103E9000D10539F02196C031D10511F7C0E0D0E04D
:103EA000DFCFDF91CF911F910F9108950E941A1FCC
:103EB000E5E9F3E0878190858064908787830E949D
:103EC000F81E08954F925F926F927F928F929F9209
:103ED000AF92BF92CF92DF92EF92FF92CF93DF9398
:103EE0006B017C01B42EA70196010E94B134882396
:103EF00029F089E893E067EB71E00FC0C701B601D4
:103F00009F772FEF3FEF4FE75FE70E94AC34181623
:103F10003CF489E893E06BEB71E00E94A73086C027
:103F2000C701B6012FEF3FEF4FE75FE40E94AC34CB
:103F300018162CF489E893E06FEB71E0EECFC7011F
:103F4000B6012FEF3FEF4FE75FEC0E942C3287FD69
:103F5000F1CFC701B60120E030E0A9010E942C3268
:103F600087FF09C08DE20E942A2CEC01F7FAF09439
:103F7000F7F8F09402C0C0E0D0E0A12C60E070E05F
:103F800080E09FE3AB1441F02DEC3CEC4CEC5DE3A6
:103F90000E949232A394F6CFA70196010E94113499
:103FA0002B013C010E947D346B017C010E94313267
:103FB0009B01AC01C301B2010E9410342B013C01F2
:103FC000C701B6014AE00E94362CC80FD91FBB209A
:103FD00029F08EE20E942A2CC80FD91FFB2CFF204B
:103FE00021F1C301B20120E030E040E251E40E943F
:103FF00092322B013C010E947D344B01A12CB12C4B
:10400000C501B4014AE00E94362CC80FD91FC50172
:10401000B4010E9431329B01AC01C301B2010E9484
:1040200010342B013C01FA94DACFCE01DF91CF910D
:10403000FF90EF90DF90CF90BF90AF909F908F90C8
:104040007F906F905F904F900895A1E0B0E0EBE219
:10405000F0E20C94D83389830E941A1F20919C03AC
:1040600030919D03A9015B7F8981811106C0397F51
:1040700030939D0320939C0306C0CA0192609093E5
:104080009D0380939C0380919C0390919D0391607C
:1040900090939D0380939C030E94F81E0E941A1F18
:1040A0008091AC039091AD0396FFF8CF0E941A1F48
:1040B0000091AC031091AD030027107280919C0316
:1040C00090919D039E7F90939D0380939C030E94FB
:1040D000F81E0E941A1F2091AC033091AD03C90154
:1040E0008827907436FDF5CF0115110549F40E941B
:1040F0001A1F8091AE039091AF03937085599C4F26
:104100002196E4E00C94F43390E0FC01EA56FC4F75
:104110003491FC01E85BFB4F2491FC01EC5CFB4F0C
:10412000E491EE2309F43BC0332339F1333091F0AD
:1041300038F43130A9F0323001F584B58F7D12C0EA
:10414000373091F03830A1F03430B9F480918000EC
:104150008F7D03C0809180008F77809380000DC099
:1041600084B58F7784BD09C08091B0008F7703C07C
:104170008091B0008F7D8093B000F0E0EE0FFF1FC4
:10418000E05EFB4FA591B4918FB7F894EC9161116B
:1041900003C020952E2301C02E2B2C938FBF089592
:1041A000CF93DF9390E0FC01E85BFB4F2491FC018F
:1041B000EC5CFB4F8491882361F190E0880F991F9C
:1041C000FC01E457FC4FC591D491FC01E05EFB4F2C
:1041D000A591B491611109C09FB7F8948881209589
:1041E00082238883EC912E230BC0623061F49FB749
:1041F000F8943881822F809583238883EC912E2B2D
:104200002C939FBF06C08FB7F894E8812E2B28838C
:104210008FBFDF91CF910895CF93DF93EC018AE0B8
:1042200061E00E94D020209719F48AE060E005C088
:10423000CF3FD10529F48AE061E00E94842043C089
:10424000E0EAF3E0E491E330F9F048F4E130B9F06A
:10425000E230A1F584B5806284BDC8BD34C0E730CA
:10426000E9F0E83019F1E43049F58091800080628E
:1042700080938000D0938B00C0938A0024C084B5C3
:10428000806884BDC7BD1FC0809180008068809316
:104290008000D0938900C093880015C08091B00041
:1042A00080688093B000C093B3000DC08091B000CF
:1042B00080628093B000C093B40005C0C038D105BF
:1042C0000CF0B9CFB2CFDF91CF910895CF93DF93A8
:1042D000C5E9D3E0888161E00E94D020898161E056
:1042E0000E94D020898160E00E948420888160E063
:1042F0000E94842081E090E00E94052C888161E08A
:104300000E94842081E090E00E94052C1092BB0363
:104310001092BA031092B9031092B8030E94E718E2
:104320000E941A1F80E091E89A8B898B0E94F81EE8
:1043300084EF91E00E94052C0E941A1F81E090EC0E
:1043400098878F838B859C8598619C878B878D85CB
:104350009E858F619E878D870E94F81E8EE690E075
:104360000E94052CDF91CF9108958E3008F08E5079
:104370008770806480937C0080917A008064809351
:104380007A0080917A0086FDFCCF809178002091A0
:10439000790090E0922B08952FB7F8946091DC0299
:1043A0007091DD028091DE029091DF022FBF0895AF
:1043B0008F929F92AF92BF92EF92FF920F931F93B3
:1043C000CF93DF937C010E94CC214B015C0124EF51
:1043D000820E21E0921EA11CB11CC0E0D0E000E0E2
:1043E00010E00E94CC21681579058A059B0598F09C
:1043F0002196CC0FDD1FCC0FDD1FCE0DDF1D1882E7
:10440000DF91CF911F910F91FF90EF90BF90AF90F0
:104410009F908F9008950830110554F70E941A1F3D
:104420008091AC039091AD0397FF27C0E091B20358
:10443000F091B303CF018827987F81159042D1F482
:10444000EF70FF27EC17FD071CF00F5F1F4FEF0108
:104450008091B4039091B503EE0FFF1FEE0FFF1F85
:10446000EE0DFF1D908381838091B6039091B70379
:104470009283838388E290E002C08EE190E00E9404
:10448000052CAFCF8F929F92AF92BF92DF92EF92A7
:10449000FF920F931F93CF93DF9300D000D0CDB73F
:1044A000DEB77C010E94CC214B015C0128EE820E1C
:1044B00023E0921EA11CB11C19821A821B821C824D
:1044C00000E010E0DD24D3940E94CC21681579052A
:1044D0008A059B05F8F40E941A1F8091AC03909105
:1044E000AD0397FF35C08091B2039091B303FC01F7
:1044F000E370FF27A1E0B0E0AC0FBD1FAE0FBF1F00
:104500002C912223A1F088E290E00E94052C043037
:104510001105D0F20E94CC21681579058A059B050A
:1045200018F0F701108217C0F701108614C0843FFD
:10453000914048F7DC920F5F1F4F8091B603909136
:10454000B703EE0FFF1FEE0DFF1D90838183DBCFBE
:104550008EE190E0DACF0F900F900F900F90DF91E7
:10456000CF911F910F91FF90EF90DF90BF90AF9090
:104570009F908F9008951F920F920FB60F92112463
:104580002F933F938F939F93AF93BF938091DC02C0
:104590009091DD02A091DE02B091DF023091DB024A
:1045A00023E0230F2D3720F40196A11DB11D05C076
:1045B00026E8230F0296A11DB11D2093DB028093F4
:1045C000DC029093DD02A093DE02B093DF028091C3
:1045D000D7029091D802A091D902B091DA02019647
:1045E000A11DB11D8093D7029093D802A093D90248
:1045F000B093DA02BF91AF919F918F913F912F912C
:104600000F900FBE0F901F90189583FD02C098E089
:1046100001C098E28770892B98E10FB6F894A895AD
:10462000909360000FBE80936000A8958091600019
:104630008064809360008091E702882319F083B73B
:10464000817F0BC08091E202882321F083B7817FB4
:10465000846003C083B7817F8C6083BF83B7816030
:1046600083BF85B7806685BF8F7D85BF80916400DD
:10467000816080936400889583B78E7F83BF0FB677
:10468000F894A895809160008861809360001092F2
:1046900060000FBE809160008F7B809360008091EE
:1046A00064008E7F809364000895CF938091D0033F
:1046B0008823E9F18091CE039091CC0320911C03D3
:1046C000981730F4C1E0821768F0291758F009C034
:1046D000891738F4C0E0821728F4291718F4C1E0CC
:1046E00001C0C0E0891310C05091CD033091CB03BD
:1046F000351738F040911B03451718F0341708F0B0
:10470000C1E0381708F4C1E0281307C030911B033B
:104710008091CD03381708F0C1E0291309C09091AA
:104720001B038091CB03981718F4C1E001C0C0E0CF
:104730008091F902C81749F0CC2311F087E401C039
:1047400086E60E94D81BC093F9028C2FCF91089562
:10475000CF93C82F81E061E00E94882B87E194E02D
:104760000E94E42B8C2F6AE070E00E94E11E8AE335
:104770000E942A2C80E20E942A2CEC2FF0E0EE0FFF
:10478000FF1FE95EFD4F6081718180E090E00E9433
:1047900031322DEC3CEC4CEC5DE30E94923242E075
:1047A0000E94621FCF910895CF93DF930E94311B27
:1047B000CAE1D3E089830E94CA190E94541A8091E9
:1047C00047028A83DF91CF91089580911F039DEF67
:1047D000980F983008F06DC09CEF980F963008F451
:1047E00066C0833089F520911E034091F7025091F5
:1047F000F80235E0349FC001359F900D112497FDDC
:1048000003969595879595958795049667E070E052
:104810000E94D6344FE150E0BA01681B790B38E1B1
:10482000369FA001379F500D11244F5F5F4F80913D
:104830001C0378E1279F90011124280F311D81E08E
:1048400042175307BCF135C08A3099F520911E03F9
:104850004091F7025091F80235E0349FC001359F36
:10486000900D112497FD03969595879595958795BD
:10487000019667E070E00E94D6344FE150E0BA0143
:10488000681B790B38E1369FA001379F500D11242A
:104890004F5F5F4F80911C0378E1279F90011124A7
:1048A000280F311D81E04217530724F402C081E034
:1048B000089580E00895EF92FF920F931F93CF9396
:1048C000DF9388E60E94DE298CEB93E060E00E9493
:1048D000D2160E94812988E690E067E070E00E948D
:1048E0005F2A8CEB93E00E948D16CAE1D3E0982FEB
:1048F0009695969596959E70292F220F220F920FCE
:104900008F70890F88838CEB93E00E948D16982F0F
:1049100092959F708F702AE0929F800D1124898359
:104920008CEB93E00E948D16982F96959695969510
:104930009670292F220F220F920F8F70890F8A8372
:104940008CEB93E00E948D16982F92959F708F703C
:104950002AE0929F800D11248B838CEB93E00E94C0
:104960008D16982F92959F708F702AE0929F800DE0
:1049700011248C838CEB93E00E948D16982F9295D6
:104980009F708F702AE0929F800D11248D838CEB95
:1049900093E00E948D16982F9F70925E82958F7083
:1049A000E92E2AE0829FE00C1124EE828A8169813F
:1049B00070E0488150E02C8130E00D8110E0F12C56
:1049C0009EE4E91A98EFF90A90E00E940519CDB724
:1049D000DEB7E6E00C94F233CF93C82F8091E70264
:1049E000882329F080916400806280936400C7FF6F
:1049F00004C083E00E940523C857C03420F082E041
:104A00000E940523CC53C03220F081E00E94052390
:104A1000CE51C03118F080E00E9405238091E7025A
:104A2000882321F08091640010926400CF91089552
:104A3000CF92DF92EF92FF921F93CF93DF93C82F15
:104A4000D62F0E94CC216B017C0120E6C20E2AEEFB
:104A5000D21EE11CF11C1092220214E0909122025D
:104A6000911115C08C2F0E94E72E80932202D11144
:104A700004C088E70E94EC24F1CF0E94CC21C61626
:104A8000D706E806F90650F710932202E7CF82E333
:104A90000E94EC24DF91CF911F91FF90EF90DF9067
:104AA000CF9008958F929F92AF92BF92CF92DF9254
:104AB000EF92FF926C010E94CC214B015C01E12C32
:104AC000F12C0E94CC21DC01CB0188199909AA099B
:104AD000BB098C159D05AE05BF0528F481E00E9439
:104AE000E72E843071F781E00E94E72E843011F4C4
:104AF00080932202FF90EF90DF90CF90BF90AF9015
:104B00009F908F9008950E94052C0895A0E0B0E03A
:104B1000ECE8F5E20C94D033962F3FB7F89440912F
:104B2000D7025091D8026091D9027091DA0226B56D
:104B3000A89B06C02F3F21F04F5F5F4F6F4F7F4F05
:104B40003FBF762F652F542F4427420F511D611D03
:104B5000711DE2E0440F551F661F771FEA95D1F7DC
:104B6000EA01CC0FDD1FCC0FDD1F4C275D27EA01CA
:104B7000CC0FCD2FCC1FDD0BD195C427D5277E01BF
:104B8000F694FE2CEE24F794E794082F10E0692F9A
:104B900070E0601B710B072E000C880B990B0E94B4
:104BA000333220E830E040E857E30E9492324B0174
:104BB0005C01CE25DF25BE0180E090E00E9431320D
:104BC0009B01AC01C501B4010E9492326B017C01D2
:104BD000B801110F880B990B0E9433329B01AC0175
:104BE000C701B6010E9411340E947D34862FCDB7D3
:104BF000DEB7ECE00C94EC3380E090E00E940C21F6
:104C000081E08093E2021092E70208950F931F93D0
:104C1000CF9301E011E0C0E08C2FB8010E94BF2BC0
:104C2000CF5F085F1F4FC830B9F7CF911F910F9129
:104C3000089581E061E00E94882B8EEE93E00E944F
:104C4000E42B82E30E94EC2408958FEE0E942A2C2C
:104C50008AEE93E00E94E42B089585EE93E00E9493
:104C6000E42B089580E30E942A2C08950E94CA191B
:104C70000E94541A80914B0290E08E54984F90936A
:104C8000F8028093F7020E94CA190E94541A809178
:104C9000490280931E030E94CA190E94541A8091EF
:104CA0004A0280931F0380E063E00E94882B0E94E9
:104CB000CA190E94541AE0914802F0E0EE0FFF1F5B
:104CC000E95FFB4F659174918BEE92E00E94223276
:104CD00089E893E06BEE72E00E94A7308AE063E01F
:104CE0000E94882B80911E038A3010F40E94322685
:104CF00080911E036AE070E00E94E11E8EE20E9435
:104D00002A2C80911F038A3010F40E943226809151
:104D10001F036AE070E00E94E11E8EE20E942A2CCE
:104D20008091F7029091F8020E94792C8091F5020F
:104D30009091F6020A9724F482E160E00E94882BA9
:104D40000895A0E0B0E0E7EAF6E20C94D2335B010C
:104D5000142FE9019C0140E050E060E079E08DE330
:104D600090E00E94983369017A0181E0C81AD10865
:104D7000E108F108C114D104E1E0EE06F10458F0B5
:104D8000CD2CDE2CEF2CFF24F1E0CF1AD108E10866
:104D9000F10804E001C001E0A114B10449F00E944F
:104DA000CC216A0D7B1D7093300260932F0206C0E8
:104DB0008FEF9FEF9093300280932F0280912C020F
:104DC000811122C0E3E5F4E0849180932C026FE32B
:104DD00074E0FB019491E92FF0E0EE0FFF1FE05E1D
:104DE000FB4F2591349130932E0220932D02FB012D
:104DF0006491E62FF0E0EE0FFF1FE457FC4FA59102
:104E0000B491EC918E2B8C93D0928700C092860047
:104E10008091840090918500A0E0B0E0C816D9068A
:104E2000EA06FB0620F4D0928500C092840000615F
:104E30000093810080E18093800080916F00826008
:104E400080936F00111104C0CE010E94832507C01A
:104E500080912202843019F0CE010E945225CDB7F4
:104E6000DEB7EAE00C94EE33BC0180E00E94BF2B79
:104E70000E94802B80E00E942A2C80E20E942A2C33
:104E80000895CF93C42F0E94882BCC2329F080E271
:104E90000E942A2CC150F9CFCF910895A1E0B0E033
:104EA000E4E5F7E20C94DA3349830E94882B4981C8
:104EB000842F0E942A2C2196E2E00C94F633CF93A3
:104EC0000E94D4230E9455238093EA0280911C0300
:104ED0008A3018F481E060E005C06AE00E94B634D0
:104EE000682F81E00E94F21D80911C03CAE06C2FA4
:104EF0000E94B63484E0692F0E94F21D87E06AE0C8
:104F00000E94F21D80911B038A3018F48AE060E051
:104F100005C06C2F0E94B634682F8AE00E94F21DF3
:104F200080911B036AE00E94B6348DE0692F0E94D5
:104F3000F21D81E161E043E00E94412781E161E0EF
:104F40000E94882B8091E902811104C08091E802BF
:104F5000811103C088E70E942A2C8091E7028823F0
:104F600019F084E40E942A2C8091D003882349F010
:104F70008091EA02882311F08EE401C08EE60E943F
:104F80002A2C8091E602882341F083E062E00E94AF
:104F9000882B8BEF93E00E94E42B81E162E043E0F9
:104FA0000E94412781E162E00E94882B8091E50206
:104FB000882319F084EF0E942A2C809120028823F4
:104FC00019F080E70E942A2C8091E402882319F0CE
:104FD00083E50E942A2C80912702811108C08091CC
:104FE0002602811104C080912502882319F080E5F2
:104FF0000E942A2C86E00E94B5219093F6028093AD
:10500000F502C4E08AE00E94EC2486E00E94B5210B
:105010002091F5023091F602820F931F9093F602D1
:105020008093F502C15071F765E070E00E94D634BC
:10503000072E000C880B990B0E94333220E030E0E1
:1050400040EA5BE30E94923226E636E646E350EC05
:105050000E9411342CE938ED49E952E40E94923261
:105060000E947D341616170634F4643671052CF050
:1050700063E670E002C061E070E0CB01072E000C37
:10508000AA0BBB0B9C01AD016A337105A4F0295337
:10509000310941095109ABE5B0E00E94B7332AE27A
:1050A00030E040E050E00E949833DA01C9010896F0
:1050B000A11DB11D13C02150310941095109A7E0BB
:1050C000B0E00E94B73327E330E040E050E00E94B8
:1050D0009833DA01C9010196A11DB11D9093F60222
:1050E0008093F50281E160E00E94882B8091F502B7
:1050F0009091F6020A9744F481E160E040E20E9458
:105100004E270E94B52B02C00E94AC2B8091F50265
:105110009091F6020E94792C8091E302882311F08D
:105120008BE201C085E20E942A2C82E160E00E94AD
:10513000882BCF9108950E94802B0E9406260E9402
:1051400036260E945F2708958F929F92AF92BF925A
:10515000CF92DF92EF92FF92CF93DF936B017C01AE
:105160000E94CC214B015C018AE693E00E94B91DAC
:10517000EC01892B69F40E94CC21AB01BC014819D8
:1051800059096A097B094C155D056E057F0560F3B9
:10519000CE01DF91CF91FF90EF90DF90CF90BF9045
:1051A000AF909F908F9008951092BF031092BE030E
:1051B00088EE93E0A0E0B0E08093C0039093C10339
:1051C000A093C203B093C30327ED31E03093BD0336
:1051D0002093BC0325E02093950322E120939603BE
:1051E00023E12093970310928C0310928B0327E006
:1051F00032E030938A032093890310928D0324E1D7
:105200002093920324E02093930328E020939403B7
:1052100010926D0310926C0380936E0390936F0352
:10522000A0937003B093710387EE91E090936B03AA
:1052300080936A031092810310928003109283037B
:1052400010928203109285031092840310928703B8
:1052500010928603609188036E7F6D7F6093880350
:105260006695617081E0682783E00E94842083E076
:1052700061E00E94D020EBE4F4E0E491E0937A0353
:10528000E7E3F4E0E491F0E0EE0FFF1FE05EFB4F98
:105290008591949190937C0380937B0382E060E0FE
:1052A0000E94D0208091880381FD04C082E061E0EB
:1052B0000E94842082E080937603EAE4F4E0E491A3
:1052C000E0937703E6E3F4E0E491F0E0EE0FFF1FF4
:1052D000E65DFB4F859194919093790380937803D9
:1052E00087EF91E090936B0380936A031092BB0366
:1052F0001092BA031092B9031092B8030E94E718F3
:105300000895909169032091B803213208F04AC0B2
:10531000809147038111FCCF32E03093470331E0A5
:10532000309346033FEF309345031092440320939C
:105330004303A9E4B3E043E253E0FA013E2F341BF8
:10534000321718F43D913193F9CF10922203209136
:105350002203990F922B9093220390912103913075
:1053600061F410922103909122039093BB009091DD
:10537000BC0093FDF8CF95EC01C095EE9093BC0076
:10538000909147039230E1F3909145039F3F79F06C
:1053900080914503803241F080914503803331F0A4
:1053A00084E005C081E003C082E001C083E0109288
:1053B000B9031092B80310924803089591E09093B6
:1053C0004803809369031092B9031092B8030895BB
:1053D0000F931F93CF9388E60E94DE298CEB93E016
:1053E00060E00E94D2160AE113E0F8018081CAE071
:1053F0006C2F0E94B634692FF0E18F9F600D11244D
:105400008CEB93E00E94D216F80181816C2F0E94F0
:10541000B634692FF0E18F9F600D11248CEB93E07F
:105420000E94D216F80182816C2F0E94B634692F37
:10543000F0E18F9F600D11248CEB93E00E94D21657
:10544000F80183816C2F0E94B634692FF0E18F9FA1
:10545000600D11248CEB93E00E94D216F801848138
:105460006C2F0E94B634692FF0E18F9F600D1124DC
:105470008CEB93E00E94D216F80185816C2F0E947C
:10548000B634692FF0E18F9F600D11248CEB93E00F
:105490000E94D216F80186818E516C2F0E94B6347C
:1054A000692FF0E18F9F600D11248CEB93E00E9437
:1054B000D2160E948129CF911F910F91089590914A
:1054C00047039111FCCF613208F060E291E09093C4
:1054D0004703909346032FEF209345031092440314
:1054E000260F209343039093220390912203880F69
:1054F000892B8093220380912103813061F41092E3
:105500002103809122038093BB008091BC0083FD26
:10551000F8CF85EC01C085EE8093BC0080914703F5
:105520008130E1F380914403861710F460914403C5
:10553000A3E2B3E02AEF32E0F9018E2F821B861737
:1055400018F48D918193F9CF1092BB036093BA0345
:10555000862F0895A0E0B0E0E0EBFAE20C94D4339B
:10556000E82EC62ED42EE901EDEFE80FE03128F445
:10557000F0E0ED53FE4FF08001C0F12C6AE070E0E6
:1055800080E090E00E94A428892B29F08AE693E02D
:105590000E94D11DF3CF8AE693E06EE70E94651D5D
:1055A0008AE693E062E06F0D0E94651D8AE693E053
:1055B0006E2D0E94651DFF2069F08AE693E06C2D38
:1055C0000E94651D82E0F81205C08AE693E06D2D09
:1055D0000E94651D8AE693E06FEE0E94651D20978C
:1055E00049F00115110531F0CE0160E070E0A8012D
:1055F0000E94F03468EE73E080E090E00E94A428FE
:10560000E12CF12C0150110962E370E080E090E0A0
:105610000E94A428892B89F08AE693E00E94D11D7C
:10562000209791F3E016F10678F7FE01EE0DFF1DCD
:105630008083C70101967C01E7CFCDB7DEB7E8E0F4
:105640000C94F033A5E0B0E0E8E2FBE20C94D83330
:1056500060E040E09E012F5F3F4F05E010E00E94B8
:10566000AA2ACE01019660E070E040E150E00E947D
:105670000731CB012596E4E00C94F4330F931F938C
:1056800060E040E020E030E000E010E00E94AA2A64
:105690001F910F9108958EE00E943E2B08950F9365
:1056A0001F93682F81E140E020E030E000E010E04F
:1056B0000E94AA2A1F910F9108951092940389E8DD
:1056C00093E060E00E94BD30089588E080939403E9
:1056D00089E893E060E00E94BD300895CF93C82F21
:1056E000682F607F89E893E00E94D73080E1C89FEF
:1056F000B001112489E893E00E94D730CF9108953A
:1057000081E00E946E2B8BE39FE10197F1F70895F2
:10571000A8E0B0E0EEE8FBE20C94DA3398E0E1E9CF
:10572000F1E0DE01119601900D929A95E1F79091CA
:105730009103961710F46FEF690FFE013196E60F93
:10574000F11DE60FF11D9081890F80680E946E2B7C
:105750002896E2E00C94F633E9E8F3E086818E7F48
:10576000868388600E946E2B0895E9E8F3E08681C5
:10577000982F9160968389600E946E2B0895A2E015
:10578000B0E0E5ECFBE20C94D633877028E0829F12
:10579000C0011124806469837A830E946E2B698121
:1057A000E62E7A81F72E8701085F1F4FF70161917E
:1057B0007F0189E893E00E94F030E016F106B1F72E
:1057C0002296E6E00C94F2330F931F93CF93DF936E
:1057D0008C01C0E0D0E0F801EC0FFD1F649166235E
:1057E00071F0E0918903F0918A030190F081E02D3E
:1057F00089E893E00995892B11F02196ECCFCE0131
:10580000DF91CF911F910F9108958F929F92AF9248
:10581000BF92CF92DF92EF92FF926C010E94CC2157
:105820004B015C01E12CF12C0E94CC21DC01CB016D
:1058300088199909AA09BB098C159D05AE05BF05F4
:1058400098F3FF90EF90DF90CF90BF90AF909F9034
:105850008F900895682FE0918903F0918A03019059
:10586000F081E02D89E893E0099508958F929F9249
:10587000AF92BF920F931F93CF93DF93CDB7DEB755
:10588000A1970FB6F894DEBF0FBECDBF19A242306C
:1058900008F44AE08E010F5D1F4F842E912CA12C3D
:1058A000B12CA50194010E947633E62FB901CA01FB
:1058B00001501109EA3014F4E05D01C0E95CD8013F
:1058C000EC93232B242B252B61F789E893E0B80177
:1058D0000E94A730A1960FB6F894DEBF0FBECDBFD1
:1058E000DF91CF911F910F91BF90AF909F908F90BC
:1058F0000895CF92DF92EF92FF92CF93DF936C01E6
:10590000990FEE08FF08F7FE11C08DE20E942A2CC5
:10591000EC0166277727CB016C197D098E099F0959
:105920004AE00E94362C8C0F9D1F05C0C701B601AE
:105930004AE00E94362CDF91CF91FF90EF90DF90EC
:10594000CF9008950F931F93CF93DF93EC018C01B9
:10595000065F1F4FC017D10750F480E5BE010E94BB
:10596000AD1B803211F00E942A2C2196F3CFDF91DB
:10597000CF911F910F910895CF92DF92EF92FF92F6
:10598000CF93DF9381E891E00E9434278EE894E082
:105990000E94E42B82E061E00E94882B8DE794E076
:1059A0000E94E42B82E062E00E94882B89E794E069
:1059B0000E94E42B82E063E00E94882B85E794E05C
:1059C0000E94E42BC0E0D4E180912202843009F4EB
:1059D00075C183E061E00E94882B8091D003882309
:1059E00019F081E794E002C08DE694E00E94E42B78
:1059F0008091CF03811102C040E201C048E580E1FF
:105A000061E00E944E2786E062E00E94882B809130
:105A1000CE038A3010F40E9432268091CE036AE0D1
:105A200070E00E94E11E8AE30E942A2C8091CD033F
:105A30008A3010F40E9432268091CD036AE070E033
:105A40000E94E11E0E942D2686E063E00E94882BC2
:105A50008091CC038A3010F40E9432268091CC03CE
:105A60006AE070E00E94E11E8AE30E942A2C809185
:105A7000CB038A3010F40E9432268091CB036AE077
:105A800070E00E94E11E0E942D26C23048F480E0A2
:105A900062E040E20E944E2780E061E00E94882B95
:105AA0008EEF8C0F843068F480E061E040E20E9469
:105AB0004E2780E063E040E20E944E2780E062E0F3
:105AC00009C0C63048F080E062E040E20E944E2704
:105AD00080E063E00E94882B8EE70E942A2CCC2E67
