:100000000C944C020C9474020C9474020C94291AF3
:100010000C94291A0C94291A0C94572F0C947402DE
:100020000C9474020C9474020C9474020C94712B52
:100030000C9474020C9474020C9474020C94740268
:100040000C94DF190C9474020C9474020C947402D6
:100050000C9474020C9474020C9474020C94740248
:100060000C94521B0C947402F209F509F709F90972
:10007000FB09FE09000A020A040A060A080ACB0B59
:10008000D80BE90BF50B000C0C0C220C330C380CC4
:100090004A0CE00AE20AE50AE70AE90AEB0AEE0A74
:1000A000F00AF20AF40A110B180B1F0B2D0B420B6E
:1000B000500B5E0B6C0B800B8E0BC212C912D4124C
:1000C000E712EA12F512FE12031323132813481342
:1000D00051131F272627382750275A2764277627AA
:1000E000802787279F27B227C227DA2742697274A1
:1000F00068646179004861707079004963682062C2
:10010000696E206869657221005B205D204D503367
:10011000005B205D20526164696F005B205D2057A9
:1001200065636B746F6E0020205B6175735D0020EA
:10013000205B616E205D004D503300526164696F39
:1001400000546F6E005765636B746F6E2020202023
:100150005B20202020205D004E657565205765637B
:100160006B7A6569740061757300616E2000626965
:100170007300766F6E005B2020205D2044696D6DFA
:10018000656E205B205D004E616368746D6F647501
:1001900073207374656C6C656E0061757300616EBD
:1001A00020002E3230004E616368746D6F64757389
:1001B000205B2020205D004E657565205568727AB1
:1001C0006569742F446174756D005A3A2000416B63
:1001D0006B753A0020543A200052414D3A202000DD
:1001E0004932433A20002D313730353137004669E6
:1001F000726D776172653A20006279204E696B6F8B
:100200006C6169205261646B650044696573657255
:10021000204E4F4B4F20676568207274004D656912
:100220006E204E4F4B4F0044697374616E7A6C6957
:100230006368742020205B205D005374756D6D2011
:100240002020202020202020205B205D00416B6B9F
:10025000752073706172656E202020205B205D0028
:100260007765697465722E2E2E0044697374616E11
:100270007A202B2F2D205B205D004576656E7473F0
:1002800020202B2F2D205B205D004C45442020207A
:1002900020202B2F2D205B205D004E4F4B4F2073D5
:1002A00074656C6C656E007A656974207374656C36
:1002B0006C656E00416C61726D207374656C6C6569
:1002C0006E00537069656C2077617320766F7200E1
:1002D0004E61736520647220636B656E00206175EA
:1002E0006620560020557064617465206572666FE3
:1002F0006C677265696368006765647220636B741C
:100300002068616C74656E20200052445320426561
:10031000656E64656E3A204C696E6B73005B317C70
:10032000735D205B327C735D205B337C735D2000EA
:100330005D5B3C5D5B205D5B205D5B3E5D5B00501B
:1003400041555345004B65696E65204D5033732010
:10035000676566756E64656E00476573636869639B
:10036000687465005B3C5D5B205D5B205D5B3E5DB2
:1003700000476573636869636874656E206800414F
:1003800055582D45696E67616E6700456967656EF2
:100390006573206800526164696F20680000000086
:1003A00000240027002A0053616D737461670046C2
:1003B00072656974616700446F6E6E2E74616700C8
:1003C0004D697474776F6368004469656E73746116
:1003D00067004D6F6E74616700536F6E6E74616776
:1003E0000000205568720072656E00737065696365
:1003F0006865726E2E2E2E00476562757274737476
:1004000061672100E103D903D203C903C003B70325
:10041000AF03A70353746174696F6E20000000007E
:1004200000250028002B00000000002300260029E2
:10043000000404040404040404020202020202038D
:100440000303030303010204081020408001020497
:10045000081020010204081020000000080002011A
:1004600000000304070000000000000000205765A2
:10047000636B746F6E202B2F2D205B205D0020415D
:100480006C61726D20004E61736520647220636B35
:10049000656E00003223C52B11241FBECFEFD8E0BC
:1004A000DEBFCDBF12E0A0E0B1E0EAEAF7E602C0AD
:1004B00005900D92AA30B107D9F723E0AAE0B2E087
:1004C00001C01D92A93DB207E1F712E0CBE4D2E0F2
:1004D00004C02197FE010E94BB33CA34D107C9F77B
:1004E0000E94BB020C94C8330C940000CF92DF92A0
:1004F000EF92FF920F931F93E82FF92F05C0015041
:1005000011092109310961F1908196239417B9F3FA
:1005100005C0015011092109310911F1908196237B
:100520009413F7CFC12CD12CE12CF12C0AC08FEF02
:10053000C81AD80AE80AF80A0C151D052E053F0549
:1005400079F080818623841791F36C2D7D2D8E2D7B
:100550009F2D1F910F91FF90EF90DF90CF90089506
:1005600060E070E080E090E01F910F91FF90EF90CD
:10057000DF90CF900895A6E0B0E0E1ECF2E00C94BB
:100580009B320E94B5181CBC80E880BF8FE380932B
:100590007E00809164008460809364008091640098
:1005A0008260809364008091640080648093640022
:1005B00088EC8AB98CE284B98EE387B980E48BB980
:1005C00081E088B90E94B91A0E94A9258CE00E9496
:1005D0009C2584EF91E00E94E11F86E06EE140E0FF
:1005E00020E030E000E010E00E94082584E00E9456
:1005F000AD250E94CA280E942828809181039091ED
:100600008203807F8A6090938203809381030E949B
:1006100006280E94642880E090E00E9421322EE1AA
:10062000829FC00111249093B5038093B40381E0AD
:100630000E94DB2B91E0811101C090E09093BE02FB
:1006400082E00E94DB2B8093170283E00E94DB2B69
:1006500091E0811101C090E09093BF0284E00E947C
:10066000DB2B8093D10385E00E94DB2B8093D003AA
:1006700086E00E94DB2B8093CF0387E00E94DB2B78
:100680008093AB0388E00E94DB2B8093C20289E059
:100690000E94DB2B809316028AE00E94DB2B91E004
:1006A000811101C090E0909315028BE00E94DB2B3A
:1006B00091E0811101C090E09093D8028CE00E94FB
:1006C000DB2B8093D7028DE00E94DB2B8093D50239
:1006D0008EE00E94DB2B8093D6028FE00E94DB2B02
:1006E0008093D40280E10E94DB2B91E0811101C054
:1006F00090E09093140281E10E94DB2B182F82E19D
:100700000E94DB2B282F30E0C9014AE0149F800DA6
:10071000911D11249093AE038093AD0383E10E9459
:10072000DB2B8093AA0318E1E12E12E0F12E15E1F4
:10073000812F0E94DB2B082F81E0810F0E94DB2B91
:10074000282F30E0C9016AE0069F800D911D112419
:10075000F701819391937F011E5F1B3149F78BE174
:100760000E94DB2B91E0811101C090E09093130275
:100770008CE10E94DB2B91E0811101C090E090930D
:10078000120280E090E00E94F1178093110281E054
:1007900090E00E94F1178093100210921E0288E6EA
:1007A0000E943C248BE993E069E971E00E94782F74
:1007B0000E94DF2384E10E944A1F88E60E943C24B5
:1007C0008BE993E06CE971E00E94782F0E94DF23AF
:1007D0000E94B91E80916C03882309F49CC080910B
:1007E0006D03886080936D03B4E0FB2EF09270037C
:1007F0008BE39DE00197F1F788E693E06091730346
:100800000E948E2F8BEF98E00197F1F788E693E036
:1008100060E30E94A82F0BE416E4C8010197F1F7EA
:1008200088E693E060E30E94A82FC8010197F1F7E2
:1008300088E693E060E30E94A82F83E592E00197A9
:10084000F1F788E693E060E20E94A82F80916D03A3
:1008500080620E94CC25F0926E038CE00E94CC2531
:100860000E94DE2582E080936F0386E00E94CC2503
:1008700082E00E94CC258BE39FE10197F1F70E9473
:10088000642084E190E00E942132182F8A3008F021
:1008900055C00E94DE2584EE92E00E94422683E04D
:1008A00061E046E50E94AC2180E090E00E94D726FE
:1008B0008EE20E948826812F6AE00E948733892F6A
:1008C00090E00E94D7268DED92E00E94422681E0C2
:1008D00090E00E94D7268EE20E94882680E090E079
:1008E0000E94D72684E064E00E94E62580ED92E035
:1008F0000E9442268BE064E045EF0E94AC2184E137
:1009000090E06AE00E94293281E060E00E94761F58
:100910000E94DE2513C080E280936C0380916C03FB
:10092000803408F05CCF0E943C240E94DF2388239F
:1009300009F455CF80916C038F5FEECF0E94E62BB8
:1009400088E592E060E570E040E020E530E00E945C
:10095000FF2080E793E066E970E040E026E930E0C0
:100960000E94FF205E9A0E94321E0E94B31D809357
:10097000D30287E40E94802590911E02891B8F5626
:1009800080932002F3E6FD8323E62C83CE010196BB
:100990003C010E94321E87E00E949E1881329340E3
:1009A00024F08091BD02882351F087E00E949E18B8
:1009B0008032934004F58091BD028823E1F090914C
:1009C000BD0281E089278093BD0287E00E949E18C6
:1009D0008032934014F00C94D10F8091C10288238F
:1009E00011F40C94D10F80911502882311F40C940A
:1009F000D10F0E945A208091FA022C81281709F405
:100A000063C18091C4028823E1F08091120288239F
:100A1000C1F08091BC02811114C08091150288231D
:100A200039F08091BD02811103C00E945A2009C093
:100A30008091C102811105C00E94BB2581E0809395
:100A4000C10210920F028091FB023D81381709F418
:100A5000B4C08091BC0281114CC00E94942090913E
:100A600010028091FE02981340C090911102809173
:100A7000FD0298133AC081E08093C00280910E027B
:100A8000811137C08091C402811133C061E771E0E8
:100A90000E941D268091AF0381110E9464288091DD
:100AA000B00381115F988091BE02811107C08091CF
:100AB000B103811103C08FE60E94EC2B80ED97E01B
:100AC0000E94E11F0E946A2B082F0E946A2B0817C0
:100AD00021F04C9902C00C94E70F8091AC03843054
:100AE00011F00C94FD0F0C94E70F10920E0210926F
:100AF000C002109114020E94431E181709F45DC031
:100B00008091FB02843008F458C0112311F40C9436
:100B10002E1081508093FB0281E0D12ED826D092F6
:100B200014028091FB026091FA0270E04091F90298
:100B300050E02091FD0230E00091FE0210E0E090D4
:100B4000D102F090D20290E00E949E1C8091D102CE
:100B5000825B8093FF020E9446248091B403805FF1
:100B60006D2D0E94D02B0091B4031091B5030E3D62
:100B700043E0140711F40C943110025E1F4F91E012
:100B8000F92EF00E8091B403890F9E830E94DB2B17
:100B9000682F8F2D0E94D02B9E819F5F9E3181F701
:100BA0001093B5030093B403C8016EE170E00E9496
:100BB000933380E090E00E9429328091BC02811141
:100BC00002C00E94BD218091C40281117DC080912C
:100BD000BE02811179C08091CF029091D0020A9714
:100BE0007CF48091BD0281110BC00E94E62B88E944
:100BF00093E060E570E040E020E530E00E94FF20F7
:100C00004C9962C080911F0281115EC08091AF0338
:100C100081115AC08091CF029091D00202970CF4BA
:100C200053C0E0911602F0E0E156FE4F108161E002
:100C3000610F81E00E94E41F811346C00C943510BF
:100C4000163010F00C94C610143011F00C94BE1035
:100C500083E061E00E94E6258BEF90E00E9442264F
:100C6000809117026CE1869FC00111240E947028B8
:100C70000E94E62B80E293E06AEF70E040E02EE015
:100C800031E00E94FF2080E293E066E970E040E0FE
:100C900024EB30E00E94FF2084E992E06AEF70E0EC
:100CA00040E02AEF30E00E94FF2080ED97E00E94B4
:100CB000B01F80E090E00E9470280E94F92280918D
:100CC000C10281110C9491108091BC0281117AC0F3
:100CD0008091C302811176C08091C202882309F4F9
:100CE00071C02D988FE090E00197F1F72D9A83E283
:100CF00090E00197F1F72D98E1E5F4E04491EDE300
:100D0000F4E0E491F0E0EE0FFF1FE95DFB4F859109
:100D10009491642F00E412E42FE030E00E94760208
:100D2000611571058105910549F0DC01CB01019642
:100D3000A11DB11DBC01CD019F7003C060E070E03A
:100D4000CB011091C2022AE330E040E050E00E9463
:100D50004732E9E11E9FC0011124092E000CAA0BA5
:100D6000BB0B281739074A075B0760F58091C10262
:100D7000882381F080911302882361F00E94C325AB
:100D80000E94F01860930A0270930B0280930C0289
:100D900090930D028091C402811114C080910F02C2
:100DA000811110C08091AF0381110CC080911F028E
:100DB000811108C08091BE02811104C04C9902C00B
:100DC0000C9455108091C1028823C9F080911302C0
:100DD0008823A9F00E94F01800910A0210910B02DA
:100DE00020910C0230910D020A561F4F2F4F3F4F9A
:100DF000061717072807390710F40C946010F091B4
:100E0000FA02FC832091FB022D8380E00E94B82D22
:100E10008093AC039091BC02823011F40C947F0F4C
:100E2000833011F40C94920F813011F00C94C60FA2
:100E300091110C94C60F80E50E944A1F0E940A2659
:100E40000E94DE258091BE02882331F088E70E944F
:100E5000882631E03B8301C01B8282E060E00E9473
:100E6000E62582EC92E00E94422682E061E00E9448
:100E7000E62584EB92E00E94422681E062E00E9437
:100E8000E6250E948B2087EA92E00E94422682E0BB
:100E900063E00E94E6258AE992E00E944226AB8048
:100EA0008091AC03843011F40C94980F80E06A2D8B
:100EB0004EE70E94AC2180E061E00E94761F8091A5
:100EC000AC03823011F40C94650F833011F40C9450
:100ED000720F813029F741E0A41681F1A41658F170
:100EE00062E0A61609F4D2C183E0A812D9CF0E940D
:100EF000DE2582E060E00E94E6258AE892E00E941A
:100F0000422682E061E00E94E6258AE792E00E94A4
:100F1000422682E062E00E94E6258AE692E00E9494
:100F2000422682E063E00E94E62580E692E00E948D
:100F3000422610E01CC50E940311B2CFA092A90363
:100F400089E891E00E9492218091D0038A3010F4C8
:100F50000E9490208091D0036AE070E00E94EF2709
:100F60008AE30E9488268091D1038A3010F40E947F
:100F700090208091D1036AE070E00E94EF270E94E8
:100F80008B2080E061E00E94E62588E591E00E94E8
:100F9000422682E063E00E94E62585E491E00E941B
:100FA00042268EE063E00E94E6258091CF038130E7
:100FB00049F028F0823051F487E391E005C081E4E4
:100FC00091E002C08BE391E00E9442260E9413262A
:100FD00000E010E07AE0F72EE4E1EE2E8091AC0321
:100FE000843009F43AC1153010F062E001C063E0CA
:100FF00080E040E20E94AC21153010F063E001C0B7
:1010000062E080E04EE70E94AC2182E062E00E9454
:10101000E6258091D0038A3010F40E9490208091C0
:10102000D0036AE070E00E94EF278AE30E948826DE
:101030008091D1038A3010F40E9490208091D103D6
:101040006AE070E00E94EF270E948B208091BF022F
:10105000882319F08FE291E002C087E291E00E94BC
:101060004226123089F030F4112361F01130A1F4DE
:1010700083E00FC0143061F048F0153069F48EE061
:1010800063E008C082E005C085E003C086E001C0DF
:101090008EE062E00E94E62580E061E00E94761F1B
:1010A0008091AC03823009F4CCC0833009F4CEC007
:1010B000813009F093CF123009F453C028F4112382
:1010C00069F11130C9F1C7C0143009F466C008F4E1
:1010D00056C0153009F0BFC00E940A26D090BF024A
:1010E0001092BF020E94DE2582E060E00E94E625A9
:1010F0008BE191E00E94422682E061E00E94E625B9
:1011000081E191E00E94422682E062E00E94E625B1
:1011100089E091E00E94422600E060C08091D00307
:101120008E3020F4865F8093D00395C06F2D0E948F
:1011300087339093D0038FC02091D003822F6F2DDF
:101140000E948733993011F4295001C02F5F2093FA
:10115000D0038091D003883109F07DC0E092D003A4
:101160007AC08091D103813320F4865F8093D103CC
:1011700072C06F2D0E9487339093D1036CC0209171
:10118000D103822F6F2D0E948733993011F429509B
:1011900001C02F5F2093D1035EC09091BF028927C9
:1011A0008093BF0258C083E06091CF0348E50E945E
:1011B000AC2180E0602F4EE70E94AC2183E0602FDD
:1011C0000E94E62580E061E00E94761F8091AC03DA
:1011D0008230E9F0833021F1813029F08091AC0335
:1011E000843009F726C00093CF0386E0602F0E9469
:1011F000D02B8091CF03811103C081E00E943B2D51
:101200008091CF03823051F70E943B2DE7CF80E0E1
:10121000602F40E20E94AC21023000F70F5FDECF6A
:1012200080E0602F40E20E94AC210023B9F201501F
:10123000D5CFD092BF0280E061E071E00E941D2610
:101240000AC0153008F0CACE1F5FC8CE112309F4BA
:10125000C5CE1150C3CE01E0C1CE002379F083E0AA
:101260006091BF020E94D02B84E06091D1030E9464
:10127000D02B85E06091D0030E94D02B80E061E00C
:1012800071E00E941D261092A9030ACEC090FB02B5
:101290009090FA02D090FD02B090FE0281E891E0B9
:1012A0000E94922187EB91E00E94422682E061E059
:1012B0000E94E62586EA91E00E9442260E941326BB
:1012C0008091D1029091D202805D97409093D2029A
:1012D0008093D10210E000E064E1E62E8091AC033F
:1012E000843009F4FAC282E062E00E94E62599E0C7
:1012F0009C1510F00E9490208C2D6AE070E00E94F6
:10130000EF278AE30E948826E9E0E91510F00E94A1
:101310009020892D6AE070E00E94EF270E948B20C8
:1013200082E063E00E94E625F9E0FD1510F00E94DE
:1013300090208D2D6AE070E00E94EF278EE20E94DF
:10134000882629E02B1510F00E9490208B2D6AE052
:1013500070E00E94EF2782EA91E00E94422680918D
:10136000D1029091D2020A9714F40E9490208091A9
:10137000D1029091D2020E94D7268EE061E00E94B5
:10138000E6258091D802882319F08EE991E002C009
:101390008AE991E00E94422680E0011195C662E050
:1013A00040E20E94AC2180E061E00E94E6258BEFE4
:1013B000800F863048F480E062E040E20E94AC2179
:1013C00080E063E00E94E6258EE70E948826202EBA
:1013D000312C3BE023163104F8F4F101EC5CFF4FB3
:1013E0000C94BB338EE061E015C082E005C083E061
:1013F00003C085E001C086E062E00CC082E009C065
:1014000083E007C085E005C086E003C08AE001C034
:101410008BE063E00E94E62580E061E00E94761F99
:101420008091AC03823009F44AC2833009F44CC283
:10143000813009F053CF002351F0F1013197EA30A8
:10144000F10508F0B3C1E15CFF4F0C94BB3381E8B8
:1014500091E00E94922187E891E00E94422682E07A
:1014600061E00E94E62586E791E00E94422682E044
:1014700062E00E94E62582E791E00E94422682E037
:1014800063E00E94E6258EE691E00E944226F12C60
:101490008091AC03843009F478C183E061E00E945C
:1014A000E6258091D802882319F08AE691E002C0EF
:1014B00086E691E00E94422680911202811102C0CC
:1014C00040E201C048E580E161E00E94AC2186E095
:1014D00062E00E94E6258091D7028A3010F40E94D3
:1014E00090208091D7026AE070E00E94EF278AE3A3
:1014F0000E9488268091D5028A3010F40E949020A4
:101500008091D5026AE070E00E94EF270E948B2054
:1015100086E063E00E94E6258091D6028A3010F4CE
:101520000E9490208091D6026AE070E00E94EF272E
:101530008AE30E9488268091D4028A3010F40E94A7
:1015400090208091D4026AE070E00E94EF270E9410
:101550008B2041E04F1548F080E062E040E20E94BD
:10156000AC2180E061E00E94E6258EEF8F0D843093
:1015700068F480E061E040E20E94AC2180E063E03A
:1015800040E20E94AC2180E062E00AC065E06F1595
:1015900048F480E062E040E20E94AC2180E063E039
:1015A0000E94E6258EE70E9488262F2C312C8AE0A7
:1015B00028163104E8F4F101E75BFF4F0C94BB33CC
:1015C00083E001C080E161E011C086E005C087E0F2
:1015D00003C089E001C08AE062E008C086E005C07F
:1015E00087E003C089E001C08AE063E00E94E6254D
:1015F00080E061E00E94761F8091AC03823009F4A4
:10160000B9C0833009F4BCC0813009F041CF9AE001
:101610002916310408F08FC0F101ED5AFF4F0C94E8
:10162000BB339091D80281E089278093D80283C090
:101630009091120281E08927809312027CC08091F0
:10164000D7028E3020F4865F8093D70274C06AE0A0
:101650000E9487339093D7026EC02091D702822FC9
:101660006AE00E948733993011F4295001C02F5F3E
:101670002093D7028091D702883109F05CC0E092B4
:10168000D70259C08091D502813320F4865F8093C0
:10169000D50251C06AE00E9487339093D5024BC0B7
:1016A0002091D502822F6AE00E948733993011F48D
:1016B000295001C02F5F2093D5023DC08091D602F2
:1016C0008E3020F4865F8093D60235C06AE00E9497
:1016D00087339093D6022FC02091D602822F6AE0E2
:1016E0000E948733993011F4295001C02F5F209355
:1016F000D6028091D6028831F1F4E092D6021BC066
:101700008091D402813320F4865F8093D40213C089
:101710006AE00E9487339093D4020DC02091D402D6
:10172000822F6AE00E948733993011F4295001C05A
:101730002F5F2093D4028BE06091D8020E94D02BBF
:101740008CE06091D7020E94D02B8DE06091D50291
:101750000E94D02B8EE06091D6020E94D02B8FE0A9
:101760006091D4020E94D02B8CE1609112020E9401
:10177000D02B8ECEE8E0EF1508F48ACEF39488CE15
:10178000FF2009F485CEFA9483CE80E061E071E019
:101790000E941D26A3CDFDE0FC1518F02AE0C20E24
:1017A00005C08C2D6AE00E948733C92E11E096CDCA
:1017B0008C2D6AE00E948733993019F437EFC30EFD
:1017C00001C0C39448E111E0C41288CD54E1C52E94
:1017D00085CD60E3691518F08AE0980EE7CF892D72
:1017E0006AE00E948733992EE1CF892D6AE00E943A
:1017F0008733993019F497EF990ED8CF9394D6CFB9
:10180000E5E1ED1518F0FAE0DF0ED0CF8D2D6AE09E
:101810000E948733D92E0DC08D2D6AE00E94873338
:10182000993019F427EFD20E01C0D3943FE13D1552
:1018300030F0D110BBCF11E0DD24D3944FCD4EE179
:10184000D42EB4CF42E04B1518F06AE0B60EAECFFE
:101850008B2D6AE00E948733B92E9111A7CF11E03A
:10186000BB24B3943BCD8BE08B1598F1B3949ECF02
:101870008091D1029091D2028935910514F40A9693
:1018800004C06AE070E00E94A7339093D202809374
:10189000D1028CCF2091D1023091D202C9016AE0ED
:1018A00070E00E94A733099719F42950310902C04A
:1018B0002F5F3F4F3093D2022093D10277CF0A306F
:1018C00008F00CCD0F5F0ACD002309F407CD0150BD
:1018D00005CD11E03AE0B32E01CDE090D102F090B9
:1018E000D20290E3E91A98EFF90AF092D202E0925C
:1018F000D102112339F1692D70E02D2D30E00B2D2F
:1019000010E08C2D90E040E050E00E949E1CC092C0
:10191000FB029092FA021092F902D092FD02B0926C
:10192000FE028091D102825B8093FF020E944624D6
:101930000E94F9220E94431E682F8093140280E1C6
:101940000E94D02B80E061E071E00E941D26A8CAB1
:1019500082E390E00E94E11F8091AC03823009F4A1
:1019600094C2833009F49AC2813009F44BC080914B
:10197000AC03843009F49EC20E941326111107C0E3
:1019800080911702ECE18E9FC001112402C080E01B
:1019900090E00E947028133011F40E940A2680E023
:1019A000612F4EE70E94AC218FE060E00E94E625A7
:1019B000809117026AE070E00E94EF278FE061E0FB
:1019C0000E94E625809116026AE070E00E94EF27EF
:1019D0008FE062E00E94E6258091C2026AE070E03A
:1019E0000E94EF278FE0612F0E94E62580E00E9491
:1019F000B82D8093AC038111ABCF84E690E00E94B8
:101A0000E11FF4CF113009F441C050F1123009F454
:101A10004DC0133009F0ABCF0E94DE2582E060E0BC
:101A20000E94E6258DE492E00E94422682E061E079
:101A30000E94E6258AE392E00E94422682E062E06C
:101A40000E94E62587E292E00E94422682E063E05F
:101A50000E94E6258DE192E00E94422600E06AC0E5
:101A600080911702893020F48F5F8093170202C0A3
:101A70001092170260911702FCE16F9FC0011124C0
:101A80006E830E94702882E06E810DC080911602E4
:101A9000893020F48F5F8093160202C010921602E4
:101AA00089E0609116020E94D02B61CF8091C20222
:101AB000893020F48F5F8093C20202C01092C2026C
:101AC00088E06091C202EFCF80911502811137C08A
:101AD00040E282E160E00E94AC218091BE0281116F
:101AE00030C040E282E161E00E94AC2180911302AB
:101AF000811129C040E282E162E00E94AC2180E0D5
:101B0000602F4EE70E94AC2182E1602F0E94E62503
:101B10000330D8F40E94132680E061E00E94761F13
:101B20008091AC03823009F49CC1833009F4A3C1D5
:101B3000813071F08091AC03843031F618CF48E5E4
:101B4000C8CF48E5CFCF48E5D6CF0E940A26E4CFDC
:101B5000013009F1C8F00230C1F1033059F789E6CC
:101B600091E00E9492218AE092E00E94422681E167
:101B700060E04FEE0E94AC2180E061E00E94E6252B
:101B800024E1E22EF12C2DC06091150268276093AC
:101B900015028AE020C00E940A268091BE028111AF
:101BA0000BC00E942C2C82E161E04EE20E94AC212D
:101BB0000E94192C0E94282C6091BE0281E06827A7
:101BC0006093BE020E94D02BB5CF609113026827AC
:101BD000609313028AE10E94D02B82E30E944A1F85
:101BE000A9CF8CEE8E0D843119F480E062E004C040
:101BF000883221F480E063E00E94E625C7010E945C
:101C0000F1170E9488262FEFE21AF20A30E5E31658
:101C1000F10439F780E060E00E94761F80E061E027
:101C200071E00E941D260E94DE2580E06BE00E948C
:101C3000002783E060E00E94002786E06CE00E94BD
:101C4000002788E060E00E9400278DE061E00E94AC
:101C5000002780E161E044E00E94AC2181E160E086
:101C60000E94002780E063E00E94E62589EF91E072
:101C70000E9442268091AC03843009F45BCF80E05F
:101C80000E94B82D8093AC0380E00E94B82D823072
:101C900089F78091AC03843069F380E00E94B82D0D
:101CA0008093AC0380E00E94B82D833091F70E94AE
:101CB000DE2580E060E00E94E6258EEE91E00E9445
:101CC000422681E090E00E94D7268EE20E9488267C
:101CD00080E090E00E94D72686EE91E00E944226A6
:101CE00080E061E00E94E62580EE91E00E944226BD
:101CF00098E0F92E8F2D0E943C240E94DF23811151
:101D000008C088E70E9488268F2D60E170E00E945D
:101D1000EF27F39448E7F412EDCF80E062E00E94F1
:101D2000E62589ED91E00E9442268091D3039091AF
:101D3000D403009711F489ED93E0F301E81BF90B4C
:101D4000CF010E94D72684ED91E00E94422688E6CA
:101D50000E943C248BE993E061E10E9462170E949B
:101D6000DF2388E690E062E070E00E94BD2490915D
:101D7000990380919A03981769F18BE993E00E9487
:101D80001D177C018BE993E00E941D174C01B701E0
:101D90006F777727072E000C880B990B0E94043170
:101DA0006B017C01B401772786E0759567958A956C
:101DB000E1F7072E000C880B990B0E94043120E0FC
:101DC00030E040E85EE30E946331A70196010E9483
:101DD000E23203C060E070E0CB0140E00E941929CC
:101DE0008FED0E94882680E063E00E94E6258EEC5D
:101DF00091E00E9442268BE063E00E94E6258AEC97
:101E000091E00E94422680911402882311F083E51C
:101E100001C087E50E9488268091AC03843009F4D4
:101E200038CF81E00E94B82D8093AC0386E063E058
:101E30000E94E62586E00E949E18BC01990F880B3F
:101E4000990B0E94043120E030E040EA5BE30E94FD
:101E5000633142E00E94192984E690E00E94B01F9D
:101E6000DBCF80E0602F40E20E94AC21033008F01D
:101E700061CE0F5F5FCE80E0602F40E20E94AC2118
:101E8000002309F457CE015055CE80E0612F40E287
:101E90000E94AC21133048F41F5F07C080E0612F1F
:101EA00040E20E94AC211111115080E0612F0E948C
:101EB000E6255DCD8091C10281110C94500780E030
:101EC00090E00E9470280C94500780E06A2D40E258
:101ED0000E94AC21F2E0FA1510F40C945007A39480
:101EE0000C94500780E06A2D40E20E94AC212B81C7
:101EF0002A1510F00C945007AA940C9450079111D5
:101F000045C08091C102811141C08091C2028823E5
:101F1000E9F19091C30281E089278093C3020E9476
:101F2000BD2134C0992339F01092BC021092C10235
:101F30000E94F9222BC080911502882339F08091EC
:101F4000BD02811103C00E945A2020C09091C1029D
:101F500081E089278093C1020E94BD218091C10246
:101F6000811107C080E090E00E9470280E94C32584
:101F70000AC0809117023CE1839FC00111240E9496
:101F800070280E94BB2582E30E944A1F8091BC02F8
:101F9000811102C088E701C080EF0E944A1F0C94A3
:101FA000C90487E00E949E188132934064F08091BA
:101FB000BC02882341F01092BC021092C1020E9420
:101FC000F9220C94FB040E94BD210C94FB0481E0D7
:101FD00080930E028091B103811102C00E94A92555
:101FE0008091AF0381110E94312C8091B003811147
:101FF0005F9A0E94F9220C9479050E94DE2587E001
:1020000061E00E94E62585EF90E00E94422686E08E
:1020100062E00E94E6258CEE90E00E94422681E07C
:1020200065E00E94E41F182F112391F080E064E125
:102030000E94E41F60E040E00E94AC2180E064E187
:102040000E94E41F63E040E00E94AC211150ECCFFD
:1020500084EF91E00E94B01F0C9465058F5F0C9493
:102060008A0500E010E00C94BF0584E06CE00E945B
:10207000E41F182F8091BC0281111AE00E940A26E9
:10208000183070F58091C102882351F08091D802F8
:10209000882321F08091C402811102C00E94C325CF
:1020A000153030F50E94DE2523C08DE361E50E94E6
:1020B000E41F0E94EC2B81E080930F020C94E20657
:1020C0000E94BB250C94FF0661E040E20E94AC2117
:1020D00080E063E040E20E94AC2180E062E065C9FC
:1020E00081E56FE60E94E41F0E94EC2B0C946406CD
:1020F000153011F00C9420060E946A2BF82E80E017
:1021000069E671E00E941D2601E00E946A2BF81228
:1021100004C08091AC03843089F41092A9030C941C
:102120005D068091D802882329F08091C402811134
:102130000C9464060E94BB250C9464060093A903CA
:102140000E94DE2581E064E10E94E41F182F112324
:1021500081F080E064E10E94E41FE82E80E064E00A
:102160000E94E41F682F8E2D40E00E94AC21115088
:10217000EECF84EF91E00E94B01FC7CF81E56FE6FC
:102180000E94E41F0E94EC2B0C945D06163091F423
:1021900018E288E10E94CC2588EC90E00E94B01FF4
:1021A0008091AC03843009F411E01150123088F7AB
:1021B0000C945D06173011F780E069E671E00E942B
:1021C0001D2600E010E0812F602F40E00E94AC212E
:1021D00086E990E00E94B01F8091AC03843011F436
:1021E00014E104E0812F602F40E20E94AC211F5FC8
:1021F000143148F30F5F043028F380ED97E00E941C
:10220000B01F0C945D06AAE4B0E0E9E0F1E10C94A3
:102210009D3280E069E771E00E941D260E94DE2564
:1022200082E060E00E94E62585E993E00E94422674
:102230000E94832082E061E00E94E6258BE893E023
:102240000E9442260E94832082E062E00E94E625EE
:102250008FE793E00E94422682E063E00E94E62539
:1022600081E793E00E9442260E948320E12CAE0188
:102270004F5F5F4F6A018091AC03843009F474C4EE
:102280008091AF03811102C040E201C040E081E0D3
:1022900060E00E94AC218091B303811102C040E252
:1022A00001C040E081E061E00E94AC218091B00378
:1022B000811102C040E201C040E081E062E00E9482
:1022C000AC2181E063E048E70E94AC2180E06E2D04
:1022D0004EE70E94AC2181E061E00E94761F809170
:1022E000AC03823009F42BC4833009F433C4813049
:1022F00011F651E0E51609F437C2E51628F082E040
:10230000E81609F4FDC3B7CF81E069E471E00E94EB
:102310001D2682E069E571E00E941D2683E061E6EA
:1023200071E00E941D2684E061E471E00E941D2698
:1023300089E791E00E9492218091AF03882329F0E0
:10234000CE018F5B9F4F0E94661902E010E0F12CD6
:10235000812C20E4922E9C0C3AE0A32EB12C80918B
:10236000AC03843009F4DDC181E062E04BE50E94FA
:10237000AC2182E00E94882680E393E00E944226FE
:1023800083E00E9488268DE50E94882681E063E034
:102390000E94E6258DE193E00E94422681E061E003
:1023A00043E10E949F210E9413268091AF03811177
:1023B00002C044E001C041E088E062E00E94AC213C
:1023C0008091AF03811102C040E201C042E58BE081
:1023D00062E00E94AC2182E060E00E94E62560910C
:1023E000AD037091AE0380E090E00E9402312DECCD
:1023F0003CEC4CEC5DE30E94633142E00E94192901
:1024000080E20E948826FF2069F05E980E94312CAD
:1024100089E060E04AE00E949F21CE018F5B9F4FE0
:102420000E94661989E060E00E94E6258091AF0372
:10243000882339F088E693E0BE016F5B7F4F0E94EE
:10244000782F083099F030F4063059F00730D9F47D
:1024500084E017C00A3089F070F00B30A1F480E1FD
:1024600010C081E00E94061E82E00BC082E00E9444
:10247000061E88E006C08AE004C083E00E94061EB3
:102480008EE063E005C0802F880F800F8E5F62E0D2
:102490000E94E625112309F45BC01092AC03F601FB
:1024A00080E281939E12FDCF0E940A2680E062E0C6
:1024B00044E10E949F2181E062E00E94E6258AE0DB
:1024C00093E00E94422681E063E00E94E62588EFC7
:1024D00092E00E94422685E063E045EF0E94AC2135
:1024E0008091AC038330C0F5C6010E94FC18260120
:1024F00094E0F92E13E082E061E00E94E625612C71
:10250000712CF201E60DF71D808180310CF480E220
:102510000E9488269FEF691A790A20E162167104E9
:1025200081F7C6010E94FC188BE062E00E94E6255C
:1025300080E00E94B82D8093AC03833088F6115060
:10254000D1F6FA9440E1440E511CF110D3CFC8CF1C
:1025500080E061E00E94761F8091AC03823009F434
:10256000C9C0833009F4D1C0813009F0D7C0802FB1
:1025700090E08C30910508F0B7C0FC01E35AFF4FA2
:102580000C94BB338091AF03882309F4ADC080E085
:1025900032C08091AD039091AE038B3653E0950726
:1025A00008F4A2C0019778C08091AF03882319F086
:1025B0000E942C2C99C080911F02811102C04C995D
:1025C000DAC20E94282C81E08093AF038DC0109165
:1025D000AF038BC08091AD039091AE03883324E0AC
:1025E000920708F081C0019657C08091AF038823FD
:1025F00009F47AC081E00E9492174EC080911802BF
:102600009091190249C08091AD039091AE039093CF
:10261000190280931802B5010E949333682F86E156
:102620000E94D02B2091180230911902C901B501E6
:102630000E949333A901481B590BCA01B5010E949E
:10264000933385E14DC080911A0290911B0224C002
:102650008091AD039091AE0390931B0280931A0278
:10266000B5010E949333682F88E10E94D02B2091FE
:102670001A0230911B02C901B5010E949333A901CE
:10268000481B590BCA01B5010E94933387E128C04A
:1026900080911C0290911D029093AE038093AD0334
:1026A00023C08091AD039091AE0390931D0280935F
:1026B0001C02B5010E949333682F8AE10E94D02B3F
:1026C00020911C0230911D02C901B5010E94933373
:1026D000A901481B590BCA01B5010E94933389E136
:1026E0000E94D02B0E94772010E0F090AF03882446
:1026F000839435CE0B3008F40F5F8091AF038111C6
:102700000DC0033059F404E009C00111015080915B
:10271000AF03811103C0033009F402E010E0F12C93
:102720001ECE882009F4E9C18091AD039091AE03DB
:102730000AE010E0B8010E949333682F82E10E9402
:10274000D02B2091AD033091AE03C901B8010E9496
:102750009333A901481B590BCA01B8010E94933356
:1027600081E10E94D02BC9C1909120028091B103D8
:10277000992309F427C1811102C04C99FECF81E051
:1027800069E471E00E941D2682E061E571E00E942B
:102790001D2683E061E471E00E941D2689E791E037
:1027A0000E94922184E063E00E94E62584E693E0A3
:1027B0000E9442268BE063E042E00E94AC218091BF
:1027C0001F02882319F082E0F82E02C0FF24F39440
:1027D0000E941326BB24B3948091AC03843009F487
:1027E0008CC14C9909C080911F02811105C0809154
:1027F000B203882309F4C2C182E060E00E94E625AA
:102800008091B203882329F089E593E00E94422653
:1028100010C084E60E944A1F82E560E040E0960115
:102820000CE010E00E94082588E693E0B6010E94C3
:10283000782F87E062E00E94E6254C9B05C08091DE
:10284000B203882309F4B4C1809100018A3010F4E6
:102850000E949020809100016AE070E00E94EF27C2
:102860008FE20E948826809120028A3010F40E9414
:102870009020809120026AE070E00E94EF278FE0B4
:1028800060E00E94E62580911F02882329F08FE3F3
:1028900093E00E94422605C08FE060E045E00E9480
:1028A0009F214C9906C080911F02811102C043E014
:1028B00001C041E088E063E00E94AC218F2D880FC9
:1028C0008F0D8B5F63E00E94E62581E061E00E944E
:1028D000761F8091AC03823009F461C0833009F423
:1028E00068C0813009F078CF51E0F516E1F0F516B7
:1028F00038F082E0F81681F193E0F916A1F16CCF7F
:1029000080910001823018F0815080930001809105
:10291000B203882321F01092B203B092B3034C9912
:1029200035C0F12C59CF8091AF0381110E942C2C1E
:102930004C990DC0B092B3039091000180911E029A
:10294000890F81590E94EC2BB092B10302C00E9402
:10295000192C0E94282C40CF4C9934C180911F0221
:10296000811130C139CF80910001909120028917E7
:1029700018F48F5F809300018091B203882321F0C7
:102980001092B203B092B3034C9B26CF90910001FA
:1029900080911E02890F81590E94EC2B1DCF8091DE
:1029A0001F02811119CF22E02F1508F415CFF394DF
:1029B00013CF80911F0281110FCFFF2009F4B1CFF7
:1029C000FA940ACF811102C04C99FECF81E069E4EC
:1029D00071E00E941D2682E061E571E00E941D26E3
:1029E00083E061E471E00E941D2689E791E00E9486
:1029F000922184E063E00E94E62584E693E00E9451
:102A000042268BE063E042E00E94AC2180911F02ED
:102A1000882311F012E001C011E00E94132680917A
:102A2000AC03843009F469C080E061E00E94E625CF
:102A300085E493E00E9442268FE060E00E94E62554
:102A400080911F02882329F08FE393E00E944226A1
:102A500005C08FE060E045E00E949F214C9906C0D0
:102A600080911F02811102C043E001C041E088E073
:102A700063E00E94AC21812F880F810F8B5F63E0A0
:102A80000E94E62581E061E00E94761F8091AC0300
:102A9000823009F1833041F1813009F6113021F0A3
:102AA000123009F0BCCF10C08091AF0381110E9499
:102AB0002C2C4C9904C081E08093B10302C00E9489
:102AC000192C0E94282CABCF4C9991C080911F02E9
:102AD00081118DC0A4CF80911F028111A0CF13302E
:102AE00008F09DCF1F5F9BCF80911F02811197CF70
:102AF000112309F494CF115092CF0E946420BBCBD4
:102B00008091B00381110EC08091AF0381110E94AA
:102B10002C2C80911F02811102C04C997EC05E98BE
:102B20005F9A02C05E9A5F989091B00381E0892716
:102B30008093B00384EF91E00E94E11F9CCB80E082
:102B40006E2D40E20E94AC2142E04E1508F493CB7A
:102B5000E39491CB80E06E2D40E20E94AC21EE2008
:102B600009F489CBEA9487CB0E946420C65BDF4FCF
:102B7000E0E10C94B9320E94192C23CD40911E0241
:102B800050E041595F4F80910001480F511D83E093
:102B9000652F20E030E000E010E00E94082584E688
:102BA0000E944A1F0E94192C84E60E944A1F24CECC
:102BB00084E60E944A1F8BE40E94802587598093F7
:102BC000000142CE8091AF0381110E942C2C809194
:102BD0001F02882339F05E9810921F028DE00E9438
:102BE0009C25FACDB0921F020E94A925F5CD8091B7
:102BF000AF0381110E942C2C80911F02882339F091
:102C00005E9810921F028DE00E949C2508CF81E003
:102C100080931F020E94A92502CF0E94192C7FCF0A
:102C2000A0E0B0E0E6E1F6E10C94A5326C017A0197
:102C30008B01C0E0D0E0CE15DF0589F0D8016D91A1
:102C40008D01D601ED91FC910190F081E02DC6013E
:102C50000995892B11F47E0102C02196ECCFC701A2
:102C6000CDB7DEB7E8E00C94C1322091BA023091C2
:102C7000BB022817390771F49091B8028091B9020C
:102C8000981741F0E091B802F0E0E159FD4F8081E2
:102C900090E008958FEF9FEF089508951F93CF93CD
:102CA000DF93DC015C962D913C915D9721153105F8
:102CB00039F481E090E013969C938E9312973DC077
:102CC0005196ED91FC91529750969C915097892F77
:102CD00080951FB75E964C915E9741FB772770F900
:102CE00041FD6095F8944081772311F0492B01C094
:102CF00048234083E9012197F1F748E0508160FFC4
:102D000002C0592B01C058235083E9012197F1F7E4
:102D10006695415099F7772321F09081892380832C
:102D200003C08081982B90831FBF5C968D919C91EE
:102D30005D970197F1F721E030E0C901DF91CF9174
:102D40001F9108952091BA023091BB0228173907CC
:102D500071F48091B9022091B80290E0805C9F4F9D
:102D6000821B910960E470E00E94A733089580E01F
:102D700090E008952091BA023091BB0228173907DC
:102D8000B9F49091B8028091B902981789F0E09156
:102D9000B802F0E0E159FD4F80812091B80230E0A7
:102DA0002F5F3F4F2F7333272093B80290E0089591
:102DB0008FEF9FEF089585ED8093BC008091BC005C
:102DC00084FDFCCF10922603089540914A02262FDD
:102DD00030E0240F311D21323105DCF4209126032F
:102DE0002430C9F4FC0180E090E0861758F430915B
:102DF0004A022191DC01A85DBD4FA30FB11D2C93A8
:102E00000196F3CF80914A02680F60934A0280E0F6
:102E1000089581E0089582E008950895E0919A036D
:102E200080919903E81730F4F0E0E752FD4F80817C
:102E300090E008958FEF9FEF089590919A0380910D
:102E40009903981750F4E92FF0E0E752FD4F2081E5
:102E500030E09F5F90939A0302C02FEF3FEFC901CC
:102E600008958091990390E020919A03821B910923
:102E70000895A0E0B0E0EFE3F7E10C94A5327C0107
:102E8000972F8A0180912703882391F0C62FD72F8F
:102E90006E01C40ED51ECC15DD0571F06991D70108
:102EA000ED91FC910190F081E02DC7010995F3CFE0
:102EB000862F642F0E94E516C801CDB7DEB7E8E083
:102EC0000C94C132A1E0B0E0E8E6F7E10C94AB323B
:102ED0006983209127032223D1F020919703203288
:102EE00040F021E030E0FC013383228380E090E079
:102EF00015C080919803E82FF0E0E85DFC4F9981C0
:102F000090838F5F809398038093970305C0CE01D1
:102F1000019661E00E94E51681E090E02196E2E0F2
:102F20000C94C732A1E0B0E0E8E9F7E10C94A932D3
:102F300089830E94282820917B0330917C03A9017A
:102F40005B7F8981811106C0397F30937C03209398
:102F50007B0306C0CA01926090937C0380937B033D
:102F600080917B0390917C03916090937C0380938C
:102F70007B030E9406280E94282880918B03909151
:102F80008C0396FFF8CF0E94282800918B031091A4
:102F90008C030027107280917B0390917C039E7FAD
:102FA00090937C0380937B030E9406280E9428282C
:102FB00020918B0330918C03C9018827907436FDD2
:102FC000F5CF0115110549F40E94282880918D0341
:102FD00090918E03937085599C4F2196E4E00C9458
:102FE000C532A1E0B0E0E7EFF7E10C94AA32182F68
:102FF00087E599830E943C248BE993E069810E94D4
:1030000062178BE993E0612F0E9462170E94DF2311
:1030100087E590E061E070E00E94BD248BE993E0D9
:103020000E941D172196E3E00C94C63290E0FC014B
:10303000E75AFB4F3491FC01EB5BFB4F2491FC0101
:10304000EF5CFB4FE491EE2309F43BC0332339F1ED
:10305000333091F038F43130A9F0323001F584B5D5
:103060008F7D12C0373091F03830A1F03430B9F490
:10307000809180008F7D03C0809180008F77809346
:1030800080000DC084B58F7784BD09C08091B000E9
:103090008F7703C08091B0008F7D8093B000F0E007
:1030A000EE0FFF1FE35EFB4FA591B4918FB7F8942D
:1030B000EC91611103C020952E2301C02E2B2C937F
:1030C0008FBF0895CF93DF9390E0FC01EB5BFB4F44
:1030D0002491FC01EF5CFB4F8491882361F190E027
:1030E000880F991FFC01E356FC4FC591D491FC0158
:1030F000E35EFB4FA591B491611109C09FB7F894AD
:103100008881209582238883EC912E230BC0623026
:1031100061F49FB7F8943881822F80958323888348
:10312000EC912E2B2C939FBF06C08FB7F894E881AB
:103130002E2B28838FBFDF91CF9108958E3008F01A
:103140008E508770806480937C0080917A008064C8
:1031500080937A0080917A0086FDFCCF8091780080
:103160002091790090E0922B0895789484B5826044
:1031700084BD84B5816084BD85B5826085BD85B51B
:10318000816085BDEEE6F0E0808181608083E1E8CA
:10319000F0E0108280818260808380818160808302
:1031A000E0E8F0E0808181608083E1EBF0E0808105
:1031B00084608083E0EBF0E0808181608083EAE7D7
:1031C000F0E0808184608083808182608083808160
:1031D000816080838081806880831092C10008951F
:1031E0002FB7F8946091B4027091B5028091B60245
:1031F0009091B7022FBF08958F929F92AF92BF9286
:10320000EF92FF920F931F93CF93DF937C010E9465
:10321000F0184B015C0124EF820E21E0921EA11CEC
:10322000B11CC0E0D0E000E010E00E94F01868158A
:1032300079058A059B0598F02196CC0FDD1FCC0FF0
:10324000DD1FCE0DDF1D1882DF91CF911F910F91F1
:10325000FF90EF90BF90AF909F908F9008950830AF
:10326000110554F70E94282880918B0390918C03BC
:1032700097FF27C0E0919103F0919203CF01882737
:10328000987F81159042D1F4EF70FF27EC17FD076E
:103290001CF00F5F1F4FEF018091930390919403F7
:1032A000EE0FFF1FEE0FFF1FEE0DFF1D90838183BA
:1032B00080919503909196039283838388E290E0B6
:1032C00002C08EE190E00E946326AFCF8F929F9262
:1032D000AF92BF92DF92EF92FF920F931F93CF9323
:1032E000DF9300D000D0CDB7DEB77C010E94F0188C
:1032F0004B015C0128EE820E23E0921EA11CB11C42
:1033000019821A821B821C8200E010E0DD24D39413
:103310000E94F018681579058A059B05F8F40E944B
:10332000282880918B0390918C0397FF35C0809162
:10333000910390919203FC01E370FF27A1E0B0E0BC
:10334000AC0FBD1FAE0FBF1F2C912223A1F088E24E
:1033500090E00E94632604301105D0F20E94F0181C
:10336000681579058A059B0518F0F701108217C0CA
:10337000F701108614C0843F914048F7DC920F5F3C
:103380001F4F8091950390919603EE0FFF1FEE0D56
:10339000FF1D90838183DBCF8EE190E0DACF0F9029
:1033A0000F900F900F90DF91CF911F910F91FF9091
:1033B000EF90DF90BF90AF909F908F9008951F92F5
:1033C0000F920FB60F9211242F933F938F939F93D9
:1033D000AF93BF938091B4029091B502A091B602D1
:1033E000B091B7023091B30223E0230F2D3720F4C0
:1033F0000196A11DB11D05C026E8230F0296A11D4F
:10340000B11D2093B3028093B4029093B502A093B0
:10341000B602B093B7028091AF029091B002A09132
:10342000B102B091B2020196A11DB11D8093AF020D
:103430009093B002A093B102B093B202BF91AF914A
:103440009F918F913F912F910F900FBE0F901F90E2
:1034500018951F920F920FB60F9211242F933F933E
:103460004F935F936F937F938F939F93AF93BF938C
:10347000EF93FF93E091BA02F091BB02309709F409
:1034800051C0968DA685B785858591FF04C09C9116
:10349000892329F447C09C91892309F043C0A3895B
:1034A000B4899C918589809589238C938689978995
:1034B0000197F1F7608D718DA685B785558538E048
:1034C00020E0CB010197F1F7822F90E09595879549
:1034D000282F4C91452309F02068315091F7868DB3
:1034E00081FD20958091B90290E001968F73992714
:1034F0003091B802381749F0A091B902B0E0A15953
:10350000BD4F2C938093B90203C0868D8160868F56
:10351000828D938D0197F1F7A389B4899C91858958
:10352000892B8C93FF91EF91BF91AF919F918F91D8
:103530007F916F915F914F913F912F910F900FBEAF
:103540000F901F901895E091BA02F091BB02E81716
:10355000F90769F4A389B4899C91858980958923A9
:103560008C931092BB021092BA0281E0089580E021
:1035700008951092640310926303109262031092F4
:1035800061031092600310925F038DE991E09093C4
:1035900066038093650390915503963108F057C0F8
:1035A0002DEB30E03093600320935F032BE931E093
:1035B00030936203209361032CE231E03093640383
:1035C0002093630320916800983050F031E09E30E2
:1035D00008F430E081E001C0880F3A95EAF701C0B5
:1035E00084E0822B80936800983038F09E3040F061
:1035F000963148F020E030E008C02DE630E005C00C
:103600002BE630E002C02CE630E030935D032093DF
:103610005C03983030F481E001C0880F9A95EAF796
:103620000EC0292F30E09E3018F42850310902C016
:103630002E50310981E001C0880F2A95EAF7809366
:103640005E0380916503909166030197F1F7809185
:10365000630390916403892B21F18091BA029091C8
:10366000BB0223E089349207E1F0009711F00E9439
:10367000A31A809167038E7F809367031092B9022B
:103680001092B80289E493E09093BB028093BA024F
:10369000E0915C03F0915D03908180915E03892B42
:1036A000808308951F920F920FB60F9211242F93CB
:1036B0003F934F935F936F937F938F939F93AF93BA
:1036C000BF93EF93FF938091B900887F803609F410
:1036D0009CC068F5883209F45BC090F4803109F42D
:1036E00054C038F4882309F4F6C0883009F44DC07A
:1036F000F6C0883109F44CC0803209F45DC0EFC0D7
:10370000803409F468C048F4803309F455C0883324
:1037100009F0E5C080932403D8C0803509F44FC078
:10372000883509F45DC0883409F0D9C0D6C088391D
:1037300009F4C7C0A8F4883709F467C038F488369C
:1037400009F463C0803709F460C0C9C0883809F43F
:10375000B8C0803909F45FC0803809F0C0C05BC0D0
:10376000803B09F486C038F4803A09F466C0883A90
:1037700009F47FC0B4C0803C09F4A7C0883C09F4B8
:10378000A4C0883B09F48AC0AAC08091010310C07C
:103790009091230380912203981770F5E091230301
:1037A00081E08E0F80932303F0E0EE5FFC4F808179
:1037B0008093BB0085EC86C0809324038EC0E0918B
:1037C000230381E08E0F809323038091BB00F0E000
:1037D000EE5FFC4F808390912303809122036EC0A3
:1037E000E091230381E08E0F809323038091BB003F
:1037F000F0E0EE5FFC4F80838091250381116DC066
:1038000081E08093000384EA61C083E08093260313
:1038100010926E02CFCF80916E02803208F051C0BC
:10382000E0916E0281E08E0F80936E028091BB006A
:10383000F0E0E25BFD4F8083BDCF85EC8093BC0060
:103840001092260380916E02803230F4E0916E0275
:10385000F0E0E25BFD4F108260916E0270E0E0915B
:103860004C02F0914D028EE492E0099510926E02A6
:1038700036C084E08093260310924B0210924A02D5
:10388000E0914802F0914902099580914A02811124
:1038900005C081E080934A0210922802E0914B0219
:1038A00081E08E0F80934B02F0E0E85DFD4F808158
:1038B0008093BB0090914B0280914A02981708F4C4
:1038C00079CF85E88093BC000AC085EC8093BC006A
:1038D0001092260304C0109224030E94DB16FF916D
:1038E000EF91BF91AF919F918F917F916F915F9178
:1038F0004F913F912F910F900FBE0F901F901895F1
:103900001092260381E0809325031092000382E148
:1039100061E00E94161883E161E00E941618E9EB4D
:10392000F0E080818E7F808380818D7F808388E43A
:103930008093B80085E48093BC000895A0E0B0E0D7
:10394000E4EAFCE10C949C32382E962E842EF90188
:1039500084E6E816F1042CF082EBE81A87E0F80A16
:1039600003C08EE1E80EF11CE092270200932602CC
:10397000E09325023092230290922202809221024B
:10398000AE2DB0E020E833E341EE51E00E948832F2
:103990002B013C0122EB37E0FF2484E6C82ED12C1A
:1039A000C0E9D1E0C901825B97408E159F05DCF428
:1039B000C90183709927892B99F4C901B6010E9426
:1039C000A733892B31F4C901BE010E94A733892B8B
:1039D00039F480E8480E81E5581E81E0681E711CAC
:1039E0002F5F3F4FDFCF8EE4E81A88EFF80AC70158
:1039F00064E670E00E94A7336C01C70160E971E0E2
:103A00000E94A7335C01C1E0D0E0112783E0E822E7
:103A1000FF24C017D1072CF5C230D10589F4E11479
:103A2000F10471F4C114D10419F4A114B10441F4E6
:103A300080E8480E8BE3581E86E2681E711C0FC09A
:103A4000DE01A855BE4FAC91B0E020E831E541E081
:103A500050E00E948832460E571E681E791E21963D
:103A6000D8CF292D30E0ACE3B0E00E94D2326B0118
:103A70007C01C80CD11CE11CF11C232D30E0A0E11D
:103A8000BEE00E94D232C60ED71EE81EF91EDF012C
:103A9000BB27119720E831E541E050E00E949332C6
:103AA000DC01CB018C0D9D1DAE1DBF1DBC01CD01E8
:103AB000640D751D861D971D0E94DC29CDB7DEB7EC
:103AC000E1E10C94B83283FD02C098E001C098E2B5
:103AD0008770892B98E10FB6F894A89590936000B1
:103AE0000FBE80936000A8958091600080648093F1
:103AF00060008091C102882319F083B7817F0BC0D9
:103B00008091BC02882321F083B7817F846003C049
:103B100083B7817F8C6083BF83B7816083BF85B7A4
:103B2000806685BF8F7D85BF8091640081608093B2
:103B30006400889583B78E7F83BF0FB6F894A895ED
:103B400080916000886180936000109260000FBED9
:103B5000809160008F7B80936000809164008E7FF5
:103B6000809364000895CF938091D8028823E9F16F
:103B70008091D7029091D6022091FB02981730F4E1
:103B8000C1E0821768F0291758F009C0891738F486
:103B9000C0E0821728F4291718F4C1E001C0C0E082
:103BA000891310C05091D5023091D402351738F0E6
:103BB0004091FA02451718F0341708F0C1E03817A1
:103BC00008F4C1E0281307C03091FA028091D502B1
:103BD000381708F0C1E0291309C09091FA028091CA
:103BE000D402981718F4C1E001C0C0E08091D3025C
:103BF000C81749F0CC2311F087E401C086E60E9483
:103C0000EC2BC093D3028C2FCF910895CF93C82F64
:103C100081E061E00E94E62584E194E00E94422672
:103C20008C2F6AE070E00E94EF278AE30E948826CA
:103C300080E20E948826EC2FF0E0EE0FFF1FEA5E84
:103C4000FD4F6081718180E090E00E9402312DEC97
:103C50003CEC4CEC5DE30E94633142E00E94192988
:103C6000CF910895CF93DF930E946A2BC9EFD2E0E2
:103C700089830E94032A0E948D2A809123028A83CD
:103C8000DF91CF9108958091FE029DEF980F9830BB
:103C900008F06DC09CEF980F963008F466C0833032
:103CA00089F52091FD024091D1025091D20235E078
:103CB000349FC001359F900D112497FD0396959573
:103CC000879595958795049667E070E00E94A733E5
:103CD0004FE150E0BA01681B790B38E1369FA00133
:103CE000379F500D11244F5F5F4F8091FB0278E1A9
:103CF000279F90011124280F311D81E0421753079F
:103D0000BCF135C08A3099F52091FD024091D10275
:103D10005091D20235E0349FC001359F900D11249F
:103D200097FD03969595879595958795019667E0FC
:103D300070E00E94A7334FE150E0BA01681B790B95
:103D400038E1369FA001379F500D11244F5F5F4F20
:103D50008091FB0278E1279F90011124280F311DEB
:103D600081E04217530724F402C081E0089580E007
:103D70000895EF92FF920F931F93CF93DF9388E6FE
:103D80000E943C248BE993E060E00E9462170E944D
:103D9000DF2388E690E067E070E00E94BD248BE9B5
:103DA00093E00E941D17C9EFD2E0982F9695969543
:103DB00096959E70292F220F220F920F8F70890FD8
:103DC00088838BE993E00E941D17982F92959F702E
:103DD0008F702AE0929F800D112489838BE993E0F4
:103DE0000E941D17982F9695969596959670292F57
:103DF000220F220F920F8F70890F8A838BE993E035
:103E00000E941D17982F92959F708F702AE0929FA5
:103E1000800D11248B838BE993E00E941D17982F4E
:103E200092959F708F702AE0929F800D11248C8351
:103E30008BE993E00E941D17982F92959F708F70C9
:103E40002AE0929F800D11248D838BE993E00E94DC
:103E50001D17982F9F70925E82958F70E92E2AE031
:103E6000829FE00C1124EE828A81698170E0488192
:103E700050E02C8130E00D8110E0F12C9EE4E91A35
:103E800098EFF90A90E00E949E1CCDB7DEB7E6E0FD
:103E90000C94C332CF93C82F8091C102882329F09C
:103EA00080916400806280936400C7FF04C083E057
:103EB0000E94631DC857C03420F082E00E94631D39
:103EC000CC53C03220F081E00E94631DCE51C0313E
:103ED00018F080E00E94631D8091C102882321F0C8
:103EE0008091640010926400CF910895CF92DF9288
:103EF000EF92FF921F93CF93DF93C82FD62F0E948C
:103F0000F0186B017C0120E6C20E2AEED21EE11CE5
:103F1000F11C1092AC0314E09091AC03911115C008
:103F20008C2F0E94B82D8093AC03D11104C088E778
:103F30000E944A1FF1CF0E94F018C616D706E80665
:103F4000F90650F71093AC03E7CF82E30E944A1FB3
:103F5000DF91CF911F91FF90EF90DF90CF90089568
:103F60008F929F92AF92BF92CF92DF92EF92FF9289
:103F70006C010E94F0184B015C01E12CF12C0E94B5
:103F8000F018DC01CB0188199909AA09BB098C1525
:103F90009D05AE05BF0528F481E00E94B82D843050
:103FA00071F781E00E94B82D843011F48093AC0346
:103FB000FF90EF90DF90CF90BF90AF909F908F9049
:103FC00008950E9463260895A0E0B0E0EAEEFFE1C4
:103FD0000C94A132962F3FB7F8944091AF025091C4
:103FE000B0026091B1027091B20226B5A89B06C0E2
:103FF0002F3F21F04F5F5F4F6F4F7F4F3FBF762FB7
:10400000652F542F4427420F511D611D711DE2E0A1
:10401000440F551F661F771FEA95D1F7EA01CC0FB1
:10402000DD1FCC0FDD1F4C275D27EA01CC0FCD2F04
:10403000CC1FDD0BD195C427D5277E01F694FE2C2D
:10404000EE24F794E794082F10E0692F70E0601BCE
:10405000710B072E000C880B990B0E94043120E88D
:1040600030E040E857E30E9463314B015C01CE250C
:10407000DF25BE0180E090E00E9402319B01AC018F
:10408000C501B4010E9463316B017C01B801110FBD
:10409000880B990B0E9404319B01AC01C701B6014A
:1040A0000E94E2320E944E33862FCDB7DEB7ECE09D
:1040B0000C94BD3280E090E00E94702881E08093F3
:1040C000BC021092C10208950F931F93CF9301E099
:1040D00011E0C0E08C2FB8010E941D26CF5F085F61
:1040E0001F4FC830B9F7CF911F910F91089581E00C
:1040F00061E00E94E6258BEE93E00E94422682E377
:104100000E944A1F08958FEE0E94882687EE93E052
:104110000E944226089582EE93E00E94422608956E
:1041200080E30E94882608950E94032A0E948D2A17
:104130008091270290E08E54984F9093D202809302
:10414000D1020E94032A0E948D2A80912502809329
:10415000FD020E94032A0E948D2A809126028093EC
:10416000FE0280E063E00E94E6250E94032A0E948E
:104170008D2AE0912402F0E0EE0FFF1FEC5FFB4F71
:104180006591749185EC92E00E94F33088E693E0AB
:1041900065EC72E00E94782F8AE063E00E94E625D9
:1041A0008091FD028A3010F40E9490208091FD02DF
:1041B0006AE070E00E94EF278EE20E9488268091DC
:1041C000FE028A3010F40E9490208091FE026AE084
:1041D00070E00E94EF278EE20E9488268091D10233
:1041E0009091D2020E94D7268091CF029091D00266
:1041F0000A9724F482E160E00E94E6250895A0E099
:10420000B0E0E5E0F1E20C94A3325B01142FE90188
:104210009C0140E050E060E079E08DE390E00E9496
:10422000693269017A0181E0C81AD108E108F10810
:10423000C114D104E1E0EE06F10458F0CD2CDE2CDF
:10424000EF2CFF24F1E0CF1AD108E108F10804E0D7
:1042500001C001E0A114B10449F00E94F0186A0DF8
:104260007B1D7093BA036093B90306C08FEF9FEF75
:104270009093BA038093B9038091B603811122C051
:10428000E0E5F4E084918093B6036CE374E0FB0115
:104290009491E92FF0E0EE0FFF1FE35EFB4F2591B5
:1042A00034913093B8032093B703FB016491E62F58
:1042B000F0E0EE0FFF1FE356FC4FA591B491EC9197
:1042C0008E2B8C93D0928700C092860080918400C0
:1042D00090918500A0E0B0E0C816D906EA06FB067A
:1042E00020F4D0928500C092840000610093810088
:1042F00080E18093800080916F00826080936F00E6
:10430000111104C0CE010E94E11F07C08091AC03CF
:10431000843019F0CE010E94B01FCDB7DEB7EAE0BD
:104320000C94BF32BC0180E00E941D260E94DE2555
:1043300080E00E94882680E20E9488260895CF931C
:10434000C42F0E94E625CC2329F080E20E94882613
:10435000C150F9CFCF910895A1E0B0E0E2EBF1E2D6
:104360000C94AB3249830E94E6254981842F0E9438
:1043700088262196E2E00C94C732CF930E94321E29
:104380000E94B31D8093C4028091FB028A3018F40E
:1043900081E060E005C06AE00E948733682F81E019
:1043A0000E9400278091FB02CAE06C2F0E94873395
:1043B00084E0692F0E94002787E06AE00E940027BE
:1043C0008091FA028A3018F48AE060E005C06C2F10
:1043D0000E948733682F8AE00E9400278091FA02AA
:1043E0006AE00E9487338DE0692F0E94002781E1F7
:1043F00061E043E00E949F2181E161E00E94E625A7
:104400008091C302811104C08091C202811103C056
:1044100088E70E9488268091C102882319F084E4ED
:104420000E9488268091D802882349F08091C40296
:10443000882311F08EE401C08EE60E9488268091C8
:10444000C002882341F083E062E00E94E62588EF05
:1044500093E00E94422681E162E043E00E949F21B6
:1044600081E162E00E94E6258091BF02882319F075
:1044700084EF0E94882680911F02882319F080E72C
:104480000E9488268091BE02882319F083E50E944D
:1044900088268091B103811108C08091B0038111F9
:1044A00004C08091AF03882319F080E50E9488261C
:1044B00086E00E949E189093D0028093CF02C4E0C1
:1044C0008AE00E944A1F86E00E949E182091CF0237
:1044D0003091D002820F931F9093D0028093CF022D
:1044E000C15071F765E070E00E94A733072E000C01
:1044F000880B990B0E94043120E030E040EA5BE336
:104500000E94633126E636E646E350EC0E94E23232
:104510002CE938ED49E952E40E9463310E944E33A0
:104520001616170634F4643671052CF063E670E055
:1045300002C061E070E0CB01072E000CAA0BBB0BA0
:104540009C01AD016A337105A4F029533109410979
:104550005109ABE5B0E00E9488322AE230E040E049
:1045600050E00E946932DA01C9010896A11DB11D0F
:1045700013C02150310941095109A7E0B0E00E9460
:10458000883227E330E040E050E00E946932DA01EF
:10459000C9010196A11DB11D9093D0028093CF0255
:1045A00081E160E00E94E6258091CF029091D002E7
:1045B0000A9744F481E160E040E20E94AC210E944D
:1045C000132602C00E940A268091CF029091D00249
:1045D0000E94D7268091BD02882311F08BE201C092
:1045E00085E20E94882682E160E00E94E625CF9164
:1045F00008950E94DE250E9464200E9494200E945B
:10460000BD2108958F929F92AF92BF92CF92DF9279
:10461000EF92FF92CF93DF936B017C010E94F01821
:104620004B015C0189E493E00E94A216EC01892B06
:1046300069F40E94F018AB01BC01481959096A09D4
:104640007B094C155D056E057F0560F3CE01DF919A
:10465000CF91FF90EF90DF90CF90BF90AF909F9061
:104660008F90089510929E0310929D0388EE93E020
:10467000A0E0B0E080939F039093A003A093A103D8
:10468000B093A20329EC31E030939C0320939B0369
:1046900025E02093740322E12093750323E1209306
:1046A000760310926B0310926A0329EF31E0309386
:1046B00069032093680310926C0324E12093710333
:1046C00024E02093720328E02093730310924C039C
:1046D00010924B0380934D0390934E03A0934F038E
:1046E000B093500389ED91E090934A03809349037E
:1046F0001092600310925F031092620310926103A4
:104700001092640310926303109266031092650383
:10471000609167036E7F6D7F60936703669561703C
:1047200081E0682783E00E94161883E061E00E9420
:104730006218E8E4F4E0E491E0935903E4E3F4E080
:10474000E491F0E0EE0FFF1FE35EFB4F8591949143
:1047500090935B0380935A0382E060E00E946218AA
:104760008091670381FD04C082E061E00E94161819
:1047700082E080935503E7E4F4E0E491E09356038C
:10478000E3E3F4E0E491F0E0EE0FFF1FE95DFB4F9F
:1047900085919491909358038093570389EE91E00B
:1047A00090934A038093490310929A0310929903BD
:1047B00010929803109297030E94801C0895909184
:1047C000480320919703213208F04AC080912603C4
:1047D0008111FCCF32E03093260331E03093250382
:1047E0003FEF309324031092230320932203A8E287
:1047F000B3E042E053E0FA013E2F341B321718F4C5
:104800003D913193F9CF1092010320910103990F4B
:10481000922B9093010390910003913061F41092D8
:104820000003909101039093BB009091BC0093FD15
:10483000F8CF95EC01C095EE9093BC0090912603C3
:104840009230E1F3909124039F3F79F0809124030B
:10485000803241F080912403803331F084E005C040
:1048600081E003C082E001C083E0109298031092BF
:10487000970310922703089591E090932703809364
:104880004803109298031092970308950F931F9373
:10489000CF9388E60E943C248BE993E060E00E947D
:1048A000621709EF12E0F8018081CAE06C2F0E94C4
:1048B0008733692FF0E18F9F600D11248BE993E01E
:1048C0000E946217F80181816C2F0E948733692F43
:1048D000F0E18F9F600D11248BE993E00E94621735
:1048E000F80182816C2F0E948733692FF0E18F9F3E
:1048F000600D11248BE993E00E946217F801838117
:104900006C2F0E948733692FF0E18F9F600D112477
:104910008BE993E00E946217F80184816C2F0E945A
:104920008733692FF0E18F9F600D11248BE993E0AD
:104930000E946217F80185816C2F0E948733692FCE
:10494000F0E18F9F600D11248BE993E00E946217C4
:10495000F80186818E516C2F0E948733692FF0E118
:104960008F9F600D11248BE993E00E9462170E94D3
:10497000DF23CF911F910F910895909126039111FC
:10498000FCCF613208F060E291E0909326039093AF
:1049900025032FEF2093240310922303260F209347
:1049A00022039093010390910103880F892B809338
:1049B000010380910003813061F410920003809123
:1049C00001038093BB008091BC0083FDF8CF85EC90
:1049D00001C085EE8093BC00809126038130E1F315
:1049E00080912303861710F460912303A2E0B3E0C3
:1049F00029ED32E0F9018E2F821B861718F48D9174
:104A00008193F9CF10929A0360939903862F0895AA
:104A1000A0E0B0E0EEE0F5E20C94A532E82EC62E60
:104A2000D42EE901EDEFE80FE03128F4F0E0EB548B
:104A3000FE4FF08001C0F12C6AE070E080E090E071
:104A40000E940223892B29F089E493E00E94BA1680
:104A5000F3CF89E493E06EE70E944E1689E493E079
:104A600062E06F0D0E944E1689E493E06E2D0E9465
:104A70004E16FF2069F089E493E06C2D0E944E16DB
:104A800082E0F81205C089E493E06D2D0E944E1675
:104A900089E493E06FEE0E944E16209749F00115CD
:104AA000110531F0CE0160E070E0A8010E94C13331
:104AB00068EE73E080E090E00E940223E12CF12C8C
:104AC0000150110962E370E080E090E00E9402234F
:104AD000892B89F089E493E00E94BA16209791F31C
:104AE000E016F10678F7FE01EE0DFF1D8083C70189
:104AF00001967C01E7CFCDB7DEB7E8E00C94C13278
:104B0000A5E0B0E0E6E8F5E20C94A93260E040E010
:104B10009E012F5F3F4F05E010E00E940825CE0167
:104B2000019660E070E040E150E00E94D82FCB0198
:104B30002596E4E00C94C5320F931F9360E040E0AB
:104B400020E030E000E010E00E9408251F910F9166
:104B500008958EE00E949C2508950F931F93682F5F
:104B600081E140E020E030E000E010E00E94082514
:104B70001F910F9108951092730388E693E060E00F
:104B80000E948E2F089588E08093730388E693E057
:104B900060E00E948E2F0895CF93C82F682F607F0A
:104BA00088E693E00E94A82F80E1C89FB0011124FD
:104BB00088E693E00E94A82FCF91089581E00E949B
:104BC000CC258BE39FE10197F1F70895A8E0B0E0D1
:104BD000ECEEF5E20C94AB3298E0E1E9F1E0DE01B5
:104BE000119601900D929A95E1F7909170039617A6
:104BF00010F46FEF690FFE013196E60FF11DE60F1D
:104C0000F11D9081890F80680E94CC252896E2E0F2
:104C10000C94C732E8E6F3E086818E7F8683886055
:104C20000E94CC250895E8E6F3E08681982F9160F4
:104C3000968389600E94CC250895A2E0B0E0E3E26B
:104C4000F6E20C94A732877028E0829FC0011124FD
:104C5000806469837A830E94CC256981E62E7A81FB
:104C6000F72E8701085F1F4FF70161917F0188E6EA
:104C700093E00E94C12FE016F106B1F72296E6E01C
:104C80000C94C3320F931F93CF93DF938C01C0E03A
:104C9000D0E0F801EC0FFD1F6491662371F0E09104
:104CA0006803F09169030190F081E02D88E693E0BC
:104CB0000995892B11F02196ECCFCE01DF91CF9190
:104CC0001F910F9108958F929F92AF92BF92CF92B2
:104CD000DF92EF92FF926C010E94F0184B015C0191
:104CE000E12CF12C0E94F018DC01CB018819990904
:104CF000AA09BB098C159D05AE05BF0598F3FF9069
:104D0000EF90DF90CF90BF90AF909F908F900895DD
:104D1000682FE0916803F09169030190F081E02D24
:104D200088E693E0099508958F929F92AF92BF9283
:104D30000F931F93CF93DF93CDB7DEB7A1970FB635
:104D4000F894DEBF0FBECDBF19A2423008F44AE08E
:104D50008E010F5D1F4F842E912CA12CB12CA5012B
:104D600094010E944732E62FB901CA01015011098E
:104D7000EA3014F4E05D01C0E95CD801EC93232B28
:104D8000242B252B61F788E693E0B8010E94782F49
:104D9000A1960FB6F894DEBF0FBECDBFDF91CF91C5
:104DA0001F910F91BF90AF909F908F900895CF92D9
:104DB000DF92EF92FF92CF93DF936C01990FEE0891
:104DC000FF08F7FE11C08DE20E948826EC016627DD
:104DD0007727CB016C197D098E099F094AE00E9453
:104DE00094268C0F9D1F05C0C701B6014AE00E94A2
:104DF0009426DF91CF91FF90EF90DF90CF900895B0
:104E0000CF93C62F8093A8031092A70360E043E0DE
:104E10000E949F216091A7036F5F8091A80343E0E8
:104E20000E949F218C2F90E08D30910508F0D5C015
:104E3000FC01E759FF4F8091A8030C94BB336091AC
:104E4000A70340E00E94AC2181E067C06091A70306
:104E500041E00E94AC2182E00E9488266091A70375
:104E60006F5F8091A80344E00E94AC2187E014C0EA
:104E70006091A70346E00E94AC2186E00E9488264C
:104E800082E00E9488266091A7036F5F8091A8034B
:104E900043E00E94AC2184E00E94882684E09BC00D
:104EA0006091A70346E00E94AC2186E00E9488261C
:104EB00082E013C06091A70343E00E94AC2184E02C
:104EC0000E94882687E044C06091A70343E00E94C7
:104ED000AC2186E00E94882686E00E9488266091A8
:104EE000A7036F5F8091A80344E022C06091A703ED
:104EF00040E00E94AC2186E00E94882686E010C037
:104F00006091A70341E00E94AC2181E01EC0609146
:104F1000A70340E00E94AC2186E00E94882682E040
:104F20000E9488266091A7036F5F8091A80343E0E9
:104F30000E94AC2184E00E94882685E04CC06091EC
:104F4000A70340E00E94AC2186E00E94882682E010
:104F50000E9488268091A8036091A7036F5F8E5FEF
:104F600047E00DC08F5F6091A70344E00E94AC2131
:104F70008091A8036091A7036F5F8F5F44E00E9458
:104F8000AC212BC06091A70340E00E94AC2182E0DD
:104F90000E94882680E00E9488266091A7036F5FA8
:104FA0008091A80347E00E94AC2183E00E948826FC
:104FB00087E011C06091A70347E00E94AC2180E028
:104FC0000E9488266091A7036F5F8091A80347E045
:104FD0000E94AC2183E00E948826CF910895282F5B
:104FE000AB01672B61F4E0916803F09169030190D4
:104FF000F081E02D88E693E0622F09950895682FEF
:1050000070E080E090E00E94942608951F93CF9373
:10501000DF9380E10E943C24CBE7D3E018816981D3
:1050200022968BE993E00E9462178BE993E0612F4F
:105030000E94621783E0C738D80781F70E94DF23F8
:1050400091E0811190E0892FDF91CF911F91089518
:105050000F931F93CF93DF9380E190E060E270E0C5
:105060000E94BD248091990390E020919A03821BB5
:10507000910980329105ECF3CAE0D0E08BE993E02E
:105080000E941D178E01000F111F0C581C4FF801B4
:10509000138284838BE993E00E941D17F80123811A
:1050A0003481822B932B94838383C930D10539F0CB
:1050B0002196C031D10511F7C0E0D0E0DFCFDF91FC
:1050C000CF911F910F9108950E942828E4E7F3E003
:1050D000878190858064908787830E940628089541
:1050E000CF93DF93EC018AE061E00E946218209781
:1050F00019F48AE060E005C0CF3FD10529F48AE0C9
:1051000061E00E94161843C0E3E6F4E0E491E33066
:10511000F9F048F4E130B9F0E230A1F584B58062ED
:1051200084BDC8BD34C0E730E9F0E83019F1E4309F
:1051300049F580918000806280938000D0938B003D
:10514000C0938A0024C084B5806884BDC7BD1FC0D9
:1051500080918000806880938000D0938900C09304
:10516000880015C08091B00080688093B000C09323
:10517000B3000DC08091B00080628093B000C093F6
:10518000B40005C0C038D1050CF0B9CFB2CFDF9163
:10519000CF910895CF93DF93C4E7D3E0888161E096
:1051A0000E946218898161E00E946218898160E032
:1051B0000E941618888160E00E94161881E090E035
:1051C0000E946326888161E00E94161881E090E0C9
:1051D0000E94632610929A031092990310929803EA
:1051E000109297030E94801C0E94282880E091E87A
:1051F0009A8B898B0E94062884EF91E00E94632697
:105200000E94282881E090EC98878F838B859C856D
:1052100098619C878B878D859E858F619E878D8702
:105220000E9406288EE690E00E946326DF91CF91CF
:1052300008954F925F926F927F928F929F92AF925A
:10524000BF92CF92DF92EF92FF92CF93DF936B01E9
:105250007C01B42EA70196010E948233882329F095
:1052600088E693E06DEF71E00FC0C701B6019F774C
:105270002FEF3FEF4FE75FE70E947D3318163CF4B6
:1052800088E693E061E072E00E94782F86C0C70153
:10529000B6012FEF3FEF4FE75FE40E947D33181612
:1052A0002CF488E693E065E072E0EECFC701B6012A
:1052B0002FEF3FEF4FE75FEC0E94FD3087FDF1CF0E
:1052C000C701B60120E030E0A9010E94FD3087FF50
:1052D00009C08DE20E948826EC01F7FAF094F7F8F5
:1052E000F09402C0C0E0D0E0A12C60E070E080E06B
:1052F0009FE3AB1441F02DEC3CEC4CEC5DE30E94E1
:105300006331A394F6CFA70196010E94E2322B01EC
:105310003C010E944E336B017C010E9402319B01D3
:10532000AC01C301B2010E94E1322B013C01C70173
:10533000B6014AE00E949426C80FD91FBB2029F06D
:105340008EE20E948826C80FD91FFB2CFF2021F176
:10535000C301B20120E030E040E251E40E94633139
:105360002B013C010E944E334B01A12CB12CC501F5
:10537000B4014AE00E949426C80FD91FC501B401A8
:105380000E9402319B01AC01C301B2010E94E132D3
:105390002B013C01FA94DACFCE01DF91CF91FF903F
:1053A000EF90DF90CF90BF90AF909F908F907F90C5
:1053B0006F905F904F9008956093CB037093CC03F0
:1053C0008093CD039093CE03DC01CB01845D9E4F8F
:1053D000AF4FBF4F8093C7039093C803A093C903F7
:1053E000B093CA0382E090E09093C6038093C50314
:1053F0000E94F0186093C1037093C2038093C303AB
:105400009093C4030895CF92DF92EF92FF920F938F
:105410001F930E94F018C090C103D090C203E09087
:10542000C303F090C4038B019C010C191D092E09C4
:105430003F098091CB039091CC03A091CD03B09113
:10544000CE03083E134021053105D0F00196A11D81
:10545000B11D8093CB039093CC03A093CD03B09365
:10546000CE03B701A60148515C4F6F4F7F4F409369
:10547000C1035093C2036093C3037093C403C9CFA5
:105480004091C7035091C8036091C9037091CA034A
:1054900084179507A607B70788F1E091BF03F0913D
:1054A000C003309759F10995611571058105910582
:1054B00019F00E94DC2922C08091CB039091CC038B
:1054C000A091CD03B091CE03845D9E4FAF4FBF4FEF
:1054D0008093C7039093C803A093C903B093CA03F2
:1054E00081E090E02091C5033091C603232B11F495
:1054F00080E090E09093C6038093C5036091CB0356
:105500007091CC038091CD039091CE031F910F91A8
:10551000FF90EF90DF90CF900895A0E0B0E0E3E936
:10552000FAE20C949D324B015C018091BB03909197
:10553000BC03A091BD03B091BE0388169906AA06CC
:10554000BB0609F4C2C08CE3C82ED12CE12CF12C8F
:10555000C501B401A70196010E9447326093210260
:10556000CA01B901A70196010E9447326093220245
:10557000CA01B90128E130E040E050E00E94473222
:1055800069017A0160932302CA01B9016C5F7F4F00
:105590008F4F9F4F27E030E040E050E00E944732BD
:1055A0006F5F60932402412C512C320140E004E6ED
:1055B00010E0C0E9D1E0242F30E02E54384FF9013B
:1055C000E370FF27309789F4C901B8010E94A7331F
:1055D000892B31F4C901BE010E94A733892B29F41C
:1055E0008EE691E0A0E0B0E004C08DE691E0A0E09E
:1055F000B0E0480E591E6A1E7B1ED301C201AA27C5
:10560000BB27C816D906EA06FB0610F04F5FD3CFBA
:1056100040932702309799F4C90164E670E00E9434
:10562000A733892B39F4C90160E971E00E94A733DF
:10563000892B29F48EE691E0A0E0B0E004C08DE66D
:1056400091E0A0E0B0E0481A590A6A0A7B0AC4183F
:10565000D508E608F708C90164E670E00E94A733A0
:10566000EC01C90160E971E00E94A733A9EAB1E049
:1056700020E0213039F4309749F4209729F400973D
:1056800029F402C04C9103C04DE101C04CE150E04F
:1056900060E070E0C416D506E606F70640F0C41ACE
:1056A000D50AE60AF70A2F5F11962C3011F72F5F03
:1056B00020932602C394C09225028092BB0390924D
:1056C000BC03A092BD03B092BE03CDB7DEB7E0E14C
:1056D0000C94B9320E94032A0E948D2A80912202E2
:1056E00008951F920F920FB60F9211240F931F93DC
:1056F0002F933F934F935F936F937F938F939F93DA
:10570000AF93BF93EF93FF930E94F0182091B903DA
:105710003091BA03890120E030E0601771078207F9
:105720009307B8F080916F008D7F80936F0082E0C7
:105730008093810081E080938000E091B703F09135
:10574000B80390818091B60380958923808310925D
:10575000B603E091B703F091B80390818091B6034E
:1057600089278083FF91EF91BF91AF919F918F9196
:105770007F916F915F914F913F912F911F910F9169
:105780000F900FBE0F901F90189589ED91E09093A8
:105790004A038093490389E493E00E94A31A089581
:1057A0002091B4033091B503A901480F511DCA01DE
:1057B0000E94293208952091B4033091B503A901C4
:1057C000480F511DCA010E94213208955E9886E457
:1057D00090E00E94E11F0895A1E0B0E0E2EFFBE25B
:1057E0000C94A93289830E94E62B83E060E0498112
:1057F00020E030E000E010E00E94082584E60E94EE
:105800004A1F8091B303882319F081E00E94AD25DF
:105810008091B203882349F081E164E040E020E018
:1058200030E000E010E00E9408252196E4E00C94AE
:10583000C5320E94A92584E60E944A1F1092B20335
:105840001092B3031092B10384E00E94AD25089535
:105850005F981092B00308950E9464281092AF03DD
:105860000895CF93DF930E94CA288091AD03909151
:10587000AE032AE0289FE001299FD00D1124CE52CB
:10588000D2420E94282820917D0330917E03222756
:105890003E7F3068CE016AE070E00E949333262B91
:1058A000372B30937E0320937D030E9406280E94AD
:1058B000282880918B0390918C0396FFF8CF0E944B
:1058C000282880917D0390917E039F7790937E039B
:1058D00080937D030E9406280E94282880918B03D4
:1058E00090918C0396FDF8CFDF91CF910895CF93DF
:1058F000823009F477C038F4882321F1813009F02F
:10590000B8C0CAE060C0843009F48BC008F472C02B
:10591000853009F0AEC088E592E068EC70E041E0C7
:1059200028EC30E00E94FF2084EF91E068EC70E00A
:1059300041E028EC30E00E94FF2080E991E068EC33
:1059400070E092C086E091E06AEF70E041E02DE403
:1059500031E00E94FF2084EC90E06DE770E041E0D0
:1059600027EA30E00E94FF2084EC90E06DE770E0D1
:1059700041E027EA30E00E94FF208CED90E06AEFE2
:1059800070E041E02DE431E00E94FF2084EC90E0E3
:105990006AEF70E041E02AE932E00E94FF2087EFE1
:1059A00090E06AEF70E041E02DE431E00E94FF20DA
:1059B00086E091E06AEF70E041E02DE431E057C00D
:1059C000C15009F456C088EB91E062E370E041E019
:1059D00024E630E00E94FF208091AC03843081F700
:1059E000C0E0EECF88EB91E068EC70E041E024EF9E
:1059F00031E03DC088E592E064E670E041E024E6F5
:105A000030E00E94FF208CEB92E064E670E041E021
:105A100024E630E00E94FF2080E293E064E670E03C
:105A200023C088E592E060E570E041E024E630E0E4
:105A30000E94FF2080E991E060E570E041E024E60B
:105A400030E00E94FF2084EF91E060E570E041E0EB
:105A500024E630E00E94FF2080E991E060E570E0FC
:105A600041E028EC30E003C041E02CE231E00E944C
:105A7000FF20CF910895CF93DF93C82F0E94DE259A
:105A80008EE70E9488268DE694E00E9442268FE0F1
:105A900060E00E94E6250E941326C13019F480912F
:105AA000AB0302C08091AA036AE070E00E94EF2776
:105AB0000E94E62B81E08093A903D0E08091AC03A3
:105AC0008430F1F18FE060E00E94E62581E061E042
:105AD0000E94761F8091AC03813081F7C130A9F418
