:100000000C9431020C9459020C9459020C94931CD8
:100010000C94931C0C94931C0C94A62F0C945902D2
:100020000C9459020C9459020C9459020C9480219E
:100030000C9459020C9459020C9459020C945902D4
:100040000C94491C0C9459020C9459020C945902BA
:100050000C9459020C9459020C9459020C945902B4
:100060000C94011E0C9459027D0B800B820B840BA7
:10007000860B890B8B0B8D0B8F0B910B930BB40B9A
:10008000C10BD20BDE0B210C330C0B0C1C0CE90B3F
:10009000F50B070738104F1053108A10BC10CE1004
:1000A000A516AC16B916CC16D416DC16E116E31656
:1000B000E816EA16F41694189B18AD18C518CF1850
:1000C000D918EB18F518FC181419271937194F19F6
:1000D000BE24C024C324C524C724C724CA24CC24D6
:1000E000CE24D024ED24F424FB2409251E252C2520
:1000F0003A2548255C256A254269727468646179ED
:10010000004861707079005775737374657374205B
:1001100044752C20646173732E2E2E004920616D6E
:1001200020686572652100506C61792073746F726C
:100130006965730041555820696E70757400506C84
:100140006179206F776E2066696C657300506C6111
:100150007920726164696F005B205D204D5033002F
:100160005B205D20526164696F005B205D20546FED
:100170006E65005B6F66665D005B6F6E205D004DB7
:10018000503300526164696F00546F6E6500416CBA
:1001900061726D20746F6E65205B20202020205DD1
:1001A000004E657720616C61726D2074696D650029
:1001B0006F6666006F6E20003230004E69676874AB
:1001C0006D6F6465205B2020205D004E6577207494
:1001D000696D652F6461746500543A200042617452
:1001E000743A0020543A200052414D3A20200049F0
:1001F00032433A20002D32313039313700466972AE
:100200006D776172653A20006279204E696B6F6C80
:100210006169205261646B65004E4F4B4F206265EF
:100220006C6F6E677320746F004D79204E4F4B4F8B
:100230000044697374616E6365206C69676874203B
:100240005B205D0053696C656E74202020202020A7
:100250002020205B205D00506F77657220736176EF
:100260006520202020205B205D006D6F72652E2EA2
:100270002E0044697374616E6365202B2F2D205B03
:10028000205D004576656E74732020202B2F2D2075
:100290005B205D004C45442020202020202B2F2D6A
:1002A000205B205D00536574204E4F4B4F0053651B
:1002B0007420636C6F636B0053657420616C6172B2
:1002C0006D00506C617920736F6D657468696E673D
:1002D000005072657373206E6F73650020617566E0
:1002E0002056002055706461746520636F6D706CDA
:1002F0006574656400536174757264617900467257
:100300006964617900546875727364617900576536
:10031000646E657364617900547565736461790016
:100320004D6F6E6461790053756E6461790000737E
:100330006176696E672E2E2E20202020202020201E
:100340002020004765627572747374616721002E06
:10035000032703200318030E030503FE02F50253CF
:10036000746174696F6E20005B317C735D205B3259
:100370007C735D205B337C735D20005D5B3C5D5B6B
:10038000205D5B3E5D5B0000000000240027002A2A
:100390000000000008000201000003040700000044
:1003A00000000000005041555345004E6F204D5055
:1003B000337320666F756E640053746F7279005BDF
:1003C0003C5D5B205D5B205D5B3E5D0020416C61C0
:1003D000726D20746F6E65202B2F2D205B205D00C9
:1003E0006F6666006F6E2000756E74696C006672D1
:1003F0006F6D005B2020205D2044696D205B205DD7
:1004000000536574206E696768746D6F64650000E1
:10041000000000250028002B00000000002300261B
:100420000029000404040404040404020202020279
:1004300002030303030303010204081020408001A8
:10044000020408102001020408102020416C61728F
:100450006D20005072657373204E6F7365007E28A7
:10046000D42111241FBECFEFD8E0DEBFCDBF12E0F4
:10047000A0E0B1E0E8E4F8E602C005900D92A431F6
:10048000B107D9F723E0A4E1B2E001C01D92A33E79
:10049000B207E1F712E0C0E3D2E004C02197FE0109
:1004A0000E940A34CF32D107C9F70E94A0020C94EF
:1004B00017340C940000CF92DF92EF92FF920F93CB
:1004C0001F93E82FF92F05C00150110921093109A7
:1004D00061F1908196239417B9F305C00150110979
:1004E0002109310911F1908196239413F7CFC12C82
:1004F000D12CE12CF12C0AC08FEFC81AD80AE80AD7
:10050000F80A0C151D052E053F0579F0808186231C
:10051000841791F36C2D7D2D8E2D9F2D1F910F91A2
:10052000FF90EF90DF90CF90089560E070E080E062
:1005300090E01F910F91FF90EF90DF90CF90089582
:10054000A5E0B0E0E6EAF2E00C94EA32789484B5F3
:10055000826084BD84B5816084BD85B5826085BDBF
:1005600085B5816085BD80916E00816080936E004D
:10057000109281008091810082608093810080913F
:1005800081008160809381008091800081608093F0
:1005900080008091B10084608093B1008091B000B0
:1005A00081608093B00080917A00846080937A00AB
:1005B00080917A00826080937A0080917A008160D5
:1005C00080937A0080917A00806880937A001092FC
:1005D000C1001CBC80E880BF8FE380937E008091C7
:1005E00064008460809364008091640082608093E2
:1005F00064008091640080648093640088EE8AB90E
:100600008CE284B98EE387B980E48BB981E088B944
:1006100010929603109295031092940310929303F4
:1006200010929203109291038DE991E090939803B8
:100630008093970390918703963108F057C02DEB74
:1006400030E030939203209391032BE931E0309313
:100650009403209393032CE231E03093960320938C
:10066000950320916800983050F031E09E3008F4F6
:1006700030E081E001C0880F3A95EAF701C084E0DC
:10068000822B80936800983038F09E3040F096318D
:1006900048F020E030E008C02DE630E005C02BE651
:1006A00030E002C02CE630E030938F0320938E03BD
:1006B000983030F481E001C0880F9A95EAF70EC0B7
:1006C000292F30E09E3018F42850310902C02E50F6
:1006D000310981E001C0880F2A95EAF780939003E1
:1006E00080919703909198030197F1F7809195037A
:1006F00090919603892B21F1809181029091820241
:1007000023E08B379207E1F0009711F00E940D1D56
:10071000809199038E7F8093990310927F021092AB
:1007200080028BE793E09093820280938102E091B4
:100730008E03F0918F03908180919003892B8083A9
:100740008EE00E94E82A8CE00E94E82A84EF91E083
:100750000E94B02B86E06EE140E020E030E000E057
:1007600010E00E94542A84E00E94F52A0E94E519B4
:100770000E949D198091B3039091B403807F8A6099
:100780009093B4038093B3030E947B190E94D919FC
:1007900080E090E00E9470323EE1839FC00111240E
:1007A000909397028093960281E00E94F92191E054
:1007B000811101C090E09093230282E00E94F92110
:1007C0008093200283E00E94F92191E0811101C011
:1007D00090E09093240284E00E94F9218093DB034F
:1007E00085E00E94F9218093DA0386E00E94F921D6
:1007F0008093D90387E00E94F9218093040388E065
:100800000E94F9218093270289E00E94F9218093B8
:100810001F028AE00E94F92191E0811101C090E05D
:1008200090931E028BE00E94F92191E0811101C09A
:1008300090E090930A038CE00E94F92180930803D2
:100840008DE00E94F921809307038EE00E94F92138
:10085000809306038FE00E94F9218093050380E1D5
:100860000E94F92191E0811101C090E090931D0256
:1008700081E10E94F921182F82E10E94F921282F9D
:1008800030E0C9014AE0149F800D911D112490931E
:10089000900280938F0283E10E94F92180930303E9
:1008A00019E3E12E12E0F12E15E1812F0E94F921CA
:1008B000082F81E0810F0E94F921282F30E0C90123
:1008C0006AE0069F800D911D1124F7018193919399
:1008D0007F011E5F1B3149F78BE10E94F92191E0F6
:1008E000811101C090E090931C028CE10E94F921DB
:1008F00091E0811101C090E09093090387E560E0E9
:1009000070E00E94042280931B0287E561E070E0A2
:100910000E94042280931A021092000388E60E942B
:1009200088298DEC93E062EA71E00E94C72F0E9453
:100930002B2984E10E94A41388E60E9488298DEC6B
:1009400093E065EA71E00E94C72F0E942B290E9464
:10095000131380919E03882309F496C080919F030E
:10096000886080939F03B4E0FB2EF092A2038BE398
:100970009DE00197F1F78AE993E06091A5030E9459
:10098000DD2F8BEF98E00197F1F78AE993E060E3C0
:100990000E94F72F0BE416E4C8010197F1F78AE9EA
:1009A00093E060E30E94F72FC8010197F1F78AE90D
:1009B00093E060E30E94F72F83E592E00197F1F75F
:1009C0008AE993E060E20E94F72F80919F038062A2
:1009D0000E94142BF092A0030E94642B0E94262BED
:1009E00082E08093A10386E00E94142B82E00E94A3
:1009F000142B8BE39FE10197F1F70E94F72C84E120
:100A000090E00E947032182F8A3008F050C00E9487
:100A1000262B83EE92E00E944D2C83E061E046E5B8
:100A20000E942C2D80E090E00E94242C8EE20E94F7
:100A3000D52B812F6AE00E94D633892F90E00E9447
:100A4000242C8CED92E00E944D2C81E090E00E94DD
:100A5000242C8EE20E94D52B80E090E00E94242C72
:100A600084E064E00E942E2B81ED92E00E944D2CE8
:100A700084E190E06AE00E94783281E060E00E94C8
:100A800013150E94262B13C080E280939E03809151
:100A90009E03803408F062CF0E9488290E942B298F
:100AA000882309F45BCF80919E038F5FEECF0E9475
:100AB000292288E592E060E570E040E020E530E042
:100AC0000E94132F80E793E066E970E040E026E99A
:100AD00030E00E94132F5E9A0E9421120E94CE11D4
:100AE0008093380287E40E94CC2A90910003891BEE
:100AF0008F568093FF02F3E6FC8323E62B83CE011F
:100B000001961C010E94211287E00E94261C81325E
:100B1000934024F080912202882351F087E00E94C4
:100B2000261C8032934004F5809122028823E1F054
:100B30009091220281E089278093220287E00E941F
:100B4000261C8032934014F00C949C0F8091260256
:100B5000882311F40C949C0F80911E02882311F4B9
:100B60000C949C0F0E94E42C80912C032B8128175D
:100B700009F4A3C1809129028823E1F0809109033F
:100B80008823C1F080912102811114C080911E023E
:100B9000882339F080912202811103C00E94E42C45
:100BA00009C080912602811105C00E94032B81E0BB
:100BB000809326021092190280912D033C813817F0
:100BC00009F4E2C08091210281117AC00E943212A0
:100BD00090911A028091300398136EC090911B027D
:100BE00080912F03981368C081E080932502809143
:100BF0001802811165C080912902811161C062E7EC
:100C000071E00E948B2B8091910281110E94D91971
:100C10008091920281115F9880912302811107C017
:100C200080919302811103C08FE60E942F2280EDF4
:100C300097E00E94B02B0E947921082F0E94792111
:100C4000081721F04C9902C00C94B40F80918E02C9
:100C5000843011F40C94B40F0E94262B87E061E0DD
:100C60000E942E2B81E091E00E944D2C86E062E0F4
:100C70000E942E2B88EF90E00E944D2C81E065E0D1
:100C80000E946E2C182F112391F080E064E10E94E5
:100C90006E2C60E040E00E942C2D80E064E10E9418
:100CA0006E2C63E040E00E942C2D1150ECCF84EFBD
:100CB00091E00E94E22EC2CF1092180210922502FB
:100CC00010911D020E949D12181709F45DC08091B9
:100CD0002D03843008F458C0112311F40C94CB0F69
:100CE000815080932D0381E0D12ED826D0921D0211
:100CF00080912D0360912C0370E040912B0350E014
:100D000020912F0330E00091300310E0E090360294
:100D1000F090370290E00E944D1F80913602825B76
:100D2000809331030E94922980919602805F6D2DFD
:100D30000E94DF2100919602109197020E3D43E040
:100D4000140711F40C94CE0F025E1F4F91E0F92EA0
:100D5000F00E80919602890F9D830E94F921682FE1
:100D60008F2D0E94DF219D819F5F9E3181F710931F
:100D7000970200939602C8016EE170E00E94E23390
:100D800080E090E00E94783280912102811102C0BF
:100D90000E94D0138091290281118FC0809123027B
:100DA00081118BC080913402909135020A977CF4B6
:100DB0008091220281110BC00E94292288E993E0D0
:100DC00060E570E040E020E530E00E94132F4C9990
:100DD00074C080910103811170C0809191028111D2
:100DE0006CC0809134029091350202970CF465C07A
:100DF000E0911F02F0E0E655FE4F108161E0610FC7
:100E000081E00E946E2C811358C00C94D20F80E0B8
:100E100062E00E946E2C182F80E061E00E942E2B71
:100E200080E065E60E946E2C6AE0869FC001112476
:100E30000E94E823111106C08AE993E068EA71E094
:100E40000E94C72F80E062E00E942E2B80E065E6C2
:100E50000E946E2CEAE08E9FC001112488519C4FA5
:100E60000E94E82380E065E60E946E2CFAE08F9FE6
:100E7000C0011124112311F40C944B1028EB3BE01A
:100E8000820F931F0E94E8238BE00E942F2281E0B3
:100E900061E00E9413150E940C15809126028823A0
:100EA00061F080910A03882311F40C94431080911F
:100EB0002902882311F40C9443108091210281119E
:100EC00075C080912802811171C08091270288230A
:100ED00009F46CC02D9A83E290E00197F1F72D9808
:100EE000E3E4F4E04491EFE2F4E0E491F0E0EE0FAB
:100EF000FF1FE75EFB4F85919491642F00E412E49D
:100F00002FE030E00E945B026115710581059105BB
:100F100049F0DC01CB010196A11DB11DBC01CD0141
:100F20009F7003C060E070E0CB01109127022AE3BC
:100F300030E040E050E00E94963269E1169FC00127
:100F40001124092E000CAA0BBB0B281739074A07DE
:100F50005B0760F580912602882381F080911C0256
:100F6000882361F00E940B2B0E943D1C60931402A9
:100F700070931502809316029093170280912902B4
:100F8000811114C080911902811110C080919102C9
:100F900081110CC080910103811108C0809123024E
:100FA000811104C04C9902C00C94F20F809126026A
:100FB0008823C9F080911C028823A9F00E943D1C5F
:100FC000009114021091150220911602309117021F
:100FD0000A561F4F2F4F3F4F06171707280739078D
:100FE00010F40C94FD0F80912C038B8390912D03B2
:100FF0009C8380E00E943D2D80938E02909121027F
:10100000823009F444C7833009F455C7813009F0B0
:1010100088C7911186C780E50E94A4130E94782B8F
:101020000E94262B80912302882331F088E70E94BA
:10103000D52BCC24C39401C0C12C82E060E00E9477
:101040002E2B82EC92E00E944D2C82E061E00E9407
:101050002E2B88EB92E00E944D2C82E062E00E94F1
:101060002E2B8EEA92E00E944D2C82E063E00E94DB
:101070002E2B85EA92E00E944D2CDC2C80918E0272
:10108000843009F420C780E06D2D4EE70E942C2D9E
:1010900080E061E00E94131580918E02823009F495
:1010A000E1C6833009F4E9C6813041F7E1E0DE169C
:1010B00009F4D3C0DE1638F1F2E0DF1609F472C28B
:1010C00023E0D212DBCF0E94F02C84E992E00E9450
:1010D0004D2C82E061E00E942E2B83E892E00E947A
:1010E0004D2C82E062E00E942E2B82E792E00E946B
:1010F0004D2C82E063E00E942E2B8AE692E00E9453
:101100004D2C10E053C480E06AE771E00E948B2B05
:101110000E94F02C8DE491E00E944D2C82E061E071
:101120000E942E2B8EE391E00E944D2C82E062E023
:101130000E942E2B84E391E00E944D2C82E063E01C
:101140000E942E2B87E291E00E944D2C10E08091AE
:101150008E02843009F47EC080919102811102C018
:1011600040E201C040E081E060E00E942C2D8091CF
:101170009502811102C040E201C040E081E061E0DF
:101180000E942C2D80919202811102C040E201C088
:1011900040E081E062E00E942C2D81E063E048E7BE
:1011A0000E942C2D80E0612F4EE70E942C2D81E0C3
:1011B00061E00E94131580918E028230B9F1833074
:1011C00009F43EC0813019F6113039F018F01230B0
:1011D00071F0BDCF0E944D15BACF8091FF028823D8
:1011E00011F082E001C083E00E942B26B0CF8091F5
:1011F000920281110EC08091910281110E94702291
:1012000080910103811102C04C99FBC65E985F9AE0
:1012100002C05E9A5F989091920281E08927809344
:10122000920284EF91E00E94B02B91CF80E0612F79
:1012300040E20E942C2D133008F089CF1F5F87CF2A
:1012400080E0612F40E20E942C2D112309F47FCF12
:1012500011507DCF0E94F72C11CFD09202038AE863
:1012600091E00E94142D8091DA038A3010F40E94DC
:101270000C2D8091DA036AE070E00E9464198AE321
:101280000E94D52B8091DB038A3010F40E940C2D34
:101290008091DB036AE070E00E94641980E061E005
:1012A0000E942E2B81EA91E00E944D2C82E063E0A7
:1012B0000E942E2B8EE891E00E944D2C8EE063E080
:1012C0000E942E2B8091D903813049F028F0823082
:1012D00051F48FE791E005C089E891E002C083E80E
:1012E00091E00E944D2C0E94812B00E010E06AE00A
:1012F000F62E74E1E72E80918E02843009F439C114
:10130000153010F062E001C063E080E040E20E942E
:101310002C2D153010F063E001C062E080E04EE754
:101320000E942C2D82E062E00E942E2B8091DA0335
:101330008A3010F40E940C2D8091DA036AE070E08C
:101340000E9464198AE30E94D52B8091DB038A30C6
:1013500010F40E940C2D8091DB036AE070E00E9483
:10136000641987E062E046E00E94202D809124020B
:10137000882319F089E791E002C083E791E00E9499
:101380004D2C123089F030F4112361F01130A1F4AA
:1013900083E00FC0143061F048F0153069F48EE03E
:1013A00063E008C082E005C085E003C086E001C0BC
:1013B0008EE062E00E942E2B80E061E00E94131517
:1013C00080918E02823009F4C8C0833009F4CAC00B
:1013D000813009F090CF123009F44FC028F4112366
:1013E00049F11130A9F1C3C0143009F462C008F406
:1013F00052C0153009F0BBC00E94782BB090240277
:10140000109224020E94F02C8AE691E00E944D2C5A
:1014100082E061E00E942E2B80E691E00E944D2C3C
:1014200082E062E00E942E2B88E591E00E944D2C24
:1014300000E060C08091DA038E3020F4865F8093F4
:10144000DA0395C06F2D0E94D6339093DA038FC0D4
:101450002091DA03822F6F2D0E94D633993011F438
:10146000295001C02F5F2093DA038091DA0388317D
:1014700009F07DC0E092DA037AC08091DB0381330A
:1014800020F4865F8093DB0372C06F2D0E94D633F9
:101490009093DB036CC02091DB03822F6F2D0E94A1
:1014A000D633993011F4295001C02F5F2093DB030C
:1014B0005EC09091240289278093240258C083E063
:1014C0006091D90348E50E942C2D80E0602F4EE703
:1014D0000E942C2D83E0602F0E942E2B80E061E083
:1014E0000E94131580918E028230E9F0833021F141
:1014F000813029F080918E02843009F726C0009354
:10150000D90386E0602F0E94DF218091D9038111E9
:1015100003C081E00E94AD258091D903823051F74C
:101520000E94AD25E7CF80E0602F40E20E942C2D85
:10153000023000F70F5FDECF80E0602F40E20E94B4
:101540002C2D0023B9F20150D5CFB092240280E0B7
:1015500062E071E00E948B2B0AC0153008F0CBCE00
:101560001F5FC9CE112309F4C6CE1150C4CE01E0CD
:10157000C2CE002379F083E0609124020E94DF2133
:1015800084E06091DB030E94DF2185E06091DA0353
:101590000E94DF2180E062E071E00E948B2B1092BC
:1015A00002036CCDA0902D0380902C03B0902F03EC
:1015B0009090300382E891E00E94142D8BEC91E032
:1015C0000E944D2C82E061E00E942E2B8BEB91E07B
:1015D0000E944D2C0E94812B8091360290913702FF
:1015E000805D9740909337028093360210E000E0D0
:1015F00080918E02843009F459C182E062E00E9439
:101600002E2B39E03A1510F00E940C2D8A2D6AE03D
:1016100070E00E9464198AE30E94D52B49E04815C6
:1016200010F00E940C2D882D6AE070E00E94641971
:1016300082E063E00E942E2B88EB91E00E944D2C0B
:1016400080913602909137020A9714F40E940C2D73
:1016500080913602909137020E94242C8FE20E94E2
:10166000D52B69E0691510F00E940C2D892D6AE0D8
:1016700070E00E9464198FE20E94D52B89E08B15DF
:1016800010F00E940C2D8B2D6AE070E00E9464190E
:101690008DE061E00E942E2B80910A03882319F0CF
:1016A00084EB91E002C080EB91E00E944D2C80E041
:1016B0000111AAC462E040E20E942C2D80E061E0AA
:1016C0000E942E2B8BEF800F863048F480E062E082
:1016D00040E20E942C2D80E063E00E942E2B8EE7DA
:1016E0000E94D52B402E512C9BE049165104F8F452
:1016F000F201EC5CFF4F0C940A348DE061E015C000
:1017000082E005C083E003C085E001C086E062E0BE
:101710000CC084E009C085E007C087E005C088E010
:1017200003C08AE001C08BE063E00E942E2B80E0C2
:1017300061E00E94131580918E02823009F4A8C0E6
:10174000833009F4AAC0813009F052CF002349F058
:10175000F2013197EA30F10590F4E15CFF4F0C940F
:101760000A340E94022444CFEDE0EA1518F0FAE0B2
:10177000AF0E05C08A2D6AE00E94D633A92E11E073
:1017800037CF8A2D6AE00E94D633993019F427EFBB
:10179000A20E01C0A39438E111E0A31229CF54E1B5
:1017A000A52E26CF40E3481518F06AE0860EE7CF55
:1017B000882D6AE00E94D633892EE1CF882D6AE019
:1017C0000E94D633993019F487EF880ED8CF8394CE
:1017D000D6CF95E19B1518F0EAE0BE0ED0CF8B2D49
:1017E0006AE00E94D633B92E0DC08B2D6AE00E94AC
:1017F000D633993019F4F7EFBF0E01C0B3942FE13F
:101800002B1530F0B110BBCF11E0BB24B394F0CE58
:101810004EE1B42EB4CF32E0391518F04AE0940E00
:10182000AECF892D6AE00E94D633992E9111A7CFB1
:1018300011E099249394DCCE6BE0691598F19394B0
:101840009ECF80913602909137028935910514F42C
:101850000A9604C06AE070E00E94F6339093370263
:10186000809336028CCF2091360230913702C90125
:101870006AE070E00E94F633099719F429503109A3
:1018800002C02F5F3F4F309337022093360277CF4D
:101890000A3008F0ADCE0F5FABCE002309F4A8CE1E
:1018A0000150A6CE11E03AE0932EA2CEE09036028F
:1018B000F090370280E3E81A88EFF80AF0923702D6
:1018C000E0923602112339F1682D70E02B2D30E0C3
:1018D000092D10E08A2D90E040E050E00E944D1F5D
:1018E000A0922D0380922C0310922B03B0922F0311
:1018F0009092300380913602825B809331030E9484
:1019000092290E940C150E949D12682F80931D023F
:1019100080E10E94DF2180E062E071E00E948B2B79
:10192000ADCB0E94812B111147C080912002ECE1C8
:101930008E9FC00111240E94CC1B133011F40E9411
:10194000782B80E0612F4EE70E942C2D80E160E033
:101950000E942E2B809120026AE070E00E946419A0
:1019600080E161E00E942E2B80911F026AE070E00E
:101970000E94641980E162E00E942E2B8091270270
:101980006AE070E00E94641980E1612F0E942E2BB2
:1019900080E061E00E94131580918E02823009F48C
:1019A00043C2833009F449C2813049F080918E02EC
:1019B000843009F0B6CF4DC280E090E0BCCF11304A
:1019C000E1F128F1123009F448C0133079F70E9490
:1019D000F02C87E592E00E944D2C82E061E00E94AD
:1019E0002E2B84E492E00E944D2C82E062E00E9463
:1019F0002E2B81E392E00E944D2C82E063E00E9456
:101A00002E2B89E292E00E944D2C00E06AC080916A
:101A10002002893020F48F5F8093200202C0109250
:101A2000200260912002FCE16F9FC00111246D83B0
:101A30000E94CC1B82E06D810DC080911F02893015
:101A400020F48F5F80931F0202C010921F0289E072
:101A500060911F020E94DF21A9CF80912702893067
:101A600020F48F5F8093270202C01092270288E043
:101A700060912702EFCF80911E02811137C040E2B2
:101A800082E160E00E942C2D80912302811130C000
:101A900040E282E161E00E942C2D80911C028111C4
:101AA00029C040E282E162E00E942C2D80E0602F9C
:101AB0004EE70E942C2D82E1602F0E942E2B0330D6
:101AC000D8F40E94812B80E061E00E941315809180
:101AD0008E02823009F494C1833009F49BC18130B5
:101AE00071F080918E02843031F660CF48E5C8CF26
:101AF00048E5CFCF48E5D6CF0E94782BE4CF013020
:101B0000E1F0A0F0023099F1033059F78AE691E054
:101B10000E94142D89E192E00E944D2C80E061E04A
:101B20000E942E2B24E1E22EF12C2DC060911E028A
:101B3000682760931E028AE020C00E94782B809163
:101B4000230281110BC00E94702282E161E04EE20B
:101B50000E942C2D0E945C220E946C226091230224
:101B600081E06827609323020E94DF21BACF609151
:101B70001C02682760931C028BE10E94DF2182E334
:101B80000E94A413AECF8CEE8E0D843119F480E048
:101B900062E004C0883221F480E063E00E942E2BD2
:101BA00087E5B7010E9404220E94D52B2FEFE21A8D
:101BB000F20A30E5E316F10431F780E060E00E94BC
:101BC000131580E062E071E00E948B2B0E94262BAF
:101BD00080E06BE00E94751883E060E00E94751859
:101BE00086E06CE00E94751888E060E00E9475183D
:101BF0008DE061E00E94751880E161E044E00E94A0
:101C00002C2D81E160E00E94751880E063E00E9465
:101C10002E2B88E092E00E944D2C80918E02843021
:101C200009F45FCF80E00E943D2D80938E0280E01A
:101C30000E943D2D823089F780918E02843069F3B5
:101C400080E00E943D2D80938E0280E00E943D2D19
:101C5000833091F70E94262B8DEF91E00E944D2C4E
:101C600081E090E00E94242C8EE20E94D52B80E03F
:101C700090E00E94242C85EF91E00E944D2C80E0A2
:101C800061E00E942E2B8FEE91E00E944D2C98E097
:101C9000F92E8F2D0E9488290E942B29811108C0BE
:101CA00088E70E94D52B8F2D60E170E00E946419B7
:101CB000F39448E7F412EDCF80E062E00E942E2B0F
:101CC00088EE91E00E944D2C8091DD039091DE031F
:101CD000009711F483EE93E0F101E81BF90BCF01BB
:101CE0000E94242C83EE91E00E944D2C88E60E94F5
:101CF00088298DEC93E061E10E94AA1D0E942B29A6
:101D000088E690E062E070E00E94092A9091CB039F
:101D10008091CC03981769F18DEC93E00E94651DCA
:101D20005C018DEC93E00E94651D7C01B5016F772D
:101D30007727072E000C880B990B0E9453314B011B
:101D40005C01B701772786E0759567958A95E1F77D
:101D5000072E000C880B990B0E94533120E030E0D5
:101D600040E85EE30E94B231A50194010E94313344
:101D700003C060E070E0CB0140E00E94221A8FEDCA
:101D80000E94D52B80E063E00E942E2B8DED91E028
:101D90000E944D2C8BE063E00E942E2B89ED91E098
:101DA0000E944D2C80911D02882311F083E501C013
:101DB00087E50E94D52B80918E02843009F43CCFB8
:101DC00081E00E943D2D80938E0286E063E00E94B8
:101DD0002E2B86E00E94261CBC01990F880B990BC4
:101DE0000E94533120E030E040EA5BE30E94B231D0
:101DF00042E00E94221A84E690E00E94E22EDBCFAD
:101E000080E0602F40E20E942C2D033008F069CE64
:101E10000F5F67CE80E0602F40E20E942C2D0023F0
:101E200009F45FCE01505DCE80E0612F40E20E9458
:101E30002C2D133048F41F5F07C080E0612F40E273
:101E40000E942C2D1111115080E0612F0E942E2B29
:101E5000ADCD80912602811111C980E090E00E94F1
:101E6000CC1B0CC980E06D2D40E20E942C2DF2E0CD
:101E7000FD1508F403C9D39401C980E06D2D40E23B
:101E80000E942C2DCD1408F0F9C8DA94F7C89111EE
:101E900048C080912602811144C080912702882386
:101EA00009F43FC09091280281E08927809328029D
:101EB0000E94D01336C0992349F00E94642B1092DF
:101EC0002102109226020E940C152BC080911E0246
:101ED000882339F080912202811103C00E94E42CF2
:101EE00020C09091260281E08927809326020E94DB
:101EF000D01380912602811107C080E090E00E94FB
:101F0000CC1B0E940B2B0AC0809120022CE1829FE7
:101F1000C00111240E94CC1B0E94032B82E30E946B
:101F2000A41380912102811102C088E701C080EFD3
:101F30000E94A4130C94820587E00E94261C813223
:101F4000934074F080912102882351F00E94642B09
:101F500010922102109226020E940C150C94B405D6
:101F60000E94D0130C94B40581E0809318028091F4
:101F70009302811103C08EE00E94E82A80919102B1
:101F800081110E9475228091920281115F9A0E94B4
:101F90000C150C9460068F5F0C94710600E010E045
:101FA0000C94A60680E06CE00E946E2C182F8091A5
:101FB000210281111AE00E94782B183088F5809157
:101FC0002602882351F080910A03882321F0809112
:101FD0002902811102C00E940B2B153048F50E9486
:101FE000262B26C08DE361E50E946E2C0E942F22D5
:101FF00081E0809319020C94D6070E94032B0C9465
:10200000F3070E945C2202C961E040E20E942C2D8D
:1020100080E063E040E20E942C2D80E062E050CB43
:1020200081E56FE60E946E2C0E942F220C945D07C2
:10203000812F90E0FC013197E730F10540F10E94DB
:10204000292280E793E060E570E040E026E930E097
:102050000E94132F80E793E060E971E040E020E9FF
:1020600031E00E94132F5E9A80E596E463E007C09A
:1020700087E091E00E944D2C80EA9FE061E00E94A1
:102080007F230C944B070E94032B0C945D07E75BA6
:10209000FF4F0C940A3420ED37E00C94400780E1A8
:1020A00097E262E0ECCF85E061E00E942E2B8CE1AC
:1020B00091E00E944D2C809120022CE1829FC00172
:1020C00011240E94CC1B0E94292280E293E06AEF37
:1020D00070E040E02EE031E00E94132F80E293E0B8
:1020E00066E970E040E024EB30E00E94132F84E9C1
:1020F00092E06AEF70E040E02AEF30E00E94132F98
:1021000080ED97E00E94E22E80E090E00E94CC1BE0
:102110000C944B070E947921F82E80E06AE671E06A
:102120000E948B2B01E00E947921F8125EC0809101
:102130008E02843009F459C0009302030E94262BBA
:1021400081E064E10E946E2C182F112381F080E061
:1021500064E10E946E2CE82E80E064E00E946E2C08
:10216000682F8E2D40E00E942C2D1150EECF84EF71
:1021700091E00E94E22ED7CF18E288E10E94142B52
:1021800088EC90E00E94E22E80918E02843009F467
:1021900011E01150123088F70C944B0780E06AE68A
:1021A00071E00E948B2B00E010E0812F602F40E057
:1021B0000E942C2D86E990E00E94E22E80918E02F2
:1021C000843011F414E104E0812F602F40E20E947A
:1021D0002C2D1F5F143148F30F5F043028F380ED7E
:1021E00097E00E94E22E0C944B07109202030C948D
:1021F0004B0783FD02C098E001C098E28770892BED
:1022000098E10FB6F894A895909360000FBE809364
:102210006000A89580916000806480936000809148
:102220002602882319F083B7817F0BC08091210299
:10223000882321F083B7817F846003C083B7817FC7
:102240008C6083BF83B7816083BF85B7806685BF9D
:102250008F7D85BF80916400816080936400889544
:1022600083B78E7F83BF0FB6F894A89580916000E6
:10227000886180936000109260000FBE80916000C2
:102280008F7B80936000809164008E7F80936400D8
:102290000895CF93DF93C82F82E061E00E942E2B38
:1022A0008FE593E00E944D2C8C2F6AE070E00E9435
:1022B00064198AE30E94D52B0E94102DD0E0CC0F28
:1022C000DD1FC95CDD4F6881798180E090E00E946C
:1022D00051312DEC3CEC4CEC5DE30E94B23142E01C
:1022E0000E94221A88819981883E934018F083E1E8
:1022F00041E002C082E142E061E00E94202D809135
:102300008D0260918C020E942E2BDF91CF91089557
:10231000EF92FF920F931F93CF93C82F282F30E097
:1023200080918F02909190028901000F111F075C2C
:102330001D4FF80191838083255F3F4F5AE0E52EC2
:10234000F12CB7010E94E233682F822F880F0E9480
:10235000DF21F80120813181CC0FC901B7010E9432
:10236000E233A901481B590BCA01B7010E94E233AD
:1023700085E18C0F0E94DF2182E061E00E942E2B1C
:102380008FE293E00E944D2C88EE93E00E94B02BE8
:10239000CF911F910F91FF90EF900895CF9380916F
:1023A0000A038823E9F180910803909106032091A4
:1023B0002D03981730F4C1E0821768F0291758F000
:1023C00009C0891738F4C0E0821728F4291718F4D7
:1023D000C1E001C0C0E0891310C0509107033091E3
:1023E0000503351738F040912C03451718F03417C2
:1023F00008F0C1E0381708F4C1E0281307C0309195
:102400002C0380910703381708F0C1E0291309C095
:1024100090912C0380910503981718F4C1E001C036
:10242000C0E080913802C81749F0CC2311F087E44E
:1024300001C086E60E942F22C09338028C2FCF91D4
:102440000895CF93DF930E947921CBE2D3E0898373
:102450000E9412200E949C208091B3028A83DF9107
:10246000CF9108950E9412200E949C208091B70273
:1024700090E08E54984F90933702809336020E94DA
:1024800012200E949C208091B50280932F030E940D
:1024900012200E949C208091B6028093300380E03D
:1024A00063E00E942E2B0E9412200E949C20E0914B
:1024B000B402F0E0EE0FFF1FE15BFC4F65917491F9
:1024C0008AE292E00E9442318AE993E06AE272E095
:1024D0000E94C72F8AE063E00E942E2B8091360273
:1024E000909137020E94242C8FE20E94D52B80917C
:1024F00030038A3010F40E940C2D809130036AE082
:1025000070E00E9464198FE20E94D52B80912F0306
:102510008A3010F40E940C2D80912F036AE070E045
:102520000E94641980913402909135020A9724F434
:1025300082E160E00E942E2B0895809130039DEF90
:10254000980F983008F06DC09CEF980F963008F403
:1025500066C0833089F520912F0340913602509157
:10256000370235E0349FC001359F900D112497FD4F
:1025700003969595879595958795049667E070E005
:102580000E94F6334FE150E0BA01681B790B38E145
:10259000369FA001379F500D11244F5F5F4F8091F0
:1025A0002D0378E1279F90011124280F311D81E030
:1025B00042175307BCF135C08A3099F520912F039B
:1025C000409136025091370235E0349FC001359F6B
:1025D000900D112497FD0396959587959595879570
:1025E000019667E070E00E94F6334FE150E0BA01D7
:1025F000681B790B38E1369FA001379F500D1124DD
:102600004F5F5F4F80912D0378E1279F9001112448
:10261000280F311D81E04217530724F402C081E0E6
:10262000089580E00895EF92FF920F931F93CF9348
:10263000DF9388E60E9488298DEC93E060E00E9499
:10264000AA1D0E942B2988E690E067E070E00E94B6
:10265000092A8DEC93E00E94651DCBE2D3E0982F10
:102660009695969596959E70292F220F220F920F80
:102670008F70890F88838DEC93E00E94651D982FE1
:1026800092959F708F702AE0929F800D112489830C
:102690008DEC93E00E94651D982F969596959695E2
:1026A0009670292F220F220F920F8F70890F8A8325
:1026B0008DEC93E00E94651D982F92959F708F700E
:1026C0002AE0929F800D11248B838DEC93E00E9471
:1026D000651D982F92959F708F702AE0929F800DB4
:1026E00011248C838DEC93E00E94651D982F9295A8
:1026F0009F708F702AE0929F800D11248D838DEC46
:1027000093E00E94651D982F9F70925E82958F7056
:10271000E92E2AE0829FE00C1124EE828A816981F1
:1027200070E0488150E02C8130E00D8110E0F12C08
:102730009EE4E91A98EFF90A90E00E944D1FCDB788
:10274000DEB7E6E00C941233CF93C82F80912602B7
:10275000882329F080916400806280936400C7FF21
:1027600004C083E00E94F910C857C03420F082E012
:102770000E94F910CC53C03220F081E00E94F91081
:10278000CE51C03118F080E00E94F91080912602ED
:10279000882321F08091640010926400CF91089505
:1027A000CF930E9421120E94CE1180932902809122
:1027B0002D038A3018F481E060E005C06AE00E94D1
:1027C000D633682F81E00E94751880912D03CAE0EE
:1027D0006C2F0E94D63384E0692F0E94751887E021
:1027E0006AE00E94751880912C038A3018F48AE000
:1027F00060E005C06C2F0E94D633682F8AE00E94EB
:10280000751880912C036AE00E94D6338DE0692F01
:102810000E94751881E161E043E00E94202D81E172
:1028200061E00E942E2B80912802811104C08091CA
:102830002702811103C088E70E94D52B80912602D0
:10284000882319F084E40E94D52B80910A03882301
:1028500049F080912902882311F08EE401C08EE6B0
:102860000E94D52B80912502882341F083E062E00D
:102870000E942E2B83E493E00E944D2C81E162E0C4
:1028800043E00E94202D81E162E00E942E2B809186
:102890002402882319F084EF0E94D52B8091010334
:1028A000882319F080E70E94D52B8091230288238A
:1028B00019F083E50E94D52B80919302811108C005
:1028C00080919202811104C080919102882319F0B5
:1028D00080E50E94D52B86E00E94261C909335024D
:1028E00080933402C4E08AE00E94A41386E00E9430
:1028F000261C2091340230913502820F931F909351
:10290000350280933402C15071F765E070E00E9497
:10291000F633072E000C880B990B0E94533120E0F0
:1029200030E040EA5BE30E94B23126E636E646E359
:1029300050EC0E9431332CE938ED49E952E40E9411
:10294000B2310E949D331616170634F464367105B1
:102950002CF063E670E002C061E070E0CB01072E6E
:10296000000CAA0BBB0B9C01AD016A337105A4F0EE
:102970002953310941095109ABE5B0E00E94D73232
:102980002AE230E040E050E00E94B832DA01C901AA
:102990000896A11DB11D13C02150310941095109EB
:1029A000A7E0B0E00E94D73227E330E040E050E0FB
:1029B0000E94B832DA01C9010196A11DB11D9093A0
:1029C00035028093340281E160E00E942E2B8091D9
:1029D0003402909135020A9744F481E160E040E2CC
:1029E0000E942C2D0E94812B02C00E94782B809186
:1029F0003402909135020E94242C80912202882377
:102A000011F08BE201C085E20E94D52B82E160E0EB
:102A10000E942E2BCF9108950E94F72C0E94321213
:102A20000E94D0130895CF92DF92EF92FF921F93EE
:102A3000CF93DF93C82FD62F0E943D1C6B017C01E2
:102A400020E6C20E2AEED21EE11CF11C10928E026C
:102A500014E090918E02911115C08C2F0E943D2D93
:102A600080938E02D11104C088E70E94A413F1CF95
:102A70000E943D1CC616D706E806F90650F71093CB
:102A80008E02E7CF82E30E94A413DF91CF911F91C2
:102A9000FF90EF90DF90CF900895AAE4B0E0E3E5D7
:102AA000F5E10C94EC3281E06AE471E00E948B2B3A
:102AB00082E06AE571E00E948B2B83E062E671E0C0
:102AC0000E948B2B84E062E471E00E948B2B8AE7EA
:102AD00091E00E94142DB12C12E000E0A12C7E01A7
:102AE00021E4E20EF11CAE014F5F5F4F6A0180915D
:102AF0008E02843009F488C182E062E04BE50E94D6
:102B00002C2D82E00E94D52B8BE793E00E944D2C68
:102B100083E00E94D52B8DE50E94D52B82E063E0F7
:102B20000E942E2B88E693E00E944D2C81E061E00C
:102B300043E10E94202D0E94812B809191028111FE
:102B400002C044E001C041E089E062E00E942C2D17
:102B500082E060E00E942E2B60918F0270919002C3
:102B600080E090E00E9451312DEC3CEC4CEC5DE3B8
:102B70000E94B23142E00E94221A0E94102D0023CE
:102B800041F05E980E94752289E060E04AE00E9470
:102B9000202D1730A9F030F4153059F0163041F5DA
:102BA00085E022C01930C9F0B0F01A3009F581E192
:102BB0001BC083E080938D0280938C0281E007C06C
:102BC00089E080938D0283E080938C0282E00E94F2
:102BD000491100E019C08BE007C08FE080938D029F
:102BE00083E080938C02F3CF80938D0283E009C051
:102BF000812F90E00196982F990F890F80938D0275
:102C000082E080938C0201E080918F02909190028B
:102C10008815990579F08AE0F70111928A95E9F70C
:102C200080E4F60111928A95E9F789E060E048E0D6
:102C30000E94202D80918D0260918C020E942E2B8B
:102C400080919102882309F462C0002309F45FC0D7
:102C50000B2D043008F055C020E1029F40011124E3
:102C600083E0B82E82E061E00E942E2B612C712C53
:102C7000F301E80DF91DEC0DFD1D808180310CF490
:102C800080E20E94D52BFFEF6F1A7F0A20E16216C7
:102C9000710471F780918D0260918C020E942E2B3D
:102CA0000E943D1C2B013C010E943D1CDC01CB011C
:102CB00084199509A609B709843F9140A105B1057A
:102CC00040F480E00E943D2D80938E02882309F419
:102CD000D2C089E060E00E942E2B8AE993E0B70120
:102CE0000E94C72F80918D0260918C020E942E2B32
:102CF00080918E02882309F4AFC0033009F0B4C07C
:102D0000B12C80918E02882309F4A2CF04C080E008
:102D100061E00E94131580908F0290909002809144
:102D20008E02823009F468C0833009F469C08130B2
:102D300009F068C0812F90E08B30910508F057C0F2
:102D4000FC01E05BFF4F0C940A34809191028823D0
:102D500009F44DC080E02DC04BE6841643E0940694
:102D600008F445C0C40101979093900280938F02AC
:102D70003EC080919102882319F00E94702237C0D2
:102D800080910103811102C04C99E1C00E946C2224
:102D900081E0809391022BC058E3851654E095069C
:102DA00030F5C4010196E0CF809191028823F9F0BB
:102DB00081E00E94E51AD8CF8091390290913A02C1
:102DC0000DC080E012C080913B0290913C0206C091
:102DD00081E00BC080913D0290913E029093900261
:102DE00080938F0212E003C082E00E94881100915C
:102DF0009102AA24A3947BCE1A3020F41F5F02C054
:102E00001111115000E073CEAA20F9F080918F02C9
:102E1000909190020AE010E0B8010E94E233682F1E
:102E200082E10E94DF2120918F0230919002C9013E
:102E3000B8010E94E233F901E81BF90BCF01B80198
:102E40000E94E23381E10E94DF210E94F72CC65BE1
:102E5000DF4FE0E10C94083382E30E94A413BA949C
:102E6000B11000CF033009F0B02E80918E02811195
:102E700048CF0F5FEECE8091BD039091BE0397FFC8
:102E80000CC00E949D198091C3039091C4039C01C2
:102E90002227387F2115304219F080E090E028C0C9
:102EA0008F7099274091C5035091C6039C01220F52
:102EB000331F220F331FF601E20FF31F5083E2E0AE
:102EC000F0E0EC0FFD1FE20FF31F40834091C703BA
:102ED0005091C803E3E0F0E0EC0FFD1FE20FF31F99
:102EE0005083E4E0F0E0EC0FFD1FE20FF31F40839E
:102EF000FC013196EE0FFF1FEE0FFF1FEC0DFD1DC5
:102F000010820E949D198091BD039091BE0397FF8E
:102F10001BC08091C3039091C403843F51E0950787
:102F200098F42091C7033091C80383709927880FC4
:102F3000991FF701E80FF91F3083E2E4F0E0EC0F8E
:102F4000FD1FE80FF91F2083F7011086ADCE0E9408
:102F50005C221CCFA0E0B0E0E0EBF7E10C94F4328F
:102F60006C017A018B01C0E0D0E0CE15DF0589F05D
:102F7000D8016D918D01D601ED91FC910190F08108
:102F8000E02DC6010995892B11F47E0102C021961E
:102F9000ECCFC701CDB7DEB7E8E00C941033209139
:102FA0008102309182022817390771F490918002D2
:102FB00080917F02981741F0E0918002F0E0E15C9F
:102FC000FD4F808190E008958FEF9FEF0895089561
:102FD0001F93CF93DF93DC015C962D913C915D971D
:102FE0002115310539F481E090E013969C938E937E
:102FF00012973DC05196ED91FC91529750969C913D
:103000005097892F80951FB75E964C915E9741FB34
:10301000772770F941FD6095F8944081772311F08E
:10302000492B01C048234083E9012197F1F748E08B
:10303000508160FF02C0592B01C058235083E90121
:103040002197F1F76695415099F7772321F0908108
:103050008923808303C08081982B90831FBF5C9657
:103060008D919C915D970197F1F721E030E0C901C6
:10307000DF91CF911F9108952091810230918202BA
:103080002817390771F480917F022091800290E027
:10309000805C9F4F821B910960E470E00E94F633D0
:1030A000089580E090E0089520918102309182029D
:1030B00028173907B9F49091800280917F02981700
:1030C00089F0E0918002F0E0E15CFD4F8081209189
:1030D000800230E02F5F3F4F2F7333272093800211
:1030E00090E008958FEF9FEF0895CF93C62F8093C0
:1030F0008D0210928C0260E043E00E94202D6091CE
:103100008C026F5F80918D0243E00E94202D8C2FF6
:1031100090E08D30910508F0D5C0FC01E55AFF4FD5
:1031200080918D020C940A3460918C0240E00E94E0
:103130002C2D81E067C060918C0241E00E942C2D13
:1031400082E00E94D52B60918C026F5F80918D028E
:1031500044E00E942C2D87E014C060918C0246E070
:103160000E942C2D86E00E94D52B82E00E94D52B58
:1031700060918C026F5F80918D0243E00E942C2D44
:1031800084E00E94D52B84E09BC060918C0246E0D5
:103190000E942C2D86E00E94D52B82E013C0609106
:1031A0008C0243E00E942C2D84E00E94D52B87E006
:1031B00044C060918C0243E00E942C2D86E00E9466
:1031C000D52B86E00E94D52B60918C026F5F809199
:1031D0008D0244E022C060918C0240E00E942C2DC0
:1031E00086E00E94D52B86E010C060918C0241E001
:1031F0000E942C2D81E01EC060918C0240E00E9454
:103200002C2D86E00E94D52B82E00E94D52B609168
:103210008C026F5F80918D0243E00E942C2D84E030
:103220000E94D52B85E04CC060918C0240E00E944A
:103230002C2D86E00E94D52B82E00E94D52B809118
:103240008D0260918C026F5F8E5F47E00DC08F5FD3
:1032500060918C0244E00E942C2D80918D0260913F
:103260008C026F5F8F5F44E00E942C2D2BC0609119
:103270008C0240E00E942C2D82E00E94D52B80E041
:103280000E94D52B60918C026F5F80918D0247E088
:103290000E942C2D83E00E94D52B87E011C0609105
:1032A0008C0247E00E942C2D80E00E94D52B60917B
:1032B0008C026F5F80918D0247E00E942C2D83E08D
:1032C0000E94D52BCF910895282FAB01672B61F475
:1032D000E0919A03F0919B030190F081E02D8AE93F
:1032E00093E0622F09950895682F70E080E090E0E8
:1032F0000E94E12B08951F93CF93DF9380E10E94FA
:103300008829CDEAD3E01881698122968DEC93E07B
:103310000E94AA1D8DEC93E0612F0E94AA1D83E0FC
:10332000C93BD80781F70E942B2991E0811190E0D9
:10333000892FDF91CF911F9108950F931F93CF9302
:10334000DF9380E190E060E270E00E94092A8091C2
:10335000CB0390E02091CC03821B91098032910530
:10336000ECF3CAE0D0E08DEC93E00E94651D8E0185
:10337000000F111F0A551C4FF801138284838DEC36
:1033800093E00E94651DF80123813481822B932BE9
:1033900094838383C930D10539F02196C031D1059A
:1033A00011F7C0E0D0E0DFCFDF91CF911F910F91F7
:1033B00008950E949D19E6EAF3E087819085806474
:1033C000908787830E947B190895CF93DF935D9840
:1033D00081E090E00E94B02B5D9A81E090E00E9435
:1033E000B02B1092CC031092CB031092CA03109210
:1033F000C9030E942F1F0E949D19C6EAD3E080E0F6
:1034000091E89A8B898B0E947B1984EF91E00E944E
:10341000B02B0E949D1981E090EC98878F838B855B
:103420009C8598619C878B878D859E858F619E8703
:103430008D870E947B198EE690E00E94B02BDF9171
:10344000CF9108954F925F926F927F928F929F9249
:10345000AF92BF92CF92DF92EF92FF92CF93DF9322
:103460006B017C01B42EA70196010E94D133882301
:1034700029F08AE993E064EB71E00FC0C701B6015F
:103480009F772FEF3FEF4FE75FE70E94CC3318168F
:103490003CF48AE993E068EB71E00E94C72F86C094
:1034A000C701B6012FEF3FEF4FE75FE40E94CC3337
:1034B00018162CF48AE993E06CEB71E0EECFC701AB
:1034C000B6012FEF3FEF4FE75FEC0E944C3187FDD5
:1034D000F1CFC701B60120E030E0A9010E944C31D4
:1034E00087FF09C08DE20E94D52BEC01F7FAF0941A
:1034F000F7F8F09402C0C0E0D0E0A12C60E070E0EA
:1035000080E09FE3AB1441F02DEC3CEC4CEC5DE330
:103510000E94B231A394F6CFA70196010E943133E5
:103520002B013C010E949D336B017C010E945131B3
:103530009B01AC01C301B2010E9430332B013C015D
:10354000C701B6014AE00E94E12BC80FD91FBB207A
:1035500029F08EE20E94D52BC80FD91FFB2CFF202B
:1035600021F1C301B20120E030E040E251E40E94C9
:10357000B2312B013C010E949D334B01A12CB12C97
:10358000C501B4014AE00E94E12BC80FD91FC50153
:10359000B4010E9451319B01AC01C301B2010E94F0
:1035A00030332B013C01FA94DACFCE01DF91CF9179
:1035B000FF90EF90DF90CF90BF90AF909F908F9053
:1035C0007F906F905F904F900895A1E0B0E0EBEE98
:1035D000FAE10C94F83289830E949D192091AD0381
:1035E0003091AE03A9015B7F8981811106C0397FCB
:1035F0003093AE032093AD0306C0CA01926090934E
:10360000AE038093AD038091AD039091AE039160C2
:103610009093AE038093AD030E947B190E949D1985
:103620008091BD039091BE0396FFF8CF0E949D1933
:103630000091BD031091BE03002710728091AD036D
:103640009091AE039E7F9093AE038093AD030E9452
:103650007B190E949D192091BD033091BE03C901C1
:103660008827907436FDF5CF0115110549F40E94A5
:103670009D198091BF039091C003937085599C4F11
:103680002196E4E00C94143390E0FC01EF56FC4FDB
:103690003491FC01E95CFB4F2491FC01ED5DFB4F93
:1036A000E491EE2309F43BC0332339F1333091F038
:1036B00038F43130A9F0323001F584B58F7D12C075
:1036C000373091F03830A1F03430B9F48091800077
:1036D0008F7D03C0809180008F77809380000DC024
:1036E00084B58F7784BD09C08091B0008F7703C007
:1036F0008091B0008F7D8093B000F0E0EE0FFF1F4F
:10370000E15FFB4FA591B4918FB7F894EC916111F3
:1037100003C020952E2301C02E2B2C938FBF08951C
:10372000CF93DF9390E0FC01E95CFB4F2491FC0117
:10373000ED5DFB4F8491882361F190E0880F991F24
:10374000FC01E957FC4FC591D491FC01E15FFB4FAF
:10375000A591B491611109C09FB7F8948881209513
:1037600082238883EC912E230BC0623061F49FB7D3
:10377000F8943881822F809583238883EC912E2BB7
:103780002C939FBF06C08FB7F894E8812E2B288317
:103790008FBFDF91CF910895CF93DF93EC018AE043
:1037A00061E00E94901B209719F48AE060E005C058
:1037B000CF3FD10529F48AE061E00E94441B43C059
:1037C000EBE9F3E0E491E330F9F048F4E130B9F0EB
:1037D000E230A1F584B5806284BDC8BD34C0E73055
:1037E000E9F0E83019F1E43049F580918000806219
:1037F00080938000D0938B00C0938A0024C084B54E
:10380000806884BDC7BD1FC08091800080688093A0
:103810008000D0938900C093880015C08091B000CB
:1038200080688093B000C093B3000DC08091B00059
:1038300080628093B000C093B40005C0C038D10549
:103840000CF0B9CFB2CFDF91CF9108958E3008F050
:103850008E508770806480937C0080917A008064B1
:1038600080937A0080917A0086FDFCCF8091780069
:103870002091790090E0922B08952FB7F8946091F1
:1038800088027091890280918A0290918B022FBFE9
:1038900008951F920F920FB60F9211242F933F930A
:1038A0008F939F93AF93BF938091880290918902E9
:1038B000A0918A02B0918B023091870223E0230FFE
:1038C0002D3720F40196A11DB11D05C026E8230F58
:1038D0000296A11DB11D20938702809388029093C8
:1038E0008902A0938A02B0938B0280918302909107
:1038F0008402A0918502B09186020196A11DB11D9E
:103900008093830290938402A0938502B0938602F1
:10391000BF91AF919F918F913F912F910F900FBECB
:103920000F901F9018951F920F920FB60F921124AF
:103930002F933F934F935F936F937F938F939F93B7
:10394000AF93BF93EF93FF93E0918102F0918202D6
:10395000309709F451C0968DA685B785858591FF6E
:1039600004C09C91892329F447C09C91892309F0C4
:1039700043C0A389B4899C918589809589238C93C0
:10398000868997890197F1F7608D718DA685B78536
:10399000558538E020E0CB010197F1F7822F90E0C8
:1039A00095958795282F4C91452309F02068315033
:1039B00091F7868D81FD209580917F0290E00196A0
:1039C0008F73992730918002381749F0A0917F02B8
:1039D000B0E0A15CBD4F2C9380937F0203C0868D25
:1039E0008160868F828D938D0197F1F7A389B489C9
:1039F0009C918589892B8C93FF91EF91BF91AF9119
:103A00009F918F917F916F915F914F913F912F91F6
:103A10000F900FBE0F901F901895E0918102F091CA
:103A20008202E817F90769F4A389B4899C91858912
:103A3000809589238C93109282021092810281E0FA
:103A4000089580E0089585ED8093BC008091BC00CE
:103A500084FDFCCF1092580308954091DA02262F7E
:103A600030E0240F311D21323105DCF42091580360
:103A70002430C9F4FC0180E090E0861758F43091BE
:103A8000DA022191DC01A854BD4FA30FB11D2C9384
:103A90000196F3CF8091DA02680F6093DA0280E03A
:103AA000089581E0089582E008950895E091CC039F
:103AB0008091CB03E81730F4F0E0E55FFC4F8081A4
:103AC00090E008958FEF9FEF08959091CC0380913F
:103AD000CB03981750F4E92FF0E0E55FFC4F20810D
:103AE00030E09F5F9093CC0302C02FEF3FEFC901FE
:103AF00008958091CB0390E02091CC03821B910923
:103B00000895A0E0B0E0E7E8FDE10C94F4327C0118
:103B1000972F8A0180915903882391F0C62FD72FC0
:103B20006E01C40ED51ECC15DD0571F06991D7016B
:103B3000ED91FC910190F081E02DC7010995F3CF43
:103B4000862F642F0E942D1DC801CDB7DEB7E8E097
:103B50000C941033A1E0B0E0E0EBFDE10C94FA32FC
:103B60006983209159032223D1F02091C903203287
:103B700040F021E030E0FC013383228380E090E0DC
:103B800015C08091CA03E82FF0E0E65AFC4F9981F6
:103B900090838F5F8093CA038093C90305C0CE01D1
:103BA000019661E00E942D1D81E090E02196E2E007
:103BB0000C9416336093AD027093AE028093AF0203
:103BC0009093B002DC01CB01845D9E4FAF4FBF4F9D
:103BD0008093A9029093AA02A093AB02B093AC0287
:103BE00082E090E09093A8028093A7020E943D1C7F
:103BF0006093A3027093A4028093A5029093A602FF
:103C000008951F920F920FB60F9211242F933F9396
:103C10004F935F936F937F938F939F93AF93BF93D4
:103C2000EF93FF938091B900887F803609F49CC0A0
:103C300068F5883209F45BC090F4803109F454C00F
:103C400038F4882309F4F6C0883009F44DC0F6C072
:103C5000883109F44CC0803209F45DC0EFC0803473
:103C600009F468C048F4803309F455C0883309F07A
:103C7000E5C080935603D8C0803509F44FC088351D
:103C800009F45DC0883409F0D9C0D6C0883909F478
:103C9000C7C0A8F4883709F467C038F4883609F437
:103CA00063C0803709F460C0C9C0883809F4B8C05F
:103CB000803909F45FC0803809F0C0C05BC0803B28
:103CC00009F486C038F4803A09F466C0883A09F4E9
:103CD0007FC0B4C0803C09F4A7C0883C09F4A4C0EC
:103CE000883B09F48AC0AAC08091330310C0909128
:103CF000550380915403981770F5E091550381E0C6
:103D00008E0F80935503F0E0EC5CFC4F8081809334
:103D1000BB0085EC86C0809356038EC0E0915503AE
:103D200081E08E0F809355038091BB00F0E0EC5C46
:103D3000FC4F808390915503809154036EC0E091B5
:103D4000550381E08E0F809355038091BB00F0E016
:103D5000EC5CFC4F80838091570381116DC081E042
:103D60008093320384EA61C083E080935803109209
:103D7000FE02CFCF8091FE02803208F051C0E09168
:103D8000FE0281E08E0F8093FE028091BB00F0E086
:103D9000E252FD4F8083BDCF85EC8093BC00109232
:103DA00058038091FE02803230F4E091FE02F0E090
:103DB000E252FD4F10826091FE0270E0E091DC0261
:103DC000F091DD028EED92E009951092FE0236C070
:103DD00084E0809358031092DB021092DA02E091A3
:103DE000D802F091D90209958091DA02811105C0BB
:103DF00081E08093DA021092B802E091DB0281E068
:103E00008E0F8093DB02F0E0E854FD4F80818093B9
:103E1000BB009091DB028091DA02981708F479CF09
:103E200085E88093BC000AC085EC8093BC001092AA
:103E3000580304C0109256030E94231DFF91EF9176
:103E4000BF91AF919F918F917F916F915F914F91B2
:103E50003F912F910F900FBE0F901F9018951092C9
:103E6000580381E0809357031092320382E161E0AE
:103E70000E94441B83E161E00E94441BE9EBF0E0F7
:103E800080818E7F808380818D7F808388E4809392
:103E9000B80085E48093BC000895A0E0B0E0E3E5BD
:103EA000FFE10C94EB32382E962E842EF90184E635
:103EB000E816F1042CF082EBE81A87E0F80A03C058
:103EC0008EE1E80EF11CE092B7020093B602E09397
:103ED000B5023092B3029092B2028092B102AE2D3E
:103EE000B0E020E833E341EE51E00E94D7322B01ED
:103EF0003C0122EB37E0FF2484E6C82ED12CC0E938
:103F0000D1E0C901825B97408E159F05DCF4C901A1
:103F100083709927892B99F4C901B6010E94F63361
:103F2000892B31F4C901BE010E94F633892B39F483
:103F300080E8480E81E5581E81E0681E711C2F5FE5
:103F40003F4FDFCF8EE4E81A88EFF80AC70164E636
:103F500070E00E94F6336C01C70160E971E00E94D5
:103F6000F6335C01C1E0D0E0112783E0E822FF24B2
:103F7000C017D1072CF5C230D10589F4E114F10442
:103F800071F4C114D10419F4A114B10441F480E80E
:103F9000480E8BE3581E86E2681E711C0FC0DE01BE
:103FA000A154BE4FAC91B0E020E831E541E050E0D3
:103FB0000E94D732460E571E681E791E2196D8CF12
:103FC000292D30E0ACE3B0E00E9421336B017C018D
:103FD000C80CD11CE11CF11C232D30E0A0E1BEE097
:103FE0000E942133C60ED71EE81EF91EDF01BB2733
:103FF000119720E831E541E050E00E94E232DC0117
:10400000CB018C0D9D1DAE1DBF1DBC01CD01640DEE
:10401000751D861D971D0E94DA1DCDB7DEB7E1E143
:104020000C940733CF92DF92EF92FF920F931F937E
:104030000E943D1CC090A302D090A402E090A50273
:10404000F090A6028B019C010C191D092E093F0955
:104050008091AD029091AE02A091AF02B091B002FA
:10406000083E134021053105D0F00196A11DB11D78
:104070008093AD029093AE02A093AF02B093B002D2
:10408000B701A60148515C4F6F4F7F4F4093A30289
:104090005093A4026093A5027093A602C9CF4091E9
:1040A000A9025091AA026091AB027091AC028417F0
:1040B0009507A607B70788F1E091A102F091A20247
:1040C000309759F10995611571058105910519F030
:1040D0000E94DA1D22C08091AD029091AE02A091A3
:1040E000AF02B091B002845D9E4FAF4FBF4F80933F
:1040F000A9029093AA02A093AB02B093AC0281E014
:1041000090E02091A7023091A802232B11F480E0C7
:1041100090E09093A8028093A7026091AD02709105
:10412000AE028091AF029091B0021F910F91FF906B
:10413000EF90DF90CF900895A0E0B0E0E2EAF0E2E7
:104140000C94EC324B015C0180919D0290919E0297
:10415000A0919F02B091A00288169906AA06BB06FC
:1041600009F4C2C08CE3C82ED12CE12CF12CC5017E
:10417000B401A70196010E9496326093B102CA0170
:10418000B901A70196010E9496326093B202CA015A
:10419000B90128E130E040E050E00E949632690128
:1041A0007A016093B302CA01B9016C5F7F4F8F4FF0
:1041B0009F4F27E030E040E050E00E9496326F5F72
:1041C0006093B402412C512C320140E004E610E02F
:1041D000C0E9D1E0242F30E02E54384FF901E370CC
:1041E000FF27309789F4C901B8010E94F633892B63
:1041F00031F4C901BE010E94F633892B29F48EE601
:1042000091E0A0E0B0E004C08DE691E0A0E0B0E075
:10421000480E591E6A1E7B1ED301C201AA27BB2766
:10422000C816D906EA06FB0610F04F5FD3CF4093BD
:10423000B702309799F4C90164E670E00E94F63342
:10424000892B39F4C90160E971E00E94F633892BAA
:1042500029F48EE691E0A0E0B0E004C08DE691E0A4
:10426000A0E0B0E0481A590A6A0A7B0AC418D508C7
:10427000E608F708C90164E670E00E94F633EC0135
:10428000C90160E971E00E94F633A0ECB1E020E0E2
:10429000213039F4309749F4209729F4009729F414
:1042A00002C04C9103C04DE101C04CE150E060E020
:1042B00070E0C416D506E606F70640F0C41AD50A23
:1042C000E60AF70A2F5F11962C3011F72F5F209323
:1042D000B602C394C092B50280929D0290929E0253
:1042E000A0929F02B092A002CDB7DEB7E0E10C949D
:1042F00008330E9412200E949C208091B2020895EF
:104300001F920F920FB60F9211240F931F932F93AA
:104310003F934F935F936F937F938F939F93AF934D
:10432000BF93EF93FF930E943D1C20919B0230911D
:104330009C02890120E030E0601771078207930733
:10434000B8F080916F008D7F80936F0082E0809342
:10435000810081E080938000E0919902F0919A02BF
:104360009081809198028095892380831092980291
:10437000E0919902F0919A029081809198028927A8
:104380008083FF91EF91BF91AF919F918F917F912A
:104390006F915F914F913F912F911F910F910F90CE
:1043A0000FBE0F901F90189580EF91E090937C03C3
:1043B00080937B038BE793E00E940D1D0895A1E09D
:1043C000B0E0E5EEF1E20C94F83200919602109123
:1043D0009702080F111DC80169830E94703269811C
:1043E000681719F0C8010E9478322196E4E00C9415
:1043F00014332091960230919702A901480F511D64
:10440000CA010E9470320895A1E0B0E0EAE0F2E251
:104410000C94F832182F062F79830E9488298DEC8E
:1044200093E069810E94AA1D8DEC93E0602F0E94A9
:10443000AA1D0E942B29812F90E061E070E00E946C
:10444000092A8DEC93E00E94651D2196E4E00C940E
:1044500014335E9886E490E00E94B02B0895A1E0AA
:10446000B0E0E5E3F2E20C94F83289830E9429225D
:1044700083E060E0498120E030E000E010E00E944D
:10448000542A84E60E94A41380919502882319F08F
:1044900081E00E94F52A80919402882349F081E10D
:1044A00064E040E020E030E000E010E00E94542AA8
:1044B0002196E4E00C9414338EE00E94E82A84E60E
:1044C0000E94A413109294021092950210929302EB
:1044D00084E00E94F52A08955F9810929202089550
:1044E0000E94D919109291020895CF93DF930E94F0
:1044F000E51980918F02909190022AE0289FE001B7
:10450000299FD00D1124CE52D2420E949D19209194
:10451000AF033091B00322273E7F3068CE016AE0BE
:1045200070E00E94E233262B372B3093B0032093A8
:10453000AF030E947B190E949D198091BD03909149
:10454000BE0396FFF8CF0E949D198091AF03909112
:10455000B0039F779093B0038093AF030E947B19C1
:104560000E949D198091BD039091BE0396FDF8CFE6
:10457000DF91CF910895CF93823009F477C038F45A
:10458000882321F1813009F0B8C0CAE060C08430CE
:1045900009F48BC008F472C0853009F0AEC088E51C
:1045A00092E068EC70E041E028EC30E00E94132FCC
:1045B00084EF91E068EC70E041E028EC30E00E948C
:1045C000132F80E991E068EC70E092C086E091E002
:1045D0006AEF70E041E02DE431E00E94132F84EC9B
:1045E00090E06DE770E041E027EA30E00E94132F91
:1045F00084EC90E06DE770E041E027EA30E00E9453
:10460000132F8CED90E06AEF70E041E02DE431E093
:104610000E94132F84EC90E06AEF70E041E02AE9F9
:1046200032E00E94132F87EF90E06AEF70E041E0E4
:104630002DE431E00E94132F86E091E06AEF70E0F4
:1046400041E02DE431E057C0C15009F456C088EB79
:1046500091E062E370E041E024E630E00E94132F35
:1046600080918E02843081F7C0E0EECF88EB91E03C
:1046700068EC70E041E024EF31E03DC088E592E075
:1046800064E670E041E024E630E00E94132F8CEBFA
:1046900092E064E670E041E024E630E00E94132FEF
:1046A00080E293E064E670E023C088E592E060E594
:1046B00070E041E024E630E00E94132F80E991E0B1
:1046C00060E570E041E024E630E00E94132F84EFC3
:1046D00091E060E570E041E024E630E00E94132FB5
:1046E00080E991E060E570E041E028EC30E003C053
:1046F00041E02CE231E00E94132FCF910895A0E019
:10470000B0E0E5E8F3E20C94F332EC01D62E23E0BE
:10471000621711F064E601C06AE180E00E946E2C2D
:1047200091E0D91203C09CE301E002C090E500E0F3
:104730007E012CE3E20EF11C20E5829FE00CF11CCF
:104740001124899FC00DD11D112410E0CC24C394E5
:10475000C00E82E0B82EB00EEC1AFD0A80E5BE0154
:104760000E940422482F812F602F0E942C2D80E56B
:10477000BE016C5E7F4F0E940422482F812F6C2D5A
:104780000E942C2D80E5BE01685D7F4F0E940422AF
:10479000482F812F6B2D0E942C2D81E08D1558F410
:1047A00080E5B7016C0F7D1F0E940422482F812FE6
:1047B00063E00E942C2D1F5F2196143179F681E071
:1047C00061E00E941315CDB7DEB7E9E00C940F331A
:1047D0000F931F93CF93DF93EC018C01065F1F4F64
:1047E000C017D10750F480E5BE010E940422803238
:1047F00011F00E94D52B2196F3CFDF91CF911F911D
:104800000F910895CF92DF92EF92FF921F93CF9373
:10481000DF9382E991E00E94142D81E094E00E94F0
:104820004D2C82E061E00E942E2B83EF93E00E94EA
:104830004D2C82E062E00E942E2B8EEE93E00E94CF
:104840004D2C82E063E00E942E2B88EE93E00E94C4
:104850004D2CC0E0DAE014E180918E02843009F43E
:104860006FC183E061E00E942E2B80910A038823B0
:1048700019F084EE93E002C080EE93E00E944D2C8C
:1048800080910903811102C040E201C048E58DE03A
:1048900061E00E942C2D88E062E00E942E2B809126
:1048A00008038A3010F40E940C2D809108036AE0FE
:1048B00070E00E9464198AE30E94D52B809107035F
:1048C0008A3010F40E940C2D809107036AE070E09A
:1048D0000E94641988E063E00E942E2B80910603F9
:1048E0008A3010F40E940C2D809106036AE070E07B
:1048F0000E9464198AE30E94D52B809105038A30B7
:1049000010F40E940C2D809105036AE070E00E9473
:104910006419C23048F480E062E040E20E942C2D2D
:1049200080E061E00E942E2B8EEF8C0F843068F4C3
:1049300080E061E040E20E942C2D80E063E040E2F4
:104940000E942C2D80E062E009C0C63048F080E073
:1049500062E040E20E942C2D80E063E00E942E2B5A
:104960008EE70E94D52BCC2ED12C8AE0C816D1041C
:10497000D8F4F601E859FF4F0C940A3483E001C0E3
:104980008DE061E00FC088E003C089E001C08BE0EA
:1049900062E008C088E005C089E003C08BE001C088
:1049A0008CE063E00E942E2B80E061E00E941315F2
:1049B00080918E02823009F4B9C0833009F4BBC003
:1049C000813009F049CF8AE0C816D10408F08FC0C1
:1049D000F601EE58FF4F0C940A3490910A0381E0DF
:1049E000892780930A0383C09091090381E0892776
:1049F000809309037CC0809108038E3020F4865F89
:104A00008093080374C06D2F0E94D63390930803DF
:104A10006EC020910803822F6D2F0E94D6339930EB
:104A200011F4295001C02F5F2093080380910803DF
:104A3000883109F05CC01093080359C080910703C6
:104A4000813320F4865F8093070351C06D2F0E944D
:104A5000D633909307034BC020910703822F6D2F0D
:104A60000E94D633993011F4295001C02F5F209352
:104A700007033DC0809106038E3020F4865F80934B
:104A8000060335C06D2F0E94D633909306032FC0C6
:104A900020910603822F6D2F0E94D633993011F496
:104AA000295001C02F5F20930603809106038831AF
:104AB000F1F4109306031BC080910503813320F4A9
:104AC000865F8093050313C06D2F0E94D6339093A9
:104AD00005030DC020910503822F6D2F0E94D63350
:104AE000993011F4295001C02F5F209305038BE00A
:104AF00060910A030E94DF218CE0609108030E940C
:104B0000DF218DE0609107030E94DF218EE060913C
:104B100006030E94DF218FE0609105030E94DF21E0
:104B20008CE1609109030E94DF2196CEC93008F024
:104B300093CECF5F91CECC2309F48ECEC1508CCED4
:104B400080E062E071E00E948B2BDF91CF911F919A
:104B5000FF90EF90DF90CF900895CF93DF93C82F11
:104B60000E94262B8EE70E94D52B8CEC93E00E94AE
:104B70004D2C81E160E00E942E2B0E94812BC130E0
:104B800019F48091040302C0809103036AE070E08D
:104B90000E9464190E94292281E080930203D0E0E0
:104BA00080918E028430F1F18FE060E00E942E2B24
:104BB00081E061E00E94131580918E02813081F7BF
:104BC000C130A9F490910403953019F410920403B4
:104BD00003C09F5F90930403809104036AE070E038
:104BE0000E946419809104030E94BB2219C0909115
:104BF00003039A3019F41092030303C09F5F90934C
:104C00000303809103036AE070E00E9464198091BD
:104C10009302811105C0809103038F5F0E942F22B0
:104C2000D1E0BECFDD2359F0C13021F487E060919F
:104C3000040303C083E1609103030E94DF2180919C
:104C40009302811103C08EE00E94E82A10920203B1
:104C5000DF91CF910895ADE0B0E0E1E3F6E20C948E
:104C6000F532E82E81E06AE471E00E948B2B82E04D
:104C700062E571E00E948B2B83E062E471E00E94A8
:104C80008B2B8AE791E00E94142D84E063E00E9460
:104C90002E2B8FEB93E00E944D2C8BE063E042E0E3
:104CA0000E942C2D80910103882319F032E0F32E0D
:104CB00002C0FF24F39480919302811102C04C99A9
:104CC000FECF0E94812B28E2D22E80918E0284306A
:104CD00009F4A5C182E060E00E942E2B81E0E81279
:104CE00067C0809101018A3010F40E940C2D8091E0
:104CF00001016AE070E00E9464190E94102D609129
:104D0000010170E06F5C7F4F660F771F87E50E949F
:104D100004226AE070E00E9464198AE30E94D52BA5
:104D20006091010170E0660F771F6D597F4F87E535
:104D30000E9404228A3020F48D870E940C2D8D85DC
:104D40006AE070E00E9464190E94102D00E010E0FB
:104D50008091010190E00197D89EB001D99E700D1D
:104D600011246D5D7E4F600F711F87E50E94042244
:104D7000482F802F61E00E942C2D8091010190E04E
:104D80000197D89EB001D99E700D1124600F711F3C
:104D9000695C7E4F87E50E940422482F802F62E0E5
:104DA0000E942C2D0F5F1F4F0431110589F659C049
:104DB00082E0E8124FC04C9909C080910103811133
:104DC00005C080919402882309F42FC18091940238
:104DD000882329F089EB93E00E944D2C14C084E6CF
:104DE0000E94A41382E560E040E09E012F5F3F4FE8
:104DF0000CE010E00E94542A8AE993E0BE016F5F44
:104E00007F4F0E94C72F87E062E00E942E2B4C9BB1
:104E100005C080919402882309F421C1809100018A
:104E20008A3010F40E940C2D809100016AE070E03D
:104E30000E9464198FE20E94D52B8091FF028A3074
:104E400010F40E940C2D8091FF026AE070E00E9435
:104E5000641907C083E0E81204C08BEA93E00E9463
:104E60004D2C8FE060E00E942E2B8091010388235F
:104E700029F085EA93E00E944D2C05C08FE060E0A8
:104E800045E00E94202D4C9906C0809101038111BC
:104E900002C043E001C041E088E063E00E942C2DA5
:104EA0008F2D880F8F0D8B5F63E00E942E2B81E08A
:104EB00061E00E94131580918E02823009F49CC03B
:104EC000833009F4A3C0813009F0FFCEF816A9F1B0
:104ED000F81648F082E0F81609F455C083E0F81699
:104EE00009F458C0F2CE81E0E81207C080910101B8
:104EF000823008F45BC0815057C082E0E81611F0A0
:104F0000F12CE3CE80910001823018F08150809323
:104F1000000180919402882329F01092940281E08C
:104F2000809395024C9BECCF9091000180910003FF
:104F3000890F81590E942F22C8CE80919102811140
:104F40000E9470224C991AC081E0E81205C0E092DC
:104F50009402809101010BC082E0E8120BC081E055
:104F6000809395029091000180910003890F8159EF
:104F70000E942F2281E08093930202C00E945C2253
:104F80000E946C22A2CE4C9974C0809101038111C1
:104F900070C09BCE81E0E81217C080910101909112
:104FA0000003891718F48F5F8093010180919502A7
:104FB000882329F01092950281E0809394024C9B03
:104FC00084CE80910101B5CF82E0E8127ECE80913F
:104FD00000019091FF02891718F48F5F8093000100
:104FE00080919402882329F01092940281E08093AA
:104FF00095024C9B6ACE98CF80910103811165CEBA
:1050000082E08F1508F461CEF3945FCE80910103A6
:1050100081115BCEFF2009F473CFFA9456CE0E9423
:10502000F72C2D96E7E00C9411334091000350E0EB
:1050300041595F4F80910001480F511D83E0652F5A
:1050400020E030E000E010E00E94542A84E60E9454
:10505000A4130E945C2284E60E94A413B7CE84E6C7
:105060000E94A4138BE40E94CC2A875980930001EC
:10507000D5CE8091910281110E947022809101030E
:10508000882329F05E98109201038DE004C081E02E
:10509000809301038EE00E94E82A17CE8F929F92A0
:1050A000AF92BF92CF92DF92EF92FF92CF93DF93B6
:1050B0006B017C010E943D1C4B015C018BE793E07E
:1050C0000E943C18EC01892B69F40E943D1CAB0145
:1050D000BC01481959096A097B094C155D056E0523
:1050E0007F0560F3CE01DF91CF91FF90EF90DF90CD
:1050F000CF90BF90AF909F908F9008951092D00363
:105100001092CF0388EE93E0A0E0B0E08093D1034B
:105110009093D203A093D303B093D40320EE31E055
:105120003093CE032093CD0325E02093A60322E104
:105130002093A70323E12093A80310929D031092CC
:105140009C0320E132E030939B0320939A0310925A
:105150009E0324E12093A30324E02093A40328E0EA
:105160002093A50310927E0310927D0380937F030A
:1051700090938003A0938103B093820380EF91E02A
:1051800090937C0380937B0310929203109291037F
:105190001092940310929303109296031092950329
:1051A0001092980310929703609199036E7F6D7F20
:1051B000609399036695617081E0682783E00E949F
:1051C000441B83E061E00E94901BEAE3F4E0E49179
:1051D000E0938B03E6E2F4E0E491F0E0EE0FFF1FD2
:1051E000E15FFB4F8591949190938D0380938C03A5
:1051F00082E060E00E94901B8091990381FD04C0D1
:1052000082E061E00E94441B82E080938703E9E32F
:10521000F4E0E491E0938803E5E2F4E0E491F0E067
:10522000EE0FFF1FE75EFB4F8591949190938A03E9
:105230008093890380E092E090937C0380937B03CA
:105240001092CC031092CB031092CA031092C903A0
:105250000E942F1F089590917A032091C903213253
:1052600008F04AC0809158038111FCCF32E030939E
:10527000580331E0309357033FEF309356031092B9
:10528000550320935403AAE5B3E044E353E0FA0145
:105290003E2F341B321718F43D913193F9CF109201
:1052A000330320913303990F922B90933303909102
:1052B0003203913061F41092320390913303909352
:1052C000BB009091BC0093FDF8CF95EC01C095EE2A
:1052D0009093BC00909158039230E1F39091560363
:1052E0009F3F79F080915603803241F080915603C0
:1052F000803331F084E005C081E003C082E001C06A
:1053000083E01092CA031092C903109259030895C2
:1053100091E09093590380937A031092CA031092FC
:10532000C90308950F931F93CF9388E60E9488299D
:105330008DEC93E060E00E94AA1D0BE213E0F801FF
:105340008081CAE06C2F0E94D633692FF0E18F9FD5
:10535000600D11248DEC93E00E94AA1DF80181815B
:105360006C2F0E94D633692FF0E18F9F600D1124BE
:105370008DEC93E00E94AA1DF80182816C2F0E949F
:10538000D633692FF0E18F9F600D11248DEC93E0EF
:105390000E94AA1DF80183816C2F0E94D633692FC9
:1053A000F0E18F9F600D11248DEC93E00E94AA1D07
:1053B000F80184816C2F0E94D633692FF0E18F9F12
:1053C000600D11248DEC93E00E94AA1DF8018581E7
:1053D0006C2F0E94D633692FF0E18F9F600D11244E
:1053E0008DEC93E00E94AA1DF80186818E516C2FEE
:1053F0000E94D633692FF0E18F9F600D11248DEC50
:1054000093E00E94AA1D0E942B29CF911F910F911A
:105410000895909158039111FCCF613208F060E239
:1054200091E090935803909357032FEF20935603E6
:1054300010925503260F20935403909333039091B9
:105440003303880F892B809333038091320381309B
:1054500061F410923203809133038093BB008091FA
:10546000BC0083FDF8CF85EC01C085EE8093BC00C5
:10547000809158038130E1F380915503861710F431
:1054800060915503A4E3B3E02BE033E0F9018E2FE4
:10549000821B861718F48D918193F9CF1092CC035B
:1054A0006093CB03862F0895A0E0B0E0EAE5FAE22E
:1054B0000C94F432E82EC62ED42EE901EDEFE80F5D
:1054C000E03128F4F0E0E453FE4FF08001C0F12C0D
:1054D0006AE070E080E090E00E944E28892B29F07D
:1054E0008BE793E00E945418F3CF8BE793E06EE7CD
:1054F0000E94E8178BE793E062E06F0D0E94E817C7
:105500008BE793E06E2D0E94E817FF2069F08BE790
:1055100093E06C2D0E94E81782E0F81205C08BE73B
:1055200093E06D2D0E94E8178BE793E06FEE0E94E9
:10553000E817209749F00115110531F0CE0160E020
:1055400070E0A8010E94103468EE73E080E090E003
:105550000E944E28E12CF12C0150110962E370E009
:1055600080E090E00E944E28892B89F08BE793E041
:105570000E945418209791F3E016F10678F7FE0187
:10558000EE0DFF1D8083C70101967C01E7CFCDB7EB
:10559000DEB7E8E00C941033A5E0B0E0E2EDFAE20B
:1055A0000C94F83260E040E09E012F5F3F4F05E031
:1055B00010E00E94542ACE01019660E070E040E1C4
:1055C00050E00E942730CB012596E4E00C94143380
:1055D0000F931F9360E040E020E030E000E010E037
:1055E0000E94542A1F910F9108950F931F93682FC3
:1055F00081E140E020E030E000E010E00E94542A29
:105600001F910F9108951092A5038AE993E060E03D
:105610000E94DD2F089588E08093A5038AE993E036
:1056200060E00E94DD2F0895CF93C82F682F607F20
:105630008AE993E00E94F72F80E1C89FB00111240E
:105640008AE993E00E94F72FCF91089581E00E94AC
:10565000142B8BE39FE10197F1F70895A8E0B0E0E8
:10566000E4E3FBE20C94FA3298E0EAE9F1E0DE01CF
:10567000119601900D929A95E1F79091A2039617D9
:1056800010F46FEF690FFE013196E60FF11DE60F82
:10569000F11D9081890F80680E94142B2896E2E00A
:1056A0000C941633CF93DF93CAE9D3E08E818B7FBE
:1056B0008E8388600E94142B1B86CE0160E00E94BE
:1056C000DD2FDF91CF910895CF93DF93CAE9D3E027
:1056D0008E81982F94609E838C600E94142B88E0AA
:1056E0008B87CE0160E00E94DD2FDF91CF9108957E
:1056F000EAE9F3E086818E7F868388600E94142B1E
:105700000895EAE9F3E08681982F91609683896095
:105710000E94142B0895A2E0B0E0E1E9FBE20C94B2
:10572000F632877028E0829FC0011124806469836B
:105730007A830E94142B6981E62E7A81F72E8701E5
:10574000085F1F4FF70161917F018AE993E00E9492
:105750001030E016F106B1F72296E6E00C94123311
:105760008F929F92AF92BF92CF92DF92EF92FF9271
:105770006C010E943D1C4B015C01E12CF12C0E944C
:105780003D1CDC01CB0188199909AA09BB098C15BC
:105790009D05AE05BF0598F3FF90EF90DF90CF9089
:1057A000BF90AF909F908F900895682FE0919A03DB
:1057B000F0919B030190F081E02D8AE993E0099537
:1057C00008958F929F92AF92BF920F931F93CF93A2
:1057D000DF93CDB7DEB7A1970FB6F894DEBF0FBE4B
:1057E000CDBF19A2423008F44AE08E010F5D1F4F71
:1057F000842E912CA12CB12CA50194010E949632EB
:10580000E62FB901CA0101501109EA3014F4E05D34
:1058100001C0E95CD801EC93232B242B252B61F7E5
:105820008AE993E0B8010E94C72FA1960FB6F894B9
:10583000DEBF0FBECDBFDF91CF911F910F91BF9003
:10584000AF909F908F900895CF92DF92EF92FF924A
:10585000CF93DF936C01990FEE08FF08F7FE11C09C
:105860008DE20E94D52BEC0166277727CB016C19BE
:105870007D098E099F094AE00E94E12B8C0F9D1F34
:1058800005C0C701B6014AE00E94E12BDF91CF912C
:10589000FF90EF90DF90CF9008950F931F93CF93D9
:1058A000DF938C01C0E0D0E0F801EC0FFD1F6491A4
:1058B000662371F0E0919A03F0919B030190F081CF
:1058C000E02D8AE993E00995892B11F02196ECCF20
:1058D000CE01DF91CF911F910F910895A0E0B0E02C
:1058E000E4E7FCE20C94F032962F3FB7F894409135
:1058F000830250918402609185027091860226B5E0
:10590000A89B06C02F3F21F04F5F5F4F6F4F7F4F27
:105910003FBF762F652F542F4427420F511D611D25
:10592000711DE2E0440F551F661F771FEA95D1F7FE
:10593000EA01CC0FDD1FCC0FDD1F4C275D27EA01EC
:10594000CC0FCD2FCC1FDD0BD195C427D5277E01E1
:10595000F694FE2CEE24F794E794082F10E0692FBC
:1059600070E0601B710B072E000C880B990B0E94D6
:10597000533120E830E040E857E30E94B2314B0158
:105980005C01CE25DF25BE0180E090E00E94513110
:105990009B01AC01C501B4010E94B2316B017C01D5
:1059A000B801110F880B990B0E9453319B01AC0178
:1059B000C701B6010E9431330E949D33862FCDB7B7
:1059C000DEB7ECE00C940C3380E090E00E94CC1B3E
:1059D0000E94522B81E080932102109226020895AA
:1059E0000E94262B82E060E00E942E2B08950F93E8
:1059F0001F93CF930E94262B02E011E0C0E08C2F72
:105A0000B8010E948B2BCF5F085F1F4FC830B9F7DA
:105A1000CF911F910F91089580E30E94D52B089597
:105A200080E20E94D52B0895BC0180E00E948B2B60
:105A30000E94262B80E00E94D52B0E94102D0895F5
:105A4000CF93C42F0E942E2BCC2321F00E94102D27
:105A5000C150FACFCF910895A1E0B0E0E2E3FDE2BA
:105A60000C94FA3249830E942E2B4981842F0E9484
:105A7000D52B2196E2E00C941633CF93C82F0E94C9
:105A8000131380910103811106C04C9904C08091C9
:105A90009302811146C1809134029091350205979D
:105AA0000CF4C1E04C990DC080919102811109C0A4
:105AB00080919202811105C080910203882309F42C
:105AC00033C180912402882309F4FAC08091020333
:105AD0008111F6C00E9421122091DC039091DB031A
