:100000000C9408020C9430020C9430020C944706B5
:100010000C9447060C9447060C94001D0C94300277
:100020000C9430020C9430020C9430020C94A31AFD
:100030000C9430020C9430020C9430020C94300278
:100040000C94FD050C9430020C9430020C94300298
:100050000C9430020C9430020C9430020C94300258
:100060000C94D7060C9430021B271E272127242727
:10007000262729272C272F273227352738275A27A5
:100080006727782784278F279B27B127C227C72771
:10009000D927C42B072C3E2C7C2CB32CC92CDD2C4F
:1000A00022032B033F0359036503710383038F036B
:1000B0009803B203C703D903F303C008C308C608F3
:1000C000C808CA08CC08CE08D108D408D708F40854
:1000D000FB08020910092509330941094F09630981
:1000E000710942697274686461790048617070795D
:1000F0000044696420796F75206B6E6F7720746897
:1001000061742E2E2E004920616D20686572652174
:1001100000506C61792073746F726965730041558A
:100120005820696E70757400506C6179206F776E1D
:100130002066696C657300506C6179207261646936
:100140006F005B205D204D5033005B205D205261CD
:1001500064696F005B205D2042656570005B6F66BF
:10016000665D005B6F6E205D004D50330052616430
:10017000696F00546F6E6500416C61726D20746F21
:100180006E65205B20202020205D004E6577206179
:100190006C61726D2074696D65006F6666006F6ECC
:1001A00020003230004E696768746D6F6465205BB3
:1001B0002020205D004E65772074696D652F646195
:1001C000746500543A2000426174743A0020543A35
:1001D000200052414D3A2020004932433A20002D60
:1001E000313230353136004669726D776172653A69
:1001F00020006279204E696B6F6C616920526164E6
:100200006B65004E4F4B4F2062656C6F6E677320BD
:10021000746F004D79204E4F4B4F004469737461E9
:100220006E6365206C69676874205B205D005369AC
:100230006C656E742020202020202020205B205D13
:1002400000506F7765722073617665202020202032
:100250005B205D006D6F72652E2E2E0044697374F5
:10026000616E6365202B2F2D205B205D0045766538
:100270006E74732020202B2F2D205B205D004C45B9
:10028000442020202020202B2F2D205B205D005398
:100290006574204E4F4B4F0053657420636C6F6341
:1002A0006B0053657420616C61726D00506C6179F4
:1002B00020736F6D657468696E6700507265737343
:1002C000206E6F73650020746F2056002055706497
:1002D00061746520636F6D706C6574656400000007
:1002E0000000240027002A0000000008000201008E
:1002F0000003040700000000000000005361747553
:10030000726461790046726964617900546875723B
:1003100073646179005765646E6573646179005434
:10032000756573646179004D6F6E64617900537512
:100330006E646179004572720035032E0327031F36
:100340000315030C030503FC025041555345004EB1
:100350006F204D50337320666F756E640053746F59
:100360007279005B3C5D5B205D5B205D5B3E5D0008
:1003700020416C61726D20746F6E65202B2F2D20D3
:100380005B205D006F6666006F6E2000756E74699D
:100390006C0066726F6D005B2020205D2044696DEB
:1003A000205B205D00536574206E696768746D6F13
:1003B00064650020416C61726D200050726573733A
:1003C000204E6F7365004269727468646179210020
:1003D00000000000250028002B0000000000230082
:1003E0002600290004040404040404040202020296
:1003F00002020303030303030102040810204080E8
:10040000010204081020010204081020312D052EDD
:1004100011241FBECFEFD8E0DEBFCDBF12E0A0E0B9
:10042000B1E0E6E0F5E602C005900D92A831B10713
:10043000D9F723E0A8E1B2E001C01D92A13DB207C7
:10044000E1F712E0C7E0D2E004C02197FE010E946C
:100450002F2EC630D107C9F70E94661E0C94763243
:100460000C940000CF92DF92EF92FF920F931F93B4
:10047000CF93DF936C017A018B01C0E0D0E0CE1501
:10048000DF0589F0D8016D918D01D601ED91FC91C8
:100490000190F081E02DC6010995892B11F47E01B0
:1004A00002C02196ECCFC701DF91CF911F910F9130
:1004B000FF90EF90DF90CF900895209150023091FF
:1004C00051022817390771F490914F0280914E0222
:1004D000981741F0E0914F02F0E0E458FD4F808121
:1004E00090E008958FEF9FEF089508951F93CF93A5
:1004F000DF93DC015C962D913C915D9721153105D0
:1005000039F481E090E013969C938E9312973DC04E
:100510005196ED91FC91529750969C915097892F4E
:1005200080951FB75E964C915E9741FB772770F9D7
:1005300041FD6095F8944081772311F0492B01C06B
:1005400048234083E9012197F1F748E0508160FF9B
:1005500002C0592B01C058235083E9012197F1F7BC
:100560006695415099F7772321F090818923808304
:1005700003C08081982B90831FBF5C968D919C91C6
:100580005D970197F1F721E030E0C901DF91CF914C
:100590001F91089520915002309151022817390778
:1005A00071F480914E0220914F0290E0805C9F4F49
:1005B000821B910960E470E00E941B2E089580E088
:1005C00090E0089520915002309151022817390788
:1005D000B9F490914F0280914E02981789F0E09102
:1005E0004F02F0E0E458FD4F808120914F0230E04F
:1005F0002F5F3F4F2F73332720934F0290E00895D2
:100600008FEF9FEF08950E94612FCF93C62F8093A5
:10061000C2021092C10243E060E00E94A30F609109
:10062000C1026F5F43E08091C2020E94A30F8C2F32
:1006300090E08D30910508F0ECC0FC01E05BFF4FCD
:100640000C942F2E40E06091C1028091C2020E9462
:10065000B00F81E075C041E06091C1028091C2029B
:100660000E94B00F82E00E94A3166091C1026F5FEA
:1006700044E08091C2020E94B00F87E016C046E0BD
:100680006091C1028091C2020E94B00F86E00E9478
:10069000A31682E00E94A3166091C1026F5F43E03F
:1006A0008091C2020E94B00F84E00E94A31684E0F1
:1006B000ADC046E06091C1028091C2020E94B00FBD
:1006C00086E00E94A31682E017C043E06091C10259
:1006D0008091C2020E94B00F84E00E94A31687E0BE
:1006E0004CC043E06091C1028091C2020E94B00FF1
:1006F00086E00E94A31686E00E94A3166091C102C4
:100700006F5F44E026C040E06091C1028091C20268
:100710000E94B00F86E00E94A31686E014C041E05C
:100720006091C1028091C2020E94B00F81E022C09C
:1007300040E06091C1028091C2020E94B00F86E049
:100740000E94A31682E00E94A3166091C1026F5F0F
:1007500043E08091C2020E94B00F84E00E94A31681
:1007600085E054C040E06091C1028091C2020E94C5
:10077000B00F86E00E94A31682E00E94A31660914B
:10078000C1026F5F8091C20247E08E5F0FC080910F
:10079000C20244E06091C1028F5F0E94B00F60917D
:1007A000C1026F5F8091C20244E08F5FCF910C94D1
:1007B000B00F40E06091C1028091C2020E94B00F70
:1007C00082E00E94A31680E00E94A3166091C102FD
:1007D0006F5F47E08091C2020E94B00F83E00E94E9
:1007E000A31687E013C047E06091C1028091C20266
:1007F0000E94B00F80E00E94A3166091C1026F5F5B
:1008000047E08091C2020E94B00F83E0CF910C9428
:10081000A316CF910895AB01672B59F4E0917B03A8
:10082000F0917C030190F081E02D682F8BE793E03D
:100830000994682F70E080E090E00C94AE164F921F
:100840005F926F927F928F929F92AF92BF92CF9260
:10085000DF92EF92FF926B017C01B42E9B01AC0101
:100860000E945C2F882319F06AE072E027C02601FD
:100870003701E89477F82FEF3FEF4FE75FE7C301C9
:10088000B2010E945C2F81110DC02FEF3FEF4FE7A7
:100890005FE7C301B2010E94923018161CF46EE0AB
:1008A00072E00CC02FEF3FEF4FE75FE4C701B601E6
:1008B0000E94572F181694F462E172E08BE793E0E0
:1008C000FF90EF90DF90CF90BF90AF909F908F9070
:1008D0007F906F905F904F900C94211D2FEF3FEF12
:1008E0004FE75FECC701B6010E94923087FDE4CF6D
:1008F00020E030E0A901C701B6010E94923087FFD5
:1009000009C08DE20E94A3164C01F7FAF094F7F8A3
:10091000F09402C0812C912CA12C60E070E080E06A
:100920009FE3AB1440F420E030E040E251E40E9449
:10093000B62EA394F6CF9B01AC01C701B6010E946D
:100940004A2E2B013C010E94282F6B017C010E9442
:1009500097309B01AC01C301B2010E94492E2B01CB
:100960003C014AE0C701B6010E94AE167C01E80CCA
:10097000F91CBB2041F066E172E08BE793E00E9436
:10098000211DE80EF91EDB2CDD2021F120E030E0F6
:1009900040E251E4C301B2010E94F8302B013C0156
:1009A0000E94282F4B01A12CB12C4AE0C501B401B3
:1009B0000E94AE16E80EF91EC501B4010E949730E0
:1009C0009B01AC01C301B2010E94492E2B013C01E5
:1009D000DA94DACFC701FF90EF90DF90CF90BF900D
:1009E000AF909F908F907F906F905F904F90089501
:1009F00090E0FC01E851FD4F3491FC01E850FC4FC0
:100A00002491FC01EC51FC4FE491EE2309F43BC02E
:100A1000332339F1333091F038F43130A9F03230EA
:100A200001F584B58F7D12C0373091F03830A1F0D8
:100A30003430B9F4809180008F7D03C080918000B4
:100A40008F77809380000DC084B58F7784BD09C0F7
:100A50008091B0008F7703C08091B0008F7D80932C
:100A6000B000F0E0EE0FFF1FE053FC4FA591B491F2
:100A70008FB7F894EC91611103C020952E2301C02B
:100A80002E2B2C938FBF0895CF93DF9390E0FC0122
:100A9000E850FC4F2491FC01EC51FC4F84918823D9
:100AA00061F190E0880F991FFC01E252FD4FC59162
:100AB000D491FC01E053FC4FA591B491611109C0A0
:100AC0009FB7F8948881209582238883EC912E2308
:100AD0000BC0623061F49FB7F8943881822F809503
:100AE00083238883EC912E2B2C939FBF06C08FB756
:100AF000F894E8812E2B28838FBFDF91CF91089542
:100B0000CF93DF93EC0161E08AE00E9444052097D7
:100B100011F460E004C0CF3FD10531F461E08AE018
:100B2000DF91CF910C94F804E2EFF2E0E491E3302E
:100B3000F9F048F4E130B9F0E230A1F584B5806213
:100B400084BDC8BD34C0E730E9F0E83019F1E430C5
:100B500049F580918000806280938000D0938B0063
:100B6000C0938A0024C084B5806884BDC7BD1FC0FF
:100B700080918000806880938000D0938900C0932A
:100B8000880015C08091B00080688093B000C09349
:100B9000B3000DC08091B00080628093B000C0931C
:100BA000B40005C0C038D1050CF0B8CFB2CFDF918A
:100BB000CF9108958E3008F08E50877080648093B6
:100BC0007C0080917A00806480937A0080917A0022
:100BD00086FDFCCF809178002091790090E0922BE7
:100BE00008952FB7F8946091BD027091BE02809174
:100BF000BF029091C0022FBF08951F920F920FB6AF
:100C00000F9211242F933F938F939F93AF93BF9392
:100C10008091BD029091BE02A091BF02B091C0022E
:100C20003091BC0223E0230F2D3720F40196A11D43
:100C3000B11D05C026E8230F0296A11DB11D20930A
:100C4000BC028093BD029093BE02A093BF02B093FA
:100C5000C0028091520290915302A0915402B0912F
:100C600055020196A11DB11D80935202909353022B
:100C7000A0935402B0935502BF91AF919F918F9171
:100C80003F912F910F900FBE0F901F9018951F92BC
:100C90000F920FB60F9211242F933F934F935F93B0
:100CA0006F937F938F939F93AF93BF93EF93FF9334
:100CB000E0915002F0915102309709F451C0968DA5
:100CC000A685B785858591FF04C09C91892329F469
:100CD00047C09C91892309F043C0A389B4899C91A2
:100CE0008589809589238C93868997890197F1F767
:100CF000608D718DA685B785558538E020E0CB01E4
:100D00000197F1F7822F90E095958795282F4C91C8
:100D1000452309F02068315091F7868D81FD20959B
:100D200080914E0290E001968F73992730914F0287
:100D3000381749F0A0914E02B0E0A458BD4F2C9353
:100D400080934E0203C0868D8160868F828D938D45
:100D50000197F1F7A389B4899C918589892B8C939C
:100D6000FF91EF91BF91AF919F918F917F916F9183
:100D70005F914F913F912F910F900FBE0F901F9059
:100D80001895E0915002F0915102E817F90769F4C3
:100D9000A389B4899C918589809589238C9310922D
:100DA00051021092500281E0089580E008951F9250
:100DB0000F920FB60F9211242F933F934F935F938F
:100DC0006F937F938F939F93AF93BF93EF93FF9313
:100DD0008091B900887F803609F49CC068F588321C
:100DE00009F45BC090F4803109F454C038F48823CE
:100DF00009F4F6C0883009F44DC0F6C0883109F412
:100E00004CC0803209F45DC0EFC0803409F468C082
:100E100048F4803309F455C0883309F0E5C0809365
:100E20003803D8C0803509F44FC0883509F45DC057
:100E3000883409F0D9C0D6C0883909F4C7C0A8F4ED
:100E4000883709F467C038F4883609F463C08037FE
:100E500009F460C0C9C0883809F4B8C0803909F401
:100E60005FC0803809F0C0C05BC0803B09F486C019
:100E700038F4803A09F466C0883A09F47FC0B4C0F7
:100E8000803C09F4A7C0883C09F4A4C0883B09F45D
:100E90008AC0AAC08091150310C090913703809139
:100EA0003603981770F5E091370381E08E0F809339
:100EB0003703F0E0EA5EFC4F80818093BB0085EC55
:100EC00086C0809338038EC0E091370381E08E0F97
:100ED000809337038091BB00F0E0EA5EFC4F808393
:100EE00090913703809136036EC0E091370381E023
:100EF0008E0F809337038091BB00F0E0EA5EFC4FD9
:100F000080838091390381116DC081E08093140347
:100F100084EA61C083E080933A0310927B02CFCFD2
:100F200080917B02803208F051C0E0917B0281E029
:100F30008E0F80937B028091BB00F0E0E55AFD4F5D
:100F40008083BDCF85EC8093BC0010923A038091E2
:100F50007B02803230F4E0917B02F0E0E55AFD4FF5
:100F6000108260917B0270E0E0915902F0915A0288
:100F70008BE592E0099510927B0236C084E0809365
:100F80003A031092580210924D02E0915602F091ED
:100F90005702099580914D02811105C081E080932F
:100FA0004D0210922D02E091580281E08E0F809345
:100FB0005802F0E0E35DFD4F80818093BB0090918B
:100FC000580280914D02981708F479CF85E88093F4
:100FD000BC000AC085EC8093BC0010923A0304C0A8
:100FE000109238030E941A18FF91EF91BF91AF91B0
:100FF0009F918F917F916F915F914F913F912F9131
:101000000F900FBE0F901F901895CF92DF92EF9226
:10101000FF921F93CF93DF9382E891E00E94950F98
:1010200085EA93E00E941F1761E082E00E940116AA
:1010300087E993E00E941F1762E082E00E94011698
:1010400082E993E00E941F1763E082E00E9401168C
:101050008CE893E00E941F17C0E0DAE014E1809171
:10106000A503843009F479C161E083E00E94011690
:101070008091D402882319F088E893E002C084E8C4
:1010800093E00E941F178091D302811102C040E2B9
:1010900001C048E561E08DE00E94B00F62E088E0A9
:1010A0000E9401168091D2028A3010F40E94920FA1
:1010B0006AE070E08091D2020E940B048AE30E94F1
:1010C000A3168091D1028A3010F40E94920F6AE038
:1010D00070E08091D1020E940B0463E088E00E94DE
:1010E00001168091D0028A3010F40E94920F6AE0BB
:1010F00070E08091D0020E940B048AE30E94A31644
:101100008091CF028A3010F40E94920F6AE070E062
:101110008091CF020E940B04C23048F440E262E0AA
:1011200080E00E94B00F61E080E00E9401168EEF27
:101130008C0F843060F440E261E080E00E94B00FE8
:1011400040E263E080E00E94B00F62E008C0C63079
:1011500048F040E262E080E00E94B00F63E080E08F
:101160000E9401168EE70E94A316CC2ED12C8AE095
:10117000C816D10400F5F601E35AFF4F0C942F2E48
:1011800061E083E016C061E08DE013C062E007C05B
:1011900062E008C062E009C062E00AC063E088E083
:1011A00008C063E089E005C063E08BE002C063E053
:1011B0008CE00E94011661E080E00E94AF128091F5
:1011C000A503823009F4BFC0833009F4C1C0813067
:1011D00009F045CF8AE0C816D10408F08FC0F601A7
:1011E000E959FF4F0C942F2E9091D40281E089276A
:1011F0008093D40283C09091D30281E089278093A9
:10120000D3027CC08091D2028E3020F4865F80931E
:10121000D20274C06D2F0E940F2E9093D2026EC026
:101220002091D202822F6D2F0E940F2E993011F43F
:10123000295001C02F5F2093D2028091D2028831C1
:1012400009F05CC01093D20259C08091D102813361
:1012500020F4865F8093D10251C06D2F0E940F2E23
:101260009093D1024BC02091D102822F6D2F0E940A
:101270000F2E993011F4295001C02F5F2093D10215
:101280003DC08091D0028E3020F4865F8093D002E2
:1012900035C06D2F0E940F2E9093D0022FC0209149
:1012A000D002822F6D2F0E940F2E993011F42950F9
:1012B00001C02F5F2093D0028091D0028831F1F4D9
:1012C0001093D0021BC08091CF02813320F4865F3F
:1012D0008093CF0213C06D2F0E940F2E9093CF02E8
:1012E0000DC02091CF02822F6D2F0E940F2E9930BA
:1012F00011F4295001C02F5F2093CF026091D402D6
:101300008BE090E00E94F81A6091D2028CE090E0AD
:101310000E94F81A6091D1028DE090E00E94F81AC4
:101320006091D0028EE090E00E94F81A6091CF02A6
:101330008FE090E00E94F81A6091D3028CE190E077
:101340000E94F81A8CCEC93008F089CECF5F87CEC4
:10135000CC2309F484CEC15082CE62E071E080E0FB
:10136000DF91CF911F91FF90EF90DF90CF900C9481
:101370006716CF93DF93C82F8BE793E00E94461D3B
:101380008EE70E94A31680E793E00E941F1760E09B
:101390008FE00E9401160E945D166AE070E0C13085
:1013A00019F48091CE0202C08091CD020E940B04FC
:1013B0000E942C1B81E08093CC02D0E08091A50399
:1013C0008430F1F160E08FE00E94011661E081E07D
:1013D0000E94AF128091A503813081F7C130A9F43A
:1013E0009091CE02953019F41092CE0203C09F5F07
:1013F0009093CE026AE070E08091CE020E940B04CE
:101400008091CE020E94711B19C09091CD029A303A
:1014100019F41092CD0203C09F5F9093CD026AE051
:1014200070E08091CD020E940B048091A60381118F
:1014300005C08091CD028F5F0E94311BD1E0BECFED
:10144000DD2369F0C13029F46091CE0287E090E09D
:1014500004C06091CD0283E190E00E94F81A80916F
:10146000A603811103C08EE00E94DB151092CC020E
:10147000DF91CF910895DF92EF92FF920F931F9328
:10148000CF93DF93CDB7DEB72D970FB6F894DEBFBD
:101490000FBECDBFE82E8091A603811102C04C99EA
:1014A000FECF6AE471E081E00E94671662E571E0B8
:1014B00082E00E94671662E471E083E00E94671692
:1014C0008AE791E00E94950F63E084E00E94011694
:1014D00083E693E00E941F1742E063E08BE00E94E6
:1014E000B00F8091CB02882319F092E0F92E02C050
:1014F000FF24F3940E945D1680E5D82E8091A50309
:10150000843009F4BFC181E0E81282C060E082E06B
:101510000E940116809101018A3010F40E94920FFE
:101520006AE070E0809101010E940B0480E20E9459
:10153000A3168091CA0290E00197D89EB001D99E6F
:10154000700D112480910101680F711D680F711DCC
:101550006E597F4F87E50E94FC1A6AE070E00E9496
:101560000B048AE30E94A3168091CA0290E00197BF
:10157000D89EB001D99E700D112480910101680F91
:10158000711D680F711D6D597F4F87E50E94FC1A10
:101590008A3020F48D870E94920F8D856AE070E07A
:1015A0000E940B0400E010E08091010190E001979F
:1015B0002091CA02289FB001299F700D11246C59F7
:1015C0007F4F600F711F87E50E94FC1A482F61E072
:1015D000802F0E94B00F8091010190E0019720912F
:1015E000CA02289FB001299F700D1124600F711F3E
:1015F00068587F4F87E50E94FC1A482F62E0802FD1
:101600000E94B00F0F5F1F4F0431110569F661C0D2
:1016100082E0E81253C04C9909C08091CB0281113D
:1016200005C08091A703882309F43CC160E082E0F3
:101630000E9401168091A703882329F08DE593E08D
:101640000E941F1714C084E60E94A80E0CE010E050
:101650009E012F5F3F4F40E060E082E50E94381519
:10166000BE016F5F7F4F8BE793E00E94211D62E018
:1016700087E00E9401164C9B05C08091A703882338
:1016800009F42BC1809100018A3010F40E94920F5E
:101690006AE070E0809100010E940B048FE20E94DA
:1016A000A3168091C9028A3010F40E94920F6AE05A
:1016B00070E08091C9020E940B040BC083E0E81225
:1016C00008C061E080E00E9401168FE493E00E9470
:1016D0001F1760E08FE00E9401168091CB028823E3
:1016E00029F089E493E00E941F1705C045E060E0FF
:1016F0008FE00E94A30F4C9906C08091CB0281110C
:1017000002C043E001C041E063E088E00E94B00F06
:101710008F2D880F8F0D63E08B5F0E94011661E0B3
:1017200081E00E94AF128091A503823009F497C036
:10173000833009F49EC0813009F0E0CEF816A9F19B
:10174000F81648F082E0F81609F450C083E0F81665
:1017500009F453C0D3CE81E0E81207C080910101A3
:10176000823008F456C0815052C082E0E81611F071
:10177000F12CC4CE80910001823018F0815080930A
:1017800000018091A703882329F01092A70381E02C
:101790008093A8034C9BECCF909100018091CA02EA
:1017A000890F81590E94311BA9CE4C9919C081E043
:1017B000E81205C0E092A703809101010AC082E00F
:1017C000E8120AC0F092A803909100018091CA0229
:1017D000890F81590E94311B81E08093A60302C0CA
:1017E0000E94621B5F981092C80288CE8091CB0243
:1017F0004C997DC081117BC081CE81E0E81217C079
:10180000809101019091CA02891718F48F5F80932B
:1018100001018091A803882329F01092A80381E098
:101820008093A7034C9B6ACE80910101BACF82E0DE
:10183000E81264CE809100019091C902891718F4D2
:101840008F5F809300018091A703882329F0109275
:10185000A70381E08093A8034C9B50CE9DCF80913D
:10186000CB0281114BCE82E08F1508F447CEF39462
:1018700045CE8091CB02811141CEFF2009F478CF73
:10188000FA943CCE0E947F0F2D960FB6F894DEBFDF
:101890000FBECDBFDF91CF911F910F91FF90EF90C1
:1018A000DF9008958091CA0290E081599F4F209166
:1018B0000001820F911D00E010E020E030E0482F91
:1018C000692F83E00E94381584E60E94A80E0E94CA
:1018D000621B84E60E94A80EA9CE84E60E94A80E90
:1018E0008BE40E94B615875980930001CBCE8823E4
:1018F00029F05E981092CB028DE004C081E08093C5
:10190000CB028EE00E94DB15F9CDCF938091D402FB
:101910008823E9F18091D2029091D00220910F03A7
:10192000981730F4C1E0821768F0291758F009C001
:10193000891738F4C0E0821728F4291718F4C1E099
:1019400001C0C0E0891310C05091D1023091CF0284
:10195000351738F040910E03451718F0341708F08A
:10196000C1E0381708F4C1E0281307C030910E0316
:101970008091D102381708F0C1E0291309C0909175
:101980000E038091CF02981718F4C1E001C0C0E0A7
:101990008091C702C81749F0CC2311F087E401C039
:1019A00086E60E94311BC093C7028C2FCF91089509
:1019B000CF93DF930E949B1ACDE0D3E089830E94EE
:1019C0001E190E94A8198091B2038A83DF91CF91DA
:1019D00008950E941E190E94A8198091B60390E0F4
:1019E0008E54984F9093C6028093C5020E941E1990
:1019F0000E94A8198091B403809311030E941E19BC
:101A00000E94A8198091B5038093120363E080E0DF
:101A10000E9401160E941E190E94A819E091B303AA
:101A2000F0E0EE0FFF1FE75CFC4F6591749185EDD0
:101A300092E00E94883065ED72E08BE793E00E94AF
:101A4000211D63E08AE00E9401168091C5029091F9
:101A5000C6020E94F1168FE20E94A3168091120323
:101A60008A3010F40E94920F6AE070E080911203B5
:101A70000E940B048FE20E94A316809111038A300A
:101A800010F40E94920F6AE070E0809111030E94AE
:101A90000B048091C3029091C4020A9724F460E081
:101AA00082E10C94011608958BE793E00E94461D95
:101AB0000E947F0F0E94E90C0C94BF0F83FD02C0AF
:101AC00098E001C098E28770892B98E10FB6F894EE
:101AD000A895909360000FBE80936000A8958091B8
:101AE00060008064809360008091E802882319F090
:101AF00083B7817F0BC08091E202882321F083B7F6
:101B0000817F846003C083B7817F8C6083BF83B78C
:101B1000816083BF889583B78E7F83BF0FB6F894AB
:101B2000A8958091600088618093600010926000A9
:101B30000FBE809160008F7B80936000089580913C
:101B400012039DEF980F983008F06DC09CEF980F2E
:101B5000963008F466C0833089F5209111034091D6
:101B6000C5025091C60235E0349FC001359F900DEB
:101B7000112497FD039695958795959587950496DD
:101B800067E070E00E941B2E4FE150E0BA01681B35
:101B9000790B38E1369FA001379F500D11244F5F1C
:101BA0005F4F80910F0378E1279F90011124280F48
:101BB000311D81E042175307BCF135C08A3099F5D9
:101BC000209111034091C5025091C60235E0349F27
:101BD000C001359F900D112497FD0396959587952B
:101BE00095958795019667E070E00E941B2E4FE166
:101BF00050E0BA01681B790B38E1369FA001379F8E
:101C0000500D11244F5F5F4F80910F0378E1279FA4
:101C100090011124280F311D81E04217530724F44D
:101C200002C081E0089580E00895EF92FF920F9343
:101C30001F93CF93DF9388E60E946D1460E088E9DC
:101C400093E00E94C4170E94101467E070E088E6D9
:101C500090E00E94ED1488E993E00E947817CDE0AF
:101C6000D3E0982F9695969596959E70292F220FE2
:101C7000220F920F8F70890F888388E993E00E946A
:101C80007817982F92959F708F702AE0929F800D01
:101C90001124898388E993E00E947817982F9695FC
:101CA000969596959670292F220F220F920F8F707E
:101CB000890F8A8388E993E00E947817982F92957C
:101CC0009F708F702AE0929F800D11248B8388E98A
:101CD00093E00E947817982F92959F708F702AE05A
:101CE000929F800D11248C8388E993E00E947817DD
:101CF000982F92959F708F702AE0929F800D1124EB
:101D00008D8388E993E00E947817982F9F70925EE8
:101D100082958F70E92E2AE0829FE00C1124EE82DA
:101D2000F12C8EE4E81A88EFF80A0D8110E02C817E
:101D300030E0488150E0698170E08A8190E00E9443
:101D40004218DF91CF911F910F91FF90EF9008956E
:101D5000CF93C82F8091E802882329F080916400F6
:101D6000806280936400C7FF04C083E00E945E0D20
:101D7000C857C03420F082E00E945E0DCC53C032C0
:101D800020F081E00E945E0DCE51C03118F080E05D
:101D90000E945E0D8091E802882321F0809164000A
:101DA00010926400CF9108958F929F92AF92BF924C
:101DB000CF92DF92EF92FF926C010E94F1054B01EE
:101DC0005C01E12CF12C0E94F105DC01CB018819AA
:101DD0009909AA09BB098C159D05AE05BF0598F3A5
:101DE000FF90EF90DF90CF90BF90AF909F908F903B
:101DF0000895CF92DF92EF92FF920F931F93CF93AC
:101E0000DF93C62F2FB7F89440915202509153029E
:101E1000609154027091550296B5A89B06C09F3FF1
:101E200021F04F5F5F4F6F4F7F4F2FBF762F652F92
:101E3000542F4427490F511D611D711D32E0440F7D
:101E4000551F661F771F3A95D1F79A01220F331F4E
:101E5000220F331F42275327BA01660F672F661FD1
:101E6000770B719546275727BA017695762F662707
:101E700077956795082F10E06427752780E090E03C
:101E80000E94973020E03FEF4FE757E40E94B62EC4
:101E90006B017C01D0E0C01BD10BBE01DD0F880BB4
:101EA000990B0E9499309B01AC01C701B6010E94B9
:101EB000F8306B017C01B801110F880B990B0E945F
:101EC00099309B01AC01C701B6010E944A2E0E94C5
:101ED000282F862FDF91CF911F910F91FF90EF90C8
:101EE000DF90CF9008950E943B1680E090E00E9422
:101EF000800581E08093E2021092E80208950F933A
:101F00001F93CF9302E011E0C0E0B8018C2F0E9434
:101F10006716CF5F085F1F4FC830B9F7CF911F9189
:101F20000F91089580E30C94A316BC0180E00E94F9
:101F300067168BE793E00E94461D80E00E94A3167F
:101F400080E20C94A316CF93C42F0E940116CC23D9
:101F500029F080E20E94A316C150F9CFCF910895D5
:101F6000CF93DF931F92CDB7DEB749830E9401164E
:101F70004981842F0F90DF91CF910C94A316CF93BA
:101F80000E94D80C0E94850C8093EB0280910F0375
:101F90008A3010F460E004C06AE00E940F2E682FBF
:101FA00081E00E94050380910F03CAE06C2F0E941C
:101FB0000F2E692F84E00E9405036AE087E00E94EB
:101FC000050380910E038A3010F460E004C06C2F8A
:101FD0000E940F2E682F8AE00E94050380910E0355
:101FE0006AE00E940F2E692F8DE00E94050343E0F6
:101FF00061E081E10E94A30F61E081E10E9401168E
:102000008091EA02811104C08091E902811103C02C
:1020100088E70E94A3168091E802882319F084E4DF
:102020000E94A3168091D402882349F08091EB028C
:10203000882311F08EE401C08EE60E94A3168091E1
:10204000E702882341F062E084E00E94011686ECFA
:1020500093E00E941F1743E062E081E10E94A30F1A
:1020600062E081E10E9401168091E602882319F066
:1020700084EF0E94A3168091CB02882319F080E799
:102080000E94A3168091E502882319F083E50E943F
:10209000A3168091A603811108C08091C802811106
:1020A00004C08091E402882319F080E50E94A31601
:1020B00086E00E94DA059093C4028093C302C4E0D4
:1020C0008AE00E94A80E86E00E94DA052091C302F1
:1020D0003091C402820F931F9093C4028093C30275
:1020E000C15071F765E070E00E941B2E072E000CB6
:1020F000880B990B0E94993020E030E040EA5BE3C6
:102100000E94F83026E636E646E350E40E94492E67
:1021100026EF3DEF44E55CE30E94B62E0E94282F97
:102120001616170634F4643671052CF063E670E079
:1021300002C061E070E0CB01072E000CAA0BBB0BC4
:102140009C01AD016A337105A4F02953310941099D
:102150005109ABE5B0E00E941D322AE230E040E0D8
:1021600050E00E94FE31DA01C9010896A11DB11D9F
:1021700013C02150310941095109A7E0B0E00E9484
:102180001D3227E330E040E050E00E94FE31DA01EA
:10219000C9010196A11DB11D9093C4028093C30291
:1021A00060E081E10E9401168091C3029091C40217
:1021B0000A9744F440E260E081E10E94B00F0E947F
:1021C0005D1602C00E9454168091C3029091C40211
:1021D0000E94F1168091E302882311F08BE201C086
:1021E00085E20E94A31660E082E1CF910C94011673
:1021F000CF93C82F8091CB02811106C04C9904C0A7
:102200008091A603811155C18091C3029091C402AF
:10221000181619060CF0C1E04C990DC08091E4022B
:10222000811109C08091C802811105C08091CC0242
:10223000882309F441C18091E602882309F408C18A
:102240008091CC02811104C10E94D80C9091EC02C3
:102250008091E6029111F3C0882309F4F9C020911E
:10226000E10290910E032913EAC02091E0029091BF
:102270000F032913E4C08091E20281110E944616E7
:102280008091E802882321F08BE793E00E943E1DB5
:102290005E986AE871E080E00E9467168BE793E041
:1022A0000E94461D0E94541660E087E00E940116BD
:1022B00080910F038A3010F40E94920F6AE070E060
:1022C00080910F030E940B048AE30E94A316809161
:1022D0000E038A3010F40E94920F6AE070E0809141
:1022E0000E030E940B0463E085E00E9401168BEB55
:1022F00093E00E941F1781E08093CC028091C80276
:1023000081115F988091DF02813051F49091E40255
:10231000911106C09091A603911102C08093E4022E
:102320001092A5038091A503843009F44CC09091CC
:10233000E10280910E03981346C040E062E085E020
:102340000E94B00F83EB93E00E941F1780E00E9471
:10235000A31681E00E94F8108093A5038FEF90E010
:102360000E9480058091DF02882341F08091A603BE
:10237000811104C08091CB02882321F08091CE028C
:102380000E94711B8091DF02823039F44C9905C0A4
:102390008091A603882309F493C084EF91E00E9402
:1023A000E81249E062E085E00E94A30F80E090E03F
:1023B0000E94800584EF91E00E94E8120E949B1A1F
:1023C00080930E03AFCF8091A603811104C08EE0ED
:1023D0000E94DB1508C08091DF02813021F48091DA
:1023E000C80281115F9A1092CC029091E102809113
:1023F0000E03981309C09091E00280910F03981387
:1024000003C081E08093EC028BE793E00E94461DBD
:102410008091E202882331F08091E402811102C0B0
:102420004C9B54C08091E20281110E943B16809126
:10243000E80281110E94F6150E94540D1FC08823E6
:1024400039F09091E10280910E0398131092EC0202
:102450008EE00E94DA05893C910508F07CC087393E
:102460009105B0F182E30E94A80E8EE00E94DA0589
:10247000873991050CF467C04C9B02C0C4E017C0BB
:102480008091E5028111FACFC111F8CF8091CB0282
:102490008111F4CF65E081E00E94F90EC82F8430ED
:1024A00069F76DE38FE10E94F90E0E94311B8C2FBA
:1024B00054C01092A603A8CE5E9A0E94150EBBCE01
:1024C0008091CD028F5F0E94311B67CF5E9AAACFA9
:1024D0008536910550F082E30E94A80E8EE00E949E
:1024E000DA05853691059CF52EC0C39748F082E346
:1024F0000E94A80E8EE00E94DA05C39754F523C00F
:1025000082E30E94A80E8EE00E94DA0518161906D2
:10251000D4F44C9916C08091E502811112C0C1110A
:1025200010C08091CB0281110CC068E081E00E9454
:10253000F90E843031F46FE18BE00E94F90E0E94B5
:10254000311BC1E0B4CF82E30E94A80E06C0C3E0F5
:10255000AECFC2E0ACCFC0E0AACFCF910895CF926A
:10256000DF92EF92FF921F93CF93DF93C82FD62F66
:102570000E94F1056B017C0120E6C20E2AEED21EFC
:10258000E11CF11C1092A50314E09091A503911198
:1025900015C08C2F0E94F8108093A503D11104C0A0
:1025A00088E70E94A80EF1CF0E94F105C616D70653
:1025B000E806F90650F71093A503E7CF82E3DF9111
:1025C000CF911F91FF90EF90DF90CF900C94A80EC9
:1025D0008F929F92AF92BF92CF92DF92EF92FF9233
:1025E0006C010E94F1054B015C01E12CF12C0E9471
:1025F000F105DC01CB0188199909AA09BB098C15E1
:102600009D05AE05BF0528F481E00E94F8108430D6
:1026100071F781E00E94F810843011F48093A503D3
:10262000FF90EF90DF90CF90BF90AF909F908F90F2
:1026300008958F929F92AF92BF92CF92DF92EF92C6
:10264000FF920F931F93CF93DF93142FE9014B0158
:10265000A12CB12C9C0140E050E060E079E08DE3DA
:1026600090E00E94DC3169017A0181E0C81AD1084A
:10267000E108F108C114D104E1E0EE06F10458F0DC
:10268000CD2CDE2CEF2CFF24F1E0CF1AD108E1088D
:10269000F10804E001C001E081149104A104B10437
:1026A00079F00E94F105860E971EA81EB91E809231
:1026B000AC039092AD03A092AE03B092AF030BC0F7
:1026C0008FEF9FEFDC018093AC039093AD03A09359
:1026D000AE03B093AF038091A903811122C0E3E060
:1026E000F4E084918093A9036FEE73E0FB01949171
:1026F000E92FF0E0EE0FFF1FE053FC4F25913491DE
:102700003093AB032093AA03FB016491E62FF0E022
:10271000EE0FFF1FE252FD4FA591B491EC918E2B6D
:102720008C93D0928700C092860080918400909113
:102730008500A0E0B0E0C816D906EA06FB0620F442
:10274000D0928500C092840000610093810080E1F6
:102750008093800080916F00826080936F001111E0
:102760000FC0CE01DF91CF911F910F91FF90EF909D
:10277000DF90CF90BF90AF909F908F900C94D40E2D
:102780008091A503843079F0CE01DF91CF911F9124
:102790000F91FF90EF90DF90CF90BF90AF909F9000
:1027A0008F900C94E812DF91CF911F910F91FF90C1
:1027B000EF90DF90CF90BF90AF909F908F90089553
:1027C0008F929F92AF92BF92CF92DF92EF92FF9241
:1027D000CF93DF936B017C010E94F1054B015C01FB
:1027E0008CE593E00E94CA02EC01892B69F40E94F7
:1027F000F105AB01BC01481959096A097B094C155F
:102800005D056E057F0560F3CE01DF91CF91FF90EE
:10281000EF90DF90CF90BF90AF909F908F900895F2
:10282000209194039091A403213208F04AC0809132
:102830003A038111FCCF32E030933A0331E0309318
:1028400039033FEF30933803109237032093360358
:10285000ACE3B3E046E153E0FA013E2F341B3217FC
:1028600018F43D913193F9CF10921503209115037F
:10287000990F922B9093150390911403913061F46A
:1028800010921403909115039093BB009091BC009B
:1028900093FDF8CF95EC01C095EE9093BC0090911C
:1028A0003A039230E1F3909138039F3F79F08091A1
:1028B0003803803241F080913803803331F084E076
:1028C00005C081E003C082E001C083E0109295035F
:1028D0001092940310923B03089591E090933B0370
:1028E0008093A403109295031092940308950F937C
:1028F0001F93CF9388E60E946D1460E088E993E00F
:102900000E94C4170DE013E0F8018081CAE06C2F2B
:102910000E940F2E692FF0E18F9F600D112488E92E
:1029200093E00E94C417F80181816C2F0E940F2E42
:10293000692FF0E18F9F600D112488E993E00E94D8
:10294000C417F80182816C2F0E940F2E692FF0E1CD
:102950008F9F600D112488E993E00E94C417F8014D
:1029600083816C2F0E940F2E692FF0E18F9F600DE5
:10297000112488E993E00E94C417F80184816C2F28
:102980000E940F2E692FF0E18F9F600D112488E9BE
:1029900093E00E94C417F80185816C2F0E940F2ECE
:1029A000692FF0E18F9F600D112488E993E00E9468
:1029B000C417F80186818E516C2F0E940F2E692F4B
:1029C000F0E18F9F600D112488E993E00E94C41705
:1029D000CF911F910F910C94101490913A03911183
:1029E000FCCF613208F060E291E090933A0390935B
:1029F00039032FEF2093380310923703260F2093CB
:102A000036039093150390911503880F892B8093BB
:102A1000150380911403813061F4109214038091A6
:102A200015038093BB008091BC0083FDF8CF85EC3B
:102A300001C085EE8093BC0080913A038130E1F3C0
:102A400080913703861710F460913703A6E1B3E055
:102A50002DEE32E0F9018E2F821B861718F48D912E
:102A60008193F9CF1092970360939603862F089570
:102A7000CF92DF92EF92FF920F931F93CF93DF934A
:102A8000E82EC62ED42EE901EDEFE80FE03128F450
:102A9000F0E0EA55FE4FF08001C0F12C6AE070E0F2
:102AA00080E090E00E94E013892B29F08CE593E010
:102AB0000E94E202F3CF6EE78CE593E00E9476027B
:102AC00062E06F0D8CE593E00E9476026E2D8CE53E
:102AD00093E00E947602FF2069F06C2D8CE593E074
:102AE0000E94760282E0F81205C06D2D8CE593E01D
:102AF0000E9476026FEE8CE593E00E9476022097AA
:102B000049F00115110531F0A80160E070E0CE0137
:102B10000E94662F68EE73E080E090E00E94E01370
:102B2000E12CF12C0150110962E370E080E090E0AB
:102B30000E94E013892B89F08CE593E00E94E20269
:102B4000209791F3E016F10678F7FE01EE0DFF1DD8
:102B50008083C70101967C01E7CFDF91CF911F9160
:102B60000F91FF90EF90DF90CF9008950F931F93F8
:102B7000CF93DF9300D000D01F92CDB7DEB705E032
:102B800010E09E012F5F3F4F40E060E00E9438154B
:102B900040E150E060E070E0CE0101960E946D2FB0
:102BA000CB010F900F900F900F900F90DF91CF916E
:102BB0001F910F9108950F931F9300E010E020E004
:102BC00030E040E060E00E9438151F910F910895B9
:102BD0000F931F9300E010E020E030E040E0682F0A
:102BE00081E10E9438151F910F910895E0917B03B8
:102BF000F0917C030084F185E02D60E08BE793E0A9
:102C00000994CF93DF93CDB7DEB728970FB6F8942A
:102C1000DEBF0FBECDBF1D8290E49E8324E12F83D3
:102C200024E5288719829A8390E19B8390E59C8311
:102C300090918203691710F06FEF690F4091830341
:102C4000262F30E0FE01E20FF31F403121F49430D3
:102C500011F4918101C09581682F690F60688BE73D
:102C600093E028960FB6F894DEBF0FBECDBFDF917C
:102C7000CF910C94361D0E94F615EBE7F3E06581C9
:102C80006B7F65836860CF010C94361DEBE7F3E042
:102C90006581862F846085836C60CF010E94361D1C
:102CA0008BE793E00C943E1DEBE7F3E065816E7FCC
:102CB00065836860CF010C94361DEBE7F3E0658116
:102CC000862F816085836960CF010C94361DCF9279
:102CD000DF92EF92FF920F931F93CF93DF931F9298
:102CE000CDB7DEB7162F877028E0829FC001112470
:102CF000682F60648BE793E079830E94361D83E739
:102D000090E00197F1F7C12E7981D72E8601085FF7
:102D10001F4F8BE9E82EF12CF60161916F018BE7D3
:102D200093E00E94641CC7010197F1F7C016D10619
:102D300099F70F90DF91CF911F910F91FF90EF9036
:102D4000DF90CF900895E0917B03F0917C03019098
:102D5000F081E02D682F8BE793E009948F929F928A
:102D6000AF92BF920F931F93CF93DF93CDB7DEB790
:102D7000A1970FB6F894DEBF0FBECDBF19A24230A7
:102D800008F44AE08E010F5D1F4F842E912CA12C78
:102D9000B12CA50194010E94DC31E62FB901CA01D2
:102DA00001501109EA3014F4E05D01C0E95CD8017A
:102DB000EC93232B242B252B61F7B8018BE793E0B1
:102DC0000E94211DA1960FB6F894DEBF0FBECDBFA5
:102DD000DF91CF911F910F91BF90AF909F908F90F7
:102DE0000895CF92DF92EF92FF92CF93DF936C0121
:102DF000990FEE08FF08F7FE17C08DE20E94A31698
:102E0000EC0166277727CB016C197D098E099F0994
:102E10004AE00E94AE168C0F9D1FDF91CF91FF906C
:102E2000EF90DF90CF9008954AE0C701B601DF919F
:102E3000CF91FF90EF90DF90CF900C94AE160F9350
:102E40001F93CF93DF938C01C0E0D0E0F801EC0F2B
:102E5000FD1F6491662371F0E0917B03F0917C0388
:102E60000190F081E02D8BE793E00995892B11F01B
:102E70002196ECCFCE01DF91CF911F910F91089554
:102E800040914D02262F30E0240F311D21323105B3
:102E9000DCF420913A032430C9F4FC0180E090E096
:102EA000861758F430914D022191DC01A35DBD4F8E
:102EB000A30FB11D2C930196F3CF80914D02680FA3
:102EC00060934D0280E0089581E0089582E00895C6
:102ED0000895E091970380919603E81730F4F0E0AD
:102EE000E351FD4F808190E008958FEF9FEF0895AB
:102EF0009091970380919603981750F4E92FF0E092
:102F0000E351FD4F208130E09F5F9093970302C013
:102F10002FEF3FEFC90108958091960390E0209133
:102F20009703821B91090895CF92DF92EF92FF924F
:102F30000F931F93CF93DF937C01262F972F8A0146
:102F400080913B03882391F0C62FD72F6E01C40ECA
:102F5000D51ECC15DD0571F06991D701ED91FC917D
:102F60000190F081E02DC7010995F3CF642F822FE6
:102F70000E944017C801DF91CF911F910F91FF90E0
:102F8000EF90DF90CF900895CF93DF931F92CDB74E
:102F9000DEB7698320913B032223D1F02091940373
:102FA000203240F021E030E0FC013383228380E0D6
:102FB00090E015C080919503E82FF0E0E45CFC4FB1
:102FC000998190838F5F809395038093940305C0CC
:102FD00061E0CE0101960E94401781E090E00F90E1
:102FE000DF91CF9108956093C7037093C8038093D6
:102FF000C9039093CA03DC01CB01845D9E4FAF4FA0
:10300000BF4F8093C3039093C403A093C503B093B1
:10301000C60382E090E09093C2038093C1030E94B4
:10302000F1056093BD037093BE038093BF0390933B
:10303000C003089585ED8093BC008091BC0084FDA1
:10304000FCCF10923A03089510923A0381E08093E6
:1030500039031092140361E082E10E94F80461E0F8
:1030600083E10E94F804E9EBF0E080818E7F8083A9
:1030700080818D7F808388E48093B80085E480938D
:10308000BC0008953F924F925F926F927F928F9211
:103090009F92AF92BF92CF92DF92EF92FF920F93E7
:1030A0001F93CF93DF93382E962E842EF90184E65A
:1030B000E816F1042CF082EBE81A87E0F80A03C066
:1030C0008EE1E80EF11CE092B6030093B503E093A5
:1030D000B4033092B2039092B1038092B003AE2D4C
:1030E000B0E020E833E341EE51E00E941D322B01B5
:1030F0003C0122EB37E0FF2484E6C82ED12CC0E946
:10310000D1E0C901825B97408E159F05DCF4C901AF
:1031100083709927892B99F4C901B6010E941B2E4F
:10312000892B31F4C901BE010E941B2E892B39F471
:1031300080E8480E81E5581E81E0681E711C2F5FF3
:103140003F4FDFCF8EE4E81A88EFF80AC70164E644
:1031500070E00E941B2E6C01C70160E971E00E94C3
:103160001B2E5C01C1E0D0E0112783E0E822FF24A0
:10317000C017D1072CF5C230D10589F4E114F10450
:1031800071F4C114D10419F4A114B10441F480E81C
:10319000480E8BE3581E86E2681E711C0FC0DE01CC
:1031A000AB50BE4FAC91B0E020E831E541E050E0DB
:1031B0000E941D32460E571E681E791E2196D8CFDA
:1031C000292D30E0ACE3B0E00E9467326B017C0156
:1031D000C80CD11CE11CF11C232D30E0A0E1BEE0A5
:1031E0000E946732C60ED71EE81EF91EDF01BB27FC
:1031F000119720E831E541E050E00E942832DC01DF
:10320000CB018C0D9D1DAE1DBF1DBC01CD01640DFC
:10321000751D861D971DDF91CF911F910F91FF9016
:10322000EF90DF90CF90BF90AF909F908F907F9066
:103230006F905F904F903F900C94F317CF92DF9276
:10324000EF92FF920F931F930E94F105C090BD0370
:10325000D090BE03E090BF03F090C0038B019C01AF
:103260000C191D092E093F098091C7039091C803CD
:10327000A091C903B091CA03083E1340210531054E
:10328000D0F00196A11DB11D8093C7039093C80390
:10329000A093C903B093CA03B701A60148515C4F7C
:1032A0006F4F7F4F4093BD035093BE036093BF03A6
:1032B0007093C003C9CF4091C3035091C403609180
:1032C000C5037091C60384179507A607B70788F151
:1032D000E091BB03F091BC03309759F1099561155A
:1032E00071058105910519F00E94F31722C08091A4
:1032F000C7039091C803A091C903B091CA03845D2C
:103300009E4FAF4FBF4F8093C3039093C403A093CE
:10331000C503B093C60381E090E02091C1033091D2
:10332000C203232B11F480E090E09093C2038093BA
:10333000C1036091C7037091C8038091C903909144
:10334000CA031F910F91FF90EF90DF90CF900895E7
:103350004F925F926F927F928F929F92AF92BF92A5
:10336000CF92DF92EF92FF920F931F93CF93DF9351
:103370004B015C018091B7039091B803A091B90310
:10338000B091BA0388169906AA06BB0609F4C2C012
:103390008CE3C82ED12CE12CF12CC501B401A7017E
:1033A00096010E94DC316093B003CA01B901A70104
:1033B00096010E94DC316093B103CA01B90128E192
:1033C00030E040E050E00E94DC3169017A01609316
:1033D000B203CA01B9016C5F7F4F8F4F9F4F27E047
:1033E00030E040E050E00E94DC316F5F6093B30357
:1033F000412C512C320140E004E610E0C0E9D1E05C
:10340000242F30E02E54384FF901E370FF27309716
:1034100089F4C901B8010E941B2E892B31F4C9011E
:10342000BE010E941B2E892B29F48EE691E0A0E0BC
:10343000B0E004C08DE691E0A0E0B0E0480E591E77
:103440006A1E7B1ED301C201AA27BB27C816D90654
:10345000EA06FB0610F04F5FD3CF4093B6033097D8
:1034600099F4C90164E670E00E941B2E892B39F49F
:10347000C90160E971E00E941B2E892B29F48EE6B8
:1034800091E0A0E0B0E004C08DE691E0A0E0B0E003
:10349000481A590A6A0A7B0AC418D508E608F708C8
:1034A000C90164E670E00E941B2EEC01C90160E9CD
:1034B00071E00E941B2EA6EFB1E020E0213039F42C
:1034C000309749F4209729F4009729F402C04C91D1
:1034D00003C04DE101C04CE150E060E070E0C41673
:1034E000D506E606F70640F0C41AD50AE60AF70A3A
:1034F0002F5F11962C3011F72F5F2093B503C394E3
:10350000C092B4038092B7039092B803A092B9031B
:10351000B092BA03DF91CF911F910F91FF90EF907E
:10352000DF90CF90BF90AF909F908F907F906F90E3
:103530005F904F9008950E941E190E94A8198091D3
:10354000B10390E008951F920F920FB60F921124CD
:103550000F931F932F933F934F935F936F937F939B
:103560008F939F93AF93BF93EF93FF930E94F105C7
:103570000091AC031091AD032091AE033091AF03E5
:103580006017710782079307B8F080916F008D7FF5
:1035900080936F0082E08093810081E080938000BF
:1035A000E091AA03F091AB0390818091A9038095EB
:1035B000892380831092A903E091AA03F091AB03C1
:1035C00090818091A90389278083FF91EF91BF911A
:1035D000AF919F918F917F916F915F914F913F91AB
:1035E0002F911F910F910F900FBE0F901F90189564
:1035F0000C94BE310C94B6310F931F93CF93DF938D
:103600001F92CDB7DEB7182F062F79830E946D1455
:10361000698188E993E00E94C417602F88E993E0EC
:103620000E94C4170E94101461E070E0812F90E0A6
:103630000E94ED149091960380919703981729F0BA
:1036400088E993E00E94781701C08FEF0F90DF9117
:10365000CF911F910F9108955E9886E490E00C94AD
:10366000D40E0F931F93CF93DF931F92CDB7DEB786
:1036700089830E942C1B00E010E020E030E089816B
:10368000482F60E083E00E94381584E60E94A80E6F
:103690008091A803882319F081E00E94E8158091A9
:1036A000A703882349F000E010E020E030E040E08C
:1036B00064E081E10E9438150F90DF91CF911F9156
:1036C0000F9108958EE00E94DB1584E60E94A80EFB
:1036D0001092A7031092A8031092A60384E00C9402
:1036E000E815CF93823009F478C038F4882329F1A3
:1036F000813009F0B9C0CAE061C0843009F48FC0DC
:1037000008F473C0853009F0AFC028EC30E041E028
:1037100068EC70E088E592E00E94191328EC30E034
:1037200041E068EC70E084EF91E00E9419132CE214
:1037300031E041E068EC70E092C02DE431E041E01E
:103740006AEF70E086E091E00E94191327EA30E00A
:1037500041E06DE770E084EC90E00E94191327EAE5
:1037600030E041E06DE770E084EC90E00E941913D6
:103770002DE431E041E06AEF70E08CED90E00E94D2
:1037800019132AE932E041E06AEF70E084EC90E03E
:103790000E9419132DE431E041E06AEF70E087EFF9
:1037A00090E00E9419132DE431E041E06AEF70E0EF
:1037B00086E091E056C0C15009F456C024E630E0DE
:1037C00041E062E370E088EB91E00E941913809180
:1037D000A503843081F7C0E0EECF24EF31E041E073
:1037E00068EC70E088EB91E03CC024E630E041E01A
:1037F00064E670E088E592E00E94191324E630E068
:1038000041E064E670E08CEB92E00E9419132CE238
:1038100031E041E064E670E080E293E022C024E61B
:1038200030E041E060E570E088E592E00E94191325
:1038300024E630E041E060E570E080E991E00E943C
:10384000191324E630E041E060E570E084EF91E098
:103850000E94191328EC30E041E060E570E080E957
:1038600091E0CF910C941913CF9108950F931F936A
:10387000CF93DF93EC018C01065F1F4FC017D10778
:1038800050F4BE0180E50E94FC1A803211F00E94C3
:10389000A3162196F3CFDF91CF911F910F91089539
:1038A00021E001C0220F6A95EAF7DC011C962C93F7
:1038B0001C971A965C934E931997ED91FC91008496
:1038C000F185E02D60E00994DC01ED91FC9102842A
:1038D000F385E02D41E0099581E090E00895089599
:1038E0000895CF93DF93FC012381222391F0EC0113
:1038F000818180956823608382810E946D14688134
:1039000088E993E00E94C4170E941014282F30E029
:1039100002C020E030E081E090E0232B11F080E055
:1039200090E0DF91CF910895EF92FF920F931F9354
:10393000CF938C01FC01759684E0C0E060FF02C06B
:103940009081C92B6695815031968111F7CF413016
:1039500011F4F8014489F8018585C82BC42B78013E
:10396000FEE0EF0EF11CF80162896C2BC7010E948A
:10397000711CF801628960956C23C701CF911F917A
:103980000F91FF90EF900C94711C0F931F93CF93A6
:10399000DF93062F0F70423019F440E0602F10C003
:1039A000142F262FEC0130E0B90184E0759567955E
:1039B0008A95E1F7CE010E94941C412F602FCE0121
:1039C000DF91CF911F910F910C94941CFC01848581
:1039D0008823A9F0218532852115310519F461115B
:1039E00006C007C02130310521F4611102C085876E
:1039F00001C015866585CF010E960C94711C089543
:103A00001F920F920FB60F9211248F93EF93FF9393
:103A10000FB6F894A895809160008861809360004B
:103A2000109260000FBEA895E0E6F0E080818F7BE9
:103A30008083FF91EF918F910F900FBE0F901F9099
:103A400018956115710579F0FB0101900020E9F7E7
:103A50003197AF01461B570BDC01ED91FC910280C1
:103A6000F381E02D099480E090E00895DC01ED9170
:103A7000FC910284F385E02D40E00994DC01ED9196
:103A8000FC910084F185E02D6FEF099461E00E94C4
:103A9000361D8BE39FE10197F1F70895CF92DF92F6
:103AA000EF92FF920F931F93CF93DF93EC0142307D
:103AB00018F08C8188608C834F836887222329F0DB
:103AC000413019F48C8184608C830E94F1056B0174
:103AD0007C010E94F105DC01CB018C199D09AE0926
:103AE000BF0984369105A105B10598F36C8164FD89
:103AF00031C0E881F9810284F385E02D42E063E082
:103B0000CE0109958BE496E40197F1F7E881F981FC
:103B10000284F385E02D42E063E0CE01099503E5E0
:103B200012E0C8010197F1F7E881F9810284F38579
:103B3000E02D42E063E0CE010995C8010197F1F75D
:103B4000E881F9810284F385E02D42E062E0CE0154
:103B5000099517C06062CE010E94361D8BE496E481
:103B60000197F1F76C816062CE010E94361D03E57A
:103B700012E0C8010197F1F76C816062CE010E94EA
:103B8000361DC8010197F1F76C816062CE010E9479
:103B9000361D8BEE90E00197F1F784E08D836CE0A9
:103BA000CE010E94361DCE010E94461D82E08E830A
:103BB00066E0CE010E94361DCE01DF91CF911F91AC
:103BC0000F91FF90EF90DF90CF900C943E1DFF92ED
:103BD0000F931F93CF93DF93EC01162F042FF22E38
:103BE0008B85888B10929703109296031092950301
:103BF000109294030E94241888890E946D140E94D8
:103C0000101491E0811190E0998B992329F088E9B3
:103C100093E00E9478178E878989882339F01F8660
:103C20001C8260E0CE010E960E94711C2F2D402F49
:103C3000612FCE01DF91CF911F910F91FF900C94D6
:103C40004E1DCF92DF92EF92FF920F931F93E82FBA
:103C5000F92F05C0015011092109310961F1908145
:103C600096239417B9F305C00150110921093109B0
:103C700011F1908196239413F7CFC12CD12CE12C14
:103C8000F12C0AC08FEFC81AD80AE80AF80A0C15F6
:103C90001D052E053F0579F080818623841791F359
:103CA0006C2D7D2D8E2D9F2D1F910F91FF90EF90EC
:103CB000DF90CF90089560E070E080E090E01F9189
:103CC0000F91FF90EF90DF90CF900895CF93DF9307
:103CD000CDB7DEB72A970FB6F894DEBF0FBECDBFC3
:103CE000789484B5826084BD84B5816084BD85B5D7
:103CF000826085BD85B5816085BD80916E008160E3
:103D000080936E0010928100809181008260809388
:103D1000810080918100816080938100809180008A
:103D20008160809380008091B10084608093B100B5
:103D30008091B00081608093B00080917A008460AF
:103D400080937A0080917A00826080937A008091DB
:103D50007A00816080937A0080917A0080688093F5
:103D60007A001092C1001CBC80E880BF8FE3809372
:103D70007E00809164008460809364008091640080
:103D8000826080936400809164008064809364000A
:103D900088EC8AB98CE284B98EE387B980E48BB968
:103DA00081E088B910927703109276031092750320
:103DB0001092740310927303109272038DE991E0D4
:103DC000909379038093780390916803963108F07B
:103DD00057C02DEB30E030937303209372032BE92F
:103DE00031E030937503209374032CE231E030937B
:103DF00077032093760320916800983050F031E0EB
:103E00009E3008F430E081E001C0880F3A95EAF76F
:103E100001C084E0822B80936800983038F09E3097
:103E200040F0963148F020E030E008C02DE630E068
:103E300005C02BE630E002C02CE630E03093700382
:103E400020936F03983030F481E001C0880F9A9579
:103E5000EAF70EC0292F30E09E3018F428503109BF
:103E600002C02E50310981E001C0880F2A95EAF77F
:103E70008093710380917803909179030197F1F712
:103E80008091760390917703892B21F180915002E4
:103E90009091510223E08C359207E1F0009711F0E8
:103EA0000E94C10680917A038E7F80937A031092DC
:103EB0004E0210924F028CE593E090935102809352
:103EC0005002E0916F03F091700390818091710333
:103ED000892B80838EE00E94DB158CE00E94DB152D
:103EE00084EF91E00E94D40E00E010E020E030E08A
:103EF00040E06EE186E00E94381584E00E94E815FB
:103F000081E090E00E94FA1A91E0811101C090E0F6
:103F10009093E50282E090E00E94FA1A80932C02CE
:103F200083E090E00E94FA1A91E0811101C090E0D4
:103F30009093E60284E090E00E94FA1A8093E102F6
:103F400085E090E00E94FA1A8093E00286E090E01B
:103F50000E94FA1A8093DF0287E090E00E94FA1A2A
:103F60008093CE0288E090E00E94FA1A8093E902E2
:103F700089E090E00E94FA1A80932B028AE090E098
:103F80000E94FA1A91E0811101C090E090932A02F8
:103F90008BE090E00E94FA1A91E0811101C090E05C
:103FA0009093D4028CE090E00E94FA1A8093D2029F
:103FB0008DE090E00E94FA1A8093D1028EE090E0AA
:103FC0000E94FA1A8093D0028FE090E00E94FA1AC1
:103FD0008093CF0280E190E00E94FA1A91E0811173
:103FE00001C090E09093290281E190E00E94FA1ACA
:103FF000182F82E190E00E94FA1A282F30E0C901C0
:104000004AE0149F800D911D112490932802809303
:10401000270283E190E00E94FA1A8093CD0211E218
:10402000E12E12E0F12E05E110E0C8010E94FA1A1B
:10403000D82EC80101960E94FA1A282F30E0C90133
:104040006AE0D69E800D911D1124D7018D939D931A
:104050007D010E5F1F4F0B31110539F78BE190E0A9
:104060000E94FA1A91E0811101C090E09093200221
:104070008CE190E00E94FA1A91E0811101C090E079
:104080009093D30260E070E087E50E94FC1A809371
:104090001F0261E070E087E50E94FC1A80931E0217
:1040A00062E070E087E50E94FC1A8093CA0288E60D
:1040B0000E946D1462E072E088E993E00E94211D85
:1040C0000E94101484E10E94A80E88E60E946D14DC
:1040D00065E072E088E993E00E94211D0E941014BF
:1040E0000E94150E20E044E064E18BE793E00E941B
:1040F000E71D0E947F0F84E190E00E94FA1A182FBA
:104100008A3008F045C08BE793E00E94461D8CEC96
:1041100092E00E941F1746E561E084E00E94B00F24
:1041200080E090E00E94F1168EE20E94A316812F9B
:104130006AE00E940F2E892F90E00E94F11686EC13
:1041400092E00E941F1781E090E00E94F1168EE23B
:104150000E94A31680E090E00E94F11664E084E0E3
:104160000E9401168BEB92E00E941F1745EF64E05E
:104170008BE00E94B00F6AE084E190E00E94F81AA0
:1041800060E081E00E94AF128BE793E00E94461D41
:104190000E942C1B20E530E040E060E570E088E5FF
:1041A00092E00E94191326E930E040E066E970E0F1
:1041B00080E793E00E9419135E9A0E94D80C0E9437
:1041C000850C8093C70287E40E94B6159091CA02BD
:1041D000891B8F568093C902B3E6B987E3E6E88767
:1041E000BAE32B2E312C412C512C9E012F5F3F4FD7
:1041F00039010E94D80C87E00E94DA058132934091
:1042000024F08091E302882351F087E00E94DA05D0
:104210008032934004F58091E3028823E1F090918D
:10422000E30281E089278093E30287E00E94DA05B8
:104230008032934014F00C94632B8091E802882321
:1042400011F40C94632B80912A02882311F40C94AE
:10425000632B0E94730F80910E036885681709F421
:10426000A7C18091EB028823E1F08091D3028823DB
:10427000C1F08091E202811114C080912A0288234A
:1042800039F08091E302811103C00E94730F09C0CD
:104290008091E802811105C00E94F61581E08093AB
:1042A000E80210921D0280910F039985981709F476
:1042B000B4C08091E202811179C00E94E90C909112
:1042C0001E028091120398136DC090911F0280917D
:1042D0001103981367C081E08093E70280911C026C
:1042E000811164C08091EB02811160C062E771E0CE
:1042F0000E9467168091C80281115F988091E50243
:10430000811107C08091A603811103C08FE60E942E
:10431000311B80ED97E00E94D40E0E949B1A7C0115
:10432000FF240E949B1AE816F90621F04C9902C05E
:104330000C947B2B8091A503843011F40C947B2B7F
:104340008BE793E00E94461D61E087E00E94011622
:104350008BEE90E00E941F1762E086E00E9401163B
:1043600082EE90E00E941F1765E081E00E94F90E46
:10437000182F112391F064E180E00E94F90E40E0D3
:1043800060E00E94B00F64E180E00E94F90E40E01E
:1043900063E00E94B00F1150ECCF84EF91E00E94D7
:1043A000E812BFCF10921C021092E702109129026E
:1043B0000E949F0D181789F180910F03843068F1D6
:1043C000112311F40C948D2B815080930F0381E005
:1043D000D12ED826D0922902E090C502F090C602D4
:1043E0000091120310E02091110330E040910D0381
:1043F00050E060910E0370E080910F0390E00E9406
:1044000042188091C502825B809313030E94771447
:104410006D2D80E190E00E94F81A8091E2028111F6
:1044200002C00E94BF0F8091EB028111C1C0809138
:10443000E5028111BDC08091C3029091C4020A9728
:104440007CF48091E30281110BC00E942C1B20E5BB
:1044500030E040E060E570E088E993E00E941913E5
:104460004C99A6C08091CB028111A2C08091E40238
:1044700081119EC08091C3029091C40202970CF4F6
:1044800097C0E0912B02F0E0E456FE4F108161E00E
:10449000610F81E00E94F90E81138AC06CE080E018
:1044A0000E94F90E182F8091E20281111AE00E94F9
:1044B0005416183010F00C94292D8091E8028111C7
:1044C0000C94902B153020F48BE793E00E94461D4E
:1044D000812F90E0FC013197E730F10510F40C9446
:1044E000C02B6AE180E00E94F90EA0E58A9FC0011E
:1044F00011248C01005B194BF12CB80180E50E945E
:10450000FC1A482F60E08F2D0E94B00FB8016C5E3E
:104510007F4F80E50E94FC1A482F61E08F2D0E949A
:10452000B00FB801685D7F4F80E50E94FC1A482FEC
:1045300062E08F2D0E94B00FB801645C7F4F80E570
:104540000E94FC1A482F63E08F2D0E94B00FF39455
:104550000F5F1F4FB4E1FB12D0CF0E942C1B26E946
:1045600030E040E060E570E080E793E00E941913DE
:1045700020E931E040E060E971E080E793E00E94EB
:1045800019135E9A61E081E00E94AF120E94540DFF
:104590008091E802882361F08091D402882311F48D
:1045A0000C94BC2B8091EB02882311F40C94BC2B4F
:1045B0008091E20281117AC08091EA02811176C075
:1045C0008091E902882309F471C02D988FE090E072
:1045D0000197F1F72D9A83E290E00197F1F72D987A
:1045E000E4E0F4E06491E0EFF3E0E491F0E0EE0F5A
:1045F000FF1FE652FC4F8591949100E412E42FE0F6
:1046000030E0462F0E94211E61157105810591053C
:1046100049F0DC01CB010196A11DB11DBC01CD010A
:104620009F7003C060E070E0CB011091E902A2012D
:1046300091010E94DC31BAE01B9FC0011124092EB8
:10464000000CAA0BBB0B281739074A075B0770F54C
:104650008091E802882391F080912002882371F0F4
:104660008BE793E00E943E1D0E94F10560931802C3
:104670007093190280931A0290931B028091EB02AF
:10468000811114C080911D02811110C08091E4023B
:1046900081110CC08091CB02811108C08091E5028C
:1046A000811104C04C9902C00C949F2B8091E802A8
:1046B0008823C9F0809120028823A9F00E94F10587
:1046C000009118021091190220911A0230911B02D8
:1046D0000A561F4F2F4F3F4F061717072807390756
:1046E00010F40C94AA2BE0910E03E887F0910F03CD
:1046F000F98780E00E94F8108093A5039091E20270
:10470000823009F489C7833009F49AC7813009F0EF
:10471000CFC79111CDC70E9454168BE793E00E943A
:10472000461D8091E502882331F088E70E94A31698
:1047300021E02B8301C01B8260E082E00E94011611
:104740008CEA92E00E941F1761E082E00E9401164D
:1047500082EA92E00E941F1762E082E00E94011646
:1047600088E992E00E941F1763E082E00E94011630
:104770008FE892E00E941F17AB808091A5038430E0
:1047800009F466C74EE76A2D80E00E94B00F61E031
:1047900080E00E94AF128091A503823009F426C701
:1047A000833009F42EC7813041F731E0A31609F4B4
:1047B000D9C0A31668F142E0A41609F48CC263E0E4
:1047C000A612DBCF8BE793E00E94461D60E082E0FB
:1047D0000E9401168EE792E00E941F1761E082E0BE
:1047E0000E9401168DE692E00E941F1762E082E0AF
:1047F0000E9401168CE592E00E941F1763E082E0A0
:104800000E94011684E592E00E941F1710E03FC449
:104810006AE771E080E00E9467168BE793E00E94F0
:10482000461D60E082E00E94011687E391E00E944D
:104830001F1761E082E00E94011688E291E00E9469
:104840001F1762E082E00E9401168EE191E00E9453
:104850001F1763E082E00E94011681E191E00E944F
:104860001F1710E08091A503843009F478C048E751
:1048700060E081E00E94B00F8091A803811102C026
:1048800040E201C040E061E081E00E94B00F809111
:10489000C802811102C040E201C040E062E081E054
:1048A0000E94B00F8091A703811102C040E201C0B5
:1048B00040E063E081E00E94B00F4EE7612F80E0AE
:1048C0000E94B00F61E081E00E94AF128091A503C9
:1048D000823089F18330C9F1813021F6123079F0CC
:1048E000133039F1113009F0BDCF8091C90288230E
:1048F00011F082E001C083E00E943B0AB3CF8091B7
:10490000C802811109C08091CB02811102C04C996B
:1049100025C75E985F9A02C05E9A5F989091C80220
:1049200081E089278093C80284EF91E00E94D40E31
:1049300099CF81E0E1CF40E2612F80E00E94B00F8B
:10494000133008F08FCF1F5F8DCF40E2612F80E0E2
:104950000E94B00F112309F485CF115083CF0E941C
:104960007F0F0BCFA092CC028AE891E00E94950FB6
:104970008091E0028A3010F40E94920F6AE070E0A9
:104980008091E0020E940B048AE30E94A3168091AA
:10499000E1028A3010F40E94920F6AE070E0809188
:1049A000E1020E940B0461E080E00E9401168BE8A6
:1049B00091E00E941F1763E082E00E94011688E7E1
:1049C00091E00E941F1763E08EE00E940116809123
:1049D000DF02813049F028F0823051F489E691E01D
:1049E00005C083E791E002C08DE691E00E941F17A9
:1049F0000E945D1600E010E06AE0F62E74E1E72EFA
:104A00008091A503843009F44AC1153010F062E0AA
:104A100001C063E040E280E00E94B00F153010F06A
:104A200063E001C062E04EE780E00E94B00F62E008
:104A300082E00E9401168091E0028A3010F40E9408
:104A4000920F6AE070E08091E0020E940B048AE31A
:104A50000E94A3168091E1028A3010F40E94920F06
:104A60006AE070E08091E1020E940B0446E062E09F
:104A700087E00E94A30F8091E602882319F083E665
:104A800091E002C08DE591E00E941F17123091F075
:104A900038F4112361F01130B9F462E083E012C000
:104AA000143071F050F0153079F463E00AC062E020
:104AB00082E008C062E085E005C062E086E002C0F6
:104AC00062E08EE00E94011661E080E00E94AF1279
:104AD0008091A503823009F4D6C0833009F4D8C090
:104AE000813009F08DCF123009F455C028F411231C
:104AF00079F11130D9F1D1C0143009F468C008F44B
:104B000058C0153009F0C9C00E945416D090E60272
:104B10001092E6028BE793E00E94461D60E082E07F
:104B20000E94011684E591E00E941F1761E082E077
:104B30000E9401168AE491E00E941F1762E082E061
:104B40000E94011682E491E00E941F1700E065C0F8
:104B50008091E0028E3020F4865F8093E0029DC059
:104B60006F2D0E940F2E9093E00297C02091E002DB
:104B7000822F6F2D0E940F2E993011F4295001C001
:104B80002F5F2093E0028091E002883109F085C018
:104B9000E092E00282C08091E102813320F4865FDE
:104BA0008093E1027AC06F2D0E940F2E9093E10254
:104BB00074C02091E102822F6F2D0E940F2E993038
:104BC00011F4295001C02F5F2093E10266C090913B
:104BD000E60289278093E60260C048E56091DF0223
:104BE00083E00E94B00F4EE7602F80E00E94B00F7C
:104BF0004DE261E083E00E94B00F602F83E00E94ED
:104C0000011661E080E00E94AF128091A50382301E
:104C100001F1833039F1813029F08091A50384308E
:104C2000E1F629C00130C9F30093DF02602F86E06E
:104C300090E00E94F81A8091DF02811103C081E0A8
:104C40000E94B9098091DF02823039F70E94B909C8
:104C5000E4CF40E2602F80E00E94B00F0230E8F61F
:104C60000F5FDBCF40E2602F80E00E94B00F002397
:104C7000A1F20150D2CFD092E60262E071E080E072
:104C80000E9467160AC0153008F0BACE1F5FB8CE72
:104C9000112309F4B5CE1150B3CE01E0B1CE0023FB
:104CA00091F06091E60283E090E00E94F81A609132
:104CB000E10284E090E00E94F81A6091E00285E051
:104CC00090E00E94F81A62E071E080E00E946716AE
:104CD0001092CC0252CDC0900F0390900E03D09052
:104CE0001103B090120382E891E00E94950F85EBCA
:104CF00091E00E941F1761E082E00E94011685EAA0
:104D000091E00E941F170E945D168091C50290914C
:104D1000C602805D97409093C6028093C50210E062
:104D200000E08091A503843009F466C162E082E06E
:104D30000E94011689E08C1510F00E94920F6AE023
:104D400070E08C2D0E940B048AE30E94A31699E068
:104D5000991510F00E94920F6AE070E0892D0E9470
:104D60000B0463E082E00E94011682EA91E00E9457
:104D70001F178091C5029091C6020A9714F40E94F1
:104D8000920F8091C5029091C6020E94F1168FE2A7
:104D90000E94A316A9E0AB1510F00E94920F6AE0E2
:104DA00070E08B2D0E940B048FE20E94A316B9E0E5
:104DB000BD1510F00E94920F6AE070E08D2D0E94E8
:104DC0000B0461E08DE00E9401168091D4028823DB
:104DD00019F08EE991E002C08AE991E00E941F1764
:104DE00040E20111BEC462E080E00E94B00F61E0C9
:104DF00080E00E9401168BEF800F863048F440E27D
:104E000062E080E00E94B00F63E080E00E94011643
:104E10008EE70E94A316802F90E0A0E0B0E08C8384
:104E20009D83AE83BF830B9738F5EC81FD81EC5CED
:104E3000FF4F0C942F2E61E08DE01CC062E082E0F9
:104E400019C062E083E016C062E007C062E086E05D
:104E500011C063E084E00EC063E085E00BC063E056
:104E600087E008C063E088E005C063E08AE002C034
:104E700063E08BE00E94011661E080E00E94AF12C7
:104E80008091A503823009F4A9C0833009F4ABC036
:104E9000813009F046CF002351F0EC81FD8131973C
:104EA000EA30F10590F4E15CFF4F0C942F2E0E9444
:104EB000050837CF9DE09C1518F0AAE0CA0E05C082
:104EC0008C2D6AE00E940F2EC92E11E02ACF8C2D66
:104ED0006AE00E940F2E993019F4B7EFCB0E01C093
:104EE000C394E8E111E0CE121CCF54E1C52E19CFD6
:104EF000F0E3F91518F02AE0920EE7CF892D6AE069
:104F00000E940F2E992EE1CF892D6AE00E940F2E6C
:104F1000993019F437EF930ED8CF9394D6CF45E15B
:104F20004D1518F06AE0D60ED0CF8D2D6AE00E94A4
:104F30000F2ED92E0DC08D2D6AE00E940F2E9930B4
:104F400019F487EFD80E01C0D3949FE19D1530F07E
:104F5000D110BBCF11E0DD24D394E3CE4EE1D42EAB
:104F6000B4CFA2E0AB1518F0BAE0BB0EAECF8B2DDC
:104F70006AE00E940F2EB92E9111A7CF11E0BB2439
:104F8000B394CFCEEBE0EB1598F1B3949ECF809124
:104F9000C5029091C6028935910514F40A9604C0A1
:104FA0006AE070E00E941B2E9093C6028093C502B7
:104FB0008CCF2091C5023091C602C9016AE070E031
:104FC0000E941B2E099719F42950310902C02F5F46
:104FD0003F4F3093C6022093C50277CF0A3008F0C6
:104FE000A0CE0F5F9ECE002309F49BCE015099CE38
:104FF00011E03AE0B32E95CEE090C502F090C602E3
:10500000F0E3EF1AF8EFFF0AF092C602E092C50251
:10501000112341F10B2D10E02D2D30E0692D70E0B2
:1050200040E050E08C2D90E00E944218C0920F03A7
:1050300090920E0310920D03D0921103B0921203BE
:105040008091C502825B809313030E9477140E94B3
:10505000540D0E949F0D80932902682F80E190E0FB
:105060000E94F81A62E071E080E00E94671685CB2A
:1050700082E390E00E94D40E8091A503823009F46F
:1050800097C2833009F49DC2813009F44BC08091EE
:10509000A503843009F4A1C20E945D16111107C056
:1050A00080912C022CE1829FC001112402C080E07B
:1050B00090E00E948005133011F40E9454164EE7D0
:1050C000612F80E00E94B00F60E080E10E94011635
:1050D0006AE070E080912C020E940B0461E080E1A4
:1050E0000E9401166AE070E080912B020E940B047E
:1050F00062E080E10E9401166AE070E08091E902BE
:105100000E940B04612F80E10E94011680E00E9442
:10511000F8108093A5038111ABCF84E690E00E9444
:10512000D40EF4CF113009F444C060F1123009F408
:1051300051C0133009F0ABCF8BE793E00E94461DBE
:1051400060E082E00E94011681E492E00E941F1755
:1051500061E082E00E9401168EE292E00E941F1739
:1051600062E082E00E9401168BE192E00E941F172C
:1051700063E082E00E94011683E192E00E941F1723
:1051800000E06DC080912C02893020F48F5F809305
:105190002C0202C010922C0260912C023CE1639F11
:1051A000C00111246A870E9480056A8582E090E030
:1051B0000EC080912B02893020F48F5F80932B02E8
:1051C00002C010922B0260912B0289E090E00E94B5
:1051D000F81A5DCF8091E902893020F48F5F8093C7
:1051E000E90202C01092E9026091E90288E090E0D1
:1051F000EECF80912A02811137C040E260E082E167
:105200000E94B00F8091E502811130C040E261E060
:1052100082E10E94B00F80912002811129C040E2FA
:1052200062E082E10E94B00F4EE7602F80E00E94B2
:10523000B00F602F82E10E9401160330D8F40E9463
:105240005D1661E080E00E94AF128091A50382307C
:1052500009F49AC1833009F4A1C1813071F08091C1
:10526000A503843031F613CF48E5C8CF48E5CFCF4A
:1052700048E5D6CF0E945416E4CF0130E9F0A0F003
:105280000230A9F1033059F78AE691E00E94950FA8
:1052900083E092E00E941F1761E080E00E94011607
:1052A00024E1C22ED12C30C060912A02682760937D
:1052B0002A028AE090E022C00E9454168091E50202
:1052C00081110AC04EE261E082E10E94B00F0E94AB
:1052D000621B5F981092C8026091E50281E0682726
:1052E0006093E50281E090E00E94F81AB8CF6091E7
:1052F00020026827609320028AE190E00E94F81A59
:1053000082E30E94A80EABCF8CEE8C0D843111F499
:1053100062E003C0883221F463E080E00E9401165D
:10532000B60187E50E94FC1A0E94A3164FEFC41A2B
:10533000D40A60E5C616D10439F760E080E00E9427
:10534000AF1262E071E080E00E9467168BE793E0A5
:105350000E94461D6BE080E00E94050360E083E050
:105360000E9405036CE086E00E94050360E088E08F
:105370000E94050361E08DE00E94050344E061E0C6
:1053800080E10E94B00F60E081E10E94050363E0CC
:1053900080E00E94011682EF91E00E941F17809129
:1053A000A503843009F45BCF80E00E94F81080935D
:1053B000A50380E00E94F810823089F78091A50350
:1053C000843069F380E00E94F8108093A50380E0A8
:1053D0000E94F810833091F78BE793E00E94461DFE
:1053E00060E080E00E94011687EE91E00E941F17A6
:1053F00081E090E00E94F1168EE20E94A31680E008
:1054000090E00E94F1168FED91E00E941F1761E07D
:1054100080E00E94011689ED91E00E941F1798E03C
:10542000F92E8F2D0E946D140E941014811108C056
:1054300088E70E94A31660E170E08F2D0E940B04A4
:10544000F39488E7F812EDCF62E080E00E94011645
:1054500082ED91E00E941F178091CB039091CC03C5
:10546000009711F481ED93E0D301A81BB90BCD0196
:105470000E94F1168DEC91E00E941F1788E60E94B1
:105480006D1461E188E993E00E94C4170E94101432
:1054900062E070E088E690E00E94ED1488E993E015
:1054A0000E947817F82E88E993E00E9478174C0143
:1054B0006F2D70E080E090E00E9497306B017C01DE
:1054C000B40186E0759567958A95E1F7072E000C83
:1054D000880B990B0E94993020E030E040E85EE3B1
:1054E0000E94F8309B01AC01C701B6010E944A2E10
:1054F00040E050E00E941F048FED0E94A31663E07D
:1055000080E00E94011687EC91E00E941F1763E083
:105510008BE00E94011683EC91E00E941F1780919E
:105520002902882311F083E501C087E50E94A316B4
:105530008091A503843009F441CF81E00E94F810E6
:105540008093A50363E086E00E94011686E00E9436
:10555000DA05BC01990F880B990B0E94993020E065
:1055600030E040EA50E40E94F83020E030E040E8CB
:105570005AE30E94F83042E050E00E941F0484E6A3
:1055800090E00E94E812D4CF40E2602F80E00E94B9
:10559000B00F033008F063CE0F5F61CE40E2602FA2
:1055A00080E00E94B00F002309F459CE015057CE7D
:1055B00040E2612F80E00E94B00F133048F41F5F7B
:1055C00007C040E2612F80E00E94B00F111111501E
:1055D000612F80E00E9401165ACD8091E80281116E
:1055E000CCC880E090E00E948005C7C840E26A2DE8
:1055F00080E00E94B00FB2E0BA1508F4BEC8A394D0
:10560000BCC840E26A2D80E00E94B00FEB81EA1531
:1056100008F0B3C8AA94B1C891114AC08091E802B9
:10562000811146C08091E902882309F441C090911C
:10563000EA0281E089278093EA020E94BF0F38C006
:10564000992349F00E9446161092E2021092E80255
:105650000E94540D2DC080912A02882339F0809138
:10566000E302811103C00E94730F22C09091E802EF
:1056700081E089278093E8020E94BF0F8091E802B1
:10568000811109C080E090E00E9480058BE793E0E3
:105690000E943E1D0AC080912C02FCE18F9FC00138
:1056A00011240E9480050E94F61582E30E94A80E34
:1056B0008091E202811102C088E701C080EF0E9460
:1056C000A80E0C94F92087E00E94DA0581329340FD
:1056D00074F08091E202882351F00E9446161092E5
:1056E000E2021092E8020E94540D0C942B210E94B9
:1056F000BF0F0C942B2181E080931C028091A603A4
:10570000811103C08EE00E94DB158091C8028111D7
:105710005F9A0E94540D0C94D6218F5F0C94E52162
:105720008091D402882329F08091EB0281110C949E
:1057300062228BE793E00E943E1D0C94622261E599
:105740008DE30E94F90E0E94311B81E080931D02BF
:105750000C9456230E94F6150C9473230E94621B2E
:10576000D8C861E080E00E94B00F40E263E080E0D2
:105770000E94B00F62E03CCB0E94F6150C94D82238
:10578000E75BFF4F0C942F2E62E080E00E94F90E41
:10579000182F61E080E00E94011665E680E00E941B
:1057A000F90EEAE08E9FC00111240E94361C1111EF
:1057B00006C068E072E08BE793E00E94211D62E082
:1057C00080E00E94011665E680E00E94F90EFAE092
:1057D0008F9FC001112488519C4F0E94361C65E6A2
:1057E00080E00E94F90E2AE0829FC001112411235B
:1057F00019F028EB3BE002C020ED37E0820F931F49
:105800000E94361C8BE00E94311B0C94C22264E67D
:1058100080E00E94F90E082F81EF90E00E941F1790
:105820003CE3039F800111240056104FF12CB80176
:1058300080E50E94FC1A482F61E08F2D0E94B00F76
:10584000B8016C5E7F4F80E50E94FC1A482F62E031
:105850008F2D0E94B00FB801685D7F4F80E50E94D8
:10586000FC1A482F63E08F2D0E94B00FF3940F5F56
:105870001F4F44E1F412DBCF0C94C22264E680E0B7
:105880000E94F90E60E5869FC00111248C01005F23
:10589000184DF12CB80180E50E94FC1A482F60E0F9
:1058A0008F2D0E94B00FB8016C5E7F4F80E50E9483
:1058B000FC1A482F61E08F2D0E94B00FB801685D7F
:1058C0007F4F80E50E94FC1A482F62E08F2D0E94D6
:1058D000B00FB801645C7F4F80E50E94FC1A482F2E
:1058E00063E08F2D0E94B00FF3940F5F1F4F84E190
:1058F000F812D0CF0C94C22261E085E00E9401161C
:1059000086E091E00E941F1780912C02ACE18A9FF3
:10591000C00111240E9480050E942C1B2EE031E062
:1059200040E06AEF70E080E293E00E94191324EBFC
:1059300030E040E066E970E080E293E00E941913F5
:105940002AEF30E040E06AEF70E084E992E00E94E4
:10595000191380ED97E00E94E81280E090E00E9429
:1059600080050C94C6220E949B1A7C016AE671E0B5
:1059700080E00E946716FF2401E00E949B1AE8164F
:10598000F90609F041C08091A503843009F040C0B8
:105990003BC018E268E18BE793E00E94361D88EC7B
:1059A00090E00E94E8128091A503843009F411E090
:1059B0001150123078F70C94C6226AE671E080E04C
:1059C0000E94671600E010E040E0602F812F0E94E7
:1059D000B00F86E990E00E94E8128091A503843020
:1059E00011F414E104E040E2602F812F0E94B00F17
:1059F0001F5F143148F30F5F043028F380ED97E008
:105A00000E94E8120C94C6221092CC020C94C6227A
:105A10000093CC028BE793E00E94461D64E181E095
:105A20000E94F90E182F112379F064E080E00E94A3
:105A3000F90ED82E64E180E00E94F90E40E06D2D51
:105A40000E94B00F1150EFCF84EF91E00E94E81256
:105A500094CF6FE681E50E94F90E0E94311B0C94F1
:105A6000D822CF92DF92EF92FF92CF9310929B03B6
:105A700010929A0398EEC92E93E0D92EE12CF12CC6
:105A8000C0929C03D0929D03E0929E03F0929F03EC
:105A90008AEB91E0909399038093980310927E0390
:105AA00010927D038AEE91E090937C0380937B03B8
:105AB00010928B038FEF80938A03109289031092C8
:105AC0008C0387E2809386031092870310928803E9
:105AD000109285031092840384E080938D0382E00A
