:100000000C9440020C9468020C9468020C946317E0
:100010000C9463170C9463170C9467310C9468026A
:100020000C9468020C9468020C9468020C94A02250
:100030000C9468020C9468020C9468020C94680298
:100040000C9419170C9468020C9468020C946802C2
:100050000C9468020C9468020C9468020C94680278
:100060000C943E1F0C9468027E0B810B830B850B56
:10007000870B8A0B8C0B8E0B900B920B940BB60B91
:10008000C30BD40BE00BEB0BF70B0D0C1E0C230C6E
:10009000350C251068109F10DD1014114B115F11E5
:1000A00074127B128D12A512AF12B912CB12D51297
:1000B000DC12F412071317132F132A1D311D3C1DD8
:1000C0004F1D521D5D1D661D6B1D8D1D921DB41DA6
:1000D000BD1DC029C229C529C729C929CB29CE29B7
:1000E000D029D229D429F129F829FF290D2A222A39
:1000F000302A3E2A4C2A602A6E2A42697274686449
:1001000061790048617070790044696420796F7585
:10011000206B6E6F7720746861742E2E2E0049203C
:10012000616D20686572652100506C61792073747F
:100130006F726965730041555820696E707574005F
:10014000506C6179206F776E2066696C6573005022
:100150006C617920726164696F005B205D204D5095
:1001600033005B205D20526164696F005B205D207D
:1001700042656570005B6F66665D005B6F6E205D5B
:10018000004D503300526164696F00546F6E65001A
:10019000416C61726D20746F6E65205B20202020A1
:1001A000205D004E657720616C61726D2074696D11
:1001B00065006F6666006F6E20003230004E696722
:1001C00068746D6F6465205B2020205D004E65774C
:1001D0002074696D652F6461746500543A20004293
:1001E0006174743A0020543A200052414D3A202064
:1001F000004932433A20002D313230353136004645
:1002000069726D776172653A20006279204E696B80
:100210006F6C6169205261646B65004E4F4B4F20DB
:1002200062656C6F6E677320746F004D79204E4F5E
:100230004B4F0044697374616E6365206C69676835
:1002400074205B205D0053696C656E742020202053
:1002500020202020205B205D00506F776572207386
:1002600061766520202020205B205D006D6F726527
:100270002E2E2E0044697374616E6365202B2F2D22
:10028000205B205D004576656E74732020202B2F47
:100290002D205B205D004C45442020202020202B79
:1002A0002F2D205B205D00536574204E4F4B4F0077
:1002B00053657420636C6F636B0053657420616CCD
:1002C00061726D00506C617920736F6D657468693F
:1002D0006E67005072657373206E6F7365002074D3
:1002E0006F2056002055706461746520636F6D70D7
:1002F0006C657465640000000000240027002A007B
:1003000000000008000201000003040700000000D4
:10031000000000005361747572646179004672696F
:10032000646179005468757273646179005765641B
:100330006E65736461790054756573646179004D0D
:100340006F6E6461790053756E64617900457272F5
:1003500000426972746864617921004D0346033F6D
:100360000337032D0324031D0314035374617469BD
:100370006F6E2000686F6C64206C65667420686125
:100380006E640053746F70205244533A205072656B
:10039000737320616E64005B317C735D205B327C23
:1003A000735D205B337C735D20005D5B3C5D5B2097
:1003B0005D5B205D5B3E5D5B00000000002500286A
:1003C000002B000000000023002600290004040484
:1003D00004040404040202020202020303030303EE
:1003E00003010204081020408001020408102001CB
:1003F00002040810205041555345004E6F204D50C7
:10040000337320666F756E640053746F7279005B8E
:100410003C5D5B205D5B205D5B3E5D0020416C616F
:10042000726D20746F6E65202B2F2D205B205D0078
:100430006F6666006F6E2000756E74696C00667280
:100440006F6D005B2020205D2044696D205B205D86
:1004500000536574206E696768746D6F6465002071
:10046000416C61726D20005072657373204E6F7322
:100470006500736176696E672E2E2E00B924FB220B
:1004800011241FBECFEFD8E0DEBFCDBF12E0A0E049
:10049000B1E0E6EFFCE602C005900D92A831B1078D
:1004A000D9F723E0A8E1B2E001C01D92A63FB20750
:1004B000E1F712E0CFE3D2E004C02197FE010E94F1
:1004C000B232CE33D107C9F70E94AF020C946E3618
:1004D0000C940000CF92DF92EF92FF920F931F9344
:1004E000E82FF92F05C0015011092109310961F1E7
:1004F000908196239417B9F305C001501109210981
:10050000310911F1908196239413F7CFC12CD12C8E
:10051000E12CF12C0AC08FEFC81AD80AE80AF80AB1
:100520000C151D052E053F0579F080818623841763
:1005300091F36C2D7D2D8E2D9F2D1F910F91FF908E
:10054000EF90DF90CF90089560E070E080E090E061
:100550001F910F91FF90EF90DF90CF900895A9E049
:10056000B0E0E5EBF2E00C942836789484B5826034
:1005700084BD84B5816084BD85B5826085BD85B547
:10058000816085BD80916E00816080936E001092C5
:100590008100809181008260809381008091810040
:1005A00081608093810080918000816080938000D1
:1005B0008091B10084608093B1008091B00081602F
:1005C0008093B00080917A00846080937A0080915B
:1005D0007A00826080937A0080917A0081608093B3
:1005E0007A0080917A00806880937A001092C1002E
:1005F0001CBC80E880BF8FE380937E008091640004
:1006000084608093640080916400826080936400C1
:100610008091640080648093640088EC8AB98CE2E5
:1006200084B98EE387B980E48BB981E088B91092F0
:100630009203109291031092900310928F031092E4
:100640008E0310928D038DE991E090939403809333
:10065000930390918303963108F057C02DEB30E05F
:1006600030938E0320938D032BE931E03093900378
:1006700020938F032CE231E0309392032093910377
:1006800020916800983050F031E09E3008F430E05E
:1006900081E001C0880F3A95EAF701C084E0822B1F
:1006A00080936800983038F09E3040F0963148F0E2
:1006B00020E030E008C02DE630E005C02BE630E059
:1006C00002C02CE630E030938B0320938A039830ED
:1006D00030F481E001C0880F9A95EAF70EC0292F07
:1006E00030E09E3018F42850310902C02E503109F4
:1006F00081E001C0880F2A95EAF780938C038091EE
:100700009303909194030197F1F780919103909155
:100710009203892B21F1809167029091680223E076
:1007200087379207E1F0009711F00E94DD17809162
:1007300095038E7F80939503109265021092660256
:1007400087E793E09093680280936702E0918A03C1
:10075000F0918B03908180918C03892B80838EE0B4
:100760000E9472278CE00E94722784EF91E00E9421
:100770005D1E86E06EE140E020E030E000E010E049
:100780000E94DE2684E00E947F270E94CC150E94F2
:100790007D138091BC039091BD03807F8A6090930C
:1007A000BD038093BC030E945B130E94B91381E0D8
:1007B00090E00E94F82291E0811101C090E09093B6
:1007C000760282E090E00E94F8228093240283E087
:1007D00090E00E94F82291E0811101C090E0909396
:1007E000770284E090E00E94F8228093EC0385E099
:1007F00090E00E94F8228093EB0386E090E00E9454
:10080000F8228093EA0387E090E00E94F822809328
:10081000E30388E090E00E94F82280937A0289E066
:1008200090E00E94F822809323028AE090E00E94E8
:10083000F82291E0811101C090E0909322028BE0B8
:1008400090E00E94F82291E0811101C090E0909325
:10085000E9038CE090E00E94F8228093E7038DE0AA
:1008600090E00E94F8228093E6038EE090E00E94E0
:10087000F8228093E5038FE090E00E94F8228093B5
:10088000E40380E190E00E94F82291E0811101C030
:1008900090E09093210281E190E00E94F822182FCD
:1008A00082E190E00E94F822282F30E0C9014AE05E
:1008B000149F800D911D11249093940280939302B4
:1008C00083E190E00E94F8228093E2031CE8E12E8D
:1008D00012E0F12E05E110E0C8010E94F822D82EA6
:1008E000C80101960E94F822282F30E0C9016AE071
:1008F000D69E800D911D1124D7018D939D937D016E
:100900000E5F1F4F0B31110539F78BE190E00E940C
:10091000F82291E0811101C090E0909320028CE1D7
:1009200090E00E94F82291E0811101C090E0909344
:10093000E80387E560E070E00E94062380931F02D1
:1009400087E561E070E00E94062380931E0287E540
:1009500062E070E00E9406238093DF0388E60E9435
:10096000122682ED93E06CE971E00E9488310E94CA
:10097000B52584E10E94361A88E60E94122682ED8F
:1009800093E06FE971E00E9488310E94B5250E94D2
:10099000A51986E993E064E144E020E00E944C322E
:1009A0000E94092E84E190E00E94F822182F8A30DC
:1009B00008F045C086E993E00E94B03184EE92E0F1
:1009C0000E94C92884E061E046E50E94EA2E80E0AA
:1009D00090E00E94A0288EE20E945128812F6AE0B8
:1009E0000E947E32892F90E00E94A0288EED92E036
:1009F0000E94C92881E090E00E94A0288EE20E9417
:100A0000512880E090E00E94A02884E064E00E94E9
:100A1000992783ED92E00E94C9288BE064E045EFBE
:100A20000E94EA2E84E190E06AE00E94F52281E0D3
:100A300060E00E94A91B86E993E00E94B0310E9409
:100A4000332388E592E060E570E040E020E530E0A7
:100A50000E942C2E80E793E066E970E040E026E9F2
:100A600030E00E942C2E5E9A0E94B3180E946018FB
:100A700080938B0287E40E9456279091DF03891BA5
:100A80008F568093DE03B3E6B887E3E6EF83BAE3DD
:100A90002B2E312C412C512C9E012F5F3F4F3901C1
:100AA0000E94B31887E00E9413168132934024F00D
:100AB00080917502882351F087E00E9413168032DE
:100AC000934004F5809175028823E1F090917502BE
:100AD00081E089278093750287E00E941316803297
:100AE000934014F00C94B60F80917902882311F48E
:100AF0000C94B60F80912202882311F40C94B60F47
:100B00000E94FD2D809124036F81681709F4ACC108
:100B100080917C028823E1F08091E8038823C1F072
:100B200080917402811114C080912202882339F0CF
:100B300080917502811103C00E94FD2D09C0809132
:100B40007902811105C00E948D2781E0809379028E
:100B500010921D02809125039885981709F4B9C059
:100B60008091740281117EC00E94C41890911E026F
:100B700080912803981372C090911F0280912703DF
:100B800098136CC081E08093780280911C028111DF
:100B900069C080917C02811165C06CE771E00E94A0
:100BA000FB278091950281110E94B91380919602D2
:100BB00081115F9880917602811107C08091970220
:100BC000811103C08FE60E94392380ED97E00E94D7
:100BD0005D1E0E9498226C01DD240E949822C81696
:100BE000D90621F04C9902C00C94CE0F809192024C
:100BF000843011F40C94CE0F86E993E00E94B0315A
:100C000087E061E00E94992783E091E00E94C92873
:100C100086E062E00E9499278AEF90E00E94C9284E
:100C200081E065E00E947B2D182F112391F080E078
:100C300064E10E947B2D60E040E00E94EA2E80E0AB
:100C400064E10E947B2D63E040E00E94EA2E115097
:100C5000ECCF84EF91E00E942C1EBFCF10921C02BB
:100C600010927802109121020E942F19181789F111
:100C700080912503843068F1112311F40C94E50F61
:100C800081508093250381E0D12ED826D092210275
:100C9000809125036091240370E04091230350E08C
:100CA0002091270330E00091280310E0E0908902B2
:100CB000F0908A0290E00E946C2080918902825B11
:100CC000809329030E941C2680E190E06D2D0E94F4
:100CD000F52280917402811102C00E94621A8091F3
:100CE0007C028111C1C0809176028111BDC08091CA
:100CF0008702909188020A977CF480917502811195
:100D00000BC00E94332388E993E060E570E040E087
:100D100020E530E00E942C2E4C99A6C08091E00383
:100D20008111A2C08091950281119EC0809187029D
:100D30009091880202970CF497C0E0912302F0E0B2
:100D4000EC55FE4F108161E0610F81E00E947B2D28
:100D500081138AC080E06CE00E947B2D182F809167
:100D6000740281111AE00E94E627183010F00C94EA
:100D700015108091790281110C94E80F153020F440
:100D800086E993E00E94B031812F90E0FC01319719
:100D9000E730F10510F40C94211080E06AE10E9424
:100DA0007B2DA0E58A9FC00111248C01005B194BAB
:100DB000D12C80E5B8010E940623482F8D2D60E0DC
:100DC0000E94EA2EB8016C5E7F4F80E50E940623E8
:100DD000482F8D2D61E00E94EA2EB801685D7F4F9B
:100DE00080E50E940623482F8D2D62E00E94EA2EA6
:100DF000B801645C7F4F80E50E940623482F8D2D4B
:100E000063E00E94EA2ED3940F5F1F4FB4E1DB1220
:100E1000D0CF0E94332380E793E060E570E040E0AC
:100E200026E930E00E942C2E80E793E060E971E033
:100E300040E020E931E00E942C2E5E9A81E061E0E2
:100E40000E94A91B0E949E1B80917902882361F059
:100E50008091E903882311F40C941D1080917C0289
:100E6000882311F40C941D108091740281117AC0B2
:100E700080917B02811176C080917A02882309F4E7
:100E800071C02D988FE090E00197F1F72D9A83E2E1
:100E900090E00197F1F72D98EDEEF3E04491E9ED44
:100EA000F3E0E491F0E0EE0FFF1FED53FC4F85916E
:100EB0009491642F00E412E42FE030E00E946A0273
:100EC000611571058105910549F0DC01CB010196A1
:100ED000A11DB11DBC01CD019F7003C060E070E099
:100EE000CB0110917A02A20191010E94D435BAE09F
:100EF0001B9FC0011124092E000CAA0BBB0B281745
:100F000039074A075B0770F580917902882391F0D1
:100F100080912002882371F086E993E00E94A73136
:100F20000E942A16609318027093190280931A0285
:100F300090931B0280917C02811114C080911D024C
:100F4000811110C08091950281110CC08091E00345
:100F5000811108C080917602811104C04C9902C0B1
:100F60000C94F70F809179028823C9F080912002B8
:100F70008823A9F00E942A160091180210911902E4
:100F800020911A0230911B020A561F4F2F4F3F4FDC
:100F9000061717072807390710F40C940210E09180
:100FA0002403EF83F0912503F88780E00E94FB2E55
:100FB0008093920290917402823009F480C783304A
:100FC00009F491C7813009F0C6C79111C4C70E94C6
:100FD000E62786E993E00E94B0318091760288236B
:100FE00031F088E70E9451288824839401C0812C25
:100FF00082E060E00E94992784EC92E00E94C92878
:1010000082E061E00E9499278AEB92E00E94C92861
:1010100082E062E00E94992780EB92E00E94C9285A
:1010200082E063E00E94992787EA92E00E94C92843
:10103000A82C80919202843009F45DC780E06A2D6B
:101040004EE70E94EA2E80E061E00E94A91B809199
:101050009202823009F41EC7833009F426C781301A
:1010600041F721E0A21609F4EAC0A21668F132E0C5
:10107000A31609F493C243E0A412DBCF86E993E000
:101080000E94B03182E060E00E94992786E992E0F8
:101090000E94C92882E061E00E94992785E892E0D9
:1010A0000E94C92882E062E00E94992784E792E0CA
:1010B0000E94C92882E063E00E9499278CE692E0B2
:1010C0000E94C92810E03FC480E064E871E00E94FB
:1010D000FB2786E993E00E94B03182E060E00E9445
:1010E00099278FE491E00E94C92882E061E00E9484
:1010F000992780E491E00E94C92882E062E00E9482
:10110000992786E391E00E94C92882E063E00E946B
:10111000992789E291E00E94C92810E0809192020B
:10112000843009F489C080919502811102C040E2A7
:1011300001C040E081E060E00E94EA2E80919902C7
:10114000811102C040E201C040E081E061E00E9404
:10115000EA2E80919602811102C040E201C040E077
:1011600081E062E00E94EA2E80919802811102C023
:1011700040E201C040E081E063E00E94EA2E80E0AE
:10118000612F4EE70E94EA2E81E061E00E94A91BD8
:10119000809192028230E1F1833009F443C08130C2
:1011A00009F0BCCF113059F038F0123091F0133003
:1011B00009F0B4CF81E00AC00E94E31BAFCF809159
:1011C000DE03882311F082E001C083E00E94392B06
:1011D000A5CF8091960281110EC080919502811158
:1011E0000E947A238091E003811102C04C990EC7BE
:1011F0005E985F9A02C05E9A5F989091960281E035
:1012000089278093960284EF91E00E945D1E86CF2D
:1012100080E0612F40E20E94EA2E133008F07ECF7A
:101220001F5F7CCF80E0612F40E20E94EA2E1123F5
:1012300009F474CF115072CF0E94092EFACEA092F9
:10124000E10384E991E00E94CE2E8091EB038A3085
:1012500010F40E94282E8091EB036AE070E00E9457
:1012600044138AE30E9451288091EC038A3010F4E1
:101270000E94282E8091EC036AE070E00E944413E3
:1012800080E061E00E94992783EA91E00E94C928EA
:1012900082E063E00E94992780E991E00E94C928DA
:1012A0008EE063E00E9499278091EA03813049F043
:1012B00028F0823051F481E891E005C08BE891E09C
:1012C00002C085E891E00E94C9280E94F02700E052
:1012D00010E0EAE0DE2EF4E1CF2E8091920284301D
:1012E00009F440C1153010F062E001C063E080E015
:1012F00040E20E94EA2E153010F063E001C062E087
:1013000080E04EE70E94EA2E82E062E00E94992788
:101310008091EB038A3010F40E94282E8091EB0319
:101320006AE070E00E9444138AE30E945128809191
:10133000EC038A3010F40E94282E8091EC036AE0BE
:1013400070E00E94441387E062E046E00E94DD2ED8
:1013500080917702882319F08BE791E002C085E73E
:1013600091E00E94C928123089F030F4112361F015
:101370001130A1F483E00FC0143061F048F0153053
:1013800069F48EE063E008C082E005C085E003C038
:1013900086E001C08EE062E00E94992780E061E073
:1013A0000E94A91B80919202823009F4CFC0833041
:1013B00009F4D1C0813009F090CF123009F455C042
:1013C00028F4112379F11130D9F1CAC0143009F48D
:1013D00068C008F458C0153009F0C2C00E94E62762
:1013E000F09077021092770286E993E00E94B03184
:1013F00082E060E00E9499278CE691E00E94C92873
:1014000082E061E00E94992782E691E00E94C9286B
:1014100082E062E00E9499278AE591E00E94C92853
:1014200000E060C08091EB038E3020F4865F8093F3
:10143000EB0396C06D2D0E947E329093EB0390C01B
:101440002091EB03822F6D2D0E947E32993011F492
:10145000295001C02F5F2093EB038091EB0388316B
:1014600009F07EC0C092EB037BC08091EC03813316
:1014700020F4865F8093EC0373C06D2D0E947E3252
:101480009093EC036DC02091EC03822F6D2D0E9490
:101490007E32993011F4295001C02F5F2093EC0364
:1014A0005FC09091770289278093770259C083E0CB
:1014B0006091EA0348E50E94EA2E80E0602F4EE743
:1014C0000E94EA2E83E0602F0E94992780E061E06D
:1014D0000E94A91B809192028230F1F0833029F1A1
:1014E000813029F080919202843009F727C000935F
:1014F000EA0386E090E0602F0E94F5228091EA03E3
:10150000811103C081E00E94B72A8091EA038230F2
:1015100049F70E94B72AE6CF80E0602F40E20E94A0
:10152000EA2E0230F8F60F5FDDCF80E0602F40E258
:101530000E94EA2E0023B1F20150D4CFF09277023C
:1015400080E06CE071E00E94FB270AC0153008F0D3
:10155000C4CE1F5FC2CE112309F4BFCE1150BDCE41
:1015600001E0BBCE002391F083E090E06091770230
:101570000E94F52284E090E06091EC030E94F52245
:1015800085E090E06091EB030E94F52280E06CE042
:1015900071E00E94FB271092E1034BCDC090250320
:1015A00090902403D0902703B09028038CE891E01A
:1015B0000E94CE2E8DEC91E00E94C92882E061E06D
:1015C0000E9499278DEB91E00E94C9280E94F02784
:1015D0008091890290918A02805D974090938A025F
:1015E0008093890210E000E080919202843009F437
:1015F0005FC182E062E00E94992769E06C1510F0FB
:101600000E94282E8C2D6AE070E00E9444138AE329
:101610000E94512889E0891510F00E94282E892DFA
:101620006AE070E00E94441382E063E00E94992720
:101630008AEB91E00E94C9288091890290918A02E8
:101640000A9714F40E94282E8091890290918A02B0
:101650000E94A0288FE20E94512899E09B1510F06B
:101660000E94282E8B2D6AE070E00E9444138FE2C6
:101670000E945128A9E0AD1510F00E94282E8D2D52
:101680006AE070E00E9444138DE061E00E949927B7
:101690008091E903882319F086EB91E002C082EB88
:1016A00091E00E94C92880E00111B3C462E040E2E9
:1016B0000E94EA2E80E061E00E9499278BEF800F64
:1016C000863048F480E062E040E20E94EA2E80E04A
:1016D00063E00E9499278EE70E945128802F90E0B6
:1016E000A0E0B0E08B839C83AD83BE830B9700F5B5
:1016F000EB81FC81EC5CFF4F0C94B2328DE061E039
:1017000015C082E005C083E003C085E001C086E02B
:1017100062E00CC084E009C085E007C087E005C036
:1017200088E003C08AE001C08BE063E00E94992753
:1017300080E061E00E94A91B80919202823009F44E
:10174000A9C0833009F4ABC0813009F04DCF00232C
:1017500051F0EB81FC813197EA30F10590F4E15CC6
:10176000FF4F0C94B2320E9404293ECF9DE09C159D
:1017700018F0AAE0CA0E05C08C2D6AE00E947E32E5
:10178000C92E11E031CF8C2D6AE00E947E32993053
:1017900019F4B7EFCB0E01C0C394E8E111E0CE120B
:1017A00023CF74E1C72E20CFF0E3F91518F02AE01B
:1017B000920EE7CF892D6AE00E947E32992EE1CF0A
:1017C000892D6AE00E947E32993019F437EF930E2A
:1017D000D8CF9394D6CF45E14D1518F06AE0D60ED8
:1017E000D0CF8D2D6AE00E947E32D92E0DC08D2D76
:1017F0006AE00E947E32993019F487EFD80E01C05A
:10180000D3949FE19D1530F0D110BBCF11E0DD24C2
:10181000D394EACE6EE1D62EB4CFA2E0AB1518F089
:10182000BAE0BB0EAECF8B2D6AE00E947E32B92E9D
:101830009111A7CF11E0BB24B394D6CEEBE0EB150A
:1018400098F1B3949ECF8091890290918A02893554
:10185000910514F40A9604C06AE070E00E949E327A
:1018600090938A02809389028CCF209189023091D3
:101870008A02C9016AE070E00E949E32099719F459
:101880002950310902C02F5F3F4F30938A022093C5
:10189000890277CF0A3008F0A7CE0F5FA5CE0023CC
:1018A00009F4A2CE0150A0CE11E05AE0B52E9CCE94
:1018B000E0908902F0908A02F0E3EF1AF8EFFF0A55
:1018C000F0928A02E0928902112341F1692D70E0C1
:1018D0002D2D30E00B2D10E08C2D90E040E050E0FD
:1018E0000E946C20C092250390922403109223033F
:1018F000D0922703B092280380918902825B809363
:1019000029030E941C260E949E1B0E942F19682FEB
:101910008093210280E190E00E94F52280E06CE05B
:1019200071E00E94FB2785CB82E390E00E945D1E60
:1019300080919202823009F48FC2833009F495C2FB
:10194000813009F44BC080919202843009F499C22D
:101950000E94F027111107C0809124022CE1829F80
:10196000C001112402C080E090E00E947215133083
:1019700011F40E94E62780E0612F4EE70E94EA2ED4
:1019800080E160E00E949927809124026AE070E083
:101990000E94441380E161E00E9499278091230214
:1019A0006AE070E00E94441380E162E00E9499279F
:1019B00080917A026AE070E00E94441380E1612F16
:1019C0000E94992780E00E94FB2E80939202811151
:1019D000ABCF84E690E00E945D1EF4CF113009F495
:1019E00044C060F1123009F451C0133009F0ABCF9C
:1019F00086E993E00E94B03182E060E00E9499277E
:101A000089E592E00E94C92882E061E00E9499275E
:101A100086E492E00E94C92882E062E00E94992751
:101A200083E392E00E94C92882E063E00E94992744
:101A30008BE292E00E94C92800E06DC080912402F0
:101A4000893020F48F5F8093240202C01092240218
:101A5000609124023CE1639FC001112469870E94C8
:101A6000721582E090E069850EC080912302893072
:101A700020F48F5F8093230202C01092230289E03A
:101A800090E0609123020E94F5225DCF80917A025E
:101A9000893020F48F5F80937A0202C010927A021C
:101AA00088E090E060917A02EECF8091220281116D
:101AB00037C040E282E160E00E94EA2E8091760227
:101AC000811130C040E282E161E00E94EA2E809103
:101AD0002002811129C040E282E162E00E94EA2EE8
:101AE00080E0602F4EE70E94EA2E82E1602F0E9484
:101AF00099270330D8F40E94F02780E061E00E942B
:101B0000A91B80919202823009F492C1833009F4BA
:101B100099C1813071F080919202843031F613CFF7
:101B200048E5C8CF48E5CFCF48E5D6CF0E94E627A5
:101B3000E4CF0130E9F0A0F00230B1F1033059F701
:101B400084E791E00E94CE2E8BE192E00E94C928AA
:101B500080E061E00E94992744E1C42ED12C31C07D
:101B6000609122026827609322028AE090E023C0FD
:101B70000E94E6278091760281110BC00E947A2391
:101B800082E161E04EE20E94EA2E0E9466230E94FA
:101B900076236091760281E068276093760281E087
:101BA00090E00E94F522B7CF6091200268276093F1
:101BB00020028AE190E00E94F52282E30E94361A18
:101BC000AACF8CEE8C0D843119F480E062E004C061
:101BD000883221F480E063E00E94992787E5B6010E
:101BE0000E9406230E9451284FEFC41AD40A60E5D0
:101BF000C616D10431F780E060E00E94A91B80E0A6
:101C00006CE071E00E94FB2786E993E00E94B0310E
:101C100080E06BE00E94551283E060E00E94551264
:101C200086E06CE00E94551288E060E00E94551248
:101C30008DE061E00E94551280E161E044E00E9485
:101C4000EA2E81E160E00E94551280E063E00E948C
:101C500099278AE092E00E94C928809192028430FC
:101C600009F459CF80E00E94FB2E8093920280E01D
:101C70000E94FB2E823089F780919202843069F3B2
:101C800080E00E94FB2E8093920280E00E94FB2E57
:101C9000833091F786E993E00E94B03180E060E004
:101CA0000E9499278FEF91E00E94C92881E090E07F
:101CB0000E94A0288EE20E94512880E090E00E94BD
:101CC000A02887EF91E00E94C92880E061E00E948F
:101CD000992781EF91E00E94C92838E0D32E8D2DFD
:101CE0000E9412260E94B525811108C088E70E9433
:101CF00051288D2D60E170E00E944413D39488E751
:101D0000D812EDCF80E062E00E9499278AEE91E040
:101D10000E94C9288091F0039091F103009711F47B
:101D200086EF93E0D301A81BB90BCD010E94A02838
:101D300085EE91E00E94C92888E60E94122682ED75
:101D400093E061E10E94E71E0E94B52588E690E0DD
:101D500062E070E00E94932682ED93E00E94A21E52
:101D6000B82E82ED93E00E94A21E26E095958795FD
:101D70002A95E1F7BC01990F880B990B0E949134C9
:101D800020E030E040E85EE30E94F0346B017C012B
:101D90006B2D70E080E090E00E948F349B01AC01DD
:101DA000C701B6010E94B93240E00E94C5138FED11
:101DB0000E94512880E063E00E9499278FED91E016
:101DC0000E94C9288BE063E00E9499278BED91E087
:101DD0000E94C92880912102882311F083E501C067
:101DE00087E50E94512880919202843009F444CF03
:101DF00081E00E94FB2E8093920286E063E00E94C5
:101E0000992786E00E941316BC01990F880B990B45
:101E10000E94913420E030E040EA5BE30E94F0341D
:101E200042E00E94C51384E690E00E942C1EDBCFA6
:101E300080E0602F40E20E94EA2E033008F06BCE73
:101E40000F5F69CE80E0602F40E20E94EA2E0023FF
:101E500009F461CE01505FCE80E0612F40E20E9424
:101E6000EA2E133048F41F5F07C080E0612F40E284
:101E70000E94EA2E1111115080E0612F0E949927D3
:101E800062CD809179028111D4C880E090E00E94F7
:101E90007215CFC880E06A2D40E20E94EA2EB2E0BF
:101EA000BA1508F4C6C8A394C4C880E06A2D40E2FD
:101EB0000E94EA2E8A1408F0BCC8AA94BAC89111EC
:101EC0004AC080917902811146C080917A028823AC
:101ED00009F441C090917B0281E0892780937B02C5
:101EE0000E94621A38C0992349F00E94D7271092A5
:101EF0007402109279020E949E1B2DC080912202D2
:101F0000882339F080917502811103C00E94FD2D54
:101F100022C09091790281E08927809379020E9402
:101F2000621A80917902811109C080E090E00E94DC
:101F3000721586E993E00E94A7310AC080912402BD
:101F4000ECE18E9FC00111240E9472150E948D2722
:101F500082E30E94361A80917402811102C088E7E0
:101F600001C080EF0E94361A0C94500587E00E9451
:101F700013168132934074F080917402882351F0DB
:101F80000E94D72710927402109279020E949E1B21
:101F90000C9482050E94621A0C94820581E0809361
:101FA0001C0280919702811103C08EE00E9472276B
:101FB0008091950281110E947F2380919602811168
:101FC0005F9A0E949E1B0C9432068F5F0C94410610
:101FD0008091E903882329F080917C0281110C947F
:101FE000BE0686E993E00E94A7310C94BE068DE3FD
:101FF00061E50E947B2D0E94392381E080931D02C0
:102000000C94B2070E948D270C94CF070E94662380
:10201000EFC861E040E20E94EA2E80E063E040E227
:102020000E94EA2E80E062E047CB81E56FE60E94E5
:102030007B2D0E9439230C9434070E948D270C9429
:102040003407E75BFF4F0C94B23280E062E00E94FD
:102050007B2D182F80E061E00E94992780E065E6E3
:102060000E947B2DEAE08E9FC00111240E94EA2885
:10207000111106C086E993E062EA71E00E9488319E
:1020800080E062E00E94992780E065E60E947B2D57
:10209000FAE08F9FC001112488519C4F0E94EA28CA
:1020A00080E065E60E947B2D2AE0829FC00111241A
:1020B000112319F028EB3BE002C020ED37E0820F3E
:1020C000931F0E94EA288BE00E9439230C941E077C
:1020D00080E064E60E947B2D082F89E091E00E9459
:1020E000C9283CE3039F800111240056104FD12CD6
:1020F00080E5B8010E940623482F8D2D61E00E94E3
:10210000EA2EB8016C5E7F4F80E50E940623482FBF
:102110008D2D62E00E94EA2EB801685D7F4F80E558
:102120000E940623482F8D2D63E00E94EA2ED3944F
:102130000F5F1F4F44E1D412DBCF0C941E0780E0E9
:1021400064E60E947B2D60E5869FC00111248C010E
:10215000005F184DD12C80E5B8010E940623482F5E
:102160008D2D60E00E94EA2EB8016C5E7F4F80E505
:102170000E940623482F8D2D61E00E94EA2EB801AF
:10218000685D7F4F80E50E940623482F8D2D62E019
:102190000E94EA2EB801645C7F4F80E50E9406230E
:1021A000482F8D2D63E00E94EA2ED3940F5F1F4FBE
:1021B00084E1D812D0CF0C941E0785E061E00E9424
:1021C00099278EE191E00E94C92880912402ACE118
:1021D0008A9FC00111240E9472150E94332380E25D
:1021E00093E06AEF70E040E02EE031E00E942C2E98
:1021F00080E293E066E970E040E024EB30E00E948A
:102200002C2E84E992E06AEF70E040E02AEF30E0A3
:102210000E942C2E80ED97E00E942C1E80E090E022
:102220000E9472150C9422070E9498227C0180E083
:1022300064E771E00E94FB27FF2401E00E949822DE
:10224000E816F90609F062C080919202843009F420
:102250005DC00093E10386E993E00E94B03181E024
:1022600064E10E947B2D182F112381F080E064E14E
:102270000E947B2DD82E80E064E00E947B2D682F89
:102280008D2D40E00E94EA2E1150EECF84EF91E0B8
:102290000E942C1ED3CF18E286E993E068E10E94E9
:1022A0009E3188EC90E00E942C1E80919202843036
:1022B00009F411E01150123078F70C94220780E0F5
:1022C00064E771E00E94FB2700E010E0812F602F9F
:1022D00040E00E94EA2E86E990E00E942C1E809148
:1022E0009202843011F414E104E0812F602F40E267
:1022F0000E94EA2E1F5F143148F30F5F043028F369
:1023000080ED97E00E942C1E0C9422071092E103AE
:102310000C942207A0E0B0E0E0E9F1E10C94323641
:102320006C017A018B01C0E0D0E0CE15DF0589F0A9
:10233000D8016D918D01D601ED91FC910190F08154
:10234000E02DC6010995892B11F47E0102C021966A
:10235000ECCFC701CDB7DEB7E8E00C944E36209144
:102360006702309168022817390771F4909166026C
:1023700080916502981741F0E0916602F0E0EB5D14
:10238000FD4F808190E008958FEF9FEF08950895AD
:102390001F93CF93DF93DC015C962D913C915D9769
:1023A0002115310539F481E090E013969C938E93CA
:1023B00012973DC05196ED91FC91529750969C9189
:1023C0005097892F80951FB75E964C915E9741FB81
:1023D000772770F941FD6095F8944081772311F0DB
:1023E000492B01C048234083E9012197F1F748E0D8
:1023F000508160FF02C0592B01C058235083E9016E
:102400002197F1F76695415099F7772321F0908154
:102410008923808303C08081982B90831FBF5C96A3
:102420008D919C915D970197F1F721E030E0C90112
:10243000DF91CF911F91089520916702309168023A
:102440002817390771F4809165022091660290E0A7
:10245000805C9F4F821B910960E470E00E949E3275
:10246000089580E090E0089520916702309168021D
:1024700028173907B9F49091660280916502981780
:1024800089F0E0916602F0E0EB5DFD4F80812091E4
:10249000660230E02F5F3F4F2F7333272093660291
:1024A00090E008958FEF9FEF0895CF93C62F80930C
:1024B00073021092720260E043E00E94DD2E609190
:1024C00072026F5F8091730243E00E94DD2E8C2FB9
:1024D00090E08D30910508F0D5C0FC01E05BFF4F26
:1024E000809173020C94B2326091720240E00E94BB
:1024F000EA2E81E067C06091720241E00E94EA2EFC
:1025000082E00E945128609172026F5F8091730295
:1025100044E00E94EA2E87E014C06091720246E017
:102520000E94EA2E86E00E94512882E00E945128F3
:10253000609172026F5F8091730243E00E94EA2E05
:1025400084E00E94512884E09BC06091720246E0C2
:102550000E94EA2E86E00E94512882E013C060911A
:10256000720243E00E94EA2E84E00E94512887E034
:1025700044C06091720243E00E94EA2E86E00E940D
:10258000512886E00E945128609172026F5F80910D
:10259000730244E022C06091720240E00E94EA2E81
:1025A00086E00E94512886E010C06091720241E0EE
:1025B0000E94EA2E81E01EC06091720240E00E94FB
:1025C000EA2E86E00E94512882E00E945128609104
:1025D00072026F5F8091730243E00E94EA2E84E0F2
:1025E0000E94512885E04CC06091720240E00E9438
:1025F000EA2E86E00E94512882E00E9451288091B4
:102600007302609172026F5F8E5F47E00DC08F5F53
:102610006091720244E00E94EA2E80917302609100
:1026200072026F5F8F5F44E00E94EA2E2BC06091C0
:10263000720240E00E94EA2E82E00E94512880E06F
:102640000E945128609172026F5F8091730247E08F
:102650000E94EA2E83E00E94512887E011C0609119
:10266000720247E00E94EA2E80E00E9451286091A9
:1026700072026F5F8091730247E00E94EA2E83E04E
:102680000E945128CF910895282FAB01672B61F448
:10269000E0919603F09197030190F081E02D86E997
:1026A00093E0622F09950895682F70E080E090E034
:1026B0000E945D2808951F93CF93DF9380E10E94CD
:1026C0001226C6EBD3E018816981229682ED93E051
:1026D0000E94E71E82ED93E0612F0E94E71E83E0D7
:1026E000C23CD80781F70E94B52591E0811190E0A6
:1026F000892FDF91CF911F9108950F931F93CF934F
:10270000DF9380E190E060E270E00E949326809188
:10271000750390E020917603821B91098032910528
:10272000ECF3CAE0D0E082ED93E00E94A21E8E019D
:10273000000F111F01551C4FF8011382848382ED95
:1027400093E00E94A21EF80123813481822B932BF7
:1027500094838383C930D10539F02196C031D105E6
:1027600011F7C0E0D0E0DFCFDF91CF911F910F9143
:1027700008950E947D13EFEAF3E0878190858064DD
:10278000908787830E945B1308954F925F926F92A8
:102790007F928F929F92AF92BF92CF92DF92EF92F1
:1027A000FF92CF93DF936B017C01B42EA7019601BA
:1027B0000E945933882329F086E993E06EEA71E09C
:1027C0000FC0C701B6019F772FEF3FEF4FE75FE7DD
:1027D0000E94543318163CF486E993E062EB71E0F2
:1027E0000E94883189C0C701B6012FEF3FEF4FE744
:1027F0005FE40E94543318162CF486E993E066EBEC
:1028000071E0EECFC701B6012FEF3FEF4FE75FEC6E
:102810000E948A3487FDF1CFC701B60120E030E085
:10282000A9010E948A3487FF09C08DE20E945128C5
:10283000EC01F7FAF094F7F8F09402C0C0E0D0E0B1
:10284000A12C60E070E080E09FE3AB1441F02DEC40
:102850003CEC4CEC5DE30E94F034A394F6CFA7016E
:1028600096010E94B9322B013C010E9425336B0175
:102870007C010E948F349B01AC01C301B2010E9414
:10288000B8322B013C01C701B6014AE00E945D2825
:10289000C80FD91FBB2041F086E993E06AEB71E0D5
:1028A0000E948831C80FD91FFB2CFF2021F1C301E2
:1028B000B20120E030E040E251E40E94F0342B010C
:1028C0003C010E9425334B01A12CB12CC501B40160
:1028D0004AE00E945D28C80FD91FC501B4010E94BB
:1028E0008F349B01AC01C301B2010E94B8322B01AD
:1028F0003C01FA94DACFCE01DF91CF91FF90EF90B7
:10290000DF90CF90BF90AF909F908F907F906F900F
:102910005F904F900895A1E0B0E0E1E9F4E10C94FC
:10292000363689830E947D132091B6033091B70318
:10293000A9015B7F8981811106C0397F3093B7037C
:102940002093B60306C0CA0192609093B7038093A8
:10295000B6038091B6039091B70391609093B7034B
:102960008093B6030E945B130E947D138091C6037F
:102970009091C70396FFF8CF0E947D130091C60384
:102980001091C703002710728091B6039091B7038E
:102990009E7F9093B7038093B6030E945B130E94BF
:1029A0007D132091C6033091C703C9018827907415
:1029B00036FDF5CF0115110549F40E947D13809174
:1029C000C8039091C903937085599C4F2196E4E008
:1029D0000C94523690E0FC01E050FD4F3491FC0124
:1029E000EF51FC4F2491FC01E353FC4FE491EE23A3
:1029F00009F43BC0332339F1333091F038F43130EE
:102A0000A9F0323001F584B58F7D12C0373091F0D6
:102A10003830A1F03430B9F4809180008F7D03C04C
:102A2000809180008F77809380000DC084B58F7770
:102A300084BD09C08091B0008F7703C08091B00041
:102A40008F7D8093B000F0E0EE0FFF1FE754FC4F46
:102A5000A591B4918FB7F894EC91611103C02095C2
:102A60002E2301C02E2B2C938FBF0895CF93DF937D
:102A700090E0FC01EF51FC4F2491FC01E353FC4F2B
:102A80008491882361F190E0880F991FFC01EA503E
:102A9000FD4FC591D491FC01E754FC4FA591B49131
:102AA000611109C09FB7F89488812095822388839B
:102AB000EC912E230BC0623061F49FB7F8943881FB
:102AC000822F809583238883EC912E2B2C939FBF9C
:102AD00006C08FB7F894E8812E2B28838FBFDF9133
:102AE000CF910895CF93DF93EC018AE061E00E94DB
:102AF0003615209719F48AE060E005C0CF3FD10574
:102B000029F48AE061E00E94EA1443C0EAE0F3E0BD
:102B1000E491E330F9F048F4E130B9F0E230A1F5A6
:102B200084B5806284BDC8BD34C0E730E9F0E830C8
:102B300019F1E43049F58091800080628093800033
:102B4000D0938B00C0938A0024C084B5806884BD74
:102B5000C7BD1FC080918000806880938000D093A3
:102B60008900C093880015C08091B0008068809370
:102B7000B000C093B3000DC08091B000806280931C
:102B8000B000C093B40005C0C038D1050CF0B9CF77
:102B9000B2CFDF91CF910895CF93DF93CFEAD3E007
:102BA000888161E00E943615898161E00E943615B6
:102BB000898160E00E94EA14888160E00E94EA1442
:102BC00081E090E00E942C28888161E00E94EA1454
:102BD00081E090E00E942C280E948F250E947D13A6
:102BE00080E091E89A8B898B0E945B1384EF91E0DF
:102BF0000E942C280E947D1381E090EC98878F839F
:102C00008B859C8598619C878B878D859E858F6140
:102C10009E878D870E945B138EE690E00E942C2891
:102C2000DF91CF9108958E3008F08E5087708064C8
:102C300080937C0080917A00806480937A008091F8
:102C40007A0086FDFCCF809178002091790090E099
:102C5000922B08952FB7F89460916E0270916F02D5
:102C600080917002909171022FBF08958F929F9270
:102C7000AF92BF92EF92FF920F931F93CF93DF9388
:102C80007C010E942A164B015C0124EF820E21E098
:102C9000921EA11CB11CC0E0D0E000E010E00E9438
:102CA0002A16681579058A059B0598F02196CC0FA0
:102CB000DD1FCC0FDD1FCE0DDF1D1882DF91CF9100
:102CC0001F910F91FF90EF90BF90AF909F908F90CA
:102CD00008950830110554F70E947D138091C603B2
:102CE0009091C70397FF27C0E091CC03F091CD03EB
:102CF000CF018827987F81159042D1F4EF70FF278C
:102D0000EC17FD071CF00F5F1F4FEF018091CE0302
:102D10009091CF03EE0FFF1FEE0FFF1FEE0DFF1D73
:102D2000908381838091D0039091D1039283838398
:102D300088E290E002C08EE190E00E942C28AFCFA4
:102D40008F929F92AF92BF92DF92EF92FF920F937A
:102D50001F93CF93DF9300D000D0CDB7DEB77C01B7
:102D60000E942A164B015C0128EE820E23E0921E7F
:102D7000A11CB11C19821A821B821C8200E010E087
:102D8000DD24D3940E942A16681579058A059B05CF
:102D9000F8F40E947D138091C6039091C70397FFBA
:102DA00035C08091CC039091CD03FC01E370FF27E7
:102DB000A1E0B0E0AC0FBD1FAE0FBF1F2C912223CE
:102DC000A1F088E290E00E942C2804301105D0F296
:102DD0000E942A16681579058A059B0518F0F701E7
:102DE000108217C0F701108614C0843F914048F745
:102DF000DC920F5F1F4F8091D0039091D103EE0FB3
:102E0000FF1FEE0DFF1D90838183DBCF8EE190E0ED
:102E1000DACF0F900F900F900F90DF91CF911F910D
:102E20000F91FF90EF90DF90BF90AF909F908F90A9
:102E300008951F920F920FB60F9211242F933F9374
:102E40008F939F93AF93BF9380916E0290916F0287
:102E5000A0917002B091710230916D0223E0230FB6
:102E60002D3720F40196A11DB11D05C026E8230FC2
:102E70000296A11DB11D20936D0280936E02909366
:102E80006F02A0937002B0937102809169029091D9
:102E90006A02A0916B02B0916C020196A11DB11D56
:102EA0008093690290936A02A0936B02B0936C02C4
:102EB000BF91AF919F918F913F912F910F900FBE36
:102EC0000F901F9018951F920F920FB60F9211241A
:102ED0002F933F934F935F936F937F938F939F9322
:102EE000AF93BF93EF93FF93E0916702F091680275
:102EF000309709F451C0968DA685B785858591FFD9
:102F000004C09C91892329F447C09C91892309F02E
:102F100043C0A389B4899C918589809589238C932A
:102F2000868997890197F1F7608D718DA685B785A0
:102F3000558538E020E0CB010197F1F7822F90E032
:102F400095958795282F4C91452309F0206831509D
:102F500091F7868D81FD20958091650290E0019624
:102F60008F73992730916602381749F0A091650256
:102F7000B0E0AB5DBD4F2C938093650203C0868D9E
:102F80008160868F828D938D0197F1F7A389B48933
:102F90009C918589892B8C93FF91EF91BF91AF9183
:102FA0009F918F917F916F915F914F913F912F9161
:102FB0000F900FBE0F901F901895E0916702F0914F
:102FC0006802E817F90769F4A389B4899C91858997
:102FD000809589238C93109268021092670281E099
:102FE000089580E0089583FD02C098E001C098E252
:102FF0008770892B98E10FB6F894A895909360009C
:103000000FBE80936000A8958091600080648093DB
:10301000600080917902882319F083B7817F0BC00B
:1030200080917402882321F083B7817F846003C07C
:1030300083B7817F8C6083BF83B7816083BF8895AE
:1030400083B78E7F83BF0FB6F894A89580916000F8
:10305000886180936000109260000FBE80916000D4
:103060008F7B809360000895CF93C82F81E061E04B
:103070000E9499278BE693E00E94C9288C2F6AE072
:1030800070E00E9444138AE30E94512880E20E946B
:103090005128EC2FF0E0EE0FFF1FE657FD4F608147
:1030A000718180E090E00E948F342DEC3CEC4CEC80
:1030B0005DE30E94F03442E00E94C513CF91089571
:1030C000CF938091E9038823E9F18091E703909100
:1030D000E50320912503981730F4C1E0821768F0CA
:1030E000291758F009C0891738F4C0E0821728F46E
:1030F000291718F4C1E001C0C0E0891310C0509135
:10310000E6033091E403351738F040912403451766
:1031100018F0341708F0C1E0381708F4C1E028139C
:1031200007C0309124038091E603381708F0C1E00E
:10313000291309C0909124038091E403981718F48F
:10314000C1E001C0C0E080918B02C81749F0CC23D8
:1031500011F087E401C086E60E943923C0938B02F8
:103160008C2FCF910895CF93DF930E949822C3E2D2
:10317000D3E089830E9431210E94BB218091B70254
:103180008A83DF91CF9108950E9431210E94BB2153
:103190008091BB0290E08E54984F90938A02809366
:1031A00089020E9431210E94BB218091B902809343
:1031B00027030E9431210E94BB218091BA02809393
:1031C000280380E063E00E9499270E9431210E9439
:1031D000BB21E091B802F0E0EE0FFF1FE55AFC4F73
:1031E000659174918DE792E00E94803486E993E0C6
:1031F0006DE772E00E9488318AE063E00E949927BF
:103200008091890290918A020E94A0288FE20E94F8
:103210005128809128038A3010F40E94282E809132
:1032200028036AE070E00E9444138FE20E94512854
:10323000809127038A3010F40E94282E8091270362
:103240006AE070E00E9444138091870290918802A6
:103250000A9724F482E160E00E9499270895809102
:1032600028039DEF980F983008F06DC09CEF980FE1
:10327000963008F466C0833089F520912703409189
:10328000890250918A0235E0349FC001359F900D2C
:10329000112497FD039695958795959587950496A6
:1032A00067E070E00E949E324FE150E0BA01681B77
:1032B000790B38E1369FA001379F500D11244F5FE5
:1032C0005F4F8091250378E1279F90011124280FFB
:1032D000311D81E042175307BCF135C08A3099F5A2
:1032E000209127034091890250918A0235E0349F52
:1032F000C001359F900D112497FD039695958795F4
:1033000095958795019667E070E00E949E324FE1A7
:1033100050E0BA01681B790B38E1369FA001379F56
:10332000500D11244F5F5F4F8091250378E1279F57
:1033300090011124280F311D81E04217530724F416
:1033400002C081E0089580E00895EF92FF920F930C
:103350001F93CF93DF9388E60E94122682ED93E0BD
:1033600060E00E94E71E0E94B52588E690E067E0D5
:1033700070E00E94932682ED93E00E94A21EC3E2B9
:10338000D3E0982F9695969596959E70292F220FAB
:10339000220F920F8F70890F888382ED93E00E9435
:1033A000A21E982F92959F708F702AE0929F800D99
:1033B0001124898382ED93E00E94A21E982F969596
:1033C000969596959670292F220F220F920F8F7047
:1033D000890F8A8382ED93E00E94A21E982F929516
:1033E0009F708F702AE0929F800D11248B8382ED55
:1033F00093E00E94A21E982F92959F708F702AE0F2
:10340000929F800D11248C8382ED93E00E94A21E76
:10341000982F92959F708F702AE0929F800D1124B3
:103420008D8382ED93E00E94A21E982F9F70925E82
:1034300082958F70E92E2AE0829FE00C1124EE82A3
:103440008A81698170E0488150E02C8130E00D81F3
:1034500010E0F12C9EE4E91A98EFF90A90E00E943E
:103460006C20CDB7DEB7E6E00C945036CF93C82F72
:1034700080917902882329F0809164008062809392
:103480006400C7FF04C083E00E94F317C857C0342C
:1034900020F082E00E94F317CC53C03220F081E08C
:1034A0000E94F317CE51C03118F080E00E94F3174C
:1034B00080917902882321F0809164001092640049
:1034C000CF910895CF930E94B3180E946018809303
:1034D0007C02809125038A3018F481E060E005C009
:1034E0006AE00E947E32682F81E00E94551280912E
:1034F0002503CAE06C2F0E947E3284E0692F0E946F
:10350000551287E06AE00E945512809124038A30A8
:1035100018F48AE060E005C06C2F0E947E32682FAC
:103520008AE00E945512809124036AE00E947E3254
:103530008DE0692F0E94551281E161E043E00E9415
:10354000DD2E81E161E00E94992780917B0281114B
:1035500004C080917A02811103C088E70E9451283B
:1035600080917902882319F084E40E945128809187
:10357000E903882349F080917C02882311F08EE4CE
:1035800001C08EE60E94512880917802882341F084
:1035900084E062E00E94992781E593E00E94C928B7
:1035A00081E162E043E00E94DD2E81E162E00E9461
:1035B000992780917702882319F084EF0E9451287F
:1035C0008091E003882319F080E70E9451288091C0
:1035D0007602882319F083E50E9451288091970292
:1035E000811108C080919602811104C080919502DA
:1035F000882319F080E50E94512886E00E94131666
:103600009093880280938702C4E08AE00E94361A71
:1036100086E00E9413162091870230918802820F63
:10362000931F9093880280938702C15071F765E0E1
:1036300070E00E949E32072E000C880B990B0E94AE
:10364000913420E030E040EA5BE30E94F03426E66B
:1036500036E646E350EC0E94B9322CE938ED49E9F0
:1036600052E40E94F0340E9425331616170634F4F3
:10367000643671052CF063E670E002C061E070E032
:10368000CB01072E000CAA0BBB0B9C01AD016A33CA
:103690007105A4F02953310941095109ABE5B0E0A6
:1036A0000E9415362AE230E040E050E00E94F635F4
:1036B000DA01C9010896A11DB11D13C021503109BD
:1036C00041095109A7E0B0E00E94153627E330E038
:1036D00040E050E00E94F635DA01C9010196A11DD3
:1036E000B11D909388028093870281E160E00E947F
:1036F000992780918702909188020A9744F481E18A
:1037000060E040E20E94EA2E0E94F02702C00E9480
:10371000E62780918702909188020E94A0288091DC
:103720007502882311F08BE201C085E20E945128C6
:1037300082E160E00E949927CF91089586E993E0A5
:103740000E94B0310E94092E0E94C4180E94621A81
:103750000895CF92DF92EF92FF921F93CF93DF9362
:10376000C82FD62F0E942A166B017C0120E6C20EBC
:103770002AEED21EE11CF11C1092920214E09091EC
:103780009202911115C08C2F0E94FB2E8093920201
:10379000D11104C088E70E94361AF1CF0E942A1680
:1037A000C616D706E806F90650F710939202E7CF3F
:1037B00082E30E94361ADF91CF911F91FF90EF9024
:1037C000DF90CF900895AAE4B0E0E9EEFBE10C941D
:1037D0002B3681E064E571E00E94FB2782E064E61D
:1037E00071E00E94FB2783E06CE671E00E94FB27FA
:1037F00084E06CE471E00E94FB2784E891E00E9481
:10380000CE2E80919502882329F0CE018F5B9F4FA9
:103810000E94A01602E010E0D12C512CAE014F5FA7
:103820005F4F5A0190E4C92EC40E2AE0E22EF12C1B
:1038300080919202843009F4E2C181E062E04BE5BC
:103840000E94EA2E82E00E9451288AEA93E00E94B8
:10385000C92883E00E9451288DE50E94512881E00B
:1038600063E00E94992787E993E00E94C92881E0DC
:1038700061E043E10E94DD2E0E94F02780919502D5
:10388000811102C044E001C041E088E062E00E9492
:10389000EA2E80919502811102C040E201C042E50A
:1038A0008BE062E00E94EA2E82E060E00E949927AD
:1038B000609193027091940280E090E00E948F34B6
:1038C0002DEC3CEC4CEC5DE30E94F03442E00E94B5
:1038D000C51380E20E945128DD2089F05E9880E0C7
:1038E00090E00E9472150E947F2389E060E04AE028
:1038F0000E94DD2ECE018F5B9F4F0E94A01689E0B3
:1039000060E00E94992780919502882339F086E92A
:1039100093E0BE016F5B7F4F0E948831083099F0C1
:1039200030F4063059F00730D9F484E017C00A307B
:1039300089F070F00B30A1F480E110C081E00E94AA
:10394000341882E00BC082E00E94341888E006C080
:103950008AE004C083E00E9434188EE063E005C072
:10396000802F880F800F8E5F62E00E9499271123BD
:1039700009F456C010929202F50180E28193CE12B2
:10398000FDCF0E94E62780E062E044E10E94DD2E48
:1039900081E062E00E94992783E893E00E94C928B1
:1039A00081E063E00E94992784E793E00E94C928A0
:1039B000809192028330C0F5C5010E943616350110
:1039C00084E0D82E13E082E061E00E949927812CE8
:1039D000912CF301E80DF91D808180310CF480E217
:1039E0000E9451285FEF851A950A80E1881691049C
:1039F00081F7C5010E9436168BE062E00E9499278C
:103A000080E00E94FB2E80939202833088F6115052
:103A1000D1F6DA9490E1690E711CD110D3CFC8CFE2
:103A200080E061E00E94A91B80919202823009F43B
:103A3000CFC0833009F4D7C0813009F0DDC0802FBA
:103A400090E08C30910508F0BDC0FC01E35AFF4FB7
:103A50000C94B23280919502882309F4B3C080E0BF
:103A600032C080919302909194028B3623E09207AA
:103A700008F4A8C001977CC080919502882319F0B2
:103A80000E947A239FC08091E003811102C04C996B
:103A9000E0C00E94762381E08093950293C010914C
:103AA000950291C08091930290919402883344E0F2
:103AB000940708F087C001965BC080919502882327
:103AC00009F480C081E00E948B1452C080918C0266
:103AD00090918D024DC080919302909194029093A9
:103AE0008D0280938C02B7010E948A32682F86E192
:103AF00090E00E94F52220918C0230918D02C90144
:103B0000B7010E948A32A901481B590BCA01B701AB
:103B10000E948A3285E190E051C080918E0290919E
:103B20008F0226C0809193029091940290938F020D
:103B300080938E02B7010E948A32682F88E190E05C
:103B40000E94F52220918E0230918F02C901B701A7
:103B50000E948A32A901481B590BCA01B7010E9471
:103B60008A3287E190E02AC0809190029091910280
:103B7000909394028093930225C080919302909138
:103B800094029093910280939002B7010E948A322E
:103B9000682F8AE190E00E94F522209190023091F6
:103BA0009102C901B7010E948A32A901481B590B31
:103BB000CA01B7010E948A3289E190E00E94F52291
:103BC0000E941C2E10E0D09095025524539430CEC4
:103BD0000B3008F40F5F8091950281110DC0033006
:103BE00059F404E009C0011101508091950281113E
:103BF00003C0033009F402E010E0D12C19CE5520A7
:103C000009F180919302909194020AE010E0B801CA
:103C10000E948A32682F82E190E00E94F522209172
:103C2000930230919402C901B8010E948A32A9011D
:103C3000481B590BCA01B8010E948A3281E190E009
:103C40000E94F5220E94092EC65BDF4FEFE00C9424
:103C500047360E9466231DCF8F929F92AF92BF92EC
:103C6000CF92DF92EF92FF926C010E942A164B01D5
:103C70005C01E12CF12C0E942A16DC01CB01881991
:103C80009909AA09BB098C159D05AE05BF0528F445
:103C900081E00E94FB2E843071F781E00E94FB2EB0
:103CA000843011F480939202FF90EF90DF90CF90D8
:103CB000BF90AF909F908F9008950E942C280895F8
:103CC00085ED8093BC008091BC0084FDFCCF1092F8
:103CD000720308954091DE02262F30E0240F311D3B
:103CE00021323105DCF4209172032430C9F4FC0147
:103CF00080E090E0861758F43091DE022191DC01DB
:103D0000A454BD4FA30FB11D2C930196F3CF809106
:103D1000DE02680F6093DE0280E0089581E008957E
:103D200082E008950895E091760380917503E81785
:103D300030F4F0E0ED5FFC4F808190E008958FEF6C
:103D40009FEF08959091760380917503981750F432
:103D5000E92FF0E0ED5FFC4F208130E09F5F909312
:103D6000760302C02FEF3FEFC901089580917503DC
:103D700090E020917603821B91090895A0E0B0E0C5
:103D8000E4ECFEE10C9432367C01972F8A0180919D
:103D90004E03882391F0C62FD72F6E01C40ED51E77
:103DA000CC15DD0571F06991D701ED91FC91019081
:103DB000F081E02DC7010995F3CF862F642F0E9473
:103DC0006A1EC801CDB7DEB7E8E00C944E36A1E01C
:103DD000B0E0EDEEFEE10C943836698320914E039D
:103DE0002223D1F020917303203240F021E030E013
:103DF000FC013383228380E090E015C0809174033E
:103E0000E82FF0E0E15BFC4F998190838F5F809316
:103E100074038093730305C0CE01019661E00E9494
:103E20006A1E81E090E02196E2E00C9454366093A3
:103E3000B1027093B2028093B3029093B402DC019A
:103E4000CB01845D9E4FAF4FBF4F8093AD029093E7
:103E5000AE02A093AF02B093B00282E090E09093E4
:103E6000AC028093AB020E942A166093A702709363
:103E7000A8028093A9029093AA0208951F920F921C
:103E80000FB60F9211242F933F934F935F936F932D
:103E90007F938F939F93AF93BF93EF93FF93809103
:103EA000B900887F803609F49CC068F5883209F42F
:103EB0005BC090F4803109F454C038F4882309F4CD
:103EC000F6C0883009F44DC0F6C0883109F44CC002
:103ED000803209F45DC0EFC0803409F468C048F452
:103EE000803309F455C0883309F0E5C080934D0351
:103EF000D8C0803509F44FC0883509F45DC08834D6
:103F000009F0D9C0D6C0883909F4C7C0A8F48837E9
:103F100009F467C038F4883609F463C0803709F4BF
:103F200060C0C9C0883809F4B8C0803909F45FC0DE
:103F3000803809F0C0C05BC0803B09F486C038F40B
:103F4000803A09F466C0883A09F47FC0B4C0803C66
:103F500009F4A7C0883C09F4A4C0883B09F48AC0CE
:103F6000AAC080912A0310C090914C0380914B030A
:103F7000981770F5E0914C0381E08E0F80934C030D
:103F8000F0E0E55DFC4F80818093BB0085EC86C04E
:103F900080934D038EC0E0914C0381E08E0F80939F
:103FA0004C038091BB00F0E0E55DFC4F8083909175
:103FB0004C0380914B036EC0E0914C0381E08E0F67
:103FC00080934C038091BB00F0E0E55DFC4F808363
:103FD0008091710381116DC081E08093700384EA48
:103FE00061C083E08093720310920203CFCF80916F
:103FF0000203803208F051C0E091020381E08E0F8D
:10400000809302038091BB00F0E0EE51FD4F80836E
:10401000BDCF85EC8093BC001092720380910203A7
:10402000803230F4E0910203F0E0EE51FD4F108257
:104030006091020370E0E091E002F091E10282EE13
:1040400092E009951092020336C084E080937203D7
:104050001092DF021092DE02E091DC02F091DD02AC
:1040600009958091DE02811105C081E08093DE0216
:104070001092BC02E091DF0281E08E0F8093DF029C
:10408000F0E0E454FD4F80818093BB009091DF020B
:104090008091DE02981708F479CF85E88093BC0000
:1040A0000AC085EC8093BC001092720304C0109289
:1040B0004D030E94601EFF91EF91BF91AF919F91C0
:1040C0008F917F916F915F914F913F912F910F90C1
:1040D0000FBE0F901F901895A0E0B0E0E2E7F0E26D
:1040E0000C942936382E962E842EF90184E6E81693
:1040F000F1042CF082EBE81A87E0F80A03C08EE1A5
:10410000E80EF11CE092BB020093BA02E093B90200
:104110003092B7029092B6028092B502AE2DB0E016
:1041200020E833E341EE51E00E9415362B013C01BB
:1041300022EB37E0FF2484E6C82ED12CC0E9D1E081
:10414000C901825B97408E159F05DCF4C90183701D
:104150009927892B99F4C901B6010E949E32892BB7
:1041600031F4C901BE010E949E32892B39F480E8E6
:10417000480E81E5581E81E0681E711C2F5F3F4F7D
:10418000DFCF8EE4E81A88EFF80AC70164E670E032
:104190000E949E326C01C70160E971E00E949E326C
:1041A0005C01C1E0D0E0112783E0E822FF24C017C2
:1041B000D1072CF5C230D10589F4E114F10471F472
:1041C000C114D10419F4A114B10441F480E8480EDB
:1041D0008BE3581E86E2681E711C0FC0DE01A554D9
:1041E000BE4FAC91B0E020E831E541E050E00E94E4
:1041F0001536460E571E681E791E2196D8CF292DDA
:1042000030E0ACE3B0E00E945F366B017C01C80C8B
:10421000D11CE11CF11C232D30E0A0E1BEE00E9486
:104220005F36C60ED71EE81EF91EDF01BB271197A9
:1042300020E831E541E050E00E942036DC01CB016E
:104240008C0D9D1DAE1DBF1DBC01CD01640D751DE6
:10425000861D971D0E94171FCDB7DEB7E1E10C94B4
:104260004536CF92DF92EF92FF920F931F930E94F9
:104270002A16C090A702D090A802E090A902F09060
:10428000AA028B019C010C191D092E093F0980917E
:10429000B1029091B202A091B302B091B402083E73
:1042A000134021053105D0F00196A11DB11D809369
:1042B000B1029093B202A093B302B093B402B701DB
:1042C000A60148515C4F6F4F7F4F4093A702509318
:1042D000A8026093A9027093AA02C9CF4091AD02CF
:1042E0005091AE026091AF027091B00284179507B1
:1042F000A607B70788F1E091A502F091A6023097D2
:1043000059F10995611571058105910519F00E9412
:10431000171F22C08091B1029091B202A091B30206
:10432000B091B402845D9E4FAF4FBF4F8093AD02FA
:104330009093AE02A093AF02B093B00281E090E000
:104340002091AB023091AC02232B11F480E090E07D
:104350009093AC028093AB026091B1027091B20273
:104360008091B3029091B4021F910F91FF90EF9052
:10437000DF90CF900895A0E0B0E0E1ECF1E20C9482
:104380002A364B015C018091A1029091A202A0917A
:10439000A302B091A40288169906AA06BB0609F4E6
:1043A000C2C08CE3C82ED12CE12CF12CC501B40184
:1043B000A70196010E94D4356093B502CA01B901E4
:1043C000A70196010E94D4356093B602CA01B901D3
:1043D00028E130E040E050E00E94D43569017A01E4
:1043E0006093B702CA01B9016C5F7F4F8F4F9F4F37
:1043F00027E030E040E050E00E94D4356F5F6093EA
:10440000B802412C512C320140E004E610E0C0E932
:10441000D1E0242F30E02E54384FF901E370FF270C
:10442000309789F4C901B8010E949E32892B31F47A
:10443000C901BE010E949E32892B29F48EE691E0CB
:10444000A0E0B0E004C08DE691E0A0E0B0E0480E4E
:10445000591E6A1E7B1ED301C201AA27BB27C8169C
:10446000D906EA06FB0610F04F5FD3CF4093BB029C
:10447000309799F4C90164E670E00E949E32892B5E
:1044800039F4C90160E971E00E949E32892B29F458
:104490008EE691E0A0E0B0E004C08DE691E0A0E0FF
:1044A000B0E0481A590A6A0A7B0AC418D508E60817
:1044B000F708C90164E670E00E949E32EC01C90170
:1044C00060E971E00E949E32ACEBB1E020E0213067
:1044D00039F4309749F4209729F4009729F402C061
:1044E0004C9103C04DE101C04CE150E060E070E050
:1044F000C416D506E606F70640F0C41AD50AE60A41
:10450000F70A2F5F11962C3011F72F5F2093BA0214
:10451000C394C092B9028092A1029092A202A0928A
:10452000A302B092A402CDB7DEB7E0E10C94463608
:104530000E9431210E94BB218091B60290E0089533
:104540001F920F920FB60F9211240F931F932F9368
:104550003F934F935F936F937F938F939F93AF930B
:10456000BF93EF93FF930E942A1600919D02109132
:104570009E0220919F023091A0026017710782076E
:104580009307B8F080916F008D7F80936F0082E079
:104590008093810081E080938000E0919B02F09104
:1045A0009C02908180919A02809589238083109249
:1045B0009A02E0919B02F0919C02908180919A0274
:1045C00089278083FF91EF91BF91AF919F918F9148
:1045D0007F916F915F914F913F912F911F910F911B
:1045E0000F900FBE0F901F9018950E94B63508953A
:1045F0000E94AE3508958CEE91E0909378038093FD
:10460000770387E793E00E94DD170895A1E0B0E00B
:10461000ECE0F3E20C943636182F062F79830E94D3
:10462000122682ED93E069810E94E71E82ED93E0FD
:10463000602F0E94E71E0E94B525812F90E061E067
:1046400070E00E94932690917503809176039817ED
:1046500029F082ED93E00E94A21E01C08FEF219607
:10466000E4E00C9452365E9886E490E00E945D1E71
:104670000895A1E0B0E0EFE3F3E20C9436368983CD
:104680000E94332383E060E0498120E030E000E0D5
:1046900010E00E94DE2684E60E94361A809199027C
:1046A000882319F081E00E947F2780919802882357
:1046B00049F081E164E040E020E030E000E010E01B
:1046C0000E94DE262196E4E00C9452368EE00E9491
:1046D000722784E60E94361A10929802109299026C
:1046E0001092970284E00E947F2708955F981092AD
:1046F000960208950E94B913109295020895CF93DF
:10470000DF930E94CC1580919302909194022AE04D
:10471000289FE001299FD00D1124CE52D2420E9441
:104720007D132091B8033091B90322273E7F306872
:10473000CE016AE070E00E948A32262B372B30933C
:10474000B9032093B8030E945B130E947D138091EC
:10475000C6039091C70396FFF8CF0E947D13809106
:10476000B8039091B9039F779093B9038093B803EE
:104770000E945B130E947D138091C6039091C70332
:1047800096FDF8CFDF91CF910895CF93823009F451
:1047900077C038F4882321F1813009F0B8C0CAE02D
:1047A00060C0843009F48BC008F472C0853009F011
:1047B000AEC088E592E068EC70E041E028EC30E0C3
:1047C0000E942C2E84EF91E068EC70E041E028EC30
:1047D00030E00E942C2E80E991E068EC70E092C0FD
:1047E00086E091E06AEF70E041E02DE431E00E9464
:1047F0002C2E84EC90E06DE770E041E027EA30E099
:104800000E942C2E84EC90E06DE770E041E027EAF6
:1048100030E00E942C2E8CED90E06AEF70E041E0D9
:104820002DE431E00E942C2E84EC90E06AEF70E0E1
:1048300041E02AE932E00E942C2E87EF90E06AEFF7
:1048400070E041E02DE431E00E942C2E86E091E002
:104850006AEF70E041E02DE431E057C0C15009F447
:1048600056C088EB91E062E370E041E024E630E07E
:104870000E942C2E80919202843081F7C0E0EECF0E
:1048800088EB91E068EC70E041E024EF31E03DC05E
:1048900088E592E064E670E041E024E630E00E94C2
:1048A0002C2E8CEB92E064E670E041E024E630E0F0
:1048B0000E942C2E80E293E064E670E023C088E53D
:1048C00092E060E570E041E024E630E00E942C2EAA
:1048D00080E991E060E570E041E024E630E00E948C
:1048E0002C2E84EF91E060E570E041E024E630E0BA
:1048F0000E942C2E80E991E060E570E041E028EC18
:1049000030E003C041E02CE231E00E942C2ECF9138
:1049100008958F929F92AF92BF92CF92DF92EF92C3
:10492000FF92CF93DF936B017C010E942A164B010B
:104930005C0187E793E00E941C12EC01892B69F46B
:104940000E942A16AB01BC01481959096A097B0962
:104950004C155D056E057F0560F3CE01DF91CF91AB
:10496000FF90EF90DF90CF90BF90AF909F908F908F
:104970000895CF92DF92EF92FF92CF931092D503DA
:104980001092D40398EEC92E93E0D92EE12CF12C8D
:10499000C092D603D092D703E092D803F092D90305
:1049A0008CED91E09093D3038093D20385E08093C4
:1049B000AF0382E18093B00383E18093B10310924F
:1049C0009903109298038CE092E090939703809360
:1049D00096031092A6038FEF8093A5031092A40371
:1049E0001092A70387E28093A1031092A203109272
:1049F000A3031092A00310929F0384E08093A80366
:104A000082E08093A903C1E0C093AA0380E1809370
:104A1000AB0380E28093AC0380E48093AD0380E835
:104A20008093AE0386E993E063E040E050E00E94AB
:104A3000B63010927A0310927903C0927B03D09221
:104A40007C03E0927D03F0927E038CEE91E09093E4
:104A500078038093770310928E0310928D03109247
:104A6000900310928F031092920310929103109270
:104A7000940310929303809195038E7F8D7F809392
:104A8000950386958170682F6C2783E00E94EA1455
:104A900083E061E00E943615E4EEF3E0E491E093F8
:104AA0008703E0EDF3E0E491F0E0EE0FFF1FE75441
:104AB000FC4F85919491909389038093880382E0C1
:104AC00060E00E9436158091950381FD04C082E06C
:104AD00061E00E94EA1482E080938303E3EEF3E056
:104AE000E491E0938403EFECF3E0E491F0E0EE0F67
:104AF000FF1FED53FC4F8591949190938603809313
:104B000085038CEF91E090937803809377030E9464
:104B10008F25CF91FF90EF90DF90CF900895109266
:104B2000760310927503109274031092730310921F
:104B3000720381E0809371031092700382E161E05F
:104B40000E94EA1483E161E00E94EA14E9EBF0E0DC
:104B500080818E7F808380818D7F808388E48093B5
:104B6000B80085E48093BC00089590916F03209174
:104B70007303213208F04AC0809172038111FCCF87
:104B800032E03093720331E0309371033FEF3093A2
:104B90004D0310924C0320934B03AFE4B3E04BE280
:104BA00053E0FA013E2F341B321718F43D91319334
:104BB000F9CF10922A0320912A03990F922B9093F8
:104BC0002A0390917003913061F4109270039091D8
:104BD0002A039093BB009091BC0093FDF8CF95EC15
:104BE00001C095EE9093BC00909172039230E1F376
:104BF00090914D039F3F79F080914D03803241F0B9
:104C000080914D03803331F084E005C081E003C022
:104C100082E001C083E0109274031092730310923B
:104C20004E03089591E090934E0380936F0310928A
:104C300074031092730308950F931F93CF9388E624
:104C40000E94122682ED93E060E00E94E71E03E2DC
:104C500013E0F8018081CAE06C2F0E947E32692F38
:104C6000F0E18F9F600D112482ED93E00E94E71E1A
:104C7000F80181816C2F0E947E32692FF0E18F9FB5
:104C8000600D112482ED93E00E94E71EF8018281FD
:104C90006C2F0E947E32692FF0E18F9F600D1124EE
:104CA00082ED93E00E94E71EF80183816C2F0E9441
:104CB0007E32692FF0E18F9F600D112482ED93E029
:104CC0000E94E71EF80184816C2F0E947E32692FBA
:104CD000F0E18F9F600D112482ED93E00E94E71EAA
:104CE000F80185816C2F0E947E32692FF0E18F9F41
:104CF000600D112482ED93E00E94E71EF801868189
:104D00008E516C2F0E947E32692FF0E18F9F600DD3
:104D1000112482ED93E00E94E71E0E94B525CF91F9
:104D20001F910F910895909172039111FCCF613200
:104D300008F060E291E090937203909371032FEF7B
:104D400020934D0310924C03260F20934B03909316
:104D50002A0390912A03880F892B80932A0380913C
:104D60007003813061F41092700380912A03809364
:104D7000BB008091BC0083FDF8CF85EC01C085EEBF
:104D80008093BC00809172038130E1F380914C03E9
:104D9000861710F460914C03ABE2B3E023E033E0FC
:104DA000F9018E2F821B861718F48D918193F9CF0C
:104DB0001092760360937503862F0895A0E0B0E00B
:104DC000E4EEF6E20C943236E82EC62ED42EE9013B
:104DD000EDEFE80FE03128F4F0E0E853FE4FF0800B
:104DE00001C0F12C6AE070E080E090E00E9489242C
:104DF000892B29F087E793E00E943412F3CF87E7ED
:104E000093E06EE70E94C81187E793E062E06F0DC0
:104E10000E94C81187E793E06E2D0E94C811FF2001
:104E200069F087E793E06C2D0E94C81182E0F812C8
:104E300005C087E793E06D2D0E94C81187E793E0D6
:104E40006FEE0E94C811209749F00115110531F04D
:104E5000CE0160E070E0A8010E945E3368EE73E06E
:104E600080E090E00E948924E12CF12C015011098E
:104E700062E370E080E090E00E948924892B89F051
:104E800087E793E00E943412209791F3E016F10631
:104E900078F7FE01EE0DFF1D8083C70101967C01AE
:104EA000E7CFCDB7DEB7E8E00C944E36A5E0B0E032
:104EB000ECE5F7E20C94363660E040E09E012F5FAF
:104EC0003F4F05E010E00E94DE26CE01019660E033
:104ED00070E040E150E00E946533CB012596E4E0AC
:104EE0000C9452360F931F9360E040E020E030E0D6
:104EF00000E010E00E94DE261F910F9108950F93AD
:104F00001F93682F81E140E020E030E000E010E0F6
:104F10000E94DE261F910F910895E0919603F09173
:104F200097030084F185E02D86E993E060E0099520
:104F30000895A8E0B0E0EFE9F7E20C9438361D825E
:104F400090E49E8324E12F8324E5288719829A83A5
:104F500090E19B8390E59C8390919D03691710F0ED
:104F60006FEF690F40919E03262F30E0FE01E20FA4
:104F7000F31F403121F4943011F4918101C09581E7
:104F8000682F690F606886E993E00E949E31289639
:104F9000E2E00C9454360E948D27E6E9F3E0658147
:104FA0006B7F65836860CF010E949E310895E6E9BA
:104FB000F3E06581862F846085836C60CF010E9459
:104FC0009E3186E993E00E94A7310895E6E9F3E077
:104FD00065816E7F65836860CF010E949E31089570
:104FE000E6E9F3E06581862F816085836960CF0102
:104FF0000E949E310895A1E0B0E0E1E0F8E20C9457
:105000003236162F877028E0829FC0011124682F46
:10501000606486E993E079830E949E3183E790E0A3
:105020000197F1F7C12E7981D72E8601085F1F4FB6
:105030008BE9E82EF12CF60161916F0186E993E08E
:105040000E94CB30C7010197F1F7C016D10699F73E
:105050002196E8E00C944E368F929F92AF92BF92C9
:10506000CF92DF92EF92FF926C010E942A164B01C1
:105070005C01E12CF12C0E942A16DC01CB0188197D
:105080009909AA09BB098C159D05AE05BF0598F3C2
:10509000FF90EF90DF90CF90BF90AF909F908F9058
:1050A0000895682FE0919603F09197030190F081A5
:1050B000E02D86E993E0099508958F929F92AF9233
:1050C000BF920F931F93CF93DF93CDB7DEB7A19716
:1050D0000FB6F894DEBF0FBECDBF19A2423008F460
:1050E0004AE08E010F5D1F4F842E912CA12CB12C14
:1050F000A50194010E94D435E62FB901CA010150DF
:105100001109EA3014F4E05D01C0E95CD801EC93C8
:10511000232B242B252B61F786E993E0B8010E940D
:105120008831A1960FB6F894DEBF0FBECDBFDF91D8
:10513000CF911F910F91BF90AF909F908F90089546
:10514000CF92DF92EF92FF92CF93DF936C01990F92
:10515000EE08FF08F7FE11C08DE20E945128EC0115
:1051600066277727CB016C197D098E099F094AE0D4
:105170000E945D288C0F9D1F05C0C701B6014AE043
:105180000E945D28DF91CF91FF90EF90DF90CF904C
:1051900008950F931F93CF93DF938C01C0E0D0E06D
:1051A000F801EC0FFD1F6491662371F0E091960306
:1051B000F09197030190F081E02D86E993E0099545
:1051C000892B11F02196ECCFCE01DF91CF911F9169
:1051D0000F9108950F931F93CF93DF93EC018C01F0
:1051E000065F1F4FC017D10750F480E5BE010E9433
:1051F0000623803211F00E9451282196F3CFDF91CF
:10520000CF911F910F910895CF92DF92EF92FF926D
:105210001F93CF93DF938CE891E00E94CE2E81E51F
:1052200094E00E94C92882E061E00E94992783E40B
:1052300094E00E94C92882E062E00E9499278EE3F0
:1052400094E00E94C92882E063E00E94992788E3E5
:1052500094E00E94C928C0E0DAE014E18091920253
:10526000843009F477C183E061E00E94992780913E
:10527000E903882319F084E394E002C080E394E01A
:105280000E94C9288091E803811102C040E201C058
:1052900048E58DE061E00E94EA2E88E062E00E942D
:1052A00099278091E7038A3010F40E94282E80917C
:1052B000E7036AE070E00E9444138AE30E945128E9
:1052C0008091E6038A3010F40E94282E8091E60334
:1052D0006AE070E00E94441388E063E00E9499272E
:1052E0008091E5038A3010F40E94282E8091E50316
:1052F0006AE070E00E9444138AE30E945128809182
:10530000E4038A3010F40E94282E8091E4036AE0BE
:1053100070E00E944413C23048F480E062E040E252
:105320000E94EA2E80E061E00E9499278EEF8C0FA8
:10533000843068F480E061E040E20E94EA2E80E080
:1053400063E040E20E94EA2E80E062E009C0C630DD
:1053500048F080E062E040E20E94EA2E80E063E0F4
:105360000E9499278EE70E945128CC2ED12C8AE0EA
:10537000C816D104E8F4F601E759FF4F0C94B23295
:1053800083E001C08DE061E011C088E005C089E0E4
:1053900003C08BE001C08CE062E008C088E005C07B
:1053A00089E003C08BE001C08CE063E00E94992794
:1053B00080E061E00E94A91B80919202823009F492
:1053C000BFC0833009F4C1C0813009F047CF8AE003
:1053D000C816D10408F08FC0F601ED58FF4F0C94A9
:1053E000B2329091E90381E089278093E90383C079
:1053F0009091E80381E089278093E8037CC0809145
:10540000E7038E3020F4865F8093E70374C06D2F2E
:105410000E947E329093E7036EC02091E703822FB3
:105420006D2F0E947E32993011F4295001C02F5FF8
:105430002093E7038091E703883109F05CC0109363
:10544000E70359C08091E603813320F4865F80939F
:10545000E60351C06D2F0E947E329093E6034BC04D
:105460002091E603822F6D2F0E947E32993011F435
:10547000295001C02F5F2093E6033DC08091E503D2
:105480008E3020F4865F8093E50335C06D2F0E9437
:105490007E329093E5032FC02091E503822F6D2F7C
:1054A0000E947E32993011F4295001C02F5F209361
:1054B000E5038091E5038831F1F41093E5031BC007
:1054C0008091E403813320F4865F8093E40313C06A
:1054D0006D2F0E947E329093E4030DC02091E4036F
:1054E000822F6D2F0E947E32993011F4295001C015
:1054F0002F5F2093E4038BE090E06091E9030E942A
:10550000F5228CE090E06091E7030E94F5228DE0A7
:1055100090E06091E6030E94F5228EE090E06091B9
:10552000E5030E94F5228FE090E06091E4030E9481
:10553000F5228CE190E06091E8030E94F5228ECE86
:10554000C93008F08BCECF5F89CECC2309F486CE4C
:10555000C15084CE80E06CE071E00E94FB27DF91B7
:10556000CF911F91FF90EF90DF90CF900895CF9350
:10557000DF93C82F86E993E00E94B0318EE70E9446
:1055800051288CE194E00E94C9288FE060E00E94DD
:1055900099270E94F027C13019F48091E30302C0DB
:1055A0008091E2036AE070E00E9444130E9433237A
:1055B00081E08093E103D0E0809192028430F1F1A8
:1055C0008FE060E00E94992781E061E00E94A91BC2
:1055D00080919202813081F7C130A9F49091E30368
:1055E000953019F41092E30303C09F5F9093E30397
:1055F0008091E3036AE070E00E9444138091E3032A
:105600000E94C52319C09091E2039A3019F41092B8
:10561000E20303C09F5F9093E2038091E2036AE09C
:1056200070E00E94441380919702811105C080911F
:10563000E2038F5F0E943923D1E0BECFDD2369F002
:10564000C13029F487E090E06091E30304C083E176
:1056500090E06091E2030E94F5228091970281110F
:1056600003C08EE00E9472271092E103DF91CF9178
:105670000895ADE0B0E0EFE3FBE20C943336E82EA2
:1056800080919702811102C04C99FECF81E064E5C0
:1056900071E00E94FB2782E06CE571E00E94FB272D
:1056A00083E06CE471E00E94FB2784E891E00E94B3
:1056B000CE2E84E063E00E9499278FE094E00E9460
:1056C000C9288BE063E042E00E94EA2E8091E0036B
:1056D000882319F092E0F92E02C0FF24F3940E946F
:1056E000F02780E5D82E80919202843009F4C4C15D
:1056F00081E0E81282C082E060E00E9499278091F8
:105700000B018A3010F40E94282E80910B016AE070
:1057100070E00E94441380E20E9451288091DF03D0
:1057200090E00197D89EB001D99E700D1124809110
:105730000B01680F711D680F711D6E597F4F87E552
:105740000E9406236AE070E00E9444138AE30E94EC
:1057500051288091DF0390E00197D89EB001D99E37
:10576000700D112480910B01680F711D680F711D60
:105770006D597F4F87E50E9406238A3020F48D877C
:105780000E94282E8D856AE070E00E94441300E09C
:1057900010E080910B0190E001972091DF03289F9A
:1057A000B001299F700D11246C597F4F600F711F3C
:1057B00087E50E940623482F802F61E00E94EA2E91
:1057C00080910B0190E001972091DF03289FB001A9
:1057D000299F700D1124600F711F68587F4F87E556
:1057E0000E940623482F802F62E00E94EA2E0F5F5E
:1057F0001F4F0431110569F661C082E0E81253C001
:105800004C9909C08091E003811105C080919802F4
:10581000882309F437C182E060E00E9499278091D3
:105820009802882329F089E094E00E94C92814C0D6
:1058300084E60E94361A82E560E040E09E012F5F18
:105840003F4F0CE010E00E94DE2686E993E0BE01A7
:105850006F5F7F4F0E94883187E062E00E94992746
:105860004C9B05C080919802882309F425C1809142
:105870000A018A3010F40E94282E80910A016AE001
:1058800070E00E9444138FE20E9451288091DE0351
:105890008A3010F40E94282E8091DE036AE070E0C6
:1058A0000E9444130BC083E0E81208C080E061E06E
:1058B0000E9499278BEF93E00E94C9288FE060E057
:1058C0000E9499278091E003882329F085EF93E0D7
:1058D0000E94C92805C08FE060E045E00E94DD2EEF
:1058E0004C9906C08091E003811102C043E001C0E1
:1058F00041E088E063E00E94EA2E8F2D880F8F0D33
:105900008B5F63E00E94992781E061E00E94A91B00
:1059100080919202823009F49CC0833009F4A3C0C4
:10592000813009F0E0CEF816A9F1F81648F082E0CF
:10593000F81609F455C083E0F81609F458C0D3CE20
:1059400081E0E81207C080910B01823008F45BC04F
:10595000815057C082E0E81611F0F12CC4CE80913E
:105960000A01823018F0815080930A0180919802D8
:10597000882329F01092980281E0809399024C9B31
:10598000ECCF90910A018091DF03890F81590E9429
:105990003923A9CE8091950281110E947A234C99D6
:1059A0001AC081E0E81205C0E092980280910B01D4
:1059B0000BC082E0E8120BC081E0809399029091C5
:1059C0000A018091DF03890F81590E94392381E008
:1059D0008093970202C00E9466230E94762383CEA2
:1059E0004C9974C08091E003811170C07CCE81E03D
:1059F000E81217C080910B019091DF03891718F40A
:105A00008F5F80930B0180919902882329F0109277
:105A1000990281E0809398024C9B65CE80910B01A6
:105A2000B5CF82E0E8125FCE80910A019091DE034B
:105A3000891718F48F5F80930A0180919802882358
:105A400029F01092980281E0809399024C9B4BCEF2
:105A500098CF8091E003811146CE82E08F1508F443
:105A600042CEF39440CE8091E00381113CCEFF20E2
:105A700009F473CFFA9437CE0E94092E2D96E7E0F1
:105A80000C944F364091DF0350E041595F4F8091B5
:105A90000A01480F511D83E0652F20E030E000E04F
:105AA00010E00E94DE2684E60E94361A0E946623D9
:105AB00084E60E94361AAFCE84E60E94361A8BE442
:105AC0000E945627875980930A01D1CE8091950272
:105AD00081110E947A238091E003882329F05E9847
