:100000000C9410020C9438020C9438020C945A0D83
:100010000C945A0D0C945A0D0C94D51B0C94380268
:100020000C9438020C9438020C9438020C949711FA
:100030000C9438020C9438020C9438020C94380258
:100040000C94A6170C9438020C9438020C943802C5
:100050000C9438020C9438020C9438020C94380238
:100060000C94EA0D0C943802FC24FF24012503258E
:10007000052507250A250D25102513251625E1261A
:10008000EE26FF260B2716272227382749274E273B
:100090006027ED25F025F325F525F725F925FB2526
:1000A000FE2501260426212628262F263D26522617
:1000B00060266E267C2690269E26AE04B104B404EB
:1000C000B704BA04BD04C0049C14A514B914D31415
:1000D000DF14EB14FD14091512152C1541155315D9
:1000E0006D15426972746864617900486170707955
:1000F000004963682062696E206869657221005B4F
:10010000205D204D5033005B205D20526164696F9B
:10011000005B205D205765636B746F6E0020205B71
:100120006175735D0020205B616E205D004D503372
:1001300000526164696F00546F6E005765636B74A1
:100140006F6E202020205B20202020205D004E6547
:100150007565205765636B7A656974006175730016
:10016000616E200062697300766F6E005B20202054
:100170005D2044696D6D656E205B205D004E61639E
:1001800068746D6F647573207374656C6C656E0054
:1001900061757300616E20002E3230004E6163681D
:1001A000746D6F647573205B2020205D004E657553
:1001B00065205568727A6569742F446174756D00A5
:1001C0005A3A2000416B6B753A0020543A20005295
:1001D000414D3A2020004932433A20002D3035303D
:1001E000313137004669726D776172653A2000627D
:1001F00079204E696B6F6C6169205261646B650098
:10020000446965736572204E4F4B4F2067656820C7
:100210007274004D65696E204E4F4B4F00446973F8
:1002200074616E7A6C696368742020205B205D00C5
:100230005374756D6D202020202020202020205B0D
:10024000205D00416B6B752073706172656E2020BC
:1002500020205B205D007765697465722E2E2E006C
:1002600044697374616E7A202B2F2D205B205D0012
:100270004576656E747320202B2F2D205B205D004A
:100280004C454420202020202B2F2D205B205D007A
:100290004E4F4B4F207374656C6C656E007A6569C8
:1002A00074207374656C6C656E00416C61726D20B6
:1002B0007374656C6C656E00537069656C20776152
:1002C0007320766F72004E61736520647220636BD9
:1002D000656E00206175662056002055706461745B
:1002E00065206572666F6C6772656963680020419E
:1002F0006C61726D20004E61736520647220636BC7
:10030000656E00205568720072656E004765627503
:10031000727473746167210053616D737461670057
:100320004672656974616700446F6E6E2E74616712
:10033000004D697474776F6368004469656E737407
:100340006167004D6F6E74616700536F6E6E74610C
:1003500067005041555345004B65696E65204D500F
:10036000337320676566756E64656E0047657363F9
:10037000686963687465005B3C5D5B205D5B205D64
:100380005B3E5D00476573636869636874656E20F2
:1003900068004155582D45696E67616E6700456973
:1003A00067656E6573206800526164696F2068003C
:1003B000205765636B746F6E202B2F2D205B205DA3
:1003C0000000000000240027002A000000000800B0
:1003D000020100000304070000000000000000000C
:1003E000000000250028002B00000000002300264C
:1003F00000290004040404040404040202020202AA
:1004000002030303030303010204081020408001D8
:10041000020408102001020408102000FF2BF52B15
:1004200011241FBECFEFD8E0DEBFCDBF12E0A0E0A9
:10043000B1E0E0E8F2E602C005900D92A631B10706
:10044000D9F723E0A6E1B2E001C01D92A53CB207B6
:10045000E1F712E0CFE0D2E004C02197FE010E9454
:10046000F32CCE30D107C9F70E943B1D0C943331D9
:100470000C94000083FD02C098E001C098E28770F0
:10048000892B98E10FB6F894A895909360000FBE61
:1004900080936000A89580916000806480936000E4
:1004A00080913502882319F083B7817F0BC080913A
:1004B0002F02882321F083B7817F846003C083B734
:1004C000817F8C6083BF83B7816083BF889583B74A
:1004D0008E7F83BF0FB6F894A895809160008861E5
:1004E00080936000109260000FBE809160008F7B4F
:1004F00080936000089580912C039DEF980F9830B1
:1005000008F06DC09CEF980F963008F466C08330F9
:1005100089F520912B0340913B0250913C0235E03C
:10052000349FC001359F900D112497FD039695953A
:10053000879595958795049667E070E00E94DF2C7B
:100540004FE150E0BA01681B790B38E1369FA001FA
:10055000379F500D11244F5F5F4F8091290378E141
:10056000279F90011124280F311D81E04217530766
:10057000BCF135C08A3099F520912B0340913B02A4
:1005800050913C0235E0349FC001359F900D1124FD
:1005900097FD03969595879595958795019667E0C4
:1005A00070E00E94DF2C4FE150E0BA01681B790B2C
:1005B00038E1369FA001379F500D11244F5F5F4FE8
:1005C0008091290378E1279F90011124280F311D84
:1005D00081E04217530724F402C081E0089580E0CF
:1005E0000895EF92FF920F931F93CF93DF9388E6C6
:1005F0000E947D1860E082EB93E00E94040D0E944F
:10060000201867E070E088E690E00E94FD1882EB19
:1006100093E00E94B80CC7E2D3E0982F9695969588
:1006200096959E70292F220F220F920F8F70890F9F
:10063000888382EB93E00E94B80C982F92959F706C
:100640008F702AE0929F800D1124898382EB93E0C2
:100650000E94B80C982F9695969596959670292F8E
:10066000220F220F920F8F70890F8A8382EB93E003
:100670000E94B80C982F92959F708F702AE0929FDD
:10068000800D11248B8382EB93E00E94B80C982F8D
:1006900092959F708F702AE0929F800D11248C8319
:1006A00082EB93E00E94B80C982F92959F708F7008
:1006B0002AE0929F800D11248D8382EB93E00E94AB
:1006C000B80C982F9F70925E82958F70E92E2AE069
:1006D000829FE00C1124EE82F12C8EE4E81A88EF60
:1006E000F80A0D8110E02C8130E0488150E06981EA
:1006F00070E08A8190E00E94360FDF91CF911F91C8
:100700000F91FF90EF900895CF93C82F80913502FD
:10071000882329F080916400806280936400C7FF81
:1007200004C083E00E943A02C857C03420F082E03F
:100730000E943A02CC53C03220F081E00E943A027B
:10074000CE51C03118F080E00E943A02809135020B
:10075000882321F08091640010926400CF91089565
:100760008F929F92AF92BF92CF92DF92EF92FF92C1
:100770006C010E949A174B015C01E12CF12C0E9444
:100780009A17DC01CB0188199909AA09BB098C15B4
:100790009D05AE05BF0598F3FF90EF90DF90CF90D9
:1007A000BF90AF909F908F900895CF92DF92EF927D
:1007B000FF920F931F93CF93DF93C62F2FB7F89419
:1007C0004091FC025091FD026091FE027091FF0287
:1007D00096B5A89B06C09F3F21F04F5F5F4F6F4FBC
:1007E0007F4F2FBF762F652F542F4427490F511D60
:1007F000611D711D32E0440F551F661F771F3A952A
:10080000D1F79A01220F331F220F331F422753279C
:10081000BA01660F672F661F770B7195462757271A
:10082000BA017695762F662777956795082F10E0A1
:100830006427752780E090E00E94542F20E03FEF6E
:100840004FE757E40E947A2D6B017C01D0E0C01B7A
:10085000D10BBE01DD0F880B990B0E94562F9B0117
:10086000AC01C701B6010E94B52F6B017C01B80134
:10087000110F880B990B0E94562F9B01AC01C701E9
:10088000B6010E940E2D0E94EC2D862FDF91CF9194
:100890001F910F91FF90EF90DF90CF90089580E02F
:1008A00090E00E9429170E944E1A81E080932F0247
:1008B0001092350208950F931F93CF9301E011E03A
:1008C000C0E0B8018C2F0E947A1ACF5F085F1F4FDB
:1008D000C830B9F7CF911F910F9108958FEE0E9404
:1008E000D71A88E093E00C94B61A83E093E00C9456
:1008F000B61A80E30C94D71A0E9412100E949C1022
:1009000080915C0290E08E54984F90933C028093CB
:100910003B020E9412100E949C1080915A02809308
:100920002B030E9412100E949C1080915B02809306
:100930002C0363E080E00E94141A0E9412100E94AF
:100940009C10E09159028E2F90E0FC013197E73026
:10095000F105D0F4E35AFF4F0C94F32C8AE493E0B2
:1009600011C083E493E00EC08AE393E00BC081E3FF
:1009700093E008C088E293E005C080E293E002C003
:1009800088E193E00E94B61A63E08AE00E94141A9C
:1009900080912B038A3010F40E9479046AE070E0A1
:1009A00080912B030E9485158EE20E94D71A8091B8
:1009B0002C038A3010F40E9479046AE070E0809180
:1009C0002C030E9485158EE20E94D71A80913B026B
:1009D00090913C020E9451148091390290913A0208
:1009E0000A9724F460E082E10C94141A0895BC0183
:1009F00080E00E947A1A85E993E00E941B1C80E047
:100A00000E94D71A80E20C94D71ACF93C42F0E9469
:100A1000141ACC2329F080E20E94D71AC150F9CFD2
:100A2000CF910895CF93DF931F92CDB7DEB749835F
:100A30000E94141A4981842F0F90DF91CF910C945A
:100A4000D71ACF930E945B0C0E94080C8093380247
:100A5000809129038A3010F460E004C06AE00E94AB
:100A6000D32C682F81E00E947F1480912903CAE073
:100A70006C2F0E94D32C692F84E00E947F146AE0BF
:100A800087E00E947F14809128038A3010F460E090
:100A900004C06C2F0E94D32C682F8AE00E947F1420
:100AA000809128036AE00E94D32C692F8DE00E9478
:100AB0007F1443E061E081E10E94050561E081E18E
:100AC0000E94141A80913702811104C0809136026D
:100AD000811103C088E70E94D71A809135028823CC
:100AE00019F084E40E94D71A80914302882349F0C8
:100AF00080913802882311F08EE401C08EE60E94B6
:100B0000D71A80913402882341F062E083E00E948A
:100B1000141A8CE093E00E94B61A43E062E081E18F
:100B20000E94050562E081E10E94141A809133025F
:100B3000882319F084EF0E94D71A809145028823F8
:100B400019F080E70E94D71A80913202882319F0A9
:100B500083E50E94D71A80914C02811108C08091D0
:100B60004B02811104C080913102882319F080E585
:100B70000E94D71A86E00E94831790933A028093CE
:100B80003902C4E08AE00E94840386E00E94831751
:100B90002091390230913A02820F931F90933A02CA
:100BA00080933902C15071F765E070E00E94DF2C3C
:100BB000072E000C880B990B0E94562F20E030E086
:100BC00040EA5BE30E94B52F26E636E646E350E4B2
:100BD0000E940D2D26EF3DEF44E55CE30E947A2D47
:100BE0000E94EC2D1616170634F4643671052CF0AD
:100BF00063E670E002C061E070E0CB01072E000CFC
:100C0000AA0BBB0B9C01AD016A337105A4F02953FB
:100C1000310941095109ABE5B0E00E94DA302AE21E
:100C200030E040E050E00E94BB30DA01C901089694
:100C3000A11DB11D13C02150310941095109A7E07F
:100C4000B0E00E94DA3027E330E040E050E00E945C
:100C5000BB30DA01C9010196A11DB11D90933A0282
:100C60008093390260E081E10E94141A8091390278
:100C700090913A020A9744F440E260E081E10E94D8
:100C800012050E94701A02C00E94671A80913902F0
:100C900090913A020E94511480913002882311F001
:100CA0008BE201C085E20E94D71A60E082E1CF9119
:100CB0000C94141ACF93C82F80914502811106C05D
:100CC0004C9904C080914C02811158C18091390225
:100CD00090913A0205970CF4C1E04C990DC08091B7
:100CE0003102811109C080914B02811105C08091B0
:100CF0004702882309F445C180913302882309F40F
:100D00000CC180914702811108C10E945B0C909137
:100D10003D02809133029111F7C0882309F4FDC090
:100D200020912E02909128032913EEC020912D02CC
:100D3000909129032913E8C080912F0281110E940C
:100D4000591A80913502882321F085E993E00E94A9
:100D5000131C5E9869E871E080E00E947A1A85E9C8
:100D600093E00E941B1C0E94671A60E087E00E94CB
:100D7000141A809129038A3010F40E9479046AE0E1
:100D800070E0809129030E9485158AE30E94D71A9A
:100D9000809128038A3010F40E9479046AE070E0A0
:100DA000809128030E94851563E084E00E94141A54
:100DB00086EF92E00E94B61A45EF63E08BE00E9456
:100DC000120581E08093470280914B0281115F9868
:100DD00080912C02813051F490913102911106C022
:100DE00090914C02911102C08093310210924A02FC
:100DF00080914A02843009F44CC090912E02809177
:100E00002803981346C040E062E085E00E94120586
:100E10008EEE92E00E94B61A80E00E94D71A81E01E
:100E20000E945A0680934A028FEF90E00E94291791
:100E300080912C02882341F080914C02811104C0E2
:100E400080914502882321F0809149020E94381246
:100E500080912C02823039F44C9905C080914C026B
:100E6000882309F492C084EF91E00E944A0849E087
:100E700062E085E00E94050580E090E00E9429176D
:100E800084EF91E00E944A080E948F11809328030A
:100E9000AFCF80914C02811103C00E94F81908C0A5
:100EA00080912C02813021F480914B0281115F9A54
:100EB0001092470290912E0280912803981309C046
:100EC00090912D0280912903981303C081E08093B3
:100ED0003D0285E993E00E941B1C80912F0288232C
:100EE00031F080913102811102C04C9B54C080913D
:100EF0002F0281110E944E1A8091350281110E94A9
:100F0000091A0E946C0C1FC0882339F090912E02A0
:100F100080912803981310923D028EE00E9483175F
:100F2000893C910508F079C087399105B0F182E3D9
:100F30000E9484038EE00E948317873991050CF488
:100F400067C04C9B02C0C4E017C08091320281117F
:100F5000FACFC111F8CF809145028111F4CF65E03D
:100F600081E00E94D503C82F843069F76DE38FE1DB
:100F70000E94D5030E94F5118C2F51C010924C0293
:100F8000A5CE5E9A0E94F102B7CE809148028F5F93
:100F90000E94F51168CF5E9AAACF8536910550F070
:100FA00082E30E9484038EE00E94831785369105B8
:100FB00084F52EC0C39748F082E30E9484038EE03C
:100FC0000E948317C3973CF523C082E30E948403E9
:100FD0008EE00E94831718161906D4F44C9916C097
:100FE00080913202811112C0C11110C0809145025E
:100FF00081110CC068E081E00E94D503843031F497
:101000006FE18BE00E94D5030E94F511C1E0B4CFDF
:1010100006C0C3E0B1CFC2E0AFCFC0E0ADCFCF914B
:101020000895CF92DF92EF92FF921F93CF93DF93B9
:10103000C82FD62F0E949A176B017C0120E6C20EA2
:101040002AEED21EE11CF11C10924A0214E090918B
:101050004A02911115C08C2F0E945A0680934A02B1
:10106000D11104C088E70E948403F1CF0E949A172F
:10107000C616D706E806F90650F710934A02E7CFDE
:1010800082E3DF91CF911F91FF90EF90DF90CF909F
:101090000C9484038F929F92AF92BF92CF92DF9273
:1010A000EF92FF926C010E949A174B015C01E12CB8
:1010B000F12C0E949A17DC01CB0188199909AA0921
:1010C000BB098C159D05AE05BF0528F481E00E9483
:1010D0005A06843071F781E00E945A06843011F478
:1010E00080934A02FF90EF90DF90CF90BF90AF9037
:1010F0009F908F9008958F929F92AF92BF92CF92C0
:10110000DF92EF92FF920F931F93CF93DF93142FF1
:10111000E9014B01A12CB12C9C0140E050E060E0C2
:1011200079E08DE390E00E94993069017A0181E0D5
:10113000C81AD108E108F108C114D104E1E0EE06B3
:10114000F10458F0CD2CDE2CEF2CFF24F1E0CF1A67
:10115000D108E108F10804E001C001E08114910424
:10116000A104B10479F00E949A17860E971EA81E5A
:10117000B91E8092520290925302A0925402B092F1
:1011800055020BC08FEF9FEFDC01809352029093CA
:101190005302A0935402B093550280914F028111E3
:1011A00022C0E2E1F4E0849180934F026EEF73E09D
:1011B000FB019491E92FF0E0EE0FFF1FE152FC4F8D
:1011C000259134913093510220935002FB01649198
:1011D000E62FF0E0EE0FFF1FEF53FC4FA591B49107
:1011E000EC918E2B8C93D0928700C09286008091D8
:1011F000840090918500A0E0B0E0C816D906EA0608
:10120000FB0620F4D0928500C09284000061009318
:10121000810080E18093800080916F0082608093E4
:101220006F0011110FC0CE01DF91CF911F910F916F
:10123000FF90EF90DF90CF90BF90AF909F908F90F6
:101240000C94B00380914A02843079F0CE01DF9192
:10125000CF911F910F91FF90EF90DF90CF90BF90B3
:10126000AF909F908F900C944A08DF91CF911F917F
:101270000F91FF90EF90DF90CF90BF90AF909F9035
:101280008F900895DF92EF92FF920F931F93CF9369
:10129000DF93CDB7DEB72C970FB6F894DEBF0FBE45
:1012A000CDBF69E771E080E00E947A1A85E993E09A
:1012B0000E941B1C60E082E00E94141A88EA93E0FE
:1012C0000E94B61A0E946E0461E082E00E94141A25
:1012D0008EE993E00E94B61A0E946E0462E082E0FA
:1012E0000E94141A82E993E00E94B61A63E082E039
:1012F0000E94141A84E893E00E94B61A0E946E04B9
:10130000E12C80914A02843009F42DC248E760E064
:1013100081E00E94120580914E02811102C040E2DC
:1013200001C040E061E081E00E94120580914B0223
:10133000811102C040E201C040E062E081E00E9411
:10134000120548E763E081E00E9412054EE76E2D2A
:1013500080E00E94120561E081E00E941108809106
:101360004A02823009F4EAC1833009F4F2C18130C3
:1013700041F6E81629F082E0E81609F4C5C1C1CFAC
:101380009091460280914C02992309F425C1811164
:1013900002C04C99FECF69E471E081E00E947A1AA4
:1013A00061E571E082E00E947A1A61E471E083E015
:1013B0000E947A1A89E791E00E94F70463E084E0D2
:1013C0000E94141A87E793E00E94B61A42E063E095
:1013D0008BE00E94120580914502882319F082E07B
:1013E000F82E02C0FF24F3940E94701ADD24D394D7
:1013F00080914A02843009F484C14C9909C08091DB
:101400004502811105C080914D02882309F4BBC1BA
:1014100060E082E00E94141A80914D02882329F036
:101420008CE693E00E94B61A14C084E60E948403FE
:101430000CE010E09E012F5F3F4F40E060E082E54E
:101440000E944819BE016F5F7F4F85E993E00E94BB
:10145000F61B62E087E00E94141A4C9B05C0809145
:101460004D02882309F4AAC1809100018A3010F44A
:101470000E9479046AE070E0809100010E94851565
:101480008FE20E94D71A809146028A3010F40E949F
:1014900079046AE070E0809146020E94851560E060
:1014A0008FE00E94141A80914502882329F082E57A
:1014B00093E00E94B61A05C045E060E08FE00E940C
:1014C00005054C9906C080914502811102C043E098
:1014D00001C041E063E088E00E9412058F2D880F73
:1014E0008F0D63E08B5F0E94141A61E081E00E941F
:1014F000110880914A02823009F45BC0833009F4FC
:1015000062C0813009F074CFF816E1F0F81638F0B7
:1015100082E0F81659F183E0F81679F169CF8091ED
:101520000001823018F081508093000180914D02BB
:10153000882321F010924D02D0924E024C9930C077
:10154000F12C56CF4C990DC0F0924E0290910001B3
:1015500080914402890F81590E94F511F0924C024A
:1015600002C00E9426120E94341242CF809145028E
:101570004C992EC181112CC13BCF809100019091DB
:101580004602891718F48F5F8093000180914D0205
:10159000882321F010924D02D0924E024C9B28CF0E
:1015A0009091000180914402890F81590E94F511A8
:1015B0001FCF8091450281111BCF82E08F1508F467
:1015C00017CFF39415CF80914502811111CFFF20E1
:1015D00009F4B6CFFA940CCF811102C04C99FECF1A
:1015E00069E471E081E00E947A1A61E571E082E0CD
:1015F0000E947A1A61E471E083E00E947A1A89E716
:1016000091E00E94F70463E084E00E94141A87E7E7
:1016100093E00E94B61A42E063E08BE00E9412055C
:1016200080914502882311F012E001C011E00E9470
:10163000701A80914A02843009F463C061E080E04E
:101640000E94141A88E593E00E94B61A60E08FE0C9
:101650000E94141A80914502882329F082E593E0C4
:101660000E94B61A05C045E060E08FE00E940505C3
:101670004C9906C080914502811102C043E001C02F
:1016800041E063E088E00E941205812F880F810FFE
:1016900063E08B5F0E94141A61E081E00E941108F0
:1016A00080914A028230D9F0833011F1813009F6FD
:1016B000113021F0123009F0BCCF0AC04C9903C0A0
:1016C00010934C0202C00E9426120E943412B1CF25
:1016D000809145024C998AC0811188C0AACF80911F
:1016E00045028111A6CF133008F0A3CF1F5FA1CF11
:1016F0008091450281119DCF112309F49ACF115099
:1017000098CF0E945B04FDCD80914B02811109C0EE
:1017100080914502811102C04C9977C05E985F9A12
:1017200002C05E9A5F9890914B0281E08927809376
:101730004B0284EF91E00E94B003E3CD40E26E2DB6
:1017400080E00E94120582E08E1508F4DACDE39461
:10175000D8CD40E26E2D80E00E941205EE2009F403
:10176000D0CDEA94CECD0E945B042C960FB6F894AF
:10177000DEBF0FBECDBFDF91CF911F910F91FF90C4
:10178000EF90DF9008958091440290E081599F4F3F
:1017900020910001820F911D00E010E020E030E078
:1017A000482F692F83E00E94481984E60E94840331
:1017B0000E94261284E60E9484032ACE84E60E94B8
:1017C00084038BE40E94C6198759809300014CCE94
:1017D000882339F05E98109245028DE00E94EB1943
:1017E00007CED09245020E94F81902CE882339F024
:1017F0005E98109245028DE00E94EB191ACF81E0AD
:10180000809345020E94F81914CF0E94261286CFB9
:10181000CF93809143028823E9F180914202909115
:10182000410220912903981730F4C1E0821768F033
:10183000291758F009C0891738F4C0E0821728F436
:10184000291718F4C1E001C0C0E0891310C05091FD
:10185000400230913F02351738F040912803451778
:1018600018F0341708F0C1E0381708F4C1E0281365
:1018700007C03091280380914002381708F0C1E07A
:10188000291309C09091280380913F02981718F4FA
:10189000C1E001C0C0E080913E02C81749F0CC23EE
:1018A00011F087E401C086E60E94F511C0933E0264
:1018B0008C2FCF910895CF93DF930E948F11C7E2B1
:1018C000D3E089830E9412100E949C1080915802DC
:1018D0008A83DF91CF91089585E993E00E941B1CD4
:1018E0000E945B040E947C040C94210585ED80938A
:1018F000BC008091BC0084FDFCCF1092540308957D
:1019000040919302262F30E0240F311D2132310502
:10191000DCF4209154032430C9F4FC0180E090E011
:10192000861758F4309193022191DC01AF58BD4FD6
:10193000A30FB11D2C930196F3CF80919302680FF2
:101940006093930280E0089581E0089582E0089515
:101950000895E091B1038091B003E81730F4F0E00E
:10196000E95FFC4F808190E008958FEF9FEF08952D
:101970009091B1038091B003981750F4E92FF0E0F3
:10198000E95FFC4F208130E09F5F9093B10302C07C
:101990002FEF3FEFC90108958091B00390E02091AF
:1019A000B103821B91090895CF92DF92EF92FF92CB
:1019B0000F931F93CF93DF937C01262F972F8A01DC
:1019C00080915503882391F0C62FD72F6E01C40E46
:1019D000D51ECC15DD0571F06991D701ED91FC9113
:1019E0000190F081E02DC7010995F3CF642F822F7C
:1019F0000E94800CC801DF91CF911F910F91FF9041
:101A0000EF90DF90CF900895CF93DF931F92CDB7E3
:101A1000DEB76983209155032223D1F02091AE03D4
:101A2000203240F021E030E0FC013383228380E06B
:101A300090E015C08091AF03E82FF0E0EA5AFC4F28
:101A4000998190838F5F8093AF038093AE0305C02D
:101A500061E0CE0101960E94800C81E090E00F9041
:101A6000DF91CF91089560936D0270936E02809321
:101A70006F0290937002DC01CB01845D9E4FAF4FEB
:101A8000BF4F8093690290936A02A0936B02B09358
:101A90006C0282E090E090936802809367020E945B
:101AA0009A17609363027093640280936502909327
:101AB000660208951F920F920FB60F9211242F9372
:101AC0003F934F935F936F937F938F939F93AF93C6
:101AD000BF93EF93FF93E091FA02F091FB023097EE
:101AE00009F451C0968DA685B785858591FF04C000
:101AF0009C91892329F447C09C91892309F043C014
:101B0000A389B4899C918589809589238C93868942
:101B100097890197F1F7608D718DA685B7855585F9
:101B200038E020E0CB010197F1F7822F90E0959506
:101B30008795282F4C91452309F02068315091F763
:101B4000868D81FD20958091F80290E001968F733B
:101B500099273091F902381749F0A091F802B0E0C6
:101B6000A854BD4F2C938093F80203C0868D8160EA
:101B7000868F828D938D0197F1F7A389B4899C910B
:101B80008589892B8C93FF91EF91BF91AF919F91A4
:101B90008F917F916F915F914F913F912F910F9016
:101BA0000FBE0F901F901895E091FA02F091FB0282
:101BB000E817F90769F4A389B4899C918589809510
:101BC00089238C931092FB021092FA0281E008950F
:101BD00080E008951F920F920FB60F9211242F9359
:101BE0003F934F935F936F937F938F939F93AF93A5
:101BF000BF93EF93FF938091B900887F803609F4FB
:101C00009CC068F5883209F45BC090F4803109F417
:101C100054C038F4882309F4F6C0883009F44DC064
:101C2000F6C0883109F44CC0803209F45DC0EFC0C1
:101C3000803409F468C048F4803309F455C088330F
:101C400009F0E5C080935203D8C0803509F44FC035
:101C5000883509F45DC0883409F0D9C0D6C0883908
:101C600009F4C7C0A8F4883709F467C038F4883687
:101C700009F463C0803709F460C0C9C0883809F42A
:101C8000B8C0803909F45FC0803809F0C0C05BC0BB
:101C9000803B09F486C038F4803A09F466C0883A7B
:101CA00009F47FC0B4C0803C09F4A7C0883C09F4A3
:101CB000A4C0883B09F48AC0AAC080912F0310C039
:101CC0009091510380915003981770F5E091510362
:101CD00081E08E0F80935103F0E0E05DFC4F808146
:101CE0008093BB0085EC86C0809352038EC0E09148
:101CF000510381E08E0F809351038091BB00F0E08F
:101D0000E05DFC4F808390915103809150036EC041
:101D1000E091510381E08E0F809351038091BB00CD
:101D2000F0E0E05DFC4F80838091530381116DC032
:101D300081E080932E0384EA61C083E080935403A2
:101D40001092B702CFCF8091B702803208F051C015
:101D5000E091B70281E08E0F8093B7028091BB00C3
:101D6000F0E0E956FD4F8083BDCF85EC8093BC0049
:101D7000109254038091B702803230F4E091B702A0
:101D8000F0E0E956FD4F10826091B70270E0E091FB
:101D90009502F091960287E992E009951092B702B8
:101DA00036C084E080935403109294021092930200
:101DB000E0919102F0919202099580919302811134
:101DC00005C081E08093930210927102E091940229
:101DD00081E08E0F80939402F0E0EF58FD4F8081F8
:101DE0008093BB009091940280919302981708F41D
:101DF00079CF85E88093BC000AC085EC8093BC0055
:101E00001092540304C0109252030E94760CFF916A
:101E1000EF91BF91AF919F918F917F916F915F9162
:101E20004F913F912F910F900FBE0F901F901895DB
:101E30001092540381E08093530310922E0361E0CB
:101E400082E10E94A11661E083E10E94A116E9EB04
:101E5000F0E080818E7F808380818D7F808388E425
:101E60008093B80085E48093BC0008953F924F9220
:101E70005F926F927F928F929F92AF92BF92CF921A
:101E8000DF92EF92FF920F931F93CF93DF93382E41
:101E9000962E842EF90184E6E816F1042CF082EBEC
:101EA000E81A87E0F80A03C08EE1E80EF11CE09220
:101EB0005C0200935B02E0935A02309258029092C7
:101EC000570280925602AE2DB0E020E833E341EE97
:101ED00051E00E94DA302B013C0122EB37E0FF2475
:101EE00084E6C82ED12CC0E9D1E0C901825B9740BD
:101EF0008E159F05DCF4C90183709927892B99F40D
:101F0000C901B6010E94DF2C892B31F4C901BE0141
:101F10000E94DF2C892B39F480E8480E81E5581E99
:101F200081E0681E711C2F5F3F4FDFCF8EE4E81AFF
:101F300088EFF80AC70164E670E00E94DF2C6C01AC
:101F4000C70160E971E00E94DF2C5C01C1E0D0E0D4
:101F5000112783E0E822FF24C017D1072CF5C230F7
:101F6000D10589F4E114F10471F4C114D10419F418
:101F7000A114B10441F480E8480E8BE3581E86E2B8
:101F8000681E711C0FC0DE01AC55BE4FAC91B0E0B5
:101F900020E831E541E050E00E94DA30460E571E5D
:101FA000681E791E2196D8CF292D30E0ACE3B0E031
:101FB0000E9424316B017C01C80CD11CE11CF11C76
:101FC000232D30E0A0E1BEE00E942431C60ED71ED2
:101FD000E81EF91EDF01BB27119720E831E541E03B
:101FE00050E00E94E530DC01CB018C0D9D1DAE1D43
:101FF000BF1DBC01CD01640D751D861D971DDF91B0
:10200000CF911F910F91FF90EF90DF90CF90BF90F5
:10201000AF909F908F907F906F905F904F903F9088
:102020000C94330DCF92DF92EF92FF920F931F9398
:102030000E949A17C0906302D0906402E0906502FB
:10204000F09066028B019C010C191D092E093F09B5
:1020500080916D0290916E02A0916F02B09170021A
:10206000083E134021053105D0F00196A11DB11D98
:1020700080936D0290936E02A0936F02B0937002F2
:10208000B701A60148515C4F6F4F7F4F40936302E9
:10209000509364026093650270936602C9CF4091C9
:1020A000690250916A0260916B0270916C02841710
:1020B0009507A607B70788F1E0916102F0916202E7
:1020C000309759F10995611571058105910519F050
:1020D0000E94330D22C080916D0290916E02A091FA
:1020E0006F02B0917002845D9E4FAF4FBF4F8093DF
:1020F000690290936A02A0936B02B0936C0281E034
:1021000090E02091670230916802232B11F480E067
:1021100090E0909368028093670260916D027091E5
:102120006E0280916F02909170021F910F91FF904B
:10213000EF90DF90CF9008954F925F926F927F92D1
:102140008F929F92AF92BF92CF92DF92EF92FF92C7
:102150000F931F93CF93DF934B015C0180915D023E
:1021600090915E02A0915F02B0916002881699067C
:10217000AA06BB0609F4C2C08CE3C82ED12CE12C00
:10218000F12CC501B401A70196010E94993060931A
:102190005602CA01B901A70196010E9499306093C5
:1021A0005702CA01B90128E130E040E050E00E9446
:1021B000993069017A0160935802CA01B9016C5FD4
:1021C0007F4F8F4F9F4F27E030E040E050E00E946C
:1021D00099306F5F60935902412C512C320140E0DD
:1021E00004E610E0C0E9D1E0242F30E02E54384F4F
:1021F000F901E370FF27309789F4C901B8010E9403
:10220000DF2C892B31F4C901BE010E94DF2C892B00
:1022100029F48EE691E0A0E0B0E004C08DE691E004
:10222000A0E0B0E0480E591E6A1E7B1ED301C20119
:10223000AA27BB27C816D906EA06FB0610F04F5F8F
:10224000D3CF40935C02309799F4C90164E670E003
:102250000E94DF2C892B39F4C90160E971E00E94EA
:10226000DF2C892B29F48EE691E0A0E0B0E004C0D9
:102270008DE691E0A0E0B0E0481A590A6A0A7B0AAC
:10228000C418D508E608F708C90164E670E00E94A2
:10229000DF2CEC01C90160E971E00E94DF2CA5EAA6
:1022A000B1E020E0213039F4309749F4209729F447
:1022B000009729F402C04C9103C04DE101C04CE1EC
:1022C00050E060E070E0C416D506E606F70640F080
:1022D000C41AD50AE60AF70A2F5F11962C3011F7B7
:1022E0002F5F20935B02C394C0925A0280925D02DA
:1022F00090925E02A0925F02B0926002DF91CF9155
:102300001F910F91FF90EF90DF90CF90BF90AF9013
:102310009F908F907F906F905F904F9008950E9454
:1023200012100E949C108091570290E008951F9215
:102330000F920FB60F9211240F931F932F933F9379
:102340004F935F936F937F938F939F93AF93BF93BD
:10235000EF93FF930E949A1700915202109153023B
:10236000209154023091550260177107820793073C
:10237000B8F080916F008D7F80936F0082E0809332
:10238000810081E080938000E0915002F091510241
:10239000908180914F0280958923808310924F0213
:1023A000E0915002F0915102908180914F02892773
:1023B0008083FF91EF91BF91AF919F918F917F911A
:1023C0006F915F914F913F912F911F910F910F90BE
:1023D0000FBE0F901F9018950C947B300C947330A7
:1023E0005E9886E490E00C94B0030F931F93CF9314
:1023F000DF931F92CDB7DEB789830E94F01100E012
:1024000010E020E030E08981482F60E083E00E9406
:10241000481984E60E94840380914E02882319F0B3
:1024200081E00E94FB1980914D02882349F000E071
:1024300010E020E030E040E064E081E10E944819D3
:102440000F90DF91CF911F910F9108950E94F8197D
:1024500084E60E94840310924D0210924E02109264
:102460004C0284E00C94FB195F9810924B02089583
:10247000CF93823009F478C038F4882329F1813071
:1024800009F0B9C0CAE061C0843009F48FC008F413
:1024900073C0853009F0AFC028EC30E041E068EC53
:1024A00070E088E592E00E947B0828EC30E041E093
:1024B00068EC70E084EF91E00E947B082CE231E050
:1024C00041E068EC70E092C02DE431E041E06AEF59
:1024D00070E086E091E00E947B0827EA30E041E06E
:1024E0006DE770E084EC90E00E947B0827EA30E022
:1024F00041E06DE770E084EC90E00E947B082DE401
:1025000031E041E06AEF70E08CED90E00E947B08E2
:102510002AE932E041E06AEF70E084EC90E00E944A
:102520007B082DE431E041E06AEF70E087EF90E056
:102530000E947B082DE431E041E06AEF70E086E024
:1025400091E056C0C15009F456C024E630E041E0A5
:1025500062E370E088EB91E00E947B0880914A0280
:10256000843081F7C0E0EECF24EF31E041E068EC49
:1025700070E088EB91E03CC024E630E041E064E6A6
:1025800070E088E592E00E947B0824E630E041E0BC
:1025900064E670E08CEB92E00E947B082CE231E074
:1025A00041E064E670E080E293E022C024E630E09F
:1025B00041E060E570E088E592E00E947B0824E657
:1025C00030E041E060E570E080E991E00E947B0846
:1025D00024E630E041E060E570E084EF91E00E94A5
:1025E0007B0828EC30E041E060E570E080E991E0B4
:1025F000CF910C947B08CF910895CF93DF93C82F90
:1026000085E993E00E941B1C8EE70E94D71A80EB9D
:1026100093E00E94B61A60E08FE00E94141A0E94B4
:10262000701A6AE070E0C13019F48091490202C06A
:10263000809148020E9485150E94F01181E08093EC
:102640004702D0E080914A028430F1F160E08FE0EF
:102650000E94141A61E081E00E94110880914A02F0
:10266000813081F7C130A9F490914902953019F475
:102670001092490203C09F5F909349026AE070E0A4
:10268000809149020E948515809149020E9438126A
:1026900019C0909148029A3019F41092480203C070
:1026A0009F5F909348026AE070E0809148020E9428
:1026B000851580914C02811105C0809148028F5F81
:1026C0000E94F511D1E0BECFDD2369F0C13029F4BD
:1026D0006091490287E090E004C06091480283E184
:1026E00090E00E94EC1180914C02811102C00E9486
:1026F000F81910924702DF91CF910895CF92DF929F
:10270000EF92FF920F931F93CF93DF936C017A01A7
:102710008B01C0E0D0E0CE15DF0589F0D8016D91C6
:102720008D01D601ED91FC910190F081E02DC60163
:102730000995892B11F47E0102C02196ECCFC701C7
:10274000DF91CF911F910F91FF90EF90DF90CF908D
:1027500008952091FA023091FB022817390771F48D
:102760009091F9028091F802981741F0E091F902F6
:10277000F0E0E854FD4F808190E008958FEF9FEFE7
:10278000089508951F93CF93DF93DC015C962D91FC
:102790003C915D972115310539F481E090E0139665
:1027A0009C938E9312973DC05196ED91FC91529758
:1027B00050969C915097892F80951FB75E964C91AB
:1027C0005E9741FB772770F941FD6095F894408151
:1027D000772311F0492B01C048234083E901219759
:1027E000F1F748E0508160FF02C0592B01C0582327
:1027F0005083E9012197F1F76695415099F77723C6
:1028000021F090818923808303C08081982B90835D
:102810001FBF5C968D919C915D970197F1F721E028
:1028200030E0C901DF91CF911F9108952091FA0204
:102830003091FB022817390771F48091F80220913A
:10284000F90290E0805C9F4F821B910960E470E088
:102850000E94DF2C089580E090E008952091FA0214
:102860003091FB0228173907B9F49091F902809151
:10287000F802981789F0E091F902F0E0E854FD4F72
:1028800080812091F90230E02F5F3F4F2F73332773
:102890002093F90290E008958FEF9FEF08950E9432
:1028A000252ECF92DF92EF92FF92CF93DF936C01B0
:1028B000990FEE08FF08F7FE17C08DE20E94D71AA5
:1028C000EC0166277727CB016C197D098E099F09DA
:1028D0004AE00E94E21A8C0F9D1FDF91CF91FF907A
:1028E000EF90DF90CF9008954AE0C701B601DF91E5
:1028F000CF91FF90EF90DF90CF900C94E21ACF939E
:10290000C62F809306031092050343E060E00E9407
:102910000505609105036F5F43E0809106030E9407
:1029200005058C2F90E08D30910508F0ECC0FC017E
:10293000EC59FF4F0C94F32C40E06091050380911B
:1029400006030E94120581E075C041E06091050315
:10295000809106030E94120582E00E94D71A6091BE
:1029600005036F5F44E0809106030E94120587E033
:1029700016C046E060910503809106030E9412058F
:1029800086E00E94D71A82E00E94D71A6091050360
:102990006F5F43E0809106030E94120584E00E946D
:1029A000D71A84E0ADC046E060910503809106032C
:1029B0000E94120586E00E94D71A82E017C043E009
:1029C00060910503809106030E94120584E00E9435
:1029D000D71A87E04CC043E060910503809106035D
:1029E0000E94120586E00E94D71A86E00E94D71A3C
:1029F000609105036F5F44E026C040E060910503ED
:102A0000809106030E94120586E00E94D71A86E094
:102A100014C041E060910503809106030E941205F5
:102A200081E022C040E060910503809106030E948E
:102A3000120586E00E94D71A82E00E94D71A6091A0
:102A400005036F5F43E0809106030E94120584E056
:102A50000E94D71A85E054C040E060910503809140
:102A600006030E94120586E00E94D71A82E00E94A7
:102A7000D71A609105036F5F8091060347E08E5F70
:102A80000FC08091060344E0609105038F5F0E94B0
:102A90001205609105036F5F8091060344E08F5F2C
:102AA000CF910C94120540E06091050380910603DC
:102AB0000E94120582E00E94D71A80E00E94D71A75
:102AC000609105036F5F47E0809106030E94120545
:102AD00083E00E94D71A87E013C047E060910503A6
:102AE000809106030E94120580E00E94D71A60912F
:102AF00005036F5F47E0809106030E94120583E0A3
:102B0000CF910C94D71ACF910895AB01672B59F44C
:102B1000E0919503F09196030190F081E02D682FEC
:102B200085E993E00994682F70E080E090E00C94D0
:102B3000E21A1F93CF93DF931F92CDB7DEB7182F02
:102B400087E599830E947D189981692F82EB93E034
:102B50000E94040D612F82EB93E00E94040D0E94FD
:102B6000201861E070E087E590E00E94FD189091E8
:102B7000B0038091B103981729F082EB93E00E9493
:102B8000B80C01C08FEF0F90DF91CF911F91089586
:102B90004F925F926F927F928F929F92AF92BF926D
:102BA000CF92DF92EF92FF926B017C01B42E9B01DA
:102BB000AC010E94202E882319F067E072E027C044
:102BC00026013701E89477F82FEF3FEF4FE75FE7F3
:102BD000C301B2010E94202E81110DC02FEF3FEFE3
:102BE0004FE75FE7C301B2010E944F2F18161CF494
:102BF0006BE072E00CC02FEF3FEF4FE75FE4C701DF
:102C0000B6010E941B2E181694F46FE072E085E95D
:102C100093E0FF90EF90DF90CF90BF90AF909F90A8
:102C20008F907F906F905F904F900C94F61B2FEFDA
:102C30003FEF4FE75FECC701B6010E944F2F87FDC2
:102C4000E4CF20E030E0A901C701B6010E944F2F78
:102C500087FF09C08DE20E94D71A4C01F7FAF09461
:102C6000F7F8F09402C0812C912CA12C60E070E068
:102C700080E09FE3AB1440F420E030E040E251E418
:102C80000E947A2DA394F6CF9B01AC01C701B60137
:102C90000E940E2D2B013C010E94EC2D6B017C014A
:102CA0000E94542F9B01AC01C301B2010E940D2D63
:102CB0002B013C014AE0C701B6010E94E21A7C01E7
:102CC000E80CF91CBB2041F063E172E085E993E078
:102CD0000E94F61BE80EF91EDB2CDD2021F120E01E
:102CE00030E040E251E4C301B2010E94B52F2B0154
:102CF0003C010E94EC2D4B01A12CB12C4AE0C501F6
:102D0000B4010E94E21AE80EF91EC501B4010E9446
:102D1000542F9B01AC01C301B2010E940D2D2B0168
:102D20003C01DA94DACFC701FF90EF90DF90CF90AB
:102D3000BF90AF909F908F907F906F905F904F90DB
:102D4000089590E0FC01E553FC4F3491FC01E95FEC
:102D5000FB4F2491FC01ED50FC4FE491EE2309F46C
:102D60003BC0332339F1333091F038F43130A9F0DE
:102D7000323001F584B58F7D12C0373091F0383094
:102D8000A1F03430B9F4809180008F7D03C0809130
:102D900080008F77809380000DC084B58F7784BDCD
:102DA00009C08091B0008F7703C08091B0008F7D03
:102DB0008093B000F0E0EE0FFF1FE152FC4FA591B1
:102DC000B4918FB7F894EC91611103C020952E2334
:102DD00001C02E2B2C938FBF0895CF93DF9390E0EB
:102DE000FC01E95FFB4F2491FC01ED50FC4F849105
:102DF000882361F190E0880F991FFC01EF53FC4F8D
:102E0000C591D491FC01E152FC4FA591B49161119F
:102E100009C09FB7F8948881209582238883EC911C
:102E20002E230BC0623061F49FB7F8943881822F53
:102E3000809583238883EC912E2B2C939FBF06C013
:102E40008FB7F894E8812E2B28838FBFDF91CF9125
:102E50000895CF93DF93EC0161E08AE00E94ED16C4
:102E6000209711F460E004C0CF3FD10531F461E058
:102E70008AE0DF91CF910C94A116E5EDF3E0E491A7
:102E8000E330F9F048F4E130B9F0E230A1F584B56F
:102E9000806284BDC8BD34C0E730E9F0E83019F184
:102EA000E43049F580918000806280938000D09367
:102EB0008B00C0938A0024C084B5806884BDC7BDE0
:102EC0001FC080918000806880938000D09389002B
:102ED000C093880015C08091B00080688093B000D6
:102EE000C093B3000DC08091B00080628093B000A9
:102EF000C093B40005C0C038D1050CF0B8CFB2CF34
:102F0000DF91CF9108958E3008F08E5087708064E5
:102F100080937C0080917A00806480937A00809115
:102F20007A0086FDFCCF809178002091790090E0B6
:102F3000922B08952FB7F8946091010370910203CA
:102F400080910303909104032FBF08951F920F9265
:102F50000FB60F9211242F933F938F939F93AF93AC
:102F6000BF938091010390910203A0910303B0915C
:102F700004033091000323E0230F2D3720F4019642
:102F8000A11DB11D05C026E8230F0296A11DB11D8C
:102F9000209300038093010390930203A093030303
:102FA000B09304038091FC029091FD02A091FE0277
:102FB000B091FF020196A11DB11D8093FC02909378
:102FC000FD02A093FE02B093FF02BF91AF919F91CB
:102FD0008F913F912F910F900FBE0F901F901895DA
:102FE0008F929F92AF92BF92CF92DF92EF92FF9219
:102FF000CF93DF936B017C010E949A174B015C0118
:1030000086E793E00E941614EC01892B69F40E9474
:103010009A17AB01BC01481959096A097B094C157B
:103020005D056E057F0560F3CE01DF91CF91FF90C6
:10303000EF90DF90CF90BF90AF909F908F900895CA
:103040002091AE039091BE03213208F04AC08091D6
:1030500054038111FCCF32E03093540331E03093BC
:1030600053033FEF309352031092510320935003C8
:10307000A6E5B3E040E353E0FA013E2F341B3217DC
:1030800018F43D913193F9CF10922F0320912F0323
:10309000990F922B90932F0390912E03913061F40E
:1030A00010922E0390912F039093BB009091BC003F
:1030B00093FDF8CF95EC01C095EE9093BC009091F4
:1030C00054039230E1F3909152039F3F79F0809145
:1030D0005203803241F080915203803331F084E01A
:1030E00005C081E003C082E001C083E01092AF031D
:1030F0001092AE0310925503089591E090935503FA
:103100008093BE031092AF031092AE0308950F9305
:103110001F93CF9388E60E947D1860E082EB93E0D6
:103120000E94040D07E213E0F8018081CAE06C2FD1
:103130000E94D32C692FF0E18F9F600D112482EB48
:1031400093E00E94040DF80181816C2F0E94D32C22
:10315000692FF0E18F9F600D112482EB93E00E94B4
:10316000040DF80182816C2F0E94D32C692FF0E1AD
:103170008F9F600D112482EB93E00E94040DF801F3
:1031800083816C2F0E94D32C692FF0E18F9F600DFB
:10319000112482EB93E00E94040DF80184816C2FCE
:1031A0000E94D32C692FF0E18F9F600D112482EBD8
:1031B00093E00E94040DF80185816C2F0E94D32CAE
:1031C000692FF0E18F9F600D112482EB93E00E9444
:1031D000040DF80186818E516C2F0E94D32C692F2B
:1031E000F0E18F9F600D112482EB93E00E94040DAB
:1031F000CF911F910F910C9420189091540391112D
:10320000FCCF613208F060E291E090935403909318
:1032100053032FEF2093520310925103260F209354
:10322000500390932F0390912F03880F892B809345
:103230002F0380912E03813061F410922E03809130
:103240002F038093BB008091BC0083FDF8CF85ECF9
:1032500001C085EE8093BC00809154038130E1F37E
:1032600080915103861710F460915103A0E3B3E0FD
:1032700027E033E0F9018E2F821B861718F48D9119
:103280008193F9CF1092B1036093B003862F089514
:10329000CF92DF92EF92FF920F931F93CF93DF9322
:1032A000E82EC62ED42EE901EDEFE80FE03128F428
:1032B000F0E0EF54FE4FF08001C0F12C6AE070E0C6
:1032C00080E090E00E94F017892B29F086E793E0D8
:1032D0000E942E14F3CF6EE786E793E00E94C2139C
:1032E00062E06F0D86E793E00E94C2136E2D86E7C1
:1032F00093E00E94C213FF2069F06C2D86E793E0F3
:103300000E94C21382E0F81205C06D2D86E793E09B
:103310000E94C2136FEE86E793E00E94C2132097CB
:1033200049F00115110531F0A80160E070E0CE010F
:103330000E942A2E68EE73E080E090E00E94F01771
:10334000E12CF12C0150110962E370E080E090E083
:103350000E94F017892B89F086E793E00E942E14D3
:10336000209791F3E016F10678F7FE01EE0DFF1DB0
:103370008083C70101967C01E7CFDF91CF911F9138
:103380000F91FF90EF90DF90CF9008950F931F93D0
:10339000CF93DF9300D000D01F92CDB7DEB705E00A
:1033A00010E09E012F5F3F4F40E060E00E9448190F
:1033B00040E150E060E070E0CE0101960E94312EC5
:1033C000CB010F900F900F900F900F90DF91CF9146
:1033D0001F910F9108950F931F9300E010E020E0DC
:1033E00030E040E060E00E9448191F910F9108957D
:1033F0008EE00C94EB190F931F9300E010E020E097
:1034000030E040E0682F81E10E9448191F910F9140
:103410000895E0919503F09196030084F185E02DE5
:1034200060E085E993E00994CF93DF93CDB7DEB7F1
:1034300028970FB6F894DEBF0FBECDBF1D8290E473
:103440009E8324E12F8324E5288719829A8390E1C3
:103450009B8390E59C8390919C03691710F06FEF1C
:10346000690F40919D03262F30E0FE01E20FF31F0C
:10347000403121F4943011F4918101C09581682F7D
:10348000690F606885E993E028960FB6F894DEBF6F
:103490000FBECDBFDF91CF910C940B1C0E94091A77
:1034A000E5E9F3E065816B7F65836860CF010C948B
:1034B0000B1CE5E9F3E06581862F846085836C60F1
:1034C000CF010E940B1C85E993E00C94131CE5E9E5
:1034D000F3E065816E7F65836860CF010C940B1CFF
:1034E000E5E9F3E06581862F816085836960CF011E
:1034F0000C940B1CCF92DF92EF92FF920F931F93CD
:10350000CF93DF931F92CDB7DEB7162F877028E0D9
:10351000829FC0011124682F606485E993E079835C
:103520000E940B1C83E790E00197F1F7C12E79818F
:10353000D72E8601085F1F4F8BE9E82EF12CF6018C
:1035400061916F0185E993E00E94391BC7010197E2
:10355000F1F7C016D10699F70F90DF91CF911F9127
:103560000F91FF90EF90DF90CF9008950F931F93EE
:10357000CF93DF938C01C0E0D0E0F801EC0FFD1F8A
:103580006491662371F0E0919503F09196030190A8
:10359000F081E02D85E993E00995892B11F02196C2
:1035A000ECCFCE01DF91CF911F910F910895E09163
:1035B0009503F09196030190F081E02D682F85E945
:1035C00093E009948F929F92AF92BF920F931F93B3
:1035D000CF93DF93CDB7DEB7A1970FB6F894DEBFD8
:1035E0000FBECDBF19A2423008F44AE08E010F5D34
:1035F0001F4F842E912CA12CB12CA50194010E9467
:103600009930E62FB901CA0101501109EA3014F4CA
:10361000E05D01C0E95CD801EC93232B242B252B22
:1036200061F7B80185E993E00E94F61BA1960FB6F9
:10363000F894DEBF0FBECDBFDF91CF911F910F91E8
:10364000BF90AF909F908F90089521E001C0220F0E
:103650006A95EAF7DC011C962C931C971A965C93EA
:103660004E931997ED91FC910084F185E02D60E077
:103670000994DC01ED91FC910284F385E02D41E099
:10368000099581E090E0089508950895CF93DF9320
:10369000FC012381222391F0EC0181818095682334
:1036A000608382810E947D18688182EB93E00E9492
:1036B000040D0E942018282F30E002C020E030E0E6
:1036C00081E090E0232B11F080E090E0DF91CF913A
:1036D0000895EF92FF920F931F93CF938C01FC01FB
:1036E000759684E0C0E060FF02C09081C92B6695AA
:1036F000815031968111F7CF413011F4F80144899E
:10370000F8018585C82BC42B7801FEE0EF0EF11C73
:10371000F80162896C2BC7010E94461BF80162897F
:1037200060956C23C701CF911F910F91FF90EF908F
:103730000C94461B0F931F93CF93DF93062F0F70AC
:10374000423019F440E0602F10C0142F262FEC01F6
:1037500030E0B90184E0759567958A95E1F7CE016F
:103760000E94691B412F602FCE01DF91CF911F91E5
:103770000F910C94691BFC0184858823A9F0218595
:1037800032852115310519F4611106C007C02130B9
:10379000310521F4611102C0858701C01586658558
:1037A000CF010E960C94461B08951F920F920FB6F0
:1037B0000F9211248F93EF93FF930FB6F894A8956F
:1037C00080916000886180936000109260000FBE5D
:1037D000A895E0E6F0E080818F7B8083FF91EF91F8
:1037E0008F910F900FBE0F901F9018956115710566
:1037F00079F0FB0101900020E9F73197AF01461BFA
:10380000570BDC01ED91FC910280F381E02D0994CE
:1038100080E090E00895DC01ED91FC910284F38555
:10382000E02D40E00994DC01ED91FC910084F185EC
:10383000E02D6FEF099461E00E940B1C8BE39FE188
:103840000197F1F70895CF92DF92EF92FF920F93D5
:103850001F93CF93DF93EC01423018F08C81886086
:103860008C834F836887222329F0413019F48C819F
:1038700084608C830E949A176B017C010E949A17C6
:10388000DC01CB018C199D09AE09BF098436910575
:10389000A105B10598F36C8164FD31C0E881F9811F
:1038A0000284F385E02D42E063E0CE0109958BE4CC
:1038B00096E40197F1F7E881F9810284F385E02D20
:1038C00042E063E0CE01099503E512E0C8010197EB
:1038D000F1F7E881F9810284F385E02D42E063E0AD
:1038E000CE010995C8010197F1F7E881F9810284B9
:1038F000F385E02D42E062E0CE01099517C06062D9
:10390000CE010E940B1C8BE496E40197F1F76C81C9
:103910006062CE010E940B1C03E512E0C801019712
:10392000F1F76C816062CE010E940B1CC801019707
:10393000F1F76C816062CE010E940B1C8BEE90E06F
:103940000197F1F784E08D836CE0CE010E940B1C9F
:10395000CE010E941B1C82E08E8366E0CE010E9495
:103960000B1CCE01DF91CF911F910F91FF90EF9033
:10397000DF90CF900C94131CFF920F931F93CF9363
:10398000DF93EC01162F042FF22E8B85888B10927B
:10399000B1031092B0031092AF031092AE030E94D5
:1039A000180F88890E947D180E94201891E08111CB
:1039B00090E0998B992329F082EB93E00E94B80C58
:1039C0008E878989882339F01F861C8260E0CE01AA
:1039D0000E960E94461B2F2D402F612FCE01DF91A6
:1039E000CF911F910F91FF900C94231CCF92DF92E7
:1039F000EF92FF920F931F93E82FF92F05C001500C
:103A000011092109310961F1908196239417B9F3C5
:103A100005C0015011092109310911F19081962346
:103A20009413F7CFC12CD12CE12CF12C0AC08FEFCD
:103A3000C81AD80AE80AF80A0C151D052E053F0514
:103A400079F080818623841791F36C2D7D2D8E2D46
:103A50009F2D1F910F91FF90EF90DF90CF900895D1
:103A600060E070E080E090E01F910F91FF90EF9098
:103A7000DF90CF900895CF93DF9300D000D000D097
:103A8000CDB7DEB7789484B5826084BD84B581609B
:103A900084BD85B5826085BD85B5816085BD809119
:103AA0006E00816080936E00109281008091810091
:103AB0008260809381008091810081608093810089
:103AC000809180008160809380008091B10084604B
:103AD0008093B1008091B00081608093B0008091AC
:103AE0007A00846080937A0080917A00826080936B
:103AF0007A0080917A00816080937A0080917A00C8
:103B0000806880937A001092C1001CBC80E880BF5E
:103B10008FE380937E0080916400846080936400D2
:103B2000809164008260809364008091640080646E
:103B30008093640088EC8AB98CE284B98EE387B9FB
:103B400080E48BB981E088B91092910310929003C0
:103B500010928F0310928E0310928D0310928C039B
:103B60008DE991E090939303809392039091820367
:103B7000963108F057C02DEB30E030938D03209341
:103B80008C032BE931E030938F0320938E032CE2DA
:103B900031E0309391032093900320916800983096
:103BA00050F031E09E3008F430E081E001C0880F31
:103BB0003A95EAF701C084E0822B80936800983040
:103BC00038F09E3040F0963148F020E030E008C0F8
:103BD0002DE630E005C02BE630E002C02CE630E0F8
:103BE00030938A0320938903983030F481E001C038
:103BF000880F9A95EAF70EC0292F30E09E3018F40E
:103C00002850310902C02E50310981E001C0880FCF
:103C10002A95EAF780938B03809192039091930306
:103C20000197F1F78091900390919103892B21F1F5
:103C30008091FA029091FB0223E086379207E1F02F
:103C4000009711F00E94D40D809194038E7F809391
:103C500094031092F8021092F90286E793E0909391
:103C6000FB028093FA02E0918903F0918A0390812C
:103C700080918B03892B80830E94F8198CE00E942D
:103C8000EB1984EF91E00E94B00300E010E020E027
:103C900030E040E06EE186E00E94481984E00E9436
:103CA000FB1981E090E00E94EE1191E0811101C0CA
:103CB00090E09093320282E090E00E94EE118093B7
:103CC0002B0283E090E00E94EE1191E0811101C08F
:103CD00090E09093330284E090E00E94EE11809394
:103CE0002E0285E090E00E94EE1180932D0286E086
:103CF00090E00E94EE1180932C0287E090E00E94F9
:103D0000EE118093490288E090E00E94EE118093CA
:103D1000360289E090E00E94EE1180932A028AE048
:103D200090E00E94EE1191E0811101C090E090932B
:103D300029028BE090E00E94EE1191E0811101C018
:103D400090E0909343028CE090E00E94EE1180930B
:103D500042028DE090E00E94EE11809340028EE0DE
:103D600090E00E94EE11809341028FE090E00E946B
:103D7000EE1180933F0280E190E00E94EE1191E00D
:103D8000811101C090E09093280281E190E00E94AF
:103D9000EE11182F82E190E00E94EE11282F30E002
:103DA000C9014AE0149F800D911D112490932702B0
:103DB0008093260283E190E00E94EE1180934802F6
:103DC000B0E2EB2EB2E0FB2E05E110E0C8010E944C
:103DD000EE11D82EC80101960E94EE11282F30E076
:103DE000C9016AE0D69E800D911D1124F7018193CF
:103DF00091937F010E5F1F4F0B31110539F78BE156
:103E000090E00E94EE1191E0811101C090E090934A
:103E10001F028CE190E00E94EE1191E0811101C03F
:103E200090E090931E0280E090E00E9499158093AC
:103E30001D0281E090E00E94991580931C0210926F
:103E4000440288E60E947D1861E072E082EB93E014
:103E50000E94F61B0E94201884E10E94840388E6D9
:103E60000E947D1864E072E082EB93E00E94F61BF2
:103E70000E9420180E94F10220E044E064E185E9FC
:103E800093E00E94BC1C0E945B0484E190E00E94CD
:103E9000EE11182F8A3008F045C085E993E00E94A2
:103EA0001B1C8AED92E00E94B61A46E561E083E0B1
:103EB0000E94120580E090E00E9451148EE20E9460
:103EC000D71A812F6AE00E94D32C892F90E00E949C
:103ED000511483ED92E00E94B61A81E090E00E94B6
:103EE00051148EE20E94D71A80E090E00E94511493
:103EF00064E084E00E94141A86EC92E00E94B61AF4
:103F000045EF64E08BE00E9412056AE084E190E0F6
:103F10000E94EC1160E081E00E94110885E993E0C5
:103F20000E941B1C0E94F01120E530E040E060E59B
:103F300070E088E592E00E947B0826E930E040E0EE
:103F400066E970E080E793E00E947B085E9A0E9439
:103F50005B0C0E94080C80933E0287E40E94C61905
:103F600090914402891B8F5680934602F3E6FD83AD
:103F700023E62C83CE0101963C010E945B0C87E076
:103F80000E9483178132934024F08091300288236D
:103F900051F087E00E9483178032934004F58091AE
:103FA00030028823E1F09091300281E089278093EC
:103FB000300287E00E9483178032934014F00C9403
:103FC000F32A80913502882311F40C94F32A80910E
:103FD0002902882311F40C94F32A0E944F04809143
:103FE00028032C81281709F463C1809138028823A3
:103FF000E1F080911E028823C1F080912F0281118F
:1040000014C080912902882339F0809130028111F7
:1040100003C00E944F0409C080913502811105C080
:104020000E94091A81E08093350210921B02809150
:1040300029033D81381709F4B4C080912F02811102
:1040400079C00E947C0490911C0280912C039813EB
:104050006DC090911D0280912B03981367C081E081
:104060008093340280911A02811164C080913802D9
:10407000811160C061E771E00E947A1A80914B0261
:1040800081115F9880913202811107C080914C02AA
:10409000811103C08FE60E94F51180ED97E00E9428
:1040A000B0030E948F117C01FF240E948F11E8163B
:1040B000F90621F04C9902C00C940B2B80914A0216
:1040C000843011F40C940B2B85E993E00E941B1CA7
:1040D00061E087E00E94141A8BEE90E00E94B61A0D
:1040E00062E086E00E94141A82EE90E00E94B61A06
:1040F00065E081E00E94D503182F112391F064E15F
:1041000080E00E94D50340E060E00E94120564E177
:1041100080E00E94D50340E063E00E941205115048
:10412000ECCF84EF91E00E944A08BFCF10921A02B0
:1041300010923402109128020E947B02181789F114
:1041400080912903843068F1112311F40C941C2B05
:1041500081508093290381E0D12ED826D092280265
:10416000E0903B02F0903C0200912C0310E0209183
:104170002B0330E04091270350E06091280370E06A
:104180008091290390E00E94360F80913B02825B70
:1041900080932D030E9487186D2D80E190E00E948E
:1041A000EC1180912F02811102C00E9421058091A3
:1041B000380281117DC080913202811179C08091D5
:1041C000390290913A020A977CF480913002811171
:1041D0000BC00E94F01120E530E040E060E570E0A7
:1041E00088E993E00E947B084C9962C08091450267
:1041F00081115EC08091310281115AC080913902D3
:1042000090913A0202970CF453C0E0912A02F0E038
:10421000E556FE4F108161E0610F81E00E94D503F9
:10422000811346C00C941F2B163010F00C94B62B43
:10423000143011F00C94AE2B61E083E00E94141A4C
:1042400081EF90E00E94B61A80912B024CE1849F8E
:10425000C00111240E9429170E94F0112EE031E0C4
:1042600040E06AEF70E080E293E00E947B0824EB7C
:1042700030E040E066E970E080E293E00E947B0875
:104280002AEF30E040E06AEF70E084E992E00E94BB
:104290007B0880ED97E00E944A0880E090E00E9451
:1042A00029170E946C0C8091350281110C94A12B6E
:1042B00080912F0281117CC080913702811178C0DA
:1042C00080913602882309F473C02D988FE090E026
:1042D0000197F1F72D9A83E290E00197F1F72D987D
:1042E000E3E1F4E06491EFEFF3E0E491F0E0EE0F4E
:1042F000FF1FE751FC4F8591949100E412E42FE0F9
:1043000030E0462F0E94F61C61157105810591056C
:1043100049F0DC01CB010196A11DB11DBC01CD010D
:104320009F7003C060E070E0CB01109136022AE379
:1043300030E040E050E00E94993069E1169FC001F2
:104340001124092E000CAA0BBB0B281739074A07AA
:104350005B0770F580913502882391F080911F02F0
:10436000882371F085E993E00E94131C0E949A173C
:1043700060931602709317028093180290931902AB
:1043800080913802811114C080911B02811110C0EC
:104390008091310281110CC080914502811108C0C9
:1043A00080913202811104C04C9902C00C94432BBD
:1043B000809135028823C9F080911F028823A9F0DB
:1043C0000E949A170091160210911702209118026C
:1043D000309119020A561F4F2F4F3F4F06171707EC
:1043E0002807390710F40C944E2B809128038C83F6
:1043F000909129039D8380E00E945A0680934A028F
:1044000090912F02823011F40C949C2A833011F485
:104410000C94B02A813011F00C94E82A91110C947C
:10442000E82A80E50E9484030E94671A85E993E0E8
:104430000E941B1C80913202882331F088E70E9481
:10444000D71AE1E0EB8301C01B8260E082E00E94AA
:10445000141A88EB92E00E94B61A61E082E00E9492
:10446000141A8AEA92E00E94B61A62E081E00E9481
:10447000141A0E9475048DE992E00E94B61A63E056
:1044800082E00E94141A80E992E00E94B61AAB8082
:1044900080914A02843011F40C94B82A4EE76A2DB8
:1044A00080E00E94120561E080E00E941108809186
:1044B0004A02823011F40C94822A833011F40C9455
:1044C0008F2A813029F7F1E0AF1691F1AF1668F12C
:1044D00022E0A21609F4E4C133E0A312D9CF85E9A2
:1044E00093E00E941B1C60E082E00E94141A80E8A6
:1044F00092E00E94B61A61E082E00E94141A80E7FE
:1045000092E00E94B61A62E082E00E94141A80E6ED
:1045100092E00E94B61A63E082E00E94141A86E5D7
:1045200092E00E94B61A10E039C50E944209B0CF4D
:10453000A092470289E891E00E94F70480912D0241
:104540008A3010F40E9479046AE070E080912D02B4
:104550000E9485158AE30E94D71A80912E028A3024
:1045600010F40E9479046AE070E080912E020E94AB
:1045700085150E94750461E080E00E94141A8EE4A3
:1045800091E00E94B61A63E082E00E94141A8BE365
:1045900091E00E94B61A63E08EE00E94141A8091A6
:1045A0002C02813049F028F0823051F48DE291E004
:1045B00005C087E391E002C081E391E00E94B61A52
:1045C0000E94701A00E010E07AE0F72EE4E1EE2E8F
:1045D00080914A02843009F447C1153010F062E03E
:1045E00001C063E040E280E00E941205153010F047
:1045F00063E001C062E04EE780E00E94120562E0E5
:1046000082E00E94141A80912D028A3010F40E94D8
:1046100079046AE070E080912D020E9485158AE39A
:104620000E94D71A80912E028A3010F40E947904D9
:104630006AE070E080912E020E9485150E94750448
:1046400080913302882319F085E291E002C08DE168
:1046500091E00E94B61A123091F038F4112361F003
:104660001130B9F462E083E012C0143071F050F000
:10467000153079F463E00AC062E082E008C062E0CD
:1046800085E005C062E086E002C062E08EE00E9444
:10469000141A61E080E00E94110880914A02823081
:1046A00009F4D6C0833009F4D8C0813009F090CF26
:1046B000123009F455C028F4112379F11130D9F1E1
:1046C000D1C0143009F468C008F458C0153009F09E
:1046D000C9C00E94671AD09033021092330285E954
:1046E00093E00E941B1C60E082E00E94141A81E1AA
:1046F00091E00E94B61A61E082E00E94141A87E0FD
:1047000091E00E94B61A62E082E00E94141A8FEFD4
:1047100090E00E94B61A00E065C080912D028E30B4
:1047200020F4865F80932D029DC06F2D0E94D32CB4
:1047300090932D0297C020912D02822F6F2D0E9401
:10474000D32C993011F4295001C02F5F20932D02F2
:1047500080912D02883109F085C0E0922D0282C03F
:1047600080912E02813320F4865F80932E027AC0DE
:104770006F2D0E94D32C90932E0274C020912E0294
:10478000822F6F2D0E94D32C993011F4295001C033
:104790002F5F20932E0266C0909133028927809369
:1047A000330260C048E560912C0283E00E9412054C
:1047B0004EE7602F80E00E9412054DE261E083E049
:1047C0000E941205602F83E00E94141A61E080E0CD
:1047D0000E94110880914A02823001F1833039F140
:1047E000813029F080914A028430E1F629C00130FD
:1047F000C9F300932C02602F86E090E00E94EC1138
:1048000080912C02811103C081E00E94FD128091F1
:104810002C02823039F70E94FD12E4CF40E2602F73
:1048200080E00E9412050230E8F60F5FDBCF40E225
:10483000602F80E00E9412050023A1F20150D2CF28
:10484000D092330261E071E080E00E947A1A0AC0DF
:10485000153008F0BDCE1F5FBBCE112309F4B8CED2
:104860001150B6CE01E0B4CE002391F06091330236
:1048700083E090E00E94EC1160912E0284E090E0D1
:104880000E94EC1160912D0285E090E00E94EC11F5
:1048900061E071E080E00E947A1A10924702F8CD40
:1048A000C090290390902803D0902B03B0902C0344
:1048B00081E891E00E94F7048DEA91E00E94B61A27
:1048C00061E082E00E94141A8CE991E00E94B61A1D
:1048D0000E94701A80913B0290913C02805D97404B
:1048E00090933C0280933B0210E000E064E1E62EEE
:1048F00080914A02843009F406C362E082E00E949B
:10490000141A49E04C1510F00E9479046AE070E036
:104910008C2D0E9485158AE30E94D71A69E06915DB
:1049200010F00E9479046AE070E0892D0E948515DC
:104930000E94750463E082E00E94141A89E08D15DC
:1049400010F00E9479046AE070E08D2D0E948515B8
:104950008EE20E94D71A99E09B1510F00E9479040C
:104960006AE070E08B2D0E94851588E991E00E9435
:10497000B61A80913B0290913C020A9714F40E946F
:10498000790480913B0290913C020E94511461E0B5
:104990008EE00E94141A80914302882319F084E962
:1049A00091E002C080E991E00E94B61A40E2011154
:1049B00079C662E080E00E94120561E080E00E941A
:1049C000141A8BEF800F863048F440E262E080E0FA
:1049D0000E94120563E080E00E94141A8EE70E9494
:1049E000D71A202E312CEBE02E16310418F5F101E8
:1049F000EC5CFF4F0C94F32C61E08EE019C062E098
:104A000007C062E008C062E009C062E00AC063E07B
:104A100082E00EC063E083E00BC063E085E008C085
:104A200063E086E005C063E08AE002C063E08BE0FB
:104A30000E94141A61E080E00E94110880914A02ED
:104A4000823009F452C2833009F454C2813009F033
:104A50004FCF002351F0F1013197EA30F10508F012
:104A6000BBC1E15CFF4F0C94F32C81E891E00E9404
:104A7000F7048DE791E00E94B61A61E082E00E949F
:104A8000141A8CE691E00E94B61A62E082E00E945D
:104A9000141A88E691E00E94B61A63E082E00E9450
:104AA000141A84E691E00E94B61AF12C80914A0211
:104AB000843009F480C161E083E00E94141A80917F
:104AC0004302882319F080E691E002C08CE591E072
:104AD0000E94B61A80911E02811102C040E201C0FC
:104AE00048E561E080E10E94120562E086E00E94F4
:104AF000141A809142028A3010F40E9479046AE00C
:104B000070E0809142020E9485158AE30E94D71AC4
:104B1000809140028A3010F40E9479046AE070E0CB
:104B2000809140020E9485150E94750463E086E032
:104B30000E94141A809141028A3010F40E94790474
:104B40006AE070E0809141020E9485158AE30E942C
:104B5000D71A80913F028A3010F40E9479046AE0EB
:104B600070E080913F020E9485150E947504F1E07B
:104B7000FF1548F040E262E080E00E94120561E02B
:104B800080E00E94141A8EEF8F0D843060F440E2B2
:104B900061E080E00E94120540E263E080E00E9454
:104BA000120562E009C025E02F1548F440E262E0FA
:104BB00080E00E94120563E080E00E94141A8EE7F4
:104BC0000E94D71A2F2C312C3AE02316310400F51D
:104BD000F101E75BFF4F0C94F32C61E083E016C01A
:104BE00061E080E113C062E007C062E008C062E0FB
:104BF00009C062E00AC063E086E008C063E087E0C5
:104C000005C063E089E002C063E08AE00E94141AF4
:104C100061E080E00E94110880914A02823009F42C
:104C2000BFC0833009F4C2C0813009F03FCF4AE0F1
:104C30002416310408F08FC0F101ED5AFF4F0C9497
:104C4000F32C9091430281E089278093430283C033
:104C500090911E0281E0892780931E027CC0809182
:104C600042028E3020F4865F8093420274C06AE074
:104C70000E94D32C909342026EC020914202822F58
:104C80006AE00E94D32C993011F4295001C02F5FA3
:104C90002093420280914202883109F05CC0E09288
:104CA000420259C080914002813320F4865F809394
:104CB000400251C06AE00E94D32C909340024BC046
:104CC00020914002822F6AE00E94D32C993011F487
:104CD000295001C02F5F209340023DC080914102C6
:104CE0008E3020F4865F8093410235C06AE00E94D6
:104CF000D32C909341022FC020914102822F6AE071
:104D00000E94D32C993011F4295001C02F5F2093B9
:104D10004102809141028831F1F4E09241021BC0CE
:104D200080913F02813320F4865F80933F0213C05D
:104D30006AE00E94D32C90933F020DC020913F0265
:104D4000822F6AE00E94D32C993011F4295001C0BF
:104D50002F5F20933F02609143028BE090E00E941E
:104D6000EC11609142028CE090E00E94EC116091A5
:104D700040028DE090E00E94EC11609141028EE0D3
:104D800090E00E94EC1160913F028FE090E00E9461
:104D9000EC1160911E028CE190E00E94EC1186CE35
:104DA00068E06F1508F482CEF39480CEFF2009F4FA
:104DB0007DCEFA947BCE61E071E080E00E947A1AA9
:104DC00097CD8DE08C1518F09AE0C90E05C08C2D9A
:104DD0006AE00E94D32CC92E11E08ACD8C2D6AE0A6
:104DE0000E94D32C993019F4E7EFCE0E01C0C39482
:104DF000F8E111E0CF127CCD54E1C52E79CD20E34E
:104E0000291518F03AE0930EE7CF892D6AE00E9449
:104E1000D32C992EE1CF892D6AE00E94D32C9930B2
:104E200019F447EF940ED8CF9394D6CF65E16D1562
:104E300018F08AE0D80ED0CF8D2D6AE00E94D32CD6
:104E4000D92E0DC08D2D6AE00E94D32C993019F413
:104E500097EFD90E01C0D394EFE1ED1530F0D110EA
:104E6000BBCF11E0DD24D39443CD4EE1D42EB4CF9B
:104E7000F2E0FB1518F02AE0B20EAECF8B2D6AE0FF
:104E80000E94D32CB92E9111A7CF11E0BB24B3946B
:104E90002FCD3BE03B1598F1B3949ECF80913B0220
:104EA00090913C028935910514F40A9604C06AE099
:104EB00070E00E94DF2C90933C0280933B028CCFE9
:104EC00020913B0230913C02C9016AE070E00E94EF
:104ED000DF2C099719F42950310902C02F5F3F4F89
:104EE00030933C0220933B0277CF0A3008F000CD8C
:104EF0000F5FFECC002309F4FBCC0150F9CC11E08C
:104F00003AE0B32EF5CCE0903B02F0903C0240E357
:104F1000E41A48EFF40AF0923C02E0923B021123BB
:104F200041F10B2D10E02D2D30E0692D70E040E0B7
:104F300050E08C2D90E00E94360FC0922903909291
:104F4000280310922703D0922B03B0922C03809158
:104F50003B02825B80932D030E9487180E946C0C99
:104F60000E947B0280932802682F80E190E00E94DB
:104F7000EC1161E071E080E00E947A1A89CA82E354
:104F800090E00E94B00380914A02823009F49AC2F4
:104F9000833009F4A0C2813009F44BC080914A02E9
:104FA000843009F4A4C20E94701A111107C08091C4
:104FB0002B026CE1869FC001112402C080E090E0CA
:104FC0000E942917133011F40E94671A4EE7612FCF
:104FD00080E00E94120560E08FE00E94141A6AE0EF
:104FE00070E080912B020E94851561E08FE00E94A5
:104FF000141A6AE070E080912A020E94851562E02E
:105000008FE00E94141A6AE070E0809136020E94DC
:105010008515612F8FE00E94141A80E00E945A06C5
:1050200080934A028111ABCF84E690E00E94B003E6
:10503000F4CF113009F444C060F1123009F451C0CA
:10504000133009F0ABCF85E993E00E941B1C60E0B0
:1050500082E00E94141A83E492E00E94B61A61E092
:1050600082E00E94141A80E392E00E94B61A62E085
:1050700082E00E94141A8DE192E00E94B61A63E069
:1050800082E00E94141A83E192E00E94B61A00E0C6
:105090006DC080912B02893020F48F5F80932B02AA
:1050A00002C010922B0260912B02ECE16E9FC001B6
:1050B00011246E830E9429176E8182E090E00EC059
:1050C00080912A02893020F48F5F80932A0202C0E7
:1050D00010922A0260912A0289E090E00E94EC116D
:1050E0005DCF80913602893020F48F5F8093360245
:1050F00002C0109236026091360288E090E0EECF56
:1051000080912902811137C040E260E082E10E9473
:10511000120580913202811130C040E261E082E1EB
:105120000E94120580911F02811129C040E262E0B5
:1051300082E10E9412054EE7602F80E00E94120576
:10514000602F82E10E94141A0330D8F40E94701A72
:1051500061E080E00E94110880914A02823009F4E7
:105160009DC1833009F4A4C1813071F080914A025D
:10517000843031F613CF48E5C8CF48E5CFCF48E5B6
:10518000D6CF0E94671AE4CF013011F1C8F0023087
:10519000C9F1033059F789E691E00E94F70480E0F5
:1051A00092E00E94B61A4FEE60E081E10E94120583
:1051B00061E080E00E94141A24E1E22EF12C2FC05D
:1051C000609129026827609329028AE090E021C05B
:1051D0000E94671A80913202811109C04EE261E09B
:1051E00082E10E9412050E9426120E9434126091F0
:1051F000320281E068276093320281E090E00E94F1
:10520000EC11B4CF60911F02682760931F028AE1FE
:1052100090E00E94EC1182E30E948403A7CF8CEE01
:105220008E0D843111F462E003C0883221F463E012
:1052300080E00E94141AC7010E9499150E94D71A93
:10524000FFEFEF1AFF0A20E5E216F10441F760E0F4
:1052500080E00E94110861E071E080E00E947A1A0B
:1052600085E993E00E941B1C6BE080E00E947F14A4
:1052700060E083E00E947F146CE086E00E947F146F
:1052800060E088E00E947F1461E08DE00E947F145E
:1052900044E061E080E10E94120560E081E10E944B
:1052A0007F1463E080E00E94141A8FEE91E00E9468
:1052B000B61A80914A02843009F458CF80E00E94E7
:1052C0005A0680934A0280E00E945A06823089F78B
:1052D00080914A02843069F380E00E945A068093EC
:1052E0004A0280E00E945A06833091F785E993E0F4
:1052F0000E941B1C60E080E00E94141A84EE91E082
:105300000E94B61A81E090E00E9451148EE20E9441
:10531000D71A80E090E00E9451148CED91E00E9439
:10532000B61A61E080E00E94141A86ED91E00E94B6
:10533000B61A98E0F92E8F2D0E947D180E94201831
:10534000811108C088E70E94D71A60E170E08F2DB4
:105350000E948515F39438E7F312EDCF62E080E008
:105360000E94141A8FEC91E00E94B61A8091BF033C
:105370009091C003009711F485EC93E0F301E81BD2
:10538000F90BCF010E9451148AEC91E00E94B61AE9
:1053900088E60E947D1861E182EB93E00E94040D93
:1053A0000E94201862E070E088E690E00E94FD18FC
:1053B00082EB93E00E94B80CF82E82EB93E00E94FF
:1053C000B80C4C016F2D70E080E090E00E94542FEB
:1053D0006B017C01B40186E0759567958A95E1F7CC
:1053E000072E000C880B990B0E94562F20E030E00E
:1053F00040E85EE30E94B52F9B01AC01C701B601F6
:105400000E940E2D40E050E00E94C8158FED0E94D2
:10541000D71A63E080E00E94141A84EC91E00E94A5
:10542000B61A63E08BE00E94141A80EC91E00E94AF
:10543000B61A80912802882311F083E501C087E520
:105440000E94D71A80914A02843009F441CF81E04A
:105450000E945A0680934A0263E086E00E94141A72
:1054600086E00E948317BC01990F880B990B0E945C
:10547000562F20E030E040EA50E40E94B52F20E0B3
:1054800030E040E85AE30E94B52F42E050E00E942D
:10549000C81584E690E00E944A08D4CF40E2602F0D
:1054A00080E00E941205033008F060CE0F5F5ECEF0
:1054B00040E2602F80E00E941205002309F456CEDE
:1054C000015054CE40E2612F80E00E94120513305B
:1054D00048F41F5F07C040E2612F80E00E94120580
:1054E00011111150612F80E00E94141A57CD809144
:1054F000350281110C94482280E090E00E94291727
:105500000C94482240E26A2D80E00E941205F2E0ED
:10551000FA1510F40C944822A3940C94482240E20B
:105520006A2D80E00E9412052B812A1510F00C9440
:105530004822AA940C94482291114AC080913502C5
:10554000811146C080913602882309F441C09091B0
:10555000370281E08927809337020E94210538C0F5
:10556000992349F00E94591A10922F021092350285
:105570000E946C0C2DC080912902882339F0809103
:105580003002811103C00E944F0422C09091350265
:1055900081E08927809335020E94210580913502A0
:1055A000811109C080E090E00E94291785E993E00D
:1055B0000E94131C0AC080912B023CE1839FC00112
:1055C00011240E9429170E94091A82E30E94840371
:1055D00080912F02811102C088E701C080EF0E94F4
:1055E00084030C94BD1F87E00E948317813293408F
:1055F00074F080912F02882351F00E94591A109262
:105600002F02109235020E946C0C0C94EF1F0E9426
:1056100021050C94EF1F81E080931A0280914C02C7
:10562000811102C00E94F81980914B0281115F9A8A
:105630000E946C0C0C949A208F5F0C94A9206CE053
:1056400084E00E94D503182F80912F0281111AE067
:105650000E94671A183088F580913502882361F01E
:1056600080914302882321F080913802811104C087
:1056700085E993E00E94131C153038F585E993E025
:105680000E941B1C22C061E58DE30E94D5030E948D
:10569000F51181E080931B020C94D8210E94091A15
:1056A0000C94F52161E080E00E94120540E263E085
:1056B00080E00E94120562E081C96FE681E50E94E8
:1056C000D5030E94F5110C945821153011F00C945B
:1056D00014210E948F117C0169E671E080E00E9434
:1056E0007A1AFF2401E00E948F11E816F90629F5C5
:1056F00080914A02843009F10093470285E993E0E2
:105700000E941B1C64E181E00E94D503182F112325
:1057100079F064E080E00E94D503D82E64E180E057
:105720000E94D50340E06D2D0E9412051150EFCF6D
:1057300084EF91E00E944A08D6CF109247020C9461
:10574000512180914302882329F0809138028111F0
:105750000C9458210E94091A0C9458216FE681E597
:105760000E94D5030E94F5110C9451211630A1F42A
:1057700018E268E185E993E00E940B1C88EC90E058
:105780000E944A0880914A02843009F411E01150C5
:10579000123078F70C945121173001F769E671E067
:1057A00080E00E947A1A00E010E040E0602F812F34
:1057B0000E94120586E990E00E944A0880914A0200
:1057C000843011F414E104E040E2602F812F0E9444
:1057D00012051F5F143148F30F5F043028F380ED8A
:1057E00097E00E944A080C94512185ED91E0909336
:1057F00077038093760386E793E00C94D40DCF92E1
:10580000DF92EF92FF92CF931092B5031092B40300
:1058100098EEC92E93E0D92EE12CF12CC092B6035C
:10582000D092B703E092B803F092B90385EC91E00F
:105830009093B3038093B20310929803109297034E
:1058400085EF91E090939603809395031092A503C2
:105850008FEF8093A4031092A3031092A60387E214
:105860008093A0031092A1031092A20310929F03B1
:1058700010929E0384E08093A70382E08093A803A4
:10588000C1E0C093A90380E18093AA0380E28093E2
:10589000AB0380E48093AC0380E88093AD0340E0E9
:1058A00050E063E085E993E00E94251B10927903A4
:1058B00010927803C0927A03D0927B03E0927C032B
:1058C000F0927D0385ED91E09093770380937603CA
:1058D00010928D0310928C0310928F0310928E03FE
:1058E00010929103109290031092930310929203DE
:1058F000809194038E7F8D7F809394038695817031
:10590000682F6C2782E00E94A11661E082E00E946D
:10591000ED16E9E0F4E0E491E0938603E5EFF3E0CF
:10592000E491F0E0EE0FFF1FE152FC4F859194915E
:10593000909388038093870360E083E00E94ED16D4
:105940008091940381FD04C061E083E00E94A11670
:1059500083E080938203EAE0F4E0E491E093830340
:10596000E6EFF3E0E491F0E0EE0FFF1FE751FC4FAC
:1059700085919491909385038093840385EE91E0C3
:1059800090937703809376031092B1031092B00343
:105990001092AF031092AE03CF91FF90EF90DF9083
:1059A000CF900C94180F991B79E004C0991F96179B
:1059B00008F0961B881F7A95C9F78095089597FB84
:1059C000072E16F4009407D077FD09D00E94F92C19
:1059D00007FC05D03EF4909581959F4F08957095F2
:1059E00061957F4F0895EE0FFF1F0590F491E02D14
:1059F0000994AA1BBB1B51E107C0AA1FBB1FA61716
:105A0000B70710F0A61BB70B881F991F5A95A9F767
:105A100080959095BC01CD0108955058BB27AA27C9
:105A20000E94252D0C9439300E942B3038F00E94B2
:105A3000323020F039F49F3F19F426F40C942830CA
:105A40000EF4E095E7FB0C942230E92F0E944A30D7
:105A500058F3BA17620773078407950720F079F4A3
:105A6000A6F50C946C300EF4E0950B2EBA2FA02DF9
:105A70000B01B90190010C01CA01A0011124FF27FB
:105A8000591B99F0593F50F4503E68F11A16F040F6
:105A9000A22F232F342F4427585FF3CF46953795F5
:105AA0002795A795F0405395C9F77EF41F16BA0BBA
:105AB000620B730B840BBAF09150A1F0FF0FBB1F68
:105AC000661F771F881FC2F70EC0BA0F621F731FB1
:105AD000841F48F4879577956795B795F7959E3F0E
