:100000000C9492020C94BA020C94BA020C947810DC
:100010000C9478100C9478100C94B3220C94BA02BF
:100020000C94BA020C94BA020C94BA020C94971471
:100030000C94BA020C94BA020C94BA020C94BA0250
:100040000C94D4080C94BA020C94BA020C94BA0220
:100050000C94BA020C94BA020C94BA020C94BA0230
:100060000C9408110C94BA02B92CBC2CBE2CC02CD8
:10007000C22CC42CC72CCA2CCD2CD02CD32CF42CA5
:10008000012D122D1E2D292D352D4B2D5C2D612D71
:10009000732DDA03E303F70311041D0429043B0461
:1000A000470450046A047F049104AB042F0A320A07
:1000B000350A380A3B0A3E0A410A880E8F0E9A0E0C
:1000C000AD0EB00EBB0EC40EC90EE90EEE0E0E0F35
:1000D000170F161719171C171E172017221724178A
:1000E00027172A172D174A175117581766177B1706
:1000F00089179717A517B917C717426972746864EB
:100100006179004861707079004963682062696EA6
:100110002068696572210047657363686963687464
:10012000656E2068004155582D45696E67616E67A0
:1001300000456967656E6573206800526164696F88
:100140002068005B205D204D5033005B205D205215
:100150006164696F005B205D205765636B746F6E2F
:100160000020205B6175735D0020205B616E205D67
:10017000004D503300526164696F00546F6E005738
:1001800065636B746F6E202020205B202020202070
:100190005D004E657565205765636B7A656974000F
:1001A00061757300616E20002E3230004E6163680D
:1001B000746D6F647573205B2020205D004E657543
:1001C00065205568727A6569742F446174756D0095
:1001D0005A3A2000416B6B753A0020543A20005285
:1001E000414D3A2020004932433A20002D31393028
:1001F000343137004669726D776172653A2000626A
:1002000079204E696B6F6C6169205261646B650087
:10021000446965736572204E4F4B4F2067656820B7
:100220007274004D65696E204E4F4B4F00446973E8
:1002300074616E7A6C696368742020205B205D00B5
:100240005374756D6D202020202020202020205BFD
:10025000205D00416B6B752073706172656E2020AC
:1002600020205B205D007765697465722E2E2E005C
:1002700044697374616E7A202B2F2D205B205D0002
:100280004576656E747320202B2F2D205B205D003A
:100290004C454420202020202B2F2D205B205D006A
:1002A0004E4F4B4F207374656C6C656E007A6569B8
:1002B00074207374656C6C656E00416C61726D20A6
:1002C0007374656C6C656E00537069656C20776142
:1002D0007320766F72004E61736520647220636BC9
:1002E000656E00206175662056002055706461744B
:1002F00065206572666F6C677265696368000000EF
:100300000000240027002A0000000008000201006D
:10031000000304070000000000000000476562754C
:10032000727473746167210053616D737461670047
:100330004672656974616700446F6E6E2E74616702
:10034000004D697474776F6368004469656E7374F7
:100350006167004D6F6E74616700536F6E6E7461FC
:10036000670053746174696F6E2000676564722062
:10037000636B742068616C74656E20200052445376
:10038000204265656E64656E3A204C696E6B730041
:100390005B317C735D205B327C735D205B337C73EF
:1003A0005D20005D5B3C5D5B205D5B205D5B3E5DD9
:1003B0005B005041555345004B65696E65204D50BB
:1003C000337320676566756E64656E004765736399
:1003D000686963687465005B3C5D5B205D5B205D04
:1003E0005B3E5D00205765636B746F6E202B2F2D75
:1003F000205B205D0061757300616E20006269738F
:1004000000766F6E005B2020205D2044696D6D6575
:100410006E205B205D004E616368746D6F64757360
:10042000207374656C6C656E00070F1F1F1F1F1F04
:100430001F1F1F1F00000000001C1E1F1F1F1F1F6B
:100440001F1F1F1F1F1F1F0F0700000000001F1F7F
:100450001F1F1F1F1F1F1F1E1C1F1F1F0000001F0D
:100460001F1F1F1F1F1F1F1F1F080C0E0F0E0C0822
:100470000000000E0E0E0E0000000A0A0A0A0A0012
:100480000000050A140A05000000140A050A1400F9
:1004900000000A0E151F0E0A000004041F0E0A11A8
:1004A0000001030509090B1B18000E1517110E009A
:1004B00000040E0E0E1F000400000000002500289E
:1004C000002B000000000023002600290004040483
:1004D00004040404040202020202020303030303ED
:1004E00003010204081020408001020408102001CA
:1004F000020408102020416C61726D20004E61736F
:100500006520647220636B656E002055687200720E
:10051000656E0073706569636865726E2E2E2E00BD
:100520001E32143211241FBECFEFD8E0DEBFCDBF84
:1005300011E0A0E0B1E0E0ECFEE602C005900D9213
:10054000AA37B107D9F723E0AAE7B1E001C01D92AD
:10055000AE34B207E1F712E0C1E9D2E004C021975E
:10056000FE010E944137C039D107C9F70E9411240A
:100570000C9453370C940000CF92DF92EF92FF92CD
:100580000F931F93CF93DF936C017A018B01C0E02F
:10059000D0E0CE15DF0589F0D8016D918D01D6012F
:1005A000ED91FC910190F081E02DC6010995892B18
:1005B00011F47E0102C02196ECCFC701DF91CF91EB
:1005C0001F910F91FF90EF90DF90CF9008952091B1
:1005D000C9013091CA012817390771F49091C801F7
:1005E0008091C701981741F0E091C801F0E0E95708
:1005F000FE4F808190E008958FEF9FEF089508955A
:100600001F93CF93DF93DC015C962D913C915D9716
:100610002115310539F481E090E013969C938E9377
:1006200012973DC05196ED91FC91529750969C9136
:100630005097892F80951FB75E964C915E9741FB2E
:10064000772770F941FD6095F8944081772311F088
:10065000492B01C048234083E9012197F1F748E085
:10066000508160FF02C0592B01C058235083E9011B
:100670002197F1F76695415099F7772321F0908102
:100680008923808303C08081982B90831FBF5C9651
:100690008D919C915D970197F1F721E030E0C901C0
:1006A000DF91CF911F9108952091C9013091CA0126
:1006B0002817390771F48091C7012091C80190E093
:1006C000805C9F4F821B910960E470E00E942D378F
:1006D000089580E090E008952091C9013091CA0109
:1006E00028173907B9F49091C8018091C70198176C
:1006F00089F0E091C801F0E0E957FE4F8081209138
:10070000C80130E02F5F3F4F2F7333272093C8017C
:1007100090E008958FEF9FEF08950E944737CF92A2
:10072000DF92EF92FF92CF93DF936C01990FEE0867
:10073000FF08F7FE17C08DE20E94001EEC0166273D
:100740007727CB016C197D098E099F094AE00E9429
:100750000B1E8C0F9D1FDF91CF91FF90EF90DF90CC
:10076000CF9008954AE0C701B601DF91CF91FF9085
:10077000EF90DF90CF900C940B1ECF93C62F8093F9
:10078000D5011092D40143E060E00E94331F6091D4
:10079000D4016F5F43E08091D5010E94331F8C2FFD
:1007A00090E08D30910508F0ECC0FC01E75BFF4F55
:1007B0000C94413740E06091D4018091D5010E94B2
:1007C000401F81E075C041E06091D4018091D50166
:1007D0000E94401F82E00E94001E6091D4016F5F62
:1007E00044E08091D5010E94401F87E016C046E09A
:1007F0006091D4018091D5010E94401F86E00E9443
:10080000001E82E00E94001E6091D4016F5F43E0F1
:100810008091D5010E94401F84E00E94001E84E068
:10082000ADC046E06091D4018091D5010E94401F87
:1008300086E00E94001E82E017C043E06091D40170
:100840008091D5010E94401F84E00E94001E87E035
:100850004CC043E06091D4018091D5010E94401FBB
:1008600086E00E94001E86E00E94001E6091D40176
:100870006F5F44E026C040E06091D4018091D501D3
:100880000E94401F86E00E94001E86E014C041E0E6
:100890006091D4018091D5010E94401F81E022C067
:1008A00040E06091D4018091D5010E94401F86E014
:1008B0000E94001E82E00E94001E6091D4016F5FC2
:1008C00043E08091D5010E94401F84E00E94001EF9
:1008D00085E054C040E06091D4018091D5010E9430
:1008E000401F86E00E94001E82E00E94001E609170
:1008F000D4016F5F8091D50147E08E5F0FC080917A
:10090000D50144E06091D4018F5F0E94401F609147
:10091000D4016F5F8091D50144E08F5FCF910C943B
:10092000401F40E06091D4018091D5010E94401F9A
:1009300082E00E94001E80E00E94001E6091D401AF
:100940006F5F47E08091D5010E94401F83E00E94C5
:10095000001E87E013C047E06091D4018091D5016B
:100960000E94401F80E00E94001E6091D4016F5FD2
:1009700047E08091D5010E94401F83E0CF910C9405
:10098000001ECF910895AB01672B59F4E091FB0253
:10099000F091FC020190F081E02D682F8BEF92E046
:1009A0000994682F70E080E090E00C940B1E1F9378
:1009B000CF93DF9380E10E94911BCBE1D3E01881BC
:1009C0006981229687E393E00E942210612F87E3DA
:1009D00093E00E94221083E0C732D80781F70E947B
:1009E000341B91E0811190E0892FDF91CF911F910D
:1009F00008950F931F93CF93DF9360E270E080E13F
:100A000090E00E94111C8091DA0290E02091DB02BC
:100A1000821B910980329105ECF3CAE0D0E087E3B4
:100A200093E00E94D60F8E01000F111F0C5E1C4F29
:100A3000F8011382848387E393E00E94D60FF801C4
:100A400023813481822B932B94838383C930D105F6
:100A500039F02196C031D10511F7C0E0D0E0DFCFE9
:100A6000DF91CF911F910F9108950E94F904E4E165
:100A7000F3E0878190858064908787830C94D70406
:100A80004F925F926F927F928F929F92AF92BF929E
:100A9000CF92DF92EF92FF926B017C01B42E9B010B
:100AA000AC010E940837882319F06EE671E027C078
:100AB00026013701E89477F82FEF3FEF4FE75FE724
:100AC000C301B2010E94083781110DC02FEF3FEF23
:100AD0004FE75FE7C301B2010E94113418161CF4FE
:100AE00062E771E00CC02FEF3FEF4FE75FE4C70113
:100AF000B6010E940337181694F466E771E08BEF95
:100B000092E0FF90EF90DF90CF90BF90AF909F90DA
:100B10008F907F906F905F904F900C94D4222FEF26
:100B20003FEF4FE75FECC701B6010E94113487FD2C
:100B3000E4CF20E030E0A901C701B6010E941134E2
:100B400087FF09C08DE20E94001E4C01F7FAF09465
:100B5000F7F8F09402C0812C912CA12C60E070E099
:100B600080E09FE3AB1441F020E030E040E251E44C
:100B70000E946236A394F6CF9B01AC01C701B60177
:100B80000E94F6352B013C010E94D4366B017C019A
:100B90000E9416349B01AC01C301B2010E94F535DD
:100BA0002B013C014AE0C701B6010E940B1E7C01EB
:100BB000E80CF91CBB2029F08EE20E94001EE80E12
:100BC000F91EDB2CDD2021F120E030E040E251E491
:100BD000C301B2010E9477342B013C010E94D4363C
:100BE0004B01A12CB12C4AE0C501B4010E940B1E9F
:100BF000E80EF91EC501B4010E9416349B01AC0138
:100C0000C301B2010E94F5352B013C01DA94DACF21
:100C1000C701FF90EF90DF90CF90BF90AF909F9073
:100C20008F907F906F905F904F9008950F931F93D8
:100C3000CF93DF931F92CDB7DEB789830E94F9046B
:100C400020911B0330911C03A9015B7F89818111D5
:100C500006C0397F30931C0320931B0306C0CA01D2
:100C6000926090931C0380931B0380911B039091CF
:100C70001C03916090931C0380931B030E94D70474
:100C80000E94F90480912B0390912C0396FFF8CFDA
:100C90000E94F90400912B0310912C03002710727D
:100CA00080911B0390911C039E7F90931C03809363
:100CB0001B030E94D7040E94F90420912B0330915A
:100CC0002C03C9018827907436FDF5CF012B49F418
:100CD0000E94F90480912D0390912E039370855901
:100CE0009C4F0F90DF91CF911F910F9108951F930B
:100CF000CF93DF931F92CDB7DEB7182F87E5998387
:100D00000E94911B9981692F87E393E00E94221032
:100D1000612F87E393E00E9422100E94341B61E060
:100D200070E087E590E00E94111C9091DA028091BA
:100D3000DB02981729F087E393E00E94D60F01C0E9
:100D40008FEF0F90DF91CF911F91089590E0FC01FC
:100D5000E85FFC4F3491FC01EF51FB4F2491FC0103
:100D6000E353FB4FE491EE2309F43BC0332339F105
:100D7000333091F038F43130A9F0323001F584B5D8
:100D80008F7D12C0373091F03830A1F03430B9F493
:100D9000809180008F7D03C0809180008F77809349
:100DA00080000DC084B58F7784BD09C08091B000EC
:100DB0008F7703C08091B0008F7D8093B000F0E00A
:100DC000EE0FFF1FE754FB4FA591B4918FB7F89436
:100DD000EC91611103C020952E2301C02E2B2C9382
:100DE0008FBF0895CF93DF9390E0FC01EF51FB4F4D
:100DF0002491FC01E353FB4F8491882361F190E03F
:100E0000880F991FFC01E250FD4FC591D491FC0160
:100E1000E754FB4FA591B491611109C09FB7F894B5
:100E20008881209582238883EC912E230BC0623029
:100E300061F49FB7F8943881822F8095832388834B
:100E4000EC912E2B2C939FBF06C08FB7F894E881AE
:100E50002E2B28838FBFDF91CF910895CF93DF93FF
:100E6000EC0161E08AE00E94F206209711F460E054
:100E700004C0CF3FD10531F461E08AE0DF91CF912A
:100E80000C94A606E2E1F3E0E491E330F9F048F4D3
:100E9000E130B9F0E230A1F584B5806284BDC8BD0F
:100EA00034C0E730E9F0E83019F1E43049F58091D9
:100EB0008000806280938000D0938B00C0938A0072
:100EC00024C084B5806884BDC7BD1FC080918000E8
:100ED000806880938000D0938900C093880015C0FB
:100EE0008091B00080688093B000C093B3000DC0C3
:100EF0008091B00080628093B000C093B40005C0C0
:100F0000C038D1050CF0B8CFB2CFDF91CF910895A2
:100F1000CF93DF93C4E1D3E061E088810E94F206C1
:100F200061E089810E94F20660E089810E94A60644
:100F300060E088810E94A60681E090E00E94DB1DAF
:100F400061E088810E94A60681E090E00E94DB1D9E
:100F50000E940E1B0E94F90480E091E89A8B898B15
:100F60000E94D70484EF91E00E94DB1D0E94F904E7
:100F700081E090EC98878F838B859C8598619C8716
:100F80008B878D859E858F619E878D870E94D70474
:100F90008EE690E0DF91CF910C94DB1D8E3008F04F
:100FA0008E508770806480937C0080917A0080648A
:100FB00080937A0080917A0086FDFCCF8091780042
:100FC0002091790090E0922B08952FB7F8946091CA
:100FD000D0017091D1018091D2019091D3012FBFA6
:100FE00008958F929F92AF92BF92EF92FF920F93CC
:100FF0001F93CF93DF937C010E94E5074B015C01B7
:1010000024EF820E21E0921EA11CB11CC0E0D0E0B2
:1010100000E010E00E94E507681579058A059B0548
:1010200098F02196CC0FDD1FCC0FDD1FCE0DDF1DFC
:101030001882DF91CF911F910F91FF90EF90BF9099
:10104000AF909F908F9008950830110554F70E943B
:10105000F90480912B0390912C0397FF27C0E09116
:101060003103F0913203CF018827987F8115904298
:10107000D1F4EF70FF27EC17FD071CF00F5F1F4F37
:10108000EF018091330390913403EE0FFF1FEE0FB9
:10109000FF1FEE0DFF1D908381838091350390919A
:1010A00036039283838388E290E002C08EE190E071
:1010B0000E94DB1DAFCF8F929F92AF92BF92DF92C3
:1010C000EF92FF920F931F93CF93DF9300D000D046
:1010D000CDB7DEB77C010E94E5074B015C0128EE2D
:1010E000820E23E0921EA11CB11C19821A821B825F
:1010F0001C8200E010E0DD24D3940E94E50768150F
:1011000079058A059B05F8F40E94F90480912B0368
:1011100090912C0397FF35C0809131039091320359
:10112000FC01E370FF27A1E0B0E0AC0FBD1FAE0FE4
:10113000BF1F2C912223A1F088E290E00E94DB1DCA
:1011400004301105D0F20E94E507681579058A057B
:101150009B0518F0F701108217C0F701108614C024
:10116000843F914048F7DC920F5F1F4F8091350319
:1011700090913603EE0FFF1FEE0DFF1D90838183CC
:10118000DBCF8EE190E0DACF0F900F900F900F90B1
:10119000DF91CF911F910F91FF90EF90DF90BF9063
:1011A000AF909F908F9008951F920F920FB60F925D
:1011B00011242F933F938F939F93AF93BF9380916D
:1011C000D0019091D101A091D201B091D301309181
:1011D000CF0123E0230F2D3720F40196A11DB11D6F
:1011E00005C026E8230F0296A11DB11D2093CF0153
:1011F0008093D0019093D101A093D201B093D301F9
:101200008091CB019091CC01A091CD01B091CE0104
:101210000196A11DB11D8093CB019093CC01A093A9
:10122000CD01B093CE01BF91AF919F918F913F912E
:101230002F910F900FBE0F901F90189583FD02C045
:1012400098E001C098E28770892B98E10FB6F89476
:10125000A895909360000FBE80936000A895809140
:1012600060008064809360008091DB01882319F026
:1012700083B7817F0BC08091D601882321F083B78B
:10128000817F846003C083B7817F8C6083BF83B715
:10129000816083BF85B7806685BF8F7D85BF809164
:1012A0006400816080936400889583B78E7F83BFDC
:1012B0000FB6F894A89580916000886180936000D3
:1012C000109260000FBE809160008F7B8093600061
:1012D000809164008E7F809364000895CF93C82F1F
:1012E00061E081E00E94251D82E693E00E94BA1D24
:1012F0006AE070E08C2F0E94C3048AE30E94001E03
:1013000080E20E94001EEC2FF0E0EE0FFF1FEE5176
:10131000FE4F6081718180E090E00E94163420E0F1
:1013200030E040E251E40E94623642E0CF910C94FA
:101330004005CF93809168028823E9F1809166028D
:101340009091640220918B02981730F4C1E08217CB
:1013500068F0291758F009C0891738F4C0E08217DF
:1013600028F4291718F4C1E001C0C0E0891310C0A7
:101370005091650230916302351738F040918A022E
:10138000451718F0341708F0C1E0381708F4C1E029
:10139000281307C030918A0280916502381708F03F
:1013A000C1E0291309C090918A02809163029817C5
:1013B00018F4C1E001C0C0E08091E301C81749F012
:1013C000CC2311F087E401C086E60E940515C09386
:1013D000E3018C2FCF910895CF93DF930E948F1458
:1013E000C9E8D2E089830E9412130E949C13809165
:1013F000FD018A83DF91CF9108950E9412130E940C
:101400009C138091010290E08E54984F9093E201DA
:101410008093E1010E9412130E949C138091FF01AE
:1014200080938D020E9412130E949C1380910002EF
:1014300080938E0263E080E00E94251D0E941213BB
:101440000E949C13E091FE018E2F90E0FC013197E9
:10145000E730F105D0F4EA5AFF4F0C9441378AE5A2
:1014600093E011C083E593E00EC08AE493E00BC0E3
:1014700081E493E008C088E393E005C080E393E053
:1014800002C088E293E00E94BA1D63E08AE00E94F5
:10149000251D80918D028A3010F40E94FF1E6AE0A3
:1014A00070E080918D020E94C3048EE20E94001EB3
:1014B00080918E028A3010F40E94FF1E6AE070E074
:1014C00080918E020E94C3048EE20E94001E8091D1
:1014D000E1019091E2010E948F038091DF019091E0
:1014E000E0010A9724F460E082E10C94251D089540
:1014F00080918E029DEF980F983008F06DC09CEFA0
:10150000980F963008F466C0833089F520918D02DB
:101510004091E1015091E20135E0349FC001359FD7
:10152000900D112497FD0396959587959595879530
:10153000049667E070E00E942D374FE150E0BA0159
:10154000681B790B38E1369FA001379F500D11249D
:101550004F5F5F4F80918B0278E1279F90011124AC
:10156000280F311D81E042175307BCF135C08A3086
:1015700099F520918D024091E1015091E20135E011
:10158000349FC001359F900D112497FD03969595CA
:10159000879595958795019667E070E00E942D37B5
:1015A0004FE150E0BA01681B790B38E1369FA0018A
:1015B000379F500D11244F5F5F4F80918B0278E170
:1015C000279F90011124280F311D81E042175307F6
:1015D00024F402C081E0089580E00895EF92FF9224
:1015E0000F931F93CF93DF9388E60E94911B60E0D7
:1015F00087E393E00E9422100E94341B67E070E0B2
:1016000088E690E00E94111C87E393E00E94D60FC9
:10161000C9E8D2E0982F9695969596959E70292FB9
:10162000220F220F920F8F70890F888387E393E038
:101630000E94D60F982F92959F708F702AE0929FEC
:10164000800D1124898387E393E00E94D60F982FA1
:101650009695969596959670292F220F220F920FA8
:101660008F70890F8A8387E393E00E94D60F982FAB
:1016700092959F708F702AE0929F800D11248B832A
:1016800087E393E00E94D60F982F92959F708F70FA
:101690002AE0929F800D11248C8387E393E00E94BF
:1016A000D60F982F92959F708F702AE0929F800D91
:1016B00011248D8387E393E00E94D60F982F9F70AB
:1016C000925E82958F70E92E2AE0829FE00C1124B1
:1016D000EE82F12C8EE4E81A88EFF80A0D8110E012
:1016E0002C8130E0488150E0698170E08A8190E08F
:1016F0000E943612DF91CF911F910F91FF90EF90D2
:101700000895CF93C82F8091DB01882329F0809121
:101710006400806280936400C7FF04C083E00E947D
:101720001E09C857C03420F082E00E941E09CC5325
:10173000C03220F081E00E941E09CE51C03118F065
:1017400080E00E941E098091DB01882321F08091B6
:10175000640010926400CF910895CF930E94EC0929
:101760000E9499098093DE0180918B028A3010F4E7
:1017700060E004C06AE00E940D37682F81E00E949B
:10178000BD0380918B02CAE06C2F0E940D37692F38
:1017900084E00E94BD036AE087E00E94BD0380915F
:1017A0008A028A3010F460E004C06C2F0E940D376A
:1017B000682F8AE00E94BD0380918A026AE00E943D
:1017C0000D37692F8DE00E94BD0343E061E081E1A8
:1017D0000E94331F61E081E10E94251D8091DD019F
:1017E000811104C08091DC01811103C088E70E944F
:1017F000001E8091DB01882319F084E40E94001E02
:1018000080916802882349F08091DE01882311F0DD
:101810008EE401C08EE60E94001E8091DA018823CA
:1018200041F062E083E00E94251D8CE193E00E947C
:10183000BA1D43E062E081E10E94331F62E081E172
:101840000E94251D8091D901882319F084EF0E9400
:10185000001E80915F02882319F080E70E94001E1D
:101860008091D801882319F083E50E94001E8091A1
:10187000EF01811108C08091EE01811104C08091B7
:10188000ED01882319F080E50E94001E86E00E9489
:10189000CE079093E0018093DF01C4E08AE00E94CC
:1018A000810B86E00E94CE072091DF013091E0019C
:1018B000820F931F9093E0018093DF01C15071F775
:1018C00065E070E00E942D37072E000C880B990B05
:1018D0000E94183420E030E040EA5BE30E94773455
:1018E00026E636E646E350E40E94F53526EF3DEF66
:1018F00044E55CE30E9462360E94D4361616170651
:1019000034F4643671052CF063E670E002C061E0E7
:1019100070E0CB01072E000CAA0BBB0B9C01AD01A4
:101920006A337105A4F02953310941095109ABE526
:10193000B0E00E949C352AE230E040E050E00E9496
:101940007D35DA01C9010896A11DB11D13C02150D2
:10195000310941095109A7E0B0E00E949C3527E315
:1019600030E040E050E00E947D35DA01C901019687
:10197000A11DB11D9093E0018093DF0160E081E142
:101980000E94251D8091DF019091E0010A9744F4A7
:1019900040E260E081E10E94401F0E94811D02C080
:1019A0000E94781D8091DF019091E0010E948F03D9
:1019B0008091D701882311F08BE201C085E20E945B
:1019C000001E60E082E1CF910C94251D8BEF92E028
:1019D0000E94F9220E94D61E0E94FD090C94AD0BB4
:1019E000CF92DF92EF92FF921F93CF93DF93C82F96
:1019F000D62F0E94E5076B017C0120E6C20E2AEE7D
:101A0000D21EE11CF11C1092EA0114E09091EA014F
:101A1000911115C08C2F0E944F1F8093EA01D111A4
:101A200004C088E70E94810BF1CF0E94E507C6162B
:101A3000D706E806F90650F71093EA01E7CF82E3EC
:101A4000DF91CF911F91FF90EF90DF90CF900C949A
:101A5000810B5F926F927F928F929F92AF92BF9213
:101A6000CF92DF92EF92FF920F931F93CF93DF936A
:101A7000CDB7DEB7CA54D1090FB6F894DEBF0FBE9A
:101A8000CDBF61E774E081E00E948B1D61E874E0E6
:101A900082E00E948B1D69E874E083E00E948B1D48
:101AA00069E674E084E00E948B1D81EA94E00E9464
:101AB000021F8091ED01882329F0CE018F5B9F4F9B
:101AC0000E945B0802E010E0D12C512CAE014F5F68
:101AD0005F4F5A0190E4C92EC40E2AE0E22EF12C89
:101AE0008091EA01843009F4E2C14BE562E081E0D3
:101AF0000E94401F82E00E94001E83EA93E00E9441
:101B0000BA1D83E00E94001E8DE50E94001E63E066
:101B100081E00E94251D80E993E00E94BA1D43E107
:101B200061E081E00E94331F0E94811D8091ED01E0
:101B3000811102C044E001C041E062E088E00E94FF
:101B4000401F8091ED01811102C040E201C042E5D9
:101B500062E08BE00E94401F60E082E00E94251D51
:101B60006091EB017091EC0180E090E00E941634EE
:101B700020E030E040E251E40E94623642E00E9400
:101B8000400580E20E94001EDD2069F05E980E9400
:101B90004E154AE060E089E00E94331FCE018F5B62
:101BA0009F4F0E945B0860E089E00E94251D8091A4
:101BB000ED01882339F0BE016F5B7F4F8BEF92E020
:101BC0000E94D4220830B1F038F4063069F00730B2
:101BD00001F563E084E022C00A30A9F088F00B3000
:101BE000C1F463E080E11AC081E00E946E0963E005
:101BF00082E014C082E00E946E0963E088E00EC0BB
:101C000063E08AE00BC083E00E946E0963E08EE02F
:101C100005C0802F880F800F62E08E5F0E94251D17
:101C2000112309F45BC01092EA01F50180E281936F
:101C3000CE12FDCF0E94781D44E162E080E00E9458
:101C4000331F62E081E00E94251D8DE793E00E9432
:101C5000BA1D63E081E00E94251D8BE693E00E949F
:101C6000BA1D45EF63E085E00E94401F8091EA01C4
:101C70008330C0F5C5010E94F107350184E0D82EFC
:101C800013E061E082E00E94251D812C912CF3017C
:101C9000E80DF91D808180310CF480E20E94001E65
:101CA0005FEF851A950A80E18816910481F7C501D6
:101CB0000E94F10762E08BE00E94251D80E00E94F7
:101CC0004F1F8093EA01833088F61150D1F6DA94E1
:101CD00090E1690E711CD110D3CFC8CF61E080E0D4
:101CE0000E94F00C8091EA01823009F4C9C083306F
:101CF00009F4D1C0813009F0D7C0802F90E08C303A
:101D0000910508F0B7C0FC01E35AFF4F0C9441372E
:101D10008091ED01882309F4ADC080E032C080914C
:101D2000EB019091EC018B3623E0920708F4A2C0FE
:101D3000019778C08091ED01882319F00E94491520
:101D400099C080915F02811102C04C99EAC00E9443
:101D5000451581E08093ED018DC01091ED018BC0A0
:101D60008091EB019091EC01883344E0940708F0F6
:101D700081C0019657C08091ED01882309F47AC093
:101D800081E00E9416064EC08091E4019091E50129
:101D900049C08091EB019091EC019093E501809313
:101DA000E401B7010E941937682F86E10E94EC1404
:101DB0002091E4013091E501C901B7010E94193772
:101DC000A901481B590BCA01B7010E94193785E1C7
:101DD0004DC08091E6019091E70124C08091EB0114
:101DE0009091EC019093E7018093E601B7010E9486
:101DF0001937682F88E10E94EC142091E601309198
:101E0000E701C901B7010E941937A901481B590B05
:101E1000CA01B7010E94193787E128C08091E80103
:101E20009091E9019093EC018093EB0123C08091A4
:101E3000EB019091EC019093E9018093E801B701E7
:101E40000E941937682F8AE10E94EC142091E80162
:101E50003091E901C901B7010E941937A901481B56
:101E6000590BCA01B7010E94193789E10E94EC148D
:101E70000E94E91E10E0D090ED015524539430CE1D
:101E80000B3008F40F5F8091ED0181110DC003301C
:101E900059F404E009C0011101508091ED01811154
:101EA00003C0033009F402E010E0D12C19CE552014
:101EB000F9F08091EB019091EC010AE010E0B8019B
:101EC0000E941937682F82E10E94EC142091EB01E7
:101ED0003091EC01C901B8010E941937A901481BD2
:101EE000590BCA01B8010E94193781E10E94EC1414
:101EF0000E94D61EC65BDF4F0FB6F894DEBF0FBE42
:101F0000CDBFDF91CF911F910F91FF90EF90DF90A8
:101F1000CF90BF90AF909F908F907F906F905F9089
:101F200008950E94361513CF85ED8093BC008091F3
:101F3000BC0084FDFCCF1092D70208954091380276
:101F4000262F30E0240F311D21323105DCF42091A1
:101F5000D7022430C9F4FC0180E090E0861758F4E1
:101F6000309138022191DC01AA5EBD4FA30FB11D53
:101F70002C930196F3CF80913802680F609338025A
:101F800080E0089581E0089582E008950895E09149
:101F9000DB028091DA02E81730F4F0E0E759FD4FF8
:101FA000808190E008958FEF9FEF08959091DB027C
:101FB0008091DA02981750F4E92FF0E0E759FD4FCD
:101FC000208130E09F5F9093DB0202C02FEF3FEF54
:101FD000C90108958091DA0290E02091DB02821B12
:101FE00091090895CF92DF92EF92FF920F931F9382
:101FF000CF93DF937C01262F972F8A018091B40223
:10200000882391F0C62FD72F6E01C40ED51ECC1594
:10201000DD0571F06991D701ED91FC910190F0819E
:10202000E02DC7010995F3CF642F822F0E949E0FE8
:10203000C801DF91CF911F910F91FF90EF90DF903A
:10204000CF900895CF93DF931F92CDB7DEB769830A
:102050002091B4022223D1F02091D802203240F006
:1020600021E030E0FC013383228380E090E015C062
:102070008091D902E82FF0E0EB54FD4F99819083D5
:102080008F5F8093D9028093D80205C061E0CE01B2
:1020900001960E949E0F81E090E00F90DF91CF911A
:1020A0000895609312027093130280931402909328
:1020B0001502DC01CB01845D9E4FAF4FBF4F809373
:1020C0000E0290930F02A0931002B093110282E0CF
:1020D00090E090930D0280930C020E94E5076093BC
:1020E00008027093090280930A0290930B020895EC
:1020F0001F920F920FB60F9211242F933F934F937D
:102100005F936F937F938F939F93AF93BF93EF935F
:10211000FF93E091C901F091CA01309709F451C0D1
:10212000968DA685B785858591FF04C09C918923EE
:1021300029F447C09C91892309F043C0A389B4893D
:102140009C918589809589238C93868997890197AD
:10215000F1F7608D718DA685B785558538E020E053
:10216000CB010197F1F7822F90E095958795282F65
:102170004C91452309F02068315091F7868D81FDFF
:1021800020958091C70190E001968F739927309137
:10219000C801381749F0A091C701B0E0A957BE4F58
:1021A0002C938093C70103C0868D8160868F828DBA
:1021B000938D0197F1F7A389B4899C918589892B27
:1021C0008C93FF91EF91BF91AF919F918F917F91F0
:1021D0006F915F914F913F912F910F900FBE0F9094
:1021E0001F901895E091C901F091CA01E817F9070D
:1021F00069F4A389B4899C918589809589238C93FE
:102200001092CA011092C90181E0089580E00895FA
:102210001F920F920FB60F9211242F933F934F935B
:102220005F936F937F938F939F93AF93BF93EF933E
:10223000FF938091B900887F803609F49CC068F5CF
:10224000883209F45BC090F4803109F454C038F44A
:10225000882309F4F6C0883009F44DC0F6C08831EF
:1022600009F44CC0803209F45DC0EFC0803409F439
:1022700068C048F4803309F455C0883309F0E5C0DC
:102280008093B302D8C0803509F44FC0883509F473
:102290005DC0883409F0D9C0D6C0883909F4C7C0F8
:1022A000A8F4883709F467C038F4883609F463C0A5
:1022B000803709F460C0C9C0883809F4B8C08039D3
:1022C00009F45FC0803809F0C0C05BC0803B09F4EE
:1022D00086C038F4803A09F466C0883A09F47FC0B1
:1022E000B4C0803C09F4A7C0883C09F4A4C0883B72
:1022F00009F48AC0AAC08091900210C09091B202E5
:102300008091B102981770F5E091B20281E08E0FD2
:102310008093B202F0E0EF56FD4F80818093BB00C6
:1023200085EC86C08093B3028EC0E091B20281E05A
:102330008E0F8093B2028091BB00F0E0EF56FD4F0C
:1023400080839091B2028091B1026EC0E091B2029E
:1023500081E08E0F8093B2028091BB00F0E0EF56D7
:10236000FD4F80838091D60281116DC081E0809302
:10237000D50284EA61C083E08093D70210925C02A8
:10238000CFCF80915C02803208F051C0E0915C02B6
:1023900081E08E0F80935C028091BB00F0E0E45CF2
:1023A000FD4F8083BDCF85EC8093BC001092D70297
:1023B00080915C02803230F4E0915C02F0E0E45CF9
:1023C000FD4F108260915C0270E0E0913A02F09162
:1023D0003B028CE392E0099510925C0236C084E0E7
:1023E0008093D7021092390210923802E09136029F
:1023F000F0913702099580913802811105C081E082
:102400008093380210921602E091390281E08E0F1B
:1024100080933902F0E0EA5EFD4F80818093BB003B
:102420009091390280913802981708F479CF85E8A5
:102430008093BC000AC085EC8093BC001092D70248
:1024400004C01092B3020E94940FFF91EF91BF91CC
:10245000AF919F918F917F916F915F914F913F913C
:102460002F910F900FBE0F901F9018953F924F9293
:102470005F926F927F928F929F92AF92BF92CF9214
:10248000DF92EF92FF920F931F93CF93DF93382E3B
:10249000962E842EF90184E6E816F1042CF082EBE6
:1024A000E81A87E0F80A03C08EE1E80EF11CE0921A
:1024B000010200930002E093FF013092FD0190922F
:1024C000FC018092FB01AE2DB0E020E833E341EE49
:1024D00051E00E949C352B013C0122EB37E0FF24A8
:1024E00084E6C82ED12CC0E9D1E0C901825B9740B7
:1024F0008E159F05DCF4C90183709927892B99F407
:10250000C901B6010E942D37892B31F4C901BE01E2
:102510000E942D37892B39F480E8480E81E5581E3A
:1025200081E0681E711C2F5F3F4FDFCF8EE4E81AF9
:1025300088EFF80AC70164E670E00E942D376C014D
:10254000C70160E971E00E942D375C01C1E0D0E075
:10255000112783E0E822FF24C017D1072CF5C230F1
:10256000D10589F4E114F10471F4C114D10419F412
:10257000A114B10441F480E8480E8BE3581E86E2B2
:10258000681E711C0FC0DE01A55FBE4FAC91B0E0AC
:1025900020E831E541E050E00E949C35460E571E90
:1025A000681E791E2196D8CF292D30E0ACE3B0E02B
:1025B0000E94E6356B017C01C80CD11CE11CF11CAA
:1025C000232D30E0A0E1BEE00E94E635C60ED71E06
:1025D000E81EF91EDF01BB27119720E831E541E035
:1025E00050E00E94A735DC01CB018C0D9D1DAE1D76
:1025F000BF1DBC01CD01640D751D861D971DDF91AA
:10260000CF911F910F91FF90EF90DF90CF90BF90EF
:10261000AF909F908F907F906F905F904F903F9082
:102620000C945110CF92DF92EF92FF920F931F9371
:102630000E94E507C0900802D0900902E0900A02CB
:10264000F0900B028B019C010C191D092E093F090A
:102650008091120290911302A0911402B091150280
:10266000083E134021053105D0F00196A11DB11D92
:102670008093120290931302A0931402B093150258
:10268000B701A60148515C4F6F4F7F4F409308023E
:102690005093090260930A0270930B02C9CF4091D4
:1026A0000E0250910F026091100270911102841776
:1026B0009507A607B70788F1E0910602F091070297
:1026C000309759F10995611571058105910519F04A
:1026D0000E94511022C08091120290911302A09189
:1026E0001402B0911502845D9E4FAF4FBF4F80938F
:1026F0000E0290930F02A0931002B093110281E09A
:1027000090E020910C0230910D02232B11F480E017
:1027100090E090930D0280930C02609112027091F0
:10272000130280911402909115021F910F91FF9056
:10273000EF90DF90CF9008954F925F926F927F92CB
:102740008F929F92AF92BF92CF92DF92EF92FF92C1
:102750000F931F93CF93DF934B015C018091020293
:1027600090910302A0910402B09105028816990687
:10277000AA06BB0609F4C2C08CE3C82ED12CE12CFA
:10278000F12CC501B401A70196010E945B3560934D
:10279000FB01CA01B901A70196010E945B35609354
:1027A000FC01CA01B90128E130E040E050E00E949C
:1027B0005B3569017A016093FD01CA01B9016C5F63
:1027C0007F4F8F4F9F4F27E030E040E050E00E9466
:1027D0005B356F5F6093FE01412C512C320140E06C
:1027E00004E610E0C0E9D1E0242F30E02E54384F49
:1027F000F901E370FF27309789F4C901B8010E94FD
:102800002D37892B31F4C901BE010E942D37892B48
:1028100029F48EE691E0A0E0B0E004C08DE691E0FE
:10282000A0E0B0E0480E591E6A1E7B1ED301C20113
:10283000AA27BB27C816D906EA06FB0610F04F5F89
:10284000D3CF40930102309799F4C90164E670E058
:102850000E942D37892B39F4C90160E971E00E948B
:102860002D37892B29F48EE691E0A0E0B0E004C07A
:102870008DE691E0A0E0B0E0481A590A6A0A7B0AA6
:10288000C418D508E608F708C90164E670E00E949C
:102890002D37EC01C90160E971E00E942D37ACE0F1
:1028A000B1E020E0213039F4309749F4209729F441
:1028B000009729F402C04C9103C04DE101C04CE1E6
:1028C00050E060E070E0C416D506E606F70640F07A
:1028D000C41AD50AE60AF70A2F5F11962C3011F7B1
:1028E0002F5F20930002C394C092FF0180920202E6
:1028F00090920302A0920402B0920502DF91CF9160
:102900001F910F91FF90EF90DF90CF90BF90AF900D
:102910009F908F907F906F905F904F9008950E944E
:1029200012130E949C138091FC0190E008951F9265
:102930000F920FB60F9211240F931F932F933F9373
:102940004F935F936F937F938F939F93AF93BF93B7
:10295000EF93FF930E94E5070091F7011091F801B2
:102960002091F9013091FA016017710782079307EE
:10297000B8F080916F008D7F80936F0082E080932C
:10298000810081E080938000E091F501F091F601F3
:1029900090818091F4018095892380831092F401C5
:1029A000E091F501F091F60190818091F401892781
:1029B0008083FF91EF91BF91AF919F918F917F9114
:1029C0006F915F914F913F912F911F910F910F90B8
:1029D0000FBE0F901F9018952091F2013091F301D6
:1029E000A901480F511DCA010C943D352091F201F7
:1029F0003091F301A901480F511DCA010C943535DE
:102A00005E9886E490E00C944E1E0F931F93CF9334
:102A1000DF931F92CDB7DEB789830E94001500E0D7
:102A200010E020E030E08981482F60E083E00E94E0
:102A30005C1C84E60E94810B8091F101882319F0CF
:102A400081E00E940C1D8091F001882349F000E094
:102A500010E020E030E040E064E081E10E945C1C96
:102A60000F90DF91CF911F910F9108958EE00E94FA
:102A7000FF1C84E60E94810B1092F0011092F1017C
:102A80001092EF0184E00C940C1D5F981092EE01FF
:102A900008950E9435051092ED010895CF93DF93BC
:102AA0000E9488078091EB019091EC012AE0289F19
:102AB000E001299FD00D1124CE52D2420E94F90488
:102AC00020911D0330911E0322273E7F3068CE01E6
:102AD0006AE070E00E941937262B372B30931E03D3
:102AE00020931D030E94D7040E94F90480912B03B8
:102AF00090912C0396FFF8CF0E94F90480911D035A
:102B000090911E039F7790931E0380931D030E9454
:102B1000D7040E94F90480912B0390912C0396FD19
:102B2000F8CFDF91CF910895CF93823009F478C028
:102B300038F4882329F1813009F0B9C0CAE061C0B6
:102B4000843009F48FC008F473C0853009F0AFC039
:102B500028EC30E041E068EC70E088E592E00E940B
:102B60003C2128EC30E041E068EC70E084EF91E03B
:102B70000E943C212CE231E041E068EC70E092C020
:102B80002DE431E041E06AEF70E086E091E00E94E0
:102B90003C2127EA30E041E06DE770E084EC90E012
:102BA0000E943C2127EA30E041E06DE770E084ECD0
:102BB00090E00E943C212DE431E041E06AEF70E0BA
:102BC0008CED90E00E943C212AE932E041E06AEF7E
:102BD00070E084EC90E00E943C212DE431E041E083
:102BE0006AEF70E087EF90E00E943C212DE431E035
:102BF00041E06AEF70E086E091E056C0C15009F410
:102C000056C024E630E041E062E370E088EB91E0FA
:102C10000E943C218091EA01843081F7C0E0EECF30
:102C200024EF31E041E068EC70E088EB91E03CC0DB
:102C300024E630E041E064E670E088E592E00E943E
:102C40003C2124E630E041E064E670E08CEB92E069
:102C50000E943C212CE231E041E064E670E080E239
:102C600093E022C024E630E041E060E570E088E5D2
:102C700092E00E943C2124E630E041E060E570E013
:102C800080E991E00E943C2124E630E041E060E5EB
:102C900070E084EF91E00E943C2128EC30E041E0BC
:102CA00060E570E080E991E0CF910C943C21CF91F8
:102CB0000895CF92DF92EF92FF92CF93DF9389EA4C
:102CC00094E00E94021F86E194E00E94BA1D61E038
:102CD00082E00E94251D85E094E00E94BA1D62E01A
:102CE00082E00E94251D81E094E00E94BA1D63E00D
:102CF00082E00E94251D8DEF93E00E94BA1DC0E086
:102D0000D4E18091EA01843009F477C161E083E085
:102D10000E94251D80916802882319F089EF93E0B5
:102D200002C085EF93E00E94BA1D80916702811175
:102D300002C040E201C048E561E080E10E94401F1E
:102D400062E086E00E94251D809166028A3010F4C0
:102D50000E94FF1E6AE070E0809166020E94C30438
:102D60008AE30E94001E809165028A3010F40E945E
:102D7000FF1E6AE070E0809165020E94C3040E9419
:102D8000FB1E63E086E00E94251D809164028A306C
:102D900010F40E94FF1E6AE070E0809164020E94BD
:102DA000C3048AE30E94001E809163028A3010F4FB
:102DB0000E94FF1E6AE070E0809163020E94C304DB
:102DC0000E94FB1EC23048F440E262E080E00E94B4
:102DD000401F61E080E00E94251D8EEF8C0F843043
:102DE00060F440E261E080E00E94401F40E263E066
:102DF00080E00E94401F62E008C0C63048F040E218
:102E000062E080E00E94401F63E080E00E94251D98
:102E10008EE70E94001ECC2ED12C8AE0C816D10469
:102E200000F5F601E759FF4F0C94413761E083E06C
:102E300016C061E080E113C062E007C062E008C034
:102E400062E009C062E00AC063E086E008C063E0B7
:102E500087E005C063E089E002C063E08AE00E9489
:102E6000251D61E080E00E94F00C8091EA01823033
:102E700009F4B9C0833009F4BBC0813009F041CFF7
:102E80008AE0C816D10408F08FC0F601ED58FF4F54
:102E90000C9441379091680281E089278093680201
:102EA00083C09091670281E08927809367027CC08C
:102EB000809166028E3020F4865F8093660274C033
:102EC0006AE00E940D37909366026EC02091660200
:102ED000822F6AE00E940D37993011F4295001C009
:102EE0002F5F2093660280916602883109F05CC0F2
:102EF000D093660259C080916502813320F4865FC9
:102F00008093650251C06AE00E940D37909365027C
:102F10004BC020916502822F6AE00E940D379930E4
:102F200011F4295001C02F5F209365023DC08091AC
:102F300064028E3020F4865F8093640235C06AE0BC
:102F40000E940D37909364022FC020916402822F5B
:102F50006AE00E940D37993011F4295001C02F5FAB
:102F600020936402809164028831F1F4D09364026A
:102F70001BC080916302813320F4865F80936302DB
:102F800013C06AE00E940D37909363020DC0209138
:102F90006302822F6AE00E940D37993011F42950A4
:102FA00001C02F5F20936302609168028BE00E9452
:102FB000EC14609166028CE00E94EC146091650252
:102FC0008DE00E94EC14609164028EE00E94EC148B
:102FD000609163028FE00E94EC14609167028CE1C3
:102FE0000E94EC148ECEC93008F08BCECF5F89CE14
:102FF000CC2309F486CEC15084CE69E274E080E02F
:10300000DF91CF91FF90EF90DF90CF900C948B1DCC
:10301000CF93DF93C82F8BEF92E00E94F9228EE7C7
:103020000E94001E84EE93E00E94BA1D60E08FE0D3
:103030000E94251D0E94811D6AE070E0C13019F4D4
:103040008091620202C0809161020E94C3040E94CA
:10305000001581E080936002D0E08091EA01843025
:10306000F1F160E08FE00E94251D61E081E00E94A7
:10307000F00C8091EA01813081F7C130A9F4909180
:103080006202953019F41092620203C09F5F909320
:1030900062026AE070E0809162020E94C304809143
:1030A00062020E94941519C0909161029A3019F43D
:1030B0001092610203C09F5F909361026AE070E02A
:1030C000809161020E94C3048091EF01811105C0CB
:1030D000809161028F5F0E940515D1E0BECFDD2394
:1030E00059F0C13021F46091620287E003C0609121
:1030F000610283E10E94EC148091EF01811103C011
:103100008EE00E94FF1C10926002DF91CF91089523
:10311000DF92EF92FF920F931F93CF93DF93CDB780
:10312000DEB72D970FB6F894DEBF0FBECDBFE82EE9
:103130008091EF01811102C04C99FECF61E774E0EC
:1031400081E00E948B1D69E774E082E00E948B1D84
:1031500069E674E083E00E948B1D81EA94E00E949E
:10316000021F63E084E00E94251D87ED93E00E942A
:10317000BA1D42E063E08BE00E94401F80915F0235
:10318000882319F092E0F92E02C0FF24F3940E94E4
:10319000811D80E5D82E8091EA01843009F4C4C1F4
:1031A00081E0E81282C060E082E00E94251D8091EB
:1031B00001018A3010F40E94FF1E6AE070E08091E5
:1031C00001010E94C30480E20E94001E20915E0261
:1031D00030E021503109D29EC001D39E900D1124C0
:1031E00020910101820F911D820F911D8E599F4FD9
:1031F0000E9477066AE070E00E94C3048AE30E949E
:10320000001E20915E0230E021503109D29EC001A3
:10321000D39E900D112420910101820F911D820FE8
:10322000911D8D599F4F0E9477068A3020F48D871B
:103230000E94FF1E8D856AE070E00E94C30400E0DA
:1032400010E02091010130E02150310940915E02EF
:10325000429FC001439F900D11248C599F4F800FB6
:10326000911F0E947706482F61E0802F0E94401F27
:103270002091010130E02150310940915E02429FCE
:10328000C001439F900D1124800F911F88589F4FBC
:103290000E947706482F62E0802F0E94401F0F5F38
:1032A0001F4F0431110569F661C082E0E81253C076
:1032B0004C9909C080915F02811105C08091F00195
:1032C000882309F441C160E082E00E94251D8091BD
:1032D000F001882329F08CEC93E00E94BA1D14C001
:1032E00084E60E94810B0CE010E09E012F5F3F4FAF
:1032F00040E060E082E50E945C1CBE016F5F7F4F92
:103300008BEF92E00E94D42262E087E00E94251DAC
:103310004C9B05C08091F001882309F430C1809155
:1033200000018A3010F40E94FF1E6AE070E0809174
:1033300000010E94C3048FE20E94001E80915D0282
:103340008A3010F40E94FF1E6AE070E080915D02F6
:103350000E94C3040BC083E0E81208C061E080E073
:103360000E94251D88EB93E00E94BA1D60E08FE06B
:103370000E94251D80915F02882329F082EB93E053
:103380000E94BA1D05C045E060E08FE00E94331F37
:103390004C9906C080915F02811102C043E001C0D8
:1033A00041E063E088E00E94401F8F2D880F8F0D61
:1033B00063E08B5F0E94251D61E081E00E94F00CBC
:1033C0008091EA01823009F49CC0833009F4A3C0E3
:1033D000813009F0E0CEF816A9F1F81648F082E045
:1033E000F81609F455C083E0F81609F458C0D3CE96
:1033F00081E0E81207C080910101823008F45BC0CF
:10340000815057C082E0E81611F0F12CC4CE8091B3
:103410000001823018F08150809300018091F0010A
:10342000882329F01092F00181E08093F1014C9BF8
:10343000ECCF9091000180915E02890F81590E942A
:103440000515A9CE8091ED0181110E9449154C9975
:103450001AC081E0E81205C0E092F00180910101FC
:103460000BC082E0E8120BC081E08093F1019091E3
:10347000000180915E02890F81590E94051581E04B
:103480008093EF0102C00E9436150E94451583CE3D
:103490004C997FC080915F0281117BC07CCE81E01E
:1034A000E81217C08091010190915E02891718F40B
:1034B0008F5F809301018091F101882329F01092A0
:1034C000F10181E08093F0014C9B65CE8091010178
:1034D000B5CF82E0E8125FCE8091000190915D024D
:1034E000891718F48F5F809300018091F001882381
:1034F00029F01092F00181E08093F1014C9B4BCEBA
:1035000098CF80915F02811146CE82E08F1508F43A
:1035100042CEF39440CE80915F0281113CCEFF20D9
:1035200009F473CFFA9437CE0E94D61E2D960FB6AB
:10353000F894DEBF0FBECDBFDF91CF911F910F91E9
:10354000FF90EF90DF90089580915E0290E08159A6
:103550009F4F20910001820F911D00E010E020E0BC
:1035600030E0482F692F83E00E945C1C84E60E94B3
:10357000810B0E94361584E60E94810BA4CE84E65E
:103580000E94810B8BE40E94DA1C87598093000112
:10359000C6CE8091ED0181110E94491580915F0294
:1035A000882329F05E9810925F028DE004C081E0CC
:1035B00080935F028EE00E94FF1CEDCD8F929F9260
:1035C000AF92BF92CF92DF92EF92FF92CF93DF93B1
:1035D0006B017C010E94E5074B015C018CED92E0E0
:1035E0000E945403EC01892B69F40E94E507AB01AA
:1035F000BC01481959096A097B094C155D056E051E
:103600007F0560F3CE01DF91CF91FF90EF90DF90C7
:10361000CF90BF90AF909F908F9008951092DB0253
:103620001092DA021092D9021092D8021092D702A8
:1036300081E08093D6021092D50261E082E10E947F
:10364000A60661E083E10E94A606E9EBF0E0808136
:103650008E7F808380818D7F808388E48093B80013
:1036600085E48093BC0008952091D8029091430393
:10367000213208F04AC08091D7028111FCCF32E09C
:103680003093D70231E03093D6023FEF3093B3024C
:103690001092B2022093B102A5EBB2E041E952E0F0
:1036A000FA013E2F341B321718F43D913193F9CFB4
:1036B0001092900220919002990F922B9093900279
:1036C0009091D502913061F41092D50290919002C0
:1036D0009093BB009091BC0093FDF8CF95EC01C096
:1036E00095EE9093BC009091D7029230E1F39091C7
:1036F000B3029F3F79F08091B302803241F0809114
:10370000B302803331F084E005C081E003C082E081
:1037100001C083E01092D9021092D8021092B40234
:10372000089591E09093B402809343031092D902DC
:103730001092D80208950F931F93CF9388E60E94AA
:10374000911B60E087E393E00E94221009E812E0F9
:10375000F8018081CAE06C2F0E940D37692FF0E1DB
:103760008F9F600D112487E393E00E942210F801DF
:1037700081816C2F0E940D37692FF0E18F9F600DC2
:10378000112487E393E00E942210F80182816C2FBC
:103790000E940D37692FF0E18F9F600D112487E3A0
:1037A00093E00E942210F80183816C2F0E940D3754
:1037B000692FF0E18F9F600D112487E393E00E9451
:1037C0002210F80184816C2F0E940D37692FF0E1DF
:1037D0008F9F600D112487E393E00E942210F8016F
:1037E00085816C2F0E940D37692FF0E18F9F600D4E
:1037F000112487E393E00E942210F80186818E5104
:103800006C2F0E940D37692FF0E18F9F600D1124FE
:1038100087E393E00E942210CF911F910F910C94A7
:10382000341B9091D7029111FCCF613208F060E215
:1038300091E09093D7029093D6022FEF2093B3029A
:103840001092B202260F2093B102909390029091B1
:103850009002880F892B809390028091D50281304D
:1038600061F41092D502809190028093BB00809108
:10387000BC0083FDF8CF85EC01C085EE8093BC00D1
:103880008091D7028130E1F38091B202861710F463
:103890006091B202A1E9B2E029E632E0F9018E2F8F
:1038A000821B861718F48D918193F9CF1092DB0259
:1038B0006093DA02862F0895CF92DF92EF92FF9203
:1038C0000F931F93CF93DF93E82EC62ED42EE901DA
:1038D000EDEFE80FE03128F4F0E0E85EFE4FF08015
:1038E00001C0F12C6AE070E080E090E00E94DE1AF6
:1038F000892B29F08CED92E00E946C03F3CF6EE7E8
:103900008CED92E00E94000362E06F0D8CED92E07E
:103910000E9400036E2D8CED92E00E940003FF20B8
:1039200069F06C2D8CED92E00E94000382E0F812A9
:1039300005C06D2D8CED92E00E9400036FEE8CEDC2
:1039400092E00E940003209749F00115110531F023
:10395000A80160E070E0CE010E944C3768EE73E091
:1039600080E090E00E94DE1AE12CF12C0150110958
:1039700062E370E080E090E00E94DE1A892B89F01B
:103980008CED92E00E946C03209791F3E016F10613
:1039900078F7FE01EE0DFF1D8083C70101967C01C3
:1039A000E7CFDF91CF911F910F91FF90EF90DF90C4
:1039B000CF9008950F931F93CF93DF9300D000D043
:1039C0001F92CDB7DEB705E010E09E012F5F3F4F9D
:1039D00040E060E00E945C1C40E150E060E070E08C
:1039E000CE0101960E94F332CB010F900F900F9001
:1039F0000F900F90DF91CF911F910F9108950F932A
:103A00001F9300E010E020E030E040E060E00E9422
:103A10005C1C1F910F9108950F931F9300E010E01D
:103A200020E030E040E0682F81E10E945C1C1F91A3
:103A30000F910895E091FB02F091FC020084F18562
:103A4000E02D60E08BEF92E00994CF93DF93CDB748
:103A5000DEB728970FB6F894DEBF0FBECDBF1D822C
:103A600090E49E8324E12F8324E5288719829A839A
:103A700090E19B8390E59C8390910203691710F07D
:103A80006FEF690F40910303262F30E0FE01E20F34
:103A9000F31F403121F4943011F4918101C09581DC
:103AA000682F690F60688BEF92E028960FB6F89444
:103AB000DEBF0FBECDBFDF91CF910C94E9220E94F3
:103AC0001A1DEBEFF2E065816B7F65836860CF01C3
:103AD0000C94E922EBEFF2E06581862F8460858308
:103AE0006C60CF010E94E9228BEF92E00C94F122EE
:103AF000EBEFF2E065816E7F65836860CF010C9427
:103B0000E922EBEFF2E06581862F816085836960B1
:103B1000CF010C94E922EF92FF920F931F93CF9362
:103B2000DF93EB01877098E0899FB00111246064F6
:103B30008BEF92E00E94E92283E790E00197F1F792
:103B40008E01085F1F4F8BE9E82EF12CFE01649176
:103B50008BEF92E00E941722C7010197F1F721969F
:103B6000C017D10799F7DF91CF911F910F91FF9067
:103B7000EF9008950F931F93CF93DF938C01C0E0D4
:103B8000D0E0F801EC0FFD1F6491662371F0E09125
:103B9000FB02F091FC020190F081E02D8BEF92E0AE
:103BA0000995892B11F02196ECCFCE01DF91CF91B1
:103BB0001F910F9108958F929F92AF92BF92CF92D3
:103BC000DF92EF92FF926C010E94E5074B015C01CE
:103BD000E12CF12C0E94E507DC01CB018819990941
:103BE000AA09BB098C159D05AE05BF0598F3FF908A
:103BF000EF90DF90CF90BF90AF909F908F900895FF
:103C0000E091FB02F091FC020190F081E02D682F21
:103C10008BEF92E009948F929F92AF92BF920F9395
:103C20001F93CF93DF93CDB7DEB7A1970FB6F8946C
:103C3000DEBF0FBECDBF19A2423008F44AE08E01AC
:103C40000F5D1F4F842E912CA12CB12CA501940146
:103C50000E945B35E62FB901CA0101501109EA3013
:103C600014F4E05D01C0E95CD801EC93232B242B14
:103C7000252B61F7B8018BEF92E00E94D422A19628
:103C80000FB6F894DEBF0FBECDBFDF91CF911F916D
:103C90000F91BF90AF909F908F9008950C94DB1D73
:103CA000CF92DF92EF92FF920F931F93CF93DF9308
:103CB000C62F2FB7F8944091CB015091CC01609161
:103CC000CD017091CE0196B5A89B06C09F3F21F013
:103CD0004F5F5F4F6F4F7F4F2FBF762F652F542F52
:103CE0004427490F511D611D711D32E0440F551FBE
:103CF000661F771F3A95D1F79A01220F331F220FC3
:103D0000331F42275327BA01660F672F661F770BB1
:103D1000719546275727BA017695762F66277795AE
:103D20006795082F10E06427752780E090E00E94D7
:103D3000163420E03FEF4FE757E40E9462366B01F4
:103D40007C01D0E0C01BD10BBE01DD0F880B990BAD
:103D50000E9418349B01AC01C701B6010E94773460
:103D60006B017C01B801110F880B990B0E9418346C
:103D70009B01AC01C701B6010E94F6350E94D43602
:103D8000862FDF91CF911F910F91FF90EF90DF90E1
:103D9000CF90089580E090E00E942E070E945F1D62
:103DA00081E08093D6011092DB0108950F931F9359
:103DB000CF9309E214E0C0E0B8018C2F0E948B1D64
:103DC000CF5F085F1F4FC830B9F7CF911F910F9198
:103DD000089561E081E00E94251D83E195E00E9445
:103DE000BA1D82E30C94810B8FEE0E94001E8FE0BF
:103DF00095E00C94BA1D8AE095E00C94BA1D80E31E
:103E00000C94001EEF92FF920F931F93CF93DF93BA
:103E10008C0160E48BEF92E00E94E922E3E7F0E09E
:103E20003197F1F7E801085F1F4F8BE9E82EF12C7D
:103E300069918BEF92E00E941722C7010197F1F779
:103E4000C017D107A9F78BEF92E00E94F92280E01A
:103E50000E94001E80E2DF91CF911F910F91FF9091
:103E6000EF900C94001ECF93C42F0E94251DCC23ED
:103E700029F080E20E94001EC150F9CFCF91089531
:103E8000CF93DF931F92CDB7DEB749830E94251DE4
:103E90004981842F0F90DF91CF910C94001ECF9316
:103EA000C82F80915F02811106C04C9904C0809197
:103EB000EF0181115DC18091DF019091E0010597D3
:103EC0000CF4C1E04C990DC08091ED01811109C045
:103ED0008091EE01811105C080916002882309F470
:103EE0004AC18091D901882309F411C180916002EF
:103EF00081110DC10E94EC09909147038091D90175
:103F00009111FCC0882309F402C1209146039091CD
:103F10008A022913F3C02091450390918B02291343
:103F2000EDC08091D60181110E946A1D8091DB0154
:103F3000882321F08BEF92E00E94F1225E9861EBE2
:103F400074E080E00E948B1D8BEF92E00E94F922CA
:103F50000E94781D60E087E00E94251D80918B0201
:103F60008A3010F40E94FF1E6AE070E080918B029C
:103F70000E94C3048AE30E94001E80918A028A3054
:103F800010F40E94FF1E6AE070E080918A020E9495
:103F9000C30463E084E00E94251D8DEF94E00E943D
:103FA000BA1D45EF63E08BE00E94401F81E08093E3
:103FB00060028091EE0181115F98C0914403C1308D
:103FC00061F48091ED01811108C08091EF018111B0
:103FD00004C00E944E15C093ED011092EA01809139
:103FE000EA01843009F44CC09091460380918A0222
:103FF000981346C040E062E085E00E94401F85EFD4
:1040000094E00E94BA1D80E00E94001E81E00E94A0
:104010004F1F8093EA018FEF90E00E942E0780915E
:104020004403882341F08091EF01811104C0809105
:104030005F02882321F0809162020E949415809192
:104040004403823039F44C9905C08091EF018823F4
:1040500009F495C084EF91E00E940B2149E062E0F1
:1040600085E00E94331F80E090E00E942E0784EFDD
:1040700091E00E940B210E948F1480938A02AFCF9F
:104080008091EF01811104C08EE00E94FF1C06C0E8
:1040900080914403813011F40E9435058091EE0136
:1040A00081115F9A109260029091460380918A027A
:1040B000981309C09091450380918B02981303C017
:1040C00081E0809347038BEF92E00E94F922809178
:1040D000D601882331F08091ED01811102C04C9B03
:1040E00054C08091D60181110E945F1D8091DB0137
:1040F00081110E941A1D0E94E60C1FC0882339F00E
:104100009091460380918A029813109247038EE0A3
:104110000E94CE07893C910508F079C08739910546
:10412000B0F182E30E94810B8EE00E94CE078739B6
:1041300091050CF467C04C9B02C0C4E017C080918D
:10414000D8018111FACFC111F8CF80915F0281119E
:10415000F4CF65E081E00E94501EC82F843069F7DB
:104160006DE38FE10E94501E0E9405158C2F51C0F7
:104170001092EF01A0CE5E9A0E94EE0AB2CE80911C
:1041800061028F5F0E94051565CF5E9AAACF8536C2
:10419000910550F082E30E94810B8EE00E94CE07D1
:1041A0008536910584F52EC0C39748F082E30E94BE
:1041B000810B8EE00E94CE07C3973CF523C082E3BB
:1041C0000E94810B8EE00E94CE0718161906D4F4C7
:1041D0004C9916C08091D801811112C0C11110C034
:1041E00080915F0281110CC068E081E00E94501E46
:1041F000843031F46FE18BE00E94501E0E9405155F
:10420000C1E0B4CF06C0C3E0B1CFC2E0AFCFC0E0E1
:10421000ADCFCF9108958F929F92AF92BF92CF92E0
:10422000DF92EF92FF926C010E94E5074B015C0167
:10423000E12CF12C0E94E507DC01CB0188199909DA
:10424000AA09BB098C159D05AE05BF0528F481E0C0
:104250000E944F1F843071F781E00E944F1F84300D
:1042600011F48093EA01FF90EF90DF90CF90BF9020
:10427000AF909F908F9008958F929F92AF92BF9230
:10428000CF92DF92EF92FF920F931F93CF93DF9322
:10429000142FE9014B01A12CB12C9C0140E050E00E
:1042A00060E079E08DE390E00E945B3569017A017E
:1042B00081E0C81AD108E108F108C114D104E1E095
:1042C000EE06F10458F0CD2CDE2CEF2CFF24F1E0AB
:1042D000CF1AD108E108F10804E001C001E081141F
:1042E0009104A104B10479F00E94E507860E971E9F
:1042F000A81EB91E8092F7019092F801A092F901D0
:10430000B092FA010BC08FEF9FEFDC018093F701B1
:104310009093F801A093F901B093FA018091F40110
:10432000811122C0ECEEF4E084918093F40168EDF9
:1043300074E0FB019491E92FF0E0EE0FFF1FE754CA
:10434000FB4F259134913093F6012093F501FB0149
:104350006491E62FF0E0EE0FFF1FE250FD4FA591B4
:10436000B491EC918E2B8C93D0928700C0928600F2
:104370008091840090918500A0E0B0E0C816D90635
:10438000EA06FB0620F4D0928500C092840000610A
:104390000093810080E18093800080916F008260B3
:1043A00080936F0011110FC0CE01DF91CF911F914B
:1043B0000F91FF90EF90DF90CF90BF90AF909F90C4
:1043C0008F900C944E1E8091EA01843079F0CE01DA
:1043D000DF91CF911F910F91FF90EF90DF90CF90E1
:1043E000BF90AF909F908F900C940B21DF91CF9155
:1043F0001F910F91FF90EF90DF90CF90BF90AF9003
:104400009F908F90089521E001C0220F6A95EAF7EE
:10441000DC011C962C931C971A965C934E9319976B
:10442000ED91FC910084F185E02D60E00994DC01C0
:10443000ED91FC910284F385E02D41E0099581E046
:1044400090E0089508950895CF93DF93FC012381B0
:10445000222391F0EC018181809568236083828121
:104460000E94911B688187E393E00E9422100E94C2
:10447000341B282F30E002C020E030E081E090E0E3
:10448000232B11F080E090E0DF91CF910895EF921F
:10449000FF920F931F93CF938C01FC01759684E0DC
:1044A000C0E060FF02C09081C92B669581503196B3
:1044B0008111F7CF413011F4F8014489F801858565
:1044C000C82BC42B7801FEE0EF0EF11CF8016289C5
:1044D0006C2BC7010E942422F801628960956C232D
:1044E000C701CF911F910F91FF90EF900C94242260
:1044F0000F931F93CF93DF93062F0F70423019F461
:1045000040E0602F10C0142F262FEC0130E0B901DD
:1045100084E0759567958A95E1F7CE010E94472260
:10452000412F602FCE01DF91CF911F910F910C94FD
:104530004722FC0184858823A9F021853285211535
:10454000310519F4611106C007C02130310521F48D
:10455000611102C0858701C015866585CF010E9661
:104560000C94242208951F920F920FB60F921124DB
:104570008F93EF93FF930FB6F894A8958091600006
:10458000886180936000109260000FBEA895E0E6FD
:10459000F0E080818F7B8083FF91EF918F910F906E
:1045A0000FBE0F901F9018956115710579F0FB01F2
:1045B00001900020E9F73197AF01461B570BDC0152
:1045C000ED91FC910280F381E02D099480E090E070
:1045D0000895DC01ED91FC910284F385E02D40E02B
:1045E0000994DC01ED91FC910084F185E02D6FEFE1
:1045F000099461E00E94E9228BE39FE10197F1F7C2
:104600000895CF92DF92EF92FF920F931F93CF9373
:10461000DF93EC01423018F08C8188608C834F83EB
:104620006887222329F0413019F48C8184608C83BF
:104630000E94E5076B017C010E94E507DC01CB01CC
:104640008C199D09AE09BF0984369105A105B105F4
:1046500098F36C8164FD31C0E881F9810284F385AF
:10466000E02D42E063E0CE0109958BE496E40197EA
:10467000F1F7E881F9810284F385E02D42E063E0FF
:10468000CE01099503E512E0C8010197F1F7E88131
:10469000F9810284F385E02D42E063E0CE010995C3
:1046A000C8010197F1F7E881F9810284F385E02DD3
:1046B00042E062E0CE01099517C06062CE010E941F
:1046C000E9228BE496E40197F1F76C816062CE01F8
:1046D0000E94E92203E512E0C8010197F1F76C811D
:1046E0006062CE010E94E922C8010197F1F76C8156
:1046F0006062CE010E94E9228BEE90E00197F1F713
:1047000084E08D836CE0CE010E94E922CE010E94FC
:10471000F92282E08E8366E0CE010E94E922CE017A
:10472000DF91CF911F910F91FF90EF90DF90CF908D
:104730000C94F122FF920F931F93CF93DF93EC0120
:10474000162F042FF22E8B85888B0E940E1B8889D2
:104750000E94911B0E94341B91E0811190E0998B83
:10476000992329F087E393E00E94D60F8E878989E9
:10477000882339F01F861C8260E0CE010E960E94CD
:1047800024222F2D402F612FCE01DF91CF911F9139
:104790000F91FF900C940123CF92DF92EF92FF9242
:1047A0000F931F93E82FF92F05C00150110921091C
:1047B000310961F1908196239417B9F305C0015036
:1047C00011092109310911F1908196239413F7CF32
:1047D000C12CD12CE12CF12C0AC08FEFC81AD80AB9
:1047E000E80AF80A0C151D052E053F0579F08081B1
:1047F0008623841791F36C2D7D2D8E2D9F2D1F9177
:104800000F91FF90EF90DF90CF90089560E070E0FF
:1048100080E090E01F910F91FF90EF90DF90CF909C
:104820000895CF93DF9300D000D01F92CDB7DEB7AD
:10483000789484B5826084BD84B5816084BD85B57B
:10484000826085BD85B5816085BD80916E00816087
:1048500080936E001092810080918100826080932D
:10486000810080918100816080938100809180002F
:104870008160809380008091B10084608093B1005A
:104880008091B00081608093B00080917A00846054
:1048900080937A0080917A00826080937A00809180
:1048A0007A00816080937A0080917A00806880939A
:1048B0007A001092C1001CBC80E880BF8FE3809317
:1048C0007E00809164008460809364008091640025
:1048D00082608093640080916400806480936400AF
:1048E00088EC8AB98CE284B98EE387B980E48BB90D
:1048F00081E088B91092F7021092F6021092F50248
:104900001092F4021092F3021092F2028DE991E0FB
:104910009093F9028093F8029091E802963108F0A2
:1049200057C02DEB30E03093F3022093F2022BE9D5
:1049300031E03093F5022093F4022CE231E0309321
:10494000F7022093F60220916800983050F031E091
:104950009E3008F430E081E001C0880F3A95EAF714
:1049600001C084E0822B80936800983038F09E303C
:1049700040F0963148F020E030E008C02DE630E00D
:1049800005C02BE630E002C02CE630E03093F002A8
:104990002093EF02983030F481E001C0880F9A959F
:1049A000EAF70EC0292F30E09E3018F42850310964
:1049B00002C02E50310981E001C0880F2A95EAF724
:1049C0008093F1028091F8029091F9020197F1F73A
:1049D0008091F6029091F702892B21F18091C90113
:1049E0009091CA0122E08C3D9207E1F0009711F00E
:1049F0000E94F2108091FA028E7F8093FA02109248
:104A0000C7011092C8018CED92E09093CA01809387
:104A1000C901E091EF02F091F00290818091F102E2
:104A2000892B80838EE00E94FF1C8CE00E94FF1C7B
:104A300084EF91E00E944E1E00E010E020E030E0A4
:104A400040E06EE186E00E945C1C84E00E940C1D48
:104A50000E9488070E94F90480912103909122030B
:104A6000807F8A6090932203809321030E94D70461
:104A70000E94350580E090E00E9435353EE1839F3D
:104A8000C00111249093F3018093F20181E00E9410
:104A9000F61491E0811101C090E09093D80182E07A
:104AA0000E94F6148093860183E00E94F61491E040
:104AB000811101C090E09093D90184E00E94F61426
:104AC0008093460385E00E94F6148093450386E0B8
:104AD0000E94F6148093440387E00E94F6148093AA
:104AE000620288E00E94F6148093DC0189E00E9453
:104AF000F614809385018AE00E94F61491E08111FA
:104B000001C090E0909384018BE00E94F61491E044
:104B1000811101C090E0909368028CE00E94F6142D
:104B2000809366028DE00E94F614809365028EE009
:104B30000E94F614809364028FE00E94F614809322
:104B4000630280E10E94F61491E0811101C090E0BF
:104B50009093830181E10E94F614182F82E10E9454
:104B6000F614282F30E0C9014AE0149F800D911DF2
:104B700011249093EC018093EB0183E10E94F614E1
:104B800080936102B4EEEB2EB1E0FB2E15E1812F94
:104B90000E94F614082F81E0810F0E94F614282F3E
:104BA00030E0C9016AE0069F800D911D1124F701D4
:104BB000819391937F011E5F1B3149F78BE10E9426
:104BC000F61491E0811101C090E0909382018CE194
:104BD0000E94F61491E0811101C090E09093670269
:104BE00080E090E00E9477068093810181E090E070
:104BF0000E9477068093800182E090E00E94770611
:104C000080935E0288E60E94911B68E671E087E36C
:104C100093E00E94D4220E94341B84E10E94810B05
:104C200088E60E94911B6BE671E087E393E00E94A7
:104C3000D4220E94341B0E94EE0A20E044E064E18A
:104C40008BEF92E00E949A230E94D61E84E190E0AE
:104C50000E943535182F8A3008F045C08BEF92E05E
:104C60000E94F9228AEE92E00E94BA1D46E561E0B8
:104C700083E00E94401F80E090E00E948F038EE25C
:104C80000E94001E812F6AE00E940D37892F90E05C
:104C90000E948F0383EE92E00E94BA1D81E090E0B3
:104CA0000E948F038EE20E94001E80E090E00E942E
:104CB0008F0364E084E00E94251D86ED92E00E944F
:104CC000BA1D45EF64E08BE00E94401F6AE084E17A
:104CD00090E00E943D3560E081E00E94F00C8BEF97
:104CE00092E00E94F9220E94001520E530E040E0A9
:104CF00060E570E088E592E00E943C2126E930E022
:104D000040E066E970E080E793E00E943C215E9A13
:104D10000E94EC090E9499098093E30187E40E94B4
:104D2000DA1C90915E02891B8F5680935D02F3E638
:104D3000FC8323E62B83CE0101961C010E94EC0923
:104D400087E00E94CE078132934024F08091D70102
:104D5000882351F087E00E94CE078032934004F50B
:104D60008091D7018823E1F09091D70181E08927D4
:104D70008093D70187E00E94CE078032934014F0E1
:104D80000C9405318091DB01882311F40C940531DA
:104D900080918401882311F40C9405310E94CA1E6D
:104DA00080918A022B81281709F494C18091DE0139
:104DB0008823E1F0809167028823C1F08091D601B9
:104DC000811114C080918401882339F08091D7012A
:104DD000811103C00E94CA1E09C08091DB018111AC
:104DE00005C00E941A1D81E08093DB0110927F01B3
:104DF00080918B023C81381709F4E5C08091D6017F
:104E000081117EC00E94FD099091800180918E02E7
:104E1000981372C09091810180918D0298136CC09B
:104E200081E08093DA0180917E01811169C08091D7
:104E3000DE01811165C069E974E00E948B1D8091DB
:104E4000ED0181110E9435058091EE0181115F987D
:104E50008091D801811107C08091EF01811103C0B9
:104E60008FE60E94051580ED97E00E944E1E0E947D
:104E70008F147C01FF240E948F14E816F90621F09C
:104E80004C9902C00C941D318091EA01843011F4D8
:104E90000C941D318BEF92E00E94F92261E087E0D3
:104EA0000E94251D83E091E00E94BA1D62E086E029
:104EB0000E94251D8AEF90E00E94BA1D65E081E006
:104EC0000E94501E182F112391F064E180E00E948F
:104ED000501E40E060E00E94401F64E180E00E94BC
:104EE000501E40E063E00E94401F1150ECCF84EF61
:104EF00091E00E940B21BFCF10927E011092DA0147
:104F0000109183010E94780A181709F45CC08091FF
:104F10008B02843008F457C0112311F40C943431FF
:104F2000815080938B0281E0D12ED826D0928301CC
:104F3000E090E101F090E20100918E0210E02091FA
:104F40008D0230E04091890250E060918A0270E069
:104F500080918B0290E00E9436128091E101825B89
:104F600080938F020E949B1B8091F2016D2D805FC8
:104F70000E94EC140091F2011091F3010E3D43E008
:104F8000140711F40C943731025E1F4FFF24F39481
:104F90008091F2018F0D0E94F614682F8F2D800FE3
:104FA0000E94EC14F3946EE1F612F2CF1093F30129
:104FB0000093F201C8016EE170E00E94193780E0B1
:104FC00090E00E943D358091D601811102C00E947F
:104FD000AD0B8091DE0181117DC08091D8018111DE
:104FE00079C08091DF019091E0010A977CF4809173
:104FF000D70181110BC00E94001520E530E040E090
:1050000060E570E088E993E00E943C214C9962C021
:1050100080915F0281115EC08091ED0181115AC0C3
:105020008091DF019091E00102970CF453C0E09170
:105030008501F0E0EE5FFE4F108161E0610F81E0DD
:105040000E94501E811346C00C943B31163010F064
:105050000C94D531143011F00C94CD3161E083E023
:105060000E94251D89E091E00E94BA1D8091860171
:10507000ECE18E9FC00111240E942E070E940015B2
:105080002EE031E040E06AEF70E080E293E00E94C1
:105090003C2124EB30E040E066E970E080E293E000
:1050A0000E943C212AEF30E040E06AEF70E084E9A2
:1050B00092E00E943C2180ED97E00E940B2180E06D
:1050C00090E00E942E070E94E60C8091DB01811186
:1050D0000C94C0318091D60181117CC08091DD019A
:1050E000811178C08091DC01882309F473C02D9868
:1050F0008FE090E00197F1F72D9A83E290E001971D
:10510000F1F72D98EDEEF4E06491E9EDF4E0E4912F
:10511000F0E0EE0FFF1FED53FB4F8591949100E4FB
:1051200012E42FE030E0462F0E94CC236115710578
:105130008105910549F0DC01CB010196A11DB11D4E
:10514000BC01CD019F7003C060E070E0CB01109105
:10515000DC012AE330E040E050E00E945B35F9E1F9
:105160001F9FC0011124092E000CAA0BBB0B28178E
:1051700039074A075B0770F58091DB01882391F0BE
:1051800080918201882371F08BEF92E00E94F122DE
:105190000E94E50760937A0170937B0180937C0104
:1051A00090937D018091DE01811114C080917F0177
:1051B000811110C08091ED0181110CC080915F02BE
:1051C000811108C08091D801811104C04C9902C09E
:1051D0000C945F318091DB018823C9F080918201BA
:1051E0008823A9F00E94E50700917A0110917B01C4
:1051F00020917C0130917D010A561F4F2F4F3F4F68
:10520000061717072807390710F40C946A31209104
:105210008A022B8330918B023C8380E00E944F1FD7
:105220008093EA019091D601823009F497C78330C8
:1052300009F4A8C7813009F0DDC79111DBC780E50B
:105240000E94810B0E94781D8BEF92E00E94F92250
:105250008091D801882331F088E70E94001ECC2479
:10526000C39401C0C12C60E082E00E94251D88EC3F
:1052700092E00E94BA1D61E082E00E94251D8AEB47
:1052800092E00E94BA1D62E081E00E94251D0E940A
:10529000FB1E8DEA92E00E94BA1D63E082E00E944C
:1052A000251D80EA92E00E94BA1DDC2C8091EA0163
:1052B000843009F46FC74EE76D2D80E00E94401FD7
:1052C00061E080E00E94F00C8091EA01823009F4F4
:1052D00030C7833009F438C7813041F741E0D41634
:1052E00009F4F0C0D41668F162E0D61609F497C24A
:1052F00083E0D812DBCF8BEF92E00E94F92260E0CE
:1053000082E00E94251D80E992E00E94BA1D61E0C2
:1053100082E00E94251D80E892E00E94BA1D62E0B2
:1053200082E00E94251D80E792E00E94BA1D63E0A2
:1053300082E00E94251D86E692E00E94BA1D10E0E0
:105340003FC461EA74E080E00E948B1D8BEF92E025
:105350000E94F92260E082E00E94251D8BE391E02B
:105360000E94BA1D0E94F41E61E082E00E94251D89
:1053700081E391E00E94BA1D0E94F41E62E082E087
:105380000E94251D85E291E00E94BA1D63E082E043
:105390000E94251D87E191E00E94BA1D0E94F41E23
:1053A00010E08091EA01843009F489C08091ED0118
:1053B000811102C040E201C040E060E081E00E9453
:1053C000401F8091F101811102C040E201C040E024
:1053D00061E081E00E94401F8091EE01811102C0D6
:1053E00040E201C040E062E081E00E94401F809105
:1053F000F001811102C040E201C040E063E081E0C1
:105400000E94401F4EE7612F80E00E94401F61E034
:1054100081E00E94F00C8091EA018230E1F183305A
:1054200009F443C0813009F0BCCF113059F038F095
:10543000123091F0133009F0B4CF81E00AC00E941D
:10544000290DAFCF80915D02882311F082E001C069
:1054500083E00E948818A5CF8091EE0181110EC0D3
:105460008091ED0181110E94491580915F028111A7
:1054700002C04C9933C75E985F9A02C05E9A5F98EB
:105480009091EE0181E089278093EE0184EF91E015
:105490000E944E1E86CF40E2612F80E00E94401F96
:1054A000133008F07ECF1F5F7CCF40E2612F80E099
:1054B0000E94401F112309F474CF115072CF0E9433
:1054C000D61EF4CED092600281EB94E00E94021FBF
:1054D000809145038A3010F40E94FF1E6AE070E05C
:1054E000809145030E94C3048AE30E94001E8091BC
:1054F00046038A3010F40E94FF1E6AE070E080913B
:1055000046030E94C3040E94FB1E61E080E00E94EB
:10551000251D82E991E00E94BA1D63E082E00E94AD
:10552000251D8FE791E00E94BA1D63E08EE00E9486
:10553000251D80914403813049F028F0823051F4D8
:1055400081E791E005C08BE791E002C085E791E03B
:105550000E94BA1D0E94811D00E010E06AE0F62E54
:1055600074E1E72E8091EA01843009F43FC11530DF
:1055700010F062E001C063E040E280E00E94401F62
:10558000153010F063E001C062E04EE780E00E9459
:10559000401F62E082E00E94251D809145038A3011
:1055A00010F40E94FF1E6AE070E0809145030E94A3
:1055B000C3048AE30E94001E809146038A3010F4DF
:1055C0000E94FF1E6AE070E0809146030E94C304BF
:1055D0000E94FB1E8091D901882319F089E691E091
:1055E00002C081E691E00E94BA1D123091F038F4B9
:1055F000112361F01130B9F462E083E012C014307D
:1056000071F050F0153079F463E00AC062E082E096
:1056100008C062E085E005C062E086E002C062E0AA
:105620008EE00E94251D61E080E00E94F00C8091D8
:10563000EA01823009F4CEC0833009F4D0C0813051
:1056400009F090CF123009F455C028F4112379F1F4
:105650001130D9F1C9C0143009F468C008F458C039
:10566000153009F0C1C00E94781DB090D901109288
:10567000D9018BEF92E00E94F92260E082E00E9463
:10568000251D85E591E00E94BA1D61E082E00E943F
:10569000251D8BE491E00E94BA1D62E082E00E9429
:1056A000251D83E491E00E94BA1D00E060C0809156
:1056B00045038E3020F4865F8093450395C06F2D9F
:1056C0000E940D37909345038FC020914503822F90
:1056D0006F2D0E940D37993011F4295001C02F5FB2
:1056E0002093450380914503883109F07DC0E09205
:1056F00045037AC080914603813320F4865F80930E
:10570000460372C06F2D0E940D37909346036CC004
:1057100020914603822F6F2D0E940D37993011F48E
:10572000295001C02F5F209346035EC09091D9019C
:1057300089278093D90158C048E56091440383E0EC
:105740000E94401F4EE7602F80E00E94401F602FA4
:1057500083E00E94251D61E080E00E94F00C8091B2
:10576000EA018230E9F0833021F1813029F0809123
:10577000EA01843009F726C000934403602F86E0D5
:105780000E94EC1480914403811103C081E00E94C7
:10579000081880914403823051F70E940818E7CF1F
:1057A00040E2602F80E00E94401F023000F70F5F50
:1057B000DECF40E2602F80E00E94401F0023B9F25C
:1057C0000150D5CFB092D90169E274E080E00E9427
:1057D0008B1D0AC0153008F0C5CE1F5FC3CE112344
:1057E00009F4C0CE1150BECE01E0BCCE002379F04A
:1057F0006091D90183E00E94EC146091460384E03B
:105800000E94EC146091450385E00E94EC1469E26B
:1058100074E080E00E948B1D1092600247CDA09042
:105820008B0280908A02B0908D0290908E0289EA5D
:1058300094E00E94021F8DEB91E00E94BA1D61E08E
:1058400082E00E94251D8CEA91E00E94BA1D0E9410
:10585000811D8091E1019091E201805D97409093DC
:10586000E2018093E10110E000E08091EA018430E0
:1058700009F45CC162E082E00E94251D99E09A155E
:1058800010F00E94FF1E6AE070E08A2D0E94C3049F
:105890008AE30E94001EE9E0E81510F00E94FF1E56
:1058A0006AE070E0882D0E94C3040E94FB1E63E042
:1058B00082E00E94251DF9E0FB1510F00E94FF1EFA
:1058C0006AE070E08B2D0E94C3048EE20E94001EED
:1058D00029E0291510F00E94FF1E6AE070E0892D72
:1058E0000E94C30488EA91E00E94BA1D8091E10100
:1058F0009091E2010A9714F40E94FF1E8091E10149
:105900009091E2010E948F0361E08EE00E94251DCC
:1059100080916802882319F084EA91E002C080EA4D
:1059200091E00E94BA1D40E20111DBC462E080E018
:105930000E94401F61E080E00E94251D8BEF800FD8
:10594000863048F440E262E080E00E94401F63E05D
:1059500080E00E94251D8EE70E94001E402E512CE3
:105960003BE04316510418F5F201EC5CFF4F0C9438
:10597000413761E08EE019C062E007C062E008C014
:1059800062E009C062E00AC063E082E00EC063E04A
:1059900083E00BC063E085E008C063E086E005C0FB
:1059A00063E08AE002C063E08BE00E94251D61E0B5
:1059B00080E00E94F00C8091EA01823009F4A8C0D6
:1059C000833009F4AAC0813009F04FCF002349F099
:1059D000F2013197EA30F10590F4E15CFF4F0C944D
:1059E00041370E94591641CF4DE04A1518F06AE040
:1059F000A60E05C08A2D6AE00E940D37A92E11E07F
:105A000034CF8A2D6AE00E940D37993019F487EF60
:105A1000A80E01C0A39498E111E0A91226CF54E189
:105A2000A52E23CFE0E3E81518F0FAE08F0EE7CFBC
:105A3000882D6AE00E940D37892EE1CF882D6AE01B
:105A40000E940D37993019F427EF820ED8CF839436
:105A5000D6CF35E13B1518F04AE0B40ED0CF8B2DF0
:105A60006AE00E940D37B92E0DC08B2D6AE00E94AE
:105A70000D37993019F467EFB60E01C0B3948FE17A
:105A80008B1530F0B110BBCF11E0BB24B394EDCE39
:105A90004EE1B42EB4CF92E0991518F0EAE09E0ED4
:105AA000AECF892D6AE00E940D37992E9111A7CFB4
:105AB00011E099249394D9CEFBE0F91598F19394D1
:105AC0009ECF8091E1019091E2018935910514F416
:105AD0000A9604C06AE070E00E942D379093E201BC
