:100000000C9458020C9480020C9480020C949A0672
:100010000C949A060C949A060C94961A0C948002EE
:100020000C9480020C9480020C9480020C94D70AE9
:100030000C9480020C9480020C9480020C94800238
:100040000C94F1100C9480020C9480020C948002A9
:100050000C9480020C9480020C9480020C94800218
:100060000C942A070C9480029025932595259725BA
:1000700099259B259E25A125A425A725AA256F277F
:100080007C278D279927A427B027C627D727DC27C9
:10009000EE2781268426872689268B268D268F2685
:1000A000922695269826B526BC26C326D126E62676
:1000B000F4260227102724273227EA0DF30D070E16
:1000C000210E2D0E390E4B0E570E600E7A0E8F0E2E
:1000D000A10EBB0E28142B142E1431143414371413
:1000E0003A14426972746864617900486170707989
:1000F000004963682062696E206869657221005B4F
:10010000205D204D5033005B205D20526164696F9B
:10011000005B205D205765636B746F6E0020205B71
:100120006175735D0020205B616E205D004D503372
:1001300000526164696F00546F6E005765636B74A1
:100140006F6E202020205B20202020205D004E6547
:100150007565205765636B7A656974006175730016
:10016000616E200062697300766F6E005B20202054
:100170005D2044696D6D656E205B205D004E61639E
:1001800068746D6F647573207374656C6C656E0054
:1001900061757300616E20002E3230004E6163681D
:1001A000746D6F647573205B2020205D004E657553
:1001B00065205568727A6569742F446174756D00A5
:1001C0005A3A2000416B6B753A0020543A20005295
:1001D000414D3A2020004932433A20002D31393038
:1001E000343137004669726D776172653A2000627A
:1001F00079204E696B6F6C6169205261646B650098
:10020000446965736572204E4F4B4F2067656820C7
:100210007274004D65696E204E4F4B4F00446973F8
:1002200074616E7A6C696368742020205B205D00C5
:100230005374756D6D202020202020202020205B0D
:10024000205D00416B6B752073706172656E2020BC
:1002500020205B205D007765697465722E2E2E006C
:1002600044697374616E7A202B2F2D205B205D0012
:100270004576656E747320202B2F2D205B205D004A
:100280004C454420202020202B2F2D205B205D007A
:100290004E4F4B4F207374656C6C656E007A6569C8
:1002A00074207374656C6C656E00416C61726D20B6
:1002B0007374656C6C656E00537069656C20776152
:1002C0007320766F72004E61736520647220636BD9
:1002D000656E00206175662056002055706461745B
:1002E00065206572666F6C6772656963680050416E
:1002F000555345004B65696E65204D50337320673B
:100300006566756E64656E004765736368696368EA
:100310007465005B3C5D5B205D5B205D5B3E5D006A
:10032000476573636869636874656E20680041554A
:10033000582D45696E67616E6700456967656E6532
:1003400073206800526164696F206800070F1F1FE7
:100350001F1F1F1F1F1F1F00000000001C1E1F1F4C
:100360001F1F1F1F1F1F1F1F1F1F0F070000000041
:10037000001F1F1F1F1F1F1F1F1F1E1C1F1F1F00CF
:1003800000001F1F1F1F1F1F1F1F1F1F080C0E0F06
:100390000E0C080000000E0E0E0E0000000A0A0AE5
:1003A0000A0A000000050A140A05000000140A05E4
:1003B0000A140000000A0E151F0E0A000004041F94
:1003C0000E0A110001030509090B1B18000E151771
:1003D000110E0000040E0E0E1F000400205765636E
:1003E0006B746F6E202B2F2D205B205D00000000B2
:1003F00000240027002A000000000800020100007D
:10040000030407000000000000000020556872008F
:1004100072656E004765627572747374616721005E
:1004200053616D737461670046726569746167003A
:10043000446F6E6E2E746167004D697474776F63DC
:1004400068004469656E73746167004D6F6E746116
:100450006700536F6E6E7461670000000000250036
:1004600028002B00000000002300260029000404BF
:10047000040404040404020202020202030303034C
:100480000303010204081020408001020408102028
:1004900001020408102020416C61726D20004E6141
:1004A000736520647220636B656E0000972C8D2C41
:1004B00011241FBECFEFD8E0DEBFCDBF11E0A0E01A
:1004C000B1E0E0EBF3E602C005900D92AA37B10768
:1004D000D9F723E0AAE7B1E001C01D92AB32B20721
:1004E000E1F712E0C7E5D2E004C02197FE010E94C7
:1004F000B931C635D107C9F70E94B31D0C94CB3171
:100500000C940000DF92EF92FF920F931F93CF9312
:10051000DF93CDB7DEB72C970FB6F894DEBF0FBED2
:10052000CDBF64EC73E080E00E94481987EF92E051
:100530000E94DC1A60E082E00E94E21884E493E00A
:100540000E9477190E94E81361E082E00E94E2189D
:100550008AE393E00E9477190E94E81362E082E048
:100560000E94E2188EE293E00E94771963E082E035
:100570000E94E21880E293E00E9477190E94E8133B
:10058000E12C80919C01843009F42DC248E760E0A1
:1005900081E00E9476158091A001811102C040E2A5
:1005A00001C040E061E081E00E94761580919D01EC
:1005B000811102C040E201C040E062E081E00E949F
:1005C000761548E763E081E00E9476154EE76E2DD0
:1005D00080E00E94761561E081E00E94C012809167
:1005E0009C01823009F4EAC1833009F4F2C1813000
:1005F00041F6E81629F082E0E81609F4C5C1C1CF3A
:100600009091980180919E01992309F425C181114F
:1006100002C04C99FECF64E973E081E00E94481962
:100620006CE973E082E00E9448196CE873E083E0B3
:100630000E94481984EC93E00E94381563E084E03E
:100640000E94E21883E193E00E94771942E063E0A0
:100650008BE00E94761580919701882319F082E043
:10066000F82E02C0FF24F3940E943E19DD24D39497
:1006700080919C01843009F484C14C9909C0809117
:100680009701811105C080919F01882309F4BBC1A6
:1006900060E082E00E94E21880919F01882329F0A7
:1006A00088E093E00E94771914C084E60E949412B7
:1006B0000CE010E09E012F5F3F4F40E060E082E5DC
:1006C0000E941618BE016F5F7F4F87EF92E00E9475
:1006D000B71A62E087E00E94E2184C9B05C0809147
:1006E0009F01882309F4AAC1809100018A3010F487
:1006F0000E94F3136AE070E0809100010E94D30E23
:100700008FE20E949819809198018A3010F40E941B
:10071000F3136AE070E0809198010E94D30E60E0CC
:100720008FE00E94E21880919701882329F08EEED5
:1007300092E00E94771905C045E060E08FE00E94DA
:1007400069154C9906C080919701811102C043E060
:1007500001C041E063E088E00E9476158F2D880F8C
:100760008F0D63E08B5F0E94E21861E081E00E94E0
:10077000C01280919C01823009F45BC0833009F47F
:1007800062C0813009F074CFF816E1F0F81638F045
:1007900082E0F81659F183E0F81679F169CF80917B
:1007A0000001823018F081508093000180919F01F8
:1007B000882321F010929F01D092A0014C9930C063
:1007C000F12C56CF4C990DC0F092A00190910001F0
:1007D00080919601890F81590E94450BF0929E01EC
:1007E00002C00E94760B0E94840B42CF8091970139
:1007F0004C992EC181112CC13BCF80910001909169
:100800009801891718F48F5F8093000180919F01F0
:10081000882321F010929F01D092A0014C9B28CFF9
:100820009091000180919601890F81590E94450B9A
:100830001FCF8091970181111BCF82E08F1508F4A3
:1008400017CFF39415CF80919701811111CFFF201D
:1008500009F4B6CFFA940CCF811102C04C99FECFA7
:1008600064E973E081E00E9448196CE973E082E07A
:100870000E9448196CE873E083E00E94481984ECF8
:1008800093E00E94381563E084E00E94E21883E15F
:1008900093E00E94771942E063E08BE00E947615B6
:1008A00080919701882311F012E001C011E00E94AD
:1008B0003E1980919C01843009F463C061E080E0BE
:1008C0000E94E21884EF92E00E94771960E08FE0C6
:1008D0000E94E21880919701882329F08EEE92E021
:1008E0000E94771905C045E060E08FE00E9469151D
:1008F0004C9906C080919701811102C043E001C06C
:1009000041E063E088E00E947615812F880F810F17
:1009100063E08B5F0E94E21861E081E00E94C012F8
:1009200080919C018230D9F0833011F1813009F639
:10093000113021F0123009F0BCCF0AC04C9903C02D
:1009400010939E0102C00E94760B0E94840BB1CFCF
:10095000809197014C998AC0811188C0AACF80915B
:1009600097018111A6CF133008F0A3CF1F5FA1CF4D
:100970008091970181119DCF112309F49ACF1150D5
:1009800098CF0E94D513FDCD80919D01811109C0A2
:1009900080919701811102C04C9977C05E985F9A4F
:1009A00002C05E9A5F9890919D0181E089278093B3
:1009B0009D0184EF91E00E942A13E3CD40E26E2D69
:1009C00080E00E94761582E08E1508F4DACDE3947B
:1009D000D8CD40E26E2D80E00E947615EE2009F41D
:1009E000D0CDEA94CECD0E94D5132C960FB6F894B4
:1009F000DEBF0FBECDBFDF91CF911F910F91FF9052
:100A0000EF90DF9008958091960190E081599F4F7B
:100A100020910001820F911D00E010E020E030E005
:100A2000482F692F83E00E94161884E60E949412D2
:100A30000E94760B84E60E9494122ACE84E60E94DD
:100A400094128BE40E9494188759809300014CCE35
:100A5000882339F05E98109297018DE00E94B918B2
:100A600007CED09297010E94C61802CE882339F093
:100A70005E98109297018DE00E94B9181ACF81E01C
:100A8000809397010E94C61814CF0E94760B86CFE0
:100A9000CF93809195018823E9F180919401909101
:100AA000930120918B02981730F4C1E0821768F00F
:100AB000291758F009C0891738F4C0E0821728F4C4
:100AC000291718F4C1E001C0C0E0891310C050918B
:100AD000920130919101351738F040918A02451703
:100AE00018F0341708F0C1E0381708F4C1E02813F3
:100AF00007C030918A0280919201381708F0C1E056
:100B0000291309C090918A0280919101981718F4D5
:100B1000C1E001C0C0E080919001C81749F0CC232A
:100B200011F087E401C086E60E94450BC093900156
:100B30008C2FCF910895CF93DF930E94CF0AC9E8FD
:100B4000D2E089830E9452090E94DC098091AC01A5
:100B50008A83DF91CF91089587EF92E00E94DC1A9B
:100B60000E94D5130E94F6130C94851585ED809391
:100B7000BC008091BC0084FDFCCF1092B6020895A9
:100B80004091E701262F30E0240F311D213231053D
:100B9000DCF42091B6022430C9F4FC0180E090E03E
:100BA000861758F43091E7012191DC01AB53BE4F19
:100BB000A30FB11D2C930196F3CF8091E701680F2D
:100BC0006093E70180E0089581E0089582E0089550
:100BD0000895E091130380911203E81730F4F0E0D8
:100BE000E759FD4F808190E008958FEF9FEF0895C2
:100BF0009091130380911203981750F4E92FF0E0BD
:100C0000E759FD4F208130E09F5F9093130302C0AE
:100C10002FEF3FEFC90108958091120390E02091DA
:100C20001303821B91090895CF92DF92EF92FF92F6
:100C30000F931F93CF93DF937C01262F972F8A0169
:100C40008091B702882391F0C62FD72F6E01C40E72
:100C5000D51ECC15DD0571F06991D701ED91FC91A0
:100C60000190F081E02DC7010995F3CF642F822F09
:100C70000E94C005C801DF91CF911F910F91FF9095
:100C8000EF90DF90CF900895CF93DF931F92CDB771
:100C9000DEB769832091B7022223D1F0209110039F
:100CA000203240F021E030E0FC013383228380E0F9
:100CB00090E015C080911103E82FF0E0E854FD4F5B
:100CC000998190838F5F809311038093100305C0F7
:100CD00061E0CE0101960E94C00581E090E00F9096
:100CE000DF91CF9108956093C1017093C201809309
:100CF000C3019093C401DC01CB01845D9E4FAF4FD3
:100D0000BF4F8093BD019093BE01A093BF01B093EC
:100D1000C00182E090E09093BC018093BB010E94EF
:100D2000E5106093B7017093B8018093B901909377
:100D3000BA0108951F920F920FB60F9211242F93AC
:100D40003F934F935F936F937F938F939F93AF9353
:100D5000BF93EF93FF93E0914E02F0914F023097D3
:100D600009F451C0968DA685B785858591FF04C08D
:100D70009C91892329F447C09C91892309F043C0A1
:100D8000A389B4899C918589809589238C938689D0
:100D900097890197F1F7608D718DA685B785558587
:100DA00038E020E0CB010197F1F7822F90E0959594
:100DB0008795282F4C91452309F02068315091F7F1
:100DC000868D81FD209580914C0290E001968F7375
:100DD000992730914D02381749F0A0914C02B0E0AC
:100DE000A45FBD4F2C9380934C0203C0868D81601D
:100DF000868F828D938D0197F1F7A389B4899C9199
:100E00008589892B8C93FF91EF91BF91AF919F9131
:100E10008F917F916F915F914F913F912F910F90A3
:100E20000FBE0F901F901895E0914E02F0914F0267
:100E3000E817F90769F4A389B4899C91858980959D
:100E400089238C9310924F0210924E0281E00895F4
:100E500080E008951F920F920FB60F9211242F93E6
:100E60003F934F935F936F937F938F939F93AF9332
:100E7000BF93EF93FF938091B900887F803609F488
:100E80009CC068F5883209F45BC090F4803109F4A5
:100E900054C038F4882309F4F6C0883009F44DC0F2
:100EA000F6C0883109F44CC0803209F45DC0EFC04F
:100EB000803409F468C048F4803309F455C088339D
:100EC00009F0E5C08093B402D8C0803509F44FC062
:100ED000883509F45DC0883409F0D9C0D6C0883996
:100EE00009F4C7C0A8F4883709F467C038F4883615
:100EF00009F463C0803709F460C0C9C0883809F4B8
:100F0000B8C0803909F45FC0803809F0C0C05BC048
:100F1000803B09F486C038F4803A09F466C0883A08
:100F200009F47FC0B4C0803C09F4A7C0883C09F430
:100F3000A4C0883B09F48AC0AAC08091910210C065
:100F40009091B3028091B202981770F5E091B302CC
:100F500081E08E0F8093B302F0E0EE56FD4F80816A
:100F60008093BB0085EC86C08093B4028EC0E09174
:100F7000B30281E08E0F8093B3028091BB00F0E05A
:100F8000EE56FD4F80839091B3028091B2026EC005
:100F9000E091B30281E08E0F8093B3028091BB0099
:100FA000F0E0EE56FD4F80838091B50281116DC057
:100FB00081E08093900284EA61C083E08093B6026E
:100FC00010920B02CFCF80910B02803208F051C0FB
:100FD000E0910B0281E08E0F80930B028091BB00A9
:100FE000F0E0E551FE4F8083BDCF85EC8093BC00DF
:100FF0001092B60280910B02803230F4E0910B0225
:10100000F0E0E551FE4F108260910B0270E0E0913C
:10101000E901F091EA018BEE91E0099510920B0243
:1010200036C084E08093B6021092E8011092E70186
:10103000E091E501F091E60109958091E7018111C8
:1010400005C081E08093E7011092C501E091E801BD
:1010500081E08E0F8093E801F0E0EB53FE4F80813A
:101060008093BB009091E8018091E701981708F404
:1010700079CF85E88093BC000AC085EC8093BC00E2
:101080001092B60204C01092B4020E94B605FF91FD
:10109000EF91BF91AF919F918F917F916F915F91F0
:1010A0004F913F912F910F900FBE0F901F90189569
:1010B0001092B60281E08093B5021092900261E036
:1010C00082E10E94EC0F61E083E10E94EC0FE9EB0A
:1010D000F0E080818E7F808380818D7F808388E4B3
:1010E0008093B80085E48093BC0008953F924F92AE
:1010F0005F926F927F928F929F92AF92BF92CF92A8
:10110000DF92EF92FF920F931F93CF93DF93382ECE
:10111000962E842EF90184E6E816F1042CF082EB79
:10112000E81A87E0F80A03C08EE1E80EF11CE092AD
:10113000B0010093AF01E093AE013092AC01909208
:10114000AB018092AA01AE2DB0E020E833E341EE7E
:1011500051E00E9414302B013C0122EB37E0FF24C8
:1011600084E6C82ED12CC0E9D1E0C901825B97404A
:101170008E159F05DCF4C90183709927892B99F49A
:10118000C901B6010E94A531892B31F4C901BE0104
:101190000E94A531892B39F480E8480E81E5581E5C
:1011A00081E0681E711C2F5F3F4FDFCF8EE4E81A8D
:1011B00088EFF80AC70164E670E00E94A5316C016F
:1011C000C70160E971E00E94A5315C01C1E0D0E097
:1011D000112783E0E822FF24C017D1072CF5C23085
:1011E000D10589F4E114F10471F4C114D10419F4A6
:1011F000A114B10441F480E8480E8BE3581E86E246
:10120000681E711C0FC0DE01A65FBE4FAC91B0E03E
:1012100020E831E541E050E00E941430460E571EB0
:10122000681E791E2196D8CF292D30E0ACE3B0E0BE
:101230000E945E306B017C01C80CD11CE11CF11CCA
:10124000232D30E0A0E1BEE00E945E30C60ED71E26
:10125000E81EF91EDF01BB27119720E831E541E0C8
:1012600050E00E941F30DC01CB018C0D9D1DAE1D96
:10127000BF1DBC01CD01640D751D861D971DDF913D
:10128000CF911F910F91FF90EF90DF90CF90BF9083
:10129000AF909F908F907F906F905F904F903F9016
:1012A0000C947306CF92DF92EF92FF920F931F93ED
:1012B0000E94E510C090B701D090B801E090B9014C
:1012C000F090BA018B019C010C191D092E093F09F0
:1012D0008091C1019091C201A091C301B091C4015C
:1012E000083E134021053105D0F00196A11DB11D26
:1012F0008093C1019093C201A093C301B093C40134
:10130000B701A60148515C4F6F4F7F4F4093B70123
:101310005093B8016093B9017093BA01C9CF40915D
:10132000BD015091BE016091BF017091C001841751
:101330009507A607B70788F1E091B501F091B601CE
:10134000309759F10995611571058105910519F0DD
:101350000E94730622C08091C1019091C201A091A8
:10136000C301B091C401845D9E4FAF4FBF4F8093C6
:10137000BD019093BE01A093BF01B093C00181E075
:1013800090E02091BB013091BC01232B11F480E04F
:1013900090E09093BC018093BB016091C10170917A
:1013A000C2018091C3019091C4011F910F91FF90E0
:1013B000EF90DF90CF9008954F925F926F927F925F
:1013C0008F929F92AF92BF92CF92DF92EF92FF9255
:1013D0000F931F93CF93DF934B015C018091B10179
:1013E0009091B201A091B301B091B4018816990611
:1013F000AA06BB0609F4C2C08CE3C82ED12CE12C8E
:10140000F12CC501B401A70196010E94D32F60936E
:10141000AA01CA01B901A70196010E94D32F6093C6
:10142000AB01CA01B90128E130E040E050E00E9480
:10143000D32F69017A016093AC01CA01B9016C5FD5
:101440007F4F8F4F9F4F27E030E040E050E00E94F9
:10145000D32F6F5F6093AD01412C512C320140E0DE
:1014600004E610E0C0E9D1E0242F30E02E54384FDC
:10147000F901E370FF27309789F4C901B8010E9490
:10148000A531892B31F4C901BE010E94A531892BF8
:1014900029F48EE691E0A0E0B0E004C08DE691E092
:1014A000A0E0B0E0480E591E6A1E7B1ED301C201A7
:1014B000AA27BB27C816D906EA06FB0610F04F5F1D
:1014C000D3CF4093B001309799F4C90164E670E03E
:1014D0000E94A531892B39F4C90160E971E00E94AD
:1014E000A531892B29F48EE691E0A0E0B0E004C09C
:1014F0008DE691E0A0E0B0E0481A590A6A0A7B0A3A
:10150000C418D508E608F708C90164E670E00E942F
:10151000A531EC01C90160E971E00E94A531ABE0A1
:10152000B1E020E0213039F4309749F4209729F4D4
:10153000009729F402C04C9103C04DE101C04CE179
:1015400050E060E070E0C416D506E606F70640F00D
:10155000C41AD50AE60AF70A2F5F11962C3011F744
:101560002F5F2093AF01C394C092AE018092B1016E
:101570009092B201A092B301B092B401DF91CF91E9
:101580001F910F91FF90EF90DF90CF90BF90AF90A1
:101590009F908F907F906F905F904F9008950E94E2
:1015A00052090E94DC098091AB0190E008951F92DE
:1015B0000F920FB60F9211240F931F932F933F9307
:1015C0004F935F936F937F938F939F93AF93BF934B
:1015D000EF93FF930E94E5100091A6011091A701DF
:1015E0002091A8013091A901601771078207930724
:1015F000B8F080916F008D7F80936F0082E08093C0
:10160000810081E080938000E091A401F091A50128
:1016100090818091A3018095892380831092A301FA
:10162000E091A401F091A50190818091A301892707
:101630008083FF91EF91BF91AF919F918F917F91A7
:101640006F915F914F913F912F911F910F910F904B
:101650000FBE0F901F9018952091A1013091A2010B
:10166000A901480F511DCA010C94B52F2091A10169
:101670003091A201A901480F511DCA010C94AD2F50
:101680005E9886E490E00C942A130F931F93CF93F7
:10169000DF931F92CDB7DEB789830E94400B00E035
:1016A00010E020E030E08981482F60E083E00E9474
:1016B000161884E60E9494128091A001882319F0E4
:1016C00081E00E94C91880919F01882349F000E0C1
:1016D00010E020E030E040E064E081E10E94161874
:1016E0000F90DF91CF911F910F9108950E94C6181E
:1016F00084E60E94941210929F011092A001109211
:101700009E0184E00C94C9185F9810929D01089581
:10171000CF93823009F478C038F4882329F18130DE
:1017200009F0B9C0CAE061C0843009F48FC008F480
:1017300073C0853009F0AFC028EC30E041E068ECC0
:1017400070E088E592E00E94711428EC30E041E0FE
:1017500068EC70E084EF91E00E9471142CE231E0BB
:1017600041E068EC70E092C02DE431E041E06AEFC6
:1017700070E086E091E00E94711427EA30E041E0D9
:101780006DE770E084EC90E00E94711427EA30E08D
:1017900041E06DE770E084EC90E00E9471142DE46C
:1017A00031E041E06AEF70E08CED90E00E9471144E
:1017B0002AE932E041E06AEF70E084EC90E00E94B8
:1017C00071142DE431E041E06AEF70E087EF90E0C2
:1017D0000E9471142DE431E041E06AEF70E086E090
:1017E00091E056C0C15009F456C024E630E041E013
:1017F00062E370E088EB91E00E94711480919C019B
:10180000843081F7C0E0EECF24EF31E041E068ECB6
:1018100070E088EB91E03CC024E630E041E064E613
:1018200070E088E592E00E94711424E630E041E027
:1018300064E670E08CEB92E00E9471142CE231E0DF
:1018400041E064E670E080E293E022C024E630E00C
:1018500041E060E570E088E592E00E94711424E6C2
:1018600030E041E060E570E080E991E00E947114B1
:1018700024E630E041E060E570E084EF91E00E9412
:10188000711428EC30E041E060E570E080E991E01F
:10189000CF910C947114CF910895CF93DF93C82FFB
:1018A00087EF92E00E94DC1A8EE70E9498198CED77
:1018B00093E00E94771960E08FE00E94E2180E9496
:1018C0003E196AE070E0C13019F480919B0102C0BA
:1018D00080919A010E94D30E0E94400B81E0809378
:1018E0009901D0E080919C018430F1F160E08FE0BB
:1018F0000E94E21861E081E00E94C01280919C0188
:10190000813081F7C130A9F490919B01953019F491
:1019100010929B0103C09F5F90939B016AE070E06F
:1019200080919B010E94D30E80919B010E94880BA5
:1019300019C090919A019A3019F410929A0103C03B
:101940009F5F90939A016AE070E080919A010E94F3
:10195000D30E80919E01811105C080919A018F5F05
:101960000E94450BD1E0BECFDD2359F0C13021F4F8
:1019700060919B0187E003C060919A0183E10E941E
:101980002C0B80919E01811102C00E94C6181092FA
:101990009901DF91CF910895CF92DF92EF92FF925C
:1019A0000F931F93CF93DF936C017A018B01C0E0FB
:1019B000D0E0CE15DF0589F0D8016D918D01D601FB
:1019C000ED91FC910190F081E02DC6010995892BE4
:1019D00011F47E0102C02196ECCFC701DF91CF91B7
:1019E0001F910F91FF90EF90DF90CF90089520917D
:1019F0004E0230914F022817390771F490914D0231
:101A000080914C02981741F0E0914D02F0E0E45FC4
:101A1000FD4F808190E008958FEF9FEF0895089526
:101A20001F93CF93DF93DC015C962D913C915D97E2
:101A30002115310539F481E090E013969C938E9343
:101A400012973DC05196ED91FC91529750969C9102
:101A50005097892F80951FB75E964C915E9741FBFA
:101A6000772770F941FD6095F8944081772311F054
:101A7000492B01C048234083E9012197F1F748E051
:101A8000508160FF02C0592B01C058235083E901E7
:101A90002197F1F76695415099F7772321F09081CE
:101AA0008923808303C08081982B90831FBF5C961D
:101AB0008D919C915D970197F1F721E030E0C9018C
:101AC000DF91CF911F91089520914E0230914F02E6
:101AD0002817390771F480914C0220914D0290E053
:101AE000805C9F4F821B910960E470E00E94A531E9
:101AF000089580E090E0089520914E0230914F02C9
:101B000028173907B9F490914D0280914C0298172B
:101B100089F0E0914D02F0E0E45FFD4F808120917B
:101B20004D0230E02F5F3F4F2F73332720934D023C
:101B300090E008958FEF9FEF08950E94BF31CF92FC
:101B4000DF92EF92FF92CF93DF936C01990FEE0833
:101B5000FF08F7FE17C08DE20E949819EC01662776
:101B60007727CB016C197D098E099F094AE00E94F5
:101B7000A3198C0F9D1FDF91CF91FF90EF90DF9005
:101B8000CF9008954AE0C701B601DF91CF91FF9051
:101B9000EF90DF90CF900C94A319CF93C62F809332
:101BA0005A021092590243E060E00E946915609168
:101BB00059026F5F43E080915A020E9469158C2F91
:101BC00090E08D30910508F0ECC0FC01E35AFF4F26
:101BD0000C94B93140E06091590280915A020E9400
:101BE000761581E075C041E06091590280915A02FA
:101BF0000E94761582E00E949819609159026F5FE9
:101C000044E080915A020E94761587E016C046E0B3
:101C10006091590280915A020E94761586E00E94D6
:101C2000981982E00E949819609159026F5F43E011
:101C300080915A020E94761584E00E94981984E0EF
:101C4000ADC046E06091590280915A020E9476151B
:101C500086E00E94981982E017C043E06091590223
:101C600080915A020E94761584E00E94981987E0BC
:101C70004CC043E06091590280915A020E9476154F
:101C800086E00E94981986E00E9498196091590296
:101C90006F5F44E026C040E06091590280915A0293
:101CA0000E94761586E00E94981986E014C041E0F3
:101CB0006091590280915A020E94761581E022C0FB
:101CC00040E06091590280915A020E94761586E0A8
:101CD0000E94981982E00E949819609159026F5FE2
:101CE00043E080915A020E94761584E00E94981980
:101CF00085E054C040E06091590280915A020E94F0
:101D0000761586E00E94981982E00E9498196091E9
:101D100059026F5F80915A0247E08E5F0FC0809139
:101D20005A0244E0609159028F5F0E9476156091DB
:101D300059026F5F80915A0244E08F5FCF910C94FB
:101D4000761540E06091590280915A020E94761502
:101D500082E00E94981980E00E94981960915902CF
:101D60006F5F47E080915A020E94761583E00E94DF
:101D7000981987E013C047E06091590280915A0298
:101D80000E94761580E00E949819609159026F5F59
:101D900047E080915A020E94761583E0CF910C941F
:101DA0009819CF910895AB01672B59F4E091F70290
:101DB000F091F8020190F081E02D682F87EF92E01A
:101DC0000994682F70E080E090E00C94A3191F93B1
:101DD000CF93DF931F92CDB7DEB7182F87E5998396
:101DE0000E944B179981692F84E193E00E94440679
:101DF000612F84E193E00E9444060E94EE1661E0A8
:101E000070E087E590E00E94CB17909112038091DB
:101E10001303981729F084E193E00E94F80501C0AC
:101E20008FEF0F90DF91CF911F9108954F925F92A6
:101E30006F927F928F929F92AF92BF92CF92DF92DA
:101E4000EF92FF926B017C01B42E9B01AC010E94CA
:101E50008031882319F06DE671E027C02601370133
:101E6000E89477F82FEF3FEF4FE75FE7C301B20148
:101E70000E94803181110DC02FEF3FEF4FE75FE7E8
:101E8000C301B2010E94892E18161CF461E771E0AB
:101E90000CC02FEF3FEF4FE75FE4C701B6010E9490
:101EA0007B31181694F465E771E087EF92E0FF90BC
:101EB000EF90DF90CF90BF90AF909F908F907F90EA
:101EC0006F905F904F900C94B71A2FEF3FEF4FE752
:101ED0005FECC701B6010E94892E87FDE4CF20E0A8
:101EE00030E0A901C701B6010E94892E87FF09C011
:101EF0008DE20E9498194C01F7FAF094F7F8F094EB
:101F000002C0812C912CA12C60E070E080E09FE366
:101F1000AB1440F420E030E040E251E40E94DA30BB
:101F2000A394F6CF9B01AC01C701B6010E946E30AD
:101F30002B013C010E944C316B017C010E948E2ED2
:101F40009B01AC01C301B2010E946D302B013C0129
:101F50004AE0C701B6010E94A3197C01E80CF91CF4
:101F6000BB2029F08EE20E949819E80EF91EDB2CA6
:101F7000DD2021F120E030E040E251E4C301B20174
:101F80000E94EF2E2B013C010E944C314B01A12CF1
:101F9000B12C4AE0C501B4010E94A319E80EF91E54
:101FA000C501B4010E948E2E9B01AC01C301B20198
:101FB0000E946D302B013C01DA94DACFC701FF900B
:101FC000EF90DF90CF90BF90AF909F908F907F90D9
:101FD0006F905F904F90089590E0FC01E950FC4FA6
:101FE0003491FC01EE57FB4F2491FC01E259FB4F69
:101FF000E491EE2309F43BC0332339F1333091F0FF
:1020000038F43130A9F0323001F584B58F7D12C03B
:10201000373091F03830A1F03430B9F4809180003D
:102020008F7D03C0809180008F77809380000DC0EA
:1020300084B58F7784BD09C08091B0008F7703C0CD
:102040008091B0008F7D8093B000F0E0EE0FFF1F15
:10205000E65AFB4FA591B4918FB7F894EC916111BA
:1020600003C020952E2301C02E2B2C938FBF0895E3
:10207000CF93DF9390E0FC01EE57FB4F2491FC01DE
:10208000E259FB4F8491882361F190E0880F991FFA
:10209000FC01E351FC4FC591D491FC01E65AFB4F82
:1020A000A591B491611109C09FB7F89488812095DA
:1020B00082238883EC912E230BC0623061F49FB79A
:1020C000F8943881822F809583238883EC912E2B7E
:1020D0002C939FBF06C08FB7F894E8812E2B2883DE
:1020E0008FBFDF91CF910895CF93DF93EC0161E033
:1020F0008AE00E943810209711F460E004C0CF3FBE
:10210000D10531F461E08AE0DF91CF910C94EC0FBE
:10211000E1E0F4E0E491E330F9F048F4E130B9F0C3
:10212000E230A1F584B5806284BDC8BD34C0E7301B
:10213000E9F0E83019F1E43049F5809180008062DF
:1021400080938000D0938B00C0938A0024C084B514
:10215000806884BDC7BD1FC0809180008068809367
:102160008000D0938900C093880015C08091B00092
:1021700080688093B000C093B3000DC08091B00020
:1021800080628093B000C093B40005C0C038D10510
:102190000CF0B8CFB2CFDF91CF9108958E3008F018
:1021A0008E508770806480937C0080917A00806478
:1021B00080937A0080917A0086FDFCCF8091780030
:1021C0002091790090E0922B08952FB7F8946091B8
:1021D00055027091560280915702909158022FBF7C
:1021E00008951F920F920FB60F9211242F933F93D1
:1021F0008F939F93AF93BF93809155029091560216
:10220000A0915702B09158023091540223E0230F5D
:102210002D3720F40196A11DB11D05C026E8230F1E
:102220000296A11DB11D20935402809355029093F4
:102230005602A0935702B093580280915002909199
:102240005102A0915202B09153020196A11DB11DFD
:102250008093500290935102A0935202B093530284
:10226000BF91AF919F918F913F912F910F900FBE92
:102270000F901F90189583FD02C098E001C098E26E
:102280008770892B98E10FB6F894A8959093600019
:102290000FBE80936000A895809160008064809359
:1022A000600080916102882319F083B7817F0BC0A1
:1022B00080915B02882321F083B7817F846003C013
:1022C00083B7817F8C6083BF83B7816083BF85B70D
:1022D000806685BF8F7D85BF80916400816080931B
:1022E0006400889583B78E7F83BF0FB6F894A89556
:1022F00080916000886180936000109260000FBE42
:10230000809160008F7B80936000809164008E7F5D
:1023100080936400089580918E029DEF980F98300D
:1023200008F06DC09CEF980F963008F466C08330BB
:1023300089F520918D02409167025091680235E045
:10234000349FC001359F900D112497FD03969595FC
:10235000879595958795049667E070E00E94A53172
:102360004FE150E0BA01681B790B38E1369FA001BC
:10237000379F500D11244F5F5F4F80918B0278E1A2
:10238000279F90011124280F311D81E04217530728
:10239000BCF135C08A3099F520918D0240916702D9
:1023A0005091680235E0349FC001359F900D112493
:1023B00097FD03969595879595958795019667E086
:1023C00070E00E94A5314FE150E0BA01681B790B23
:1023D00038E1369FA001379F500D11244F5F5F4FAA
:1023E00080918B0278E1279F90011124280F311DE5
:1023F00081E04217530724F402C081E0089580E091
:102400000895EF92FF920F931F93CF93DF9388E687
:102410000E944B1760E084E193E00E9444060E9412
:10242000EE1667E070E088E690E00E94CB1784E14A
:1024300093E00E94F805C9E8D2E0982F969596950A
:1024400096959E70292F220F220F920F8F70890F61
:10245000888384E193E00E94F805982F92959F70FD
:102460008F702AE0929F800D1124898384E193E08C
:102470000E94F805982F9695969596959670292F17
:10248000220F220F920F8F70890F8A8384E193E0CD
:102490000E94F805982F92959F708F702AE0929F66
:1024A000800D11248B8384E193E00E94F805982F1E
:1024B00092959F708F702AE0929F800D11248C83DB
:1024C00084E193E00E94F805982F92959F708F7099
:1024D0002AE0929F800D11248D8384E193E00E9475
:1024E000F805982F9F70925E82958F70E92E2AE0F2
:1024F000829FE00C1124EE82F12C8EE4E81A88EF22
:10250000F80A0D8110E02C8130E0488150E06981AB
:1025100070E08A8190E00E947608DF91CF911F9150
:102520000F91FF90EF900895CF93C82F8091610293
:10253000882329F080916400806280936400C7FF43
:1025400004C083E00E943B11C857C03420F082E0F1
:102550000E943B11CC53C03220F081E00E943B111D
:10256000CE51C03118F080E00E943B118091610291
:10257000882321F08091640010926400CF91089527
:10258000CF92DF92EF92FF921F93CF93DF93C82FEA
:10259000D62F0E94E5106B017C0120E6C20E2AEEC8
:1025A000D21EE11CF11C10929C0114E090919C0140
:1025B000911115C08C2F0E94B71B80939C01D111E3
:1025C00004C088E70E949412F1CF0E94E510C6165D
:1025D000D706E806F90650F710939C01E7CF82E38F
:1025E000DF91CF911F91FF90EF90DF90CF900C94EF
:1025F00094128F929F92AF92BF92CF92DF92EF92FE
:10260000FF926C010E94E5104B015C01E12CF12C62
:102610000E94E510DC01CB0188199909AA09BB09C0
:102620008C159D05AE05BF0528F481E00E94B71BFF
:10263000843071F781E00E94B71B843011F48093DD
:102640009C01FF90EF90DF90CF90BF90AF909F9054
:102650008F9008958F929F92AF92BF92CF92DF9208
:10266000EF92FF926C010E94E5104B015C01E12C9E
:10267000F12C0E94E510DC01CB0188199909AA0907
:10268000BB098C159D05AE05BF0598F3FF90EF9033
:10269000DF90CF90BF90AF909F908F900895CF9292
:1026A000DF92EF92FF920F931F93CF93DF93C62F8A
:1026B0002FB7F8944091500250915102609152020C
:1026C0007091530296B5A89B06C09F3F21F04F5FC3
:1026D0005F4F6F4F7F4F2FBF762F652F542F4427AB
:1026E000490F511D611D711D32E0440F551F661FBA
:1026F000771F3A95D1F79A01220F331F220F331F0C
:1027000042275327BA01660F672F661F770B719513
:1027100046275727BA017695762F662777956795CE
:10272000082F10E06427752780E090E00E948E2E2D
:1027300020E03FEF4FE757E40E94DA306B017C0165
:10274000D0E0C01BD10BBE01DD0F880B990B0E949E
:10275000902E9B01AC01C701B6010E94EF2E6B01C8
:102760007C01B801110F880B990B0E94902E9B01E0
:10277000AC01C701B6010E946E300E944C31862F19
:10278000DF91CF911F910F91FF90EF90DF90CF904D
:10279000089580E090E00E9474100E941C1981E06E
:1027A00080935B021092610208950F931F93CF9361
:1027B0000CE413E0C0E0B8018C2F0E944819CF5FF1
:1027C000085F1F4FC830B9F7CF911F910F9108953F
:1027D0008FEE0E94981980E194E00C9477198BE0B9
:1027E00094E00C94771980E30C9498190E94520994
:1027F0000E94DC098091B00190E08E54984F909334
:102800006802809367020E9452090E94DC0980914D
:10281000AE0180938D020E9452090E94DC098091D2
:10282000AF0180938E0263E080E00E94E2180E9474
:1028300052090E94DC09E091AD018E2F90E0FC016D
:102840003197E730F105D0F4E659FF4F0C94B931D8
:1028500082E594E011C08BE494E00EC082E494E041
:102860000BC089E394E008C080E394E005C088E2EF
:1028700094E002C080E294E00E94771963E08AE06D
:102880000E94E21880918D028A3010F40E94F313A6
:102890006AE070E080918D020E94D30E8EE20E9469
:1028A000981980918E028A3010F40E94F3136AE026
:1028B00070E080918E020E94D30E8EE20E949819E1
:1028C00080916702909168020E949F0D809165023D
:1028D000909166020A9724F460E082E10C94E21879
:1028E00008958F929F92AF92BF92CF92DF92EF9214
:1028F000FF920F931F93CF93DF93142FE9014B01A6
:10290000A12CB12C9C0140E050E060E079E08DE327
:1029100090E00E94D32F69017A0181E0C81AD108A2
:10292000E108F108C114D104E1E0EE06F10458F029
:10293000CD2CDE2CEF2CFF24F1E0CF1AD108E108DA
:10294000F10804E001C001E081149104A104B10484
:1029500079F00E94E510860E971EA81EB91E80927F
:10296000A6019092A701A092A801B092A9010BC064
:102970008FEF9FEFDC018093A6019093A701A093B6
:10298000A801B093A9018091A301811122C0EDE8B3
:10299000F4E084918093A30169E774E0FB019491D2
:1029A000E92FF0E0EE0FFF1FE65AFB4F259134911F
:1029B0003093A5012093A401FB016491E62FF0E080
:1029C000EE0FFF1FE351FC4FA591B491EC918E2BBC
:1029D0008C93D0928700C092860080918400909161
:1029E0008500A0E0B0E0C816D906EA06FB0620F490
:1029F000D0928500C092840000610093810080E144
:102A00008093800080916F00826080936F0011112D
:102A10000FC0CE01DF91CF911F910F91FF90EF90EA
:102A2000DF90CF90BF90AF909F908F900C942A131F
:102A300080919C01843079F0CE01DF91CF911F917C
:102A40000F91FF90EF90DF90CF90BF90AF909F904D
:102A50008F900C94F912DF91CF911F910F91FF90FD
:102A6000EF90DF90CF90BF90AF909F908F900895A0
:102A7000EF92FF920F931F93CF93DF938C0160E44B
:102A800087EF92E00E94CC1AE3E7F0E03197F1F78C
:102A9000E801085F1F4F8BE9E82EF12C699187EF61
:102AA00092E00E94FA19C7010197F1F7C017D10708
:102AB000A9F787EF92E00E94DC1A80E00E94981943
:102AC00080E2DF91CF911F910F91FF90EF900C94D6
:102AD0009819CF93C42F0E94E218CC2329F080E2EA
:102AE0000E949819C150F9CFCF910895CF93DF93E9
:102AF0001F92CDB7DEB749830E94E2184981842F27
:102B00000F90DF91CF910C949819CF930E949B0561
:102B10000E9448058093640280918B028A3010F4F1
:102B200060E004C06AE00E948531682F81E00E9465
:102B3000CD0D80918B02CAE06C2F0E948531692FE8
:102B400084E00E94CD0D6AE087E00E94CD0D809167
:102B50008A028A3010F460E004C06C2F0E94853134
:102B6000682F8AE00E94CD0D80918A026AE00E945F
:102B70008531692F8DE00E94CD0D43E061E081E158
:102B80000E94691561E081E10E94E2188091630270
:102B9000811104C080916202811103C088E70E9404
:102BA000981980916102882319F084E40E94981991
:102BB00080919501882349F080916402882311F067
:102BC0008EE401C08EE60E949819809160028823ED
:102BD00041F062E083E00E94E21884E194E00E9408
:102BE000771943E062E081E10E94691562E081E1CA
:102BF0000E94E21880915F02882319F084EF0E94FE
:102C0000981980919701882319F080E70E949819FC
:102C100080915E02882319F083E50E9498198091C3
:102C20009E01811108C080919D01811104C0809195
:102C30005D02882319F080E50E94981986E00E94C1
:102C4000CE109093660280936502C4E08AE00E94F1
:102C5000941286E00E94CE102091650230916602A7
:102C6000820F931F9093660280936502C15071F7A3
:102C700065E070E00E94A531072E000C880B990BCF
:102C80000E94902E20E030E040EA5BE30E94EF2EAD
:102C900026E636E646E350E40E946D3026EF3DEF2F
:102CA00044E55CE30E94DA300E944C3116161706A8
:102CB00034F4643671052CF063E670E002C061E024
:102CC00070E0CB01072E000CAA0BBB0B9C01AD01E1
:102CD0006A337105A4F02953310941095109ABE563
:102CE000B0E00E9414302AE230E040E050E00E9460
:102CF000F52FDA01C9010896A11DB11D13C021509D
:102D0000310941095109A7E0B0E00E94143027E3DE
:102D100030E040E050E00E94F52FDA01C901019651
:102D2000A11DB11D909366028093650260E081E170
:102D30000E94E21880916502909166020A9744F41D
:102D400040E260E081E10E9476150E943E1902C0D7
:102D50000E94351980916502909166020E949F0D34
:102D600080915C02882311F08BE201C085E20E9411
:102D7000981960E082E1CF910C94E2188F929F92B3
:102D8000AF92BF92CF92DF92EF92FF92CF93DF93F9
:102D90006B017C010E94E5104B015C0188ED92E023
:102DA0000E94640DEC01892B69F40E94E510AB01CF
:102DB000BC01481959096A097B094C155D056E0566
:102DC0007F0560F3CE01DF91CF91FF90EF90DF9010
:102DD000CF90BF90AF909F908F9008952091100357
:102DE00090912003213208F04AC08091B6028111EF
:102DF000FCCF32E03093B60231E03093B5023FEFC2
:102E00003093B4021092B3022093B202A8EBB2E066
:102E100042E952E0FA013E2F341B321718F43D917B
:102E20003193F9CF1092910220919102990F922B38
:102E30009093910290919002913061F410929002DF
:102E4000909191029093BB009091BC0093FDF8CFBC
:102E500095EC01C095EE9093BC009091B602923033
:102E6000E1F39091B4029F3F79F08091B4028032F7
:102E700041F08091B402803331F084E005C081E0FC
:102E800003C082E001C083E010921103109210038E
:102E90001092B702089591E09093B70280932003B7
:102EA000109211031092100308950F931F93CF9364
:102EB00088E60E944B1760E084E193E00E9444069C
:102EC00009E812E0F8018081CAE06C2F0E94853188
:102ED000692FF0E18F9F600D112484E193E00E943F
:102EE0004406F80181816C2F0E948531692FF0E141
:102EF0008F9F600D112484E193E00E944406F80145
:102F000082816C2F0E948531692FF0E18F9F600DC7
:102F1000112484E193E00E944406F80183816C2F20
:102F20000E948531692FF0E18F9F600D112484E1AB
:102F300093E00E944406F80184816C2F0E94853141
:102F4000692FF0E18F9F600D112484E193E00E94CE
:102F50004406F80185816C2F0E948531692FF0E1CC
:102F60008F9F600D112484E193E00E944406F801D4
:102F700086818E516C2F0E948531692FF0E18F9FE1
:102F8000600D112484E193E00E944406CF911F91CB
:102F90000F910C94EE169091B6029111FCCF613214
:102FA00008F060E291E09093B6029093B5022FEFA3
:102FB0002093B4021092B302260F2093B202909392
:102FC000910290919102880F892B809391028091B8
:102FD0009002813061F4109290028091910280936E
:102FE000BB008091BC0083FDF8CF85EC01C085EE6D
:102FF0008093BC008091B6028130E1F38091B302EE
:10300000861710F46091B302A2E9B2E029E632E03B
:10301000F9018E2F821B861718F48D918193F9CFB9
:103020001092130360931203862F0895CF92DF92BC
:10303000EF92FF920F931F93CF93DF93E82EC62E4C
:10304000D42EE901EDEFE80FE03128F4F0E0E95E7D
:10305000FE4FF08001C0F12C6AE070E080E090E06B
:103060000E94BE16892B29F088ED92E00E947C0D0B
:10307000F3CF6EE788ED92E00E94100D62E06F0DD5
:1030800088ED92E00E94100D6E2D88ED92E00E9476
:10309000100DFF2069F06C2D88ED92E00E94100D5C
:1030A00082E0F81205C06D2D88ED92E00E94100DAF
:1030B0006FEE88ED92E00E94100D209749F0011507
:1030C000110531F0A80160E070E0CE010E94C4312A
:1030D00068EE73E080E090E00E94BE16E12CF12CD7
:1030E0000150110962E370E080E090E00E94BE169A
:1030F000892B89F088ED92E00E947C0D209791F356
:10310000E016F10678F7FE01EE0DFF1D8083C70182
:1031100001967C01E7CFDF91CF911F910F91FF9036
:10312000EF90DF90CF9008950F931F93CF93DF938D
:1031300000D000D01F92CDB7DEB705E010E09E01B1
:103140002F5F3F4F40E060E00E94161840E150E0E2
:1031500060E070E0CE0101960E946B2DCB010F90D4
:103160000F900F900F900F90DF91CF911F910F91C3
:1031700008950F931F9300E010E020E030E040E05E
:1031800060E00E9416181F910F9108958EE00C9434
:10319000B9180F931F9300E010E020E030E040E00A
:1031A000682F81E10E9416181F910F910895E091F8
:1031B000F702F091F8020084F185E02D60E087EFDE
:1031C00092E00994CF93DF93CDB7DEB728970FB67F
:1031D000F894DEBF0FBECDBF1D8290E49E8324E134
:1031E0002F8324E5288719829A8390E19B8390E5B9
:1031F0009C839091FE02691710F06FEF690F409168
:10320000FF02262F30E0FE01E20FF31F403121F4D0
:10321000943011F4918101C09581682F690F606825
:1032200087EF92E028960FB6F894DEBF0FBECDBFB1
:10323000DF91CF910C94CC1A0E94D718E7EFF2E0FF
:1032400065816B7F65836860CF010C94CC1AE7EFD2
:10325000F2E06581862F846085836C60CF010E94D7
:10326000CC1A87EF92E00C94D41AE7EFF2E0658174
:103270006E7F65836860CF010C94CC1AE7EFF2E0B3
:103280006581862F816085836960CF010C94CC1A9B
:10329000EF92FF920F931F93CF93DF93EB01877011
:1032A00098E0899FB0011124606487EF92E00E944A
:1032B000CC1A83E790E00197F1F78E01085F1F4F6A
:1032C0008BE9E82EF12CFE01649187EF92E00E94D9
:1032D000FA19C7010197F1F72196C017D10799F79D
:1032E000DF91CF911F910F91FF90EF9008950F9371
:1032F0001F93CF93DF938C01C0E0D0E0F801EC0F77
:10330000FD1F6491662371F0E091F702F091F802DD
:103310000190F081E02D87EF92E00995892B11F063
:103320002196ECCFCE01DF91CF911F910F9108959F
:10333000E091F702F091F8020190F081E02D682F02
:1033400087EF92E009948F929F92AF92BF920F9372
:103350001F93CF93DF93CDB7DEB7A1970FB6F89445
:10336000DEBF0FBECDBF19A2423008F44AE08E0185
:103370000F5D1F4F842E912CA12CB12CA50194011F
:103380000E94D32FE62FB901CA0101501109EA307A
:1033900014F4E05D01C0E95CD801EC93232B242BED
:1033A000252B61F7B80187EF92E00E94B71AA1962A
:1033B0000FB6F894DEBF0FBECDBFDF91CF911F9146
:1033C0000F91BF90AF909F908F90089521E001C022
:1033D000220F6A95EAF7DC011C962C931C971A962B
:1033E0005C934E931997ED91FC910084F185E02D4B
:1033F00060E00994DC01ED91FC910284F385E02DFD
:1034000041E0099581E090E0089508950895CF93F3
:10341000DF93FC012381222391F0EC0181818095CF
:103420006823608382810E944B17688184E193E066
:103430000E9444060E94EE16282F30E002C020E0D1
:1034400030E081E090E0232B11F080E090E0DF910C
:10345000CF910895EF92FF920F931F93CF938C011A
:10346000FC01759684E0C0E060FF02C09081C92B2A
:103470006695815031968111F7CF413011F4F801F2
:103480004489F8018585C82BC42B7801FEE0EF0E36
:10349000F11CF80162896C2BC7010E94071AF80120
:1034A000628960956C23C701CF911F910F91FF90A6
:1034B000EF900C94071A0F931F93CF93DF93062F6F
:1034C0000F70423019F440E0602F10C0142F262FE7
:1034D000EC0130E0B90184E0759567958A95E1F7D4
:1034E000CE010E942A1A412F602FCE01DF91CF9189
:1034F0001F910F910C942A1AFC0184858823A9F04E
:10350000218532852115310519F4611106C007C0E6
:103510002130310521F4611102C0858701C0158673
:103520006585CF010E960C94071A08951F920F928D
:103530000FB60F9211248F93EF93FF930FB6F89469
:10354000A89580916000886180936000109260006F
:103550000FBEA895E0E6F0E080818F7B8083FF912D
:10356000EF918F910F900FBE0F901F9018956115DE
:10357000710579F0FB0101900020E9F73197AF0167
:10358000461B570BDC01ED91FC910280F381E02D8D
:10359000099480E090E00895DC01ED91FC910284B3
:1035A000F385E02D40E00994DC01ED91FC9100846D
:1035B000F185E02D6FEF099461E00E94CC1A8BE356
:1035C0009FE10197F1F70895CF92DF92EF92FF927A
:1035D0000F931F93CF93DF93EC01423018F08C814F
:1035E00088608C834F836887222329F0413019F447
:1035F0008C8184608C830E94E5106B017C010E94A9
:10360000E510DC01CB018C199D09AE09BF09843698
:103610009105A105B10598F36C8164FD31C0E88185
:10362000F9810284F385E02D42E063E0CE01099543
:103630008BE496E40197F1F7E881F9810284F38540
:10364000E02D42E063E0CE01099503E512E0C801F8
:103650000197F1F7E881F9810284F385E02D42E0DA
:1036600063E0CE010995C8010197F1F7E881F9817E
:103670000284F385E02D42E062E0CE01099517C097
:103680006062CE010E94CC1A8BE496E40197F1F7B8
:103690006C816062CE010E94CC1A03E512E0C80181
:1036A0000197F1F76C816062CE010E94CC1AC801CB
:1036B0000197F1F76C816062CE010E94CC1A8BEE0B
:1036C00090E00197F1F784E08D836CE0CE010E94D9
:1036D000CC1ACE010E94DC1A82E08E8366E0CE0115
:1036E0000E94CC1ACE01DF91CF911F910F91FF90D4
:1036F000EF90DF90CF900C94D41AFF920F931F930A
:10370000CF93DF93EC01162F042FF22E8B85888B3D
:1037100010921303109212031092110310921003CF
:103720000E94580888890E944B170E94EE1691E06B
:10373000811190E0998B992329F084E193E00E9414
:10374000F8058E878989882339F01F861C8260E0FE
:10375000CE010E960E94071A2F2D402F612FCE0109
:10376000DF91CF911F910F91FF900C94E41ACF93AA
:10377000C82F80919701811106C04C9904C0809197
:103780009E01811158C18091650290916602059752
:103790000CF4C1E04C990DC080915D02811109C00B
:1037A00080919D01811105C080919901882309F4C0
:1037B00045C180915F02882309F40CC18091990171
:1037C000811108C10E949B059091240380915F02A2
:1037D0009111F7C0882309F4FDC020912303909133
:1037E0008A022913EEC02091220390918B022913A3
:1037F000E8C080915B0281110E94271980916102CB
:10380000882321F087EF92E00E94D41A5E9864ED3D
:1038100073E080E00E94481987EF92E00E94DC1A72
:103820000E94351960E087E00E94E21880918B02C7
:103830008A3010F40E94F3136AE070E080918B02EA
:103840000E94D30E8AE30E94981980918A028A30DE
:1038500010F40E94F3136AE070E080918A020E94E3
:10386000D30E63E084E00E94E2188EE994E00E94A7
:10387000771945EF63E08BE00E94761581E0809335
:10388000990180919D0181115F9880912103813080
:1038900051F490915D02911106C090919E01911199
:1038A00002C080935D0210929C0180919C01843043
:1038B00009F44CC09091230380918A02981346C06A
:1038C00040E062E085E00E94761586E994E00E947F
:1038D000771980E00E94981981E00E94B71B8093BD
:1038E0009C018FEF90E00E94741080912103882347
:1038F00041F080919E01811104C08091970188233D
:1039000021F080919B010E94880B809121038230DD
:1039100039F44C9905C080919E01882309F492C026
:1039200084EF91E00E94F91249E062E085E00E9494
:10393000691580E090E00E94741084EF91E00E948D
:10394000F9120E94CF0A80938A02AFCF80919E0124
:10395000811103C00E94C61808C0809121038130E4
:1039600021F480919D0181115F9A109299019091AB
:10397000230380918A02981309C0909122038091B9
:103980008B02981303C081E08093240387EF92E0B9
:103990000E94DC1A80915B02882331F080915D02E5
:1039A000811102C04C9B54C080915B0281110E9426
:1039B0001C198091610281110E94D7180E94AC05E8
:1039C0001FC0882339F09091230380918A029813B5
:1039D000109224038EE00E94CE10893C910508F0DD
:1039E00079C087399105B0F182E30E9494128EE08C
:1039F0000E94CE10873991050CF467C04C9B02C021
:103A0000C4E017C080915E028111FACFC111F8CFD6
:103A1000809197018111F4CF65E081E00E944F13FE
:103A2000C82F843069F76DE38FE10E944F130E9425
:103A3000450B8C2F51C010929E01A5CE5E9A0E941C
:103A40000112B7CE80919A018F5F0E94450B68CF1B
:103A50005E9AAACF8536910550F082E30E949412B7
:103A60008EE00E94CE108536910584F52EC0C39756
:103A700048F082E30E9494128EE00E94CE10C39719
:103A80003CF523C082E30E9494128EE00E94CE1087
:103A900018161906D4F44C9916C080915E02811153
:103AA00012C0C11110C08091970181110CC068E053
:103AB00081E00E944F13843031F46FE18BE00E946B
:103AC0004F130E94450BC1E0B4CF06C0C3E0B1CF95
:103AD000C2E0AFCFC0E0ADCFCF910895CF92DF92DB
:103AE000EF92FF920F931F93E82FF92F05C001501B
:103AF00011092109310961F1908196239417B9F3D5
:103B000005C0015011092109310911F19081962355
:103B10009413F7CFC12CD12CE12CF12C0AC08FEFDC
:103B2000C81AD80AE80AF80A0C151D052E053F0523
:103B300079F080818623841791F36C2D7D2D8E2D55
:103B40009F2D1F910F91FF90EF90DF90CF900895E0
:103B500060E070E080E090E01F910F91FF90EF90A7
:103B6000DF90CF900895CF93DF9300D000D01F92C5
:103B7000CDB7DEB7789484B5826084BD84B58160AA
:103B800084BD85B5826085BD85B5816085BD809128
:103B90006E00816080936E001092810080918100A0
:103BA0008260809381008091810081608093810098
:103BB000809180008160809380008091B10084605A
:103BC0008093B1008091B00081608093B0008091BB
:103BD0007A00846080937A0080917A00826080937A
:103BE0007A0080917A00816080937A0080917A00D7
:103BF000806880937A001092C1001CBC80E880BF6E
:103C00008FE380937E0080916400846080936400E1
:103C1000809164008260809364008091640080647D
:103C20008093640088EC8AB98CE284B98EE387B90A
:103C300080E48BB981E088B91092F3021092F2020D
:103C40001092F1021092F0021092EF021092EE0226
:103C50008DE991E09093F5028093F4029091E40253
:103C6000963108F057C02DEB30E03093EF022093EF
:103C7000EE022BE931E03093F1022093F0022CE2C6
:103C800031E03093F3022093F202209168009830E3
:103C900050F031E09E3008F430E081E001C0880F40
:103CA0003A95EAF701C084E0822B8093680098304F
:103CB00038F09E3040F0963148F020E030E008C007
:103CC0002DE630E005C02BE630E002C02CE630E007
:103CD0003093EC022093EB02983030F481E001C085
:103CE000880F9A95EAF70EC0292F30E09E3018F41D
:103CF0002850310902C02E50310981E001C0880FDF
:103D00002A95EAF78093ED028091F4029091F502F2
:103D10000197F1F78091F2029091F302892B21F142
:103D200080914E0290914F0222E0883D9207E1F08F
:103D3000009711F00E9414078091F6028E7F809305
:103D4000F60210924C0210924D0288ED92E0909390
:103D50004F0280934E02E091EB02F091EC029081D1
:103D60008091ED02892B80830E94C6188CE00E940E
:103D7000B91884EF91E00E942A1300E010E020E0DF
:103D800030E040E06EE186E00E94161884E00E9478
:103D9000C91880E090E00E94AD2F3EE1839FC001F2
:103DA00011249093A2018093A10181E00E94360B1F
:103DB00091E0811101C090E090935E0282E00E9448
:103DC000360B80938F0183E00E94360B91E08111C6
:103DD00001C090E090935F0284E00E94360B8093D4
:103DE000230385E00E94360B8093220386E00E9425
:103DF000360B8093210387E00E94360B80939B0152
:103E000088E00E94360B8093620289E00E94360BA4
:103E100080938E018AE00E94360B91E0811101C0EF
:103E200090E090938D018BE00E94360B91E0811120
:103E300001C090E0909395018CE00E94360B809336
:103E400094018DE00E94360B809392018EE00E94D7
:103E5000360B809393018FE00E94360B8093910183
:103E600080E10E94360B91E0811101C090E09093B7
:103E70008C0181E10E94360B182F82E10E94360BE3
:103E8000282F30E0C9014AE0149F800D911D1124B4
:103E900090938B0180938A0183E10E94360B80937B
:103EA0009A01B4E8EB2EB1E0FB2E15E1812F0E94C0
:103EB000360B082F81E0810F0E94360B282F30E04F
:103EC000C9016AE0069F800D911D1124F7018193BD
:103ED00091937F011E5F1B3149F78BE10E94360BE6
:103EE00091E0811101C090E0909383018CE10E94E8
:103EF000360B91E0811101C090E09093820180E047
:103F000090E00E94E70E8093810181E090E00E94A2
:103F1000E70E809380011092960188E60E944B176D
:103F200067E671E084E193E00E94B71A0E94EE1602
:103F300084E10E94941288E60E944B176AE671E0C1
:103F400084E193E00E94B71A0E94EE160E940112CB
:103F500020E044E064E187EF92E00E947D1B0E9434
:103F6000D51384E190E00E94AD2F182F8A3008F01D
:103F700045C087EF92E00E94DC1A8AED92E00E9431
:103F8000771946E561E083E00E94761580E090E0D5
:103F90000E949F0D8EE20E949819812F6AE00E9474
:103FA0008531892F90E00E949F0D83ED92E00E9461
:103FB000771981E090E00E949F0D8EE20E9498198F
:103FC00080E090E00E949F0D64E084E00E94E2188F
:103FD00086EC92E00E94771945EF64E08BE00E9446
:103FE00076156AE084E190E00E94B52F60E081E000
:103FF0000E94C01287EF92E00E94DC1A0E94400BE0
:1040000020E530E040E060E570E088E592E00E9465
:10401000711426E930E040E066E970E080E793E063
:104020000E9471145E9A0E949B050E94480580932D
:10403000900187E40E94941890919601891B8F56F5
:1040400080939801F3E6FC8323E62B83CE0101964F
:104050001C010E949B0587E00E94CE108132934094
:1040600024F080915C02882351F087E00E94CE10FA
:104070008032934004F580915C028823E1F09091B6
:104080005C0281E0892780935C0287E00E94CE1069
:104090008032934014F00C94862B80916102882327
:1040A00011F40C94862B80918D01882311F40C94CB
:1040B000862B0E94C91380918A022B81281709F44C
:1040C0008FC1809164028823E1F08091820188236E
:1040D000C1F080915B02811114C080918D01882311
:1040E00039F080915C02811103C00E94C91309C09C
:1040F00080916102811105C00E94D71881E08093F0
:10410000610210927F0180918B023C81381709F483
:10411000E0C080915B02811179C00E94F6139091FA
:10412000800180918E0298136DC0909181018091E1
:104130008D02981367C081E08093600280917E01B8
:10414000811164C080916402811160C06CEB73E0E6
:104150000E94481980919D0181115F9880915E02B3
:10416000811107C080919E01811103C08FE60E94DA
:10417000450B80ED97E00E942A130E94CF0A7C0134
:10418000FF240E94CF0AE816F90621F04C9902C0DC
:104190000C949E2B80919C01843011F40C949E2BE6
:1041A00087EF92E00E94DC1A61E087E00E94E2184B
:1041B0008BEE90E00E94771962E086E00E94E218A0
:1041C00082EE90E00E94771965E081E00E944F1333
:1041D000182F112391F064E180E00E944F1340E01A
:1041E00060E00E94761564E180E00E944F1340E099
:1041F00063E00E9476151150ECCF84EF91E00E94AD
:10420000F912BFCF10927E011092600210918C01C2
:104210000E948B11181709F45CC080918B028430C6
:1042200008F457C0112311F40C94AF2B81508093E4
:104230008B0281E0D12ED826D0928C01E0906702CB
:10424000F090680200918E0210E020918D0230E023
:104250004091890250E060918A0270E080918B0267
:1042600090E00E94760880916702825B80938F02C3
:104270000E9455178091A1016D2D805F0E942C0B2B
:104280000091A1011091A2010E3D43E0140711F429
:104290000C94B22B025E1F4FFF24F3948091A10176
:1042A0008F0D0E94360B682F8F2D800F0E942C0BD4
:1042B000F3946EE1F612F2CF1093A2010093A101E4
:1042C000C8016EE170E00E94913180E090E00E94B0
:1042D000B52F80915B02811102C00E9485158091EB
:1042E000640281117DC080915E02811179C080914C
:1042F0006502909166020A977CF480915C028111BC
:104300000BC00E94400B20E530E040E060E570E02B
:1043100088E993E00E9471144C9962C080919701E2
:1043200081115EC080915D0281115AC08091650249
:104330009091660202970CF453C0E0918E01F0E078
:10434000EF5FFE4F108161E0610F81E00E944F132B
:10435000811346C00C94B62B163010F00C94462CEA
:10436000143011F00C943E2C61E083E00E94E218BE
:1043700081EF90E00E94771980918F01ECE18E9F90
:10438000C00111240E9474100E94400B2EE031E005
:1043900040E06AEF70E080E293E00E94711424EB49
:1043A00030E040E066E970E080E293E00E94711442
:1043B0002AEF30E040E06AEF70E084E992E00E948A
:1043C000711480ED97E00E94F91280E090E00E9465
:1043D00074100E94AC058091610281110C94312C03
:1043E00080915B0281117CC080916302811178C051
:1043F00080916202882309F473C02D988FE090E0C9
:104400000197F1F72D9A83E290E00197F1F72D984B
:10441000EEE8F4E06491EAE7F4E0E491F0E0EE0F16
:10442000FF1FEC59FB4F8591949100E412E42FE0BB
:1044300030E0462F0E946E1D6115710581059105C2
:1044400049F0DC01CB010196A11DB11DBC01CD01DC
:104450009F7003C060E070E0CB01109162022AE31C
:1044600030E040E050E00E94D32FF9E11F9FC001EF
:104470001124092E000CAA0BBB0B281739074A0779
:104480005B0770F580916102882391F08091830130
:10449000882371F087EF92E00E94D41A0E94E51001
:1044A00060937A0170937B0180937C0190937D01EE
:1044B00080916402811114C080917F01811110C02C
:1044C00080915D0281110CC080919701811108C01B
:1044D00080915E02811104C04C9902C00C94DB2BC8
:1044E000809161028823C9F0809183018823A9F01B
:1044F0000E94E51000917A0110917B0120917C01CE
:1045000030917D010A561F4F2F4F3F4F0617170757
:104510002807390710F40C94E62B20918A022B838C
:1045200030918B023C8380E00E94B71B80939C01FA
:1045300090915B02823011F40C942F2B833011F494
:104540000C94432B813011F00C947B2B91110C9423
:104550007B2B80E50E9494120E94351987EF92E030
:104560000E94DC1A80915E02882331F088E70E9465
:104570009819CC24C39401C0C12C60E082E00E9451
:10458000E21888EB92E00E94771961E082E00E94D5
:10459000E2188AEA92E00E94771962E081E00E94C4
:1045A000E2180E94EF138DE992E00E94771963E010
:1045B00082E00E94E21880E992E00E947719DC2CE8
:1045C00080919C01843011F40C944B2B4EE76D2D9F
:1045D00080E00E94761561E080E00E94C012809128
:1045E0009C01823011F40C94162B833011F40C943E
:1045F000232B813029F741E0D41691F1D41668F1CC
:1046000062E0D61609F4E0C183E0D812D9CF87EF73
:1046100092E00E94DC1A60E082E00E94E21880E8EA
:1046200092E00E94771961E082E00E94E21880E740
:1046300092E00E94771962E082E00E94E21880E630
:1046400092E00E94771963E082E00E94E21886E51A
:1046500092E00E94771910E02EC50E948202B0CF2E
:10466000D092990184ED93E00E9438158091220345
:104670008A3010F40E94F3136AE070E08091220304
:104680000E94D30E8AE30E949819809123038A30F6
:1046900010F40E94F3136AE070E0809123030E94FB
:1046A000D30E0E94EF1361E080E00E94E2188EE4D6
:1046B00091E00E94771963E082E00E94E2188BE3A8
:1046C00091E00E94771963E08EE00E94E2188091E9
:1046D0002103813049F028F0823051F48DE291E0DD
:1046E00005C087E391E002C081E391E00E94771961
:1046F0000E943E1900E010E07AE0F72EE4E1EE2E91
:1047000080919C01843009F446C1153010F062E0BC
:1047100001C063E040E280E00E947615153010F0A1
:1047200063E001C062E04EE780E00E94761562E03F
:1047300082E00E94E218809122038A3010F40E94E5
:10474000F3136AE070E0809122030E94D30E8AE3A3
:104750000E949819809123038A3010F40E94F31369
:104760006AE070E0809123030E94D30E0E94EF1351
:1047700080915F02882319F085E291E002C08DE10B
:1047800091E00E947719123091F038F4112361F012
:104790001130B9F462E083E012C0143071F050F0CF
:1047A000153079F463E00AC062E082E008C062E09C
:1047B00085E005C062E086E002C062E08EE00E9413
:1047C000E21861E080E00E94C01280919C0182307A
:1047D00009F4D5C0833009F4D7C0813009F090CFF7
:1047E000123009F455C028F4112379F11130D9F1B0
:1047F000D0C0143009F468C008F458C0153009F06E
:10480000C8C00E943519B0905F0210925F0287EF16
:1048100092E00E94DC1A60E082E00E94E21881E1EE
:1048200091E00E94771961E082E00E94E21887E03F
:1048300091E00E94771962E082E00E94E2188FEF17
:1048400090E00E94771900E065C0809122038E30CD
:1048500020F4865F809322039CC06F2D0E948531D7
:104860009093220396C020912203822F6F2D0E94E5
:104870008531993011F4295001C02F5F2093220314
:1048800080912203883109F084C0E092220381C024
:1048900080912303813320F4865F8093230379C0C2
:1048A0006F2D0E9485319093230373C020912303C1
:1048B000822F6F2D0E948531993011F4295001C04B
:1048C0002F5F2093230365C090915F028927809317
:1048D0005F025FC048E56091210383E00E94761586
:1048E0004EE7602F80E00E9476154DE261E083E0A4
:1048F0000E947615602F83E00E94E21861E080E05C
:104900000E94C01280919C018230F9F0833031F115
:10491000813029F080919C018430E1F628C001307B
:10492000C9F300932103602F86E00E942C0B809135
:104930002103811103C081E00E944D0C809121036D
:10494000823041F70E944D0CE5CF40E2602F80E0BD
:104950000E9476150230F0F60F5FDCCF40E2602F48
:1049600080E00E9476150023A9F20150D3CFB092C7
:104970005F026CE473E080E00E9448190AC01530C1
:1049800008F0BECE1F5FBCCE112309F4B9CE115082
:10499000B7CE01E0B5CE002379F060915F0283E0ED
:1049A0000E942C0B6091230384E00E942C0B6091E9
:1049B000220385E00E942C0B6CE473E080E00E94EF
:1049C000481910929901FCCDA0908B0280908A0228
:1049D000B0908D0290908E028CEC93E00E9438157E
:1049E0008DEA91E00E94771961E082E00E94E2186E
:1049F0008CE991E00E9477190E943E19809167022C
:104A000090916802805D974090936802809367025E
:104A100010E000E064E1E62E80919C01843009F40E
:104A200000C362E082E00E94E21899E09A1510F05B
:104A30000E94F3136AE070E08A2D0E94D30E8AE38D
:104A40000E949819E9E0E81510F00E94F3136AE05B
:104A500070E0882D0E94D30E0E94EF1363E082E085
:104A60000E94E218F9E0FB1510F00E94F3136AE0CF
:104A700070E08B2D0E94D30E8EE20E94981929E0DF
:104A8000291510F00E94F3136AE070E0892D0E944E
:104A9000D30E88E991E00E94771980916702909186
:104AA00068020A9714F40E94F313809167029091B0
:104AB00068020E949F0D61E08EE00E94E2188091E2
:104AC0009501882319F084E991E002C080E991E022
:104AD0000E94771940E201117DC662E080E00E94E9
:104AE000761561E080E00E94E2188BEF800F86303F
:104AF00048F440E262E080E00E94761563E080E0E6
:104B00000E94E2188EE70E949819402E512C3BE03B
:104B10004316510418F5F201EC5CFF4F0C94B931C7
:104B200061E08EE019C062E007C062E008C062E0A8
:104B300009C062E00AC063E082E00EC063E083E087
:104B40000BC063E085E008C063E086E005C063E079
:104B50008AE002C063E08BE00E94E21861E080E03E
:104B60000E94C01280919C01823009F44CC28330B3
:104B700009F44EC2813009F04FCF002351F0F20109
:104B80003197EA30F10508F0B5C1E15CFF4F0C94B4
:104B9000B9318CEC93E00E9438158DE791E00E94CA
:104BA000771961E082E00E94E2188CE691E00E94B1
:104BB000771962E082E00E94E21888E691E00E94A4
:104BC000771963E082E00E94E21884E691E00E9497
:104BD0007719F12C80919C01843009F47AC161E04D
:104BE00083E00E94E21880919501882319F080E605
:104BF00091E002C08CE591E00E94771980918201DA
:104C0000811102C040E201C048E561E080E10E94FC
:104C1000761562E086E00E94E218809194018A3065
:104C200010F40E94F3136AE070E0809194010E94F6
:104C3000D30E8AE30E949819809192018A3010F471
:104C40000E94F3136AE070E0809192010E94D30EFB
:104C50000E94EF1363E086E00E94E21880919301C6
:104C60008A3010F40E94F3136AE070E0809193019F
:104C70000E94D30E8AE30E949819809191018A3094
:104C800010F40E94F3136AE070E0809191010E9499
:104C9000D30E0E94EF1341E04F1548F040E262E06E
:104CA00080E00E94761561E080E00E94E2188EEFBD
:104CB0008F0D843060F440E261E080E00E94761560
:104CC00040E263E080E00E94761562E009C065E0A2
:104CD0006F1548F440E262E080E00E94761563E0E0
:104CE00080E00E94E2188EE70E9498194F2C512C08
:104CF0008AE04816510400F5F201E75BFF4F0C947F
:104D0000B93161E083E016C061E080E113C062E088
:104D100007C062E008C062E009C062E00AC063E068
:104D200086E008C063E087E005C063E089E002C078
:104D300063E08AE00E94E21861E080E00E94C01215
:104D400080919C01823009F4B9C0833009F4BCC061
:104D5000813009F03FCF9AE04916510408F08FC026
:104D6000F201ED5AFF4F0C94B9319091950181E019
:104D700089278093950183C09091820181E08927E2
:104D8000809382017CC0809194018E3020F4865FF4
:104D90008093940174C06AE00E94853190939401DD
:104DA0006EC020919401822F6AE00E948531993073
:104DB00011F4295001C02F5F209394018091940138
:104DC000883109F05CC0E092940159C08091920151
:104DD000813320F4865F8093920151C06AE00E9483
:104DE0008531909392014BC020919201822F6AE00D
:104DF0000E948531993011F4295001C02F5F209312
:104E000092013DC0809193018E3020F4865F8093A3
:104E1000930135C06AE00E948531909393012FC0C1
:104E200020919301822F6AE00E948531993011F41C
:104E3000295001C02F5F2093930180919301883105
:104E4000F1F4E09293011BC080919101813320F431
:104E5000865F8093910113C06AE00E948531909330
:104E600091010DC020919101822F6AE00E9485314D
:104E7000993011F4295001C02F5F20939101609166
:104E800095018BE00E942C0B609194018CE00E94B4
:104E90002C0B609192018DE00E942C0B609193018C
:104EA0008EE00E942C0B609191018FE00E942C0BF0
:104EB000609182018CE10E942C0B8CCEE8E0EF1512
:104EC00008F488CEF39486CEFF2009F483CEFA94BA
:104ED00081CE6CE473E080E00E9448199DCDFDE036
:104EE000FA1518F02AE0A20E05C08A2D6AE00E9489
:104EF0008531A92E11E090CD8A2D6AE00E9485317E
:104F0000993019F437EFA30E01C0A39448E111E0E2
:104F1000A41282CD54E1A52E7FCD60E3681518F070
:104F20008AE0880EE7CF882D6AE00E948531892EBD
:104F3000E1CF882D6AE00E948531993019F497EF0E
:104F4000890ED8CF8394D6CFE5E1EB1518F0FAE0BF
:104F5000BF0ED0CF8B2D6AE00E948531B92E0DC0D7
:104F60008B2D6AE00E948531993019F427EFB20E3B
:104F700001C0B3943FE13B1530F0B110BBCF11E05D
:104F8000BB24B39449CD4EE1B42EB4CF42E04915D1
:104F900018F06AE0960EAECF892D6AE00E94853146
:104FA000992E9111A7CF11E09924939435CD8BE0E0
:104FB000891598F193949ECF809167029091680231
:104FC0008935910514F40A9604C06AE070E00E94E5
:104FD000A53190936802809367028CCF209167027D
:104FE00030916802C9016AE070E00E94A53109971A
:104FF00019F42950310902C02F5F3F4F30936802E6
:105000002093670277CF0A3008F006CD0F5F04CDFA
:10501000002309F401CD0150FFCC11E03AE0932EBA
:10502000FBCCE0906702F090680290E3E91A98EFF9
:10503000F90AF0926802E0926702112339F1092D12
:1050400010E02B2D30E0682D70E040E050E08A2D1C
:1050500090E00E947608A0928B0280928A021092C1
:105060008902B0928D0290928E0280916702825BDB
:1050700080938F020E9455170E94AC050E948B11ED
:1050800080938C01682F80E10E942C0B6CE473E00C
:1050900080E00E94481994CA82E390E00E942A139B
:1050A00080919C01823009F4A1C2833009F4A7C227
:1050B000813009F44BC080919C01843009F4ABC26B
:1050C0000E943E19111107C080918F01ECE18E9F63
:1050D000C001112402C080E090E00E9474101330DF
:1050E00011F40E9435194EE7612F80E00E94761579
:1050F00060E08FE00E94E2186AE070E080918F012A
:105100000E94D30E61E08FE00E94E2186AE070E036
:1051100080918E010E94D30E62E08FE00E94E2181F
:105120006AE070E0809162020E94D30E612F8FE0EE
:105130000E94E21880E00E94B71B80939C018111BD
:10514000ABCF84E690E00E942A13F4CF113009F42B
:1051500043C060F1123009F44FC0133009F0ABCFF7
:1051600087EF92E00E94DC1A60E082E00E94E21881
:1051700083E492E00E94771961E082E00E94E218E5
:1051800080E392E00E94771962E082E00E94E218D8
:105190008DE192E00E94771963E082E00E94E218BC
:1051A00083E192E00E94771900E06AC080918F014C
:1051B000893020F48F5F80938F0102C010928F019D
:1051C00060918F01FCE16F9FC00111246D830E94EB
:1051D00074106D8182E00DC080918E01893020F4C1
:1051E0008F5F80938E0102C010928E0160918E01BC
:1051F00089E00E942C0B5FCF80916202893020F4FD
:105200008F5F8093620202C010926202609162021C
:1052100088E0EFCF80918D01811137C040E260E0DE
:1052200082E10E94761580915E02811130C040E2D9
:1052300061E082E10E94761580918301811129C08D
:1052400040E262E082E10E9476154EE7602F80E046
:105250000E947615602F82E10E94E2180330D8F494
:105260000E943E1961E080E00E94C01280919C0182
:10527000823009F4A7C1833009F4AEC1813071F0E6
:1052800080919C01843031F616CF48E5C8CF48E5BF
:10529000CFCF48E5D6CF0E943519E4CF013009F1D0
:1052A000C8F00230B1F1033059F784EB93E00E946B
:1052B000381580E092E00E9477194FEE60E081E1BE
:1052C0000E94761561E080E00E94E21824E1E22E5F
:1052D000F12C2BC060918D01682760938D018AE0CD
:1052E0001EC00E94351980915E02811109C04EE2F4
:1052F00061E082E10E9476150E94760B0E94840B89
:1053000060915E0281E0682760935E020E942C0B30
:10531000B7CF609183016827609383018AE10E947F
:105320002C0B82E30E949412ABCF8CEE8E0D843155
:1053300011F462E003C0883221F463E080E00E944F
:10534000E218C7010E94E70E0E9498192FEFE21A97
:10535000F20A30E5E316F10441F760E080E00E94D4
:10536000C0126CE473E080E00E94481987EF92E07D
:105370000E94DC1A6BE080E00E94CD0D60E083E0CB
:105380000E94CD0D6CE086E00E94CD0D60E088E0CB
:105390000E94CD0D61E08DE00E94CD0D44E061E002
:1053A00080E10E94761560E081E10E94CD0D63E00E
:1053B00080E00E94E2188FEE91E00E9477198091C0
:1053C0009C01843009F45CCF80E00E94B71B80937D
:1053D0009C0180E00E94B71B823089F780919C017C
:1053E000843069F380E00E94B71B80939C0180E0C9
:1053F0000E94B71B833091F787EF92E00E94DC1A7E
:1054000060E080E00E94E21884EE91E00E9477194B
:1054100081E090E00E949F0D8EE20E94981980E04A
:1054200090E00E949F0D8CED91E00E94771961E061
:1054300080E00E94E21886ED91E00E94771998E0E2
:10544000F92E8F2D0E944B170E94EE16811108C075
:1054500088E70E94981960E170E08F2D0E94D30EBA
:10546000F39448E7F412EDCF62E080E00E94E21886
:105470008FEC91E00E94771980912503909126038B
:10548000009711F48BE293E0F101E81BF90BCF01D7
:105490000E949F0D8AEC91E00E94771988E60E9495
:1054A0004B1761E184E193E00E9444060E94EE16EE
:1054B00062E070E088E690E00E94CB1790911203C2
:1054C00080911303981779F184E193E00E94F80525
:1054D0005C0184E193E00E94F8057C01B5016F77DF
:1054E0007727072E000C880B990B0E94902E4B01FA
:1054F0005C01B701772786E0759567958A95E1F796
:10550000072E000C880B990B0E94902E20E030E0B3
:1055100040E85EE30E94EF2E9B01AC01C501B4019F
:105520000E946E3003C060E070E0CB0140E050E0CC
:105530000E94160F8FED0E94981963E080E00E9490
:10554000E21884EC91E00E94771963E08BE00E94FE
:10555000E21880EC91E00E94771980918C018823F9
:1055600011F083E501C087E50E94981980919C01A4
:10557000843009F433CF81E00E94B71B80939C01F3
:1055800063E086E00E94E21886E00E94CE10BC0133
:10559000990F880B990B0E94902E20E030E040EA92
:1055A00050E40E94EF2E20E030E040E85AE30E94F1
:1055B000EF2E42E050E00E94160F84E690E00E9439
:1055C000F912D4CF40E2602F80E00E9476150330BC
:1055D00008F056CE0F5F54CE40E2602F80E00E946C
:1055E0007615002309F44CCE01504ACE40E2612FDB
:1055F00080E00E947615133048F41F5F07C040E238
:10560000612F80E00E94761511111150612F80E00A
:105610000E94E21850CD8091610281110C94E02229
:1056200080E090E00E9474100C94E02240E26D2D26
:1056300080E00E947615F2E0FD1510F40C94E02253
:10564000D3940C94E02240E26D2D80E00E94761508
:10565000CD1410F00C94E022DA940C94E022911115
:105660004AC080916102811146C080916202882304
:1056700009F441C09091630281E08927809363021D
:105680000E94851538C0992349F00E94271910926D
:105690005B02109261020E94AC052DC080918D01C9
:1056A000882339F080915C02811103C00E94C913E4
:1056B00022C09091610281E08927809361020E945B
:1056C000851580916102811109C080E090E00E94FF
:1056D000741087EF92E00E94D41A0AC080918F0163
:1056E0002CE1829FC00111240E9474100E94D718DF
:1056F00082E30E94941280915B02811102C088E7CC
:1057000001C080EF0E9494120C94292087E00E942F
:10571000CE108132934074F080915B02882351F067
:105720000E94271910925B02109261020E94AC0540
:105730000C945B200E9485150C945B2081E0809383
:105740007E0180919E01811102C00E94C618809145
:105750009D0181115F9A0E94AC050C9406218F5F18
:105760000C94172100E010E00C944C216CE084E0D4
:105770000E944F13182F80915B0281111AE00E9442
:105780003519183008F0C1C080916102882361F09A
:1057900080919501882321F080916402811104C0D9
:1057A00087EF92E00E94D41A1530F8F487EF92E068
:1057B0000E94DC1A1AC061E58DE30E944F130E941B
:1057C000450B81E080937F010C9470220E94D718D2
:1057D0000C948D2261E080E00E94761540E263E047
:1057E00080E00E94761562E07DC9153011F00C94BE
:1057F000AC210E94CF0A7C0164EB73E080E00E9440
:105800004819FF2401E00E94CF0AE816F90629F59D
:1058100080919C01843009F10093990187EF92E017
:105820000E94DC1A64E181E00E944F13182F1123BB
:1058300079F064E080E00E944F13D82E64E180E0AC
:105840000E944F1340E06D2D0E9476151150EFCF4E
:1058500084EF91E00E94F912D6CF109299010C9436
:10586000E92180919501882329F0809164028111BA
:105870000C94F0210E94D7180C94F0216FE681E57A
:105880000E944F130E94450B0C94E9211630A1F49D
:1058900018E268E187EF92E00E94CC1A88EC90E071
:1058A0000E94F91280919C01843009F411E011509A
:1058B000123078F70C94E921173001F764EB73E0AC
:1058C00080E00E94481900E010E040E0602F812F46
:1058D0000E94761586E990E00E94F91280919C0161
:1058E000843011F414E104E040E2602F812F0E9423
:1058F00076151F5F143148F30F5F043028F380EDF5
:1059000097E00E94F9120C94E9216FE681E50E946C
:105910004F130E94450B0C94F0218BE391E0909380
:10592000D9028093D80288ED92E00C941407CF92AC
:10593000DF92EF92FF92CF9310921703109216030B
:1059400098EEC92E93E0D92EE12CF12CC0921803C9
:10595000D0921903E0921A03F0921B038BE291E0BC
:1059600090931503809314031092FA021092F90297
:105970008BE591E09093F8028093F7021092070371
:105980008FEF80930603109205031092080387E2BD
:1059900080930203109203031092040310920103F8
:1059A0001092000384E08093090382E080930A034D
:1059B000C1E0C0930B0380E180930C0380E28093ED
:1059C0000D0380E480930E0380E880930F0340E092
:1059D00050E063E087EF92E00E94E6191092DB024C
:1059E0001092DA02C092DC02D092DD02E092DE0276
:1059F000F092DF028BE391E09093D9028093D8027A
:105A00001092EF021092EE021092F1021092F00248
:105A10001092F3021092F2021092F5021092F40228
:105A20008091F6028E7F8D7F8093F602869581703D
:105A3000682F6C2783E00E94EC0F61E083E00E94F6
:105A40003810E5E8F4E0E491E093E802E1E7F4E0FF
:105A5000E491F0E0EE0FFF1FE65AFB4F8591949121
:105A60009093EA028093E90260E082E00E9438109D
:105A70008091F60281FD04C061E082E00E94EC0F9B
:105A800082E08093E402E4E8F4E0E491E093E5024C
:105A9000E0E7F4E0E491F0E0EE0FFF1FEC59FB4F7C
:105AA000859194919093E7028093E6028BE491E0D4
:105AB0009093D9028093D80210921303109212038C
:105AC0001092110310921003CF91FF90EF90DF908E
:105AD000CF900C945808A6E0B0E0E1E7FDE20C940A
