:100000000C945D020C9485020C9485020C941017DC
:100010000C9410170C9410170C946E300C948502ED
:100020000C9485020C9485020C9485020C941F1B81
:100030000C9485020C9485020C9485020C94850224
:100040000C94A2220C9485020C9485020C948502D7
:100050000C9485020C9485020C9485020C94850204
:100060000C94A0170C948502270B2A0B2C0B2E0B3B
:10007000300B330B350B370B390B3B0B3D0B5E0B4A
:100080006B0B7C0B880B930B9F0BB50BC60BCB0B31
:10009000DD0BBF0F021039107710AE10E010F21018
:1000A000E412EB12F61209130C1317132013251385
:1000B00045134A136A137313F81DFF1D111E291EE1
:1000C000331E3D1E4F1E591E601E781E8B1E9B1E2A
:1000D000B31E622D642D672D692D6B2D6D2D702D36
:1000E000722D742D762D932D9A2DA12DAF2DC42D0B
:1000F000D22DE02DEE2D022E102E4269727468640E
:100100006179004861707079005775737374657315
:10011000742044752C20646173732E2E2E00496365
:10012000682062696E206869657221005B205D202D
:100130004D5033005B205D20526164696F005B208D
:100140005D205765636B746F6E0020205B61757373
:100150005D0020205B616E205D004D5033005261D8
:1001600064696F00546F6E005765636B746F6E2027
:100170002020205B20202020205D004E657565201A
:100180005765636B7A6569740061757300616E20F1
:10019000002E3230004E616368746D6F6475732099
:1001A0005B2020205D004E657565205568727A657C
:1001B00069742F446174756D005A3A2000416B6B6D
:1001C000753A0020543A200052414D3A202000490F
:1001D00032433A20002D30313035313700466972D4
:1001E0006D776172653A20006279204E696B6F6CA1
:1001F0006169205261646B650044696573657220B2
:100200004E4F4B4F20676568207274004D65696ED4
:10021000204E4F4B4F0044697374616E7A6C696372
:1002200068742020205B205D005374756D6D202064
:1002300020202020202020205B205D00416B6B755A
:100240002073706172656E202020205B205D007736
:1002500065697465722E2E2E0044697374616E7A1E
:10026000202B2F2D205B205D004576656E7473205A
:10027000202B2F2D205B205D004C4544202020208A
:10028000202B2F2D205B205D004E4F4B4F20737491
:10029000656C6C656E007A656974207374656C6C4E
:1002A000656E00416C61726D207374656C6C656E77
:1002B00000537069656C2077617320766F72004E11
:1002C00061736520647220636B656E0020617566E2
:1002D00020560020557064617465206572666F6CED
:1002E000677265696368006765647220636B742078
:1002F00068616C74656E202000524453204265652D
:100300006E64656E3A204C696E6B73005B317C7372
:100310005D205B327C735D205B337C735D20005D10
:100320005B3C5D5B205D5B205D5B3E5D5B00504147
:10033000555345004B65696E65204D5033732067FA
:100340006566756E64656E004765736368696368AA
:100350007465005B3C5D5B205D5B205D5B3E5D002A
:10036000476573636869636874656E20680041550A
:10037000582D45696E67616E6700456967656E65F2
:1003800073206800526164696F20680000000000FB
:10039000240027002A0000000008000201000003DA
:1003A0000407000000000000000053616D737461D9
:1003B00067004672656974616700446F6E6E2E74E3
:1003C0006167004D697474776F6368004469656E96
:1003D00073746167004D6F6E74616700536F6E6E6A
:1003E0007461670000205568720072656E0073705A
:1003F0006569636865726E2E2E2E004765627572A0
:1004000074737461672100E403DC03D503CC03C378
:1004100003BA03B203AA0353746174696F6E2000B8
:1004200000000000250028002B0000000000230031
:100430002600290004040404040404040202020245
:100440000202030303030303010204081020408097
:1004500001020408102001020408102020576563DF
:100460006B746F6E202B2F2D205B205D00617573E8
:1004700000616E200062697300766F6E005B202061
:10048000205D2044696D6D656E205B205D004E61CE
:100490006368746D6F647573207374656C6C656EDE
:1004A0000020416C61726D20004E617365206472A2
:1004B00020636B656E00BB28731B11241FBECFEF3A
:1004C000D8E0DEBFCDBF12E0A0E0B1E0E8EDF9E694
:1004D00002C005900D92AC30B107D9F723E0ACE033
:1004E000B2E001C01D92AB3DB207E1F712E0CCE5EE
:1004F000D2E004C02197FE010E94D234CB35D1074F
:10050000C9F70E94CC020C94DF340C940000CF9207
:10051000DF92EF92FF920F931F93E82FF92F05C000
:10052000015011092109310961F190819623941735
:10053000B9F305C0015011092109310911F1908168
:1005400096239413F7CFC12CD12CE12CF12C0AC0A7
:100550008FEFC81AD80AE80AF80A0C151D052E05EF
:100560003F0579F080818623841791F36C2D7D2DD2
:100570008E2D9F2D1F910F91FF90EF90DF90CF90C8
:10058000089560E070E080E090E01F910F91FF908F
:10059000EF90DF90CF900895A5E0B0E0E2EDF2E0BB
:1005A0000C94B233789484B5826084BD84B5816044
:1005B00084BD85B5826085BD85B5816085BD80912E
:1005C0006E00816080936E001092810080918100A6
:1005D000826080938100809181008160809381009E
:1005E000809180008160809380008091B100846060
:1005F0008093B1008091B00081608093B0008091C1
:100600007A00846080937A0080917A00826080937F
:100610007A0080917A00816080937A0080917A00DC
:10062000806880937A001092C1001CBC80E880BF73
:100630008FE380937E0080916400846080936400E7
:100640008091640082608093640080916400806483
:100650008093640088EC8AB98CE284B98EE387B910
:1006600080E48BB981E088B91092850310928403ED
:1006700010928303109282031092810310928003E0
:100680008DE991E0909387038093860390917603A0
:10069000963108F057C02DEB30E030938103209362
:1006A00080032BE931E030938303209382032CE213
:1006B00031E03093850320938403209168009830C3
:1006C00050F031E09E3008F430E081E001C0880F46
:1006D0003A95EAF701C084E0822B80936800983055
:1006E00038F09E3040F0963148F020E030E008C00D
:1006F0002DE630E005C02BE630E002C02CE630E00D
:1007000030937E0320937D03983030F481E001C064
:10071000880F9A95EAF70EC0292F30E09E3018F422
:100720002850310902C02E50310981E001C0880FE4
:100730002A95EAF780937F0380918603909187033F
:100740000197F1F78091840390918503892B21F122
:100750008091D5029091D60223E08A369207E1F08B
:10076000009711F00E948A17809188038E7F8093F2
:1007700088031092D3021092D4028AE693E09093F9
:10078000D6028093D502E0917D03F0917E039081A3
:1007900080917F03892B80830E94332B8CE00E9401
:1007A000262B84EF91E00E946A2586E06EE140E00E
:1007B00020E030E000E010E00E94922A84E00E94F5
:1007C000372B0E944D210E94011F8091A20390911E
:1007D000A303807F8A609093A3038093A2030E9467
:1007E000DF1E0E943D1F80E090E00E9438333EE112
:1007F000839FC001112490932B0280932A0281E0F1
:100800000E94891B91E0811101C090E09093E40265
:1008100082E00E94891B8093180283E00E94891B5A
:1008200091E0811101C090E09093E50284E00E9484
:10083000891B8093D30385E00E94891B8093D20398
:1008400086E00E94891B8093D10387E00E94891B68
:100850008093CA0388E00E94891B8093E80289E0A4
:100860000E94891B809317028AE00E94891B91E0F5
:10087000811101C090E0909316028BE00E94891BC9
:1008800091E0811101C090E09093D0038CE00E9430
:10089000891B8093CE038DE00E94891B8093CD033A
:1008A0008EE00E94891B8093CC038FE00E94891BFD
:1008B0008093CB0380E10E94891B91E0811101C0EC
:1008C00090E09093150281E10E94891B182F82E12C
:1008D0000E94891B282F30E0C9014AE0149F800D37
:1008E000911D1124909324028093230283E10E949E
:1008F000891B8093C90319E1E12E12E0F12E15E165
:10090000812F0E94891B082F81E0810F0E94891B83
:10091000282F30E0C9016AE0069F800D911D112447
:10092000F701819391937F011E5F1B3149F78BE1A2
:100930000E94891B91E0811101C090E09093140204
:100940008CE10E94891B91E0811101C090E090939D
:10095000CF0387E560E070E00E94941B8093130250
:1009600087E561E070E00E94941B80931202109270
:100970001F0288E60E94C6298CEB93E069E971E0CA
:100980000E948F300E94692984E10E94D32488E666
:100990000E94C6298CEB93E06CE971E00E948F30D5
:1009A0000E9469290E94422480918E03886080936E
:1009B0008E03B4E0FB2EF09291038BE39DE0019750
:1009C000F1F789E893E0609194030E94A5308BEFE2
:1009D00098E00197F1F789E893E060E30E94BF3067
:1009E0000BE416E4C8010197F1F789E893E060E3AE
:1009F0000E94BF30C8010197F1F789E893E060E3F6
:100A00000E94BF3083E592E00197F1F789E893E017
:100A100060E20E94BF3080918E0380620E94562B5C
:100A2000F0928F038CE00E94562B0E94682B82E08C
:100A30008093900386E00E94562B82E00E94562B02
:100A40008BE39FE10197F1F70E94ED2584E190E0AF
:100A50000E943833182F8A3008F041C00E94682B5A
:100A600083ED92E00E94CC2B83E061E046E50E949A
:100A7000352780E090E00E94612C8EE20E94122CCB
:100A8000812F6AE00E949E34892F90E00E94612CA1
:100A90008CEC92E00E94CC2B81E090E00E94612CD3
:100AA0008EE20E94122C80E090E00E94612C84E093
:100AB00064E00E94702B8FEB92E00E94CC2B8BE0C5
:100AC00064E045EF0E94352784E190E06AE00E94EF
:100AD000403381E060E00E94FF240E94682B0E9466
:100AE000B91B88E592E060E570E040E020E530E089
:100AF0000E94882680E793E066E970E040E026E9FE
:100B000030E00E9488265E9A0E94BB230E943C230C
:100B10008093F90287E40E940A2B90911F02891B9F
:100B20008F5680932102F3E6FC8323E62B83CE01CC
:100B300001961C010E94BB2387E00E949C21813208
:100B4000934024F08091E302882351F087E00E94D3
:100B50009C218032934004F58091E3028823E1F0E8
:100B60009091E30281E089278093E30287E00E946D
:100B70009C218032934014F00C945E0F8091E70228
:100B8000882311F40C945E0F80911602882311F4CF
:100B90000C945E0F0E94E32580911B032B81281784
:100BA00009F4D3C18091EA028823E1F08091CF0358
:100BB0008823C1F08091E202811114C08091160255
:100BC000882339F08091E302811103C00E94E3255C
:100BD00009C08091E702811105C00E94452B81E088
:100BE0008093E7021092110280911C033C81381718
:100BF00009F4E2C08091E20281117AC00E941D26B0
:100C00009091120280911F0398136EC0909113026D
:100C100080911E03981368C081E08093E602809162
:100C20001002811165C08091EA02811161C061E703
:100C300071E00E94A72B8091250281110E943D1F27
:100C40008091260281115F988091E402811107C092
:100C500080912702811103C08FE60E94BF1B80EDA7
:100C600097E00E946A250E94181B082F0E94181BFB
:100C7000081721F04C9902C00C94740F8091220245
:100C8000843011F40C94740F0E94682B87E061E0AB
:100C90000E94702B83E091E00E94CC2B86E062E002
:100CA0000E94702B8AEF90E00E94CC2B81E065E0DF
:100CB0000E946D25182F112391F080E064E10E94BD
:100CC0006D2560E040E00E94352780E064E10E94ED
:100CD0006D2563E040E00E9435271150ECCF84EF92
:100CE00091E00E943925C2CF109210021092E602C4
:100CF000109115020E94CC23181709F45DC0809151
:100D00001C03843008F458C0112311F40C948A0F8A
:100D1000815080931C0381E0D12ED826D0921502F9
:100D200080911C0360911B0370E040911A0350E016
:100D300020911E0330E000911F0310E0E090F702C5
:100D4000F090F80290E00E94EC188091F702825B2C
:100D5000809320030E94D02980912A02805F6D2D0C
:100D60000E947E1B00912A0210912B020E3D43E04F
:100D7000140711F40C948D0F025E1F4F91E0F92EB1
:100D8000F00E80912A02890F9D830E94891B682F93
:100D90008F2D0E947E1B9D819F5F9E3181F7109356
:100DA0002B0200932A02C8016EE170E00E94AA346F
:100DB00080E090E00E9440338091E202811102C005
:100DC0000E9446278091EA028111BFC08091E4020F
:100DD0008111BBC08091F5029091F6020A977CF4D4
:100DE0008091E30281110BC00E94B91B88E993E056
:100DF00060E570E040E020E530E00E9488264C99F4
:100E0000A4C0809120028111A0C08091250281118F
:100E10009CC08091F5029091F60202970CF495C067
:100E2000E0911702F0E0EF55FE4F108161E0610F95
:100E300081E00E946D25811388C080E06CE00E94F3
:100E40006D25182F8091E20281111AE00E94942BE7
:100E5000183010F00C941D118091E70281110C9450
:100E6000910F153010F40E94682B812F90E0FC0147
:100E70003197E730F10510F40C94BB0F80E06AE184
:100E80000E946D2560E5869FC00111248C01005BE6
:100E9000194BF12C80E5B8010E94941B482F8F2D2F
:100EA00060E00E943527B8016C5E7F4F80E50E94AC
:100EB000941B482F8F2D61E00E943527B801685D93
:100EC0007F4F80E50E94941B482F8F2D62E00E9487
:100ED0003527B801645C7F4F80E50E94941B482F42
:100EE0008F2D63E00E943527F3940F5F1F4F84E13D
:100EF000F812D0CF0E94B91B80E793E060E570E064
:100F000040E026E930E00E94882680E793E060E92F
:100F100071E040E020E931E00E9488265E9A81E09D
:100F200061E00E94FF240E9482288091E7028823CA
:100F300061F08091D003882311F40C94B70F809155
:100F4000EA02882311F40C94B70F8091E202811118
:100F500078C08091E902811174C08091E8028823F1
:100F600009F46FC02D988FE090E00197F1F72D9A6A
:100F700083E290E00197F1F72D98E4E5F4E04491E5
:100F8000E0E4F4E0E491F0E0EE0FFF1FE65DFB4FDC
:100F900085919491642F00E412E42FE030E00E94E8
:100FA0008702611571058105910549F0DC01CB01CE
:100FB0000196A11DB11DBC01CD019F7003C060E071
:100FC00070E0CB011091E8022AE330E040E050E00D
:100FD0000E945E33F9E11F9FC0011124092E000C0D
:100FE000AA0BBB0B281739074A075B0750F58091FE
:100FF000E702882381F080911402882361F00E9427
:101000004D2B0E94B32160930C0270930D028093CC
:101010000E0290930F028091EA02811112C080911A
:10102000110281110EC08091250281110AC08091A8
:101030002002811106C08091E402811102C04C9B04
:101040007DC78091E7028823C1F080911402882334
:10105000A1F00E94B32100910C0210910D02209189
:101060000E0230910F020A561F4F2F4F3F4F0617A7
:1010700017072807390708F46BC720911B032B8338
:1010800030911C033C8380E00E94CF2E809322028B
:101090009091E202823009F4BFC6833009F4CFC6D2
:1010A000813009F000C79111FEC680E50E94D3246B
:1010B0000E94942B0E94682B8091E402882331F0D7
:1010C00088E70E94122CCC24C39401C0C12C82E07A
:1010D00060E00E94702B81EB92E00E94CC2B82E0BA
:1010E00061E00E94702B83EA92E00E94CC2B81E0A9
:1010F00062E00E94702B0E94142686E992E00E9412
:10110000CC2B82E063E00E94702B89E892E00E9481
:10111000CC2BDC2C80912202843009F496C680E02E
:101120006D2D4EE70E94352780E061E00E94FF248C
:1011300080912202823009F45AC6833009F462C6D3
:10114000813041F741E0D41681F1D41658F162E0C4
:10115000D61609F4D2C183E0D812DCCF0E94682BE6
:1011600082E060E00E94702B89E792E00E94CC2B25
:1011700082E061E00E94702B89E692E00E94CC2B15
:1011800082E062E00E94702B89E592E00E94CC2B05
:1011900082E063E00E94702B8FE492E00E94CC2BEF
:1011A00010E078C30E942511B5CFD092C80389E81A
:1011B00091E00E941B278091D2038A3010F40E9494
:1011C00019268091D2036AE070E00E94C81E8AE36B
:1011D0000E94122C8091D3038A3010F40E941926A9
:1011E0008091D3036AE070E00E94C81E0E9414261A
:1011F00080E061E00E94702B8BE791E00E94CC2B95
:1012000082E063E00E94702B88E691E00E94CC2B84
:101210008EE063E00E94702B8091D103813049F011
:1012200028F0823051F48AE591E005C084E691E02F
:1012300002C08EE591E00E94CC2B0E949D2B00E025
:1012400010E06AE0F62E74E1E72E809122028430ED
:1012500009F43AC1153010F062E001C063E080E0AB
:1012600040E20E943527153010F063E001C062E0D3
:1012700080E04EE70E94352782E062E00E94702BFA
:101280008091D2038A3010F40E9419268091D203F3
:101290006AE070E00E94C81E8AE30E94122C8091CE
:1012A000D3038A3010F40E9419268091D3036AE098
:1012B00070E00E94C81E0E9414268091E5028823D7
:1012C00019F082E591E002C08AE491E00E94CC2B03
:1012D000123089F030F4112361F01130A1F483E071
:1012E0000FC0143061F048F0153069F48EE063E00F
:1012F00008C082E005C085E003C086E001C08EE042
:1013000062E00E94702B80E061E00E94FF248091E7
:101310002202823009F4CCC0833009F4CEC081307F
:1013200009F093CF123009F453C028F4112369F166
:101330001130C9F1C7C0143009F466C008F456C0B2
:10134000153009F0BFC00E94942BB090E5021092B6
:10135000E5020E94682B82E060E00E94702B8EE321
:1013600091E00E94CC2B82E061E00E94702B84E32C
:1013700091E00E94CC2B82E062E00E94702B8CE214
:1013800091E00E94CC2B00E060C08091D2038E30AF
:1013900020F4865F8093D20395C06F2D0E949E3407
:1013A0009093D2038FC02091D203822F6F2D0E9481
:1013B0009E34993011F4295001C02F5F2093D2033D
:1013C0008091D203883109F07DC0E092D2037AC0C7
:1013D0008091D303813320F4865F8093D30372C05E
:1013E0006F2D0E949E349093D3036CC02091D30341
:1013F000822F6F2D0E949E34993011F4295001C024
:101400002F5F2093D3035EC09091E50289278093DC
:10141000E50258C083E06091D10348E50E9435277A
:1014200080E0602F4EE70E94352783E0602F0E9406
:10143000702B80E061E00E94FF24809122028230C4
:10144000E9F0833021F1813029F08091220284304B
:1014500009F726C00093D10386E0602F0E947E1B0F
:101460008091D103811103C081E00E94522E8091AE
:10147000D103823051F70E94522EE7CF80E0602FD7
:1014800040E20E943527023000F70F5FDECF80E098
:10149000602F40E20E9435270023B9F20150D5CFDA
:1014A000B092E50280E061E071E00E94A72B0AC0E3
:1014B000153008F0CACE1F5FC8CE112309F4C5CE7F
:1014C0001150C3CE01E0C1CE002379F083E06091DA
:1014D000E5020E947E1B84E06091D3030E947E1B84
:1014E00085E06091D2030E947E1B80E061E071E0A4
:1014F0000E94A72B1092C8030DCEA0901C038090D1
:101500001B03B0901E0390901F0381E891E00E949E
:101510001B2786EA91E00E94CC2B82E061E00E94CA
:10152000702B85E991E00E94CC2B0E949D2B80912D
:10153000F7029091F802805D97409093F8028093B3
:10154000F70210E000E080912202843009F458C1D3
:1015500082E062E00E94702B99E09A1510F00E94E0
:1015600019268A2D6AE070E00E94C81E8AE30E9454
:10157000122CE9E0E81510F00E941926882D6AE087
:1015800070E00E94C81E0E94142682E063E00E9460
:10159000702BF9E0FB1510F00E9419268B2D6AE0E4
:1015A00070E00E94C81E8EE20E94122C29E02915CC
:1015B00010F00E941926892D6AE070E00E94C81E72
:1015C00081E991E00E94CC2B8091F7029091F80282
:1015D0000A9714F40E9419268091F7029091F8025C
:1015E0000E94612C8EE061E00E94702B8091D003FC
:1015F000882319F08DE891E002C089E891E00E940B
:10160000CC2B80E00111A7C462E040E20E943527A4
:1016100080E061E00E94702B8BEF800F863048F4F1
:1016200080E062E040E20E94352780E063E00E94B3
:10163000702B8EE70E94122C402E512C3BE043165B
:101640005104F8F4F201EC5CFF4F0C94D2348EE0BC
:1016500061E015C082E005C083E003C085E001C001
:1016600086E062E00CC082E009C083E007C085E04C
:1016700005C086E003C08AE001C08BE063E00E9401
:10168000702B80E061E00E94FF2480912202823072
:1016900009F4A8C0833009F4AAC0813009F053CFFF
:1016A000002349F0F2013197EA30F10590F4E15C52
:1016B000FF4F0C94D2340E94A42C45CF4DE04A1524
:1016C00018F06AE0A60E05C08A2D6AE00E949E34DA
:1016D000A92E11E038CF8A2D6AE00E949E349930FD
:1016E00019F487EFA80E01C0A39498E111E0A912A4
:1016F0002ACF54E1A52E27CFE0E3E81518F0FAE051
:101700008F0EE7CF882D6AE00E949E34892EE1CFAC
:10171000882D6AE00E949E34993019F427EF820EDA
:10172000D8CF8394D6CF35E13B1518F04AE0B40EFC
:10173000D0CF8B2D6AE00E949E34B92E0DC08B2D28
:101740006AE00E949E34993019F467EFB60E01C02A
:10175000B3948FE18B1530F0B110BBCF11E0BB24F7
:10176000B394F1CE4EE1B42EB4CF92E0991518F0B7
:10177000EAE09E0EAECF892D6AE00E949E34992E3B
:101780009111A7CF11E099249394DDCEFBE0F915D8
:1017900098F193949ECF8091F7029091F802893549
:1017A000910514F40A9604C06AE070E00E94BE3409
:1017B0009093F8028093F7028CCF2091F70230913A
:1017C000F802C9016AE070E00E94BE34099719F47A
:1017D0002950310902C02F5F3F4F3093F802209308
:1017E000F70277CF0A3008F0AECE0F5FACCE002301
:1017F00009F4A9CE0150A7CE11E03AE0932EA3CE72
:10180000E090F702F090F80220E3E21A28EFF20AE3
:10181000F092F802E092F702112339F1682D70E09E
:101820002B2D30E0092D10E08A2D90E040E050E0B3
:101830000E94EC18A0921C0380921B0310921A03C2
:10184000B0921E0390921F038091F702825B8093F7
:1018500020030E94D0290E9482280E94CC23682F56
:101860008093150280E10E947E1B80E061E071E0C0
:101870000E94A72B4FCC82E390E00E946A258091C2
:101880002202823009F495C2833009F49BC2813070
:1018900009F44BC080912202843009F49FC20E9457
:1018A0009D2B111107C0809118023CE1839FC0015C
:1018B000112402C080E090E00E94F320133011F464
:1018C0000E94942B80E0612F4EE70E9435278FE025
:1018D00060E00E94702B809118026AE070E00E9424
:1018E000C81E8FE061E00E94702B809117026AE0B1
:1018F00070E00E94C81E8FE062E00E94702B809111
:10190000E8026AE070E00E94C81E8FE0612F0E942A
:10191000702B80E00E94CF2E809322028111ABCFEA
:1019200084E690E00E946A25F4CF113009F441C0AA
:1019300050F1123009F44DC0133009F0ABCF0E94C2
:10194000682B82E060E00E94702B8CE392E00E94A2
:10195000CC2B82E061E00E94702B89E292E00E9431
:10196000CC2B82E062E00E94702B86E192E00E9424
:10197000CC2B82E063E00E94702B8CE092E00E940E
:10198000CC2B00E06AC080911802893020F48F5F70
:101990008093180202C010921802609118024CE164
:1019A000649FC00111246D830E94F32082E06D8149
:1019B0000DC080911702893020F48F5F8093170249
:1019C00002C01092170289E0609117020E947E1BEC
:1019D00061CF8091E802893020F48F5F8093E80224
:1019E00002C01092E80288E06091E802EFCF809197
:1019F0001602811137C040E282E160E00E94352783
:101A00008091E402811130C040E282E161E00E94F5
:101A1000352780911402811129C040E282E162E001
:101A20000E94352780E0602F4EE70E94352782E133
:101A3000602F0E94702B0330D8F40E949D2B80E011
:101A400061E00E94FF2480912202823009F49DC14E
:101A5000833009F4A4C1813071F080912202843076
:101A600031F618CF48E5C8CF48E5CFCF48E5D6CF07
:101A70000E94942BE4CF013009F1C8F00230C1F18B
:101A8000033059F789E691E00E941B2789EF91E026
:101A90000E94CC2B81E160E04FEE0E94352780E070
:101AA00061E00E94702B24E1E22EF12C2DC06091A8
:101AB00016026827609316028AE020C00E94942BC9
:101AC0008091E40281110BC00E94FF1B82E161E062
:101AD0004EE20E9435270E94EC1B0E94FB1B609186
:101AE000E40281E068276093E4020E947E1BB5CF88
:101AF000609114026827609314028AE10E947E1BA1
:101B000082E30E94D324A9CF8CEE8E0D843119F488
:101B100080E062E004C0883221F480E063E00E944B
:101B2000702B87E5B7010E94941B0E94122C6FEF67
:101B3000E61AF60A80E5E816F10431F780E060E085
:101B40000E94FF2480E061E071E00E94A72B0E94C8
:101B5000682B80E06BE00E94D91D83E060E00E946A
:101B6000D91D86E06CE00E94D91D88E060E00E94EB
:101B7000D91D8DE061E00E94D91D80E161E044E063
:101B80000E94352781E160E00E94D91D80E063E07A
:101B90000E94702B88EE91E00E94CC2B8091220253
:101BA000843009F45ACF80E00E94CF2E8093220225
:101BB00080E00E94CF2E823089F78091220284300B
:101BC00069F380E00E94CF2E8093220280E00E9481
:101BD000CF2E833091F70E94682B80E060E00E9456
:101BE000702B8DED91E00E94CC2B81E090E00E9463
:101BF000612C8EE20E94122C80E090E00E94612C09
:101C000085ED91E00E94CC2B80E061E00E94702B7A
:101C10008FEC91E00E94CC2B98E0F92E8F2D0E9442
:101C2000C6290E946929811108C088E70E94122CE8
:101C30008F2D60E170E00E94C81EF39498E7F912BE
:101C4000EDCF80E062E00E94702B88EC91E00E9472
:101C5000CC2B8091D5039091D603009711F48BED96
:101C600093E0F101E81BF90BCF010E94612C83EC9A
:101C700091E00E94CC2B88E60E94C6298CEB93E071
:101C800061E10E94B9160E94692988E690E062E04D
:101C900070E00E94472A9091BA038091BB03981785
:101CA00069F18CEB93E00E9474165C018CEB93E07D
:101CB0000E9474167C01B5016F777727072E000C00
:101CC000880B990B0E941B324B015C01B7017727EF
:101CD00086E0759567958A95E1F7072E000C880BCD
:101CE000990B0E941B3220E030E040E85EE30E9446
:101CF0007A32A50194010E94F93303C060E070E0DC
:101D0000CB0140E00E94491F8FED0E94122C80E021
:101D100063E00E94702B8DEB91E00E94CC2B8BE056
:101D200063E00E94702B89EB91E00E94CC2B8091A4
:101D30001502882311F083E501C087E50E94122C6B
:101D400080912202843009F438CF81E00E94CF2EA6
:101D50008093220286E063E00E94702B86E00E945E
:101D60009C21BC01990F880B990B0E941B3220E02B
:101D700030E040EA5BE30E947A3242E00E94491F71
:101D800084E690E00E943925DBCF80E0602F40E2BE
:101D90000E943527033008F060CE0F5F5ECE80E0F2
:101DA000602F40E20E943527002309F456CE0150EF
:101DB00054CE80E0612F40E20E943527133048F472
:101DC0001F5F07C080E0612F40E20E94352711119C
:101DD000115080E0612F0E94702B5CCD8091E70252
:101DE000811198C980E090E00E94F32093C980E0BF
:101DF0006D2D40E20E943527F2E0FD1508F48AC9F6
:101E0000D39488C980E06D2D40E20E943527CD141F
:101E100008F080C9DA947EC9911145C08091E7022B
:101E2000811141C08091E8028823E9F19091E90293
:101E300081E089278093E9020E94462734C09923D4
:101E400039F01092E2021092E7020E9482282BC021
:101E500080911602882339F08091E302811103C03A
:101E60000E94E32520C09091E70281E089278093BA
:101E7000E7020E9446278091E702811107C080E0B7
:101E800090E00E94F3200E944D2B0AC0809118021E
:101E90002CE1829FC00111240E94F3200E94452B57
:101EA00082E30E94D3248091E202811102C088E77C
:101EB00001C080EF0E94D3240C949A0587E00E9411
:101EC0009C218132934064F08091E202882341F0AA
:101ED0001092E2021092E7020E9482280C94CC0534
:101EE0000E9446270C94CC0581E0809310028091DB
:101EF0002702811102C00E94332B8091250281119B
:101F00000E94041C8091260281115F9A0E948228FF
:101F10000C9478068F5F0C94890600E010E00C9416
:101F2000BE068091D003882329F08091EA028111B6
:101F30000C9431070E944D2B0C9431078DE361E521
:101F40000E946D250E94BF1B81E08093110279C819
:101F50000E94452B92C861E040E20E94352780E054
:101F600063E040E20E94352780E062E053CB0E94AC
:101F7000452B0C94A507E75BFF4F0C94D23480E00F
:101F800062E00E946D25182F80E061E00E94702BB6
:101F900080E065E60E946D25EAE08E9FC001112475
:101FA0000E948A2C111106C089E893E06FE971E064
:101FB0000E948F3080E062E00E94702B80E065E636
:101FC0000E946D25FAE08F9FC001112488519C4F1B
:101FD0000E948A2C80E065E60E946D252AE0829F9F
:101FE000C0011124112319F028EB3BE002C020EDC1
:101FF00037E0820F931F0E948A2C8BE00E94BF1B48
:102000000C948F0780E064E60E946D25082F89E01C
:1020100091E00E94CC2B3CE3039F800111240056E9
:10202000104FF12C80E5B8010E94941B482F8F2D92
:1020300061E00E943527B8016C5E7F4F80E50E9409
:10204000941B482F8F2D62E00E943527B801685DF0
:102050007F4F80E50E94941B482F8F2D63E00E94E4
:102060003527F3940F5F1F4F44E1F412DBCF0C943C
:102070008F0780E064E60E946D2560E5869FC001C1
:1020800011248C01005F184DF12C80E5B8010E94ED
:10209000941B482F8F2D60E00E943527B8016C5E9D
:1020A0007F4F80E50E94941B482F8F2D61E00E9496
:1020B0003527B801685D7F4F80E50E94941B482F4B
:1020C0008F2D62E00E943527B801645C7F4F80E568
:1020D0000E94941B482F8F2D63E00E943527F394B4
:1020E0000F5F1F4F84E1F812D0CF0C948F0783E06D
:1020F00061E00E94702B8EE191E00E94CC2B8091D8
:102100001802ECE18E9FC00111240E94F3200E946E
:10211000B91B80E293E06AEF70E040E02EE031E02E
:102120000E94882680E293E066E970E040E024EBBC
:1021300030E00E94882684E992E06AEF70E040E097
:102140002AEF30E00E94882680ED97E00E94392532
:1021500080E090E00E94F3200C9493070E94181BEB
:10216000F82E80E069E671E00E94A72B01E00E9452
:10217000181BF8125EC080912202843009F459C005
:102180000093C8030E94682B81E064E10E946D25E2
:10219000182F112381F080E064E10E946D25E82E64
:1021A00080E064E00E946D25682F8E2D40E00E9443
:1021B00035271150EECF84EF91E00E943925D7CF1B
:1021C00018E288E10E94562B88EC90E00E943925A5
:1021D00080912202843009F411E01150123088F706
:1021E0000C94930780E069E671E00E94A72B00E061
:1021F00010E0812F602F40E00E94352786E990E0B3
:102200000E94392580912202843011F414E104E007
:10221000812F602F40E20E9435271F5F143148F361
:102220000F5F043028F380ED97E00E9439250C946D
:1022300093071092C8030C94930781E56FE60E9400
:102240006D250E94BF1B0C94A507AAE4B0E0EBE249
:10225000F1E10C94B43380E069E771E00E94A72BB0
:102260000E94682B82E060E00E94702B84E893E07B
:102270000E94CC2B0E940C2682E061E00E94702B11
:102280008AE793E00E94CC2B0E940C2682E062E059
:102290000E94702B8EE693E00E94CC2B82E063E0DC
:1022A0000E94702B80E693E00E94CC2B0E940C26AB
:1022B000E12CAE014F5F5F4F6A01809122028430B2
:1022C00009F474C480912502811102C040E201C06A
:1022D00040E081E060E00E94352780912902811171
:1022E00002C040E201C040E081E061E00E94352789
:1022F00080912602811102C040E201C040E081E0ED
:1023000062E00E94352781E063E048E70E943527BC
:1023100080E06E2D4EE70E94352781E061E00E944B
:10232000FF2480912202823009F42BC4833009F407
:1023300033C4813011F651E0E51609F437C2E516D1
:1023400028F082E0E81609F4FDC3B7CF81E069E424
:1023500071E00E94A72B82E069E571E00E94A72B43
:1023600083E061E671E00E94A72B84E061E471E004
:102370000E94A72B89E791E00E941B2780912502EC
:10238000882329F0CE018F5B9F4F0E94292202E013
:1023900010E0F12C812C20E4922E9C0C3AE0A32E2C
:1023A000B12C80912202843009F4DDC181E062E029
:1023B0004BE50E94352782E00E94122C8FE193E0CA
:1023C0000E94CC2B83E00E94122C8DE50E94122CDF
:1023D00081E063E00E94702B8CE093E00E94CC2BA4
:1023E00081E061E043E10E9428270E949D2B8091BB
:1023F0002502811102C044E001C041E088E062E0B2
:102400000E94352780912502811102C040E201C05F
:1024100042E58BE062E00E94352782E060E00E94A6
:10242000702B609123027091240280E090E00E9462
:1024300019322DEC3CEC4CEC5DE30E947A3242E028
:102440000E94491F80E20E94122CFF2069F05E98D2
:102450000E94041C89E060E04AE00E942827CE0127
:102460008F5B9F4F0E94292289E060E00E94702BC1
:1024700080912502882339F089E893E0BE016F5BE3
:102480007F4F0E948F30083099F030F4063059F0B9
:102490000730D9F484E017C00A3089F070F00B30AF
:1024A000A1F480E110C081E00E948F2382E00BC084
:1024B00082E00E948F2388E006C08AE004C083E0A7
:1024C0000E948F238EE063E005C0802F880F800F6D
:1024D0008E5F62E00E94702B112309F45BC01092A2
:1024E0002202F60180E281939E12FDCF0E94942B7E
:1024F00080E062E044E10E94282781E062E00E94DF
:10250000702B89EF92E00E94CC2B81E063E00E9467
:10251000702B87EE92E00E94CC2B85E063E045EFC4
:102520000E943527809122028330C0F5C6010E94A7
:10253000BF21260194E0F92E13E082E061E00E94C1
:10254000702B612C712CF201E60DF71D808180311A
:102550000CF480E20E94122C9FEF691A790A20E1A4
:102560006216710481F7C6010E94BF218BE062E010
:102570000E94702B80E00E94CF2E80932202833035
:1025800088F61150D1F6FA9440E1440E511CF11036
:10259000D3CFC8CF80E061E00E94FF248091220267
:1025A000823009F4C9C0833009F4D1C0813009F008
:1025B000D7C0802F90E08C30910508F0B7C0FC01A7
:1025C000E05BFF4F0C94D23480912502882309F4FC
:1025D000ADC080E032C080912302909124028B36FE
:1025E00053E0950708F4A2C0019778C080912502B6
:1025F000882319F00E94FF1B99C08091200281114D
:1026000002C04C99DAC20E94FB1B81E08093250234
:102610008DC0109125028BC08091230290912402DD
:10262000883324E0920708F081C0019657C080915A
:102630002502882309F47AC081E00E940C204EC054
:102640008091190290911A0249C0809123029091C1
:10265000240290931A0280931902B5010E94AA34B1
:10266000682F86E10E947E1B2091190230911A0288
:10267000C901B5010E94AA34A901481B590BCA011E
:10268000B5010E94AA3485E14DC080911B02909152
:102690001C0224C0809123029091240290931C027A
:1026A00080931B02B5010E94AA34682F88E10E9422
:1026B0007E1B20911B0230911C02C901B5010E94B2
:1026C000AA34A901481B590BCA01B5010E94AA34BA
:1026D00087E128C080911D0290911E0290932402F0
:1026E0008093230223C0809123029091240290932F
:1026F0001E0280931D02B5010E94AA34682F8AE150
:102700000E947E1B20911D0230911E02C901B5015D
:102710000E94AA34A901481B590BCA01B5010E94A5
:10272000AA3489E10E947E1B0E94002610E0F090EE
:1027300025028824839435CE0B3008F40F5F8091F6
:10274000250281110DC0033059F404E009C00111C4
:10275000015080912502811103C0033009F402E089
:1027600010E0F12C1ECE882009F4E9C180912302EB
:10277000909124020AE010E0B8010E94AA34682F68
:1027800082E10E947E1B2091230230912402C90124
:10279000B8010E94AA34A901481B590BCA01B8010B
:1027A0000E94AA3481E10E947E1BC9C1909121023E
:1027B00080912702992309F427C1811102C04C9905
:1027C000FECF81E069E471E00E94A72B82E061E521
:1027D00071E00E94A72B83E061E471E00E94A72BC7
:1027E00089E791E00E941B2784E063E00E94702B40
:1027F00083E593E00E94CC2B8BE063E042E00E94F3
:10280000352780912002882319F082E0F82E02C03B
:10281000FF24F3940E949D2BBB24B3948091220249
:10282000843009F48CC14C9909C080912002811137
:1028300005C080912802882309F4C2C182E060E0CB
:102840000E94702B80912802882329F088E493E06D
:102850000E94CC2B10C084E60E94D32482E560E065
:1028600040E096010CE010E00E94922A89E893E093
:10287000B6010E948F3087E062E00E94702B4C9B73
:1028800005C080912802882309F4B4C18091000119
:102890008A3010F40E941926809100016AE070E0ED
:1028A0000E94C81E8FE20E94122C809121028A3061
:1028B00010F40E941926809121026AE070E00E94C3
:1028C000C81E8FE060E00E94702B80912002882358
:1028D00029F08EE293E00E94CC2B05C08FE060E0EF
:1028E00045E00E9428274C9906C080912002811162
:1028F00002C043E001C041E088E063E00E94352768
:102900008F2D880F8F0D8B5F63E00E94702B81E00D
:1029100061E00E94FF2480912202823009F461C0AC
:10292000833009F468C0813009F078CF51E0F516A2
:10293000E1F0F51638F082E0F81681F193E0F9162F
:10294000A1F16CCF80910001823018F0815080930A
:10295000000180912802882321F010922802B09271
:1029600029024C9935C0F12C59CF80912502811153
:102970000E94FF1B4C990DC0B0922902909100015A
:1029800080911F02890F81590E94BF1BB0922702BC
:1029900002C00E94EC1B0E94FB1B40CF4C9934C12B
:1029A00080912002811130C139CF80910001909136
:1029B0002102891718F48F5F80930001809128020B
:1029C000882321F010922802B09229024C9B26CF36
:1029D0009091000180911F02890F81590E94BF1BB5
:1029E0001DCF80912002811119CF22E02F1508F40C
:1029F00015CFF39413CF8091200281110FCFFF20C8
:102A000009F4B1CFFA940ACF811102C04C99FECFDC
:102A100081E069E471E00E94A72B82E061E571E04A
:102A20000E94A72B83E061E471E00E94A72B89E755
:102A300091E00E941B2784E063E00E94702B83E5F5
:102A400093E00E94CC2B8BE063E042E00E943527AC
:102A500080912002882311F012E001C011E00E9451
:102A60009D2B80912202843009F469C080E061E0EE
:102A70000E94702B84E393E00E94CC2B8FE060E0F7
:102A80000E94702B80912002882329F08EE293E02F
:102A90000E94CC2B05C08FE060E045E00E94282713
:102AA0004C9906C080912002811102C043E001C010
:102AB00041E088E063E00E943527812F880F810F75
:102AC0008B5F63E00E94702B81E061E00E94FF2435
:102AD00080912202823009F1833041F1813009F680
:102AE000113021F0123009F0BCCF10C080912502C6
:102AF00081110E94FF1B4C9904C081E08093270242
:102B000002C00E94EC1B0E94FB1BABCF4C9991C0F2
:102B10008091200281118DC0A4CF8091200281116B
:102B2000A0CF133008F09DCF1F5F9BCF8091200274
:102B3000811197CF112309F494CF115092CF0E94A5
:102B4000ED25BBCB8091260281110EC0809125021C
:102B500081110E94FF1B80912002811102C04C99BB
:102B60007EC05E985F9A02C05E9A5F98909126023E
:102B700081E089278093260284EF91E00E946A25F4
:102B80009CCB80E06E2D40E20E94352742E04E153E
:102B900008F493CBE39491CB80E06E2D40E20E9449
:102BA0003527EE2009F489CBEA9487CB0E94ED25E6
:102BB000C65BDF4FE0E10C94D0330E94EC1B23CDC9
:102BC00040911F0250E041595F4F80910001480F32
:102BD000511D83E0652F20E030E000E010E00E940E
:102BE000922A84E60E94D3240E94EC1B84E60E9471
:102BF000D32424CE84E60E94D3248BE40E940A2BA3
:102C000087598093000142CE8091250281110E9454
:102C1000FF1B80912002882339F05E9810922002D9
:102C20008DE00E94262BFACDB09220020E94332B19
:102C3000F5CD8091250281110E94FF1B8091200219
:102C4000882339F05E98109220028DE00E94262B96
:102C500008CF81E0809320020E94332B02CF0E9494
:102C6000EC1B7FCF85ED8093BC008091BC0084FD80
:102C7000FCCF10924703089540916E02262F30E05A
:102C8000240F311D21323105DCF42091470324301B
:102C9000C9F4FC0180E090E0861758F430916E0290
:102CA0002191DC01A45BBD4FA30FB11D2C930196B4
:102CB000F3CF80916E02680F60936E0280E00895FA
:102CC00081E0089582E008950895E091BB0380912A
:102CD000BA03E81730F4F0E0E650FD4F808190E051
:102CE00008958FEF9FEF08959091BB038091BA03F1
:102CF000981750F4E92FF0E0E650FD4F208130E0C6
:102D00009F5F9093BB0302C02FEF3FEFC90108956F
:102D10008091BA0390E02091BB03821B9109089532
:102D2000A0E0B0E0E6E9F6E10C94BC337C01972F1B
:102D30008A0180914803882391F0C62FD72F6E0116
:102D4000C40ED51ECC15DD0571F06991D701ED914A
:102D5000FC910190F081E02DC7010995F3CF862FFA
:102D6000642F0E943C16C801CDB7DEB7E8E00C9492
:102D7000D833A1E0B0E0EFEBF6E10C94C233698305
:102D8000209148032223D1F02091B803203240F053
:102D900021E030E0FC013383228380E090E015C025
:102DA0008091B903E82FF0E0E75BFC4F99819083B5
:102DB0008F5F8093B9038093B80305C0CE0101965D
:102DC00061E00E943C1681E090E02196E2E00C94E4
:102DD000DE336093410270934202809343029093EA
:102DE0004402DC01CB01845D9E4FAF4FBF4F809307
:102DF0003D0290933E02A0933F02B093400282E0D6
:102E000090E090933C0280933B020E94B321609338
:102E10003702709338028093390290933A020895F2
:102E20001F920F920FB60F9211242F933F934F933F
:102E30005F936F937F938F939F93AF93BF93EF9322
:102E4000FF93E091D502F091D602309709F451C07A
:102E5000968DA685B785858591FF04C09C918923B1
:102E600029F447C09C91892309F043C0A389B48900
:102E70009C918589809589238C9386899789019770
:102E8000F1F7608D718DA685B785558538E020E016
:102E9000CB010197F1F7822F90E095958795282F28
:102EA0004C91452309F02068315091F7868D81FDC2
:102EB00020958091D30290E001968F7399273091ED
:102EC000D402381749F0A091D302B0E0AD56BD4FFF
:102ED0002C938093D30203C0868D8160868F828D70
:102EE000938D0197F1F7A389B4899C918589892BEA
:102EF0008C93FF91EF91BF91AF919F918F917F91B3
:102F00006F915F914F913F912F910F900FBE0F9056
:102F10001F901895E091D502F091D602E817F907B5
:102F200069F4A389B4899C918589809589238C93C0
:102F30001092D6021092D50281E0089580E00895A3
:102F40001F920F920FB60F9211242F933F934F931E
:102F50005F936F937F938F939F93AF93BF93EF9301
:102F6000FF938091B900887F803609F49CC068F592
:102F7000883209F45BC090F4803109F454C038F40D
:102F8000882309F4F6C0883009F44DC0F6C08831B2
:102F900009F44CC0803209F45DC0EFC0803409F4FC
:102FA00068C048F4803309F455C0883309F0E5C09F
:102FB00080934503D8C0803509F44FC0883509F4A3
:102FC0005DC0883409F0D9C0D6C0883909F4C7C0BB
:102FD000A8F4883709F467C038F4883609F463C068
:102FE000803709F460C0C9C0883809F4B8C0803996
:102FF00009F45FC0803809F0C0C05BC0803B09F4B1
:1030000086C038F4803A09F466C0883A09F47FC073
:10301000B4C0803C09F4A7C0883C09F4A4C0883B34
:1030200009F48AC0AAC08091220310C09091440381
:1030300080914303981770F5E091440381E08E0F6F
:1030400080934403F0E0ED5DFC4F80818093BB00F2
:1030500085EC86C0809345038EC0E091440381E0F7
:103060008E0F809344038091BB00F0E0ED5DFC4F38
:10307000808390914403809143036EC0E0914403A8
:1030800081E08E0F809344038091BB00F0E0ED5D02
:10309000FC4F80838091460381116DC081E0809355
:1030A000210384EA61C083E0809347031092920277
:1030B000CFCF80919202803208F051C0E09192020D
:1030C00081E08E0F809392028091BB00F0E0EE5879
:1030D000FD4F8083BDCF85EC8093BC0010924703E9
:1030E00080919202803230F4E0919202F0E0EE584A
:1030F000FD4F10826091920270E0E0917002F091B9
:10310000710282E792E009951092920236C084E043
:103110008093470310926F0210926E02E0916C024E
:10312000F0916D02099580916E02811105C081E0D8
:1031300080936E0210924C02E0916F0281E08E0F3C
:1031400080936F02F0E0E45BFD4F80818093BB00D1
:1031500090916F0280916E02981708F479CF85E8FC
:103160008093BC000AC085EC8093BC00109247039A
:1031700004C0109245030E943216FF91EF91BF9157
:10318000AF919F918F917F916F915F914F913F91FF
:103190002F910F900FBE0F901F901895109247031C
:1031A00081E0809346031092210382E161E00E9456
:1031B0006B2083E161E00E946B20E9EBF0E080810D
:1031C0008E7F808380818D7F808388E48093B800A8
:1031D00085E48093BC000895A0E0B0E0E2EFF8E160
:1031E0000C94B333382E962E842EF90184E6E8161B
:1031F000F1042CF082EBE81A87E0F80A03C08EE1B4
:10320000E80EF11CE0924B0200934A02E09349025F
:10321000309247029092460280924502AE2DB0E075
:1032200020E833E341EE51E00E949F332B013C0143
:1032300022EB37E0FF2484E6C82ED12CC0E9D1E090
:10324000C901825B97408E159F05DCF4C90183702C
:103250009927892B99F4C901B6010E94BE34892BA4
:1032600031F4C901BE010E94BE34892B39F480E8D3
:10327000480E81E5581E81E0681E711C2F5F3F4F8C
:10328000DFCF8EE4E81A88EFF80AC70164E670E041
:103290000E94BE346C01C70160E971E00E94BE3437
:1032A0005C01C1E0D0E0112783E0E822FF24C017D1
:1032B000D1072CF5C230D10589F4E114F10471F481
:1032C000C114D10419F4A114B10441F480E8480EEA
:1032D0008BE3581E86E2681E711C0FC0DE01A655E6
:1032E000BE4FAC91B0E020E831E541E050E00E94F3
:1032F0009F33460E571E681E791E2196D8CF292D62
:1033000030E0ACE3B0E00E94E9336B017C01C80C13
:10331000D11CE11CF11C232D30E0A0E1BEE00E9495
:10332000E933C60ED71EE81EF91EDF01BB27119731
:1033300020E831E541E050E00E94AA33DC01CB01F6
:103340008C0D9D1DAE1DBF1DBC01CD01640D751DF5
:10335000861D971D0E94E916CDB7DEB7E1E10C94FA
:10336000CF33CF92DF92EF92FF920F931F930E9481
:10337000B321C0903702D0903802E0903902F0902B
:103380003A028B019C010C191D092E093F098091FD
:10339000410290914202A0914302B0914402083E42
:1033A000134021053105D0F00196A11DB11D809378
:1033B000410290934202A0934302B0934402B701AA
:1033C000A60148515C4F6F4F7F4F40933702509397
:1033D00038026093390270933A02C9CF40913D029E
:1033E00050913E0260913F02709140028417950710
:1033F000A607B70788F1E0913502F09136023097C1
:1034000059F10995611571058105910519F00E9421
:10341000E91622C08091410290914202A09143029C
:10342000B0914402845D9E4FAF4FBF4F80933D02E9
:1034300090933E02A0933F02B093400281E090E05F
:1034400020913B0230913C02232B11F480E090E06C
:1034500090933C0280933B02609141027091420242
:1034600080914302909144021F910F91FF90EF9041
:10347000DF90CF900895A0E0B0E0E1E4FAE10C9491
:10348000B4334B015C018091310290913202A091E2
:103490003302B091340288169906AA06BB0609F4D5
:1034A000C2C08CE3C82ED12CE12CF12CC501B40193
:1034B000A70196010E945E3360934502CA01B901DB
:1034C000A70196010E945E3360934602CA01B901CA
:1034D00028E130E040E050E00E945E3369017A016B
:1034E00060934702CA01B9016C5F7F4F8F4F9F4FB6
:1034F00027E030E040E050E00E945E336F5F609371
:103500004802412C512C320140E004E610E0C0E9B1
:10351000D1E0242F30E02E54384FF901E370FF271B
:10352000309789F4C901B8010E94BE34892B31F467
:10353000C901BE010E94BE34892B29F48EE691E0B8
:10354000A0E0B0E004C08DE691E0A0E0B0E0480E5D
:10355000591E6A1E7B1ED301C201AA27BB27C816AB
:10356000D906EA06FB0610F04F5FD3CF40934B021B
:10357000309799F4C90164E670E00E94BE34892B4B
:1035800039F4C90160E971E00E94BE34892B29F445
:103590008EE691E0A0E0B0E004C08DE691E0A0E00E
:1035A000B0E0481A590A6A0A7B0AC418D508E60826
:1035B000F708C90164E670E00E94BE34EC01C9015D
:1035C00060E971E00E94BE34ABEAB1E020E0213056
:1035D00039F4309749F4209729F4009729F402C070
:1035E0004C9103C04DE101C04CE150E060E070E05F
:1035F000C416D506E606F70640F0C41AD50AE60A50
:10360000F70A2F5F11962C3011F72F5F20934A0293
:10361000C394C09249028092310290923202A092E9
:103620003302B0923402CDB7DEB7E0E10C94D03370
:103630000E94B1190E943B1A8091460208951F9280
:103640000F920FB60F9211240F931F932F933F9356
:103650004F935F936F937F938F939F93AF93BF939A
:10366000EF93FF930E94B32120912F0230913002FB
:10367000890120E030E06017710782079307B8F0F6
:1036800080916F008D7F80936F0082E08093810036
:1036900081E080938000E0912D02F0912E029081D4
:1036A00080912C0280958923808310922C02E091D6
:1036B0002D02F0912E02908180912C028927808327
:1036C000FF91EF91BF91AF919F918F917F916F91FA
:1036D0005F914F913F912F911F910F910F900FBECE
:1036E0000F901F90189587EE91E090936B03809355
:1036F0006A038AE693E00E948A17089520912A02BD
:1037000030912B02A901480F511DCA010E9440337C
:10371000089520912A0230912B02A901480F511DD2
:10372000CA010E9438330895A1E0B0E0EAE9FBE164
:103730000C94C033182F062F79830E94C6298CEB76
:1037400093E069810E94B9168CEB93E0602F0E9490
:10375000B9160E946929812F90E061E070E00E9413
:10376000472A8CEB93E00E9474162196E4E00C94B7
:10377000DC335E9886E490E00E946A250895A1E01B
:10378000B0E0E5ECFBE10C94C03389830E94B91BE7
:1037900083E060E0498120E030E000E010E00E943A
:1037A000922A84E60E94D32480912902882319F06A
:1037B00081E00E94372B80912802882349F081E123
:1037C00064E040E020E030E000E010E00E94922A57
:1037D0002196E4E00C94DC330E94332B84E60E94B3
:1037E000D32410922802109229021092270284E01A
:1037F0000E94372B08955F981092260208950E9428
:103800003D1F109225020895CF93DF930E944D2112
:1038100080912302909124022AE0289FE001299FB1
:10382000D00D1124CE52D2420E94011F20919E033E
:1038300030919F0322273E7F3068CE016AE070E01E
:103840000E94AA34262B372B30939F0320939E038C
:103850000E94DF1E0E94011F8091AC039091AD0376
:1038600096FFF8CF0E94011F80919E0390919F03C5
:103870009F7790939F0380939E030E94DF1E0E9478
:10388000011F8091AC039091AD0396FDF8CFDF91BD
:10389000CF910895CF93823009F477C038F488230C
:1038A00021F1813009F0B8C0CAE060C0843009F469
:1038B0008BC008F472C0853009F0AEC088E592E094
:1038C00068EC70E041E028EC30E00E94882684EF4C
:1038D00091E068EC70E041E028EC30E00E9488263E
:1038E00080E991E068EC70E092C086E091E06AEFD8
:1038F00070E041E02DE431E00E94882684EC90E005
:103900006DE770E041E027EA30E00E94882684EC11
:1039100090E06DE770E041E027EA30E00E94882601
:103920008CED90E06AEF70E041E02DE431E00E9420
:10393000882684EC90E06AEF70E041E02AE932E00A
:103940000E94882687EF90E06AEF70E041E02DE466
:1039500031E00E94882686E091E06AEF70E041E065
:103960002DE431E057C0C15009F456C088EB91E016
:1039700062E370E041E024E630E00E948826809116
:103980002202843081F7C0E0EECF88EB91E068EC52
:1039900070E041E024EF31E03DC088E592E064E66C
:1039A00070E041E024E630E00E9488268CEB92E053
:1039B00064E670E041E024E630E00E94882680E280
:1039C00093E064E670E023C088E592E060E570E093
:1039D00041E024E630E00E94882680E991E060E53D
:1039E00070E041E024E630E00E94882684EF91E018
:1039F00060E570E041E024E630E00E94882680E93E
:103A000091E060E570E041E028EC30E003C041E087
:103A10002CE231E00E948826CF910895A0E0B0E02A
:103A2000E4E1FDE10C94BC336C017A018B01C0E050
:103A3000D0E0CE15DF0589F0D8016D918D01D6015A
:103A4000ED91FC910190F081E02DC6010995892B43
:103A500011F47E0102C02196ECCFC701CDB7DEB7CD
:103A6000E8E00C94D8332091D5023091D602281783
:103A7000390771F49091D4028091D302981741F0E4
:103A8000E091D402F0E0ED56FD4F808190E0089582
:103A90008FEF9FEF089508951F93CF93DF93DC017D
:103AA0005C962D913C915D972115310539F481E0AB
:103AB00090E013969C938E9312973DC05196ED9192
:103AC000FC91529750969C915097892F80951FB7E3
:103AD0005E964C915E9741FB772770F941FD6095AA
:103AE000F8944081772311F0492B01C0482340838B
:103AF000E9012197F1F748E0508160FF02C0592B9E
:103B000001C058235083E9012197F1F76695415090
:103B100099F7772321F090818923808303C08081E6
:103B2000982B90831FBF5C968D919C915D97019718
:103B3000F1F721E030E0C901DF91CF911F910895A5
:103B40002091D5023091D6022817390771F480915F
:103B5000D3022091D40290E0805C9F4F821B910998
:103B600060E470E00E94BE34089580E090E0089523
:103B70002091D5023091D60228173907B9F49091D7
:103B8000D4028091D302981789F0E091D402F0E03A
:103B9000ED56FD4F80812091D40230E02F5F3F4FE2
:103BA0002F7333272093D40290E008958FEF9FEF77
:103BB0000895CF93C62F8093E1021092E00260E057
:103BC00043E00E9428276091E0026F5F8091E1024C
:103BD00043E00E9428278C2F90E08D30910508F05B
:103BE000D5C0FC01E45AFF4F8091E1020C94D2341D
:103BF0006091E00240E00E94352781E067C060915B
:103C0000E00241E00E94352782E00E94122C609180
:103C1000E0026F5F8091E10244E00E94352787E077
:103C200014C06091E00246E00E94352786E00E94C1
:103C3000122C82E00E94122C6091E0026F5F809152
:103C4000E10243E00E94352784E00E94122C84E0C8
:103C50009BC06091E00246E00E94352786E00E940A
:103C6000122C82E013C06091E00243E00E943527ED
:103C700084E00E94122C87E044C06091E00243E09F
:103C80000E94352786E00E94122C86E00E94122CAA
:103C90006091E0026F5F8091E10244E022C0609198
:103CA000E00240E00E94352786E00E94122C86E068
:103CB00010C06091E00241E00E94352781E01EC003
:103CC0006091E00240E00E94352786E00E94122CBD
:103CD00082E00E94122C6091E0026F5F8091E1020D
:103CE00043E00E94352784E00E94122C85E04CC0FE
:103CF0006091E00240E00E94352786E00E94122C8D
:103D000082E00E94122C8091E1026091E0026F5FDC
:103D10008E5F47E00DC08F5F6091E00244E00E943B
:103D200035278091E1026091E0026F5F8F5F44E090
:103D30000E9435272BC06091E00240E00E943527A9
:103D400082E00E94122C80E00E94122C6091E0021E
:103D50006F5F8091E10247E00E94352783E00E9477
:103D6000122C87E011C06091E00247E00E943527E5
:103D700080E00E94122C6091E0026F5F8091E1026E
:103D800047E00E94352783E00E94122CCF910895CE
:103D9000282FAB01672B61F4E0918903F0918A032E
:103DA0000190F081E02D89E893E0622F0995089554
:103DB000682F70E080E090E00E941E2C08951F9311
:103DC000CF93DF9380E10E94C629CCE9D3E018812C
:103DD000698122968CEB93E00E94B9168CEB93E0FC
:103DE000612F0E94B91683E0C83AD80781F70E9474
:103DF000692991E0811190E0892FDF91CF911F9186
:103E000008950F931F93CF93DF9380E190E060E2DA
:103E100070E00E94472A8091BA0390E02091BB0392
:103E2000821B910980329105ECF3CAE0D0E08CEB63
:103E300093E00E9474168E01000F111F0B561C4F49
:103E4000F801138284838CEB93E00E947416F801CE
:103E500023813481822B932B94838383C930D105B2
:103E600039F02196C031D10511F7C0E0D0E0DFCFA5
:103E7000DF91CF911F910F9108950E94011FE5E9F5
:103E8000F3E0878190858064908787830E94DF1E9E
:103E900008954F925F926F927F928F929F92AF920E
:103EA000BF92CF92DF92EF92FF92CF93DF936B019D
:103EB0007C01B42EA70196010E949934882329F031
:103EC00089E893E067EB71E00FC0C701B6019F7707
:103ED0002FEF3FEF4FE75FE70E94943418163CF452
:103EE00089E893E06BEB71E00E948F3086C0C701D8
:103EF000B6012FEF3FEF4FE75FE40E9494341816AE
:103F00002CF489E893E06FEB71E0EECFC701B601C6
:103F10002FEF3FEF4FE75FEC0E94143287FDF1CFA8
:103F2000C701B60120E030E0A9010E94143287FFEA
:103F300009C08DE20E94122CEC01F7FAF094F7F818
:103F4000F09402C0C0E0D0E0A12C60E070E080E01E
:103F50009FE3AB1441F02DEC3CEC4CEC5DE30E9494
:103F60007A32A394F6CFA70196010E94F9332B0170
:103F70003C010E9465346B017C010E9419329B0157
:103F8000AC01C301B2010E94F8332B013C01C7010F
:103F9000B6014AE00E941E2CC80FD91FBB2029F091
:103FA0008EE20E94122CC80FD91FFB2CFF2021F19A
:103FB000C301B20120E030E040E251E40E947A32D5
:103FC0002B013C010E9465344B01A12CB12CC50191
:103FD000B4014AE00E941E2CC80FD91FC501B401CC
:103FE0000E9419329B01AC01C301B2010E94F83357
:103FF0002B013C01FA94DACFCE01DF91CF91FF90F3
:10400000EF90DF90CF90BF90AF909F908F907F9078
:104010006F905F904F900895A1E0B0E0E2E1F0E290
:104020000C94C03389830E94011F20919C0330911E
:104030009D03A9015B7F8981811106C0397F30937F
:104040009D0320939C0306C0CA01926090939D0338
:1040500080939C0380919C0390919D039160909329
:104060009D0380939C030E94DF1E0E94011F80918C
:10407000AC039091AD0396FFF8CF0E94011F009111
:10408000AC031091AD030027107280919C039091B6
:104090009D039E7F90939D0380939C030E94DF1E4F
:1040A0000E94011F2091AC033091AD03C901882704
:1040B000907436FDF5CF0115110549F40E94011FDA
:1040C0008091AE039091AF03937085599C4F2196D8
:1040D000E4E00C94DC3390E0FC01EA56FC4F3491B0
:1040E000FC01E85BFB4F2491FC01EC5CFB4FE4918D
:1040F000EE2309F43BC0332339F1333091F038F427
:104100003130A9F0323001F584B58F7D12C03730DF
:1041100091F03830A1F03430B9F4809180008F7D77
:1041200003C0809180008F77809380000DC084B59C
:104130008F7784BD09C08091B0008F7703C08091D4
:10414000B0008F7D8093B000F0E0EE0FFF1FE05EC7
:10415000FB4FA591B4918FB7F894EC91611103C016
:1041600020952E2301C02E2B2C938FBF0895CF9323
:10417000DF9390E0FC01E85BFB4F2491FC01EC5CD9
:10418000FB4F8491882361F190E0880F991FFC0117
:10419000E457FC4FC591D491FC01E05EFB4FA59123
:1041A000B491611109C09FB7F8948881209582234A
:1041B0008883EC912E230BC0623061F49FB7F89492
:1041C0003881822F809583238883EC912E2B2C932A
:1041D0009FBF06C08FB7F894E8812E2B28838FBF2E
:1041E000DF91CF910895CF93DF93EC018AE061E0F6
:1041F0000E94B720209719F48AE060E005C0CF3F05
:10420000D10529F48AE061E00E946B2043C0E0EA16
:10421000F3E0E491E330F9F048F4E130B9F0E23052
:10422000A1F584B5806284BDC8BD34C0E730E9F033
:10423000E83019F1E43049F5809180008062809384
:104240008000D0938B00C0938A0024C084B580681E
:1042500084BDC7BD1FC080918000806880938000AE
:10426000D0938900C093880015C08091B000806809
:104270008093B000C093B3000DC08091B000806205
:104280008093B000C093B40005C0C038D1050CF0D5
:10429000B9CFB2CFDF91CF910895CF93DF93C5E926
:1042A000D3E0888161E00E94B720898161E00E94AB
:1042B000B720898160E00E946B20888160E00E94C5
:1042C0006B2081E090E00E94ED2B888161E00E94EC
:1042D0006B2081E090E00E94ED2B1092BB031092C6
:1042E000BA031092B9031092B8030E94CE180E942C
:1042F000011F80E091E89A8B898B0E94DF1E84EF7A
:1043000091E00E94ED2B0E94011F81E090EC9887C4
:104310008F838B859C8598619C878B878D859E85F7
:104320008F619E878D870E94DF1E8EE690E00E943F
:10433000ED2BDF91CF9108958E3008F08E5087706D
:10434000806480937C0080917A00806480937A00FE
:1043500080917A0086FDFCCF8091780020917900D1
:1043600090E0922B08952FB7F8946091DC02709141
:10437000DD028091DE029091DF022FBF08958F92BF
:104380009F92AF92BF92EF92FF920F931F93CF93A2
:10439000DF937C010E94B3214B015C0124EF820E6C
:1043A00021E0921EA11CB11CC0E0D0E000E010E0B2
:1043B0000E94B321681579058A059B0598F021961E
:1043C000CC0FDD1FCC0FDD1FCE0DDF1D1882DF915E
:1043D000CF911F910F91FF90EF90BF90AF909F9062
:1043E0008F9008950830110554F70E94011F8091A5
:1043F000AC039091AD0397FF27C0E091B203F09119
:10440000B303CF018827987F81159042D1F4EF70D4
:10441000FF27EC17FD071CF00F5F1F4FEF01809186
:10442000B4039091B503EE0FFF1FEE0FFF1FEE0DCB
:10443000FF1D908381838091B6039091B70392838F
:10444000838388E290E002C08EE190E00E94ED2B31
:10445000AFCF8F929F92AF92BF92DF92EF92FF9277
:104460000F931F93CF93DF9300D000D0CDB7DEB76B
:104470007C010E94B3214B015C0128EE820E23E0F7
:10448000921EA11CB11C19821A821B821C8200E0A0
:1044900010E0DD24D3940E94B321681579058A05C4
:1044A0009B05F8F40E94011F8091AC039091AD032D
:1044B00097FF35C08091B2039091B303FC01E37084
:1044C000FF27A1E0B0E0AC0FBD1FAE0FBF1F2C91C6
:1044D0002223A1F088E290E00E94ED2B0430110528
:1044E000D0F20E94B321681579058A059B0518F062
:1044F000F701108217C0F701108614C0843F914065
:1045000048F7DC920F5F1F4F8091B6039091B7037D
:10451000EE0FFF1FEE0DFF1D90838183DBCF8EE139
:1045200090E0DACF0F900F900F900F90DF91CF9126
:104530001F910F91FF90EF90DF90BF90AF909F90F1
:104540008F9008951F920F920FB60F9211242F9300
:104550003F938F939F93AF93BF938091DC02909191
:10456000DD02A091DE02B091DF023091DB0223E098
:10457000230F2D3720F40196A11DB11D05C026E89B
:10458000230F0296A11DB11D2093DB028093DC0254
:104590009093DD02A093DE02B093DF028091D702F8
:1045A0009091D802A091D902B091DA020196A11D92
:1045B000B11D8093D7029093D802A093D902B093F3
:1045C000DA02BF91AF919F918F913F912F910F9000
:1045D0000FBE0F901F90189583FD02C098E001C098
:1045E00098E28770892B98E10FB6F894A89590937C
:1045F00060000FBE80936000A89580916000806489
:10460000809360008091E702882319F083B7817F4F
:104610000BC08091E202882321F083B7817F846000
:1046200003C083B7817F8C6083BF83B7816083BF02
:1046300085B7806685BF8F7D85BF8091640081606E
:1046400080936400889583B78E7F83BF0FB6F894FC
:10465000A89580916000886180936000109260004E
:104660000FBE809160008F7B80936000809164001A
:104670008E7F809364000895CF938091D003882328
:10468000E9F18091CE039091CC0320911C039817FF
:1046900030F4C1E0821768F0291758F009C0891773
:1046A00038F4C0E0821728F4291718F4C1E001C0DB
:1046B000C0E0891310C05091CD033091CB03351762
:1046C00038F040911B03451718F0341708F0C1E08B
:1046D000381708F4C1E0281307C030911B038091FC
:1046E000CD03381708F0C1E0291309C090911B03CE
:1046F0008091CB03981718F4C1E001C0C0E080910D
:10470000F902C81749F0CC2311F087E401C086E60E
:104710000E94BF1BC093F9028C2FCF910895CF93B5
:10472000C82F81E061E00E94702B87E194E00E9435
:10473000CC2B8C2F6AE070E00E94C81E8AE30E9496
:10474000122C80E20E94122CEC2FF0E0EE0FFF1FE3
:10475000E95EFD4F6081718180E090E00E94193236
:104760002DEC3CEC4CEC5DE30E947A3242E00E947E
:10477000491FCF910895CF93DF930E94181BCAE180
:10478000D3E089830E94B1190E943B1A80914702AD
:104790008A83DF91CF91089580911F039DEF980F39
:1047A000983008F06DC09CEF980F963008F466C002
:1047B000833089F520911E034091F7025091F80251
:1047C00035E0349FC001359F900D112497FD03966D
:1047D0009595879595958795049667E070E00E947A
:1047E000BE344FE150E0BA01681B790B38E1369FC7
:1047F000A001379F500D11244F5F5F4F80911C0324
:1048000078E1279F90011124280F311D81E0421784
:104810005307BCF135C08A3099F520911E034091B1
:10482000F7025091F80235E0349FC001359F900D9A
:10483000112497FD039695958795959587950196F3
:1048400067E070E00E94BE344FE150E0BA01681B9F
:10485000790B38E1369FA001379F500D11244F5F2F
:104860005F4F80911C0378E1279F90011124280F4E
:10487000311D81E04217530724F402C081E00895FE
:1048800080E00895EF92FF920F931F93CF93DF93F1
:1048900088E60E94C6298CEB93E060E00E94B9167E
:1048A0000E94692988E690E067E070E00E94472A4C
:1048B0008CEB93E00E947416CAE1D3E0982F969592
:1048C000969596959E70292F220F220F920F8F702A
:1048D000890F88838CEB93E00E947416982F929531
:1048E0009F708F702AE0929F800D112489838CEB3A
:1048F00093E00E947416982F9695969596959670CB
:10490000292F220F220F920F8F70890F8A838CEB31
:1049100093E00E947416982F92959F708F702AE0F2
:10492000929F800D11248B838CEB93E00E94741670
:10493000982F92959F708F702AE0929F800D11247E
:104940008C838CEB93E00E947416982F92959F7045
:104950008F702AE0929F800D11248D838CEB93E061
:104960000E947416982F9F70925E82958F70E92E28
:104970002AE0829FE00C1124EE828A81698170E036
:10498000488150E02C8130E00D8110E0F12C9EE454
:10499000E91A98EFF90A90E00E94EC18CDB7DEB75B
:1049A000E6E00C94DA33CF93C82F8091E702882396
:1049B00029F080916400806280936400C7FF04C086
:1049C00083E00E94EC22C857C03420F082E00E94AD
:1049D000EC22CC53C03220F081E00E94EC22CE5178
:1049E000C03118F080E00E94EC228091E702882319
:1049F00021F08091640010926400CF910895CF92CD
:104A0000DF92EF92FF921F93CF93DF93C82FD62FA1
:104A10000E94B3216B017C0120E6C20E2AEED21E59
:104A2000E11CF11C1092220214E0909122029111DB
:104A300015C08C2F0E94CF2E80932202D11104C06A
:104A400088E70E94D324F1CF0E94B321C616D7066F
:104A5000E806F90650F710932202E7CF82E30E949E
:104A6000D324DF91CF911F91FF90EF90DF90CF90F3
:104A700008958F929F92AF92BF92CF92DF92EF9262
:104A8000FF926C010E94B3214B015C01E12CF12CDF
:104A90000E94B321DC01CB0188199909AA09BB093D
:104AA0008C159D05AE05BF0528F481E00E94CF2E30
:104AB000843071F781E00E94CF2E843011F480930E
:104AC0002202FF90EF90DF90CF90BF90AF909F9029
:104AD0008F9008950E94ED2B0895A0E0B0E0E3E7E9
:104AE000F5E20C94B833962F3FB7F8944091D70273
:104AF0005091D8026091D9027091DA0226B5A89B34
:104B000006C02F3F21F04F5F5F4F6F4F7F4F3FBF7A
:104B1000762F652F542F4427420F511D611D711DA3
:104B2000E2E0440F551F661F771FEA95D1F7EA01AF
:104B3000CC0FDD1FCC0FDD1F4C275D27EA01CC0F0A
:104B4000CD2FCC1FDD0BD195C427D5277E01F69440
:104B5000FE2CEE24F794E794082F10E0692F70E004
:104B6000601B710B072E000C880B990B0E941B32E7
:104B700020E830E040E857E30E947A324B015C01C4
:104B8000CE25DF25BE0180E090E00E9419329B0116
:104B9000AC01C501B4010E947A326B017C01B801FD
:104BA000110F880B990B0E941B329B01AC01C701AE
:104BB000B6010E94F9330E946534862FCDB7DEB767
:104BC000ECE00C94D43380E090E00E94F32081E08C
:104BD0008093E2021092E70208950F931F93CF9300
:104BE00001E011E0C0E08C2FB8010E94A72BCF5F3D
:104BF000085F1F4FC830B9F7CF911F910F910895EB
:104C000081E061E00E94702B8EEE93E00E94CC2B3D
:104C100082E30E94D32408958FEE0E94122C8AEE24
:104C200093E00E94CC2B089585EE93E00E94CC2B5C
:104C3000089580E30E94122C08950E94B1190E94E9
:104C40003B1A80914B0290E08E54984F9093F8025B
:104C50008093F7020E94B1190E943B1A8091490289
:104C600080931E030E94B1190E943B1A80914A0250
:104C700080931F0380E063E00E94702B0E94B119B3
:104C80000E943B1AE0914802F0E0EE0FFF1FE95F3F
:104C9000FB4F659174918BEE92E00E940A3289E895
:104CA00093E06BEE72E00E948F308AE063E00E9436
:104CB000702B80911E038A3010F40E941926809177
:104CC0001E036AE070E00E94C81E8EE20E94122C51
:104CD00080911F038A3010F40E94192680911F03CF
:104CE0006AE070E00E94C81E8EE20E94122C809141
:104CF000F7029091F8020E94612C8091F502909148
:104D0000F6020A9724F482E160E00E94702B089575
:104D1000A0E0B0E0EEE8F6E20C94BA335B01142FA9
:104D2000E9019C0140E050E060E079E08DE390E033
:104D30000E94803369017A0181E0C81AD108E10834
:104D4000F108C114D104E1E0EE06F10458F0CD2CD5
:104D5000DE2CEF2CFF24F1E0CF1AD108E108F10896
:104D600004E001C001E0A114B10449F00E94B321A4
:104D70006A0D7B1D7093300260932F0206C08FEF87
:104D80009FEF9093300280932F0280912C0281112B
:104D900022C0E3E5F4E0849180932C026FE374E099
:104DA000FB019491E92FF0E0EE0FFF1FE05EFB4F57
:104DB0002591349130932E0220932D02FB016491B2
:104DC000E62FF0E0EE0FFF1FE457FC4FA591B491E2
:104DD000EC918E2B8C93D0928700C09286008091AC
:104DE000840090918500A0E0B0E0C816D906EA06DC
:104DF000FB0620F4D0928500C092840000610093ED
:104E0000810080E18093800080916F0082608093B8
:104E10006F00111104C0CE010E946A2507C0809165
:104E20002202843019F0CE010E943925CDB7DEB7B9
:104E3000EAE00C94D633BC0180E00E94A72B0E94CC
:104E4000682B80E00E94122C80E20E94122C0895B0
:104E5000CF93C42F0E94702BCC2329F080E20E94B4
:104E6000122CC150F9CFCF910895A1E0B0E0EBE34F
:104E7000F7E20C94C23349830E94702B4981842F3E
:104E80000E94122C2196E2E00C94DE33CF930E9414
:104E9000BB230E943C238093EA0280911C038A304A
:104EA00018F481E060E005C06AE00E949E34682F3B
:104EB00081E00E94D91D80911C03CAE06C2F0E94E2
:104EC0009E3484E0692F0E94D91D87E06AE00E9429
:104ED000D91D80911B038A3018F48AE060E005C078
:104EE0006C2F0E949E34682F8AE00E94D91D809109
:104EF0001B036AE00E949E348DE0692F0E94D91D39
:104F000081E161E043E00E94282781E161E00E94A5
:104F1000702B8091E902811104C08091E802811117
:104F200003C088E70E94122C8091E702882319F0C1
:104F300084E40E94122C8091D003882349F0809150
:104F4000EA02882311F08EE401C08EE60E94122C42
:104F50008091E602882341F083E062E00E94702B9A
:104F60008BEF93E00E94CC2B81E162E043E00E9452
:104F7000282781E162E00E94702B8091E50288235E
:104F800019F084EF0E94122C80912002882319F0DE
:104F900080E70E94122C8091E402882319F083E5B7
:104FA0000E94122C80912702811108C08091260254
:104FB000811104C080912502882319F080E50E94A8
:104FC000122C86E00E949C219093F6028093F502B9
:104FD000C4E08AE00E94D32486E00E949C212091B4
:104FE000F5023091F602820F931F9093F6028093A0
:104FF000F502C15071F765E070E00E94BE34072EE3
:10500000000C880B990B0E941B3220E030E040EA34
:105010005BE30E947A3226E636E646E350EC0E94D5
:10502000F9332CE938ED49E952E40E947A320E94C2
:1050300065341616170634F4643671052CF063E6F1
:1050400070E002C061E070E0CB01072E000CAA0BFB
:10505000BB0B9C01AD016A337105A4F029533109E2
:1050600041095109ABE5B0E00E949F332AE230E0EC
:1050700040E050E00E948033DA01C9010896A11D8A
:10508000B11D13C02150310941095109A7E0B0E019
:105090000E949F3327E330E040E050E00E948033DD
:1050A000DA01C9010196A11DB11D9093F60280930A
:1050B000F50281E160E00E94702B8091F5029091F1
:1050C000F6020A9744F481E160E040E20E9435274D
:1050D0000E949D2B02C00E94942B8091F50290911A
:1050E000F6020E94612C8091E302882311F08BE28A
:1050F00001C085E20E94122C82E160E00E94702BC8
:10510000CF9108950E94682B0E94ED250E941D26D4
:105110000E94462708958F929F92AF92BF92CF929E
:10512000DF92EF92FF92CF93DF936B017C010E949D
:10513000B3214B015C018AE693E00E94A01DEC01C3
:10514000892B69F40E94B321AB01BC0148195909AC
:105150006A097B094C155D056E057F0560F3CE017C
:10516000DF91CF91FF90EF90DF90CF90BF90AF9005
:105170009F908F9008951092BF031092BE0388EE07
:1051800093E0A0E0B0E08093C0039093C103A093AC
:10519000C203B093C30327ED31E03093BD032093E6
:1051A000BC0325E02093950322E12093960323E19D
:1051B0002093970310928C0310928B0327E032E028
:1051C00030938A03209389032FE320938D0324E1F6
:1051D0002093920324E02093930328E020939403E8
:1051E00010926D0310926C0380936E0390936F0383
:1051F000A0937003B093710387EE91E090936B03DB
:1052000080936A03109281031092800310928303AB
:1052100010928203109285031092840310928703E8
:1052200010928603609188036E7F6D7F6093880380
:105230006695617081E0682783E00E946B2083E0BF
:1052400061E00E94B720EBE4F4E0E491E0937A039C
:10525000E7E3F4E0E491F0E0EE0FFF1FE05EFB4FC8
:105260008591949190937C0380937B0382E060E02E
:105270000E94B7208091880381FD04C082E061E034
:105280000E946B2082E080937603EAE4F4E0E491EC
:10529000E0937703E6E3F4E0E491F0E0EE0FFF1F24
:1052A000E65DFB4F85919491909379038093780309
:1052B00087EF91E090936B0380936A031092BB0396
:1052C0001092BA031092B9031092B8030E94CE183C
:1052D0000895909169032091B803213208F04AC0E3
:1052E000809147038111FCCF32E03093470331E0D6
:1052F000309346033FEF30934503109244032093CD
:105300004303A9E4B3E043E253E0FA013E2F341B28
:10531000321718F43D913193F9CF10922203209166
:105320002203990F922B90932203909121039130A5
:1053300061F410922103909122039093BB0090910D
:10534000BC0093FDF8CF95EC01C095EE9093BC00A6
:10535000909147039230E1F3909145039F3F79F09C
:1053600080914503803241F080914503803331F0D4
:1053700084E005C081E003C082E001C083E01092B8
:10538000B9031092B80310924803089591E09093E6
:105390004803809369031092B9031092B8030895EB
:1053A0000F931F93CF9388E60E94C6298CEB93E05E
:1053B00060E00E94B9160AE113E0F8018081CAE0BA
:1053C0006C2F0E949E34692FF0E18F9F600D112495
:1053D0008CEB93E00E94B916F80181816C2F0E943A
:1053E0009E34692FF0E18F9F600D11248CEB93E0C8
:1053F0000E94B916F80182816C2F0E949E34692F99
:10540000F0E18F9F600D11248CEB93E00E94B916A0
:10541000F80183816C2F0E949E34692FF0E18F9FE9
:10542000600D11248CEB93E00E94B916F801848181
:105430006C2F0E949E34692FF0E18F9F600D112424
:105440008CEB93E00E94B916F80185816C2F0E94C5
:105450009E34692FF0E18F9F600D11248CEB93E057
:105460000E94B916F80186818E516C2F0E949E34DD
:10547000692FF0E18F9F600D11248CEB93E00E9467
:10548000B9160E946929CF911F910F9108959091AB
:1054900047039111FCCF613208F060E291E09093F4
:1054A0004703909346032FEF209345031092440344
:1054B000260F209343039093220390912203880F99
:1054C000892B8093220380912103813061F4109213
:1054D0002103809122038093BB008091BC0083FD57
:1054E000F8CF85EC01C085EE8093BC008091470326
:1054F0008130E1F380914403861710F460914403F6
:10550000A3E2B3E02AEF32E0F9018E2F821B861767
:1055100018F48D918193F9CF1092BB036093BA0375
:10552000862F0895A0E0B0E0E8E9FAE20C94BC33DD
:10553000E82EC62ED42EE901EDEFE80FE03128F475
:10554000F0E0ED53FE4FF08001C0F12C6AE070E016
:1055500080E090E00E948B28892B29F08AE693E076
:105560000E94B81DF3CF8AE693E06EE70E944C1DBF
:105570008AE693E062E06F0D0E944C1D8AE693E09C
:105580006E2D0E944C1DFF2069F08AE693E06C2D81
:105590000E944C1D82E0F81205C08AE693E06D2D52
:1055A0000E944C1D8AE693E06FEE0E944C1D2097EE
:1055B00049F00115110531F0CE0160E070E0A8015D
:1055C0000E94D83468EE73E080E090E00E948B285F
:1055D000E12CF12C0150110962E370E080E090E0D1
:1055E0000E948B28892B89F08AE693E00E94B81DDF
:1055F000209791F3E016F10678F7FE01EE0DFF1DFE
:105600008083C70101967C01E7CFCDB7DEB7E8E024
:105610000C94D833A5E0B0E0E0E1FBE20C94C03399
:1056200060E040E09E012F5F3F4F05E010E00E94E8
:10563000922ACE01019660E070E040E150E00E94C5
:10564000EF30CB012596E4E00C94DC330F931F93ED
:1056500060E040E020E030E000E010E00E94922AAC
:105660001F910F9108958EE00E94262B08950F93AD
:105670001F93682F81E140E020E030E000E010E07F
:105680000E94922A1F910F9108951092940389E825
:1056900093E060E00E94A530089588E08093940331
:1056A00089E893E060E00E94A5300895CF93C82F69
:1056B000682F607F89E893E00E94BF3080E1C89F37
:1056C000B001112489E893E00E94BF30CF91089582
:1056D00081E00E94562B8BE39FE10197F1F708953B
:1056E000A8E0B0E0E6E7FBE20C94C23398E0E1E921
:1056F000F1E0DE01119601900D929A95E1F79091FB
:105700009103961710F46FEF690FFE013196E60FC3
:10571000F11DE60FF11D9081890F80680E94562BC4
:105720002896E2E00C94DE33E9E8F3E086818E7F90
:10573000868388600E94562B0895E9E8F3E086810D
:10574000982F9160968389600E94562B0895A2E05D
:10575000B0E0EDEAFBE20C94BE33877028E0829F54
:10576000C0011124806469837A830E94562B698169
:10577000E62E7A81F72E8701085F1F4FF7016191AE
:105780007F0189E893E00E94D830E016F106B1F776
:105790002296E6E00C94DA330F931F93CF93DF93B6
:1057A0008C01C0E0D0E0F801EC0FFD1F649166238E
:1057B00071F0E0918903F0918A030190F081E02D6E
:1057C00089E893E00995892B11F02196ECCFCE0161
:1057D000DF91CF911F910F9108958F929F92AF9279
:1057E000BF92CF92DF92EF92FF926C010E94B321A1
:1057F0004B015C01E12CF12C0E94B321DC01CB01B7
:1058000088199909AA09BB098C159D05AE05BF0524
:1058100098F3FF90EF90DF90CF90BF90AF909F9064
:105820008F900895682FE0918903F0918A03019089
:10583000F081E02D89E893E0099508958F929F9279
:10584000AF92BF920F931F93CF93DF93CDB7DEB785
:10585000A1970FB6F894DEBF0FBECDBF19A242309C
:1058600008F44AE08E010F5D1F4F842E912CA12C6D
:10587000B12CA50194010E945E33E62FB901CA0143
:1058800001501109EA3014F4E05D01C0E95CD8016F
:10589000EC93232B242B252B61F789E893E0B801A7
:1058A0000E948F30A1960FB6F894DEBF0FBECDBF19
:1058B000DF91CF911F910F91BF90AF909F908F90EC
:1058C0000895CF92DF92EF92FF92CF93DF936C0116
:1058D000990FEE08FF08F7FE11C08DE20E94122C0E
:1058E000EC0166277727CB016C197D098E099F098A
:1058F0004AE00E941E2C8C0F9D1F05C0C701B601F7
:105900004AE00E941E2CDF91CF91FF90EF90DF9034
:10591000CF9008950F931F93CF93DF93EC018C01E9
:10592000065F1F4FC017D10750F480E5BE010E94EB
:10593000941B803211F00E94122C2196F3CFDF913C
:10594000CF911F910F910895CF92DF92EF92FF9226
:10595000CF93DF9381E891E00E941B278EE894E0CB
:105960000E94CC2B82E061E00E94702B8DE794E0D6
:105970000E94CC2B82E062E00E94702B89E794E0C9
:105980000E94CC2B82E063E00E94702B85E794E0BC
:105990000E94CC2BC0E0D4E180912202843009F433
:1059A00075C183E061E00E94702B8091D003882351
:1059B00019F081E794E002C08DE694E00E94CC2BC0
:1059C0008091CF03811102C040E201C048E580E12F
:1059D00061E00E94352786E062E00E94702B809192
:1059E000CE038A3010F40E9419268091CE036AE01B
:1059F00070E00E94C81E8AE30E94122C8091CD03A1
:105A00008A3010F40E9419268091CD036AE070E07C
:105A10000E94C81E0E94142686E063E00E94702B3C
:105A20008091CC038A3010F40E9419268091CC0317
:105A30006AE070E00E94C81E8AE30E94122C8091E6
:105A4000CB038A3010F40E9419268091CB036AE0C0
:105A500070E00E94C81E0E941426C23048F480E004
:105A600062E040E20E94352780E061E00E94702BF6
:105A70008EEF8C0F843068F480E061E040E20E9499
:105A8000352780E063E040E20E94352780E062E055
:105A900009C0C63048F080E062E040E20E9435274D
:105AA00080E063E00E94702B8EE70E94122CCC2EC7
:105AB000D12C8AE0C816D104E8F4F601E759FF4F6B
:105AC0000C94D23483E001C080E161E011C086E033
:105AD00005C087E003C089E001C08AE062E008C039
