:100000000C9423020C944B020C944B020C94701B26
:100010000C94701B0C94701B0C94332B0C944B029F
:100020000C944B020C944B020C944B020C944A27F8
:100030000C944B020C944B020C944B020C944B020C
:100040000C94261B0C944B020C944B020C944B0208
:100050000C944B020C944B020C944B020C944B02EC
:100060000C94001C0C944B02DD0AE00AE20AE40A3C
:10007000E60AE90AEB0AED0AEF0AF10AF30A140BA1
:10008000210B320B3E0B490B550B6B0B7C0B810B81
:10009000930B780FBB0FF20F301067109910AB1055
:1000A00077187E189018A818B218BC18CE18D8184F
:1000B000DF18F7180A191A193219C629C829CB29C5
:1000C000CD29CF29D129D429D629D829DA29F72928
:1000D000FE29052A132A282A362A442A522A662A61
:1000E000742A426972746864617900486170707939
:1000F0000057757373746573742044752C206461A4
:1001000073732E2E2E004963682062696E20686921
:10011000657221005B205D204D5033005B205D2027
:10012000526164696F005B205D205765636B746F7B
:100130006E0020205B6175735D0020205B616E2086
:100140005D004D503300526164696F00546F6E0062
:100150005765636B746F6E202020205B2020202069
:10016000205D004E657565205765636B7A6569741F
:100170000061757300616E20002E3230004E6163A5
:1001800068746D6F647573205B2020205D004E6580
:100190007565205568727A6569742F446174756D50
:1001A000005A3A2000416B6B753A0020543A200007
:1001B00052414D3A2020004932433A20002D30313F
:1001C00030353137004669726D776172653A2000CB
:1001D0006279204E696B6F6C6169205261646B6556
:1001E00000446965736572204E4F4B4F2067656808
:1001F000207274004D65696E204E4F4B4F0044696C
:100200007374616E7A6C696368742020205B205D72
:10021000005374756D6D2020202020202020202088
:100220005B205D00416B6B752073706172656E20A1
:100230002020205B205D007765697465722E2E2E6C
:100240000044697374616E7A202B2F2D205B205D32
:10025000004576656E747320202B2F2D205B205D6A
:10026000004C454420202020202B2F2D205B205D9A
:10027000004E4F4B4F207374656C6C656E007A6551
:100280006974207374656C6C656E00416C61726D8D
:10029000207374656C6C656E00537069656C2077B3
:1002A000617320766F72004E617365206472206303
:1002B0006B656E0020617566205600205570646184
:1002C0007465206572666F6C677265696368005358
:1002D000616D73746167004672656974616700449B
:1002E0006F6E6E2E746167004D697474776F63680A
:1002F000004469656E73746167004D6F6E74616769
:1003000000536F6E6E746167000020416C61726D06
:1003100020004E61736520647220636B656E00205F
:100320005568720072656E00476562757274737409
:100330006167210009030103FA02F102E802DF020A
:10034000D702CF0200000000240027002A0000008E
:100350000008000201000003040700000000000084
:1003600000005041555345004B65696E65204D5066
:10037000337320676566756E64656E0047657363E9
:10038000686963687465005B3C5D5B205D5B205D54
:100390005B3E5D00476573636869636874656E20E2
:1003A00068004155582D45696E67616E6700456963
:1003B00067656E6573206800526164696F2068002C
:1003C00000000000250028002B0000000000230092
:1003D00026002900040404040404040402020202A6
:1003E00002020303030303030102040810204080F8
:1003F0000102040810200102040810202057656340
:100400006B746F6E202B2F2D205B205D0061757348
:1004100000616E200062697300766F6E005B2020C1
:10042000205D2044696D6D656E205B205D004E612E
:100430006368746D6F647573207374656C6C656E3E
:1004400000007B209E2711241FBECFEFD8E0DEBF27
:10045000CDBF12E0A0E0B1E0E2E6FFE502C005900A
:100460000D92AC30B107D9F723E0ACE0B2E001C0A7
:100470001D92A83BB207E1F712E0C2E2D2E004C04D
:100480002197FE010E94972FC132D107C9F70E9420
:1004900092020C94A42F0C940000CF92DF92EF9262
:1004A000FF920F931F93E82FF92F05C001501109F8
:1004B0002109310961F1908196239417B9F305C0A0
:1004C000015011092109310911F1908196239413EA
:1004D000F7CFC12CD12CE12CF12C0AC08FEFC81A18
:1004E000D80AE80AF80A0C151D052E053F0579F013
:1004F00080818623841791F36C2D7D2D8E2D9F2D69
:100500001F910F91FF90EF90DF90CF90089560E0E2
:1005100070E080E090E01F910F91FF90EF90DF90EE
:10052000CF900895A5E0B0E0E8E9F2E00C94772ED2
:10053000789484B5826084BD84B5816084BD85B5BE
:10054000826085BD85B5816085BD80916E008160CA
:1005500080936E0010928100809181008260809370
:100560008100809181008160809381008091800072
:100570008160809380008091B10084608093B1009D
:100580008091B00081608093B00080917A00846097
:1005900080937A0080917A00826080937A008091C3
:1005A0007A00816080937A0080917A0080688093DD
:1005B0007A001092C1001CBC80E880BF8FE380935A
:1005C0007E00809164008460809364008091640068
:1005D00082608093640080916400806480936400F2
:1005E00088EC8AB98CE284B98EE387B980E48BB950
:1005F00081E088B910925F0310925E0310925D0350
:1006000010925C0310925B0310925A038DE991E003
:10061000909361038093600390915003963108F0AA
:1006200057C02DEB30E030935B0320935A032BE946
:1006300031E030935D0320935C032CE231E0309392
:100640005F0320935E0320916800983050F031E002
:100650009E3008F430E081E001C0880F3A95EAF757
:1006600001C084E0822B80936800983038F09E307F
:1006700040F0963148F020E030E008C02DE630E050
:1006800005C02BE630E002C02CE630E03093580382
:1006900020935703983030F481E001C0880F9A9579
:1006A000EAF70EC0292F30E09E3018F428503109A7
:1006B00002C02E50310981E001C0880F2A95EAF767
:1006C0008093590380916003909161030197F1F742
:1006D00080915E0390915F03892B21F18091C60286
:1006E0009091C70223E084349207E1F0009711F063
:1006F0000E94EA1B809162038E7F809362031092B6
:10070000C4021092C50284E493E09093C7028093E0
:10071000C602E0915703F0915803908180915903EC
:10072000892B80830E9407238CE00E94FA2284EFA9
:1007300091E00E94591286E06EE140E020E030E056
:1007400000E010E00E94662284E00E940B2380E01B
:1007500090E00E94FD2D3EE1839FC0011124909303
:1007600088038093870381E00E94B42791E0811180
:1007700001C090E09093280282E00E94B427809309
:10078000200283E00E94B42791E0811101C090E033
:100790009093290284E00E94B4278093230285E08D
:1007A0000E94B4278093220286E00E94B42780939F
:1007B000210287E00E94B4278093AB0388E00E9467
:1007C000B42780932C0289E00E94B42780931F02F3
:1007D0008AE00E94B42791E0811101C090E09093DB
:1007E0001E028BE00E94B42791E0811101C090E0CD
:1007F0009093B1038CE00E94B4278093AF038DE007
:100800000E94B4278093AE038EE00E94B4278093A9
:10081000AD038FE00E94B4278093AC0380E10E9477
:10082000B42791E0811101C090E090931D0281E115
:100830000E94B427182F82E10E94B427282F30E0AD
:10084000C9014AE0149F800D911D112490931C0250
:1008500080931B0283E10E94B4278093AA0315E1D1
:10086000E12E12E0F12E15E1812F0E94B427082F0E
:1008700081E0810F0E94B427282F30E0C9016AE08F
:10088000069F800D911D1124F701819391937F01A3
:100890001E5F1B3149F78BE10E94B42791E0811163
:1008A00001C090E0909314028CE10E94B42791E083
:1008B000811101C090E09093B00387E560E070E0A3
:1008C0000E94BF278093130287E561E070E00E94D9
:1008D000BF27809312021092D40288E60E949A21C8
:1008E00086E793E069E971E00E94542B0E943D2164
:1008F00084E10E942D1288E60E949A2186E793E007
:100900006CE971E00E94542B0E943D210E949C11D1
:1009100080916803886080936803B4E0FB2EF092B6
:100920006B038BE39DE00197F1F783E693E0609121
:100930006E030E946A2B8BEF98E00197F1F783E634
:1009400093E060E30E94842B0BE416E4C801019756
:10095000F1F783E693E060E30E94842BC8010197DE
:10096000F1F783E693E060E30E94842B83E592E055
:100970000197F1F783E693E060E20E94842B809177
:10098000680380620E942A23F09269038CE00E942F
:100990002A230E943C2382E080936A0386E00E941F
:1009A0002A2382E00E942A238BE39FE10197F1F73B
:1009B0000E94FE1284E190E00E94FD2D182F8A30E3
:1009C00008F041C00E943C238BEB92E00E94A023E0
:1009D00083E061E046E50E94A71380E090E00E947A
:1009E00010248EE20E94C123812F6AE00E94632FAF
:1009F000892F90E00E94102484EB92E00E94A023B3
:100A000081E090E00E9410248EE20E94C12380E0E9
:100A100090E00E94102484E064E00E94442387EA6E
:100A200092E00E94A0238BE064E045EF0E94A713B0
:100A300084E190E06AE00E94052E81E060E00E947F
:100A40008F160E943C230E94E42788E592E060E52F
:100A500070E040E020E530E00E94FA1680E793E085
:100A600066E970E040E026E930E00E94FA165E9AFE
:100A70000E9431200E94DE1F8093D30287E40E94EF
:100A8000DE229091D402891B8F568093D602F3E622
:100A9000FC8323E62B83CE0101961C010E943120AA
:100AA00087E00E94031B8132934024F0809126024C
:100AB000882351F087E00E94031B8032934004F5A5
:100AC000809126028823E1F09091260281E0892717
:100AD0008093260287E00E94031B8032934014F02B
:100AE0000C94140F80912B02882311F40C94140F92
:100AF00080911E02882311F40C94140F0E94F412AA
:100B00008091F8022B81281709F4CEC180912E0222
:100B10008823E1F08091B0038823C1F08091250201
:100B2000811114C080911E02882339F08091260221
:100B3000811103C00E94F41209C080912B0281111F
:100B400005C00E94192381E080932B0210921102AC
:100B50008091F9023C81381709F4DDC080912502AB
:100B6000811175C00E942213909112028091FC02A3
:100B7000981369C0909113028091FB02981363C08F
:100B800081E080932A0280911002811160C08091DF
:100B90002E0281115CC061E771E00E947B2380918D
:100BA000830381115F9880912802811107C0809191
:100BB0008403811103C08FE60E94EA2780ED97E04D
:100BC0000E9459120E944327082F0E9443270817AA
:100BD00021F04C9902C00C942A0F8091820384303A
:100BE00011F40C942A0F0E943C2387E061E00E94DC
:100BF00044238BEE90E00E94A02386E062E00E94F6
:100C0000442382EE90E00E94A02381E065E00E94F0
:100C10007E12182F112391F080E064E10E947E1271
:100C200060E040E00E94A71380E064E10E947E1231
:100C300063E040E00E94A7131150ECCF84EF91E0F5
:100C40000E94C916C2CF1092100210922A0210916F
:100C50001D020E942611181709F45DC08091F90247
:100C6000843008F458C0112311F40C943B0F8150C8
:100C70008093F90281E0D12ED826D0921D02809176
:100C8000F9026091F80270E04091F70250E0209183
:100C9000FB0230E00091FC0210E0E0903B02F0909B
:100CA0003C0290E00E94172580913B02825B80937A
:100CB000FD020E94A42180918703805F6D2D0E9418
:100CC000A92700918703109188030E3D43E0140784
:100CD00011F40C943E0F025E1F4F91E0F92EF00EBE
:100CE00080918703890F9D830E94B427682F8F2DE1
:100CF0000E94A9279D819F5F9E3181F710938803F1
:100D000000938703C8016EE170E00E946F2F80E0BE
:100D100090E00E94052E80912502811102C00E9460
:100D2000B81380912E028111BFC0809128028111D9
:100D3000BBC08091390290913A020A977CF480916D
:100D4000260281110BC00E94E42788E993E060E548
:100D500070E040E020E530E00E94FA164C99A4C013
:100D60008091D5028111A0C08091270281119CC081
:100D70008091390290913A0202970CF495C0E0916B
:100D80001F02F0E0EF55FE4F108161E0610F81E03E
:100D90000E947E12811388C080E06CE00E947E1267
:100DA000182F8091250281111AE00E9468231830C3
:100DB00010F00C94680F80912B0281110C94420F5B
:100DC000153010F40E943C23812F90E0FC013197F4
:100DD000E730F10510F40C94740F80E06AE10E9492
:100DE0007E1260E5869FC00111248C01005B194BC7
:100DF000F12C80E5B8010E94BF27482F8F2D60E0BD
:100E00000E94A713B8016C5E7F4F80E50E94BF2748
:100E1000482F8F2D61E00E94A713B801685D7F4FB6
:100E200080E50E94BF27482F8F2D62E00E94A71304
:100E3000B801645C7F4F80E50E94BF27482F8F2D4B
:100E400063E00E94A713F3940F5F1F4F84E1F81231
:100E5000D0CF0E94E42780E793E060E570E040E0B7
:100E600026E930E00E94FA1680E793E060E971E03D
:100E700040E020E931E00E94FA165E9A81E061E0EC
:100E80000E948F160E94422080912B02882361F0DD
:100E90008091B103882311F40C94700F80912E027D
:100EA000882311F40C94700F80912502811178C071
:100EB00080912D02811174C080912C02882309F445
:100EC0006FC02D988FE090E00197F1F72D9A83E2A3
:100ED00090E00197F1F72D98E4EFF3E04491E0EE14
:100EE000F3E0E491F0E0EE0FFF1FE653FC4F859135
:100EF0009491642F00E412E42FE030E00E944D0250
:100F0000611571058105910549F0DC01CB01019660
:100F1000A11DB11DBC01CD019F7003C060E070E058
:100F2000CB0110912C022AE330E040E050E00E9417
:100F3000232EF9E11F9FC0011124092E000CAA0BDA
:100F4000BB0B281739074A075B0750F580912B0226
:100F5000882381F080911402882361F00E9421236C
:100F60000E941A1B60930C0270930D0280930E0274
:100F700090930F0280912E02811112C08091110274
:100F800081110EC08091270281110AC08091D50283
:100F9000811106C080912802811102C04C9B7FC73D
:100FA00080912B028823C1F0809114028823A1F044
:100FB0000E941A1B00910C0210910D0220910E024A
:100FC00030910F020A561F4F2F4F3F4F061717073A
:100FD0002807390708F46DC72091F8022B83309158
:100FE000F9023C8380E00E94F41480938203909184
:100FF0002502823009F4C6C6833009F4D6C6813092
:1010000009F007C7911105C780E50E942D120E94C3
:1010100068230E943C2380912802882331F088E7CE
:101020000E94C123CC24C39401C0C12C82E060E0A3
:101030000E94442389E992E00E94A02382E061E0BB
:101040000E9444238BE892E00E94A02381E062E0AA
:101050000E9444230E9419138EE792E00E94A0236D
:1010600082E063E00E94442381E792E00E94A02393
:10107000DC2C80918203843009F49DC680E06D2DC4
:101080004EE70E94A71380E061E00E948F168091D6
:101090008203823009F461C6833009F469C6813065
:1010A00041F741E0D41681F1D41658F162E0D6162A
:1010B00009F4D9C183E0D812DCCF0E943C2382E03E
:1010C00060E00E94442381E692E00E94A02382E037
:1010D00061E00E94442381E592E00E94A02382E027
:1010E00062E00E94442381E492E00E94A02382E017
:1010F00063E00E94442387E392E00E94A02310E073
:101100007FC30E942E1DB5CFD092A90389E891E03C
:101110000E948D13809122028A3010F40E941E13C7
:10112000809122026AE070E00E9447198AE30E94DF
:10113000C123809123028A3010F40E941E138091F3
:1011400023026AE070E00E9447190E94191380E0B0
:1011500061E00E94442383E691E00E94A02382E0A4
:1011600063E00E94442380E591E00E94A0238EE08A
:1011700063E00E94442380912102813049F028F0ED
:10118000823051F482E491E005C08CE491E002C029
:1011900086E491E00E94A0230E94712300E010E009
:1011A0006AE0F62E74E1E72E80918203843009F420
:1011B00041C1153010F062E001C063E080E040E220
:1011C0000E94A713153010F063E001C062E080E0D8
:1011D0004EE70E94A71382E062E00E9444238091C0
:1011E00022028A3010F40E941E13809122026AE0CB
:1011F00070E00E9447198AE30E94C1238091230274
:101200008A3010F40E941E13809123026AE070E07D
:101210000E9447190E94191380912902882319F00E
:101220008AE391E002C082E391E00E94A0231230A1
:1012300089F030F4112361F01130A1F483E00FC084
:10124000143061F048F0153069F48EE063E008C0B6
:1012500082E005C085E003C086E001C08EE062E068
:101260000E94442380E061E00E948F1680918203F7
:10127000823009F4D3C0833009F4D5C0813009F03D
:1012800093CF123009F453C028F4112369F11130BF
:10129000C9F1CEC0143009F466C008F456C0153048
:1012A00009F0C6C00E946823B0902902109229025A
:1012B0000E943C2382E060E00E94442386E291E0A9
:1012C0000E94A02382E061E00E9444238CE191E02F
:1012D0000E94A02382E062E00E94442384E191E026
:1012E0000E94A02300E065C0809122028E3020F48D
:1012F000865F809322029CC06F2D0E94632F909383
:10130000220296C020912202822F6F2D0E94632F0D
:10131000993011F4295001C02F5F2093220280914F
:101320002202883109F084C0E092220281C08091BB
:101330002302813320F4865F8093230279C06F2DCE
:101340000E94632F9093230273C020912302822F67
:101350006F2D0E94632F993011F4295001C02F5F27
:101360002093230265C09091290289278093290246
:101370005FC083E06091210248E50E94A71380E0EE
:10138000602F4EE70E94A71383E061E04DE20E94C8
:10139000A71383E0602F0E94442380E061E00E9455
:1013A0008F16809182038230F9F0833031F18130E1
:1013B00029F0809182038430E1F628C00130C9F31E
:1013C0000093210286E0602F0E94A92780912102CC
:1013D000811103C081E00E94B62A809121028230EF
:1013E00041F70E94B62AE5CF80E0602F40E20E94DC
:1013F000A7130230F0F60F5FDCCF80E0602F40E2F1
:101400000E94A7130023A9F20150D3CFB092290262
:1014100080E061E071E00E947B230AC0153008F093
:10142000C3CE1F5FC1CE112309F4BECE1150BCCE76
:1014300001E0BACE002379F083E0609129020E9496
:10144000A92784E0609123020E94A92785E060918A
:1014500022020E94A92780E061E071E00E947B23C4
:101460001092A90306CEA090F9028090F802B090E5
:10147000FB029090FC0281E891E00E948D138EE8BF
:1014800091E00E94A02382E061E00E9444238DE766
:1014900091E00E94A0230E94712380913B029091D1
:1014A0003C02805D974090933C0280933B0210E0A9
:1014B00000E080918203843009F458C182E062E048
:1014C0000E94442399E09A1510F00E941E138A2D61
:1014D0006AE070E00E9447198AE30E94C123E9E0B4
:1014E000E81510F00E941E13882D6AE070E00E943B
:1014F00047190E94191382E063E00E944423F9E037
:10150000FB1510F00E941E138B2D6AE070E00E9404
:1015100047198EE20E94C12329E0291510F00E948C
:101520001E13892D6AE070E00E94471989E791E057
:101530000E94A02380913B0290913C020A9714F4F0
:101540000E941E1380913B0290913C020E94102445
:101550008EE061E00E9444238091B103882319F05A
:1015600085E791E002C081E791E00E94A02380E03E
:101570000111A2C462E040E20E94A71380E061E092
:101580000E9444238BEF800F863048F480E062E0B5
:1015900040E20E94A71380E063E00E9444238EE7AC
:1015A0000E94C123402E512C3BE043165104F8F415
:1015B000F201EC5CFF4F0C94972F8EE061E015C0B8
:1015C00082E005C083E003C085E001C086E062E000
:1015D0000CC082E009C083E007C085E005C086E05A
:1015E00003C08AE001C08BE063E00E94442380E0F6
:1015F00061E00E948F1680918203823009F4A8C0B6
:10160000833009F4AAC0813009F053CF002349F098
:10161000F2013197EA30F10590F4E15CFF4F0C9450
:10162000972F0E94082945CF4DE04A1518F06AE02F
:10163000A60E05C08A2D6AE00E94632FA92E11E034
:1016400038CF8A2D6AE00E94632F993019F487EF12
:10165000A80E01C0A39498E111E0A9122ACF54E189
:10166000A52E27CFE0E3E81518F0FAE08F0EE7CFBC
:10167000882D6AE00E94632F892EE1CF882D6AE0D1
:101680000E94632F993019F427EF820ED8CF8394EC
:10169000D6CF35E13B1518F04AE0B40ED0CF8B2DF4
:1016A0006AE00E94632FB92E0DC08B2D6AE00E9464
:1016B000632F993019F467EFB60E01C0B3948FE130
:1016C0008B1530F0B110BBCF11E0BB24B394F1CE39
:1016D0004EE1B42EB4CF92E0991518F0EAE09E0ED8
:1016E000AECF892D6AE00E94632F992E9111A7CF6A
:1016F00011E099249394DDCEFBE0F91598F19394D1
:101700009ECF80913B0290913C028935910514F463
:101710000A9604C06AE070E00E94832F90933C0216
:1017200080933B028CCF20913B0230913C02C90157
:101730006AE070E00E94832F099719F4295031095B
:1017400002C02F5F3F4F30933C0220933B0277CF84
:101750000A3008F0AECE0F5FACCE002309F4A9CE5C
:101760000150A7CE11E03AE0932EA3CEE0903B02C9
:10177000F0903C0220E3E21A28EFF20AF0923C02D9
:10178000E0923B02112339F1682D70E02B2D30E0FF
:10179000092D10E08A2D90E040E050E00E941725CE
:1017A000A092F9028092F8021092F702B092FB0226
:1017B0009092FC0280913B02825B8093FD020E942A
:1017C000A4210E9442200E942611682F80931D02AE
:1017D00080E10E94A92780E061E071E00E947B2304
:1017E00048CC82E390E00E945912809182038230BB
:1017F00009F495C2833009F49BC2813009F44BC0CF
:1018000080918203843009F49FC20E9471231111D8
:1018100007C0809120023CE1839FC001112402C0D7
:1018200080E090E00E94A91A133011F40E9468230E
:1018300080E0612F4EE70E94A7138FE060E00E94D6
:101840004423809120026AE070E00E9447198FE0F3
:1018500061E00E94442380911F026AE070E00E94D0
:1018600047198FE062E00E94442380912C026AE0D5
:1018700070E00E9447198FE0612F0E94442380E0AE
:101880000E94F414809382038111ABCF84E690E030
:101890000E945912F4CF113009F441C050F11230B6
:1018A00009F44DC0133009F0ABCF0E943C2382E015
:1018B00060E00E94442384E292E00E94A02382E040
:1018C00061E00E94442381E192E00E94A02382E033
:1018D00062E00E9444238EEF91E00E94A02382E008
:1018E00063E00E94442384EF91E00E94A02300E083
:1018F0006AC080912002893020F48F5F809320029B
:1019000002C010922002609120024CE1649FC0014D
:1019100011246D830E94A91A82E06D810DC080910F
:101920001F02893020F48F5F80931F0202C0109243
:101930001F0289E060911F020E94A92761CF809158
:101940002C02893020F48F5F80932C0202C0109209
:101950002C0288E060912C02EFCF80911E02811151
:1019600037C040E282E160E00E94A7138091280224
:10197000811130C040E282E161E00E94A7138091B2
:101980001402811129C040E282E162E00E94A713A3
:1019900080E0602F4EE70E94A71382E1602F0E9433
:1019A00044230330D8F40E94712380E061E00E9458
:1019B0008F1680918203823009F49DC1833009F42F
:1019C000A4C1813071F080918203843031F618CF48
:1019D00048E5C8CF48E5CFCF48E5D6CF0E94682379
:1019E000E4CF013009F1C8F00230B1F1033059F70A
:1019F00089E691E00E948D1381EE91E00E94A02380
:101A000081E160E04FEE0E94A71380E061E00E9458
:101A1000442324E1E22EF12C2BC060911E026827A2
:101A200060931E028AE01EC00E94682380912802F3
:101A3000811109C082E161E04EE20E94A7130E9479
:101A400017280E9426286091280281E06827609369
:101A500028020E94A927B7CF6091140268276093DB
:101A600014028AE10E94A92782E30E942D12ABCFC3
:101A70008CEE8E0D843119F480E062E004C088326F
:101A800021F480E063E00E94442387E5B7010E94CF
:101A9000BF270E94C1236FEFE61AF60A80E5E81619
:101AA000F10431F780E060E00E948F1680E061E091
:101AB00071E00E947B230E943C2380E06BE00E9447
:101AC000581883E060E00E94581886E06CE00E949D
:101AD000581888E060E00E9458188DE061E00E948C
:101AE000581880E161E044E00E94A71381E160E0C2
:101AF0000E94581880E063E00E94442380ED91E04A
:101B00000E94A02380918203843009F45CCF80E09E
:101B10000E94F4148093820380E00E94F4148230C7
:101B200089F780918203843069F380E00E94F41485
:101B30008093820380E00E94F414833091F70E9426
:101B40003C2380E060E00E94442385EC91E00E9409
:101B5000A02381E090E00E9410248EE20E94C12325
:101B600080E090E00E9410248DEB91E00E94A02381
:101B700080E061E00E94442387EB91E00E94A02373
:101B800098E0F92E8F2D0E949A210E943D2181110B
:101B900008C088E70E94C1238F2D60E170E00E9499
:101BA0004719F39498E7F912EDCF80E062E00E94C4
:101BB000442380EB91E00E94A0238091B203909196
:101BC000B303009711F488EB93E0F101E81BF90BE4
:101BD000CF010E9410248BEA91E00E94A02388E6A6
:101BE0000E949A2186E793E061E10E94B6240E9458
:101BF0003D2188E690E062E070E00E941B22909117
:101C0000740380917503981769F186E793E00E9449
:101C100071245C0186E793E00E9471247C01B50188
:101C20006F777727072E000C880B990B0E94E02C0A
:101C30004B015C01B701772786E0759567958A951A
:101C4000E1F7072E000C880B990B0E94E02C20E096
:101C500030E040E85EE30E943F2DA50194010E9420
:101C6000BE2E03C060E070E0CB0140E050E00E9477
:101C70005E198FED0E94C12380E063E00E9444233F
:101C800085EA91E00E94A0238BE063E00E94442358
:101C900081EA91E00E94A02380911D02882311F027
:101CA00083E501C087E50E94C123809182038430CF
:101CB00009F437CF81E00E94F4148093820386E018
:101CC00063E00E94442386E00E94031BBC01990F3D
:101CD000880B990B0E94E02C20E030E040EA5BE3A7
:101CE0000E943F2D42E050E00E945E1984E690E0A1
:101CF0000E94C916DACF80E0602F40E20E94A7134D
:101D0000033008F060CE0F5F5ECE80E0602F40E2CF
:101D10000E94A713002309F456CE015054CE80E050
:101D2000612F40E20E94A713133048F41F5F07C0E1
:101D300080E0612F40E20E94A7131111115080E052
:101D4000612F0E9444235CCD80912B02811191C9A7
:101D500080E090E00E94A91A8CC980E06D2D40E2DD
:101D60000E94A713F2E0FD1508F483C9D39481C93A
:101D700080E06D2D40E20E94A713CD1408F079C9D0
:101D8000DA9477C9911145C080912B02811141C02D
:101D900080912C028823E9F190912D0281E089271E
:101DA00080932D020E94B81334C0992339F0109209
:101DB000250210922B020E9442202BC080911E020D
:101DC000882339F080912602811103C00E94F41209
:101DD00020C090912B0281E0892780932B020E94E2
:101DE000B81380912B02811107C080E090E00E941F
:101DF000A91A0E9421230AC0809120022CE1829F0F
:101E0000C00111240E94A91A0E94192382E30E9492
:101E10002D1280912502811102C088E701C080EF58
:101E20000E942D120C944E0587E00E94031B813204
:101E3000934064F080912502882341F0109225029E
:101E400010922B020E9442200C9480050E94B8132D
:101E50000C94800581E080931002809184038111AD
:101E600002C00E9407238091830381115F9A0E9420
:101E700042200C9427068F5F0C94380600E010E097
:101E80000C946D068091B103882329F080912E0275
:101E900081110C94E0060E9421230C94E0068DE34E
:101EA00061E50E947E120E94EA2781E08093110280
:101EB00077C80E94192390C861E040E20E94A713EE
:101EC00080E063E040E20E94A71380E062E058CB2C
:101ED00081E56FE60E947E120E94EA270C94540767
:101EE0000E9419230C945407E75BFF4F0C94972F23
:101EF00080E062E00E947E12182F80E061E00E9484
:101F0000442380E065E60E947E12EAE08E9FC001D5
:101F100011240E94EE28111106C083E693E06FE9B8
:101F200071E00E94542B80E062E00E94442380E034
:101F300065E60E947E12FAE08F9FC001112488514D
:101F40009C4F0E94EE2880E065E60E947E122AE007
:101F5000829FC0011124112319F028EB3BE002C03D
:101F600020ED37E0820F931F0E94EE288BE00E9445
:101F7000EA270C943E0780E064E60E947E12082F58
:101F800081EF90E00E94A0233CE3039F8001112495
:101F90000056104FF12C80E5B8010E94BF27482F52
:101FA0008F2D61E00E94A713B8016C5E7F4F80E522
:101FB0000E94BF27482F8F2D62E00E94A713B8010F
:101FC000685D7F4F80E50E94BF27482F8F2D63E01B
:101FD0000E94A713F3940F5F1F4F44E1F412DBCF6D
:101FE0000C943E0780E064E60E947E1260E5869FC6
:101FF000C00111248C01005F184DF12C80E5B8015F
:102000000E94BF27482F8F2D60E00E94A713B801C0
:102010006C5E7F4F80E50E94BF27482F8F2D61E0C7
:102020000E94A713B801685D7F4F80E50E94BF271B
:10203000482F8F2D62E00E94A713B801645C7F4F88
:1020400080E50E94BF27482F8F2D63E00E94A713D1
:10205000F3940F5F1F4F84E1F812D0CF0C943E072A
:1020600083E061E00E94442386E091E00E94A02387
:1020700080912002ECE18E9FC00111240E94A91AD8
:102080000E94E42780E293E06AEF70E040E02EE0F7
:1020900031E00E94FA1680E293E066E970E040E0E9
:1020A00024EB30E00E94FA1684E992E06AEF70E0D7
:1020B00040E02AEF30E00E94FA1680ED97E00E949F
:1020C000C91680E090E00E94A91A0C9442070E9471
:1020D0004327F82E80E069E671E00E947B2301E04F
:1020E0000E944327F8125EC080918203843009F475
:1020F00059C00093A9030E943C2381E064E10E943F
:102100007E12182F112381F080E064E10E947E127C
:10211000E82E80E064E00E947E12682F8E2D40E061
:102120000E94A7131150EECF84EF91E00E94C916D0
:10213000D7CF18E288E10E942A2388EC90E00E9421
:10214000C91680918203843009F411E011501230D5
:1021500088F70C94420780E069E671E00E947B23D7
:1021600000E010E0812F602F40E00E94A71386E975
:1021700090E00E94C91680918203843011F414E12A
:1021800004E0812F602F40E20E94A7131F5F1431EB
:1021900048F30F5F043028F380ED97E00E94C916E2
:1021A0000C9442071092A9030C94420783FD02C0CD
:1021B00098E001C098E28770892B98E10FB6F894F7
:1021C000A895909360000FBE80936000A8958091C1
:1021D000600080648093600080912B02882319F056
:1021E00083B7817F0BC080912502882321F083B7BC
:1021F000817F846003C083B7817F8C6083BF83B796
:10220000816083BF85B7806685BF8F7D85BF8091E4
:102210006400816080936400889583B78E7F83BF5C
:102220000FB6F894A8958091600088618093600053
:10223000109260000FBE809160008F7B80936000E1
:10224000809164008E7F8093640008958091FC02E9
:102250009DEF980F983008F06DC09CEF980F963066
:1022600008F466C0833089F52091FB0240913B025F
:1022700050913C0235E0349FC001359F900D1124F0
:1022800097FD03969595879595958795049667E0B4
:1022900070E00E94832F4FE150E0BA01681B790B78
:1022A00038E1369FA001379F500D11244F5F5F4FDB
:1022B0008091F90278E1279F90011124280F311DA8
:1022C00081E042175307BCF135C08A3099F520915F
:1022D000FB0240913B0250913C0235E0349FC0012B
:1022E000359F900D112497FD0396959587959595AB
:1022F0008795019667E070E00E94832F4FE150E0E0
:10230000BA01681B790B38E1369FA001379F500D49
:1023100011244F5F5F4F8091F90278E1279F900170
:102320001124280F311D81E04217530724F402C005
:1023300081E0089580E00895EF92FF920F931F933C
:10234000CF93DF9388E60E949A2186E793E060E0CE
:102350000E94B6240E943D2188E690E067E070E08C
:102360000E941B2286E793E00E947124C7EFD2E00F
:10237000982F9695969596959E70292F220F220F4D
:10238000920F8F70890F888386E793E00E947124F3
:10239000982F92959F708F702AE0929F800D112444
:1023A000898386E793E00E947124982F96959695ED
:1023B00096959670292F220F220F920F8F70890FFA
:1023C0008A8386E793E00E947124982F92959F70EC
:1023D0008F702AE0929F800D11248B8386E793E013
:1023E0000E947124982F92959F708F702AE0929F7F
:1023F000800D11248C8386E793E00E947124982F2E
:1024000092959F708F702AE0929F800D11248D838A
:1024100086E793E00E947124982F9F70925E8295C8
:102420008F70E92E2AE0829FE00C1124EE828A81CF
:10243000698170E0488150E02C8130E00D8110E02E
:10244000F12C9EE4E91A98EFF90A90E00E94172512
:10245000CDB7DEB7E6E00C949F2ECF93C82F8091C6
:102460002B02882329F080916400806280936400AD
:10247000C7FF04C083E00E94D610C857C03420F0C4
:1024800082E00E94D610CC53C03220F081E00E943E
:10249000D610CE51C03118F080E00E94D610809145
:1024A0002B02882321F08091640010926400CF9168
:1024B00008958F929F92AF92BF92CF92DF92EF9248
:1024C000FF926C010E941A1B4B015C01E12CF12C64
:1024D0000E941A1BDC01CB0188199909AA09BB09C2
:1024E0008C159D05AE05BF0598F3FF90EF90DF902A
:1024F000CF90BF90AF909F908F900895A0E0B0E0F4
:10250000E4E8F2E10C947D2E962F3FB7F8944091C9
:10251000C8025091C9026091CA027091CB0226B5DF
:10252000A89B06C02F3F21F04F5F5F4F6F4F7F4F3B
:102530003FBF762F652F542F4427420F511D611D39
:10254000711DE2E0440F551F661F771FEA95D1F712
:10255000EA01CC0FDD1FCC0FDD1F4C275D27EA0100
:10256000CC0FCD2FCC1FDD0BD195C427D5277E01F5
:10257000F694FE2CEE24F794E794082F10E0692FD0
:1025800070E0601B710B072E000C880B990B0E94EA
:10259000E02C20E830E040E857E30E943F2D4B015B
:1025A0005C01CE25DF25BE0180E090E00E94DE2C9C
:1025B0009B01AC01C501B4010E943F2D6B017C0160
:1025C000B801110F880B990B0E94E02C9B01AC0104
:1025D000C701B6010E94BE2E0E942A2F862FCDB7BA
:1025E000DEB7ECE00C94992E80E090E00E94A91AEE
:1025F00081E08093250210922B0208950F931F9380
:10260000CF9301E011E0C0E08C2FB8010E947B2342
:10261000CF5F085F1F4FC830B9F7CF911F910F915F
:1026200008958FEE0E94C12384E293E00E94A023CC
:1026300008958FE193E00E94A023089580E30E9413
:10264000C12308950E94DC250E9466268091A8037C
:1026500090E08E54984F90933C0280933B020E94EE
:10266000DC250E9466268091A6038093FB020E94CF
:10267000DC250E9466268091A7038093FC0280E0FF
:1026800063E00E9444230E94DC250E946626E091BC
:10269000A503F0E0EE0FFF1FEC5CFC4F6591749119
:1026A0008FE292E00E94CF2C83E693E06FE272E02B
:1026B0000E94542B8AE063E00E9444238091FB0235
:1026C0008A3010F40E941E138091FB026AE070E0D1
:1026D0000E9447198EE20E94C1238091FC028A3039
:1026E00010F40E941E138091FC026AE070E00E94C8
:1026F00047198EE20E94C12380913B0290913C02D7
:102700000E9410248091390290913A020A9724F491
:1027100082E160E00E9444230895BC0180E00E94B1
:102720007B230E943C2380E00E94C12380E20E9420
:10273000C1230895CF93C42F0E944423CC2329F0B2
:1027400080E20E94C123C150F9CFCF910895A1E04A
:10275000B0E0EDEAF3E10C94872E49830E94442314
:102760004981842F0E94C1232196E2E00C94A32E7C
:10277000CF930E9431200E94DE1F80932E02809111
:10278000F9028A3018F481E060E005C06AE00E9436
:10279000632F682F81E00E9458188091F902CAE0E7
:1027A0006C2F0E94632F84E0692F0E94581887E0E5
:1027B0006AE00E9458188091F8028A3018F48AE082
:1027C00060E005C06C2F0E94632F682F8AE00E9492
:1027D00058188091F8026AE00E94632F8DE0692FFB
:1027E0000E94581881E161E043E00E949A1381E160
:1027F00061E00E94442380912D02811104C08091E8
:102800002C02811103C088E70E94C12380912B0212
:10281000882319F084E40E94C1238091B1038823A6
:1028200049F080912E02882311F08EE401C08EE6DB
:102830000E94C12380912A02882341F083E062E054
:102840000E94442388E293E00E94A02381E162E099
:1028500043E00E949A1381E162E00E944423809148
:102860002902882319F084EF0E94C1238091D502A8
:10287000882319F080E70E94C123809128028823D1
:1028800019F083E50E94C12380918403811108C05F
:1028900080918303811104C080912702882319F05D
:1028A00080E50E94C12386E00E94031B90933A02B8
:1028B00080933902C4E08AE00E942D1286E00E94D3
:1028C000031B2091390230913A02820F931F90939B
:1028D0003A0280933902C15071F765E070E00E94BE
:1028E000832F072E000C880B990B0E94E02C20E010
:1028F00030E040EA5BE30E943F2D26E636E646E301
:1029000050EC0E94BE2E2CE938ED49E952E40E94B9
:102910003F2D0E942A2F1616170634F464367105CF
:102920002CF063E670E002C061E070E0CB01072E9E
:10293000000CAA0BBB0B9C01AD016A337105A4F01E
:102940002953310941095109ABE5B0E00E94642ED9
:102950002AE230E040E050E00E94452EDA01C90151
:102960000896A11DB11D13C021503109410951091B
:10297000A7E0B0E00E94642E27E330E040E050E0A2
:102980000E94452EDA01C9010196A11DB11D909347
:102990003A028093390281E160E00E9444238091F1
:1029A000390290913A020A9744F481E160E040E2F2
:1029B0000E94A7130E94712302C00E946823809185
:1029C000390290913A020E941024809126028823B5
:1029D00011F08BE201C085E20E94C12382E160E038
:1029E0000E944423CF910895CF93C82F8091D502A0
:1029F000811106C04C9904C08091840381113CC1AF
:102A00008091390290913A0205970CF4C1E04C99FB
:102A10000DC080912702811109C08091830381112B
:102A200005C08091A903882309F429C18091290256
:102A3000882309F4F0C08091A9038111ECC00E94A1
:102A4000312020912402909123028091F8022111DB
:102A5000DFC09813DDC0309122022091F9023213B9
:102A6000D7C080912B0281110E9421235E9880E0C3
:102A700069E871E00E947B230E943C230E94682346
:102A800087E060E00E9444238091F9028A3010F4CC
:102A90000E941E138091F9026AE070E00E944719BB
:102AA0008AE30E94C1238091F8028A3010F40E94C8
:102AB0001E138091F8026AE070E00E94471984E0DA
:102AC00063E00E94442382E193E00E94A0238BE014
:102AD00063E045EF0E94A71381E08093A9038091F2
:102AE000830381115F9880912102813051F490918C
:102AF0002702911106C090918403911102C0809326
:102B000027021092820380918203843009F44CC022
:102B1000909123028091F802981346C085E062E00C
:102B200040E00E94A7138AE093E00E94A02380E087
:102B30000E94C12381E00E94F414809382038FEFEE
:102B400090E00E94A91A80912102882341F080918F
:102B50008403811104C08091D502882321F08091E3
:102B6000AB030E942A2880912102823039F44C99CB
:102B700005C080918403882309F485C084EF91E027
:102B80000E94C91685E062E049E00E949A1380E045
:102B900090E00E94A91A84EF91E00E94C9160E9459
:102BA00043278093F802AFCF80918403811103C043
:102BB0000E94072308C080912102813021F4809176
:102BC000830381115F9A1092A9039091230280914F
:102BD000F802981309C0909122028091F90298138B
:102BE00003C081E0809324020E943C23809125024F
:102BF000882331F080912702811102C04C9B49C08B
:102C000080912B0281110E9419230E94422019C039
:102C10009813109224028EE00E94031B893C9105B8
:102C200008F079C087399105B0F182E30E942D1236
:102C30008EE00E94031B873991050CF467C04C9B02
:102C400002C0C4E017C0809128028111FACFC111DF
:102C5000F8CF8091D5028111F4CF81E065E00E9428
:102C60007E12C82F843069F78FE16DE30E947E12D7
:102C70000E94EA278C2F51C010928403C1CE5E9A25
:102C80000E949C11D3CE8091AA038F5F0E94EA27F5
:102C900075CF5E9AB5CF8536910550F082E30E94DC
:102CA0002D128EE00E94031B8536910584F52EC0FF
:102CB000C39748F082E30E942D128EE00E94031B0E
:102CC000C3973CF523C082E30E942D128EE00E9440
:102CD000031B18161906D4F44C9916C080912802CB
:102CE000811112C0C11110C08091D50281110CC098
:102CF00081E068E00E947E12843031F48BE06FE165
:102D00000E947E120E94EA27C1E0B4CF06C0C3E051
:102D1000B1CFC2E0AFCFC0E0ADCFCF910895CF9299
:102D2000DF92EF92FF921F93CF93DF93C82FD62F9E
:102D30000E941A1B6B017C0120E6C20E2AEED21EF5
:102D4000E11CF11C1092820314E090918203911116
:102D500015C08C2F0E94F41480938203D11104C0FB
:102D600088E70E942D12F1CF0E941A1BC616D706C3
:102D7000E806F90650F710938203E7CF82E30E943A
:102D80002D12DF91CF911F91FF90EF90DF90CF90A8
:102D900008958F929F92AF92BF92CF92DF92EF925F
:102DA000FF926C010E941A1B4B015C01E12CF12C7B
:102DB0000E941A1BDC01CB0188199909AA09BB09D9
:102DC0008C159D05AE05BF0528F481E00E94F41422
:102DD000843071F781E00E94F414843011F4809300
:102DE0008203FF90EF90DF90CF90BF90AF909F90C5
:102DF0008F900895A0E0B0E0E0E0F7E10C947F2E22
:102E00005B01142FE9019C0140E050E060E079E0B3
:102E10008DE390E00E94452E69017A0181E0C81A95
:102E2000D108E108F108C114D104E1E0EE06F10493
:102E300058F0CD2CDE2CEF2CFF24F1E0CF1AD10876
:102E4000E108F10804E001C001E0A114B10449F077
:102E50000E941A1B6A0D7B1D70938D0360938C0377
:102E600006C08FEF9FEF90938D0380938C0380912A
:102E70008903811122C0E3EFF3E0849180938903F9
:102E80006FED73E0FB019491E92FF0E0EE0FFF1F6F
:102E9000E054FC4F2591349130938B0320938A03A7
:102EA000FB016491E62FF0E0EE0FFF1FEC5BFC4F9F
:102EB000A591B491EC918E2B8C93D0928700C09207
:102EC00086008091840090918500A0E0B0E0C81653
:102ED000D906EA06FB0620F4D0928500C092840051
:102EE00000610093810080E18093800080916F00F9
:102EF000826080936F00111104C0CE010E945912AC
:102F000007C080918203843019F0CE010E94C91657
:102F1000CDB7DEB7EAE00C949B2EA0E0B0E0E3E989
:102F2000F7E10C94812E6C017A018B01C0E0D0E0B6
:102F3000CE15DF0589F0D8016D918D01D601ED9197
:102F4000FC910190F081E02DC6010995892B11F4C7
:102F50007E0102C02196ECCFC701CDB7DEB7E8E015
:102F60000C949D2E2091C6023091C7022817390774
:102F700071F49091C5028091C402981741F0E091DC
:102F8000C502F0E0EC57FD4F808190E008958FEF8F
:102F90009FEF089508951F93CF93DF93DC015C9614
:102FA0002D913C915D972115310539F481E090E038
:102FB00013969C938E9312973DC05196ED91FC9180
:102FC000529750969C915097892F80951FB75E9687
:102FD0004C915E9741FB772770F941FD6095F8941D
:102FE0004081772311F0492B01C048234083E90138
:102FF0002197F1F748E0508160FF02C0592B01C0D2
:1030000058235083E9012197F1F76695415099F7CC
:10301000772321F090818923808303C08081982BBE
:1030200090831FBF5C968D919C915D970197F1F7FE
:1030300021E030E0C901DF91CF911F9108952091E7
:10304000C6023091C7022817390771F48091C40273
:103050002091C50290E0805C9F4F821B910960E443
:1030600070E00E94832F089580E090E00895209101
:10307000C6023091C70228173907B9F49091C502EA
:103080008091C402981789F0E091C502F0E0EC57F6
:10309000FD4F80812091C50230E02F5F3F4F2F739D
:1030A00033272093C50290E008958FEF9FEF089596
:1030B000CF93C62F8093D2021092D10260E043E0FA
:1030C0000E949A136091D1026F5F8091D20243E017
:1030D0000E949A138C2F90E08D30910508F0D5C096
:1030E000FC01E05BFF4F8091D2020C94972F60911E
:1030F000D10240E00E94A71381E067C06091D10235
:1031000041E00E94A71382E00E94C1236091D10296
:103110006F5F8091D20244E00E94A71387E014C041
:103120006091D10246E00E94A71386E00E94C1236D
:1031300082E00E94C1236091D1026F5F8091D20230
:1031400043E00E94A71384E00E94C12384E09BC057
:103150006091D10246E00E94A71386E00E94C1233D
:1031600082E013C06091D10243E00E94A71384E083
:103170000E94C12387E044C06091D10243E00E94D5
:10318000A71386E00E94C12386E00E94C1236091BC
:10319000D1026F5F8091D20244E022C06091D102DF
:1031A00040E00E94A71386E00E94C12386E010C081
:1031B0006091D10241E00E94A71381E01EC060919E
:1031C000D10240E00E94A71386E00E94C12382E062
:1031D0000E94C1236091D1026F5F8091D20243E0CF
:1031E0000E94A71384E00E94C12385E04CC0609137
:1031F000D10240E00E94A71386E00E94C12382E032
:103200000E94C1238091D2026091D1026F5F8E5FD4
:1032100047E00DC08F5F6091D10244E00E94A71388
:103220008091D2026091D1026F5F8F5F44E00E9473
:10323000A7132BC06091D10240E00E94A71382E047
:103240000E94C12380E00E94C1236091D1026F5F80
:103250008091D20247E00E94A71383E00E94C1231D
:1032600087E011C06091D10247E00E94A71380E07F
:103270000E94C1236091D1026F5F8091D20247E02A
:103280000E94A71383E00E94C123CF910895282FA5
:10329000AB01672B61F4E0916303F091640301904B
:1032A000F081E02D83E693E0622F09950895682F61
:1032B00070E080E090E00E94CD2308954F925F92ED
:1032C0006F927F928F929F92AF92BF92CF92DF9236
:1032D000EF92FF92CF93DF936B017C01B42EA70195
:1032E00096010E945E2F882329F083E693E06BEA23
:1032F00071E00FC0C701B6019F772FEF3FEF4FE797
:103300005FE70E94592F18163CF483E693E06FEABA
:1033100071E00E94542B86C0C701B6012FEF3FEF2A
:103320004FE75FE40E94592F18162CF483E693E0D0
:1033300063EB71E0EECFC701B6012FEF3FEF4FE730
:103340005FEC0E94D92C87FDF1CFC701B60120E0C8
:1033500030E0A9010E94D92C87FF09C08DE20E94AC
:10336000C123EC01F7FAF094F7F8F09402C0C0E042
:10337000D0E0A12C60E070E080E09FE3AB1440F46B
:103380002DEC3CEC4CEC5DE30E943F2DA394F6CF7A
:10339000A70196010E94BE2E2B013C010E942A2FFC
:1033A0006B017C010E94DE2C9B01AC01C301B201C8
:1033B0000E94BD2E2B013C01C701B6014AE00E94CC
:1033C000CD23C80FD91FBB2029F08EE20E94C12354
:1033D000C80FD91FFB2CFF2021F1C301B20120E04F
:1033E00030E040E251E40E943F2D2B013C010E945D
:1033F0002A2F4B01A12CB12CC501B4014AE00E9437
:10340000CD23C80FD91FC501B4010E94DE2C9B013A
:10341000AC01C301B2010E94BD2E2B013C01FA9404
:10342000DACFCE01DF91CF91FF90EF90DF90CF9078
:10343000BF90AF909F908F907F906F905F904F90D4
:10344000089590E0FC01E25BFC4F3491FC01E851EF
:10345000FC4F2491FC01EC52FC4FE491EE2309F463
:103460003BC0332339F1333091F038F43130A9F0D7
:10347000323001F584B58F7D12C0373091F038308D
:10348000A1F03430B9F4809180008F7D03C0809129
:1034900080008F77809380000DC084B58F7784BDC6
:1034A00009C08091B0008F7703C08091B0008F7DFC
:1034B0008093B000F0E0EE0FFF1FE054FC4FA591A9
:1034C000B4918FB7F894EC91611103C020952E232D
:1034D00001C02E2B2C938FBF0895CF93DF9390E0E4
:1034E000FC01E851FC4F2491FC01EC52FC4F84910B
:1034F000882361F190E0880F991FFC01EC5BFC4F81
:10350000C591D491FC01E054FC4FA591B491611197
:1035100009C09FB7F8948881209582238883EC9115
:103520002E230BC0623061F49FB7F8943881822F4C
:10353000809583238883EC912E2B2C939FBF06C00C
:103540008FB7F894E8812E2B28838FBFDF91CF911E
:103550000895CF93DF93EC018AE061E00E946D1A39
:10356000209719F48AE060E005C0CF3FD10529F427
:103570008AE061E00E94211A43C0E8E5F3E0E491AB
:10358000E330F9F048F4E130B9F0E230A1F584B568
:10359000806284BDC8BD34C0E730E9F0E83019F17D
:1035A000E43049F580918000806280938000D09360
:1035B0008B00C0938A0024C084B5806884BDC7BDD9
:1035C0001FC080918000806880938000D093890024
:1035D000C093880015C08091B00080688093B000CF
:1035E000C093B3000DC08091B00080628093B000A2
:1035F000C093B40005C0C038D1050CF0B9CFB2CF2C
:10360000DF91CF9108958E3008F08E5087708064DE
:1036100080937C0080917A00806480937A0080910E
:103620007A0086FDFCCF809178002091790090E0AF
:10363000922B08952FB7F8946091CD027091CE022D
:103640008091CF029091D0022FBF08951F920F92C8
:103650000FB60F9211242F933F938F939F93AF93A5
:10366000BF938091CD029091CE02A091CF02B091F4
:10367000D0023091CC0223E0230F2D3720F40196A5
:10368000A11DB11D05C026E8230F0296A11DB11D85
:103690002093CC028093CD029093CE02A093CF02D0
:1036A000B093D0028091C8029091C902A091CA0241
:1036B000B091CB020196A11DB11D8093C8029093D9
:1036C000C902A093CA02B093CB02BF91AF919F9160
:1036D0008F913F912F910F900FBE0F901F901895D3
:1036E0001F920F920FB60F9211242F933F934F9377
:1036F0005F936F937F938F939F93AF93BF93EF935A
:10370000FF93E091C602F091C702309709F451C0CF
:10371000968DA685B785858591FF04C09C918923E8
:1037200029F447C09C91892309F043C0A389B48937
:103730009C918589809589238C93868997890197A7
:10374000F1F7608D718DA685B785558538E020E04D
:10375000CB010197F1F7822F90E095958795282F5F
:103760004C91452309F02068315091F7868D81FDF9
:1037700020958091C40290E001968F739927309133
:10378000C502381749F0A091C402B0E0AC57BD4F54
:103790002C938093C40203C0868D8160868F828DB6
:1037A000938D0197F1F7A389B4899C918589892B21
:1037B0008C93FF91EF91BF91AF919F918F917F91EA
:1037C0006F915F914F913F912F910F900FBE0F908E
:1037D0001F901895E091C602F091C702E817F9070B
:1037E00069F4A389B4899C918589809589238C93F8
:1037F0001092C7021092C60281E0089580E00895F9
:103800001F920F920FB60F9211242F933F934F9355
:103810005F936F937F938F939F93AF93BF93EF9338
:10382000FF938091B900887F803609F49CC068F5C9
:10383000883209F45BC090F4803109F454C038F444
:10384000882309F4F6C0883009F44DC0F6C08831E9
:1038500009F44CC0803209F45DC0EFC0803409F433
:1038600068C048F4803309F455C0883309F0E5C0D6
:1038700080932103D8C0803509F44FC0883509F4FE
:103880005DC0883409F0D9C0D6C0883909F4C7C0F2
:10389000A8F4883709F467C038F4883609F463C09F
:1038A000803709F460C0C9C0883809F4B8C08039CD
:1038B00009F45FC0803809F0C0C05BC0803B09F4E8
:1038C00086C038F4803A09F466C0883A09F47FC0AB
:1038D000B4C0803C09F4A7C0883C09F4A4C0883B6C
:1038E00009F48AC0AAC08091FE0210C09091200302
:1038F00080911F03981770F5E091200381E08E0FEF
:1039000080932003F0E0E150FD4F80818093BB0065
:1039100085EC86C0809321038EC0E091200381E076
:103920008E0F809320038091BB00F0E0E150FD4FAB
:1039300080839091200380911F036EC0E09120034B
:1039400081E08E0F809320038091BB00F0E0E15076
:10395000FD4F80838091700381116DC081E0809361
:103960006F0384EA61C083E0809371031092830245
:10397000CFCF80918302803208F051C0E091830262
:1039800081E08E0F809383028091BB00F0E0ED59BF
:10399000FD4F8083BDCF85EC8093BC0010927103F6
:1039A00080918302803230F4E0918302F0E0ED599F
:1039B000FD4F10826091830270E0E0916102F0910E
:1039C000620283E692E009951092830236C084E099
:1039D000809371031092600210925F02E0915D0289
:1039E000F0915E02099580915F02811105C081E02E
:1039F00080935F0210923D02E091600281E08E0FA1
:103A000080936002F0E0E35CFD4F80818093BB0017
:103A10009091600280915F02981708F479CF85E851
:103A20008093BC000AC085EC8093BC0010927103A7
:103A300004C0109221030E940D25FF91EF91BF91C8
:103A4000AF919F918F917F916F915F914F913F9136
:103A50002F910F900FBE0F901F901895ACE0B0E023
:103A6000E4E3FDE10C94822E80E069E771E00E94BE
:103A70007B230E943C2382E060E00E94442388EB89
:103A800093E00E94A0230E94111382E061E00E9453
:103A900044238EEA93E00E94A0230E94111382E047
:103AA00062E00E94442382EA93E00E94A02382E025
:103AB00063E00E94442384E993E00E94A0230E94D3
:103AC0001113E12C80918203843009F42DC281E02E
:103AD00060E048E70E94A71380918603811102C02D
:103AE00040E201C040E081E061E00E94A7138091C4
:103AF0008303811102C040E201C040E081E062E046
:103B00000E94A71381E063E048E70E94A71380E0CA
:103B10006E2D4EE70E94A71381E061E00E948F1690
:103B200080918203823009F4EAC1833009F4F2C142
:103B3000813041F6E81629F082E0E81609F4C5C1A3
:103B4000C1CF9091D60280918403992309F425C1B5
:103B5000811102C04C99FECF81E069E471E00E94BE
:103B60007B2382E061E571E00E947B2383E061E4D6
:103B700071E00E947B2389E791E00E948D1384E02D
:103B800063E00E94442387E893E00E94A0238BE037
:103B900063E042E00E94A7138091D502882319F0C8
:103BA00082E0F82E02C0FF24F3940E947123DD24EA
:103BB000D39480918203843009F484C14C9909C064
:103BC0008091D502811105C080918503882309F475
:103BD000B1C182E060E00E94442380918503882384
:103BE00029F08CE793E00E94A02314C084E60E9491
:103BF0002D1282E560E040E09E012F5F3F4F0CE018
:103C000010E00E94662283E693E0BE016F5F7F4F63
:103C10000E94542B87E062E00E9444234C9B05C025
:103C200080918503882309F49FC1809100018A3027
:103C300010F40E941E13809100016AE070E00E945F
:103C400047198FE20E94C1238091D6028A3010F476
:103C50000E941E138091D6026AE070E00E9447190C
:103C60008FE060E00E9444238091D502882329F0F0
:103C700082E693E00E94A02305C08FE060E045E06B
:103C80000E949A134C9906C08091D502811102C0FE
:103C900043E001C041E088E063E00E94A7138F2D5C
:103CA000880F8F0D8B5F63E00E94442381E061E009
:103CB0000E948F1680918203823009F45BC08330AA
:103CC00009F462C0813009F074CFF816E1F0F816FB
:103CD00038F082E0F81659F183E0F81679F169CFEF
:103CE00080910001823018F0815080930001809112
:103CF0008503882321F010928503D09286034C9986
:103D000030C0F12C56CF4C990DC0F09286039091A3
:103D100000018091D402890F81590E94EA27F09214
:103D2000840302C00E9417280E94262842CF809157
:103D3000D5024C9923C1811121C13BCF8091000153
:103D40009091D602891718F48F5F809300018091BB
:103D50008503882321F010928503D09286034C9B23
:103D600028CF909100018091D402890F81590E943F
:103D7000EA271FCF8091D50281111BCF82E08F15DA
:103D800008F417CFF39415CF8091D502811111CF8C
:103D9000FF2009F4B6CFFA940CCF811102C04C99E0
:103DA000FECF81E069E471E00E947B2382E061E55F
:103DB00071E00E947B2383E061E471E00E947B2339
:103DC00089E791E00E948D1384E063E00E94442320
:103DD00087E893E00E94A0238BE063E042E00E942A
:103DE000A7138091D502882311F012E001C011E0E1
:103DF0000E94712380918203843009F463C080E0C3
:103E000061E00E94442388E693E00E94A0238FE0B3
:103E100060E00E9444238091D502882329F082E645
:103E200093E00E94A02305C08FE060E045E00E947F
:103E30009A134C9906C08091D502811102C043E0CB
:103E400001C041E088E063E00E94A713812F880F42
:103E5000810F8B5F63E00E94442381E061E00E9458
:103E60008F16809182038230D9F0833011F1813036
:103E700009F6113021F0123009F0BCCF0AC04C997C
:103E800003C01093840302C00E9417280E942628B2
:103E9000B1CF8091D5024C997FC081117DC0AACF4E
:103EA0008091D5028111A6CF133008F0A3CF1F5FF8
:103EB000A1CF8091D50281119DCF112309F49ACF12
:103EC000115098CF0E94FE12FDCD80918303811185
:103ED00009C08091D502811102C04C996CC05E98D6
:103EE0005F9A02C05E9A5F989091830381E0892770
:103EF0008093830384EF91E00E945912E3CD80E028
:103F00006E2D40E20E94A71382E08E1508F4DACDF0
:103F1000E394D8CD80E06E2D40E20E94A713EE20FE
:103F200009F4D0CDEA94CECD0E94FE122C96E7E0A3
:103F30000C949E2E4091D40250E041595F4F8091E5
:103F40000001480F511D83E0652F20E030E000E0C4
:103F500010E00E94662284E60E942D120E9417281B
:103F600084E60E942D1235CE84E60E942D128BE449
:103F70000E94DE2287598093000157CE882339F0B2
:103F80005E981092D5028DE00E94FA2212CED09255
:103F9000D5020E9407230DCE882339F05E98109237
:103FA000D5028DE00E94FA2225CF81E08093D502D0
:103FB0000E9407231FCF0E94172891CFCF93809193
:103FC000B1038823E9F18091AF039091AD03209173
:103FD000F902981730F4C1E0821768F0291758F0F9
:103FE00009C0891738F4C0E0821728F4291718F49B
:103FF000C1E001C0C0E0891310C05091AE03309100
:10400000AC03351738F04091F802451718F0341713
:1040100008F0C1E0381708F4C1E0281307C0309158
:10402000F8028091AE03381708F0C1E0291309C0E7
:104030009091F8028091AC03981718F4C1E001C088
:10404000C0E08091D302C81749F0CC2311F087E477
:1040500001C086E60E94EA27C093D3028C2FCF913D
:104060000895CF93DF930E944327C7EFD2E089835F
:104070000E94DC250E9466268091A4038A83DF913A
:10408000CF9108950E943C230E94FE120E942213A9
:104090000E94B81308958F929F92AF92BF92CF92D1
:1040A000DF92EF92FF92CF93DF936B017C010E942E
:1040B0001A1B4B015C0184E493E00E941F18EC0181
:1040C000892B69F40E941A1BAB01BC0148195909DC
:1040D0006A097B094C155D056E057F0560F3CE010D
:1040E000DF91CF91FF90EF90DF90CF90BF90AF9096
:1040F0009F908F900895109279031092780388EE24
:1041000093E0A0E0B0E080937A0390937B03A093C8
:104110007C03B0937D032BEC31E030937703209345
:10412000760310926603109265032BEF31E0309313
:104130006403209363032FE32093670324E1209318
:104140006C0324E020936D0328E020936E0310920B
:104150004703109246038093480390934903A0932A
:104160004A03B0934B038BED91E09093450380930A
:10417000440310925B0310925A0310925D03109255
:104180005C0310925F0310925E0310926103109221
:104190006003609162036E7F6D7F6093620366953A
:1041A000617081E0682783E00E94211A83E061E06A
:1041B0000E946D1AEBEEF3E0E491E0935403E7ED17
:1041C000F3E0E491F0E0EE0FFF1FE054FC4F859127
:1041D0009491909356038093550382E060E00E948F
:1041E0006D1A8091620381FD04C082E061E00E944B
:1041F000211A82E080935003EAEEF3E0E491E09329
:104200005103E6EDF3E0E491F0E0EE0FFF1FE6531B
:10421000FC4F8591949190935303809352038BEEBE
:1042200091E090934503809344031092750310929C
:10423000740310927303109272031092710381E061
:104240008093700310926F0382E161E00E94211A53
:1042500083E161E00E94211A8091B9008E7F8093F2
:10426000B9008091B9008D7F8093B90088E4809374
:10427000B80085E48093BC00089590914303209199
:104280007203213208F04AC0809171038111FCCF82
:1042900032E03093710331E0309370033FEF30939D
:1042A00021031092200320931F03A3E2B3E04FEFFA
:1042B00052E0FA013E2F341B321718F43D9131932E
:1042C000F9CF1092FE022091FE02990F922B90934B
:1042D000FE0290916F03913061F410926F03909100
:1042E000FE029093BB009091BC0093FDF8CF95EC3B
:1042F00001C095EE9093BC00909171039230E1F370
:10430000909121039F3F79F080912103803241F009
:1043100080912103803331F084E005C081E003C047
:1043200082E001C083E01092730310927203109236
:104330002203089591E09093220380934303109207
:1043400073031092720308950F931F93CF9388E61F
:104350000E949A2186E793E060E00E94B62407EF6E
:1043600012E0F8018081CAE06C2F0E94632F692F50
:10437000F0E18F9F600D112486E793E00E94B62440
:10438000F80181816C2F0E94632F692FF0E18F9FCC
:10439000600D112486E793E00E94B624F801828123
:1043A0006C2F0E94632F692FF0E18F9F600D112405
:1043B00086E793E00E94B624F80183816C2F0E9467
:1043C000632F692FF0E18F9F600D112486E793E042
:1043D0000E94B624F80184816C2F0E94632F692FFC
:1043E000F0E18F9F600D112486E793E00E94B624D0
:1043F000F80185816C2F0E94632F692FF0E18F9F58
:10440000600D112486E793E00E94B624F8018681AE
:104410008E516C2F0E94632F692FF0E18F9F600DEA
:10442000112486E793E00E94B6240E943D21CF919B
:104430001F910F910895909171039111FCCF6132FA
:1044400008F060E291E090937103909370032FEF76
:104450002093210310922003260F20931F03909393
:10446000FE029091FE02880F892B8093FE028091BC
:104470006F03813061F410926F038091FE0280938C
:10448000BB008091BC0083FDF8CF85EC01C085EEB8
:104490008093BC00809171038130E1F3809120030F
:1044A000861710F460912003AFEFB2E027ED32E001
:1044B000F9018E2F821B861718F48D918193F9CF05
:1044C0001092750360937403862F0895A0E0B0E006
:1044D000ECE6F2E20C94812EE82EC62ED42EE901F1
:1044E000EDEFE80FE03128F4F0E0E954FE4FF08002
:1044F00001C0F12C6AE070E080E090E00E944B2067
:10450000892B29F084E493E00E943718F3CF84E4E8
:1045100093E06EE70E94CB1784E493E062E06F0DB6
:104520000E94CB1784E493E06E2D0E94CB17FF20EE
:1045300069F084E493E06C2D0E94CB1782E0F812BE
:1045400005C084E493E06D2D0E94CB1784E493E0D2
:104550006FEE0E94CB17209749F00115110531F03D
:10456000CE0160E070E0A8010E949D2F68EE73E02C
:1045700080E090E00E944B20E12CF12C01501109C9
:1045800062E370E080E090E00E944B20892B89F08C
:1045900084E493E00E943718209791F3E016F10627
:1045A00078F7FE01EE0DFF1D8083C70101967C01A7
:1045B000E7CFCDB7DEB7E8E00C949D2EA5E0B0E0E4
:1045C000E4EEF2E20C94852E60E040E09E012F5F65
:1045D0003F4F05E010E00E946622CE01019660E0A8
:1045E00070E040E150E00E94B42BCB012596E4E05E
:1045F0000C94A12E0F931F9360E040E020E030E088
:1046000000E010E00E9466221F910F9108958EE055
:104610000E94FA2208950F931F93682F81E140E0D2
:1046200020E030E000E010E00E9466221F910F9130
:10463000089510926E0383E693E060E00E946A2B77
:10464000089588E080936E0383E693E060E00E9423
:104650006A2B0895CF93C82F682F607F83E693E07D
:104660000E94842B80E1C89FB001112483E693E06F
:104670000E94842BCF91089581E00E942A238BE32E
:104680009FE10197F1F70895A8E0B0E0EAE4F3E2D2
:104690000C94872E98E0E1E9F1E0DE01119601909B
:1046A0000D929A95E1F790916B03961710F46FEFC6
:1046B000690FFE013196E60FF11DE60FF11D9081A5
:1046C000890F80680E942A232896E2E00C94A32E8A
:1046D000E3E6F3E086818E7F868388600E942A234A
:1046E0000895E3E6F3E08681982F916096838960D0
:1046F0000E942A230895A2E0B0E0E1E8F3E20C94DE
:10470000832E877028E0829FC00111248064698312
:104710007A830E942A236981E62E7A81F72E870107
:10472000085F1F4FF70161917F0183E693E00E94CC
:104730009D2BE016F106B1F72296E6E00C949F2E31
:104740000F931F93CF93DF938C01C0E0D0E0F8016B
:10475000EC0FFD1F6491662371F0E0916303F0910B
:1047600064030190F081E02D83E693E00995892BA5
:1047700011F02196ECCFCE01DF91CF911F910F91D7
:104780000895682FE0916303F09164030190F08134
:10479000E02D83E693E0099508958F929F92AF9262
:1047A000BF920F931F93CF93DF93CDB7DEB7A1973F
:1047B0000FB6F894DEBF0FBECDBF19A2423008F489
:1047C0004AE08E010F5D1F4F842E912CA12CB12C3D
:1047D000A50194010E94232EE62FB901CA010150C0
:1047E0001109EA3014F4E05D01C0E95CD801EC93F2
:1047F000232B242B252B61F783E693E0B8010E943D
:10480000542BA1960FB6F894DEBF0FBECDBFDF913B
:10481000CF911F910F91BF90AF909F908F9008956F
:10482000CF92DF92EF92FF92CF93DF936C01990FBB
:10483000EE08FF08F7FE11C08DE20E94C123EC01D3
:1048400066277727CB016C197D098E099F094AE0FD
:104850000E94CD238C0F9D1F05C0C701B6014AE001
:104860000E94CD23DF91CF91FF90EF90DF90CF900A
:10487000089540915F02262F30E0240F311D213230
:104880003105DCF4209171032430C9F4FC0180E08F
:1048900090E0861758F430915F022191DC01A35C0F
:1048A000BD4FA30FB11D2C930196F3CF80915F02F2
:1048B000680F60935F0280E0089581E0089582E0D0
:1048C00008950895E091750380917403E81730F41A
:1048D000F0E0E952FD4F808190E008958FEF9FEF67
:1048E00008959091750380917403981750F4E92FFF
:1048F000F0E0E952FD4F208130E09F5F9093750317
:1049000002C02FEF3FEFC90108958091740390E03A
:1049100020917503821B91090895A0E0B0E0E3E9BE
:10492000F4E20C94812E7C01972F8A01809122035E
:10493000882391F0C62FD72F6E01C40ED51ECC153B
:10494000DD0571F06991D701ED91FC910190F08145
:10495000E02DC7010995F3CF862F642F0E943924DB
:10496000C801CDB7DEB7E8E00C949D2EA1E0B0E021
:10497000ECEBF4E20C94872E69832091220322232E
:10498000D1F020917203203240F021E030E0FC01B0
:104990003383228380E090E015C080917303E82F79
:1049A000F0E0ED5DFC4F998190838F5F80937303FE
:1049B0008093720305C0CE01019661E00E94392404
:1049C00081E090E02196E2E00C94A32E60939E0398
:1049D00070939F038093A0039093A103DC01CB010C
:1049E000845D9E4FAF4FBF4F80939A0390939B037C
:1049F000A0939C03B0939D0382E090E09093990371
:104A0000809398030E941A1B6093940370939503FC
:104A10008093960390939703089585ED8093BC004F
:104A20008091BC0084FDFCCF109271030895A0E03A
:104A3000B0E0EDE1F5E20C94782E382E962E842E1F
:104A4000F90184E6E816F1042CF082EBE81A87E01D
:104A5000F80A03C08EE1E80EF11CE092A80300936F
:104A6000A703E093A6033092A4039092A30380923D
:104A7000A203AE2DB0E020E833E341EE51E00E9406
:104A8000642E2B013C0122EB37E0FF2484E6C82E84
:104A9000D12CC0E9D1E0C901825B97408E159F05FA
:104AA000DCF4C90183709927892B99F4C901B601F7
:104AB0000E94832F892B31F4C901BE010E94832FEC
:104AC000892B39F480E8480E81E5581E81E0681E84
:104AD000711C2F5F3F4FDFCF8EE4E81A88EFF80A92
:104AE000C70164E670E00E94832F6C01C70160E992
:104AF00071E00E94832F5C01C1E0D0E0112783E0C8
:104B0000E822FF24C017D1072CF5C230D10589F463
:104B1000E114F10471F4C114D10419F4A114B10425
:104B200041F480E8480E8BE3581E86E2681E711C33
:104B30000FC0DE01A250BE4FAC91B0E020E831E5DD
:104B400041E050E00E94642E460E571E681E791EFA
:104B50002196D8CF292D30E0ACE3B0E00E94AE2EF4
:104B60006B017C01C80CD11CE11CF11C232D30E031
:104B7000A0E1BEE00E94AE2EC60ED71EE81EF91EB2
:104B8000DF01BB27119720E831E541E050E00E94AA
:104B90006F2EDC01CB018C0D9D1DAE1DBF1DBC0118
:104BA000CD01640D751D861D971D0E94E624CDB7AD
:104BB000DEB7E1E10C94942ECF92DF92EF92FF9258
:104BC0000F931F930E941A1BC0909403D0909503DB
:104BD000E0909603F09097038B019C010C191D093E
:104BE0002E093F0980919E0390919F03A091A003FD
:104BF000B091A103083E134021053105D0F0019684
:104C0000A11DB11D80939E0390939F03A093A003C9
:104C1000B093A103B701A60148515C4F6F4F7F4F7E
:104C20004093940350939503609396037093970376
:104C3000C9CF40919A0350919B0360919C0370915E
:104C40009D0384179507A607B70788F1E0919203A3
:104C5000F0919303309759F109956115710581051C
:104C6000910519F00E94E62422C080919E03909144
:104C70009F03A091A003B091A103845D9E4FAF4F0D
:104C8000BF4F80939A0390939B03A0939C03B09390
:104C90009D0381E090E02091980330919903232BAC
:104CA00011F480E090E090939903809398036091D1
:104CB0009E0370919F038091A0039091A1031F9187
:104CC0000F91FF90EF90DF90CF900895A0E0B0E0BB
:104CD000ECE6F6E20C94792E4B015C0180918E0398
:104CE00090918F03A0919003B0919103881699063B
:104CF000AA06BB0609F4C2C08CE3C82ED12CE12C55
:104D0000F12CC501B401A70196010E94232E6093E6
:104D1000A203CA01B901A70196010E94232E609344
:104D2000A303CA01B90128E130E040E050E00E944D
:104D3000232E69017A016093A403CA01B9016C5F53
:104D40007F4F8F4F9F4F27E030E040E050E00E94C0
:104D5000232E6F5F6093A503412C512C320140E05C
:104D600004E610E0C0E9D1E0242F30E02E54384FA3
:104D7000F901E370FF27309789F4C901B8010E9457
:104D8000832F892B31F4C901BE010E94832F892B07
:104D900029F48EE691E0A0E0B0E004C08DE691E059
:104DA000A0E0B0E0480E591E6A1E7B1ED301C2016E
:104DB000AA27BB27C816D906EA06FB0610F04F5FE4
:104DC000D3CF4093A803309799F4C90164E670E00B
:104DD0000E94832F892B39F4C90160E971E00E9498
:104DE000832F892B29F48EE691E0A0E0B0E004C087
:104DF0008DE691E0A0E0B0E0481A590A6A0A7B0A01
:104E0000C418D508E608F708C90164E670E00E94F6
:104E1000832FEC01C90160E971E00E94832FAFEF9D
:104E2000B1E020E0213039F4309749F4209729F49B
:104E3000009729F402C04C9103C04DE101C04CE140
:104E400050E060E070E0C416D506E606F70640F0D4
:104E5000C41AD50AE60AF70A2F5F11962C3011F70B
:104E60002F5F2093A703C394C092A60380928E0362
:104E700090928F03A0929003B0929103CDB7DEB7CA
:104E8000E0E10C94952E0E94DC250E94662680911C
:104E9000A30308951F920F920FB60F9211240F9340
:104EA0001F932F933F934F935F936F937F938F93B2
:104EB0009F93AF93BF93EF93FF930E941A1B209190
:104EC0008C0330918D03890120E030E06017710779
:104ED00082079307B8F080916F008D7F80936F00F9
:104EE00082E08093810081E080938000E0918A03DA
:104EF000F0918B0390818091890380958923808331
:104F000010928903E0918A03F0918B039081809144
:104F1000890389278083FF91EF91BF91AF919F9182
:104F20008F917F916F915F914F913F912F911F9141
:104F30000F910F900FBE0F901F9018958BED91E081
:104F4000909345038093440384E493E00E94EA1B1A
:104F500008952091870330918803A901480F511DBE
:104F6000CA010E94052E089520918703309188037D
:104F7000A901480F511DCA010E94FD2D0895A1E00D
:104F8000B0E0E5ECF7E20C94852E182F062F79831C
:104F90000E949A2186E793E069810E94B62486E701
:104FA00093E0602F0E94B6240E943D21812F90E063
:104FB00061E070E00E941B2286E793E00E9471246A
:104FC0002196E4E00C94A12E5E9886E490E00E9485
:104FD00059120895A1E0B0E0E0EFF7E20C94852EBD
:104FE00089830E94E42783E060E0498120E030E08B
:104FF00000E010E00E94662284E60E942D1280915B
:105000008603882319F081E00E940B238091850399
:10501000882349F081E164E040E020E030E000E0F6
:1050200010E00E9466222196E4E00C94A12E0E94DA
:10503000072384E60E942D121092850310928603A6
:105040001092840384E00E940B2308955F981092CD
:1050500083030895CF93823009F477C038F488230E
:1050600021F1813009F0B8C0CAE060C0843009F491
:105070008BC008F472C0853009F0AEC088E592E0BC
:1050800068EC70E041E028EC30E00E94FA1684EF12
:1050900091E068EC70E041E028EC30E00E94FA1604
:1050A00080E991E068EC70E092C086E091E06AEF00
:1050B00070E041E02DE431E00E94FA1684EC90E0CB
:1050C0006DE770E041E027EA30E00E94FA1684ECD8
:1050D00090E06DE770E041E027EA30E00E94FA16C8
:1050E0008CED90E06AEF70E041E02DE431E00E9449
:1050F000FA1684EC90E06AEF70E041E02AE932E0D1
:105100000E94FA1687EF90E06AEF70E041E02DE42C
:1051100031E00E94FA1686E091E06AEF70E041E02B
:105120002DE431E057C0C15009F456C088EB91E03E
:1051300062E370E041E024E630E00E94FA168091DC
:105140008203843081F7C0E0EECF88EB91E068EC19
:1051500070E041E024EF31E03DC088E592E064E694
:1051600070E041E024E630E00E94FA168CEB92E019
:1051700064E670E041E024E630E00E94FA1680E246
:1051800093E064E670E023C088E592E060E570E0BB
:1051900041E024E630E00E94FA1680E991E060E503
:1051A00070E041E024E630E00E94FA1684EF91E0DE
:1051B00060E570E041E024E630E00E94FA1680E904
:1051C00091E060E570E041E028EC30E003C041E0B0
:1051D0002CE231E00E94FA16CF9108950F931F93AD
:1051E000CF93DF93EC018C01065F1F4FC017D107EF
:1051F00050F480E5BE010E94BF27803211F00E946A
:10520000C1232196F3CFDF91CF911F910F91089584
:10521000CF92DF92EF92FF92CF93DF9381E891E0FC
:105220000E948D138EE294E00E94A02382E061E050
:105230000E9444238DE194E00E94A02382E062E07A
:105240000E94442389E194E00E94A02382E063E06D
:105250000E94442385E194E00E94A023C0E0D4E1B1
:1052600080918203843009F475C183E061E00E947B
:1052700044238091B103882319F081E194E002C0B6
:105280008DE094E00E94A0238091B003811102C0C0
:1052900040E201C048E580E161E00E94A71386E09A
:1052A00062E00E9444238091AF038A3010F40E9490
:1052B0001E138091AF036AE070E00E9447198AE3F1
:1052C0000E94C1238091AE038A3010F40E941E1305
:1052D0008091AE036AE070E00E9447190E941913A2
:1052E00086E063E00E9444238091AD038A3010F48D
:1052F0000E941E138091AD036AE070E00E9447197E
:105300008AE30E94C1238091AC038A3010F40E948A
:105310001E138091AC036AE070E00E9447190E945E
:105320001913C23048F480E062E040E20E94A71303
:1053300080E061E00E9444238EEF8C0F843068F49B
:1053400080E061E040E20E94A71380E063E040E279
:105350000E94A71380E062E009C0C63048F080E0F8
:1053600062E040E20E94A71380E063E00E944423D1
:105370008EE70E94C123CC2ED12C8AE0C816D1041E
:10538000E8F4F601E35AFF4F0C94972F83E001C035
:1053900080E161E011C086E005C087E003C089E0DC
:1053A00001C08AE062E008C086E005C087E003C073
:1053B00089E001C08AE063E00E94442380E061E06C
:1053C0000E948F1680918203823009F4B9C0833025
:1053D00009F4BBC0813009F043CF8AE0C816D1047C
:1053E00008F08FC0F601E959FF4F0C94972F909168
:1053F000B10381E089278093B10383C09091B0030A
:1054000081E089278093B0037CC08091AF038E3008
:1054100020F4865F8093AF0374C06AE00E94632F1C
:105420009093AF036EC02091AF03822F6AE00E9479
:10543000632F993011F4295001C02F5F2093AF03DF
:105440008091AF03883109F05CC0D093AF0359C09D
:105450008091AE03813320F4865F8093AE0351C008
:105460006AE00E94632F9093AE034BC02091AE037D
:10547000822F6AE00E94632F993011F4295001C0F5
:105480002F5F2093AE033DC08091AD038E3020F49A
:10549000865F8093AD0335C06AE00E94632F9093CE
:1054A000AD032FC02091AD03822F6AE00E94632FCD
:1054B000993011F4295001C02F5F2093AD038091E2
:1054C000AD038831F1F4D093AD031BC08091AC03E0
:1054D000813320F4865F8093AC0313C06AE00E949E
:1054E000632F9093AC030DC02091AC03822F6AE030
:1054F0000E94632F993011F4295001C02F5F20932F
:10550000AC038BE06091B1030E94A9278CE060910D
:10551000AF030E94A9278DE06091AE030E94A927E6
:105520008EE06091AD030E94A9278FE06091AC03EB
:105530000E94A9278CE16091B0030E94A92790CE18
:10554000C93008F08DCECF5F8BCECC2309F488CE46
:10555000C15086CE80E061E071E00E947B23DF9144
:10556000CF91FF90EF90DF90CF900895CF93DF938E
:10557000C82F0E943C238EE70E94C1238CEF93E04A
:105580000E94A0238FE060E00E9444230E947123C8
:10559000C13019F48091AB0302C08091AA036AE084
:1055A00070E00E9447190E94E42781E08093A903DC
:1055B000D0E0809182038430F1F18FE060E00E94BE
:1055C000442381E061E00E948F1680918203813044
:1055D00081F7C130A9F49091AB03953019F4109282
:1055E000AB0303C09F5F9093AB038091AB036AE072
:1055F00070E00E9447198091AB030E942A2819C0CD
:105600009091AA039A3019F41092AA0303C09F5FE5
:105610009093AA038091AA036AE070E00E94471960
:1056200080918403811105C08091AA038F5F0E943D
:10563000EA27D1E0BECFDD2359F0C13021F487E065
:105640006091AB0303C083E16091AA030E94A92784
:1056500080918403811102C00E9407231092A90344
:10566000DF91CF9108951F920F920FB60F921124E0
:105670008F93EF93FF930FB6F894A89580916000F5
:10568000886180936000109260000FBEA895E0E6EC
:10569000F0E080818F7B8083FF91EF918F910F905D
:1056A0000FBE0F901F9018956115710581F0FB01D9
:1056B00001900020E9F73197AF01461B570BDC0141
:1056C000ED91FC910280F381E02D0995089580E031
:1056D00090E00895A1E0B0E0E0E7FBE20C94852EB5
:1056E0008C01FC01848169830E949A21F8018385E1
:1056F0006981682B86E793E00E94B6240E943D21D1
:105700002196E4E00C94A12E0F931F93CF938C016C
:10571000C62F0E946A2B6C2F6460C8010E946A2BFE
:105720006C2F6B7FC8010E946A2B83EC90E001977D
:10573000F1F7CF911F910F9108950F931F93CF937E
:105740008C01C62F607F61600E94842B80E1C89F1E
:10575000B00111246160C8010E94842B81E090E0B7
:10576000CF911F910F910895A6E0B0E0EAEBFBE224
:105770000C94772E5C016B017A016115710519F0AB
:10578000DB018D939C93E114F10429F0C70102978A
:10579000839708F0DCC03501BFEF6B1A7B0AF50177
:1057A0001081812F90E00E94C62C892B11F05301AB
:1057B000F2CF1D3249F43501F2E06F0E711CD501B4
:1057C00011961C9101E009C01B3231F43501B2E0A1
:1057D0006B0E711CF501118100E0E114F10409F474
:1057E000C4C0F0E1EF16F10489F4103399F5D30148
:1057F0008C918F7D883509F0B2C011961C91B2E072
:105800006B0E711C026050E1E52EF12CEAE0EE1601
:10581000F10409F4B0C0F0E1EF16F104D9F028E08A
:10582000E216F10451F438E0E32EF12C88248A9436
:10583000982CA82C4FE1B42E13C06FEF7FEFCB0153
:1058400097010F2C000C440B550B0E94232E49018D
:105850005A0106C088248A94982CA82C2FE0B22ED6
:105860007E826D8260E020E030E0A90127010F2CEC
:10587000000C660877082D803E80E0EDE10FEA30ED
:1058800060F08FEB810F8A3110F4E9EC05C08FE9ED
:10589000810F8A3190F5E9EAE10F8E2F90E08E15A5
:1058A0009F055CF56F3F09F182169306A406B506C5
:1058B000D8F0C301B2010E94132E2E2F30E040E039
:1058C00050E029833A834B835C83260F371F481FA0
:1058D000591F89819A81AB81BC81281739074A07F2
:1058E0005B0710F061E001C06FEFED81FE81319642
:1058F000FE83ED83D1011C91BECFC114D10489F088
:10590000662339F08D819E810197F6019183808312
:1059100008C001FF06C08D819E810297D6018D933C
:105920009C9300FF07C050954095309521953F4FBF
:105930004F4F5F4F67FF10C082E290E09093B70334
:105940008093B6036FEF7FEF8FEF9FEF1BC060E098
:1059500070E080E090E016C0B901CA0113C010E306
:10596000E114F10409F45FCF51CF103309F43FCFB4
:105970009AE0E92EF12C89E9882E982CA82C89E14F
:10598000B82E6ECF2696E2E10C94932E91110C94D2
:10599000D62C803219F089508550C8F70895FB0144
:1059A000DC0105900D920020E1F7089599278827E2
:1059B00008950E941B2D08F481E00895E89409C021
:1059C00097FB3EF490958095709561957F4F8F4F32
:1059D0009F4F9923A9F0F92F96E9BB279395F69548
:1059E000879577956795B795F111F8CFFAF4BB0FC6
:1059F00011F460FF1BC06F5F7F4F8F4F9F4F16C02A
:105A0000882311F096E911C0772321F09EE8872FB3
:105A1000762F05C0662371F096E8862F70E060E06F
:105A20002AF09A95660F771F881FDAF7880F9695E8
:105A3000879597F90895990F0008550FAA0BE0E88C
:105A4000FEEF16161706E807F907C0F01216130640
:105A5000E407F50798F0621B730B840B950B39F480
:105A60000A2661F0232B242B252B21F408950A26E6
:105A700009F4A140A6958FEF811D811D08950E9414
:105A8000522D0C94C32D0E94B52D38F00E94BC2DD0
:105A900020F0952311F00C94AC2D0C94B22D112410
:105AA0000C94F72D0E94D42D70F3959FC1F3950FA0
:105AB00050E0551F629FF001729FBB27F00DB11D92
:105AC000639FAA27F00DB11DAA1F649F6627B00D22
:105AD000A11D661F829F2227B00DA11D621F739F0B
