:100000000C9450020C9478020C9478020C948C0698
:100010000C948C060C948C060C94721D0C94780233
:100020000C9478020C9478020C9478020C94051BC2
:100030000C9478020C9478020C9478020C94780258
:100040000C9442060C9478020C9478020C9478027A
:100050000C9478020C9478020C9478020C94780238
:100060000C941C070C9478029D27A027A327A62791
:10007000A827AB27AE27B127B427B727BA27DB2796
:10008000E827F927052810281C2832284328482863
:100090005A28562C992CD02C0E2D452D7B2D8F2D8A
:1000A0006A0373038703A103AD03B903CB03D7032B
:1000B000E003FA030F0421043B04050908090B09B6
:1000C0000D090F0911091309160919091C09390924
:1000D0004009470955096A09780986099409A80958
:1000E000B609426972746864617900486170707918
:1000F0000044696420796F75206B6E6F7720746897
:1001000061742E2E2E004920616D20686572652174
:1001100000506C61792073746F726965730041558A
:100120005820696E70757400506C6179206F776E1D
:100130002066696C657300506C6179207261646936
:100140006F005B205D204D5033005B205D205261CD
:1001500064696F005B205D2042656570005B6F66BF
:10016000665D005B6F6E205D004D50330052616430
:10017000696F00546F6E6500416C61726D20746F21
:100180006E65205B20202020205D004E6577206179
:100190006C61726D2074696D65006F6666006F6ECC
:1001A00020003230004E696768746D6F6465205BB3
:1001B0002020205D004E65772074696D652F646195
:1001C000746500543A2000426174743A0020543A35
:1001D000200052414D3A2020004932433A20002D60
:1001E000313930343137004669726D776172653A62
:1001F00020006279204E696B6F6C616920526164E6
:100200006B65004E4F4B4F2062656C6F6E677320BD
:10021000746F004D79204E4F4B4F004469737461E9
:100220006E6365206C69676874205B205D005369AC
:100230006C656E742020202020202020205B205D13
:1002400000506F7765722073617665202020202032
:100250005B205D006D6F72652E2E2E0044697374F5
:10026000616E6365202B2F2D205B205D0045766538
:100270006E74732020202B2F2D205B205D004C45B9
:10028000442020202020202B2F2D205B205D005398
:100290006574204E4F4B4F0053657420636C6F6341
:1002A0006B0053657420616C61726D00506C6179F4
:1002B00020736F6D657468696E6700507265737343
:1002C000206E6F73650020746F2056002055706497
:1002D00061746520636F6D706C6574656400000007
:1002E0000000240027002A0000000008000201008E
:1002F0000003040700000000000000005361747553
:10030000726461790046726964617900546875723B
:1003100073646179005765646E6573646179005434
:10032000756573646179004D6F6E64617900537512
:100330006E646179004572720035032E0327031F36
:100340000315030C030503FC025041555345004EB1
:100350006F204D50337320666F756E640053746F59
:100360007279005B3C5D5B205D5B205D5B3E5D0008
:1003700020416C61726D20746F6E65202B2F2D20D3
:100380005B205D006F6666006F6E2000756E74699D
:100390006C0066726F6D005B2020205D2044696DEB
:1003A000205B205D00536574206E696768746D6F13
:1003B000646500070F1F1F1F1F1F1F1F1F1F000047
:1003C0000000001C1E1F1F1F1F1F1F1F1F1F1F1F9E
:1003D0001F0F0700000000001F1F1F1F1F1F1F1FF0
:1003E0001F1E1C1F1F1F0000001F1F1F1F1F1F1F7E
:1003F0001F1F1F080C0E0F0E0C080000000E0E0E23
:100400000E0000000A0A0A0A0A000000050A140A7F
:1004100005000000140A050A140000000A0E151F4A
:100420000E0A000004041F0E0A1100010305090949
:100430000B1B18000E1517110E0000040E0E0E1FD8
:1004400000040020416C61726D200050726573736E
:10045000204E6F736500426972746864617921008F
:1004600000000000250028002B00000000002300F1
:100470002600290004040404040404040202020205
:100480000202030303030303010204081020408057
:10049000010204081020010204081020BA2D8E2E3B
:1004A00011241FBECFEFD8E0DEBFCDBF11E0A0E02A
:1004B000B1E0E8E1F6E602C005900D92AC37B10775
:1004C000D9F723E0ACE7B1E001C01D92A733B20732
:1004D000E1F712E0CFE4D2E004C02197FE010E94D0
:1004E000ED32CE34D107C9F70E94D81E0C94FF32EA
:1004F0000C940000CF92DF92EF92FF920F931F9324
:10050000CF93DF936C017A018B01C0E0D0E0CE1570
:10051000DF0589F0D8016D918D01D601ED91FC9137
:100520000190F081E02DC6010995892B11F47E011F
:1005300002C02196ECCFC701DF91CF911F910F919F
:10054000FF90EF90DF90CF9008952091B40130910B
:10055000B5012817390771F49091B3018091B20168
:10056000981741F0E091B301F0E0E052FE4F808136
:1005700090E008958FEF9FEF089508951F93CF9314
:10058000DF93DC015C962D913C915D97211531053F
:1005900039F481E090E013969C938E9312973DC0BE
:1005A0005196ED91FC91529750969C915097892FBE
:1005B00080951FB75E964C915E9741FB772770F947
:1005C00041FD6095F8944081772311F0492B01C0DB
:1005D00048234083E9012197F1F748E0508160FF0B
:1005E00002C0592B01C058235083E9012197F1F72C
:1005F0006695415099F7772321F090818923808374
:1006000003C08081982B90831FBF5C968D919C9135
:100610005D970197F1F721E030E0C901DF91CF91BB
:100620001F9108952091B4013091B5012817390721
:1006300071F48091B2012091B30190E0805C9F4FF2
:10064000821B910960E470E00E94D932089580E035
:1006500090E008952091B4013091B5012817390731
:10066000B9F49091B3018091B201981789F0E091AB
:10067000B301F0E0E052FE4F80812091B30130E001
:100680002F5F3F4F2F7333272093B30190E00895DE
:100690008FEF9FEF08950E94F332CF93C62F809380
:1006A00026021092250243E060E00E941210609141
:1006B00025026F5F43E0809126020E9412108C2F6A
:1006C00090E08D30910508F0ECC0FC01E05BFF4F3D
:1006D0000C94ED3240E060912502809126020E9448
:1006E0001F1081E075C041E06091250280912602D3
:1006F0000E941F1082E00E940517609125026F5F23
:1007000044E0809126020E941F1087E016C046E058
:1007100060912502809126020E941F1086E00E94AF
:10072000051782E00E940517609125026F5F43E084
:10073000809126020E941F1084E00E94051784E029
:10074000ADC046E060912502809126020E941F10F4
:1007500086E00E94051782E017C043E06091250201
:10076000809126020E941F1084E00E94051787E0F6
:100770004CC043E060912502809126020E941F1028
:1007800086E00E94051786E00E9405176091250209
:100790006F5F44E026C040E0609125028091260210
:1007A0000E941F1086E00E94051786E014C041E0F9
:1007B00060912502809126020E941F1081E022C0D4
:1007C00040E060912502809126020E941F1086E081
:1007D0000E94051782E00E940517609125026F5F55
:1007E00043E0809126020E941F1084E00E940517BA
:1007F00085E054C040E060912502809126020E946D
:100800001F1086E00E94051782E00E940517609184
:1008100025026F5F8091260247E08E5F0FC08091B6
:10082000260244E0609125028F5F0E941F106091B4
:1008300025026F5F8091260244E08F5FCF910C9478
:100840001F1040E060912502809126020E941F1037
:1008500082E00E94051780E00E9405176091250242
:100860006F5F47E0809126020E941F1083E00E9484
:10087000051787E013C047E06091250280912602AA
:100880000E941F1080E00E940517609125026F5F93
:1008900047E0809126020E941F1083E0CF910C94C4
:1008A0000517CF910895AB01672B59F4E091DF0252
:1008B000F091E0020190F081E02D682F8FED92E041
:1008C0000994682F70E080E090E00C9410174F922C
:1008D0005F926F927F928F929F92AF92BF92CF92D0
:1008E000DF92EF92FF926B017C01B42E9B01AC0171
:1008F0000E94B432882319F060E771E027C0260116
:100900003701E89477F82FEF3FEF4FE75FE7C30138
:10091000B2010E94B43281110DC02FEF3FEF4FE7BB
:100920005FE7C301B2010E94BD2F18161CF464E7F3
:1009300071E00CC02FEF3FEF4FE75FE4C701B60156
:100940000E94AF32181694F468E771E08FED92E0E0
:10095000FF90EF90DF90CF90BF90AF909F908F90DF
:100960007F906F905F904F900C94931D2FEF3FEF0F
:100970004FE75FECC701B6010E94BD2F87FDE4CFB2
:1009800020E030E0A901C701B6010E94BD2F87FF1A
:1009900009C08DE20E9405174C01F7FAF094F7F8B0
:1009A000F09402C0812C912CA12C60E070E080E0DA
:1009B0009FE3AB1440F420E030E040E251E40E94B9
:1009C0000E32A394F6CF9B01AC01C701B6010E9481
:1009D000A2312B013C010E9480326B017C010E94FC
:1009E000C22F9B01AC01C301B2010E94A1312B01B6
:1009F0003C014AE0C701B6010E9410177C01E80CD7
:100A0000F91CBB2029F08EE20E940517E80EF91EA2
:100A1000DB2CDD2021F120E030E040E251E4C30195
:100A2000B2010E9423302B013C010E9480324B0115
:100A3000A12CB12C4AE0C501B4010E941017E80EA8
:100A4000F91EC501B4010E94C22F9B01AC01C30174
:100A5000B2010E94A1312B013C01DA94DACFC70127
:100A6000FF90EF90DF90CF90BF90AF909F908F90CE
:100A70007F906F905F904F90089590E0FC01E85157
:100A8000FD4F3491FC01E857FB4F2491FC01EC58D9
:100A9000FB4FE491EE2309F43BC0332339F13330AB
:100AA00091F038F43130A9F0323001F584B58F7D02
:100AB00012C0373091F03830A1F03430B9F4809161
:100AC00080008F7D03C0809180008F7780938000AD
:100AD0000DC084B58F7784BD09C08091B0008F7739
:100AE00003C08091B0008F7D8093B000F0E0EE0FE6
:100AF000FF1FE05AFB4FA591B4918FB7F894EC918A
:100B0000611103C020952E2301C02E2B2C938FBF83
:100B10000895CF93DF9390E0FC01E857FB4F2491B9
:100B2000FC01EC58FB4F8491882361F190E0880F21
:100B3000991FFC01E252FD4FC591D491FC01E05A8E
:100B4000FB4FA591B491611109C09FB7F8948881BA
:100B5000209582238883EC912E230BC0623061F4B0
:100B60009FB7F8943881822F809583238883EC91F6
:100B70002E2B2C939FBF06C08FB7F894E8812E2BA5
:100B800028838FBFDF91CF910895CF93DF93EC013E
:100B900061E08AE00E948905209711F460E004C0BA
:100BA000CF3FD10531F461E08AE0DF91CF910C9421
:100BB0003D05E2EFF2E0E491E330F9F048F4E13092
:100BC000B9F0E230A1F584B5806284BDC8BD34C0FF
:100BD000E730E9F0E83019F1E43049F58091800020
:100BE000806280938000D0938B00C0938A0024C0E1
:100BF00084B5806884BDC7BD1FC0809180008068B7
:100C000080938000D0938900C093880015C08091A4
:100C1000B00080688093B000C093B3000DC0809195
:100C2000B00080628093B000C093B40005C0C038AB
:100C3000D1050CF0B8CFB2CFDF91CF9108958E30AF
:100C400008F08E508770806480937C0080917A00D9
:100C5000806480937A0080917A0086FDFCCF809139
:100C600078002091790090E0922B08952FB7F894A6
:100C700060912102709122028091230290912402BE
:100C80002FBF08951F920F920FB60F9211242F932A
:100C90003F938F939F93AF93BF9380912102909145
:100CA0002202A0912302B09124023091200223E07D
:100CB000230F2D3720F40196A11DB11D05C026E894
:100CC000230F0296A11DB11D2093200280932102C3
:100CD00090932202A0932302B09324028091B60144
:100CE0009091B701A091B801B091B9010196A11DF1
:100CF000B11D8093B6019093B701A093B801B09352
:100D0000B901BF91AF919F918F913F912F910F901A
:100D10000FBE0F901F9018951F920F920FB60F9253
:100D200011242F933F934F935F936F937F938F93F0
:100D30009F93AF93BF93EF93FF93E091B401F09132
:100D4000B501309709F451C0968DA685B785858584
:100D500091FF04C09C91892329F447C09C91892369
:100D600009F043C0A389B4899C9185898095892322
:100D70008C93868997890197F1F7608D718DA6858F
:100D8000B785558538E020E0CB010197F1F7822F38
:100D900090E095958795282F4C91452309F0206880
:100DA000315091F7868D81FD20958091B20190E0C0
:100DB00001968F7399273091B301381749F0A091AC
:100DC000B201B0E0A052BE4F2C938093B20103C099
:100DD000868D8160868F828D938D0197F1F7A3892F
:100DE000B4899C918589892B8C93FF91EF91BF9158
:100DF000AF919F918F917F916F915F914F913F91B3
:100E00002F910F900FBE0F901F901895E091B40195
:100E1000F091B501E817F90769F4A389B4899C91A9
:100E20008589809589238C931092B5011092B40125
:100E300081E0089580E008951F920F920FB60F92FF
:100E400011242F933F934F935F936F937F938F93CF
:100E50009F93AF93BF93EF93FF938091B900887FE7
:100E6000803609F49CC068F5883209F45BC090F4C0
:100E7000803109F454C038F4882309F4F6C088306E
:100E800009F44DC0F6C0883109F44CC0803209F431
:100E90005DC0EFC0803409F468C048F4803309F4C1
:100EA00055C0883309F0E5C080939C02D8C08035D6
:100EB00009F44FC0883509F45DC0883409F0D9C001
:100EC000D6C0883909F4C7C0A8F4883709F467C0C8
:100ED00038F4883609F463C0803709F460C0C9C0AB
:100EE000883809F4B8C0803909F45FC0803809F047
:100EF000C0C05BC0803B09F486C038F4803A09F476
:100F000066C0883A09F47FC0B4C0803C09F4A7C029
:100F1000883C09F4A4C0883B09F48AC0AAC0809127
:100F2000790210C090919B0280919A02981770F5F7
:100F3000E0919B0281E08E0F80939B02F0E0E658E7
:100F4000FD4F80818093BB0085EC86C080939C021E
:100F50008EC0E0919B0281E08E0F80939B02809176
:100F6000BB00F0E0E658FD4F808390919B0280919A
:100F70009A026EC0E0919B0281E08E0F80939B02EB
:100F80008091BB00F0E0E658FD4F808380919D0288
:100F900081116DC081E08093780284EA61C083E0B2
:100FA00080939E021092DF01CFCF8091DF018032CB
:100FB00008F051C0E091DF0181E08E0F8093DF01E6
:100FC0008091BB00F0E0E154FE4F8083BDCF85EC03
:100FD0008093BC0010929E028091DF01803230F439
:100FE000E091DF01F0E0E154FE4F10826091DF01FB
:100FF00070E0E091BD01F091BE018FEB91E00995A9
:101000001092DF0136C084E080939E021092BC01F2
:101010001092B101E091BA01F091BB010995809164
:10102000B101811105C081E08093B101109291015D
:10103000E091BC0181E08E0F8093BC01F0E0EF569F
:10104000FE4F80818093BB009091BC018091B101E3
:10105000981708F479CF85E88093BC000AC085EC26
:101060008093BC0010929E0204C010929C020E94C9
:101070007C18FF91EF91BF91AF919F918F917F91DC
:101080006F915F914F913F912F910F900FBE0F90F5
:101090001F901895CF92DF92EF92FF921F93CF93FC
:1010A000DF9383E394E00E94E10F85EA93E00E94DE
:1010B000811761E082E00E94701687E993E00E9448
:1010C000811762E082E00E94701682E993E00E943C
:1010D000811763E082E00E9470168CE893E00E9422
:1010E0008117C0E0DAE014E180910903843009F44B
:1010F00073C161E083E00E947016809138028823FA
:1011000019F088E893E002C084E893E00E94811718
:1011100080913702811102C040E201C048E561E0E0
:101120008DE00E941F1062E088E00E94701680919E
:1011300036028A3010F40E94DE0F6AE070E080917F
:1011400036020E9453048AE30E94051780913502FB
:101150008A3010F40E94DE0F6AE070E08091350260
:101160000E94530463E088E00E947016809134026C
:101170008A3010F40E94DE0F6AE070E08091340241
:101180000E9453048AE30E940517809133028A303B
:1011900010F40E94DE0F6AE070E0809133020E943A
:1011A0005304C23048F440E262E080E00E941F1025
:1011B00061E080E00E9470168EEF8C0F843060F446
:1011C00040E261E080E00E941F1040E263E080E0C6
:1011D0000E941F1062E008C0C63048F040E262E0A2
:1011E00080E00E941F1063E080E00E9470168EE78E
:1011F0000E940517CC2ED12C8AE0C816D10400F528
:10120000F601E35AFF4F0C94ED3261E083E016C023
:1012100061E08DE013C062E007C062E008C062E0F8
:1012200009C062E00AC063E088E008C063E089E0CA
:1012300005C063E08BE002C063E08CE00E947016A2
:1012400061E080E00E941E1380910903823009F45E
:10125000B9C0833009F4BBC0813009F045CF8AE0C2
:10126000C816D10408F08FC0F601E959FF4F0C945D
:10127000ED329091380281E089278093380283C053
:101280009091370281E08927809337027CC080915A
:1012900036028E3020F4865F8093360274C06D2F44
:1012A0000E94B932909336026EC020913602822F8E
:1012B0006D2F0E94B932993011F4295001C02F5F6F
:1012C0002093360280913602883109F05CC0109379
:1012D000360259C080913502813320F4865F8093B5
:1012E000350251C06D2F0E94B932909335024BC028
:1012F00020913502822F6D2F0E94B932993011F45E
:10130000295001C02F5F209335023DC080913402E7
:101310008E3020F4865F8093340235C06D2F0E949A
:10132000B932909334022FC020913402822F6D2F56
:101330000E94B932993011F4295001C02F5F2093D7
:101340003402809134028831F1F4109334021BC0CE
:1013500080913302813320F4865F8093330213C07F
:101360006D2F0E94B932909333020DC02091330249
:10137000822F6D2F0E94B932993011F4295001C08B
:101380002F5F20933302609138028BE00E945A1B3A
:10139000609136028CE00E945A1B609135028DE00C
:1013A0000E945A1B609134028EE00E945A1B609189
:1013B00033028FE00E945A1B609137028CE10E9439
:1013C0005A1B92CEC93008F08FCECF5F8DCECC2382
:1013D00009F48ACEC15088CE63EB73E080E0DF91E0
:1013E000CF911F91FF90EF90DF90CF900C94D61685
:1013F000CF93DF93C82F8FED92E00E94B81D8EE748
:101400000E94051780E793E00E94811760E08FE05B
:101410000E9470160E94CC166AE070E0C13019F488
:101420008091320202C0809131020E9453040E94D6
:101430009E1B81E080933002D0E0809109038430CC
:10144000F1F160E08FE00E94701661E081E00E949F
:101450001E1380910903813081F7C130A9F4909166
:101460003202953019F41092320203C09F5F9093BC
:1014700032026AE070E0809132020E94530480914F
:1014800032020E94E31B19C0909131029A3019F484
:101490001092310203C09F5F909331026AE070E0C6
:1014A000809131020E94530480910A03811105C08A
:1014B000809131028F5F0E94A31BD1E0BECFDD235C
:1014C00059F0C13021F46091320287E003C060918D
:1014D000310283E10E945A1B80910A03811103C0EB
:1014E0008EE00E944A1610923002DF91CF9108954B
:1014F000DF92EF92FF920F931F93CF93DF93CDB7BD
:10150000DEB72D970FB6F894DEBF0FBECDBFE82E25
:1015100080910A03811102C04C99FECF6BEF73E0FA
:1015200081E00E94D61663E074E082E00E94D61645
:1015300063EF73E083E00E94D6168BE294E00E9492
:10154000E10F63E084E00E94701683E693E00E945E
:10155000811742E063E08BE00E941F1080912F0210
:10156000882319F092E0F92E02C0FF24F3940E9420
:10157000CC1680E5D82E80910903843009F4BFC1D0
:1015800081E0E81282C060E082E00E9470168091E3
:1015900001018A3010F40E94DE0F6AE070E0809151
:1015A00001010E94530480E20E94051780912E02DF
:1015B00090E00197D89EB001D99E700D11248091C2
:1015C0000101680F711D680F711D6E597F4F87E50E
:1015D0000E946E1B6AE070E00E9453048AE30E943E
:1015E000051780912E0290E00197D89EB001D99EF8
:1015F000700D112480910101680F711D680F711D1C
:101600006D597F4F87E50E946E1B8A3020F48D87CD
:101610000E94DE0F8D856AE070E00E94530400E0B6
:1016200010E08091010190E0019720912E02289F07
:10163000B001299F700D11246C597F4F600F711FED
:1016400087E50E946E1B482F61E0802F0E941F10CB
:101650008091010190E0019720912E02289FB00116
:10166000299F700D1124600F711F68587F4F87E507
:101670000E946E1B482F62E0802F0E941F100F5F98
:101680001F4F0431110569F661C082E0E81253C0B2
:101690004C9909C080912F02811105C080910B03E4
:1016A000882309F43CC160E082E00E9470168091BA
:1016B0000B03882329F08DE593E00E94811714C065
:1016C00084E60E94F40E0CE010E09E012F5F3F4F75
:1016D00040E060E082E50E94A715BE016F5F7F4F8A
:1016E0008FED92E00E94931D62E087E00E947016E9
:1016F0004C9B05C080910B03882309F42BC180917A
:1017000000018A3010F40E94DE0F6AE070E08091E0
:1017100000010E9453048FE20E94051780912D0260
:101720008A3010F40E94DE0F6AE070E080912D0292
:101730000E9453040BC083E0E81208C061E080E01F
:101740000E9470168FE493E00E94811760E08FE0A2
:101750000E94701680912F02882329F089E493E07B
:101760000E94811705C045E060E08FE00E941210E2
:101770004C9906C080912F02811102C043E001C044
:1017800041E063E088E00E941F108F2D880F8F0DCD
:1017900063E08B5F0E94701661E081E00E941E137F
:1017A00080910903823009F497C0833009F49EC008
:1017B000813009F0E0CEF816A9F1F81648F082E081
:1017C000F81609F450C083E0F81609F453C0D3CEDC
:1017D00081E0E81207C080910101823008F456C010
:1017E000815052C082E0E81611F0F12CC4CE8091F5
:1017F0000001823018F081508093000180910B032A
:10180000882329F010920B0381E080930C034C9BFA
:10181000ECCF9091000180912E02890F81590E9496
:10182000A31BA9CE4C9919C081E0E81205C0E09233
:101830000B03809101010AC082E0E8120AC0F09215
:101840000C039091000180912E02890F81590E9412
:10185000A31B81E080930A0302C00E94D41B5F98FF
:1018600010922C0288CE80912F024C997DC081115C
:101870007BC081CE81E0E81217C080910101909178
:101880002E02891718F48F5F8093010180910C0359
:10189000882329F010920C0381E080930B034C9B6A
:1018A0006ACE80910101BACF82E0E81264CE8091C5
:1018B000000190912D02891718F48F5F8093000129
:1018C00080910B03882329F010920B0381E0809311
:1018D0000C034C9B50CE9DCF80912F0281114BCE9B
:1018E00082E08F1508F447CEF39445CE80912F0205
:1018F000811141CEFF2009F478CFFA943CCE0E94AA
:10190000CB0F2D960FB6F894DEBF0FBECDBFDF9183
:10191000CF911F910F91FF90EF90DF9008958091EC
:101920002E0290E081599F4F20910001820F911D5E
:1019300000E010E020E030E0482F692F83E00E94B3
:10194000A71584E60E94F40E0E94D41B84E60E9430
:10195000F40EA9CE84E60E94F40E8BE40E942516B4
:10196000875980930001CBCE882329F05E9810928E
:101970002F028DE004C081E080932F028EE00E9450
:101980004A16F9CDCF93809138028823E9F18091EE
:1019900036029091340220917302981730F4C1E01E
:1019A000821768F0291758F009C0891738F4C0E089
:1019B000821728F4291718F4C1E001C0C0E0891388
:1019C00010C05091350230913302351738F04091F4
:1019D0007202451718F0341708F0C1E0381708F400
:1019E000C1E0281307C03091720280913502381788
:1019F00008F0C1E0291309C090917202809133026E
:101A0000981718F4C1E001C0C0E080912B02C817FC
:101A100049F0CC2311F087E401C086E60E94A31BA5
:101A2000C0932B028C2FCF910895CF93DF930E9408
:101A3000FD1AC1E7D2E089830E9480190E940A1A28
:101A4000809118038A83DF91CF9108950E948019B5
:101A50000E940A1A80911C0390E08E54984F909334
:101A60002A02809329020E9480190E940A1A8091FA
:101A70001A03809375020E9480190E940A1A8091AD
:101A80001B038093760263E080E00E9470160E9440
:101A900080190E940A1AE0911903F0E0EE0FFF1F6F
:101AA000E75CFC4F6591749189E392E00E94B32F4B
:101AB00069E372E08FED92E00E94931D63E08AE09B
:101AC0000E9470168091290290912A020E94531759
:101AD0008FE20E940517809176028A3010F40E94EE
:101AE000DE0F6AE070E0809176020E9453048FE27C
:101AF0000E940517809175028A3010F40E94DE0F53
:101B00006AE070E0809175020E9453048091270280
:101B1000909128020A9724F460E082E10C947016F8
:101B200008958FED92E00E94B81D0E94CB0F0E9495
:101B3000260D0C942E1083FD02C098E001C098E29F
:101B40008770892B98E10FB6F894A8959093600060
:101B50000FBE80936000A8958091600080648093A0
:101B6000600080914C02882319F083B7817F0BC0FD
:101B700080914602882321F083B7817F846003C06F
:101B800083B7817F8C6083BF83B7816083BF85B754
:101B9000806685BF8F7D85BF809164008160809362
:101BA0006400889583B78E7F83BF0FB6F894A8959D
:101BB00080916000886180936000109260000FBE89
:101BC000809160008F7B80936000809164008E7FA5
:101BD000809364000895809176029DEF980F98306D
:101BE00008F06DC09CEF980F963008F466C0833003
:101BF00089F5209175024091290250912A0235E021
:101C0000349FC001359F900D112497FD0396959543
:101C1000879595958795049667E070E00E94D93284
:101C20004FE150E0BA01681B790B38E1369FA00103
:101C3000379F500D11244F5F5F4F8091730278E101
:101C4000279F90011124280F311D81E0421753076F
:101C5000BCF135C08A3099F5209175024091290276
:101C600050912A0235E0349FC001359F900D112418
:101C700097FD03969595879595958795019667E0CD
:101C800070E00E94D9324FE150E0BA01681B790B35
:101C900038E1369FA001379F500D11244F5F5F4FF1
:101CA0008091730278E1279F90011124280F311D44
:101CB00081E04217530724F402C081E0089580E0D8
:101CC0000895EF92FF920F931F93CF93DF9388E6CF
:101CD0000E94DC1460E08CEF92E00E9426180E94C3
:101CE0007F1467E070E088E690E00E945C158CEF5E
:101CF00092E00E94DA17C1E7D2E0982F9695969568
:101D000096959E70292F220F220F920F8F70890FA8
:101D100088838CEF92E00E94DA17982F92959F703B
:101D20008F702AE0929F800D112489838CEF92E0BE
:101D30000E94DA17982F9695969596959670292F6A
:101D4000220F220F920F8F70890F8A838CEF92E0FF
:101D50000E94DA17982F92959F708F702AE0929FB9
:101D6000800D11248B838CEF92E00E94DA17982F5C
:101D700092959F708F702AE0929F800D11248C8322
:101D80008CEF92E00E94DA17982F92959F708F70D7
:101D90002AE0929F800D11248D838CEF92E00E94A7
:101DA000DA17982F9F70925E82958F70E92E2AE045
:101DB000829FE00C1124EE82F12C8EE4E81A88EF69
:101DC000F80A0D8110E02C8130E0488150E06981F3
:101DD00070E08A8190E00E94A418DF91CF911F915A
:101DE0000F91FF90EF900895CF93C82F80914C02F0
:101DF000882329F080916400806280936400C7FF8B
:101E000004C083E00E949B0DC857C03420F082E0DC
:101E10000E949B0DCC53C03220F081E00E949B0DAC
:101E2000CE51C03118F080E00E949B0D80914C0291
:101E3000882321F08091640010926400CF9108956E
:101E40008F929F92AF92BF92CF92DF92EF92FF92CA
:101E50006C010E9436064B015C01E12CF12C0E94C2
:101E60003606DC01CB0188199909AA09BB098C1532
:101E70009D05AE05BF0598F3FF90EF90DF90CF90E2
:101E8000BF90AF909F908F900895CF92DF92EF9286
:101E9000FF920F931F93CF93DF93C62F2FB7F89422
:101EA0004091B6015091B7016091B8017091B901AC
:101EB00096B5A89B06C09F3F21F04F5F5F4F6F4FC5
:101EC0007F4F2FBF762F652F542F4427490F511D69
:101ED000611D711D32E0440F551F661F771F3A9533
:101EE000D1F79A01220F331F220F331F42275327A6
:101EF000BA01660F672F661F770B71954627572724
:101F0000BA017695762F662777956795082F10E0AA
:101F10006427752780E090E00E94C22F20E03FEF09
:101F20004FE757E40E940E326B017C01D0E0C01BEA
:101F3000D10BBE01DD0F880B990B0E94C42F9B01B2
:101F4000AC01C701B6010E9423306B017C01B801CE
:101F5000110F880B990B0E94C42F9B01AC01C70184
:101F6000B6010E94A2310E948032862FDF91CF916C
:101F70001F910F91FF90EF90DF90CF9008950E94F6
:101F8000AA1680E090E00E94C50581E08093460299
:101F900010924C0208950F931F93CF9303EB13E01D
:101FA000C0E0B8018C2F0E94D616CF5F085F1F4F8C
:101FB000C830B9F7CF911F910F91089580E30C9429
:101FC0000517EF92FF920F931F93CF93DF938C012E
:101FD00060E48FED92E00E94A81DE3E7F0E0319706
:101FE000F1F7E801085F1F4F8BE9E82EF12C6991AA
:101FF0008FED92E00E94D61CC7010197F1F7C01740
:10200000D107A9F78FED92E00E94B81D80E00E94F1
:10201000051780E2DF91CF911F910F91FF90EF9014
:102020000C940517CF93C42F0E947016CC2329F06F
:1020300080E20E940517C150F9CFCF910895CF9348
:10204000DF931F92CDB7DEB749830E947016498196
:10205000842F0F90DF91CF910C940517CF930E949E
:10206000150D0E94C20C80934F02809173028A303A
:1020700010F460E004C06AE00E94B932682F81E089
:102080000E944D0380917302CAE06C2F0E94B93206
:10209000692F84E00E944D036AE087E00E944D03AF
:1020A000809172028A3010F460E004C06C2F0E94AC
:1020B000B932682F8AE00E944D03809172026AE073
:1020C0000E94B932692F8DE00E944D0343E061E028
:1020D00081E10E94121061E081E10E9470168091FE
:1020E0004E02811104C080914D02811103C088E726
:1020F0000E94051780914C02882319F084E40E9405
:10210000051780913802882349F080914F02882377
:1021100011F08EE401C08EE60E94051780914B02FB
:10212000882341F062E084E00E94701686E594E026
:102130000E94811743E062E081E10E94121062E098
:1021400081E10E94701680914A02882319F084EF81
:102150000E94051780912F02882319F080E70E94C2
:10216000051780914902882319F083E50E9405171D
:1021700080910A03811108C080912C02811104C052
:1021800080914802882319F080E50E94051786E0B7
:102190000E941F069093280280932702C4E08AE0E1
:1021A0000E94F40E86E00E941F06209127023091C3
:1021B0002802820F931F9093280280932702C15018
:1021C00071F765E070E00E94D932072E000C880B91
:1021D000990B0E94C42F20E030E040EA5BE30E94AC
:1021E000233026E636E646E350E40E94A13126EF8E
:1021F0003DEF44E55CE30E940E320E9480321616E9
:10220000170634F4643671052CF063E670E002C002
:1022100061E070E0CB01072E000CAA0BBB0B9C0108
:10222000AD016A337105A4F02953310941095109FF
:10223000ABE5B0E00E9448312AE230E040E050E0F7
:102240000E942931DA01C9010896A11DB11D13C0F0
:102250002150310941095109A7E0B0E00E944831FD
:1022600027E330E040E050E00E942931DA01C90163
:102270000196A11DB11D909328028093270260E072
:1022800081E10E94701680912702909128020A979E
:1022900044F440E260E081E10E941F100E94CC16ED
:1022A00002C00E94C31680912702909128020E94CA
:1022B000531780914702882311F08BE201C085E219
:1022C0000E94051760E082E1CF910C947016CF93C5
:1022D000C82F80912F02811106C04C9904C08091B3
:1022E0000A03811155C18091270290912802181686
:1022F00019060CF0C1E04C990DC080914802811183
:1023000009C080912C02811105C080913002882380
:1023100009F441C180914A02882309F408C18091DF
:102320003002811104C10E94150D909150028091DC
:102330004A029111F3C0882309F4F9C020914502A3
:10234000909172022913EAC0209144029091730285
:102350002913E4C08091460281110E94B516809134
:102360004C02882321F08FED92E00E94B01D5E9810
:102370006BE374E080E00E94D6168FED92E00E943D
:10238000B81D0E94C31660E087E00E94701680911D
:1023900073028A3010F40E94DE0F6AE070E08091D0
:1023A00073020E9453048AE30E940517809172020F
:1023B0008A3010F40E94DE0F6AE070E080917202B1
:1023C0000E94530463E085E00E9470168BE494E061
:1023D0000E94811781E08093300280912C0281114C
:1023E0005F9880914302813051F49091480291119D
:1023F00006C090910A03911102C080934802109286
:10240000090380910903843009F44CC0909145027E
:1024100080917202981346C040E062E085E00E941D
:102420001F1083E494E00E94811780E00E9405174A
:1024300081E00E946711809309038FEF90E00E9472
:10244000C50580914302882341F080910A038111E0
:1024500004C080912F02882321F0809132020E94D3
:10246000E31B80914302823039F44C9905C080917E
:102470000A03882309F493C084EF91E00E94571364
:1024800049E062E085E00E94121080E090E00E9446
:10249000C50584EF91E00E9457130E94FD1A8093B6
:1024A0007202AFCF80910A03811104C08EE00E94B6
:1024B0004A1608C080914302813021F480912C0299
:1024C00081115F9A109230029091450280917202C0
:1024D000981309C09091440280917302981303C02D
:1024E00081E0809350028FED92E00E94B81D8091B0
:1024F0004602882331F080914802811102C04C9B32
:1025000054C08091460281110E94AA1680914C020B
:1025100081110E9465160E94910D1FC0882339F019
:1025200090914502809172029813109250028EE0B1
:102530000E941F06893C910508F07CC087399105EF
:10254000B0F182E30E94F40E8EE00E941F068739EC
:1025500091050CF467C04C9B02C0C4E017C0809189
:1025600049028111FACFC111F8CF80912F02811158
:10257000F4CF65E081E00E94450FC82F843069F7F1
:102580006DE38FE10E94450F0E94A31B8C2F54C066
:1025900010920A03A8CE5E9A0E94610EBBCE809173
:1025A00031028F5F0E94A31B67CF5E9AAACF853648
:1025B000910550F082E30E94F40E8EE00E941F0607
:1025C000853691059CF52EC0C39748F082E30E94A2
:1025D000F40E8EE00E941F06C39754F523C082E3D9
:1025E0000E94F40E8EE00E941F0618161906D4F4FD
:1025F0004C9916C080914902811112C0C11110C0BE
:1026000080912F0281110CC068E081E00E94450F8B
:10261000843031F46FE18BE00E94450F0E94A31BD0
:10262000C1E0B4CF82E30E94F40E06C0C3E0AECF97
:10263000C2E0ACCFC0E0AACFCF910895CF92DF9295
:10264000EF92FF921F93CF93DF93C82FD62F0E9454
:1026500036066B017C0120E6C20E2AEED21EE11C7A
:10266000F11C1092090314E090910903911115C017
:102670008C2F0E94671180930903D11104C088E751
:102680000E94F40EF1CF0E943606C616D706E80661
:10269000F90650F710930903E7CF82E3DF91CF915A
:1026A0001F91FF90EF90DF90CF900C94F40E8F92DB
:1026B0009F92AF92BF92CF92DF92EF92FF926C0106
:1026C0000E9436064B015C01E12CF12C0E9436067B
:1026D000DC01CB0188199909AA09BB098C159D0554
:1026E000AE05BF0528F481E00E946711843071F7C0
:1026F00081E00E946711843011F480930903FF90F8
:10270000EF90DF90CF90BF90AF909F908F90089503
:102710008F929F92AF92BF92CF92DF92EF92FF92F1
:102720000F931F93CF93DF93142FE9014B01A12C3B
:10273000B12C9C0140E050E060E079E08DE390E056
:102740000E94073169017A0181E0C81AD108E108C5
:10275000F108C114D104E1E0EE06F10458F0CD2CEB
:10276000DE2CEF2CFF24F1E0CF1AD108E108F108AC
:1027700004E001C001E081149104A104B10479F0E6
:102780000E943606860E971EA81EB91E809212035E
:1027900090921303A0921403B09215030BC08FEF15
:1027A0009FEFDC018093120390931303A093140313
:1027B000B093150380910F03811122C0E3E9F4E087
:1027C000849180930F036FE774E0FB019491E92FEC
:1027D000F0E0EE0FFF1FE05AFB4F2591349130934C
:1027E000110320931003FB016491E62FF0E0EE0F3C
:1027F000FF1FE252FD4FA591B491EC918E2B8C936B
:10280000D0928700C09286008091840090918500CC
:10281000A0E0B0E0C816D906EA06FB0620F4D09284
:102820008500C092840000610093810080E1809364
:10283000800080916F00826080936F0011110FC043
:10284000CE01DF91CF911F910F91FF90EF90DF901C
:10285000CF90BF90AF909F908F900C94200F80915D
:102860000903843079F0CE01DF91CF911F910F9150
:10287000FF90EF90DF90CF90BF90AF909F908F90A0
:102880000C945713DF91CF911F910F91FF90EF9010
:10289000DF90CF90BF90AF909F908F9008958F92D0
:1028A0009F92AF92BF92CF92DF92EF92FF92CF931F
:1028B000DF936B017C010E9436064B015C0180ECCA
:1028C00092E00E941203EC01892B69F40E94360603
:1028D000AB01BC01481959096A097B094C155D0512
:1028E0006E057F0560F3CE01DF91CF91FF90EF90F1
:1028F000DF90CF90BF90AF909F908F9008952091E0
:10290000F80290910803213208F04AC080919E029B
:102910008111FCCF32E030939E0231E030939D0272
:102920003FEF30939C0210929B0220939A02A0EA00
:10293000B2E04AE752E0FA013E2F341B321718F496
:102940003D913193F9CF1092790220917902990F3C
:10295000922B9093790290917802913061F41092C9
:102960007802909179029093BB009091BC0093FD06
:10297000F8CF95EC01C095EE9093BC0090919E022B
:102980009230E1F390919C029F3F79F080919C02FC
:10299000803241F080919C02803331F084E005C0A8
:1029A00081E003C082E001C083E01092F90210923E
:1029B000F80210929F02089591E090939F028093F5
:1029C00008031092F9021092F80208950F931F93D2
:1029D000CF9388E60E94DC1460E08CEF92E00E94C6
:1029E000261801E712E0F8018081CAE06C2F0E94EE
:1029F000B932692FF0E18F9F600D11248CEF92E0C6
:102A00000E942618F80181816C2F0E94B932692F2B
:102A1000F0E18F9F600D11248CEF92E00E94261848
:102A2000F80182816C2F0E94B932692FF0E18F9FEB
:102A3000600D11248CEF92E00E942618F80183812A
:102A40006C2F0E94B932692FF0E18F9F600D112425
:102A50008CEF92E00E942618F80184816C2F0E946E
:102A6000B932692FF0E18F9F600D11248CEF92E055
:102A70000E942618F80185816C2F0E94B932692FB7
:102A8000F0E18F9F600D11248CEF92E00E942618D8
:102A9000F80186818E516C2F0E94B932692FF0E1C6
:102AA0008F9F600D11248CEF92E00E942618CF9129
:102AB0001F910F910C947F1490919E029111FCCF65
:102AC000613208F060E291E090939E0290939D0243
:102AD0002FEF20939C0210929B02260F20939A02C4
:102AE0009093790290917902880F892B80937902D3
:102AF00080917802813061F410927802809179029D
:102B00008093BB008091BC0083FDF8CF85EC01C0B1
:102B100085EE8093BC0080919E028130E1F380912C
:102B20009B02861710F460919B02AAE7B2E021E5B0
:102B300032E0F9018E2F821B861718F48D91819354
:102B4000F9CF1092FB026093FA02862F0895CF927C
:102B5000DF92EF92FF920F931F93CF93DF93E82EB4
:102B6000C62ED42EE901EDEFE80FE03128F4F0E0B5
:102B7000E45FFE4FF08001C0F12C6AE070E080E07D
:102B800090E00E944F14892B29F080EC92E00E9483
:102B90002A03F3CF6EE780EC92E00E94BE0262E06F
:102BA0006F0D80EC92E00E94BE026E2D80EC92E0F0
:102BB0000E94BE02FF2069F06C2D80EC92E00E9422
:102BC000BE0282E0F81205C06D2D80EC92E00E94FA
:102BD000BE026FEE80EC92E00E94BE02209749F0A8
:102BE0000115110531F0A80160E070E0CE010E94EE
:102BF000F83268EE73E080E090E00E944F14E12C20
:102C0000F12C0150110962E370E080E090E00E9435
:102C10004F14892B89F080EC92E00E942A032097C0
:102C200091F3E016F10678F7FE01EE0DFF1D8083AB
:102C3000C70101967C01E7CFDF91CF911F910F91E2
:102C4000FF90EF90DF90CF9008950F931F93CF9355
:102C5000DF9300D000D01F92CDB7DEB705E010E0C3
:102C60009E012F5F3F4F40E060E00E94A71540E1CA
:102C700050E060E070E0CE0101960E94982ECB01FA
:102C80000F900F900F900F900F90DF91CF911F91A9
:102C90000F9108950F931F9300E010E020E030E0C3
:102CA00040E060E00E94A7151F910F9108950F93D7
:102CB0001F9300E010E020E030E040E0682F81E169
:102CC0000E94A7151F910F910895E091DF02F091E6
:102CD000E0020084F185E02D60E08FED92E0099440
:102CE000CF93DF93CDB7DEB728970FB6F894DEBF4A
:102CF0000FBECDBF1D8290E49E8324E12F8324E587
:102D0000288719829A8390E19B8390E59C83909118
:102D1000E602691710F06FEF690F4091E702262F66
:102D200030E0FE01E20FF31F403121F4943011F442
:102D3000918101C09581682F690F60688FED92E0E5
:102D400028960FB6F894DEBF0FBECDBFDF91CF91AE
:102D50000C94A81D0E946516EFEDF2E065816B7F73
:102D600065836860CF010C94A81DEFEDF2E06581EA
:102D7000862F846085836C60CF010E94A81D8FED33
:102D800092E00C94B01DEFEDF2E065816E7F6583FB
:102D90006860CF010C94A81DEFEDF2E06581862FED
:102DA000816085836960CF010C94A81DEF92FF922A
:102DB0000F931F93CF93DF93EB01877098E0899F68
:102DC000B001112460648FED92E00E94A81D83E79A
:102DD00090E00197F1F78E01085F1F4F8BE9E82E15
:102DE000F12CFE0164918FED92E00E94D61CC70188
:102DF0000197F1F72196C017D10799F7DF91CF918D
:102E00001F910F91FF90EF900895E091DF02F091F4
:102E1000E0020190F081E02D682F8FED92E009949F
:102E20008F929F92AF92BF920F931F93CF93DF9396
:102E3000CDB7DEB7A1970FB6F894DEBF0FBECDBFFA
:102E400019A2423008F44AE08E010F5D1F4F842E14
:102E5000912CA12CB12CA50194010E940731E62FE1
:102E6000B901CA0101501109EA3014F4E05D01C052
:102E7000E95CD801EC93232B242B252B61F7B801B7
:102E80008FED92E00E94931DA1960FB6F894DEBFDD
:102E90000FBECDBFDF91CF911F910F91BF90AF902B
:102EA0009F908F900895CF92DF92EF92FF92CF93F1
:102EB000DF936C01990FEE08FF08F7FE17C08DE253
:102EC0000E940517EC0166277727CB016C197D0955
:102ED0008E099F094AE00E9410178C0F9D1FDF91F9
:102EE000CF91FF90EF90DF90CF9008954AE0C70117
:102EF000B601DF91CF91FF90EF90DF90CF900C94CF
:102F000010170F931F93CF93DF938C01C0E0D0E095
:102F1000F801EC0FFD1F6491662371F0E091DF0270
:102F2000F091E0020190F081E02D8FED92E00995A3
:102F3000892B11F02196ECCFCE01DF91CF911F911B
:102F40000F9108954091B101262F30E0240F311DDB
:102F500021323105DCF420919E022430C9F4FC01B9
:102F600080E090E0861758F43091B1012191DC01A6
:102F7000AF56BE4FA30FB11D2C930196F3CF809196
:102F8000B101680F6093B10180E0089581E0089578
:102F900082E008950895E091FB028091FA02E8171B
:102FA00030F4F0E0EF5AFD4F808190E008958FEF0C
:102FB0009FEF08959091FB028091FA02981750F4C8
:102FC000E92FF0E0EF5AFD4F208130E09F5F9093B2
:102FD000FB0202C02FEF3FEFC90108958091FA0272
:102FE00090E02091FB02821B91090895CF92DF921D
:102FF000EF92FF920F931F93CF93DF937C01262FC5
:10300000972F8A0180919F02882391F0C62FD72F96
:103010006E01C40ED51ECC15DD0571F06991D70186
:10302000ED91FC910190F081E02DC7010995F3CF5E
:10303000642F822F0E94A217C801DF91CF911F91A8
:103040000F91FF90EF90DF90CF900895CF93DF9393
:103050001F92CDB7DEB7698320919F022223D1F062
:103060002091F802203240F021E030E0FC0133836F
:10307000228380E090E015C08091F902E82FF0E013
:10308000E056FD4F998190838F5F8093F902809382
:10309000F80205C061E0CE0101960E94A21781E00E
:1030A00090E00F90DF91CF91089560932D0370937E
:1030B0002E0380932F0390933003DC01CB01845DBA
:1030C0009E4FAF4FBF4F8093290390932A03A09345
:1030D0002B03B0932C0382E090E09093280380931D
:1030E00027030E9436066093230370932403809382
:1030F000250390932603089585ED8093BC0080916D
:10310000BC0084FDFCCF10929E02089510929E0296
:1031100081E080939D021092780261E082E10E943A
:103120003D0561E083E10E943D05E9EBF0E080812F
:103130008E7F808380818D7F808388E48093B80038
:1031400085E48093BC0008953F924F925F926F9206
:103150007F928F929F92AF92BF92CF92DF92EF9227
:10316000FF920F931F93CF93DF93382E962E842ECA
:10317000F90184E6E816F1042CF082EBE81A87E006
:10318000F80A03C08EE1E80EF11CE0921C030093E4
:103190001B03E0931A033092180390921703809256
:1031A0001603AE2DB0E020E833E341EE51E00E947B
:1031B00048312B013C0122EB37E0FF2484E6C82E86
:1031C000D12CC0E9D1E0C901825B97408E159F05E3
:1031D000DCF4C90183709927892B99F4C901B601E0
:1031E0000E94D932892B31F4C901BE010E94D93223
:1031F000892B39F480E8480E81E5581E81E0681E6D
:10320000711C2F5F3F4FDFCF8EE4E81A88EFF80A7A
:10321000C70164E670E00E94D9326C01C70160E921
:1032200071E00E94D9325C01C1E0D0E0112783E057
:10323000E822FF24C017D1072CF5C230D10589F44C
:10324000E114F10471F4C114D10419F4A114B1040E
:1032500041F480E8480E8BE3581E86E2681E711C1C
:103260000FC0DE01A55ABE4FAC91B0E020E831E5B9
:1032700041E050E00E944831460E571E681E791EFC
:103280002196D8CF292D30E0ACE3B0E00E949231F6
:103290006B017C01C80CD11CE11CF11C232D30E01A
:1032A000A0E1BEE00E949231C60ED71EE81EF91EB4
:1032B000DF01BB27119720E831E541E050E00E9493
:1032C0005331DC01CB018C0D9D1DAE1DBF1DBC011A
:1032D000CD01640D751D861D971DDF91CF911F9146
:1032E0000F91FF90EF90DF90CF90BF90AF909F90A5
:1032F0008F907F906F905F904F903F900C945518F7
:10330000CF92DF92EF92FF920F931F930E943606A7
:10331000C0902303D0902403E0902503F09026036F
:103320008B019C010C191D092E093F0980912D0369
:1033300090912E03A0912F03B0913003083E1340CB
:1033400021053105D0F00196A11DB11D80932D03FB
:1033500090932E03A0932F03B0933003B701A601DF
:1033600048515C4F6F4F7F4F40932303509324038A
:103370006093250370932603C9CF40912903509190
:103380002A0360912B0370912C0384179507A607DD
:10339000B70788F1E0912103F0912203309759F1AA
:1033A0000995611571058105910519F00E9455185F
:1033B00022C080912D0390912E03A0912F03B091F4
:1033C0003003845D9E4FAF4FBF4F8093290390938E
:1033D0002A03A0932B03B0932C0381E090E020916B
:1033E000270330912803232B11F480E090E0909381
:1033F00028038093270360912D0370912E03809101
:103400002F03909130031F910F91FF90EF90DF9069
:10341000CF9008954F925F926F927F928F929F927A
:10342000AF92BF92CF92DF92EF92FF920F931F93D2
:10343000CF93DF934B015C0180911D0390911E039C
:10344000A0911F03B091200388169906AA06BB0617
:1034500009F4C2C08CE3C82ED12CE12CF12CC5019B
:10346000B401A70196010E94073160931603CA01B7
:10347000B901A70196010E94073160931703CA01A1
:10348000B90128E130E040E050E00E9407316901D5
:103490007A0160931803CA01B9016C5F7F4F8F4FA7
:1034A0009F4F27E030E040E050E00E9407316F5F1F
:1034B00060931903412C512C320140E004E610E0E6
:1034C000C0E9D1E0242F30E02E54384FF901E370E9
:1034D000FF27309789F4C901B8010E94D932892B9E
:1034E00031F4C901BE010E94D932892B29F48EE63C
:1034F00091E0A0E0B0E004C08DE691E0A0E0B0E093
:10350000480E591E6A1E7B1ED301C201AA27BB2783
:10351000C816D906EA06FB0610F04F5FD3CF4093DA
:103520001C03309799F4C90164E670E00E94D93217
:10353000892B39F4C90160E971E00E94D932892BE5
:1035400029F48EE691E0A0E0B0E004C08DE691E0C1
:10355000A0E0B0E0481A590A6A0A7B0AC418D508E4
:10356000E608F708C90164E670E00E94D932EC0170
:10357000C90160E971E00E94D932ACE5B1E020E018
:10358000213039F4309749F4209729F4009729F431
:1035900002C04C9103C04DE101C04CE150E060E03D
:1035A00070E0C416D506E606F70640F0C41AD50A40
:1035B000E60AF70A2F5F11962C3011F72F5F209340
:1035C0001B03C394C0921A0380921D0390921E03A2
:1035D000A0921F03B0922003DF91CF911F910F9112
:1035E000FF90EF90DF90CF90BF90AF909F908F9023
:1035F0007F906F905F904F9008950E9480190E9475
:103600000A1A8091170390E008951F920F920FB647
:103610000F9211240F931F932F933F934F935F9318
:103620006F937F938F939F93AF93BF93EF93FF938A
:103630000E94360600911203109113032091140387
:10364000309115036017710782079307B8F08091D6
:103650006F008D7F80936F0082E08093810081E016
:1036600080938000E0911003F0911103908180918C
:103670000F0380958923808310920F03E09110033C
:10368000F0911103908180910F0389278083FF912E
:10369000EF91BF91AF919F918F917F916F915F91CA
:1036A0004F913F912F911F910F910F900FBE0F904F
:1036B0001F90189520910D0330910E03A901480F1A
:1036C000511DCA010C94E93020910D0330910E0375
:1036D000A901480F511DCA010C94E1300F931F93AB
:1036E000CF93DF931F92CDB7DEB7182F062F7983C4
:1036F0000E94DC1469818CEF92E00E942618602FF2
:103700008CEF92E00E9426180E947F1461E070E026
:10371000812F90E00E945C159091FA028091FB024B
:10372000981729F08CEF92E00E94DA1701C08FEF12
:103730000F90DF91CF911F910F9108955E9886E4CD
:1037400090E00C94200F0F931F93CF93DF931F9261
:10375000CDB7DEB789830E949E1B00E010E020E019
:1037600030E08981482F60E083E00E94A71584E65D
:103770000E94F40E80910C03882319F081E00E94CE
:10378000571680910B03882349F000E010E020E0F9
:1037900030E040E064E081E10E94A7150F90DF91E6
:1037A000CF911F910F9108958EE00E944A1684E6F2
:1037B0000E94F40E10920B0310920C0310920A0355
:1037C00084E00C945716CF93823009F478C038F413
:1037D000882329F1813009F0B9C0CAE061C0843082
:1037E00009F48FC008F473C0853009F0AFC028EC2D
:1037F00030E041E068EC70E088E592E00E948813D8
:1038000028EC30E041E068EC70E084EF91E00E9449
:1038100088132CE231E041E068EC70E092C02DE4C6
:1038200031E041E06AEF70E086E091E00E948813A9
:1038300027EA30E041E06DE770E084EC90E00E9420
:10384000881327EA30E041E06DE770E084EC90E017
:103850000E9488132DE431E041E06AEF70E08CEDC6
:1038600090E00E9488132AE932E041E06AEF70E0BC
:1038700084EC90E00E9488132DE431E041E06AEF8F
:1038800070E087EF90E00E9488132DE431E041E082
:103890006AEF70E086E091E056C0C15009F456C06E
:1038A00024E630E041E062E370E088EB91E00E94C2
:1038B000881380910903843081F7C0E0EECF24EFB4
:1038C00031E041E068EC70E088EB91E03CC024E638
:1038D00030E041E064E670E088E592E00E94881301
:1038E00024E630E041E064E670E08CEB92E00E9478
:1038F00088132CE231E041E064E670E080E293E07E
:1039000022C024E630E041E060E570E088E592E026
:103910000E94881324E630E041E060E570E080E931
:1039200091E00E94881324E630E041E060E570E019
:1039300084EF91E00E94881328EC30E041E060E5DC
:1039400070E080E991E0CF910C948813CF910895B5
:103950000F931F93CF93DF93EC018C01065F1F4FF2
:10396000C017D10750F4BE0180E50E946E1B803263
:1039700011F00E9405172196F3CFDF91CF911F918F
:103980000F91089521E001C0220F6A95EAF7DC014A
:103990001C962C931C971A965C934E931997ED9155
:1039A000FC910084F185E02D60E00994DC01ED914B
:1039B000FC910284F385E02D41E0099581E090E0DF
:1039C000089508950895CF93DF93FC012381222366
:1039D00091F0EC01818180956823608382810E944F
:1039E000DC1468818CEF92E00E9426180E947F14FC
:1039F000282F30E002C020E030E081E090E0232B6F
:103A000011F080E090E0DF91CF910895EF92FF9266
:103A10000F931F93CF938C01FC01759684E0C0E057
:103A200060FF02C09081C92B66958150319681114B
:103A3000F7CF413011F4F8014489F8018585C82B8E
:103A4000C42B7801FEE0EF0EF11CF80162896C2BAB
:103A5000C7010E94E31CF801628960956C23C701CD
:103A6000CF911F910F91FF90EF900C94E31C0F9357
:103A70001F93CF93DF93062F0F70423019F440E06D
:103A8000602F10C0142F262FEC0130E0B90184E024
:103A9000759567958A95E1F7CE010E94061D412F25
:103AA000602FCE01DF91CF911F910F910C94061DD5
:103AB000FC0184858823A9F02185328521153105F3
:103AC00019F4611106C007C02130310521F46111DC
:103AD00002C0858701C015866585CF010E960C94BE
:103AE000E31C08951F920F920FB60F9211248F932B
:103AF000EF93FF930FB6F894A895809160008861CA
:103B000080936000109260000FBEA895E0E6F0E0A0
:103B100080818F7B8083FF91EF918F910F900FBEFB
:103B20000F901F9018956115710579F0FB010190B8
:103B30000020E9F73197AF01461B570BDC01ED91EF
:103B4000FC910280F381E02D099480E090E00895DB
:103B5000DC01ED91FC910284F385E02D40E00994B5
:103B6000DC01ED91FC910084F185E02D6FEF09946B
:103B700061E00E94A81D8BE39FE10197F1F7089592
:103B8000CF92DF92EF92FF920F931F93CF93DF9329
:103B9000EC01423018F08C8188608C834F836887F9
:103BA000222329F0413019F48C8184608C830E9497
:103BB00036066B017C010E943606DC01CB018C19B4
:103BC0009D09AE09BF0984369105A105B10598F399
:103BD0006C8164FD31C0E881F9810284F385E02DB8
:103BE00042E063E0CE0109958BE496E40197F1F79A
:103BF000E881F9810284F385E02D42E063E0CE01A3
:103C0000099503E512E0C8010197F1F7E881F98110
:103C10000284F385E02D42E063E0CE010995C801FE
:103C20000197F1F7E881F9810284F385E02D42E004
:103C300062E0CE01099517C06062CE010E94A81D06
:103C40008BE496E40197F1F76C816062CE010E94EB
:103C5000A81D03E512E0C8010197F1F76C816062CD
:103C6000CE010E94A81DC8010197F1F76C81606226
:103C7000CE010E94A81D8BEE90E00197F1F784E041
:103C80008D836CE0CE010E94A81DCE010E94B81D5C
:103C900082E08E8366E0CE010E94A81DCE01DF91F6
:103CA000CF911F910F91FF90EF90DF90CF900C94E8
:103CB000B01DFF920F931F93CF93DF93EC01162F4C
:103CC000042FF22E8B85888B1092FB021092FA0241
:103CD0001092F9021092F8020E94861888890E94B8
:103CE000DC140E947F1491E0811190E0998B99235C
:103CF00029F08CEF92E00E94DA178E878989882359
:103D000039F01F861C8260E0CE010E960E94E31CF3
:103D10002F2D402F612FCE01DF91CF911F910F9159
:103D2000FF900C94C01DCF92DF92EF92FF920F9301
:103D30001F93E82FF92F05C00150110921093109FE
:103D400061F1908196239417B9F305C001501109D0
:103D50002109310911F1908196239413F7CFC12CD9
:103D6000D12CE12CF12C0AC08FEFC81AD80AE80A2E
:103D7000F80A0C151D052E053F0579F08081862374
:103D8000841791F36C2D7D2D8E2D9F2D1F910F91FA
:103D9000FF90EF90DF90CF90089560E070E080E0BA
:103DA00090E01F910F91FF90EF90DF90CF900895DA
:103DB000CF93DF9300D000D01F92CDB7DEB77894B9
:103DC00084B5826084BD84B5816084BD85B5826020
:103DD00085BD85B5816085BD80916E0081608093D1
:103DE0006E0010928100809181008260809381003A
:103DF000809181008160809381008091800081604A
:103E0000809380008091B10084608093B1008091A4
:103E1000B00081608093B00080917A0084608093CC
:103E20007A0080917A00826080937A0080917A0093
:103E3000816080937A0080917A00806880937A0014
:103E40001092C1001CBC80E880BF8FE380937E008D
:103E5000809164008460809364008091640082603B
:103E6000809364008091640080648093640088EC97
:103E70008AB98CE284B98EE387B980E48BB981E09A
:103E800088B91092DB021092DA021092D9021092D5
:103E9000D8021092D7021092D6028DE991E0909349
:103EA000DD028093DC029091CC02963108F057C07D
:103EB0002DEB30E03093D7022093D6022BE931E08E
:103EC0003093D9022093D8022CE231E03093DB0208
:103ED0002093DA0220916800983050F031E09E3053
:103EE00008F430E081E001C0880F3A95EAF701C09C
:103EF00084E0822B80936800983038F09E3040F048
:103F0000963148F020E030E008C02DE630E005C0F2
:103F10002BE630E002C02CE630E03093D402209350
:103F2000D302983030F481E001C0880F9A95EAF707
:103F30000EC0292F30E09E3018F42850310902C0FD
:103F40002E50310981E001C0880F2A95EAF780934D
:103F5000D5028091DC029091DD020197F1F780910A
:103F6000DA029091DB02892B21F18091B4019091CA
:103F7000B50122E0803C9207E1F0009711F00E9429
:103F800006078091DE028E7F8093DE021092B201DE
:103F90001092B30180EC92E09093B5018093B4014C
:103FA000E091D302F091D40290818091D502892BC7
:103FB00080838EE00E944A168CE00E944A1684EFAD
:103FC00091E00E94200F00E010E020E030E040E0AF
:103FD0006EE186E00E94A71584E00E94571680E0FB
:103FE00090E00E94E1303EE1839FC0011124909354
:103FF0000E0380930D0381E00E94641B91E0811108
:1040000001C090E09093490282E00E94641B80937B
:10401000900183E00E94641B91E0811101C090E057
:1040200090934A0284E00E94641B8093450285E0DD
:104030000E94641B8093440286E00E94641B80936C
:10404000430287E00E94641B8093320288E00E9452
:10405000641B80934D0289E00E94641B80938F0152
:104060008AE00E94641B91E0811101C090E090936E
:104070008E018BE00E94641B91E0811101C090E0F1
:10408000909338028CE00E94641B809336028DE08E
:104090000E94641B809335028EE00E94641B809313
:1040A00034028FE00E94641B8093330280E10E94FF
:1040B000641B91E0811101C090E090938D0181E13A
:1040C0000E94641B182F82E10E94641B282F30E09D
:1040D000C9014AE0149F800D911D112490938C0119
:1040E00080938B0183E10E94641B80933102B5E8C9
:1040F000EB2EB1E0FB2E15E1812F0E94641B082FEF
:1041000081E0810F0E94641B282F30E0C9016AE022
:10411000069F800D911D1124F701819391937F01DA
:104120001E5F1B3149F78BE10E94641B91E08111F6
:1041300001C090E0909384018CE10E94641B91E0A7
:10414000811101C090E09093370260E070E087E554
:104150000E946E1B8093830161E070E087E50E94FE
:104160006E1B8093820162E070E087E50E946E1B07
:1041700080932E0288E60E94DC1468E671E08CEFE2
:1041800092E00E94931D0E947F1484E10E94F40E2D
:1041900088E60E94DC146BE671E08CEF92E00E94EE
:1041A000931D0E947F140E94610E20E044E064E1B0
:1041B0008FED92E00E94591E0E94CB0F84E190E0A7
:1041C0000E94E130182F8A3008F045C08FED92E050
:1041D0000E94B81D8CEC92E00E94811746E561E0D8
:1041E00084E00E941F1080E090E00E9453178EE24E
:1041F0000E940517812F6AE00E94B932892F90E052
:104200000E94531786EC92E00E94811781E090E0B3
:104210000E9453178EE20E94051780E090E00E94F2
:10422000531764E084E00E9470168BEB92E00E94CA
:10423000811745EF64E08BE00E941F106AE084E183
:1042400090E00E94E93060E081E00E941E138FED53
:1042500092E00E94B81D0E949E1B20E530E040E0E5
:1042600060E570E088E592E00E94881326E930E07E
:1042700040E066E970E080E793E00E9488135E9A70
:104280000E94150D0E94C20C80932B0287E40E94AD
:10429000251690912E02891B8F5680932D02F3E6EE
:1042A000FC8323E62B83CE0101961C010E94150D91
:1042B00087E00E941F068132934024F080914702DC
:1042C000882351F087E00E941F068032934004F556
:1042D000809147028823E1F09091470281E089278D
:1042E0008093470287E00E941F068032934014F0BB
:1042F0000C94E92B80914C02882311F40C94E92B47
:1043000080918E01882311F40C94E92B0E94BF0F39
:10431000809172022B81281709F4D3C180914F023A
:104320008823E1F0809137028823C1F08091460212
:10433000811114C080918E01882339F08091470249
:10434000811103C00E94BF0F09C080914C028111EE
:1043500005C00E94651681E080934C021092810195
:10436000809173023C81381709F4E0C080914602C5
:10437000811179C00E94260D909182018091760270
:1043800098136DC09091830180917502981367C056
:1043900081E080934B0280918001811164C0809103
:1043A0004F02811160C063E274E00E94D6168091D2
:1043B0002C0281115F9880914902811107C0809180
:1043C0000A03811103C08FE60E94A31B80ED97E0D2
:1043D0000E94200F0E94FD1A7C01FF240E94FD1AFA
:1043E000E816F90621F04C9902C00C94012C80913A
:1043F0000903843011F40C94012C8FED92E00E949B
:10440000B81D61E087E00E9470168BEE90E00E947C
:10441000811762E086E00E94701682EE90E00E94B2
:10442000811765E081E00E94450F182F112391F05C
:1044300064E180E00E94450F40E060E00E941F10B0
:1044400064E180E00E94450F40E063E00E941F109D
:104450001150ECCF84EF91E00E945713BFCF109220
:10446000800110924B0210918D010E94EB0D1817E4
:1044700009F45CC080917302843008F457C01123A2
:1044800011F40C94132C81508093730281E0D12E8F
:10449000D826D0928D01E0902902F0902A02009156
:1044A000760210E02091750230E04091710250E0F8
:1044B0006091720270E08091730290E00E94A418F3
:1044C00080912902825B809377020E94E61480919A
:1044D0000D036D2D805F0E945A1B00910D031091FA
:1044E0000E030E3D43E0140711F40C94162C025EEB
:1044F0001F4FFF24F39480910D038F0D0E94641BC6
:10450000682F8F2D800F0E945A1BF3946EE1F612D4
:10451000F2CF10930E0300930D03C8016EE170E01B
:104520000E94C53280E090E00E94E930809146020E
:10453000811102C00E942E1080914F028111C1C0D2
:10454000809149028111BDC080912702909128027B
:104550000A977CF48091470281110BC00E949E1B38
:1045600020E530E040E060E570E088E993E00E94FB
:1045700088134C99A6C080912F028111A2C080910E
:10458000480281119EC080912702909128020297D3
:104590000CF497C0E0918F01F0E0EE5FFE4F1081C8
:1045A00061E0610F81E00E94450F81138AC06CE0D9
:1045B00080E00E94450F182F8091460281111AE079
:1045C0000E94C316183010F00C94462C80914C02B7
:1045D00081110C941A2C153020F48FED92E00E947A
:1045E000B81D812F90E0FC013197E730F10510F400
:1045F0000C94522C6AE180E00E94450FE0E58E9F0A
:10460000C00111248C01005B194BF12CB80180E52D
:104610000E946E1B482F60E08F2D0E941F10B80172
:104620006C5E7F4F80E50E946E1B482F61E08F2DEE
:104630000E941F10B801685D7F4F80E50E946E1BCD
:10464000482F62E08F2D0E941F10B801645C7F4FDD
:1046500080E50E946E1B482F63E08F2D0E941F1083
:10466000F3940F5F1F4FF4E1FF12D0CF0E949E1B07
:1046700026E930E040E060E570E080E793E00E94EA
:10468000881320E931E040E060E971E080E793E0E1
:104690000E9488135E9A61E081E00E941E130E94CE
:1046A000910D80914C02882361F08091380288231B
:1046B00011F40C944E2C80914F02882311F40C9429
:1046C0004E2C8091460281117CC080914E02811156
:1046D00078C080914D02882309F473C02D988FE033
:1046E00090E00197F1F72D9A83E290E00197F1F7BE
:1046F0002D98E4E9F4E06491E0E8F4E0E491F0E07E
:10470000EE0FFF1FE659FB4F8591949100E412E4F0
:104710002FE030E0462F0E94931E61157105810540
:10472000910549F0DC01CB010196A11DB11DBC0131
:10473000CD019F7003C060E070E0CB0110914D028D
:104740002AE330E040E050E00E9407316AE0169F23
:10475000C0011124092E000CAA0BBB0B2817390726
:104760004A075B0770F580914C02882391F0809195
:104770008401882371F08FED92E00E94B01D0E94A9
:10478000360660937C0170937D0180937E01909347
:104790007F0180914F02811114C0809181018111AC
:1047A00010C08091480281110CC080912F028111AC
:1047B00008C080914902811104C04C9902C00C9438
:1047C000292C80914C028823C9F080918401882390
:1047D000A9F00E94360600917C0110917D01209184
:1047E0007E0130917F010A561F4F2F4F3F4F061712
:1047F00017072807390710F40C94342C80917202A3
:104800008B83909173029C8380E00E946711809358
:10481000090390914602823009F484C7833009F479
:1048200095C7813009F0CAC79111C8C70E94C31645
:104830008FED92E00E94B81D80914902882331F0EB
:1048400088E70E940517CC24C39401C0C12C60E006
:1048500082E00E9470168CEA92E00E94811761E06B
:1048600082E00E94701682EA92E00E94811762E064
:1048700082E00E94701688E992E00E94811763E04E
:1048800082E00E9470168FE892E00E948117DC2C73
:1048900080910903843009F461C74EE76D2D80E0F3
:1048A0000E941F1061E080E00E941E1380910903A6
:1048B000823009F422C7833009F42AC7813041F7D6
:1048C000E1E0DE1609F4D9C0DE1668F1F2E0DF1689
:1048D00009F488C223E0D212DBCF8FED92E00E9470
:1048E000B81D60E082E00E9470168EE792E00E94A0
:1048F000811761E082E00E9470168DE692E00E94CE
:10490000811762E082E00E9470168CE592E00E94BE
:10491000811763E082E00E94701684E592E00E94B5
:10492000811710E034C46BE274E080E00E94D61678
:104930008FED92E00E94B81D60E082E00E94701648
:1049400087E391E00E94811761E082E00E94701687
:1049500088E291E00E94811762E082E00E94701676
:104960008EE191E00E94811763E082E00E94701660
:1049700081E191E00E94811710E080910903843069
:1049800009F478C048E760E081E00E941F10809140
:104990000C03811102C040E201C040E061E081E00F
:1049A0000E941F1080912C02811102C040E201C0C0
:1049B00040E062E081E00E941F1080910B038111B2
:1049C00002C040E201C040E063E081E00E941F10AD
:1049D0004EE7612F80E00E941F1061E081E00E949D
:1049E0001E1380910903823089F18330C9F181302F
:1049F00021F6123079F0133039F1113009F0BDCFC2
:104A000080912D02882311F082E001C083E00E9492
:104A1000780AB3CF80912C02811109C080912F02B6
:104A2000811102C04C9924C75E985F9A02C05E9AB9
:104A30005F9890912C0281E0892780932C0284EF6B
:104A400091E00E94200F99CF81E0E1CF40E2612FF9
:104A500080E00E941F10133008F08FCF1F5F8DCFB2
:104A600040E2612F80E00E941F10112309F485CFDE
:104A7000115083CF0E94CB0F0BCFD09230028BE32B
:104A800094E00E94E10F809144028A3010F40E9469
:104A9000DE0F6AE070E0809144020E9453048AE3D2
:104AA0000E940517809145028A3010F40E94DE0FA3
:104AB0006AE070E0809145020E94530461E080E06A
:104AC0000E9470168BE891E00E94811763E082E0FB
:104AD0000E94701688E791E00E94811763E08EE0E3
:104AE0000E94701680914302813049F028F0823094
:104AF00051F489E691E005C083E791E002C08DE6BC
:104B000091E00E9481170E94CC1600E010E06AE05C
:104B1000F62E74E1E72E80910903843009F449C12F
:104B2000153010F062E001C063E040E280E00E94D6
:104B30001F10153010F063E001C062E04EE780E026
:104B40000E941F1062E082E00E9470168091440271
:104B50008A3010F40E94DE0F6AE070E08091440217
:104B60000E9453048AE30E940517809145028A300F
:104B700010F40E94DE0F6AE070E0809145020E940E
:104B8000530446E062E087E00E94121080914A02DE
:104B9000882319F083E691E002C08DE591E00E9440
:104BA0008117123091F038F4112361F01130B9F40B
:104BB00062E083E012C0143071F050F0153079F4E7
:104BC00063E00AC062E082E008C062E085E005C000
:104BD00062E086E002C062E08EE00E94701661E052
:104BE00080E00E941E1380910903823009F4D5C031
:104BF000833009F4D7C0813009F08DCF123009F429
:104C000055C028F4112379F11130D9F1D0C01430F6
:104C100009F468C008F458C0153009F0C8C00E94F3
:104C2000C316B0904A0210924A028FED92E00E94A1
:104C3000B81D60E082E00E94701684E591E00E9459
:104C4000811761E082E00E9470168AE491E00E9480
:104C5000811762E082E00E94701682E491E00E9477
:104C6000811700E065C0809144028E3020F4865F99
:104C7000809344029CC06F2D0E94B93290934402ED
:104C800096C020914402822F6F2D0E94B932993034
:104C900011F4295001C02F5F2093440280914402F7
:104CA000883109F084C0E092440281C080914502BD
:104CB000813320F4865F8093450279C06F2D0E9476
:104CC000B9329093450273C020914502822F6F2D17
:104CD0000E94B932993011F4295001C02F5F2093FE
:104CE000450265C090914A02892780934A025FC0BD
:104CF00048E56091430283E00E941F104EE7602F59
:104D000080E00E941F104DE261E083E00E941F10CE
:104D1000602F83E00E94701661E080E00E941E1305
:104D2000809109038230F9F0833031F1813029F02C
:104D3000809109038430E1F628C00130C9F3009363
:104D40004302602F86E00E945A1B8091430281112A
:104D500003C081E00E94F80980914302823041F74C
:104D60000E94F809E5CF40E2602F80E00E941F100A
:104D70000230F0F60F5FDCCF40E2602F80E00E944F
:104D80001F100023A9F20150D3CFB0924A0263EB67
:104D900073E080E00E94D6160AC0153008F0BBCE42
:104DA0001F5FB9CE112309F4B6CE1150B4CE01E085
:104DB000B2CE002379F060914A0283E00E945A1B30
:104DC0006091450284E00E945A1B6091440285E094
:104DD0000E945A1B63EB73E080E00E94D61610928B
:104DE000300256CDA090730280907202B09075028E
:104DF0009090760283E394E00E94E10F85EB91E0CE
:104E00000E94811761E082E00E94701685EA91E0BD
:104E10000E9481170E94CC168091290290912A024B
:104E2000805D974090932A028093290210E000E071
:104E300080910903843009F460C162E082E00E943D
:104E4000701639E03A1510F00E94DE0F6AE070E04B
:104E50008A2D0E9453048AE30E94051749E04815F1
:104E600010F00E94DE0F6AE070E0882D0E9453046B
:104E700063E082E00E94701682EA91E00E9481174E
:104E80008091290290912A020A9714F40E94DE0F61
:104E90008091290290912A020E9453178FE20E946A
:104EA000051769E0691510F00E94DE0F6AE070E0F6
:104EB000892D0E9453048FE20E94051789E08B150B
:104EC00010F00E94DE0F6AE070E08B2D0E94530408
:104ED00061E08DE00E94701680913802882319F0FD
:104EE0008EE991E002C08AE991E00E94811740E2D8
:104EF0000111C1C462E080E00E941F1061E080E007
:104F00000E9470168BEF800F863048F440E262E01A
:104F100080E00E941F1063E080E00E9470168EE720
:104F20000E940517402E512C9BE04916510430F584
:104F3000F201EC5CFF4F0C94ED3261E08DE01CC09F
:104F400062E082E019C062E083E016C062E007C060
:104F500062E086E011C063E084E00EC063E085E0BB
:104F60000BC063E087E008C063E088E005C063E051
:104F70008AE002C063E08BE00E94701661E080E08E
:104F80000E941E1380910903823009F4A8C0833067
:104F900009F4AAC0813009F04BCF002349F0F20197
:104FA0003197EA30F10590F4E15CFF4F0C94ED325B
:104FB0000E944A083DCFEDE0EA1518F0FAE0AF0E86
:104FC00005C08A2D6AE00E94B932A92E11E030CFC7
:104FD0008A2D6AE00E94B932993019F427EFA20EA7
:104FE00001C0A39438E111E0A31222CF54E1A52E11
:104FF0001FCF40E3481518F06AE0860EE7CF882DF2
:105000006AE00E94B932892EE1CF882D6AE00E94C1
:10501000B932993019F487EF880ED8CF8394D6CF60
:1050200095E19B1518F0EAE0BE0ED0CF8B2D6AE01B
:105030000E94B932B92E0DC08B2D6AE00E94B932A0
:10504000993019F4F7EFBF0E01C0B3942FE12B157F
:1050500030F0B110BBCF11E0BB24B394E9CE4EE1E8
:10506000B42EB4CF32E0391518F04AE0940EAECF2A
:10507000892D6AE00E94B932992E9111A7CF11E0D3
:1050800099249394D5CE6BE0691598F193949ECFB3
:105090008091290290912A028935910514F40A968B
:1050A00004C06AE070E00E94D93290932A02809393
:1050B00029028CCF2091290230912A02C9016AE08D
:1050C00070E00E94D932099719F42950310902C0C1
:1050D0002F5F3F4F30932A022093290277CF0A3067
:1050E00008F0A6CE0F5FA4CE002309F4A1CE015094
:1050F0009FCE11E03AE0932E9BCEE0902902F090F3
:105100002A0280E3E81A88EFF80AF0922A02E09275
:105110002902112339F1092D10E02B2D30E0682DE3
:1051200070E040E050E08A2D90E00E94A418A09228
:1051300073028092720210927102B0927502909284
:10514000760280912902825B809377020E94E614A6
:105150000E94910D0E94EB0D80938D01682F80E1DC
:105160000E945A1B63EB73E080E00E94D61690CB3E
:1051700082E390E00E94200F80910903823009F4BD
:105180009EC2833009F4A4C2813009F44BC08091DF
:105190000903843009F4A8C20E94CC16111107C07B
:1051A00080919001ECE18E9FC001112402C080E04B
:1051B00090E00E94C505133011F40E94C3164EE71B
:1051C000612F80E00E941F1060E080E10E94701655
:1051D0006AE070E0809190010E94530461E080E1F8
:1051E0000E9470166AE070E080918F010E94530463
:1051F00062E080E10E9470166AE070E080914D02EA
:105200000E945304612F80E10E94701680E00E948A
:105210006711809309038111ABCF84E690E00E946F
:10522000200FF4CF113009F443C060F1123009F4BB
:105230004FC0133009F0ABCF8FED92E00E94B81D44
:1052400060E082E00E94701681E492E00E94811783
:1052500061E082E00E9470168EE292E00E94811767
:1052600062E082E00E9470168BE192E00E9481175A
:1052700063E082E00E94701683E192E00E94811751
:1052800000E06AC080919001893020F48F5F8093A4
:10529000900102C01092900160919001FCE16F9F1B
:1052A000C00111246D830E94C5056D8182E00DC08F
:1052B00080918F01893020F48F5F80938F0102C02D
:1052C00010928F0160918F0189E00E945A1B5FCF7D
:1052D00080914D02893020F48F5F80934D0202C08F
:1052E00010924D0260914D0288E0EFCF80918E01C7
:1052F000811137C040E260E082E10E941F1080917E
:105300004902811130C040E261E082E10E941F1039
:1053100080918401811129C040E262E082E10E9413
:105320001F104EE7602F80E00E941F10602F82E167
:105330000E9470160330D8F40E94CC1661E080E021
:105340000E941E1380910903823009F4A4C18330A6
:1053500009F4ABC1813071F080910903843031F6DA
:1053600016CF48E5C8CF48E5CFCF48E5D6CF0E9455
:10537000C316E4CF0130E1F0A0F0023091F1033028
:1053800059F78BE194E00E94E10F83E092E00E94E4
:10539000811761E080E00E94701624E1E22EF12C7A
:1053A0002CC060918E01682760938E018AE01FC037
:1053B0000E94C3168091490281110AC04EE261E049
:1053C00082E10E941F100E94D41B5F9810922C0251
:1053D0006091490281E06827609349020E945A1B4C
:1053E000BBCF609184016827609384018AE10E94A9
:1053F0005A1B82E30E94F40EAFCF8CEE8E0D8431E7
:1054000011F462E003C0883221F463E080E00E947E
:105410007016B70187E50E946E1B0E9405172FEFDB
:10542000E21AF20A30E5E316F10439F760E080E0B1
:105430000E941E1363EB73E080E00E94D6168FED8E
:1054400092E00E94B81D6BE080E00E944D0360E096
:1054500083E00E944D036CE086E00E944D0360E013
:1054600088E00E944D0361E08DE00E944D0344E01E
:1054700061E080E10E941F1060E081E10E944D0325
:1054800063E080E00E94701682EF91E00E94811735
:1054900080910903843009F45FCF80E00E94671196
:1054A0008093090380E00E946711823089F7809120
:1054B0000903843069F380E00E9467118093090337
:1054C00080E00E946711833091F78FED92E00E9497
:1054D000B81D60E080E00E94701687EE91E00E94A7
:1054E000811781E090E00E9453178EE20E94051719
:1054F00080E090E00E9453178FED91E00E948117A9
:1055000061E080E00E94701689ED91E00E948117B1
:1055100098E0F92E8F2D0E94DC140E947F148111D7
:1055200008C088E70E94051760E170E08F2D0E9497
:105530005304F39448E7F412EDCF62E080E00E9458
:10554000701682ED91E00E94811780913103909155
:105550003203009711F487E393E0F101E81BF90BA4
:10556000CF010E9453178DEC91E00E94811788E6CD
:105570000E94DC1461E18CEF92E00E9426180E94E8
:105580007F1462E070E088E690E00E945C159091E4
:10559000FA028091FB02981779F18CEF92E00E9459
:1055A000DA175C018CEF92E00E94DA177C01B501FA
:1055B0006F777727072E000C880B990B0E94C42F5A
:1055C0004B015C01B701772786E0759567958A9551
:1055D000E1F7072E000C880B990B0E94C42F20E0E6
:1055E00030E040E85EE30E9423309B01AC01C5013E
:1055F000B4010E94A23103C060E070E0CB0140E042
:1056000050E00E9467048FED0E94051763E080E080
:105610000E94701687EC91E00E94811763E08BE096
:105620000E94701683EC91E00E94811780918D0199
:10563000882311F083E501C087E50E94051780915A
:105640000903843009F433CF81E00E94671180930D
:10565000090363E086E00E94701686E00E941F0640
:10566000BC01990F880B990B0E94C42F20E030E0F9
:1056700040EA50E40E94233020E030E040E85AE362
:105680000E94233042E050E00E94670484E690E0EC
:105690000E945713D4CF40E2602F80E00E941F1079
:1056A000033008F059CE0F5F57CE40E2602F80E004
:1056B0000E941F10002309F44FCE01504DCE40E24E
:1056C000612F80E00E941F10133048F41F5F07C055
:1056D00040E2612F80E00E941F1011111150612FD4
:1056E00080E00E94701653CD80914C028111D0C889
:1056F00080E090E00E94C505CBC840E26D2D80E0BF
:105700000E941F10F2E0FD1508F4C2C8D394C0C86F
:1057100040E26D2D80E00E941F10CD1408F0B8C843
:10572000DA94B6C891114AC080914C02811146C0EA
:1057300080914D02882309F441C090914E0281E08E
:10574000892780934E020E942E1038C0992349F079
:105750000E94B5161092460210924C020E94910DC2
:105760002DC080918E01882339F0809147028111EC
:1057700003C00E94BF0F22C090914C0281E0892794
:1057800080934C020E942E1080914C02811109C01E
:1057900080E090E00E94C5058FED92E00E94B01D70
:1057A0000AC0809190012CE1829FC00111240E94C7
:1057B000C5050E94651682E30E94F40E80914602A0
:1057C000811102C088E701C080EF0E94F40E0C94A2
:1057D000562187E00E941F068132934074F0809129
:1057E0004602882351F00E94B5161092460210928C
:1057F0004C020E94910D0C9488210E942E100C9452
:10580000882181E08093800180910A03811103C087
:105810008EE00E944A1680912C0281115F9A0E94AC
:10582000910D0C9433228F5F0C94442200E010E021
:105830000C94792280913802882329F080914F02BC
:1058400081110C94EB228FED92E00E94B01D0C941C
:10585000EB2261E58DE30E94450F0E94A31B81E0CE
:10586000809381010C94E1230E9465160C94FE2321
:105870000E94D41BD9C861E080E00E941F1040E262
:1058800063E080E00E941F1062E039CB6FE681E5A3
:105890000E94450F0E94A31B0C9461230E94651671
:1058A0000C946123E75BFF4F0C94ED3262E080E0E3
:1058B0000E94450F182F61E080E00E94701665E697
:1058C00080E00E94450F2AE0829FC00111240E94BF
:1058D000A81C111106C06EE671E08FED92E00E94E7
:1058E000931D62E080E00E94701665E680E00E94F1
:1058F000450F3AE0839FC001112488519C4F0E94BC
:10590000A81C65E680E00E94450F4AE0849FC00124
:105910001124112319F028EB3BE002C020ED37E001
:10592000820F931F0E94A81C8BE00E94A31B0C9463
:105930004B2364E680E00E94450F082F81EF90E042
:105940000E9481176CE3069F800111240056104FBE
:10595000F12CB80180E50E946E1B482F61E08F2D6D
:105960000E941F10B8016C5E7F4F80E50E946E1B85
:10597000482F62E08F2D0E941F10B801685D7F4F95
:1059800080E50E946E1B482F63E08F2D0E941F1040
:10599000F3940F5F1F4F84E1F812DBCF0C944B237D
:1059A00064E680E00E94450FE0E58E9FC00111246F
:1059B0008C01005F184DF12CB80180E50E946E1B30
:1059C000482F60E08F2D0E941F10B8016C5E7F4F42
:1059D00080E50E946E1B482F61E08F2D0E941F10F2
:1059E000B801685D7F4F80E50E946E1B482F62E022
:1059F0008F2D0E941F10B801645C7F4F80E50E94CC
:105A00006E1B482F63E08F2D0E941F10F3940F5FD1
:105A10001F4FF4E1FF12D0CF0C944B2361E085E0DF
:105A20000E94701686E091E00E948117809190019B
:105A30002CE1829FC00111240E94C5050E949E1B7B
:105A40002EE031E040E06AEF70E080E293E00E94F7
:105A5000881324EB30E040E066E970E080E293E0F8
:105A60000E9488132AEF30E040E06AEF70E084E99A
:105A700092E00E94881380ED97E00E94571380E027
:105A800090E00E94C5050C944F230E94FD1A7C01F2
:105A90006BE174E080E00E94D616FF2401E00E94D2
:105AA000FD1AE816F90609F061C0809109038430F7
:105AB00009F45CC0009330028FED92E00E94B81DA3
:105AC00064E181E00E94450F182F112379F064E012
:105AD00080E00E94450FD82E64E180E00E94450FCF
