:100000000C9439020C9461020C9461020C94B31D9F
:100010000C94B31D0C94B31D0C94042F0C9461022A
:100020000C9461020C9461020C9461020C94C22144
:100030000C9461020C9461020C9461020C946102B4
:100040000C948B1C0C9461020C9461020C94610260
:100050000C9461020C9461020C9461020C94610294
:100060000C94431E0C9461029D0BA00BA20BA40BDD
:10007000A60BA90BAB0BAD0BAF0BB10BB30BD40B9A
:10008000E10BF20BFE0B090C150C2B0C3C0C410C7C
:10009000530C87168E169B16AE16B616BE16C316D2
:1000A000C516CA16CC16D6169F18A618B818D0189A
:1000B000DA18E418F618001907191F19321942192D
:1000C0005A194B244D245024522454245624592484
:1000D0005B245D245F247C2483248A249824AD241B
:1000E000BB24C924D724EB24F924426972746864C0
:1000F0006179004861707079004963682062696EB7
:100100002068696572210047657363686963687474
:10011000656E2068004155582D45696E67616E67B0
:1001200000456967656E6573206800526164696F98
:100130002068005B205D204D5033005B205D205225
:100140006164696F005B205D205765636B746F6E3F
:100150000020205B6175735D0020205B616E205D77
:10016000004D503300526164696F00546F6E005748
:1001700065636B746F6E202020205B202020202080
:100180005D004E657565205765636B7A656974001F
:1001900061757300616E20002E3230004E6163681D
:1001A000746D6F647573205B2020205D004E657553
:1001B00065205568727A6569742F446174756D00A5
:1001C0005A3A2000416B6B753A0020543A20005295
:1001D000414D3A2020004932433A20002D3231303F
:1001E000353137004669726D776172653A20006279
:1001F00079204E696B6F6C6169205261646B650098
:10020000446965736572204E4F4B4F2067656820C7
:100210007274004D65696E204E4F4B4F00446973F8
:1002200074616E7A6C696368742020205B205D00C5
:100230005374756D6D202020202020202020205B0D
:10024000205D00416B6B752073706172656E2020BC
:1002500020205B205D007765697465722E2E2E006C
:1002600044697374616E7A202B2F2D205B205D0012
:100270004576656E747320202B2F2D205B205D004A
:100280004C454420202020202B2F2D205B205D007A
:100290004E4F4B4F207374656C6C656E007A6569C8
:1002A00074207374656C6C656E00416C61726D20B6
:1002B0007374656C6C656E00537069656C20776152
:1002C0007320766F72004E61736520647220636BD9
:1002D000656E00206175662056002055706461745B
:1002E00065206572666F6C6772656963680053614B
:1002F0006D73746167004672656974616700446F6D
:100300006E6E2E746167004D697474776F63680058
:100310004469656E73746167004D6F6E7461670048
:10032000536F6E6E74616700007370656963686512
:10033000726E2E2E2E2020202020004765627572BE
:1003400074737461672100280320031903100307E5
:1003500003FE02F602EE0253746174696F6E2000B0
:100360005B317C735D205B327C735D205B337C731F
:100370005D20005D5B3C5D5B205D5B3E5D5B000086
:10038000000000240027002A0000000008000201ED
:100390000000030407000000000000000050415569
:1003A0005345004B65696E65204D5033732067657A
:1003B00066756E64656E004765736368696368742B
:1003C00065005B3C5D5B205D5B205D5B3E5D00200E
:1003D0005765636B746F6E202B2F2D205B205D00A3
:1003E00061757300616E200062697300766F6E0044
:1003F0005B2020205D2044696D6D656E205B205D73
:10040000004E616368746D6F647573207374656CFE
:100410006C656E0000000000250028002B00000025
:10042000000023002600290004040404040404043A
:10043000020202020202030303030303010204088F
:10044000102040800102040810200102040810203E
:1004500020416C61726D20004E61736520647220D2
:10046000636B656E00205568720072656E002B2804
:10047000162211241FBECFEFD8E0DEBFCDBF12E0A1
:10048000A0E0B1E0E4E0F7E602C005900D92AA30EA
:10049000B107D9F723E0AAE0B2E001C01D92A93D5F
:1004A000B207E1F712E0C8E3D2E004C02197FE01F1
:1004B0000E946833C733D107C9F70E94A8020C9481
:1004C00075330C940000CF92DF92EF92FF920F935E
:1004D0001F93E82FF92F05C0015011092109310997
:1004E00061F1908196239417B9F305C00150110969
:1004F0002109310911F1908196239413F7CFC12C72
:10050000D12CE12CF12C0AC08FEFC81AD80AE80AC6
:10051000F80A0C151D052E053F0579F0808186230C
:10052000841791F36C2D7D2D8E2D9F2D1F910F9192
:10053000FF90EF90DF90CF90089560E070E080E052
:1005400090E01F910F91FF90EF90DF90CF90089572
:10055000A5E0B0E0EEEAF2E00C944832789484B57D
:10056000826084BD84B5816084BD85B5826085BDAF
:1005700085B5816085BD80916E00816080936E003D
:10058000109281008091810082608093810080912F
:1005900081008160809381008091800081608093E0
:1005A00080008091B10084608093B1008091B000A0
:1005B00081608093B00080917A00846080937A009B
:1005C00080917A00826080937A0080917A008160C5
:1005D00080937A0080917A00806880937A001092EC
:1005E000C1001CBC80E880BF8FE380937E008091B7
:1005F00064008460809364008091640082608093D2
:1006000064008091640080648093640088EC8AB9FF
:100610008CE284B98EE387B980E48BB981E088B934
:1006200010928C0310928B0310928A03109289030C
:1006300010928803109287038DE991E090938E03C6
:1006400080938D0390917D03963108F057C02DEB78
:1006500030E030938803209387032BE931E0309317
:100660008A03209389032CE231E030938C0320939A
:100670008B0320916800983050F031E09E3008F4F0
:1006800030E081E001C0880F3A95EAF701C084E0CC
:10069000822B80936800983038F09E3040F096317D
:1006A00048F020E030E008C02DE630E005C02BE641
:1006B00030E002C02CE630E03093850320938403C1
:1006C000983030F481E001C0880F9A95EAF70EC0A7
:1006D000292F30E09E3018F42850310902C02E50E6
:1006E000310981E001C0880F2A95EAF780938603DB
:1006F00080918D0390918E030197F1F780918B0388
:1007000090918C03892B21F180917702909178024E
:1007100023E081379207E1F0009711F00E942D1E2F
:1007200080918F038E7F80938F03109275021092B9
:10073000760281E793E09093780280937702E091CC
:100740008403F0918503908180918603892B8083B7
:100750008EE00E94952A8CE00E94952A84EF91E019
:100760000E94CC2B86E06EE140E020E030E000E02B
:1007700010E00E94012A84E00E94A22A0E94191C13
:100780000E94A8198091A9039091AA03807F8A6092
:100790009093AA038093A9030E9486190E94E419EA
:1007A00080E090E00E94CE313EE1839FC0011124A1
:1007B00090938D0280938C0281E00E942C2291E024
:1007C000811101C090E09093190282E00E942C22D6
:1007D0008093160283E00E942C2291E0811101C0D7
:1007E00090E090931A0284E00E942C228093D1031F
:1007F00085E00E942C228093D00386E00E942C2268
:100800008093CF0387E00E942C228093FA0288E035
:100810000E942C2280931D0289E00E942C2280934A
:1008200015028AE00E942C2291E0811101C090E023
:10083000909314028BE00E942C2291E0811101C060
:1008400090E0909300038CE00E942C228093FE02A3
:100850008DE00E942C228093FD028EE00E942C22CB
:100860008093FC028FE00E942C228093FB0280E1A7
:100870000E942C2291E0811101C090E0909313021C
:1008800081E10E942C22182F82E10E942C22282F25
:1008900030E0C9014AE0149F800D911D112490930E
:1008A00086028093850283E10E942C228093F902C4
:1008B0001FE2E12E12E0F12E15E1812F0E942C2281
:1008C000082F81E0810F0E942C22282F30E0C901DF
:1008D0006AE0069F800D911D1124F7018193919389
:1008E0007F011E5F1B3149F78BE10E942C2291E0B2
:1008F000811101C090E0909312028CE10E942C22A1
:1009000091E0811101C090E09093FF0280E090E0BF
:100910000E94121B8093110281E090E00E94121B42
:100920008093100282E090E00E94121B8093F602F6
:1009300088E60E94352983EC93E06AE971E00E9421
:10094000252F0E94D82884E10E94851388E60E9402
:10095000352983EC93E06DE971E00E94252F0E9418
:10096000D8280E94F41280919403882309F49CC033
:1009700080919503886080939503B4E0FB2EF092FC
:1009800098038BE39DE00197F1F780E993E0609194
:100990009B030E943B2F8BEF98E00197F1F780E9D2
:1009A00093E060E30E94552F0BE416E4C801019721
:1009B000F1F780E993E060E30E94552FC8010197A9
:1009C000F1F780E993E060E30E94552F83E592E020
:1009D0000197F1F780E993E060E20E94552F809142
:1009E000950380620E94C12AF09296038CE00E94D7
:1009F000C12A0E94D32A82E08093970386E00E9456
:100A0000C12A82E00E94C12A8BE39FE10197F1F79E
:100A10000E944F2C84E190E00E94CE31182F8A3042
:100A200008F055C00E94D32A8AED92E00E94372B2D
:100A300083E061E046E50E948F2C80E090E00E9418
:100A400057188EE20E947D2B812F6AE00E9434337A
:100A5000892F90E00E94571883ED92E00E94372B77
:100A600081E090E00E9457188EE20E947D2B80E08A
:100A700090E00E94571884E064E00E94DB2A86EC34
:100A800092E00E94372B8BE064E045EF0E948F2CB0
:100A900084E190E06AE00E94D63181E060E00E944B
:100AA000F4140E94D32A13C080E2809394038091AF
:100AB0009403803408F05CCF0E9435290E94D82826
:100AC000882309F455CF809194038F5FEECF0E9465
:100AD000372288E592E060E570E040E020E530E014
:100AE0000E94712E80E793E066E970E040E026E91D
:100AF00030E00E94712E5E9A0E9402120E94AF1195
:100B000080932E0287E40E94792A9091F602891B35
:100B10008F568093F502F3E6FC8323E62B83CE0108
:100B200001961C010E94021287E00E94681C81321B
:100B3000934024F080911802882351F087E00E94AE
:100B4000681C8032934004F5809118028823E1F0FC
:100B50009091180281E089278093180287E00E9413
:100B6000681C8032934014F00C94D30F80911C02C7
:100B7000882311F40C94D30F80911402882311F46C
:100B80000C94D30F0E94452C809122032B812817AF
:100B900009F491C180911F028823E1F08091FF0246
:100BA0008823C1F080911702811114C08091140232
:100BB000882339F080911802811103C00E94452CCE
:100BC00009C080911C02811105C00E94B02A81E0F9
:100BD00080931C0210920F02809123033C813817EE
:100BE00009F4E2C08091170281117AC00E941312A9
:100BF000909110028091260398136EC0909111027B
:100C000080912503981368C081E080931B02809136
:100C10000E02811165C080911F02811161C062E7DF
:100C200071E00E94122B8091870281110E94E419C9
:100C30008091880281115F9880911902811107C00B
:100C400080918902811103C08FE60E943D2280EDD0
:100C500097E00E94CC2B0E94BB21082F0E94BB2151
:100C6000081721F04C9902C00C94E90F809184027E
:100C7000843011F40C94E90F0E94D32A87E061E0DC
:100C80000E94DB2A83EF90E00E94372B86E062E02F
:100C90000E94DB2A8AEE90E00E94372B81E065E01B
:100CA0000E94CF2B182F112391F080E064E10E9465
:100CB000CF2B60E040E00E948F2C80E064E10E9436
:100CC000CF2B63E040E00E948F2C1150ECCF84EFDB
:100CD00091E00E94402EC2CF10920E0210921B0291
:100CE000109113020E947E12181709F45DC08091C2
:100CF0002303843008F458C0112311F40C9400101D
:100D000081508093230381E0D12ED826D092130204
:100D1000809123036091220370E04091210350E011
:100D20002091250330E00091260310E0E0902C0292
:100D3000F0902D0290E00E948F1F80912C02825B28
:100D4000809327030E943F2980918C02805F6D2D44
:100D50000E94212200918C0210918D020E3D43E0F1
:100D6000140711F40C940310025E1F4F91E0F92E4A
:100D7000F00E80918C02890F9D830E942C22682F97
:100D80008F2D0E9421229D819F5F9E3181F71093BC
:100D90008D0200938C02C8016EE170E00E94403326
:100DA00080E090E00E94D63180911702811102C04C
:100DB0000E94B11380911F0281117DC080911902A0
:100DC000811179C080912A0290912B020A977CF4BC
:100DD0008091180281110BC00E94372288E993E0AC
:100DE00060E570E040E020E530E00E94712E4C9913
:100DF00062C08091F70281115EC0809187028111EB
:100E00005AC080912A0290912B0202970CF453C091
:100E1000E0911502F0E0E056FE4F108161E0610FB5
:100E200081E00E94CF2B811346C00C94071016302E
:100E300010F00C949410143011F00C948C1083E08A
:100E400061E00E94DB2A89EF90E00E94372B8091BD
:100E500016026CE1869FC00111240E94BF1B0E94F4
:100E6000372280E293E06AEF70E040E02EE031E06C
:100E70000E94712E80E293E066E970E040E024EB8E
:100E800030E00E94712E84E992E06AEF70E040E069
:100E90002AEF30E00E94712E80ED97E00E94402EF4
:100EA00080E090E00E94BF1B0E94ED1480911C0224
:100EB00081110C947F108091170281117AC080916A
:100EC0001E02811176C080911D02882309F471C031
:100ED0002D988FE090E00197F1F72D9A83E290E052
:100EE0000197F1F72D98E8E4F4E04491E4E3F4E0AD
:100EF000E491F0E0EE0FFF1FE25EFB4F85919491CD
:100F0000642F00E412E42FE030E00E9463026115D8
:100F100071058105910549F0DC01CB010196A11D08
:100F2000B11DBC01CD019F7003C060E070E0CB013A
:100F300010911D022AE330E040E050E00E94F431BD
:100F4000E9E11E9FC0011124092E000CAA0BBB0B66
:100F5000281739074A075B0760F580911C02882330
:100F600081F080911202882361F00E94B82A0E94C9
:100F70007F1C60930A0270930B0280930C02909383
:100F80000D0280911F02811114C080910F02811106
:100F900010C08091870281110CC08091F7028111ED
:100FA00008C080911902811104C04C9902C00C94B0
:100FB000281080911C028823C9F080911202882396
:100FC000A9F00E947F1C00910A0210910B0220914F
:100FD0000C0230910D020A561F4F2F4F3F4F06173C
:100FE00017072807390710F40C943310F0912203E7
:100FF000FB83209123032C8380E00E94A02C80930C
:10100000840290911702823009F47BC7833009F47F
:101010008BC7813009F0BCC79111BAC780E50E9427
:1010200085130E94FF2A0E94D32A809119028823E7
:1010300031F088E70E947D2BCC24C39401C0C12CE1
:1010400082E060E00E94DB2A88EB92E00E94372B6E
:1010500082E061E00E94DB2A8AEA92E00E94372B5C
:1010600081E062E00E94DB2A0E946C2C8DE992E014
:101070000E94372B82E063E00E94DB2A80E992E045
:101080000E94372BDC2C80918402843009F452C7F3
:1010900080E06D2D4EE70E948F2C80E061E00E9481
:1010A000F41480918402823009F416C7833009F465
:1010B0001EC7813041F731E0D31609F4ECC0D316D6
:1010C00058F142E0D41609F48EC263E0D612DBCFA9
:1010D0000E94D32A82E060E00E94DB2A80E892E04E
:1010E0000E94372B82E061E00E94DB2A80E792E0D9
:1010F0000E94372B82E062E00E94DB2A80E692E0C9
:101100000E94372B82E063E00E94DB2A86E592E0B2
:101110000E94372B10E034C480E06AE771E00E943F
:10112000122B0E94D32A82E060E00E94DB2A8BE22D
:1011300091E00E94372B0E94642C82E061E00E94C3
:10114000DB2A81E291E00E94372B0E94642C82E02E
:1011500062E00E94DB2A85E191E00E94372B82E069
:1011600063E00E94DB2A87E091E00E94372B0E9417
:10117000642C10E080918402843009F489C080914D
:101180008702811102C040E201C040E081E060E0DE
:101190000E948F2C80918B02811102C040E201C01D
:1011A00040E081E061E00E948F2C809188028111F3
:1011B00002C040E201C040E081E062E00E948F2C6A
:1011C00080918A02811102C040E201C040E081E0CA
:1011D00063E00E948F2C80E0612F4EE70E948F2CED
:1011E00081E061E00E94F414809184028230E1F198
:1011F000833009F443C0813009F0BCCF113059F07D
:1012000038F0123091F0133009F0B4CF81E00AC009
:101210000E942E15AFCF8091F502882311F082E055
:1012200001C083E00E94B925A5CF80918802811179
:101230000EC08091870281110E947E228091F70268
:10124000811102C04C9913C75E985F9A02C05E9AE2
:101250005F989091880281E089278093880284EFCB
:1012600091E00E94CC2B86CF80E0612F40E20E946B
:101270008F2C133008F07ECF1F5F7CCF80E0612F72
:1012800040E20E948F2C112309F474CF115072CFC9
:101290000E944F2CF8CED092F8028AE891E00E948A
:1012A000752C8091D0038A3010F40E94712C8091AB
:1012B000D0036AE070E00E946F198AE30E947D2BE0
:1012C0008091D1038A3010F40E94712C8091D10357
:1012D0006AE070E00E946F190E946C2C80E061E06F
:1012E0000E94DB2A82E891E00E94372B82E063E0D3
:1012F0000E94DB2A8FE691E00E94372B8EE063E0AC
:101300000E94DB2A8091CF03813049F028F082309F
:1013100051F481E691E005C08BE691E002C085E6DC
:1013200091E00E94372B0E94082B00E010E06AE059
:10133000F62E74E1E72E80918402843009F43AC1DC
:10134000153010F062E001C063E080E040E20E94EE
:101350008F2C153010F063E001C062E080E04EE7B2
:101360000E948F2C82E062E00E94DB2A8091D003F1
:101370008A3010F40E94712C8091D0036AE070E0F2
:101380000E946F198AE30E947D2B8091D1038A30DD
:1013900010F40E94712C8091D1036AE070E00E94E9
:1013A0006F190E946C2C80911A02882319F089E52C
:1013B00091E002C081E591E00E94372B123089F064
:1013C00030F4112361F01130A1F483E00FC0143028
:1013D00061F048F0153069F48EE063E008C082E007
:1013E00005C085E003C086E001C08EE062E00E9497
:1013F000DB2A80E061E00E94F41480918402823054
:1014000009F4CCC0833009F4CEC0813009F093CF09
:10141000123009F453C028F4112369F11130C9F1D5
:10142000C7C0143009F466C008F456C0153009F07E
:10143000BFC00E94FF2AB0901A0210921A020E94A6
:10144000D32A82E060E00E94DB2A85E491E00E94DA
:10145000372B82E061E00E94DB2A8BE391E00E945F
:10146000372B82E062E00E94DB2A83E391E00E9456
:10147000372B00E060C08091D0038E3020F4865F6F
:101480008093D00395C06F2D0E9434339093D00386
:101490008FC02091D003822F6F2D0E94343399305A
:1014A00011F4295001C02F5F2093D0038091D00305
:1014B000883109F07DC0E092D0037AC08091D103D9
:1014C000813320F4865F8093D10372C06F2D0E9418
:1014D00034339093D1036CC02091D103822F6F2DB0
:1014E0000E943433993011F4295001C02F5F2093AA
:1014F000D1035EC090911A02892780931A0258C0C6
:1015000083E06091CF0348E50E948F2C80E0602F3C
:101510004EE70E948F2C83E0602F0E94DB2A80E040
:1015200061E00E94F414809184028230E9F08330FB
:1015300021F1813029F080918402843009F726C09E
:101540000093CF0386E0602F0E9421228091CF0379
:10155000811103C081E00E943B258091CF0382303E
:1015600051F70E943B25E7CF80E0602F40E20E94C8
:101570008F2C023000F70F5FDECF80E0602F40E25B
:101580000E948F2C0023B9F20150D5CFB0921A02DD
:1015900080E062E071E00E94122B0AC0153008F072
:1015A000CACE1F5FC8CE112309F4C5CE1150C3CED9
:1015B00001E0C1CE002379F083E060911A020E941D
:1015C000212284E06091D1030E94212285E0609174
:1015D000D0030E94212280E062E071E00E94122B81
:1015E0001092F80250CDA090230380902203B09077
:1015F00025039090260382E891E00E94752C8DEAE5
:1016000091E00E94372B82E061E00E94DB2A8CE9A6
:1016100091E00E94372B0E94082B80912C02909120
:101620002D02805D974090932D0280932C0210E054
:1016300000E080918402843009F458C182E062E0C5
:101640000E94DB2A89E08A1510F00E94712C8A2DF5
:101650006AE070E00E946F198AE30E947D2B99E096
:10166000981510F00E94712C882D6AE070E00E949D
:101670006F190E946C2C82E063E00E94DB2AE9E093
:10168000EB1510F00E94712C8B2D6AE070E00E9427
:101690006F198EE20E947D2BF9E0F91510F00E947F
:1016A000712C892D6AE070E00E946F1988E991E041
:1016B0000E94372B80912C0290912D020A9714F4EE
:1016C0000E94712C80912C0290912D020E9457183B
:1016D0008EE061E00E94DB2A80910003882319F0EC
:1016E00084E991E002C080E991E00E94372B80E01C
:1016F0000111C0C462E040E20E948F2C80E061E0F2
:101700000E94DB2A8BEF800F863048F480E062E095
:1017100040E20E948F2C80E063E00E94DB2A8EE78B
:101720000E947D2B402E512C2BE042165104F8F4E0
:10173000F201EC5CFF4F0C9468338EE061E015C061
:1017400082E005C083E003C085E001C086E062E07E
:101750000CC082E009C083E007C085E005C086E0D8
:1017600003C08AE001C08BE063E00E94DB2A80E0D6
:1017700061E00E94F41480918402823009F4A8C0D0
:10178000833009F4AAC0813009F053CF002349F017
:10179000F2013197EA30F10590F4E15CFF4F0C94CF
:1017A00068330E948D2345CF3DE03A1518F04AE09A
:1017B000A40E05C08A2D6AE00E943433A92E11E0E0
:1017C00038CF8A2D6AE00E943433993019F467EFDC
:1017D000A60E01C0A39488E111E0A8122ACF54E11B
:1017E000A52E27CF90E3981518F0EAE08E0EE7CFEC
:1017F000882D6AE00E943433892EE1CF882D6AE07B
:101800000E943433993019F4F7EF8F0ED8CF8394B8
:10181000D6CF25E12B1518F03AE0B30ED0CF8B2DA3
:101820006AE00E943433B92E0DC08B2D6AE00E940D
:101830003433993019F447EFB40E01C0B3946FE11B
:101840006B1530F0B110BBCF11E0BB24B394F1CED7
:101850004EE1B42EB4CF82E0891518F09AE0990ECB
:10186000AECF892D6AE00E943433992E9111A7CF13
:1018700011E099249394DDCEEBE0E91598F193946F
:101880009ECF80912C0290912D028935910514F400
:101890000A9604C06AE070E00E94543390932D02CF
:1018A00080932C028CCF20912C0230912D02C90103
:1018B0006AE070E00E945433099719F42950310905
:1018C00002C02F5F3F4F30932D0220932C0277CF21
:1018D0000A3008F0AECE0F5FACCE002309F4A9CEDB
:1018E0000150A7CE11E03AE0932EA3CEE0902C0257
:1018F000F0902D02F0E3EF1AF8EFFF0AF0922D02BC
:10190000E0922C02112339F1682D70E02B2D30E08C
:10191000092D10E08A2D90E040E050E00E948F1FDA
:10192000A09223038092220310922103B0922503F8
:101930009092260380912C02825B809327030E9461
:101940003F290E94ED140E947E12682F809313029B
:1019500080E10E94212280E062E071E00E94122B6F
:1019600092CB82E390E00E94CC2B80918402823063
:1019700009F494C2833009F49AC2813009F44BC04F
:1019800080918402843009F49EC20E94082B1111B8
:1019900007C0809116022CE1829FC001112402C071
:1019A00080E090E00E94BF1B133011F40E94FF2AD8
:1019B00080E0612F4EE70E948F2C8FE060E00E9454
:1019C000DB2A809116026AE070E00E946F198FE0B6
:1019D00061E00E94DB2A809115026AE070E00E94BB
:1019E0006F198FE062E00E94DB2A80911D026AE09D
:1019F00070E00E946F198FE0612F0E94DB2A80E067
:101A00000E94A02C809384028111ABCF84E690E0E9
:101A10000E94CC2BF4CF113009F441C050F11230A8
:101A200009F44DC0133009F0ABCF0E94D32A82E0F5
:101A300060E00E94DB2A83E492E00E94372B82E080
:101A400061E00E94DB2A80E392E00E94372B82E073
:101A500062E00E94DB2A8DE192E00E94372B82E057
:101A600063E00E94DB2A83E192E00E94372B00E0D2
:101A70006AC080911602893020F48F5F809316022D
:101A800002C010921602609116023CE1639FC001F1
:101A900011246D830E94BF1B82E06D810DC0809177
:101AA0001502893020F48F5F8093150202C01092D6
:101AB000150289E0609115020E94212261CF809178
:101AC0001D02893020F48F5F80931D0202C01092A6
:101AD0001D0288E060911D02EFCF809114028111F8
:101AE00037C040E282E160E00E948F2C80911902B1
:101AF000811130C040E282E161E00E948F2C809130
:101B00001202811129C040E282E162E00E948F2C22
:101B100080E0602F4EE70E948F2C82E1602F0E94B0
:101B2000DB2A0330D8F40E94082B80E061E00E9499
:101B3000F41480918402823009F49CC1833009F44A
:101B4000A3C1813071F080918402843031F618CFC6
:101B500048E5C8CF48E5CFCF48E5D6CF0E94FF2A59
:101B6000E4CF013009F1C8F00230C1F1033059F778
:101B70008AE691E00E94752C80E092E00E94372B6B
:101B800081E160E04FEE0E948F2C80E061E00E94D6
:101B9000DB2A24E1E22EF12C2DC06091140268278B
:101BA000609314028AE020C00E94FF2A80911902EB
:101BB00081110BC00E947E2282E161E04EE20E9410
:101BC0008F2C0E946A220E947A226091190281E081
:101BD0006827609319020E942122B5CF60911202FA
:101BE0006827609312028AE10E94212282E30E9408
:101BF0008513A9CF8CEE8E0D843119F480E062E05C
:101C000004C0883221F480E063E00E94DB2AC7012F
:101C10000E94121B0E947D2B4FEFE41AF40A60E52C
:101C2000E616F10439F780E060E00E94F41480E0E9
:101C300062E071E00E94122B0E94D32A80E06BE0E8
:101C40000E94801883E060E00E94801886E06CE0CB
:101C50000E94801888E060E00E9480188DE061E0BA
:101C60000E94801880E161E044E00E948F2C81E1B5
:101C700060E00E94801880E063E00E94DB2A8FEE23
:101C800091E00E94372B80918402843009F45BCF6D
:101C900080E00E94A02C8093840280E00E94A02C0F
:101CA000823089F780918402843069F380E00E9459
:101CB000A02C8093840280E00E94A02C833091F7B6
:101CC0000E94D32A80E060E00E94DB2A84EE91E04B
:101CD0000E94372B81E090E00E9457188EE20E940C
:101CE0007D2B80E090E00E9457188CED91E00E94DF
:101CF000372B80E061E00E94DB2A86ED91E00E94B4
:101D0000372B98E0F92E8F2D0E9435290E94D82874
:101D1000811108C088E70E947D2B8F2D60E170E063
:101D20000E946F19F39488E7F812EDCF80E062E02B
:101D30000E94DB2A8FEC91E00E94372B8091D30325
:101D40009091D403009711F489ED93E0F101E81B21
:101D5000F90BCF010E9457188AEC91E00E94372BB3
:101D600088E60E94352983EC93E061E10E945C1DC6
:101D70000E94D82888E690E062E070E00E94B629D0
:101D80009091C1038091C203981769F183EC93E0AD
:101D90000E94171D5C0183EC93E00E94171D7C01DB
:101DA000B5016F777727072E000C880B990B0E94DF
:101DB000B1304B015C01B701772786E075956795D7
:101DC0008A95E1F7072E000C880B990B0E94B13021
:101DD00020E030E040E85EE30E941031A50194016C
:101DE0000E948F3203C060E070E0CB0140E00E94AF
:101DF000F0198FED0E947D2B80E063E00E94DB2ACA
:101E000084EC91E00E94372B8BE063E00E94DB2A98
:101E100080EC91E00E94372B80911302882311F00F
:101E200083E501C087E50E947D2B80918402843088
:101E300009F438CF81E00E94A02C8093840286E0D0
:101E400063E00E94DB2A86E00E94681CBC01990FB7
:101E5000880B990B0E94B13020E030E040EA5BE350
:101E60000E94103142E00E94F01984E690E00E9446
:101E7000402EDBCF80E0602F40E20E948F2C0330A9
:101E800008F061CE0F5F5FCE80E0602F40E20E94DD
:101E90008F2C002309F457CE015055CE80E0612FDE
:101EA00040E20E948F2C133048F41F5F07C080E08F
:101EB000612F40E20E948F2C1111115080E0612FA0
:101EC0000E94DB2A5DCD80911C028111DCC880E07C
:101ED00090E00E94BF1BD7C880E06D2D40E20E94B9
:101EE0008F2CF2E0FD1508F4CEC8D394CCC880E066
:101EF0006D2D40E20E948F2CCD1408F0C4C8DA94F6
:101F0000C2C8911145C080911C02811141C08091CD
:101F10001D028823E9F190911E0281E089278093B8
:101F20001E020E94B11334C0992339F01092170297
:101F300010921C020E94ED142BC080911402882381
:101F400039F080911802811103C00E94452C20C0F5
:101F500090911C0281E0892780931C020E94B1139A
:101F600080911C02811107C080E090E00E94BF1B9D
:101F70000E94B82A0AC0809116022CE1829FC001FB
:101F800011240E94BF1B0E94B02A82E30E94851385
:101F900080911702811102C088E701C080EF0E9482
:101FA00085130C94920587E00E94681C813293404F
:101FB00064F080911702882341F01092170210926A
:101FC0001C020E94ED140C94C4050E94B1130C94E1
:101FD000C40581E080930E0280918902811103C0C3
:101FE0008EE00E94952A8091870281110E948322AF
:101FF0008091880281115F9A0E94ED140C94700602
:102000008F5F0C94810600E010E00C94B60684E02B
:102010006CE00E94CF2B182F8091170281111AE0DB
:102020000E94FF2A183008F0BCC080911C0288234F
:1020300051F080910003882321F080911F028111CB
:1020400002C00E94B82A153008F50E94D32A1EC08B
:102050008DE361E50E94CF2B0E943D2281E08093B9
:102060000F020C94D9070E94B02A0C94F6070E9424
:102070006A22EAC861E040E20E948F2C80E063E0BF
:1020800040E20E948F2C80E062E03ACB153011F0E4
:102090000C9417070E94BB21F82E80E06AE671E0DD
:1020A0000E94122B01E00E94BB21F81224C08091F3
:1020B0008402843001F10093F8020E94D32A81E067
:1020C00064E10E94CF2B182F112381F080E064E19E
:1020D0000E94CF2BE82E80E064E00E94CF2B682F77
:1020E0008E2D40E00E948F2C1150EECF84EF91E0B6
:1020F0000E94402ED8CF1092F8020C945407809181
:102100000003882329F080911F0281110C945B0742
:102110000E94B02A0C945B0781E56FE60E94CF2BEA
:102120000E943D220C945407163091F418E288E185
:102130000E94C12A88EC90E00E94402E8091840287
:10214000843009F411E01150123088F70C945407D0
:10215000173011F780E06AE671E00E94122B00E070
:1021600010E0812F602F40E00E948F2C86E990E0E4
:102170000E94402E80918402843011F414E104E026
:10218000812F602F40E20E948F2C1F5F143148F393
:102190000F5F043028F380ED97E00E94402E0C94EE
:1021A000540781E56FE60E94CF2B0E943D220C94DC
:1021B0005B0783FD02C098E001C098E28770892B1D
:1021C00098E10FB6F894A895909360000FBE8093A5
:1021D0006000A89580916000806480936000809189
:1021E0001C02882319F083B7817F0BC080911702EE
:1021F000882321F083B7817F846003C083B7817F08
:102200008C6083BF83B7816083BF85B7806685BFDD
:102210008F7D85BF80916400816080936400889584
:1022200083B78E7F83BF0FB6F894A8958091600026
:10223000886180936000109260000FBE8091600002
:102240008F7B80936000809164008E7F8093640018
:102250000895CF93DF93C82F82E061E00E94DB2ACC
:1022600087E593E00E94372B8C2F6AE070E00E9494
:102270006F198AE30E947D2B80E20E947D2BD0E0C3
:10228000CC0FDD1FC35DDD4F6881798180E090E078
:102290000E94AF302DEC3CEC4CEC5DE30E94103121
:1022A00042E00E94F01988819981883E934018F09D
:1022B00083E141E002C082E142E061E00E94822CC1
:1022C00080918302609182020E94DB2ADF91CF918C
:1022D0000895EF92FF920F931F93CF93C82F282F4B
:1022E00030E080918502909186028901000F111FD4
:1022F000015D1D4FF80191838083255F3F4F5AE0B8
:10230000E52EF12CB7010E944033682F822F880FF1
:102310000E942122F80120813181CC0FC901B7012F
:102320000E944033A901481B590BCA01B7010E9402
:10233000403385E18C0F0E94212282E061E00E94FF
:10234000DB2A89E293E00E94372B88EE93E00E941B
:10235000CC2BCF911F910F91FF90EF900895CF93C9
:10236000809100038823E9F18091FE029091FC02A4
:1023700020912303981730F4C1E0821768F02917E1
:1023800058F009C0891738F4C0E0821728F42917DB
:1023900018F4C1E001C0C0E0891310C05091FD02E3
:1023A0003091FB02351738F040912203451718F0A1
:1023B000341708F0C1E0381708F4C1E0281307C04B
:1023C000309122038091FD02381708F0C1E02913F3
:1023D00009C0909122038091FB02981718F4C1E084
:1023E00001C0C0E080912E02C81749F0CC2311F043
:1023F00087E401C086E60E943D22C0932E028C2F06
:10240000CF910895CF93DF930E94BB21C1E2D3E027
:1024100089830E9454200E94DE208091A9028A8331
:10242000DF91CF9108950E9454200E94DE20809178
:10243000AD0290E08E54984F90932D0280932C0221
:102440000E9454200E94DE208091AB0280932503DD
:102450000E9454200E94DE208091AC0280932603CB
:1024600080E063E00E94DB2A0E9454200E94DE206C
:10247000E091AA02F0E0EE0FFF1FE95BFC4F6591CF
:10248000749180E292E00E94A03080E993E060E2E3
:1024900072E00E94252F8AE063E00E94DB2A80918F
:1024A00025038A3010F40E94712C809125036AE084
:1024B00070E00E946F198EE20E947D2B80912603AE
:1024C0008A3010F40E94712C809126036AE070E03B
:1024D0000E946F198EE20E947D2B80912C029091B8
:1024E0002D020E94571880912A0290912B020A9780
:1024F00024F482E160E00E94DB2A089580912603A3
:102500009DEF980F983008F06DC09CEF980F9630B3
:1025100008F466C0833089F52091250340912C0290
:1025200050912D0235E0349FC001359F900D11244C
:1025300097FD03969595879595958795049667E001
:1025400070E00E9454334FE150E0BA01681B790BF0
:1025500038E1369FA001379F500D11244F5F5F4F28
:102560008091230378E1279F90011124280F311DCA
:1025700081E042175307BCF135C08A3099F52091AC
:10258000250340912C0250912D0235E0349FC0016B
:10259000359F900D112497FD0396959587959595F8
:1025A0008795019667E070E00E9454334FE150E058
:1025B000BA01681B790B38E1369FA001379F500D97
:1025C00011244F5F5F4F8091230378E1279F900193
:1025D0001124280F311D81E04217530724F402C053
:1025E00081E0089580E00895EF92FF920F931F938A
:1025F000CF93DF9388E60E94352983EC93E060E077
:102600000E945C1D0E94D82888E690E067E070E098
:102610000E94B62983EC93E00E94171DC1E2D3E02B
:10262000982F9695969596959E70292F220F220F9A
:10263000920F8F70890F888383EC93E00E94171D9F
:10264000982F92959F708F702AE0929F800D112491
:10265000898383EC93E00E94171D982F9695969599
:1026600096959670292F220F220F920F8F70890F47
:102670008A8383EC93E00E94171D982F92959F7098
:102680008F702AE0929F800D11248B8383EC93E05E
:102690000E94171D982F92959F708F702AE0929F2D
:1026A000800D11248C8383EC93E00E94171D982FDA
:1026B00092959F708F702AE0929F800D11248D83D8
:1026C00083EC93E00E94171D982F9F70925E829575
:1026D0008F70E92E2AE0829FE00C1124EE828A811D
:1026E000698170E0488150E02C8130E00D8110E07C
:1026F000F12C9EE4E91A98EFF90A90E00E948F1FEE
:10270000CDB7DEB7E6E00C947032CF93C82F80913E
:102710001C02882329F08091640080628093640009
:10272000C7FF04C083E00E94D910C857C03420F00E
:1027300082E00E94D910CC53C03220F081E00E9488
:10274000D910CE51C03118F080E00E94D91080918C
:102750001C02882321F08091640010926400CF91C4
:102760000895CF930E9402120E94AF1180931F021E
:10277000809123038A3018F481E060E005C06AE0AC
:102780000E943433682F81E00E94801880912303D7
:10279000CAE06C2F0E94343384E0692F0E948018B5
:1027A00087E06AE00E948018809122038A3018F442
:1027B0008AE060E005C06C2F0E943433682F8AE005
:1027C0000E948018809122036AE00E9434338DE0D9
:1027D000692F0E94801881E161E043E00E94822C11
:1027E00081E161E00E94DB2A80911E02811104C018
:1027F00080911D02811103C088E70E947D2B80918A
:102800001C02882319F084E40E947D2B8091000330
:10281000882349F080911F02882311F08EE401C0C3
:102820008EE60E947D2B80911B02882341F083E07D
:1028300062E00E94DB2A8BE393E00E94372B81E168
:1028400062E043E00E94822C81E162E00E94DB2A88
:1028500080911A02882319F084EF0E947D2B8091C9
:10286000F702882319F080E70E947D2B80911902DE
:10287000882319F083E50E947D2B809189028111C4
:1028800008C080918802811104C08091870288234A
:1028900019F080E50E947D2B86E00E94681C9093D1
:1028A0002B0280932A02C4E08AE00E94851386E00E
:1028B0000E94681C20912A0230912B02820F931FE4
:1028C00090932B0280932A02C15071F765E070E06B
:1028D0000E945433072E000C880B990B0E94B130D4
:1028E00020E030E040EA5BE30E94103126E636E665
:1028F00046E350EC0E948F322CE938ED49E952E46E
:102900000E9410310E94FB321616170634F464360A
:1029100071052CF063E670E002C061E070E0CB016D
:10292000072E000CAA0BBB0B9C01AD016A3371058D
:10293000A4F02953310941095109ABE5B0E00E94E7
:1029400035322AE230E040E050E00E941632DA01EF
:10295000C9010896A11DB11D13C0215031094109BB
:102960005109A7E0B0E00E94353227E330E040E0B3
:1029700050E00E941632DA01C9010196A11DB11D75
:1029800090932B0280932A0281E160E00E94DB2A6F
:1029900080912A0290912B020A9744F481E160E031
:1029A00040E20E948F2C0E94082B02C00E94FF2A46
:1029B00080912A0290912B020E9457188091180250
:1029C000882311F08BE201C085E20E947D2B82E119
:1029D00060E00E94DB2ACF9108950E944F2C0E9454
:1029E00013120E94B1130895CF92DF92EF92FF92DB
:1029F0001F93CF93DF93C82FD62F0E947F1C6B01AC
:102A00007C0120E6C20E2AEED21EE11CF11C1092BF
:102A1000840214E090918402911115C08C2F0E94C1
:102A2000A02C80938402D11104C088E70E948513F2
:102A3000F1CF0E947F1CC616D706E806F90650F7AC
:102A400010938402E7CF82E30E948513DF91CF9138
:102A50001F91FF90EF90DF90CF900895AAE4B0E02F
:102A6000E4E3F5E10C944A3281E06AE471E00E940B
:102A7000122B82E06AE571E00E94122B83E062E68D
:102A800071E00E94122B84E062E471E00E94122B3C
:102A90008AE791E00E94752CB12C12E000E0A12C95
:102AA0007E0121E4E20EF11CAE014F5F5F4F6A012F
:102AB00080918402843009F489C182E062E04BE5B0
:102AC0000E948F2C82E00E947D2B83E793E00E947E
:102AD000372B83E00E947D2B8DE50E947D2B82E0C9
:102AE00063E00E94DB2A80E693E00E94372B81E0BE
:102AF00061E043E10E94822C0E94082B80918702B2
:102B0000811102C044E001C041E089E062E00E941E
:102B10008F2C82E060E00E94DB2A60918502709138
:102B2000860280E090E00E94AF302DEC3CEC4CEC53
:102B30005DE30E94103142E00E94F01980E20E94A1
:102B40007D2B002341F05E980E94832289E060E0A3
:102B50004AE00E94822C1730A9F030F4153059F069
:102B6000163041F585E022C01930C9F0B0F01A30B6
:102B700009F581E11BC083E0809383028093820288
:102B800081E007C089E08093830283E08093820222
:102B900082E00E94291100E019C08BE007C08FE09D
:102BA0008093830283E080938202F3CF8093830239
:102BB00083E009C0812F90E00196982F990F890F2B
:102BC0008093830282E08093820201E080918502FB
:102BD000909186028815990579F08AE0F7011192A3
:102BE0008A95E9F780E4F60111928A95E9F789E080
:102BF00060E048E00E94822C809183026091820212
:102C00000E94DB2A80918702882309F462C0002396
:102C100009F45FC00B2D043008F055C020E1029F7D
:102C20004001112483E0B82E82E061E00E94DB2A9B
:102C3000612C712CF301E80DF91DEC0DFD1D808157
:102C400080310CF480E20E947D2BFFEF6F1A7F0A27
:102C500020E16216710471F7809183026091820213
:102C60000E94DB2A0E947F1C2B013C010E947F1CDA
:102C7000DC01CB0184199509A609B709843F91406D
:102C8000A105B10540F480E00E94A02C809384024D
:102C9000882309F4D2C089E060E00E94DB2A80E941
:102CA00093E0B7010E94252F8091830260918202F8
:102CB0000E94DB2A80918402882309F4AFC003308C
:102CC00009F0B4C0B12C80918402882309F4A2CF0A
:102CD00004C080E061E00E94F4148090850290902E
:102CE000860280918402823009F468C0833009F43E
:102CF00069C0813009F068C0812F90E08B30910568
:102D000008F057C0FC01E75BFF4F0C9468338091DB
:102D10008702882309F44DC080E02DC04BE684165D
:102D200043E0940608F445C0C401019790938602DD
:102D3000809385023EC080918702882319F00E940B
:102D40007E2237C08091F702811102C04C99E1C008
:102D50000E947A2281E0809387022BC058E3851677
:102D600054E0950630F5C4010196E0CF80918702CA
:102D70008823F9F081E00E94B31AD8CF80912F0206
:102D8000909130020DC080E012C08091310290918C
:102D9000320206C081E00BC0809133029091340270
:102DA000909386028093850212E003C082E00E9425
:102DB000691100918702AA24A3947ACE1A3020F4D4
:102DC0001F5F02C01111115000E072CEAA20F9F06D
:102DD00080918502909186020AE010E0B8010E947D
:102DE0004033682F82E10E94212220918502309198
:102DF0008602C901B8010E944033F901E81BF90BB2
:102E0000CF01B8010E94403381E10E9421220E943B
:102E10004F2CC65BDF4FE0E10C94663282E30E94E8
:102E20008513BA94B11000CF033009F0B02E809111
:102E30008402811148CF0F5FEECE8091B303909151
:102E4000B40397FF0CC00E94A8198091B903909118
:102E5000BA039C012227387F2115304219F080E007
:102E600090E028C08F7099274091BB035091BC031C
:102E70009C01220F331F220F331FF601E20FF31FB5
:102E80005083E2E0F0E0EC0FFD1FE20FF31F408300
:102E90004091BD035091BE03E3E0F0E0EC0FFD1F55
:102EA000E20FF31F5083E4E0F0E0EC0FFD1FE20FB0
:102EB000F31F4083FC013196EE0FFF1FEE0FFF1F43
:102EC000EC0DFD1D10820E94A8198091B303909112
:102ED000B40397FF1BC08091B9039091BA03843F5C
:102EE00051E0950798F42091BD033091BE038370A3
:102EF0009927880F991FF701E80FF91F3083E2E443
:102F0000F0E0EC0FFD1FE80FF91F2083F70110869A
:102F1000ADCE0E946A221CCFA0E0B0E0E2E9F7E16A
:102F20000C9452326C017A018B01C0E0D0E0CE15D6
:102F3000DF0589F0D8016D918D01D601ED91FC91ED
:102F40000190F081E02DC6010995892B11F47E01D5
:102F500002C02196ECCFC701CDB7DEB7E8E00C94F4
:102F60006E3220917702309178022817390771F478
:102F70009091760280917502981741F0E091760267
:102F8000F0E0EB5CFD4F808190E008958FEF9FEFC4
:102F9000089508951F93CF93DF93DC015C962D91E4
:102FA0003C915D972115310539F481E090E013964D
:102FB0009C938E9312973DC05196ED91FC91529740
:102FC00050969C915097892F80951FB75E964C9193
:102FD0005E9741FB772770F941FD6095F894408139
:102FE000772311F0492B01C048234083E901219741
:102FF000F1F748E0508160FF02C0592B01C058230F
:103000005083E9012197F1F76695415099F77723AD
:1030100021F090818923808303C08081982B908345
:103020001FBF5C968D919C915D970197F1F721E010
:1030300030E0C901DF91CF911F910895209177026F
:10304000309178022817390771F480917502209128
:10305000760290E0805C9F4F821B910960E470E0F3
:103060000E945433089580E090E008952091770203
:103070003091780228173907B9F49091760280913F
:103080007502981789F0E0917602F0E0EB5CFD4F55
:1030900080812091760230E02F5F3F4F2F733327DE
:1030A0002093760290E008958FEF9FEF0895CF92DE
:1030B000DF92EF92FF92CF93DF936C01990FEE08AE
:1030C000FF08F7FE11C08DE20E947D2BEC01662700
:1030D0007727CB016C197D098E099F094AE00E9470
:1030E000892B8C0F9D1F05C0C701B6014AE00E94C5
:1030F000892BDF91CF91FF90EF90DF90CF900895D3
:10310000CF93C62F809383021092820260E043E047
:103110000E94822C609182026F5F8091830243E063
:103120000E94822C8C2F90E08D30910508F0D5C044
:10313000FC01EC5AFF4F809183020C94683360913C
:10314000820240E00E948F2C81E067C06091820281
:1031500041E00E948F2C82E00E947D2B60918202D0
:103160006F5F8091830244E00E948F2C87E014C03F
:103170006091820246E00E948F2C86E00E947D2BA7
:1031800082E00E947D2B609182026F5F80918302BA
:1031900043E00E948F2C84E00E947D2B84E09BC042
:1031A0006091820246E00E948F2C86E00E947D2B77
:1031B00082E013C06091820243E00E948F2C84E081
:1031C0000E947D2B87E044C06091820243E00E9410
:1031D0008F2C86E00E947D2B86E00E947D2B6091E3
:1031E00082026F5F8091830244E022C0609182027C
:1031F00040E00E948F2C86E00E947D2B86E010C06C
:103200006091820241E00E948F2C81E01EC060919B
:10321000820240E00E948F2C86E00E947D2B82E09B
:103220000E947D2B609182026F5F8091830243E058
:103230000E948F2C84E00E947D2B85E04CC0609121
:10324000820240E00E948F2C86E00E947D2B82E06B
:103250000E947D2B80918302609182026F5F8E5F5E
:1032600047E00DC08F5F6091820244E00E948F2C86
:1032700080918302609182026F5F8F5F44E00E94C1
:103280008F2C2BC06091820240E00E948F2C82E044
:103290000E947D2B80E00E947D2B609182026F5FF7
:1032A0008091830247E00E948F2C83E00E947D2B57
:1032B00087E011C06091820247E00E948F2C80E07D
:1032C0000E947D2B609182026F5F8091830247E0B4
:1032D0000E948F2C83E00E947D2BCF910895282F90
:1032E000AB01672B61F4E0919003F09191030190A1
:1032F000F081E02D80E993E0622F09950895682F11
:1033000070E080E090E00E94892B08951F93CF9396
:10331000DF9380E10E943529C3EAD3E018816981F7
:10332000229683EC93E00E945C1D83EC93E0612F76
:103330000E945C1D83E0CF3AD80781F70E94D8280D
:1033400091E0811190E0892FDF91CF911F91089535
:103350000F931F93CF93DF9380E190E060E270E0E2
:103360000E94B6298091C10390E02091C203821B84
:10337000910980329105ECF3CAE0D0E083EC93E050
:103380000E94171D8E01000F111F04561C4FF801DB
:103390001382848383EC93E00E94171DF80123813C
:1033A0003481822B932B94838383C930D10539F0E8
:1033B0002196C031D10511F7C0E0D0E0DFCFDF9119
:1033C000CF911F910F9108950E94A819ECE9F3E0A5
:1033D000878190858064908787830E9486190895ED
:1033E0004F925F926F927F928F929F92AF92BF9215
:1033F000CF92DF92EF92FF92CF93DF936B017C012C
:10340000B42EA70196010E942F33882329F080E96A
:1034100093E06AEA71E00FC0C701B6019F772FEF12
:103420003FEF4FE75FE70E942A3318163CF480E92C
:1034300093E06EEA71E00E94252F86C0C701B601B5
:103440002FEF3FEF4FE75FE40E942A3318162CF46A
:1034500080E993E062EB71E0EECFC701B6012FEF98
:103460003FEF4FE75FEC0E94AA3087FDF1CFC70125
:10347000B60120E030E0A9010E94AA3087FF09C010
:103480008DE20E947D2BEC01F7FAF094F7F8F094AE
:1034900002C0C0E0D0E0A12C60E070E080E09FE3DB
:1034A000AB1441F02DEC3CEC4CEC5DE30E94103190
:1034B000A394F6CFA70196010E948F322B013C0105
:1034C0000E94FB326B017C010E94AF309B01AC017A
:1034D000C301B2010E948E322B013C01C701B6012B
:1034E0004AE00E94892BC80FD91FBB2029F08EE229
:1034F0000E947D2BC80FD91FFB2CFF2021F1C30197
:10350000B20120E030E040E251E40E9410312B0192
:103510003C010E94FB324B01A12CB12CC501B4012E
:103520004AE00E94892BC80FD91FC501B4010E942F
:10353000AF309B01AC01C301B2010E948E322B015E
:103540003C01FA94DACFCE01DF91CF91FF90EF905A
:10355000DF90CF90BF90AF909F908F907F906F90B3
:103560005F904F900895A1E0B0E0E9EBFAE10C9490
:10357000563289830E94A8192091A3033091A40395
:10358000A9015B7F8981811106C0397F3093A40333
:103590002093A30306C0CA0192609093A403809372
:1035A000A3038091A3039091A40391609093A4033B
:1035B0008093A3030E9486190E94A8198091B303E7
:1035C0009091B40396FFF8CF0E94A8190091B3031D
:1035D0001091B403002710728091A3039091A4036B
:1035E0009E7F9093A4038093A3030E9486190E9458
:1035F000A8192091B3033091B403C90188279074AE
:1036000036FDF5CF0115110549F40E94A8198091E6
:10361000B5039091B603937085599C4F2196E4E0D1
:103620000C947232A1E0B0E0E8E1FBE10C94573277
:10363000182F87E599830E94352983EC93E06981EF
:103640000E945C1D83EC93E0612F0E945C1D0E9430
:10365000D82887E590E061E070E00E94B62983EC0D
:1036600093E00E94171D2196E3E00C94733290E0E2
:10367000FC01E757FC4F3491FC01E45CFB4F2491C3
:10368000FC01E85DFB4FE491EE2309F43BC03323DA
:1036900039F1333091F038F43130A9F0323001F59E
:1036A00084B58F7D12C0373091F03830A1F03430BE
:1036B000B9F4809180008F7D03C0809180008F7766
:1036C000809380000DC084B58F7784BD09C0809140
:1036D000B0008F7703C08091B0008F7D8093B000E1
:1036E000F0E0EE0FFF1FEC5EFB4FA591B4918FB79A
:1036F000F894EC91611103C020952E2301C02E2B6C
:103700002C938FBF0895CF93DF9390E0FC01E45C8E
:10371000FB4F2491FC01E85DFB4F8491882361F10C
:1037200090E0880F991FFC01E158FC4FC591D4919E
:10373000FC01EC5EFB4FA591B491611109C09FB7EC
:10374000F8948881209582238883EC912E230BC0E6
:10375000623061F49FB7F8943881822F809583237B
:103760008883EC912E2B2C939FBF06C08FB7F894C3
:10377000E8812E2B28838FBFDF91CF910895CF93BF
:10378000DF93EC018AE061E00E94831B209719F42B
:103790008AE060E005C0CF3FD10529F48AE061E00E
:1037A0000E94371B43C0E3E9F3E0E491E330F9F012
:1037B00048F4E130B9F0E230A1F584B5806284BD0F
:1037C000C8BD34C0E730E9F0E83019F1E43049F51C
:1037D00080918000806280938000D0938B00C093A2
:1037E0008A0024C084B5806884BDC7BD1FC0809195
:1037F0008000806880938000D0938900C093880007
:1038000015C08091B00080688093B000C093B30071
:103810000DC08091B00080628093B000C093B4006E
:1038200005C0C038D1050CF0B9CFB2CFDF91CF9130
:103830000895CF93DF93CCE9D3E0888161E00E94C3
:10384000831B898161E00E94831B898160E00E9463
:10385000371B888160E00E94371B81E090E00E9466
:10386000582B888161E00E94371B81E090E00E9424
:10387000582B1092C2031092C1031092C0031092F1
:10388000BF030E94711F0E94A81980E091E89A8BE3
:10389000898B0E94861984EF91E00E94582B0E9428
:1038A000A81981E090EC98878F838B859C8598611F
:1038B0009C878B878D859E858F619E878D870E94D3
:1038C00086198EE690E00E94582BDF91CF910895E3
:1038D0008E3008F08E508770806480937C008091D9
:1038E0007A00806480937A0080917A0086FDFCCF14
:1038F000809178002091790090E0922B08952FB765
:10390000F89460917E0270917F0280918002909184
:1039100081022FBF08951F920F920FB60F921124AC
:103920002F933F938F939F93AF93BF9380917E028A
:1039300090917F02A0918002B091810230917D022E
:1039400023E0230F2D3720F40196A11DB11D05C0E2
:1039500026E8230F0296A11DB11D20937D028093BE
:103960007E0290937F02A0938002B09381028091A7
:10397000790290917A02A0917B02B0917C0201962B
:10398000A11DB11D8093790290937A02A0937B02CE
:10399000B0937C02BF91AF919F918F913F912F91F6
:1039A0000F900FBE0F901F90189585ED8093BC006F
:1039B0008091BC0084FDFCCF10924E03089540918D
:1039C000D002262F30E0240F311D21323105DCF4E6
:1039D00020914E032430C9F4FC0180E090E086176A
:1039E00058F43091D0022191DC01A255BD4FA30FB4
:1039F000B11D2C930196F3CF8091D002680F609394
:103A0000D00280E0089581E0089582E0089508954D
:103A1000E091C2038091C103E81730F4F0E0EF5F5A
:103A2000FC4F808190E008958FEF9FEF0895909173
:103A3000C2038091C103981750F4E92FF0E0EF5FC3
:103A4000FC4F208130E09F5F9093C20302C02FEFB4
:103A50003FEFC90108958091C10390E02091C20316
:103A6000821B91090895A0E0B0E0E9E3FDE10C9428
:103A700052327C01972F8A0180914F03882391F065
:103A8000C62FD72F6E01C40ED51ECC15DD0571F0E3
:103A90006991D701ED91FC910190F081E02DC70172
:103AA0000995F3CF862F642F0E94DF1CC801CDB784
:103AB000DEB7E8E00C946E32A1E0B0E0E2E6FDE1B2
:103AC0000C945832698320914F032223D1F0209126
:103AD000BF03203240F021E030E0FC013383228339
:103AE00080E090E015C08091C003E82FF0E0E05B3B
:103AF000FC4F998190838F5F8093C0038093BF03B5
:103B000005C0CE01019661E00E94DF1C81E090E0DB
:103B10002196E2E00C9474326093A3027093A402A5
:103B20008093A5029093A602DC01CB01845D9E4F99
:103B3000AF4FBF4F80939F029093A002A093A1022A
:103B4000B093A20282E090E090939E0280939D0247
:103B50000E947F1C6093990270939A0280939B024B
:103B600090939C0208951F920F920FB60F9211240A
:103B70002F933F934F935F936F937F938F939F9375
:103B8000AF93BF93EF93FF93E0917702F0917802A8
:103B9000309709F451C0968DA685B785858591FF2C
:103BA00004C09C91892329F447C09C91892309F082
:103BB00043C0A389B4899C918589809589238C937E
:103BC000868997890197F1F7608D718DA685B785F4
:103BD000558538E020E0CB010197F1F7822F90E086
:103BE00095958795282F4C91452309F020683150F1
:103BF00091F7868D81FD20958091750290E0019668
:103C00008F73992730917602381749F0A091750289
:103C1000B0E0AB5CBD4F2C938093750203C0868DE2
:103C20008160868F828D938D0197F1F7A389B48986
:103C30009C918589892B8C93FF91EF91BF91AF91D6
:103C40009F918F917F916F915F914F913F912F91B4
:103C50000F900FBE0F901F901895E0917702F09192
:103C60007802E817F90769F4A389B4899C918589DA
:103C7000809589238C93109278021092770281E0CC
:103C8000089580E008951F920F920FB60F921124AD
:103C90002F933F934F935F936F937F938F939F9354
:103CA000AF93BF93EF93FF938091B900887F8036E5
:103CB00009F49CC068F5883209F45BC090F4803147
:103CC00009F454C038F4882309F4F6C0883009F4A4
:103CD0004DC0F6C0883109F44CC0803209F45DC093
:103CE000EFC0803409F468C048F4803309F455C04B
:103CF000883309F0E5C080934C03D8C0803509F4BF
:103D00004FC0883509F45DC0883409F0D9C0D6C0E9
:103D1000883909F4C7C0A8F4883709F467C038F4B3
:103D2000883609F463C0803709F460C0C9C0883898
:103D300009F4B8C0803909F45FC0803809F0C0C008
:103D40005BC0803B09F486C038F4803A09F466C051
:103D5000883A09F47FC0B4C0803C09F4A7C0883C0D
:103D600009F4A4C0883B09F48AC0AAC08091290341
:103D700010C090914B0380914A03981770F5E09121
:103D80004B0381E08E0F80934B03F0E0E65DFC4F28
:103D900080818093BB0085EC86C080934C038EC0ED
:103DA000E0914B0381E08E0F80934B038091BB0029
:103DB000F0E0E65DFC4F808390914B0380914A03D5
:103DC0006EC0E0914B0381E08E0F80934B03809196
:103DD000BB00F0E0E65DFC4F808380914D038111D4
:103DE0006DC081E08093280384EA61C083E0809302
:103DF0004E031092F402CFCF8091F402803208F08B
:103E000051C0E091F40281E08E0F8093F402809122
:103E1000BB00F0E0EC52FD4F8083BDCF85EC80937A
:103E2000BC0010924E038091F402803230F4E09195
:103E3000F402F0E0EC52FD4F10826091F40270E069
:103E4000E091D202F091D30284ED92E009951092B4
:103E5000F40236C084E080934E031092D102109297
:103E6000D002E091CE02F091CF0209958091D0026C
:103E7000811105C081E08093D0021092AE02E091E2
:103E8000D10281E08E0F8093D102F0E0E255FD4F28
:103E900080818093BB009091D1028091D0029817CD
:103EA00008F479CF85E88093BC000AC085EC809344
:103EB000BC0010924E0304C010924C030E94D51C0B
:103EC000FF91EF91BF91AF919F918F917F916F91F2
:103ED0005F914F913F912F910F900FBE0F901F90C8
:103EE000189510924E0381E080934D0310922803A1
:103EF00082E161E00E94371B83E161E00E94371B91
:103F0000E9EBF0E080818E7F808380818D7F8083EC
:103F100088E48093B80085E48093BC000895A0E015
:103F2000B0E0E5E9FFE10C944932382E962E842E5C
:103F3000F90184E6E816F1042CF082EBE81A87E038
:103F4000F80A03C08EE1E80EF11CE092AD02009386
:103F5000AC02E093AB023092A9029092A802809248
:103F6000A702AE2DB0E020E833E341EE51E00E941D
:103F700035322B013C0122EB37E0FF2484E6C82ECA
:103F8000D12CC0E9D1E0C901825B97408E159F0515
:103F9000DCF4C90183709927892B99F4C901B60112
:103FA0000E945433892B31F4C901BE010E9454335D
:103FB000892B39F480E8480E81E5581E81E0681E9F
:103FC000711C2F5F3F4FDFCF8EE4E81A88EFF80AAD
:103FD000C70164E670E00E9454336C01C70160E9D8
:103FE00071E00E9454335C01C1E0D0E0112783E00E
:103FF000E822FF24C017D1072CF5C230D10589F47F
:10400000E114F10471F4C114D10419F4A114B10440
:1040100041F480E8480E8BE3581E86E2681E711C4E
:104020000FC0DE01AB54BE4FAC91B0E020E831E5EB
:1040300041E050E00E943532460E571E681E791E40
:104040002196D8CF292D30E0ACE3B0E00E947F323A
:104050006B017C01C80CD11CE11CF11C232D30E04C
:10406000A0E1BEE00E947F32C60ED71EE81EF91EF8
:10407000DF01BB27119720E831E541E050E00E94C5
:104080004032DC01CB018C0D9D1DAE1DBF1DBC015E
:10409000CD01640D751D861D971D0E948C1DCDB729
:1040A000DEB7E1E10C946532CF92DF92EF92FF929E
:1040B0000F931F930E947F1CC0909902D0909A0288
:1040C000E0909B02F0909C028B019C010C191D0951
:1040D0002E093F098091A3029091A402A091A5020C
:1040E000B091A602083E134021053105D0F001969B
:1040F000A11DB11D8093A3029093A402A093A502D9
:10410000B093A602B701A60148515C4F6F4F7F4F95
:104110004093990250939A0260939B0270939C0281
:10412000C9CF40919F025091A0026091A10270916D
:10413000A20284179507A607B70788F1E0919702B6
:10414000F0919802309759F1099561157105810533
:10415000910519F00E948C1D22C08091A3029091BC
:10416000A402A091A502B091A602845D9E4FAF4F1C
:10417000BF4F80939F029093A002A093A102B0939F
:10418000A20281E090E020919D0230919E02232BBB
:1041900011F480E090E090939E0280939D026091E4
:1041A000A3027091A4028091A5029091A6021F9192
:1041B0000F91FF90EF90DF90CF900895A0E0B0E0D6
:1041C000E4EEF0E20C944A324B015C0180919302E0
:1041D00090919402A0919502B0919602881699064A
:1041E000AA06BB0609F4C2C08CE3C82ED12CE12C70
:1041F000F12CC501B401A70196010E94F43160932E
:10420000A702CA01B901A70196010E94F431609387
:10421000A802CA01B90128E130E040E050E00E9464
:10422000F43169017A016093A902CA01B9016C5F96
:104230007F4F8F4F9F4F27E030E040E050E00E94DB
:10424000F4316F5F6093AA02412C512C320140E09F
:1042500004E610E0C0E9D1E0242F30E02E54384FBE
:10426000F901E370FF27309789F4C901B8010E9472
:104270005433892B31F4C901BE010E945433892B78
:1042800029F48EE691E0A0E0B0E004C08DE691E074
:10429000A0E0B0E0480E591E6A1E7B1ED301C20189
:1042A000AA27BB27C816D906EA06FB0610F04F5FFF
:1042B000D3CF4093AD02309799F4C90164E670E022
:1042C0000E945433892B39F4C90160E971E00E94DE
:1042D0005433892B29F48EE691E0A0E0B0E004C0CD
:1042E0008DE691E0A0E0B0E0481A590A6A0A7B0A1C
:1042F000C418D508E608F708C90164E670E00E9412
:104300005433EC01C90160E971E00E945433A6EB1B
:10431000B1E020E0213039F4309749F4209729F4B6
:10432000009729F402C04C9103C04DE101C04CE15B
:1043300050E060E070E0C416D506E606F70640F0EF
:10434000C41AD50AE60AF70A2F5F11962C3011F726
:104350002F5F2093AC02C394C092AB028092930271
:1043600090929402A0929502B0929602CDB7DEB7D9
:10437000E0E10C9466320E9454200E94DE2080917D
:10438000A80208951F920F920FB60F9211240F9357
:104390001F932F933F934F935F936F937F938F93CD
:1043A0009F93AF93BF93EF93FF930E947F1C209145
:1043B000910230919202890120E030E0601771078C
:1043C00082079307B8F080916F008D7F80936F0014
:1043D00082E08093810081E080938000E0918F02F1
:1043E000F0919002908180918E0280958923808344
:1043F00010928E02E0918F02F09190029081809154
:104400008E0289278083FF91EF91BF91AF919F9199
:104410008F917F916F915F914F913F912F911F915C
:104420000F910F900FBE0F901F90189586EE91E0A0
:10443000909372038093710381E793E00E942D1E95
:10444000089520918C0230918D02A901480F511DD1
:10445000CA010E94D631089520918C0230918D02BC
:10446000A901480F511DCA010E94CE3108955E98DE
:1044700086E490E00E94CC2B0895A1E0B0E0E3E454
:10448000F2E20C94563289830E94372283E060E086
:10449000498120E030E000E010E00E94012A84E63B
:1044A0000E94851380918B02882319F081E00E947D
:1044B000A22A80918A02882349F081E164E040E0E9
:1044C00020E030E000E010E00E94012A2196E4E0C4
:1044D0000C9472328EE00E94952A84E60E94851325
:1044E00010928A0210928B021092890284E00E943C
:1044F000A22A08955F981092880208950E94E419F4
:10450000109287020895CF93DF930E94191C809127
:104510008502909186022AE0289FE001299FD00D14
:104520001124CE52D2420E94A8192091A5033091A5
:10453000A60322273E7F3068CE016AE070E00E9429
:104540004033262B372B3093A6032093A5030E94DC
:1045500086190E94A8198091B3039091B40396FF25
:10456000F8CF0E94A8198091A5039091A6039F7788
:104570009093A6038093A5030E9486190E94A81910
:104580008091B3039091B40396FDF8CFDF91CF9162
:104590000895CF93823009F477C038F4882321F14D
:1045A000813009F0B8C0CAE060C0843009F48BC023
:1045B00008F472C0853009F0AEC088E592E068EC7E
:1045C00070E041E028EC30E00E94712E84EF91E031
:1045D00068EC70E041E028EC30E00E94712E80E948
:1045E00091E068EC70E092C086E091E06AEF70E0E4
:1045F00041E02DE431E00E94712E84EC90E06DE703
:1046000070E041E027EA30E00E94712E84EC90E0F7
:104610006DE770E041E027EA30E00E94712E8CEDFA
:1046200090E06AEF70E041E02DE431E00E94712EED
:1046300084EC90E06AEF70E041E02AE932E00E9409
:10464000712E87EF90E06AEF70E041E02DE431E0F9
:104650000E94712E86E091E06AEF70E041E02DE467
:1046600031E057C0C15009F456C088EB91E062E3D5
:1046700070E041E024E630E00E94712E80918402D7
:10468000843081F7C0E0EECF88EB91E068EC70E019
:1046900041E024EF31E03DC088E592E064E670E05F
:1046A00041E024E630E00E94712E8CEB92E064E65B
:1046B00070E041E024E630E00E94712E80E293E059
:1046C00064E670E023C088E592E060E570E041E0D8
:1046D00024E630E00E94712E80E991E060E570E010
:1046E00041E024E630E00E94712E84EF91E060E525
:1046F00070E041E024E630E00E94712E80E991E014
:1047000060E570E041E028EC30E003C041E02CE2DD
:1047100031E00E94712ECF910895CF92DF92EF92F7
:10472000FF92CF93DF9382E891E00E94752C81E0A5
:1047300094E00E94372B82E061E00E94DB2A80EF48
:1047400093E00E94372B82E062E00E94DB2A8CEE2D
:1047500093E00E94372B82E063E00E94DB2A88EE20
:1047600093E00E94372BC0E0D4E180918402843032
:1047700009F475C183E061E00E94DB2A80910003A7
:10478000882319F084EE93E002C080EE93E00E944B
:10479000372B8091FF02811102C040E201C048E541
:1047A00080E161E00E948F2C86E062E00E94DB2ABB
:1047B0008091FE028A3010F40E94712C8091FE02DA
:1047C0006AE070E00E946F198AE30E947D2B80915D
:1047D000FD028A3010F40E94712C8091FD026AE083
:1047E00070E00E946F190E946C2C86E063E00E94CA
:1047F000DB2A8091FC028A3010F40E94712C809197
:10480000FC026AE070E00E946F198AE30E947D2B2F
:104810008091FB028A3010F40E94712C8091FB027F
:104820006AE070E00E946F190E946C2CC23048F45C
:1048300080E062E040E20E948F2C80E061E00E9414
:10484000DB2A8EEF8C0F843068F480E061E040E278
:104850000E948F2C80E063E040E20E948F2C80E079
:1048600062E009C0C63048F080E062E040E20E94A9
:104870008F2C80E063E00E94DB2A8EE70E947D2B74
:10488000CC2ED12C8AE0C816D104E8F4F601EF59F9
:10489000FF4F0C94683383E001C080E161E011C0F8
:1048A00086E005C087E003C089E001C08AE062E0DD
:1048B00008C086E005C087E003C089E001C08AE047
:1048C00063E00E94DB2A80E061E00E94F4148091A2
:1048D0008402823009F4B9C0833009F4BBC081304E
:1048E00009F043CF8AE0C816D10408F08FC0F60162
:1048F000E559FF4F0C9468339091000381E08927BC
:104900008093000383C09091FF0281E08927809308
:10491000FF027CC08091FE028E3020F4865F80937F
:10492000FE0274C06AE00E9434339093FE026EC0AF
:104930002091FE02822F6AE00E943433993011F4F4
:10494000295001C02F5F2093FE028091FE02883122
:1049500009F05CC0D093FE0259C08091FD02813302
:1049600020F4865F8093FD0251C06AE00E943433D8
:104970009093FD024BC02091FD02822F6AE00E94BD
:104980003433993011F4295001C02F5F2093FD0278
:104990003DC08091FC028E3020F4865F8093FC0243
:1049A00035C06AE00E9434339093FC022FC02091FE
:1049B000FC02822F6AE00E943433993011F42950AE
:1049C00001C02F5F2093FC028091FC028831F1F43A
:1049D000D093FC021BC08091FB02813320F4865FE0
:1049E0008093FB0213C06AE00E9434339093FB0271
:1049F0000DC02091FB02822F6AE00E94343399306F
:104A000011F4295001C02F5F2093FB028BE06091CD
:104A100000030E9421228CE06091FE020E9421226C
:104A20008DE06091FD020E9421228EE06091FC02E7
:104A30000E9421228FE06091FB020E9421228CE1E2
:104A40006091FF020E94212290CEC93008F08DCEE5
:104A5000CF5F8BCECC2309F488CEC15086CE80E0C8
:104A600062E071E00E94122BDF91CF91FF90EF90F6
:104A7000DF90CF900895CF93DF93C82F0E94D32A61
:104A80008EE70E947D2B8FEC93E00E94372B8FE006
:104A900060E00E94DB2A0E94082BC13019F480914B
:104AA000FA0202C08091F9026AE070E00E946F1978
:104AB0000E94372281E08093F802D0E08091840246
:104AC0008430F1F18FE060E00E94DB2A81E061E058
:104AD0000E94F41480918402813081F7C130A9F4DE
:104AE0009091FA02953019F41092FA0203C09F5F78
:104AF0009093FA028091FA026AE070E00E946F19C6
:104B00008091FA020E94C92219C09091F9029A304C
:104B100019F41092F90203C09F5F9093F9028091FB
:104B2000F9026AE070E00E946F1980918902811198
:104B300005C08091F9028F5F0E943D22D1E0BECF77
:104B4000DD2359F0C13021F487E06091FA0203C0FF
:104B500083E16091F9020E942122809189028111F2
:104B600003C08EE00E94952A1092F802DF91CF9147
:104B70000895ADE0B0E0EFEBF5E20C945332E82E8F
:104B800080918902811102C04C99FECF81E06AE4D4
:104B900071E00E94122B82E062E571E00E94122B0C
:104BA00083E062E471E00E94122B8AE791E00E94A8
:104BB000752C84E063E00E94DB2A82EC93E00E9483
:104BC000372B8BE063E042E00E948F2C8091F7024C
:104BD000882319F092E0F92E02C0FF24F3940E947A
:104BE000082B80E5D82E80918402843009F4C4C15A
:104BF00081E0E81282C082E060E00E94DB2A8091BE
:104C000001018A3010F40E94712C809101016AE048
:104C100070E00E946F1980E20E947D2B2091F602C5
:104C200030E021503109D29EC001D39E900D112455
:104C300020910101820F911D820F911D8E599F4F6E
:104C40000E94121B6AE070E00E946F198AE30E94C2
:104C50007D2B2091F60230E021503109D29EC00117
:104C6000D39E900D112420910101820F911D820F7E
:104C7000911D8D599F4F0E94121B8A3020F48D8701
:104C80000E94712C8D856AE070E00E946F1900E02F
:104C900010E02091010130E0215031094091F602ED
:104CA000429FC001439F900D11248C599F4F800F4C
:104CB000911F0E94121B482F802F61E00E948F2CB1
:104CC0002091010130E0215031094091F602429FCC
:104CD000C001439F900D1124800F911F88589F4F52
:104CE0000E94121B482F802F62E00E948F2C0F5FC2
:104CF0001F4F0431110569F661C082E0E81253C00C
:104D00004C9909C08091F702811105C080918A02F7
:104D1000882309F437C182E060E00E94DB2A809199
:104D20008A02882329F087EB93E00E94372B14C076
:104D300084E60E94851382E560E040E09E012F5FDB
:104D40003F4F0CE010E00E94012A80E993E0BE0191
:104D50006F5F7F4F0E94252F87E062E00E94DB2A71
:104D60004C9B05C080918A02882309F425C180915B
:104D700000018A3010F40E94712C809100016AE0D9
:104D800070E00E946F198FE20E947D2B8091F502E6
:104D90008A3010F40E94712C8091F5026AE070E074
:104DA0000E946F190BC083E0E81208C080E061E048
:104DB0000E94DB2A83EA93E00E94372B8FE060E0B9
:104DC0000E94DB2A8091F702882329F08DE993E085
:104DD0000E94372B05C08FE060E045E00E94822CE6
:104DE0004C9906C08091F702811102C043E001C0D6
:104DF00041E088E063E00E948F2C8F2D880F8F0D9B
:104E00008B5F63E00E94DB2A81E061E00E94F41482
:104E100080918402823009F49CC0833009F4A3C0DD
:104E2000813009F0E0CEF816A9F1F81648F082E0DA
:104E3000F81609F455C083E0F81609F458C0D3CE2B
:104E400081E0E81207C080910101823008F45BC064
:104E5000815057C082E0E81611F0F12CC4CE809149
:104E60000001823018F081508093000180918A0205
:104E7000882329F010928A0281E080938B024C9B58
:104E8000ECCF909100018091F602890F81590E9428
:104E90003D22A9CE8091870281110E947E224C99E9
:104EA0001AC081E0E81205C0E0928A0280910101F7
:104EB0000BC082E0E8120BC081E080938B029091DE
:104EC00000018091F602890F81590E943D2281E004
:104ED0008093890202C00E946A220E947A2283CEB5
:104EE0004C9974C08091F702811170C07CCE81E032
:104EF000E81217C0809101019091F602891718F409
:104F00008F5F8093010180918B02882329F010929A
:104F10008B0281E080938A024C9B65CE80910101D7
:104F2000B5CF82E0E8125FCE809100019091F5024A
:104F3000891718F48F5F8093000180918A0288237B
:104F400029F010928A0281E080938B024C9B4BCE19
:104F500098CF8091F702811146CE82E08F1508F438
:104F600042CEF39440CE8091F70281113CCEFF20D7
:104F700009F473CFFA9437CE0E944F2C2D96E7E0B8
:104F80000C946F324091F60250E041595F4F80918E
:104F90000001480F511D83E0652F20E030E000E064
:104FA00010E00E94012A84E60E9485130E946A2272
:104FB00084E60E948513AFCE84E60E9485138BE4BD
:104FC0000E94792A875980930001D1CE809187026F
:104FD00081110E947E228091F702882329F05E9839
:104FE0001092F7028DE004C081E08093F7028EE01A
:104FF0000E94952AF8CD8F929F92AF92BF92CF9246
:10500000DF92EF92FF92CF93DF936B017C010E94BE
:105010007F1C4B015C0181E793E00E941E18EC01AC
:10502000892B69F40E947F1CAB01BC014819590906
:105030006A097B094C155D056E057F0560F3CE019D
:10504000DF91CF91FF90EF90DF90CF90BF90AF9026
:105050009F908F9008951092C6031092C50388EE1A
:1050600093E0A0E0B0E08093C7039093C803A093BF
:10507000C903B093CA0326ED31E03093C4032093F3
:10508000C30325E020939C0322E120939D0323E1A9
:1050900020939E03109293031092920326E032E035
:1050A00030939103209390031092940324E1209372
:1050B000990324E020939A0328E020939B03109205
:1050C0007403109273038093750390937603A093F7
:1050D0007703B093780386EE91E090937203809308
:1050E0007103109288031092870310928A03109222
:1050F000890310928C0310928B0310928E031092EE
:105100008D0360918F036E7F6D7F60938F03669533
:10511000617081E0682783E00E94371B83E061E0D3
:105120000E94831BEFE3F4E0E491E0938103EBE260
:10513000F4E0E491F0E0EE0FFF1FEC5EFB4F859191
:105140009491909383038093820382E060E00E94B5
:10515000831B80918F0381FD04C082E061E00E9487
:10516000371B82E080937D03EEE3F4E0E491E0936B
:105170007E03EAE2F4E0E491F0E0EE0FFF1FE25E6E
:10518000FB4F859194919093800380937F0386EFEA
:1051900091E090937203809371031092C203109276
:1051A000C1031092C0031092BF030E94711F0895A3
:1051B000909170032091BF03213208F04AC0809182
:1051C0004E038111FCCF32E030934E0331E0309337
:1051D0004D033FEF30934C0310924B0320934A034F
:1051E000A0E5B3E04AE253E0FA013E2F341B321748
:1051F00018F43D913193F9CF10922903209129039E
:10520000990F922B9093290390912803913061F488
:1052100010922803909129039093BB009091BC00B9
:1052200093FDF8CF95EC01C095EE9093BC00909162
:105230004E039230E1F390914C039F3F79F08091BF
:105240004C03803241F080914C03803331F084E094
:1052500005C081E003C082E001C083E01092C0037A
:105260001092BF0310924F03089591E090934F0363
:10527000809370031092C0031092BF0308950F93A0
:105280001F93CF9388E60E94352983EC93E060E07A
:105290000E945C1D01E213E0F8018081CAE06C2FDE
:1052A0000E943433692FF0E18F9F600D112483EC4D
:1052B00093E00E945C1DF80181816C2F0E943433C1
:1052C000692FF0E18F9F600D112483EC93E00E9421
:1052D0005C1DF80182816C2F0E943433692FF0E14C
:1052E0008F9F600D112483EC93E00E945C1DF801F8
:1052F00083816C2F0E943433692FF0E18F9F600D02
:10530000112483EC93E00E945C1DF80184816C2FD2
:105310000E943433692FF0E18F9F600D112483ECDC
:1053200093E00E945C1DF80185816C2F0E9434334C
:10533000692FF0E18F9F600D112483EC93E00E94B0
:105340005C1DF80186818E516C2F0E943433692FC9
:10535000F0E18F9F600D112483EC93E00E945C1DAF
:105360000E94D828CF911F910F91089590914E03DC
:105370009111FCCF613208F060E291E090934E030E
:1053800090934D032FEF20934C0310924B03260F65
:1053900020934A039093290390912903880F892B26
:1053A0008093290380912803813061F410922803AF
:1053B000809129038093BB008091BC0083FDF8CFCE
:1053C00085EC01C085EE8093BC0080914E03813056
:1053D000E1F380914B03861710F460914B03AAE22E
:1053E000B3E021E033E0F9018E2F821B861718F419
:1053F0008D918193F9CF1092C2036093C103862FE0
:105400000895A0E0B0E0E7E0FAE20C945232E82E12
:10541000C62ED42EE901EDEFE80FE03128F4F0E0DC
:10542000EE53FE4FF08001C0F12C6AE070E080E0A6
:1054300090E00E94FB27892B29F081E793E00E94EE
:105440003618F3CF81E793E06EE70E94CA1781E731
:1054500093E062E06F0D0E94CA1781E793E06E2D22
:105460000E94CA17FF2069F081E793E06C2D0E942B
:10547000CA1782E0F81205C081E793E06D2D0E9403
:10548000CA1781E793E06FEE0E94CA17209749F090
:105490000115110531F0CE0160E070E0A8010E9415
:1054A0006E3368EE73E080E090E00E94FB27E12C11
:1054B000F12C0150110962E370E080E090E00E945D
:1054C000FB27892B89F081E793E00E94361820970B
:1054D00091F3E016F10678F7FE01EE0DFF1D8083D3
:1054E000C70101967C01E7CFCDB7DEB7E8E00C94A9
:1054F0006E32A5E0B0E0EFE7FAE20C94563260E0DD
:1055000040E09E012F5F3F4F05E010E00E94012A1E
:10551000CE01019660E070E040E150E00E94852FEE
:10552000CB012596E4E00C9472320F931F9360E058
:1055300040E020E030E000E010E00E94012A1F91EE
:105540000F9108950F931F93682F81E140E020E0B1
:1055500030E000E010E00E94012A1F910F910895B1
:1055600010929B0380E993E060E00E943B2F089536
:1055700088E080939B0380E993E060E00E943B2FEA
:105580000895CF93C82F682F607F80E993E00E9431
:10559000552F80E1C89FB001112480E993E00E945B
:1055A000552FCF91089581E00E94C12A8BE39FE19E
:1055B0000197F1F70895A8E0B0E0E1EEFAE20C946B
:1055C000583298E0E2E9F1E0DE01119601900D9287
:1055D0009A95E1F790919803961710F46FEF690F81
:1055E000FE013196E60FF11DE60FF11D9081890F46
:1055F00080680E94C12A2896E2E00C947432E0E9A7
:10560000F3E086818E7F868388600E94C12A089598
:10561000E0E9F3E08681982F9160968389600E948B
:10562000C12A0895A2E0B0E0E8E1FBE20C94543214
:10563000877028E0829FC0011124806469837A8387
:105640000E94C12A6981E62E7A81F72E8701085FC0
:105650001F4FF70161917F0180E993E00E946E2F57
:10566000E016F106B1F72296E6E00C9470320F9343
:105670001F93CF93DF938C01C0E0D0E0F801EC0FD3
:10568000FD1F6491662371F0E0919003F091910306
:105690000190F081E02D80E993E00995892B11F0CC
:1056A0002196ECCFCE01DF91CF911F910F910895FC
:1056B0008F929F92AF92BF92CF92DF92EF92FF9222
:1056C0006C010E947F1C4B015C01E12CF12C0E94BB
:1056D0007F1CDC01CB0188199909AA09BB098C152B
:1056E0009D05AE05BF0598F3FF90EF90DF90CF903A
:1056F000BF90AF909F908F900895682FE091900396
:10570000F09191030190F081E02D80E993E00995FB
:1057100008958F929F92AF92BF920F931F93CF9352
:10572000DF93CDB7DEB7A1970FB6F894DEBF0FBEFB
:10573000CDBF19A2423008F44AE08E010F5D1F4F21
:10574000842E912CA12CB12CA50194010E94F4313E
:10575000E62FB901CA0101501109EA3014F4E05DE5
:1057600001C0E95CD801EC93232B242B252B61F796
:1057700080E993E0B8010E94252FA1960FB6F89416
:10578000DEBF0FBECDBFDF91CF911F910F91BF90B4
:10579000AF909F908F9008950E94582B0895A0E09D
:1057A000B0E0E5EDFBE20C944E32962F3FB7F89453
:1057B0004091790250917A0260917B0270917C0253
:1057C00026B5A89B06C02F3F21F04F5F5F4F6F4F5C
:1057D0007F4F3FBF762F652F542F4427420F511D17
:1057E000611D711DE2E0440F551F661F771FEA958A
:1057F000D1F7EA01CC0FDD1FCC0FDD1F4C275D2751
:10580000EA01CC0FCD2FCC1FDD0BD195C427D527B6
:105810007E01F694FE2CEE24F794E794082F10E016
:10582000692F70E0601B710B072E000C880B990B21
:105830000E94B13020E830E040E857E30E94103188
:105840004B015C01CE25DF25BE0180E090E00E9487
:10585000AF309B01AC01C501B4010E9410316B0156
:105860007C01B801110F880B990B0E94B1309B018C
:10587000AC01C701B6010E948F320E94FB32862F15
:10588000CDB7DEB7ECE00C946A3280E090E00E9485
:10589000BF1B81E08093170210921C0208950F93A2
:1058A0001F93CF930E94D32A02E011E0C0E08C2F17
:1058B000B8010E94122BCF5F085F1F4FC830B9F7A5
:1058C000CF911F910F9108958FEE0E947D2B8AE654
:1058D00094E00E94372B089585E694E00E94372BD0
:1058E000089580E30E947D2B0895BC0180E00E9412
:1058F000122B0E94D32A80E00E947D2B80E20E941E
:105900007D2B0895CF93C42F0E94DB2ACC2329F04E
:1059100080E20E947D2BC150F9CFCF910895A1E084
:10592000B0E0E5E9FCE20C94583249830E94DB2A9E
:105930004981842F0E947D2B2196E2E00C947432E1
:10594000CF93C82F8091F702811106C04C9904C0F3
:1059500080918902811141C180912A0290912B028C
:1059600005970CF4C1E04C990DC08091870281111C
:1059700009C080918802811105C08091F8028823B6
:1059800009F42EC180911A02882309F4F5C0809190
:10599000F8028111F1C00E9402122091D20390916D
:1059A000D103809122032111E4C09813E2C0309109
:1059B000D003209123033213DCC080911C0281119B
:1059C0000E94B82A5E9880E06AE871E00E94122B7B
:1059D0000E94D32A0E94FF2A87E060E00E94DB2A0F
:1059E000809123038A3010F40E94712C809123034C
:1059F0006AE070E00E946F198AE30E947D2B80911B
:105A000022038A3010F40E94712C809122036AE0F4
:105A100070E00E946F1984E063E00E94DB2A88E551
:105A200094E00E94372B8BE063E045EF0E948F2CBF
:105A300081E08093F8028091880281115F98C09183
:105A4000CF03C13061F480918702811108C0809139
:105A50008902811104C00E948322C09387021092A0
:105A6000840280918402843009F44CC09091D10367
:105A700080912203981346C085E062E040E00E94D6
:105A80008F2C80E594E00E94372B80E00E947D2BD4
:105A900081E00E94A02C809384028FEF90E00E940E
:105AA000BF1B8091CF03882341F08091890281112F
:105AB00004C08091F702882321F08091FA020E94AD
:105AC000C9228091CF03823039F44C9905C080916E
:105AD0008902882309F488C084EF91E00E94402E57
