:100000000C94F7010C941F020C941F020C9490178F
:100010000C9490170C9490170C94292A0C941F029E
:100020000C941F020C941F020C941F020C94811B51
:100030000C941F020C941F020C941F020C941F02BC
:100040000C9488260C941F020C941F020C941F021F
:100050000C941F020C941F020C941F020C941F029C
:100060000C9420180C941F02BE09C109C309C509CC
:10007000C709CA09CC09CE09D009D209D409910B04
:100080009E0BAF0BBB0BFE0B100CE80BF90BC60B5A
:10009000D20BA80AAA0AAD0AAF0AB10AB10AB40A79
:1000A000B60AB80ABA0AD70ADE0AE50AF30A080B42
:1000B000160B240B320B460B540BE022E722F922DD
:1000C00011231B2325233723412348236023732334
:1000D00083239B234269727468646179004861706C
:1000E0007079004920616D20686572652100506C4F
:1000F00061792073746F7269657300415558206986
:100100006E70757400506C6179206F776E2066692F
:100110006C657300506C617920726164696F005B7B
:10012000205D204D5033005B205D20526164696F7B
:10013000005B205D20546F6E65005B6F66665D003E
:100140005B6F6E205D004D503300526164696F003B
:10015000546F6E6500416C61726D20746F6E652026
:100160005B20202020205D004E657720616C61724D
:100170006D2074696D65006F6666006F6E20007596
:100180006E74696C0066726F6D005B2020205D20CC
:1001900044696D205B205D00536574206E6967685B
:1001A000746D6F6465006F6666006F6E200032309C
:1001B000004E696768746D6F6465205B2020205D68
:1001C000004E65772074696D652F64617465005415
:1001D0003A2000426174743A0020543A200052419F
:1001E0004D3A2020004932433A20002D333030363A
:1001F0003137004669726D776172653A2000627925
:10020000204E696B6F6C6169205261646B65004EB2
:100210004F4B4F2062656C6F6E677320746F004D9B
:1002200079204E4F4B4F0044697374616E636520B3
:100230006C69676874205B205D0053696C656E743F
:100240002020202020202020205B205D00506F7780
:100250006572207361766520202020205B205D0080
:100260006D6F72652E2E2E0044697374616E636526
:10027000202B2F2D205B205D004576656E7473204A
:1002800020202B2F2D205B205D004C45442020207A
:100290002020202B2F2D205B205D00536574204EE5
:1002A0004F4B4F0053657420636C6F636B00536555
:1002B0007420616C61726D00506C617920736F6D98
:1002C000657468696E67005072657373206E6F7332
:1002D0006500206175662056002055706461746564
:1002E00020636F6D706C6574656400536174757222
:1002F000646179004672696461790054687572734B
:10030000646179005765646E657364617900547542
:100310006573646179004D6F6E6461790053756E29
:100320006461790000476562757274737461672156
:100330000024031D0316030E030403FB02F402EB67
:10034000025041555345004E6F204D503373206687
:100350006F756E640053746F7279005B3C5D5B2057
:100360005D5B205D5B3E5D0020416C61726D2074C1
:100370006F6E65202B2F2D205B205D00000000009C
:10038000250028002B000000000023002600290083
:10039000040404040404040402020202020203032B
:1003A0000303030301020408102040800102040833
:1003B0001020010204081020000000002400270083
:1003C0002A000000000800020100000304070000EA
:1003D00000000000000020416C61726D200050722E
:1003E000657373204E6F73650000AB1DD51B112420
:1003F0001FBECFEFD8E0DEBFCDBF12E0A0E0B1E07E
:10040000EEE4FDE502C005900D92A231B107D9F7E7
:1004100023E0A2E1B2E001C01D92AE3BB207E1F7DA
:1004200011E0C6EFD1E004C02197FE010E948D2E9D
:10043000C53FD107C9F70E9466020C949A2E0C940E
:100440000000CF92DF92EF92FF920F931F93E82F5D
:10045000F92F05C0015011092109310961F190817D
:1004600096239417B9F305C00150110921093109E8
:1004700011F1908196239413F7CFC12CD12CE12C4C
:10048000F12C0AC08FEFC81AD80AE80AF80A0C152E
:100490001D052E053F0579F080818623841791F391
:1004A0006C2D7D2D8E2D9F2D1F910F91FF90EF9024
:1004B000DF90CF90089560E070E080E090E01F91C1
:1004C0000F91FF90EF90DF90CF900895A7E0B0E0FC
:1004D000ECE6F2E00C946D2D0E9441261CBC80E8F5
:1004E00080BF8FE380937E0080916400846080935E
:1004F0006400809164008260809364008091640055
:1005000080648093640088EE8AB98CE284B98EE3BB
:1005100087B980E48BB981E088B90E94AF248EE06E
:100520000E9429208CE00E94292084EF91E00E9403
:10053000D22686E06EE140E020E030E000E010E00E
:100540000E94951F84E00E94362080E090E00E9487
:10055000F32C2EE1829FC0011124909352028093CC
:10056000510281E00E94EB1B91E0811101C090E0FB
:1005700090932B0282E00E94EB1B8093270283E082
:100580000E94EB1B91E0811101C090E090932C023E
:1005900084E00E94EB1B8093B60385E00E94EB1B76
:1005A0008093B50386E00E94EB1B8093B40387E041
:1005B0000E94EB1B80934C0288E00E94EB1B80930F
:1005C0002F0289E00E94EB1B809326028AE00E94A2
:1005D000EB1B91E0811101C090E0909325028BE02C
:1005E0000E94EB1B91E0811101C090E090934502C5
:1005F0008CE00E94EB1B809344028DE00E94EB1B79
:10060000809342028EE00E94EB1B809343028FE0B6
:100610000E94EB1B8093410280E10E94EB1B91E062
:10062000811101C090E09093240281E10E94EB1BB4
:10063000182F82E10E94EB1B282F30E0C9014AE00D
:10064000149F800D911D1124909323028093220208
:1006500083E10E94EB1B80934B02BCE1EB2EB2E0E6
:10066000FB2E15E1812F0E94EB1B082F81E0810FEB
:100670000E94EB1B282F30E0C9016AE0069F800D25
:10068000911D1124F701819391937F011E5F1B310E
:1006900049F78BE10E94EB1B91E0811101C090E0D2
:1006A00090931B028CE10E94EB1B91E0811101C031
:1006B00090E090931A0280E090E00E948A24809358
:1006C000190281E090E00E948A248093180282E05F
:1006D00090E00E948A248093480288E60E94C91E06
:1006E00089E593E062EA71E00E944A2A0E946C1E4A
:1006F00084E10E94DB1288E60E94C91E89E593E02E
:1007000065EA71E00E944A2A0E946C1E0E944A1209
:100710000E94F1200E94802784E190E00E94F32C47
:10072000182F8A30E0F50E94672089ED92E00E9440
:10073000D52183E061E046E50E94B32780E090E0A8
:100740000E94AC218EE20E945D21812F6AE00E940E
:10075000592E892F90E00E94AC2182ED92E00E94F8
:10076000D52181E090E00E94AC218EE20E945D21C3
:1007700080E090E00E94AC2184E064E00E946F2061
:1007800087EC92E00E94D52184E190E06AE00E942B
:10079000FB2C81E060E00E944A140E9467200E94C6
:1007A000F61B88E592E060E570E040E020E530E08F
:1007B0000E94962980E793E066E970E040E026E930
:1007C00030E00E9496295E9A0E9458110E940511FD
:1007D0008093400287E40E940D2090914802891B7B
:1007E0008F5680934702F3E6FE8323E62D83CE01E6
:1007F00001969C838B830E94581187E00E942A26D1
:100800008132934024F080912902882351F087E0BF
:100810000E942A268032934004F580912902882381
:10082000E1F09091290281E089278093290287E0F5
:100830000E942A268032934014F00C94810F8091FC
:100840002E02882311F40C94810F809125028823B5
:1008500011F40C94810F0E946D278091DB022D8191
:10086000281709F45EC1809131028823E1F080915C
:100870001A028823C1F080912802811114C080914E
:100880002502882339F080912902811103C00E943A
:100890006D2709C080912E02811105C00E9444205D
:1008A00081E080932E02109217028091DC023E813B
:1008B000381709F4AFC080912802811147C00E9407
:1008C0006911909118028091DF0298133BC09091BA
:1008D00019028091DE02981335C081E080932D02C9
:1008E00080911602811132C08091310281112EC097
:1008F00062E771E00E94CC208091460281115F98EE
:1009000080912B02811107C080914E02811103C09A
:100910008FE60E94FC1B80ED97E00E94D2260E9489
:100920007A1B082F0E947A1B081721F04C9902C0ED
:100930000C94990F80914D02843011F00C94AB0F00
:100940000C94990F1092160210922D02109124020D
:100950000E94D411181709F45DC08091DC02843024
:1009600008F458C0112311F40C94DC0F81508093CB
:10097000DC0281E0D12ED826D09224028091DC02C4
:100980006091DB0270E04091DA0250E02091DE02DB
:1009900030E00091DF0210E0E0903E02F0903F0274
:1009A00090E00E944E1980913E02825B8093E002AB
:1009B0000E94D31E80915102805F6D2D0E94E01B2A
:1009C00000915102109152020E3D43E0140711F4C0
:1009D0000C94DF0F025E1F4F91E0F92EF00E809114
:1009E0005102890F9F830E94EB1B682F8F2D0E945D
:1009F000E01B9F819F5F9E3181F71093520200930D
:100A00005102C8016EE170E00E94652E80E090E026
:100A10000E94FB2C80912802811102C00E940713C2
:100A20008091310281117DC080912B02811179C0AA
:100A300080913C0290913D020A977CF480912902BA
:100A400081110BC00E94F61B88E993E060E570E01D
:100A500040E020E530E00E9496294C9962C08091E8
:100A6000490281115EC080912A0281115AC0809191
:100A70003C0290913D0202970CF453C0E091260293
:100A8000F0E0E855FE4F108161E0610F81E00E94C7
:100A9000F726811346C00C94E30F163010F00C9427
:100AA0007810143011F00C94701085E061E00E9411
:100AB0006F2083EE90E00E94D521809127026CE1A7
:100AC000869FC00111240E94D0250E94F61B80E25F
:100AD00093E06AEF70E040E02EE031E00E9496295A
:100AE00080E293E066E970E040E024EB30E00E94B1
:100AF000962984E992E06AEF70E040E02AEF30E066
:100B00000E94962980ED97E00E94652980E090E0A0
:100B10000E94D0250E94431480912E0281110C94D2
:100B2000631080912802811175C08091300281117B
:100B300071C080912F02882309F46CC02D9A83E242
:100B400090E00197F1F72D98E0EBF3E04491ECE9A8
:100B5000F3E0E491F0E0EE0FFF1FEA57FC4F8591C0
:100B60009491642F00E412E42FE030E00E9421020F
:100B7000611571058105910549F0DC01CB010196F4
:100B8000A11DB11DBC01CD019F7003C060E070E0EC
:100B9000CB0110912F022AE330E040E050E00E94A8
:100BA000192DE9E11E9FC0011124092E000CAA0B8A
:100BB000BB0B281739074A075B0760F580912E02A7
:100BC000882381F080911B02882361F00E944C20D1
:100BD0000E947C2660931202709313028093140289
:100BE0009093150280913102811114C080911702F7
:100BF000811110C080912A0281110CC0809149029C
:100C0000811108C080912B02811104C04C9902C04F
:100C10000C94031080912E028823C9F080911B024E
:100C20008823A9F00E947C260091120210911302E1
:100C300020911402309115020A561F4F2F4F3F4F3B
:100C4000061717072807390710F40C940E10F091B7
:100C5000DB02FD832091DC022E8380E00E94C4270A
:100C600080934D0290912802823011F40C942C0F45
:100C7000833011F40C94400F813011F00C94760FF6
:100C800091110C94760F80E50E94DB120E94B9202E
:100C90000E94672080912B02882331F088E70E9410
:100CA0005D218824839401C0812C82E060E00E9451
:100CB0006F2088EB92E00E94D52182E061E00E94E3
:100CC0006F208EEA92E00E94D52182E062E00E94CD
:100CD0006F2084EA92E00E94D52182E063E00E94C6
:100CE0006F208BE992E00E94D521A82C80914D02C3
:100CF000843011F40C94480F80E06A2D4EE70E9476
:100D0000B32780E061E00E944A1480914D02823056
:100D100011F40C94130F833011F40C94200F8130D4
:100D200029F731E0A31609F4CFC0A31638F142E049
:100D3000A41609F475C263E0A612D8CF0E947927E1
:100D40008AE892E00E94D52182E061E00E946F2053
:100D500089E792E00E94D52182E062E00E946F2044
:100D600088E692E00E94D52182E063E00E946F2035
:100D700080E692E00E94D52110E0F6C580E06AE7A7
:100D800071E00E94CC200E94792784E191E00E94CA
:100D9000D52182E061E00E946F2085E091E00E9411
:100DA000D52182E062E00E946F208BEF90E00E94EC
:100DB000D52182E063E00E946F208EEE90E00E94D9
:100DC000D52110E080914D02843009F47AC081E091
:100DD00060E048E70E94B32780915002811102C071
:100DE00040E201C040E081E061E00E94B3278091D1
:100DF0004602811102C040E201C040E081E062E0B1
:100E00000E94B32780914F02811102C040E201C0CD
:100E100040E081E063E00E94B32780E0612F4EE76D
:100E20000E94B32781E061E00E944A1480914D0244
:100E3000823099F18330D9F1813021F6123079F086
:100E4000133049F1113009F0BDCF8091470288235A
:100E500011F082E001C083E00E948414B3CF80913E
:100E6000460281110BC080914902811104C04C9B44
:100E700002C00C9412105E985F9A02C05E9A5F984E
:100E80009091460281E089278093460284EF91E0A9
:100E90000E94D22697CF81E0DFCF80E0612F40E231
:100EA0000E94B327133008F08DCF1F5F8BCF80E0F7
:100EB000612F40E20E94B327112309F483CF115020
:100EC00081CF0E94802712CFA0924A028AE891E047
:100ED0000E9499278091B5038A3010F40E949527CB
:100EE0008091B5036AE070E00E94B0238AE30E941B
:100EF0005D218091B6038A3010F40E94952780917D
:100F0000B6036AE070E00E94B02380E061E00E94D6
:100F10006F2088E691E00E94D52182E063E00E9484
:100F20006F2085E591E00E94D5218EE063E00E946C
:100F30006F208091B403813049F028F0823051F461
:100F400086E491E005C080E591E002C08AE491E08A
:100F50000E94D5210E94C22000E010E07AE0F72E26
:100F6000E4E1EE2E80914D02843009F440C1153049
:100F700010F062E001C063E080E040E20E94B3272D
:100F8000153010F063E001C062E080E04EE70E949F
:100F9000B32782E062E00E946F208091B5038A301F
:100FA00010F40E9495278091B5036AE070E00E94DA
:100FB000B0238AE30E945D218091B6038A3010F449
:100FC0000E9495278091B6036AE070E00E94B023EA
:100FD00087E062E046E00E94A62780912C028823E9
:100FE00019F080E491E002C08AE391E00E94D521EB
:100FF000123089F030F4112361F01130A1F483E054
:101000000FC0143061F048F0153069F48EE063E0F1
:1010100008C082E005C085E003C086E001C08EE024
:1010200062E00E946F2080E061E00E944A1480919B
:101030004D02823009F4CFC0833009F4D1C0813031
:1010400009F090CF123009F44FC028F4112349F170
:101050001130A9F1CAC0143009F462C008F452C0BA
:10106000153009F0C2C00E94B920D0902C02109215
:101070002C020E94792781E391E00E94D52182E031
:1010800061E00E946F2087E291E00E94D52182E01A
:1010900062E00E946F208FE191E00E94D52100E084
:1010A00065C08091B5038E3020F4865F8093B503D0
:1010B0009CC06F2D0E94592E9093B50396C020912D
:1010C000B503822F6F2D0E94592E993011F42950AB
:1010D00001C02F5F2093B5038091B503883109F0DB
:1010E00084C0E092B50381C08091B603813320F4BF
:1010F000865F8093B60379C06F2D0E94592E90931E
:10110000B60373C02091B603822F6F2D0E94592E13
:10111000993011F4295001C02F5F2093B60365C0A8
:1011200090912C02892780932C025FC083E060910C
:10113000B40348E50E94B32780E0602F4EE70E9489
:10114000B32783E061E04DE20E94B32783E0602F84
:101150000E946F2080E061E00E944A1480914D025D
:101160008230F9F0833031F1813029F080914D02E5
:101170008430E1F628C00130C9F30093B40386E05F
:10118000602F0E94E01B8091B403811103C081E0B5
:101190000E94FD1C8091B403823041F70E94FD1C27
:1011A000E5CF80E0602F40E20E94B3270230F0F6E6
:1011B0000F5FDCCF80E0602F40E20E94B327002366
:1011C000A9F20150D3CFD0922C0280E062E071E00E
:1011D0000E94CC200AC0153008F0C4CE1F5FC2CEDA
:1011E000112309F4BFCE1150BDCE01E0BBCE0023C8
:1011F00079F083E060912C020E94E01B84E0609112
:10120000B6030E94E01B85E06091B5030E94E01BDD
:1012100080E062E071E00E94CC2010924A0266CD2C
:10122000C090DC029090DB02D090DE02B090DF0232
:1012300082E891E00E94992781EC91E00E94D521FB
:1012400082E061E00E946F2081EB91E00E94D52155
:101250000E94C22080913E0290913F02805D9740A3
:1012600090933F0280933E0210E0F12C0AE064E18B
:10127000362E80914D02843009F4F6C282E062E09D
:101280000E946F2089E08C1510F00E9495278C2D0C
:101290006AE070E00E94B0238AE30E945D2199E039
:1012A000991510F00E949527892D6AE070E00E9440
:1012B000B02382E063E00E946F208EEA91E00E94FA
:1012C000D52180913E0290913F020A9714F40E942A
:1012D000952780913E0290913F020E94AC218FE2BF
:1012E0000E945D21E9E0EB1510F00E9495278B2DFF
:1012F0006AE070E00E94B0238FE20E945D21F9E075
:10130000FD1510F00E9495278D2D6AE070E00E9477
:10131000B0238DE061E00E946F2080914502882318
:1013200019F08AEA91E002C086EA91E00E94D52194
:1013300080E0F1107BC662E040E20E94B32780E0CB
:1013400061E00E946F208BEF8F0D863048F480E0C3
:1013500062E040E20E94B32780E063E00E946F20D9
:101360008EE70E945D214F2C512C2BE04216510438
:10137000F8F4F201EC5CFF4F0C948D2E8DE061E0EF
:1013800015C082E005C083E003C085E001C086E0AF
:1013900062E00CC084E009C085E007C087E005C0BA
:1013A00088E003C08AE001C08BE063E00E946F2008
:1013B00080E061E00E944A1480914D02823009F47D
:1013C00044C2833009F447C2813009F052CFFF2074
:1013D00051F0F2013197EA30F10508F0ADC1E15C5E
:1013E000FF4F0C948D2E82E991E00E94992788E9A5
:1013F00091E00E94D52182E061E00E946F208AE89E
:1014000091E00E94D52182E062E00E946F2085E891
:1014100091E00E94D52182E063E00E946F208FE777
:1014200091E00E94D521E12C80914D02843009F495
:1014300072C183E061E00E946F20809145028823A1
:1014400019F08BE791E002C087E791E00E94D52177
:1014500080911A02811102C040E201C048E58DE08E
:1014600061E00E94B32788E062E00E946F208091D3
:1014700044028A3010F40E949527809144026AE069
:1014800070E00E94B0238AE30E945D2180914202B5
:101490008A3010F40E949527809142026AE070E041
:1014A0000E94B02388E063E00E946F208091430295
:1014B0008A3010F40E949527809143026AE070E020
:1014C0000E94B0238AE30E945D21809141028A300C
:1014D00010F40E949527809141026AE070E00E941A
:1014E000B02331E03E1548F080E062E040E20E9427
:1014F000B32780E061E00E946F208EEF8E0D843074
:1015000068F480E061E040E20E94B32780E063E09D
:1015100040E20E94B32780E062E00AC045E04E1539
:1015200048F480E062E040E20E94B32780E063E09C
:101530000E946F208EE70E945D214E2C512C6AE0A4
:1015400046165104D8F4F201E75BFF4F0C948D2E40
:1015500083E001C08DE061E00FC088E003C089E056
:1015600001C08BE062E008C088E005C089E003C0EC
:101570008BE001C08CE063E00E946F2080E061E0BE
:101580000E944A1480914D02823009F4B9C0833020
:1015900009F4BCC0813009F047CF8AE048165104F5
:1015A00008F08FC0F201ED5AFF4F0C948D2E9091F0
:1015B000450281E089278093450283C090911A02F9
:1015C00081E0892780931A027CC0809144028E308A
:1015D00020F4865F8093440274C0602F0E94592ECD
:1015E000909344026EC020914402822F602F0E948B
:1015F000592E993011F4295001C02F5F20934402D5
:1016000080914402883109F05CC03092440259C094
:1016100080914202813320F4865F8093420251C060
:10162000602F0E94592E909342024BC0209142029B
:10163000822F602F0E94592E993011F4295001C039
:101640002F5F209342023DC0809143028E3020F4F0
:10165000865F8093430235C0602F0E94592E90937D
:1016600043022FC020914302822F602F0E94592EE7
:10167000993011F4295001C02F5F209343028091CB
:1016800043028831F1F4309243021BC08091410241
:10169000813320F4865F8093410213C0602F0E9443
:1016A000592E909341020DC020914102822F602F4C
:1016B0000E94592E993011F4295001C02F5F2093B8
:1016C00041028BE0609145020E94E01B8CE060913A
:1016D00044020E94E01B8DE0609142020E94E01BE8
:1016E0008EE0609143020E94E01B8FE06091410216
:1016F0000E94E01B8CE160911A020E94E01B94CED4
:1017000098E09E1508F490CEE3948ECEEE2009F476
:101710008BCEEA9489CE80E062E071E00E94CC201A
:10172000A8CDEDE0EC1518F0FAE0CF0E05C08C2D39
:10173000602F0E94592EC92E11E09BCD8C2D602F59
:101740000E94592E993019F427EFC20E01C0C3949C
:1017500038E111E0C3128DCD54E1C52E8ACD40E3AE
:10176000491518F06AE0960EE7CF892D602F0E9488
:10177000592E992EE1CF892D602F0E94592E993034
:1017800019F487EF980ED8CF9394D6CF95E19D1595
:1017900018F0EAE0DE0ED0CF8D2D602F0E94592E7A
:1017A000D92E0DC08D2D602F0E94592E993019F41D
:1017B000F7EFDF0E01C0D3942FE12D1530F0D110DB
:1017C000BBCF11E0DD24D39454CD4EE1D42EB4CF61
:1017D00032E03B1518F04AE0B40EAECF8B2D602FEF
:1017E0000E94592EB92E9111A7CF11E0BB24B394BA
:1017F00040CD6BE06B15A0F1B3949ECF80913E027B
:1018000090913F028935910514F40A9604C06AE06C
:1018100070E00E94792E90933F0280933E028CCF1D
:1018200020913E0230913F02C9016AE070E00E94BF
:10183000792E099719F42950310902C02F5F3F4FC3
:1018400030933F0220933E0277CF89E08F1508F452
:1018500010CDF3940ECDFF2009F40BCDFA9409CDF1
:1018600011E03AE0B32E05CDE0903E02F0903F0249
:1018700090E3E91A98EFF90AF0923F02E0923E02F3
:10188000112339F1692D70E02D2D30E00B2D10E082
:101890008C2D90E040E050E00E944E19C092DC0296
:1018A0009092DB021092DA02D092DE02B092DF0256
:1018B00080913E02825B8093E0020E94D31E0E94D0
:1018C00043140E94D411682F8093240280E10E9467
:1018D000E01B80E062E071E00E94CC2007CA0E9419
:1018E000C220111147C080912702ECE18E9FC001F8
:1018F00011240E94D025133011F40E94B92080E0F9
:10190000612F4EE70E94B32780E160E00E946F20C4
:10191000809127026AE070E00E94B02380E161E0DC
:101920000E946F20809126026AE070E00E94B0233E
:1019300080E162E00E946F2080912F026AE070E0F7
:101940000E94B02380E1612F0E946F2080E061E05F
:101950000E944A1480914D02823009F444C28330BF
:1019600009F44AC2813049F080914D02843009F077
:10197000B6CF4EC280E090E0BCCF1130E1F128F14B
:10198000123009F448C0133079F70E9479278DE4AA
:1019900092E00E94D52182E061E00E946F208AE3FC
:1019A00092E00E94D52182E062E00E946F2087E2EF
:1019B00092E00E94D52182E063E00E946F208FE1D7
:1019C00092E00E94D52100E06AC080912702893010
:1019D00020F48F5F8093270202C01092270260914B
:1019E0002702FCE16F9FC00111246F830E94D02564
:1019F00082E06F810DC080912602893020F48F5FD4
:101A00008093260202C01092260289E0609126028D
:101A10000E94E01BA9CF80912F02893020F48F5FB4
:101A200080932F0202C010922F0288E060912F0253
:101A3000EFCF80912502811137C040E282E160E062
:101A40000E94B32780912B02811130C040E282E1D5
:101A500061E00E94B32780911B02811129C040E2FE
:101A600082E162E00E94B32780E0602F4EE70E948F
:101A7000B32782E1602F0E946F200330D8F40E94C8
:101A8000C22080E061E00E944A1480914D028230C1
:101A900009F495C1833009F49CC1813071F08091C3
:101AA0004D02843031F660CF48E5C8CF48E5CFCF4E
:101AB00048E5D6CF0E94B920E4CF0130E1F0A0F094
:101AC000023091F1033059F78AE691E00E9499279C
:101AD0008FE092E00E94D52180E061E00E946F20BB
:101AE00024E1E22EF12C2CC060912502682760933E
:101AF00025028AE01FC00E94B92080912B0281112B
:101B00000AC082E161E04EE20E94B3270E94291CD4
:101B10005F981092460260912B0281E068276093E3
:101B20002B020E94E01BBBCF60911B0268276093D1
:101B30001B028BE10E94E01B82E30E94DB12AFCF0D
:101B40008CEE8E0D843119F480E062E004C088329E
:101B500021F480E063E00E946F20C7010E948A2484
:101B60000E945D212FEFE21AF20A30E5E316F1043C
:101B700039F780E060E00E944A1480E062E071E0A2
:101B80000E94CC200E94672080E06BE00E94C1226E
:101B900083E060E00E94C12286E06CE00E94C122E6
:101BA00088E060E00E94C1228DE061E00E94C122D5
:101BB00080E161E044E00E94B32781E160E00E949F
:101BC000C12280E063E00E946F208EEF91E00E94CE
:101BD000D52180914D02843009F461CF80E00E94CC
:101BE000C42780934D0280E00E94C427823089F789
:101BF00080914D02843069F380E00E94C427809375
:101C00004D0280E00E94C427833091F70E94672034
:101C100083EF91E00E94D52181E090E00E94AC2109
:101C20008EE20E945D2180E090E00E94AC218BEE6C
:101C300091E00E94D52180E061E00E946F2085EE56
:101C400091E00E94D52198E0F92E8F2D0E94C91EA7
:101C50000E946C1E811108C088E70E945D218F2DB3
:101C600060E170E00E94B023F39448E7F412EDCFF6
:101C700080E062E00E946F208EED91E00E94D5210D
:101C80008091B8039091B903009711F48EEB93E023
:101C9000EB81FC81E81BF90BCF010E94AC2189ED9F
:101CA00091E00E94D52188E60E94C91E89E593E053
:101CB00061E10E9439170E946C1E88E690E062E0A4
:101CC00070E00E944A1F9091570380915803981723
:101CD00069F189E593E00E94F4167C0189E593E0BF
:101CE0000E94F4161C01B7016F777727072E000CAE
:101CF000880B990B0E94D62B6B017C01B1017727D1
:101D000086E0759567958A95E1F7072E000C880B9C
:101D1000990B0E94D62B20E030E040E85EE30E9461
:101D2000352CA70196010E94B42D03C060E070E03D
:101D3000CB0140E050E00E94C7238FED0E945D215F
:101D400080E063E00E946F2083ED91E00E94D52146
:101D50008BE063E00E946F208FEC91E00E94D52120
:101D600080912402882311F083E501C087E50E9459
:101D70005D2180914D02843009F43ACF81E00E94C8
:101D8000C42780934D0286E063E00E946F2086E0C6
:101D90000E942A26BC01990F880B990B0E94D62B12
:101DA00020E030E040EA5BE30E94352C42E050E066
:101DB0000E94C72384E690E00E946529DACF80E084
:101DC000602F40E20E94B327033008F068CE0F5F17
:101DD00066CE80E0602F40E20E94B327002309F422
:101DE0005ECE01505CCE80E0612F40E20E94B327BE
:101DF000133048F41F5F07C080E0612F40E20E946B
:101E0000B3271111115080E0612F0E946F20ACCDDB
:101E100080912E0281110C94760680E090E00E9461
:101E2000D0250C94760680E06A2D40E20E94B3270C
:101E3000F2E0FA1510F40C947606A3940C9476064E
:101E400080E06A2D40E20E94B3278A1410F00C94BF
:101E50007606AA940C947606911148C080912E02C1
:101E6000811144C080912F02882309F43FC09091D2
:101E7000300281E08927809330020E94071336C028
:101E8000992349F00E94A5201092280210922E0258
:101E90000E9443142BC080912502882339F0809141
:101EA0002902811103C00E946D2720C090912E024B
:101EB00081E0892780932E020E94071380912E02D1
:101EC000811107C080E090E00E94D0250E944C2044
:101ED0000AC0809127022CE1829FC00111240E9438
:101EE000D0250E94442082E30E94DB1280912802C8
:101EF000811102C088E701C080EF0E94DB120C94C0
:101F0000FB0387E00E942A268132934074F080917F
:101F10002802882351F00E94A520109228021092D6
:101F20002E020E9443140C942D040E9407130C945B
:101F30002D0481E08093160280914E02811103C02E
:101F40008EE00E9429208091460281115F9A0E94B2
:101F500043140C94A6040E94672087E061E00E946D
:101F60006F208DED90E00E94D52186E062E00E9416
:101F70006F2084ED90E00E94D52181E065E00E9411
:101F8000F726182F112391F080E064E10E94F726D4
:101F900060E040E00E94B32780E064E10E94F72601
:101FA00063E040E00E94B3271150ECCF84EF91E052
:101FB0000E9465290C9492048F5F0C94B70400E092
:101FC00010E00C94EC0484E06CE00E94F726182FDB
:101FD0008091280281111AE00E94B920183090F5F2
:101FE00080912E02882351F080914502882321F0B0
:101FF00080913102811102C00E944C20153050F5B1
:102000000E94672027C08DE361E50E94F7260E94A9
:10201000FC1B81E0809317020C940A060E94442066
:102020000C9427060E94291C0C943B0761E040E2B7
:102030000E94B32780E063E040E20E94B32780E083
:1020400062E07FC981E56FE60E94F7260E94FC1BD3
:102050000C949105153011F00C944D050E947A1BDB
:10206000F82E80E06AE671E00E94CC2001E00E9438
:102070007A1BF81224C080914D02843001F1009344
:102080004A020E94672081E064E10E94F726182F2F
:10209000112381F080E064E10E94F726E82E80E0C1
:1020A00064E00E94F726682F8E2D40E00E94B3273F
:1020B0001150EECF84EF91E00E946529D8CF1092A5
:1020C0004A020C948A0580914502882329F0809168
:1020D000310281110C9491050E9444200C949105C9
:1020E00081E56FE60E94F7260E94FC1B0C948A058E
:1020F000163091F418E288E10E94552088EC90E0B7
:102100000E94652980914D02843009F411E011503C
:10211000123088F70C948A05173011F780E06AE6D0
:1021200071E00E94CC2000E010E0812F602F40E0A1
:102130000E94B32786E990E00E94652980914D02B4
:10214000843011F414E104E0812F602F40E20E94FA
:10215000B3271F5F143148F30F5F043028F380ED7D
:1021600097E00E9465290C948A0583FD02C098E0DF
:1021700001C098E28770892B98E10FB6F894A89572
:10218000909360000FBE80936000A89580916000DE
:1021900080648093600080912E02882319F083B7B9
:1021A000817F0BC080912802882321F083B7817F33
:1021B000846003C083B7817F8C6083BF83B78160F5
:1021C00083BF85B7806685BF8F7D85BF80916400A2
:1021D000816080936400889583B78E7F83BF0FB63C
:1021E000F894A895809160008861809360001092B7
:1021F00060000FBE809160008F7B809360008091B3
:1022000064008E7F809364000895CF93809145028F
:102210008823E9F180914402909143022091DC02ED
:10222000981730F4C1E0821768F0291758F009C0F8
:10223000891738F4C0E0821728F4291718F4C1E090
:1022400001C0C0E0891310C0509142023091410298
:10225000351738F04091DB02451718F0341708F0B5
:10226000C1E0381708F4C1E0281307C03091DB0241
:1022700080914202381708F0C1E0291309C09091FB
:10228000DB0280914102981718F4C1E001C0C0E060
:1022900080914002C81749F0CC2311F087E401C0B7
:1022A00086E60E94FC1BC09340028C2FCF910895BC
:1022B000CF93DF930E947A1BCAEDD2E089830E94FC
:1022C000131A0E949D1A80916E028A83DF91CF912A
:1022D00008950E94131A0E949D1A8091720290E044
:1022E0008E54984F90933F0280933E020E94131A9F
:1022F0000E949D1A809170028093DE020E94131A40
:102300000E949D1A809171028093DF0280E063E059
:102310000E946F200E94131A0E949D1AE0916F0282
:10232000F0E0EE0FFF1FEF5CFC4F6591749182E3CC
:1023300092E00E94C52B86E493E062E372E00E9483
:102340004A2A8AE063E00E946F2080913E029091C9
:102350003F020E94AC218FE20E945D218091DF024A
:102360008A3010F40E9495278091DF026AE070E0C5
:102370000E94B0238FE20E945D218091DE028A30AC
:1023800010F40E9495278091DE026AE070E00E94BE
:10239000B02380913C0290913D020A9724F482E19F
:1023A00060E00E946F2008958091DF029DEF980FFA
:1023B000983008F06DC09CEF980F963008F466C016
:1023C000833089F52091DE0240913E0250913F0218
:1023D00035E0349FC001359F900D112497FD039681
:1023E0009595879595958795049667E070E00E948E
:1023F000792E4FE150E0BA01681B790B38E1369F26
:10240000A001379F500D11244F5F5F4F8091DC0278
:1024100078E1279F90011124280F311D81E0421798
:102420005307BCF135C08A3099F52091DE02409106
:102430003E0250913F0235E0349FC001359F900D20
:10244000112497FD03969595879595958795019607
:1024500067E070E00E94792E4FE150E0BA01681BFE
:10246000790B38E1369FA001379F500D11244F5F43
:102470005F4F8091DC0278E1279F90011124280FA3
:10248000311D81E04217530724F402C081E0089512
:1024900080E00895EF92FF920F931F93CF93DF9305
:1024A00088E60E94C91E89E593E060E00E94391722
:1024B0000E946C1E88E690E067E070E00E944A1F70
:1024C00089E593E00E94F416CAEDD2E0982F969524
:1024D000969596959E70292F220F220F920F8F703E
:1024E000890F888389E593E00E94F416982F9295CE
:1024F0009F708F702AE0929F800D1124898389E557
:1025000093E00E94F416982F96959695969596705E
:10251000292F220F220F920F8F70890F8A8389E54E
:1025200093E00E94F416982F92959F708F702AE086
:10253000929F800D11248B8389E593E00E94F4160D
:10254000982F92959F708F702AE0929F800D112492
:102550008C8389E593E00E94F416982F92959F70E2
:102560008F702AE0929F800D11248D8389E593E07E
:102570000E94F416982F9F70925E82958F70E92EBC
:102580002AE0829FE00C1124EE828A81698170E04A
:10259000488150E02C8130E00D8110E0F12C9EE468
:1025A000E91A98EFF90A90E00E944E19CDB7DEB70C
:1025B000E6E00C94952DCF93C82F80912E028823AE
:1025C00029F080916400806280936400C7FF04C09A
:1025D00083E00E94B510C857C03420F082E00E940A
:1025E000B510CC53C03220F081E00E94B510CE511E
:1025F000C03118F080E00E94B51080912E0288232F
:1026000021F08091640010926400CF910895CF93DF
:102610000E9458110E940511809331028091DC02C2
:102620008A3018F481E060E005C06AE00E94592E0B
:10263000682F81E00E94C1228091DC02CAE06C2FE9
:102640000E94592E84E0692F0E94C12287E06AE02F
:102650000E94C1228091DB028A3018F48AE060E097
:1026600005C06C2F0E94592E682F8AE00E94C1225B
:102670008091DB026AE00E94592E8DE0692F0E9452
:10268000C12281E161E043E00E94A62781E161E08F
:102690000E946F2080913002811104C080912F022E
:1026A000811103C088E70E945D2180912E0288235A
:1026B00019F084E40E945D2180914502882349F04D
:1026C00080913102882311F08EE401C08EE60E94D1
:1026D0005D2180912D02882341F083E062E00E9419
:1026E0006F2085E293E00E94D52181E162E043E022
:1026F0000E94A62781E162E00E946F2080912C0257
:10270000882319F084EF0E945D218091490288237B
:1027100019F080E70E945D2180912B02882319F037
:1027200083E50E945D2180914E02811108C0809155
:102730004602811104C080912A02882319F080E5A5
:102740000E945D2186E00E942A2690933D0280939C
:102750003C02C4E08AE00E94DB1286E00E942A2646
:1027600020913C0230913D02820F931F90933D02D5
:1027700080933C02C15071F765E070E00E94792EB1
:10278000072E000C880B990B0E94D62B20E030E01E
:1027900040EA5BE30E94352C26E636E646E350EC41
:1027A0000E94B42D2CE938ED49E952E40E94352C01
:1027B0000E94202E1616170634F4643671052CF08C
:1027C00063E670E002C061E070E0CB01072E000C10
:1027D000AA0BBB0B9C01AD016A337105A4F0295310
:1027E000310941095109ABE5B0E00E945A2D2AE2B6
:1027F00030E040E050E00E943B2DDA01C90108962C
:10280000A11DB11D13C02150310941095109A7E093
:10281000B0E00E945A2D27E330E040E050E00E94F3
:102820003B2DDA01C9010196A11DB11D90933D0216
:1028300080933C0281E160E00E946F2080913C0225
:1028400090913D020A9744F481E160E040E20E94E9
:10285000B3270E94C22002C00E94B92080913C028E
:1028600090913D020E94AC2180912902882311F0B1
:102870008BE201C085E20E945D2182E160E00E945E
:102880006F20CF9108950E9480270E9469110E94B5
:1028900007130895CF92DF92EF92FF921F93CF9389
:1028A000DF93C82FD62F0E947C266B017C0120E687
:1028B000C20E2AEED21EE11CF11C10924D0214E051
:1028C00090914D02911115C08C2F0E94C4278093C6
:1028D0004D02D11104C088E70E94DB12F1CF0E94A3
:1028E0007C26C616D706E806F90650F710934D0267
:1028F000E7CF82E30E94DB12DF91CF911F91FF901F
:10290000EF90DF90CF900895ADE0B0E0EAE8F4E119
:102910000C94782DE82E81E06AE471E00E94CC20CE
:1029200082E062E571E00E94CC2083E062E471E025
:102930000E94CC208AE791E00E94992784E063E01E
:102940000E946F208BE593E00E94D5218BE063E02D
:1029500042E00E94B32780914902882319F092E057
:10296000F92E02C0FF24F39480914E02811102C01F
:102970004C99FECF0E94C22080E5D82E80914D0256
:10298000843009F4B7C182E060E00E946F2081E0EA
:10299000E8127EC0809101018A3010F40E949527D0
:1029A000809101016AE070E00E94B02380E20E9401
:1029B0005D212091480230E021503109D29EC001B2
:1029C000D39E900D112420910101820F911D820F41
:1029D000911D8E599F4F0E948A246AE070E00E94E8
:1029E000B0238AE30E945D212091480230E021500B
:1029F0003109D29EC001D39E900D11242091010176
:102A0000820F911D820F911D8D599F4F0E948A2424
:102A10008A3020F48D870E9495278D856AE070E0CA
:102A20000E94B02300E010E02091010130E021502D
:102A3000310940914802429FC001439F900D1124EB
:102A40008C599F4F800F911F0E948A24482F802FFE
:102A500061E00E94B3272091010130E0215031094B
:102A600040914802429FC001439F900D1124800F66
:102A7000911F88589F4F0E948A24482F802F62E020
:102A80000E94B3270F5F1F4F0431110569F659C02B
:102A900082E0E8124FC04C9909C08091490281112F
:102AA00005C080914F02882309F42AC180914F020A
:102AB000882329F085E593E00E94D52114C084E69F
:102AC0000E94DB1282E560E040E09E012F5F3F4FF5
:102AD0000CE010E00E94951F86E493E0BE016F5F5A
:102AE0007F4F0E944A2A87E062E00E946F204C9B41
:102AF00005C080914F02882309F41CC18091000118
:102B00008A3010F40E949527809100016AE070E0FD
:102B10000E94B0238FE20E945D21809147028A309B
:102B200010F40E949527809147026AE070E00E94AD
:102B3000B02307C083E0E81204C087E493E00E945A
:102B4000D5218FE060E00E946F20809149028823A8
:102B500029F081E493E00E94D52105C08FE060E078
:102B600045E00E94A6274C9906C080914902811138
:102B700002C043E001C041E088E063E00E94B32767
:102B80008F2D880F8F0D8B5F63E00E946F2081E097
:102B900061E00E944A1480914D02823009F497C08E
:102BA000833009F49EC0813009F0E8CEF816A9F10F
:102BB000F81648F082E0F81609F450C083E0F816E1
:102BC00009F453C0DBCE81E0E81207C08091010117
:102BD000823008F456C0815052C082E0E81611F0ED
:102BE000F12CCCCE80910001823018F0815080937E
:102BF000000180914F02882329F010924F0281E05A
:102C0000809350024C9BECCF909100018091480240
:102C1000890F81590E94FC1BB1CE4C9919C081E0EB
:102C2000E81205C0E0924F02809101010AC082E0E3
:102C3000E8120AC0F092500290910001809148027F
:102C4000890F81590E94FC1B81E080934E0202C0D3
:102C50000E94291C5F981092460290CE80914902F2
:102C60004C9972C0811170C089CE81E0E81217C002
:102C70008091010190914802891718F48F5F809329
:102C8000010180915002882329F01092500281E0C6
:102C900080934F024C9B72CE80910101BACF82E0AB
:102CA000E8126CCE8091000190914702891718F4C8
:102CB0008F5F8093000180914F02882329F010924A
:102CC0004F0281E0809350024C9B58CE9DCF809163
:102CD0004902811153CE82E08F1508F44FCEF39450
:102CE0004DCE80914902811149CEFF2009F478CF61
:102CF000FA9444CE0E9480272D96E7E00C94942D00
:102D00004091480250E041595F4F80910001480FC7
:102D1000511D83E0652F20E030E000E010E00E94CC
:102D2000951F84E60E94DB120E94291C84E60E9403
:102D3000DB12BCCE84E60E94DB128BE40E940D20E5
:102D4000875980930001DACE882329F05E9810928B
:102D500049028DE004C081E0809349028EE00E9428
:102D600029200CCE85ED8093BC008091BC0084FDB1
:102D7000FCCF10925403089540919502262F30E025
:102D8000240F311D21323105DCF42091540324300D
:102D9000C9F4FC0180E090E0861758F43091950268
:102DA0002191DC01AD58BD4FA30FB11D2C930196AD
:102DB000F3CF80919502680F6093950280E00895AB
:102DC00081E0089582E008950895E091580380918C
:102DD0005703E81730F4F0E0E654FD4F808190E0AF
:102DE00008958FEF9FEF08959091580380915703B6
:102DF000981750F4E92FF0E0E654FD4F208130E0C1
:102E00009F5F9093580302C02FEF3FEFC9010895D1
:102E10008091570390E020915803821B91090895F7
:102E2000A0E0B0E0E6E1F7E10C94772D7C01972F6C
:102E30008A0180910503882391F0C62FD72F6E0158
:102E4000C40ED51ECC15DD0571F06991D701ED9149
:102E5000FC910190F081E02DC7010995F3CF862FF9
:102E6000642F0E94BC16C801CDB7DEB7E8E00C9411
:102E7000932DA1E0B0E0EFE3F7E10C947D2D6983A1
:102E8000209105032223D1F020915503203240F0F8
:102E900021E030E0FC013383228380E090E015C024
:102EA00080915603E82FF0E0EA5FFC4F9981908310
:102EB0008F5F809356038093550305C0CE01019622
:102EC00061E00E94BC1681E090E02196E2E00C9463
:102ED000992D609368027093690280936A029093BF
:102EE0006B02DC01CB01845D9E4FAF4FBF4F8093DF
:102EF000640290936502A0936602B093670282E039
:102F000090E090936302809362020E947C2660931B
:102F10005E0270935F028093600290936102089555
:102F20001F920F920FB60F9211242F933F934F933E
:102F30005F936F937F938F939F93AF93BF93EF9321
:102F4000FF93E091B003F091B103309709F451C0C1
:102F5000968DA685B785858591FF04C09C918923B0
:102F600029F447C09C91892309F043C0A389B489FF
:102F70009C918589809589238C938689978901976F
:102F8000F1F7608D718DA685B785558538E020E015
:102F9000CB010197F1F7822F90E095958795282F27
:102FA0004C91452309F02068315091F7868D81FDC1
:102FB00020958091AF0390E001968F73992730910F
:102FC000AE03381749F0A091AF03B0E0AB59BC4F46
:102FD0002C938093AF0303C0868D8160868F828D92
:102FE000938D0197F1F7A389B4899C918589892BE9
:102FF0008C93FF91EF91BF91AF919F918F917F91B2
:103000006F915F914F913F912F910F900FBE0F9055
:103010001F901895E091B003F091B103E817F907FC
:1030200069F4A389B4899C918589809589238C93BF
:103030001092B1031092B00381E0089580E00895EA
:103040001F920F920FB60F9211242F933F934F931D
:103050005F936F937F938F939F93AF93BF93EF9300
:10306000FF938091B900887F803609F49CC068F591
:10307000883209F45BC090F4803109F454C038F40C
:10308000882309F4F6C0883009F44DC0F6C08831B1
:1030900009F44CC0803209F45DC0EFC0803409F4FB
:1030A00068C048F4803309F455C0883309F0E5C09E
:1030B00080930403D8C0803509F44FC0883509F4E3
:1030C0005DC0883409F0D9C0D6C0883909F4C7C0BA
:1030D000A8F4883709F467C038F4883609F463C067
:1030E000803709F460C0C9C0883809F4B8C0803995
:1030F00009F45FC0803809F0C0C05BC0803B09F4B0
:1031000086C038F4803A09F466C0883A09F47FC072
:10311000B4C0803C09F4A7C0883C09F4A4C0883B33
:1031200009F48AC0AAC08091E10210C09091030303
:1031300080910203981770F5E091030381E08E0FF0
:1031400080930303F0E0EE51FD4F80818093BB003C
:1031500085EC86C0809304038EC0E091030381E078
:103160008E0F809303038091BB00F0E0EE51FD4F82
:10317000808390910303809102036EC0E09103036A
:1031800081E08E0F809303038091BB00F0E0EE514D
:10319000FD4F80838091530381116DC081E0809346
:1031A000520384EA61C083E0809354031092B90211
:1031B000CFCF8091B902803208F051C0E091B902BE
:1031C00081E08E0F8093B9028091BB00F0E0E7565A
:1031D000FD4F8083BDCF85EC8093BC0010925403DB
:1031E0008091B902803230F4E091B902F0E0E75604
:1031F000FD4F10826091B90270E0E0919702F0916A
:10320000980289E992E009951092B90236C084E0EB
:10321000809354031092960210929502E0919302CB
:10322000F0919402099580919502811105C081E089
:103230008093950210927302E091960281E08E0FC6
:1032400080939602F0E0ED58FD4F80818093BB00A3
:103250009091960280919502981708F479CF85E8AD
:103260008093BC000AC085EC8093BC00109254038C
:1032700004C0109204030E94B216FF91EF91BF9117
:10328000AF919F918F917F916F915F914F913F91FE
:103290002F910F900FBE0F901F901895A0E0B0E0F7
:1032A000E4E5F9E10C946E2D382E962E842EF9016A
:1032B00084E6E816F1042CF082EBE81A87E0F80ABD
:1032C00003C08EE1E80EF11CE092720200937102DD
:1032D000E093700230926E0290926D0280926C02C6
:1032E000AE2DB0E020E833E341EE51E00E945A2DCC
:1032F0002B013C0122EB37E0FF2484E6C82ED12CC1
:10330000C0E9D1E0C901825B97408E159F05DCF4CE
:10331000C90183709927892B99F4C901B6010E94CC
:10332000792E892B31F4C901BE010E94792E892B97
:1033300039F480E8480E81E5581E81E0681E711C52
:103340002F5F3F4FDFCF8EE4E81A88EFF80AC701FE
:1033500064E670E00E94792E6C01C70160E971E0BB
:103360000E94792E5C01C1E0D0E0112783E0E822C1
:10337000FF24C017D1072CF5C230D10589F4E11420
:10338000F10471F4C114D10419F4A114B10441F48D
:1033900080E8480E8BE3581E86E2681E711C0FC041
:1033A000DE01AF54BE4FAC91B0E020E831E541E022
:1033B00050E00E945A2D460E571E681E791E219617
:1033C000D8CF292D30E0ACE3B0E00E94A42D6B01F2
:1033D0007C01C80CD11CE11CF11C232D30E0A0E1C4
:1033E000BEE00E94A42DC60ED71EE81EF91EDF0106
:1033F000BB27119720E831E541E050E00E94652DA0
:10340000DC01CB018C0D9D1DAE1DBF1DBC01CD018E
:10341000640D751D861D971D0E946917CDB7DEB717
:10342000E1E10C948A2DCF92DF92EF92FF920F93FD
:103430001F930E947C26C0905E02D0905F02E090B5
:103440006002F09061028B019C010C191D092E098C
:103450003F098091680290916902A0916A02B0913F
:103460006B02083E134021053105D0F00196A11DE5
:10347000B11D8093680290936902A0936A02B09391
:103480006B02B701A60148515C4F6F4F7F4F4093CD
:103490005E0250935F026093600270936102C9CF35
:1034A00040916402509165026091660270916702DA
:1034B00084179507A607B70788F1E0915C02F091A1
:1034C0005D02309759F109956115710581059105E6
:1034D00019F00E94691722C08091680290916902D8
:1034E000A0916A02B0916B02845D9E4FAF4FBF4FB7
:1034F0008093640290936502A0936602B093670282
:1035000081E090E02091620230916302232B11F45C
:1035100080E090E090936302809362026091680281
:103520007091690280916A0290916B021F910F91D4
:10353000FF90EF90DF90CF900895A0E0B0E0E3EA35
:10354000FAE10C946F2D4B015C018091580290912F
:103550005902A0915A02B0915B0288169906AA06F8
:10356000BB0609F4C2C08CE3C82ED12CE12CF12C8F
:10357000C501B401A70196010E94192D60936C0248
:10358000CA01B901A70196010E94192D60936D022D
:10359000CA01B90128E130E040E050E00E94192D55
:1035A00069017A0160936E02CA01B9016C5F7F4FB5
:1035B0008F4F9F4F27E030E040E050E00E94192DF0
:1035C0006F5F60936F02412C512C320140E004E6A2
:1035D00010E0C0E9D1E0242F30E02E54384FF9013B
:1035E000E370FF27309789F4C901B8010E94792E52
:1035F000892B31F4C901BE010E94792E892B29F44F
:103600008EE691E0A0E0B0E004C08DE691E0A0E09D
:10361000B0E0480E591E6A1E7B1ED301C201AA27C4
:10362000BB27C816D906EA06FB0610F04F5FD3CFBA
:1036300040937202309799F4C90164E670E00E94E9
:10364000792E892B39F4C90160E971E00E94792E45
:10365000892B29F48EE691E0A0E0B0E004C08DE66D
:1036600091E0A0E0B0E0481A590A6A0A7B0AC4183F
:10367000D508E608F708C90164E670E00E94792ED3
:10368000EC01C90160E971E00E94792EA2EBB1E082
:1036900020E0213039F4309749F4209729F400973D
:1036A00029F402C04C9103C04DE101C04CE150E04F
:1036B00060E070E0C416D506E606F70640F0C41ACE
:1036C000D50AE60AF70A2F5F11962C3011F72F5F03
:1036D00020937102C394C09270028092580290921B
:1036E0005902A0925A02B0925B02CDB7DEB7E0E178
:1036F0000C948B2D0E94131A0E949D1A80916D02CA
:1037000008951F920F920FB60F9211240F931F93DB
:103710002F933F934F935F936F937F938F939F93D9
:10372000AF93BF93EF93FF930E947C2620915602A4
:1037300030915702890120E030E06017710782075D
:103740009307B8F080916F008D7F80936F0082E0C7
:103750008093810081E080938000E0915402F09199
:103760005502908180915302809589238083109225
:103770005302E0915402F0915502908180915302DE
:1037800089278083FF91EF91BF91AF919F918F9196
:103790007F916F915F914F913F912F911F910F9169
:1037A0000F900FBE0F901F90189582EE91E09093AE
:1037B00028038093270387E293E00E940A18089564
:1037C0002091510230915202A901480F511DCA01A6
:1037D0000E94FB2C08952091510230915202A901C0
:1037E000480F511DCA010E94F32C08955E9886E48B
:1037F00090E00E94D2260895A1E0B0E0E2E0FCE172
:103800000C947B2D89830E94F61B83E060E0498144
:1038100020E030E000E010E00E94951F84E60E9466
:10382000DB1280915002882319F081E00E9436203B
:1038300080914F02882349F081E164E040E020E07C
:1038400030E000E010E00E94951F2196E4E00C9427
:10385000972D8EE00E94292084E60E94DB121092B0
:103860004F021092500210924E0284E00E943620C5
:103870000895CF93823009F477C038F4882321F17A
:10388000813009F0B8C0CAE060C0843009F48BC050
:1038900008F472C0853009F0AEC088E592E068ECAB
:1038A00070E041E028EC30E00E94962984EF91E03E
:1038B00068EC70E041E028EC30E00E94962980E955
:1038C00091E068EC70E092C086E091E06AEF70E011
:1038D00041E02DE431E00E94962984EC90E06DE710
:1038E00070E041E027EA30E00E94962984EC90E005
:1038F0006DE770E041E027EA30E00E9496298CED08
:1039000090E06AEF70E041E02DE431E00E949629FA
:1039100084EC90E06AEF70E041E02AE932E00E9436
:10392000962987EF90E06AEF70E041E02DE431E006
:103930000E94962986E091E06AEF70E041E02DE474
:1039400031E057C0C15009F456C088EB91E062E302
:1039500070E041E024E630E00E94962980914D021B
:10396000843081F7C0E0EECF88EB91E068EC70E046
:1039700041E024EF31E03DC088E592E064E670E08C
:1039800041E024E630E00E9496298CEB92E064E668
:1039900070E041E024E630E00E94962980E293E066
:1039A00064E670E023C088E592E060E570E041E005
:1039B00024E630E00E94962980E991E060E570E01D
:1039C00041E024E630E00E94962984EF91E060E532
:1039D00070E041E024E630E00E94962980E991E021
:1039E00060E570E041E028EC30E003C041E02CE20B
:1039F00031E00E949629CF910895CF93DF93C82F8D
:103A00000E9467208EE70E945D2188E693E00E9475
:103A1000D52181E160E00E946F200E94C220C13068
:103A200019F480914C0202C080914B026AE070E070
:103A30000E94B0230E94F61B81E080934A02D0E0EE
:103A400080914D028430F1F18FE060E00E946F20A0
:103A500081E061E00E944A1480914D02813081F73B
:103A6000C130A9F490914C02953019F410924C0297
:103A700003C09F5F90934C0280914C026AE070E01B
:103A80000E94B02380914C020E94391C19C0909171
:103A90004B029A3019F410924B0203C09F5F90932F
:103AA0004B0280914B026AE070E00E94B02380914B
:103AB0004E02811105C080914B028F5F0E94FC1B5A
:103AC000D1E0BECFDD2359F0C13021F487E0609111
:103AD0004C0203C083E160914B020E94E01B809185
:103AE0004E02811103C08EE00E94292010924A02EA
:103AF000DF91CF9108958F929F92AF92BF92CF9214
:103B0000DF92EF92FF92CF93DF936B017C010E94D3
:103B10007C264B015C0187E293E00E948822EC0145
:103B2000892B69F40E947C26AB01BC014819590914
:103B30006A097B094C155D056E057F0560F3CE01B2
:103B4000DF91CF91FF90EF90DF90CF90BF90AF903B
:103B50009F908F90089510925C0310925B0388EE03
:103B600093E0A0E0B0E080935D0390935E03A093A8
:103B70005F03B093600322ED31E030935A0320934A
:103B80005903109249031092480322E032E0309327
:103B900047032093460310924A0324E120934F03E6
:103BA00024E02093500328E02093510310922A032D
:103BB0001092290380932B0390932C03A0932D0341
:103BC000B0932E0382EE91E0909328038093270315
:103BD00010923E0310923D031092400310923F0357
:103BE0001092420310924103109244031092430337
:103BF000609145036E7F6D7F6093450366956170AC
:103C000081E0682783E00E94482583E061E00E940C
:103C10009425E7EAF3E0E491E0933703E3E9F3E086
:103C2000E491F0E0EE0FFF1FE458FC4F8591949172
:103C3000909339038093380382E060E00E949425DA
:103C40008091450381FD04C082E061E00E94482527
:103C500082E080933303E6EAF3E0E491E0933403F7
:103C6000E2E9F3E0E491F0E0EE0FFF1FEA57FC4FCA
:103C700085919491909336038093350382EF91E080
:103C800090932803809327031092580310925703B0
:103C900010925603109255031092540381E08093C2
:103CA00053031092520382E161E00E94482583E1B0
:103CB00061E00E9448258091B9008E7F8093B90011
:103CC0008091B9008D7F8093B90088E48093B8001B
:103CD00085E48093BC0008959091260320915503BC
:103CE000213208F04AC0809154038111FCCF32E0A8
:103CF0003093540331E0309353033FEF3093040388
:103D00001092030320930203A6E0B3E042EE52E0D8
:103D1000FA013E2F341B321718F43D913193F9CF3D
:103D20001092E1022091E102990F922B9093E1020F
:103D300090915203913061F4109252039091E102FC
:103D40009093BB009091BC0093FDF8CF95EC01C01F
:103D500095EE9093BC00909154039230E1F39091D2
:103D600004039F3F79F080910403803241F08091F9
:103D70000403803331F084E005C081E003C082E0B9
:103D800001C083E010925603109255031092050370
:103D9000089591E0909305038093260310925603B3
:103DA0001092550308950F931F93CF9388E60E94B6
:103DB000C91E89E593E060E00E9439170AED12E020
:103DC000F8018081CAE06C2F0E94592E692FF0E122
:103DD0008F9F600D112489E593E00E943917F80147
:103DE00081816C2F0E94592E692FF0E18F9F600D09
:103DF000112489E593E00E943917F80182816C2F24
:103E00000E94592E692FF0E18F9F600D112489E5E2
:103E100093E00E943917F80183816C2F0E94592E7C
:103E2000692FF0E18F9F600D112489E593E00E94D6
:103E30003917F80184816C2F0E94592E692FF0E107
:103E40008F9F600D112489E593E00E943917F801D6
:103E500085816C2F0E94592E692FF0E18F9F600D94
:103E6000112489E593E00E943917F80186818E516B
:103E70006C2F0E94592E692FF0E18F9F600D112445
:103E800089E593E00E9439170E946C1ECF911F9123
:103E90000F910895909154039111FCCF613208F075
:103EA00060E291E090935403909353032FEF20939B
:103EB000040310920303260F209302039093E10260
:103EC0009091E102880F892B8093E1028091520347
:103ED000813061F4109252038091E1028093BB0023
:103EE0008091BC0083FDF8CF85EC01C085EE809306
:103EF000BC00809154038130E1F380910303861765
:103F000010F460910303A2EEB2E02AEB32E0F90173
:103F10008E2F821B861718F48D918193F9CF109202
:103F2000580360935703862F0895A0E0B0E0EBE9B3
:103F3000FFE10C94772DE82EC62ED42EE901EDEF8B
:103F4000E80FE03128F4F0E0E254FE4FF08001C0C9
:103F5000F12C6AE070E080E090E00E947B1D892BEC
:103F600029F087E293E00E94A022F3CF87E293E05A
:103F70006EE70E94342287E293E062E06F0D0E94B8
:103F8000342287E293E06E2D0E943422FF2069F0F4
:103F900087E293E06C2D0E94342282E0F81205C083
:103FA00087E293E06D2D0E94342287E293E06FEE6A
:103FB0000E943422209749F00115110531F0CE01FD
:103FC00060E070E0A8010E94932E68EE73E080E04C
:103FD00090E00E947B1DE12CF12C0150110962E35D
:103FE00070E080E090E00E947B1D892B89F087E2E1
:103FF00093E00E94A022209791F3E016F10678F753
:10400000FE01EE0DFF1D8083C70101967C01E7CF05
:10401000CDB7DEB7E8E00C94932DA5E0B0E0E3E186
:10402000F0E20C947B2D60E040E09E012F5F3F4F5B
:1040300005E010E00E94951FCE01019660E070E05F
:1040400040E150E00E94AA2ACB012596E4E00C94BE
:10405000972D0F931F9360E040E020E030E000E0F8
:1040600010E00E94951F1F910F9108950F931F93C9
:10407000682F81E140E020E030E000E010E00E94A5
:10408000951F1F910F9108951092510386E493E0BC
:1040900060E00E94602A089588E08093510386E4DE
:1040A00093E060E00E94602A0895CF93C82F682FA4
:1040B000607F86E493E00E947A2A80E1C89FB00185
:1040C000112486E493E00E947A2ACF91089581E03A
:1040D0000E9455208BE39FE10197F1F70895A8E036
:1040E000B0E0E5E7F0E20C947D2D98E0EAE9F1E03C
:1040F000DE01119601900D929A95E1F790914E0391
:10410000961710F46FEF690FFE013196E60FF11D5F
:10411000E60FF11D9081890F80680E945520289636
:10412000E2E00C94992DCF93DF93C6E4D3E08E8127
:104130008B7F8E8388600E9455201B86CE0160E0B5
:104140000E94602ADF91CF910895CF93DF93C6E458
:10415000D3E08E81982F94609E838C600E945520BE
:1041600088E08B87CE0160E00E94602ADF91CF91CA
:104170000895E6E4F3E086818E7F868388600E945E
:1041800055200895E6E4F3E08681982F91609683A8
:1041900089600E9455200895A2E0B0E0E2EDF0E2CF
:1041A0000C94792D877028E0829FC00111248064CF
:1041B00069837A830E9455206981E62E7A81F72EE1
:1041C0008701085F1F4FF70161917F0186E493E04B
:1041D0000E94932AE016F106B1F72296E6E00C94CD
:1041E000952D1F93CF93DF9380914A03882309F481
:1041F00051C080914B03886080934B0314E010936F
:104200004E038BE39DE00197F1F786E493E0609124
:1042100051030E94602A8BEF98E00197F1F786E442
:1042200093E060E30E947A2ACBE4D6E4CE010197C2
:10423000F1F786E493E060E30E947A2A2197F1F790
:1042400086E493E060E30E947A2A83E592E0019796
:10425000F1F786E493E060E20E947A2A80914B03B2
:1042600080620E94552010934C030E94A5200E945A
:10427000672082E080934D0386E00E94552082E013
:104280000E9455208BE39FE10197F1F7DF91CF91D9
:104290001F91089580E280934A0380914A038034FD
:1042A00008F0A7CF0E94C91E0E946C1E882309F443
:1042B000A0CF80914A038F5FEECF682FE091460335
:1042C000F09147030190F081E02D86E493E0099599
:1042D00008958F929F92AF92BF920F931F93CF93A7
:1042E000DF93CDB7DEB7A1970FB6F894DEBF0FBE50
:1042F000CDBF19A2423008F44AE08E010F5D1F4F76
:10430000842E912CA12CB12CA50194010E94192D71
:10431000E62FB901CA0101501109EA3014F4E05D39
:1043200001C0E95CD801EC93232B242B252B61F7EA
:1043300086E493E0B8010E944A2AA1960FB6F89449
:10434000DEBF0FBECDBFDF91CF911F910F91BF9008
:10435000AF909F908F900895CF92DF92EF92FF924F
:10436000CF93DF936C01990FEE08FF08F7FE11C0A1
:104370008DE20E945D21EC0166277727CB016C1945
:104380007D098E099F094AE00E9469218C0F9D1FBB
:1043900005C0C701B6014AE00E946921DF91CF91B3
:1043A000FF90EF90DF90CF9008950F931F93CF93DE
:1043B000DF938C01C0E0D0E0F801EC0FFD1F6491A9
:1043C000662371F0E0914603F09147030190F0817C
:1043D000E02D86E493E00995892B11F02196ECCF2E
:1043E000CE01DF91CF911F910F910895A0E0B0E031
:1043F000ECEFF1E20C94772D6C017A018B01C0E0B7
:10440000D0E0CE15DF0589F0D8016D918D01D60180
:10441000ED91FC910190F081E02DC6010995892B69
:1044200011F47E0102C02196ECCFC701CDB7DEB7F3
:10443000E8E00C94932D2091B0033091B10328173C
:10444000390771F49091AE038091AF03981741F052
:10445000E091AE03F0E0EB59FC4F808190E00895CD
:104460008FEF9FEF089508951F93CF93DF93DC01A3
:104470005C962D913C915D972115310539F481E0D1
:1044800090E013969C938E9312973DC05196ED91B8
:10449000FC91529750969C915097892F80951FB709
:1044A0005E964C915E9741FB772770F941FD6095D0
:1044B000F8944081772311F0492B01C048234083B1
:1044C000E9012197F1F748E0508160FF02C0592BC4
:1044D00001C058235083E9012197F1F766954150B7
:1044E00099F7772321F090818923808303C080810D
:1044F000982B90831FBF5C968D919C915D9701973F
:10450000F1F721E030E0C901DF91CF911F910895CB
:104510002091B0033091B1032817390771F48091CD
:10452000AF032091AE0390E0805C9F4F821B910906
:1045300060E470E00E94792E089580E090E0089594
:104540002091B0033091B10328173907B9F4909145
:10455000AE038091AF03981789F0E091AE03F0E0CD
:10456000EB59FC4F80812091AE0330E02F5F3F4F2D
:104570002F7333272093AE0390E008958FEF9FEFC2
:104580000895CF93C62F8093B3031092B20360E0D7
:1045900043E00E94A6276091B2036F5F8091B3034E
:1045A00043E00E94A6278C2F90E08D30910508F003
:1045B000D5C0FC01E35AFF4F8091B3030C948D2EBC
:1045C0006091B20340E00E94B32781E067C0609130
:1045D000B20341E00E94B32782E00E945D21609116
:1045E000B2036F5F8091B30344E00E94B32787E07A
:1045F00014C06091B20346E00E94B32786E00E9497
:104600005D2182E00E945D216091B2036F5F809125
:10461000B30343E00E94B32784E00E945D2184E05D
:104620009BC06091B20346E00E94B32786E00E94DF
:104630005D2182E013C06091B20343E00E94B32782
:1046400084E00E945D2187E044C06091B20343E0B2
:104650000E94B32786E00E945D2186E00E945D21D2
:104660006091B2036F5F8091B30344E022C0609118
:10467000B20340E00E94B32786E00E945D2186E0FD
:1046800010C06091B20341E00E94B32781E01EC0D8
:104690006091B20340E00E94B32786E00E945D2152
:1046A00082E00E945D216091B2036F5F8091B3034D
:1046B00043E00E94B32784E00E945D2185E04CC066
:1046C0006091B20340E00E94B32786E00E945D2122
:1046D00082E00E945D218091B3036091B2036F5F1D
:1046E0008E5F47E00DC08F5F6091B20344E00E948F
:1046F000B3278091B3036091B2036F5F8F5F44E093
:104700000E94B3272BC06091B20340E00E94B32700
:1047100082E00E945D2180E00E945D216091B203F1
:104720006F5F8091B30347E00E94B32783E00E944C
:104730005D2187E011C06091B20347E00E94B3277A
:1047400080E00E945D216091B2036F5F8091B303AE
:1047500047E00E94B32783E00E945D21CF91089536
:10476000282FAB01672B61F4E0914603F0914703DA
:104770000190F081E02D86E493E0622F0995089581
:10478000682F70E080E090E00E94692108954F92C8
:104790005F926F927F928F929F92AF92BF92CF92D1
:1047A000DF92EF92FF92CF93DF936B017C01B42EE7
:1047B000A70196010E94542E882329F086E493E0F5
:1047C00066E072E00FC0C701B6019F772FEF3FEFA1
:1047D0004FE75FE70E944F2E18163CF486E493E003
:1047E0006AE072E00E944A2A86C0C701B6012FEF34
:1047F0003FEF4FE75FE40E944F2E18162CF486E43B
:1048000093E06EE072E0EECFC701B6012FEF3FEF0D
:104810004FE75FEC0E94CF2B87FDF1CFC701B601B8
:1048200020E030E0A9010E94CF2B87FF09C08DE274
:104830000E945D21EC01F7FAF094F7F8F09402C0C1
:10484000C0E0D0E0A12C60E070E080E09FE3AB141A
:1048500040F42DEC3CEC4CEC5DE30E94352CA39431
:10486000F6CFA70196010E94B42D2B013C010E94B6
:10487000202E6B017C010E94D42B9B01AC01C30153
:10488000B2010E94B32D2B013C01C701B6014AE0E1
:104890000E946921C80FD91FBB2029F08EE20E9417
:1048A0005D21C80FD91FFB2CFF2021F1C301B201EC
:1048B00020E030E040E251E40E94352C2B013C0125
:1048C0000E94202E4B01A12CB12CC501B4014AE05D
:1048D0000E946921C80FD91FC501B4010E94D42BC1
:1048E0009B01AC01C301B2010E94B32D2B013C011D
:1048F000FA94DACFCE01DF91CF91FF90EF90DF9065
:10490000CF90BF90AF909F908F907F906F905F906F
:104910004F900895A1E0B0E0E0E9F4E20C947C2D22
:10492000182F87E599830E94C91E89E593E0698164
:104930000E94391789E593E0612F0E9439170E9480
:104940006C1E87E590E061E070E00E944A1F89E5F7
:1049500093E00E94F4162196E3E00C94982D1092B7
:104960004203109241031092400310923F031092B1
:104970003E0310923D038DE991E0909344038093B0
:10498000430390913303963108F057C02DEB30E08C
:1049900030933E0320933D032BE931E030934003F5
:1049A00020933F032CE231E03093420320934103F4
:1049B00020916800983050F031E09E3008F430E0EB
:1049C00081E001C0880F3A95EAF701C084E0822BAC
:1049D00080936800983038F09E3040F0963148F06F
:1049E00020E030E008C02DE630E005C02BE630E0E6
:1049F00002C02CE630E030933B0320933A0398301A
:104A000030F481E001C0880F9A95EAF70EC0292F93
:104A100030E09E3018F42850310902C02E50310980
:104A200081E001C0880F2A95EAF780933C038091CA
:104A30004303909144030197F1F7809141039091D2
:104A40004203892B21F18091B0039091B10323E0BF
:104A500087329207E1F0009711F00E940A188091C6
:104A600045038E7F809345031092AF031092AE03EF
:104A700087E293E09093B1038093B003E0913A030F
:104A8000F0913B03908180913C03892B80830895B2
:104A900090E0FC01EE53FC4F3491FC01EC55FC4FCF
:104AA0002491FC01E057FC4FE491EE2309F43BC054
:104AB000332339F1333091F038F43130A9F032300A
:104AC00001F584B58F7D12C0373091F03830A1F0F8
:104AD0003430B9F4809180008F7D03C080918000D4
:104AE0008F77809380000DC084B58F7784BD09C017
:104AF0008091B0008F7703C08091B0008F7D80934C
:104B0000B000F0E0EE0FFF1FE458FC4FA591B49108
:104B10008FB7F894EC91611103C020952E2301C04A
:104B20002E2B2C938FBF0895CF93DF9390E0FC0141
:104B3000EC55FC4F2491FC01E057FC4F84918823F5
:104B400061F190E0880F991FFC01E854FC4FC5917A
:104B5000D491FC01E458FC4FA591B491611109C0B6
:104B60009FB7F8948881209582238883EC912E2327
:104B70000BC0623061F49FB7F8943881822F809522
:104B800083238883EC912E2B2C939FBF06C08FB775
:104B9000F894E8812E2B28838FBFDF91CF91089561
:104BA000CF93DF93EC018AE061E00E949425209787
:104BB00019F48AE060E005C0CF3FD10529F48AE00E
:104BC00061E00E94482543C0ECECF3E0E491E3305F
:104BD000F9F048F4E130B9F0E230A1F584B5806233
:104BE00084BDC8BD34C0E730E9F0E83019F1E430E5
:104BF00049F580918000806280938000D0938B0083
:104C0000C0938A0024C084B5806884BDC7BD1FC01E
:104C100080918000806880938000D0938900C09349
:104C2000880015C08091B00080688093B000C09368
:104C3000B3000DC08091B00080628093B000C0933B
:104C4000B40005C0C038D1050CF0B9CFB2CFDF91A8
:104C5000CF9108958E3008F08E50877080648093D5
:104C60007C0080917A00806480937A0080917A0041
:104C700086FDFCCF809178002091790090E0922B06
:104C80000895789484B5826084BD84B5816084BDC4
:104C900085B5826085BD85B5816085BDEEE6F0E0B5
:104CA000808181608083E1E8F0E010828081826011
:104CB0008083808181608083E0E8F0E08081816092
:104CC0008083E1EBF0E0808184608083E0EBF0E0C2
:104CD000808181608083EAE7F0E080818460808366
:104CE0008081826080838081816080838081806810
:104CF00080831092C10008952FB7F8946091AA03A1
:104D00007091AB038091AC039091AD032FBF0895D8
:104D10001F920F920FB60F9211242F933F938F93F0
:104D20009F93AF93BF938091AA039091AB03A091FF
:104D3000AC03B091AD033091A90323E0230F2D37CD
:104D400020F40196A11DB11D05C026E8230F02968F
:104D5000A11DB11D2093A9038093AA039093AB03D7
:104D6000A093AC03B093AD038091A5039091A603EB
:104D7000A091A703B091A8030196A11DB11D809336
:104D8000A5039093A603A093A703B093A803BF9194
:104D9000AF919F918F913F912F910F900FBE0F90E8
:104DA0001F9018958F929F92AF92BF92CF92DF92F1
:104DB000EF92FF926C010E947C264B015C01E12C7A
:104DC000F12C0E947C26DC01CB0188199909AA09E3
:104DD000BB098C159D05AE05BF0598F3FF90EF90BC
:104DE000DF90CF90BF90AF909F908F900895A0E0FC
:104DF000B0E0EDEFF6E20C94732D962F3FB7F894E8
:104E00004091A5035091A6036091A7037091A80358
:104E100026B5A89B06C02F3F21F04F5F5F4F6F4F15
:104E20007F4F3FBF762F652F542F4427420F511DD0
:104E3000611D711DE2E0440F551F661F771FEA9543
:104E4000D1F7EA01CC0FDD1FCC0FDD1F4C275D270A
:104E5000EA01CC0FCD2FCC1FDD0BD195C427D52770
:104E60007E01F694FE2CEE24F794E794082F10E0D0
:104E7000692F70E0601B710B072E000C880B990BDB
:104E80000E94D62B20E830E040E857E30E94352C02
:104E90004B015C01CE25DF25BE0180E090E00E9441
:104EA000D42B9B01AC01C501B4010E94352C6B01D0
:104EB0007C01B801110F880B990B0E94D62B9B0126
:104EC000AC01C701B6010E94B42D0E94202E862F8E
:104ED000CDB7DEB7ECE00C948F2D80E090E00E941F
:104EE000D0250E94932081E08093280210922E0208
:104EF00008950E94672082E060E00E946F2008957C
:104F00000F931F93CF930E94672002E011E0C0E04F
:104F10008C2FB8010E94CC20CF5F085F1F4FC83094
:104F2000B9F7CF911F910F91089580E30E945D2101
:104F30000895BC0180E00E94CC200E94672080E0A0
:104F40000E945D2180E20E945D210895CF93C42FCD
:104F50000E946F20CC2329F080E20E945D21C15085
:104F6000F9CFCF910895A1E0B0E0E9EBF7E20C941E
:104F70007D2D49830E946F204981842F0E945D21ED
:104F80002196E2E00C94992DCF93C82F0E944A12EB
:104F900080914902811106C04C9904C080914E0253
:104FA000811142C180913C0290913D0205970CF421
:104FB000C1E04C990DC080912A02811109C08091F5
:104FC0004602811105C080914A02882309F42FC14D
:104FD00080912C02882309F4F6C080914A02811145
:104FE000F2C00E9458112091B7039091B6038091AE
:104FF000DB022111E5C09813E3C03091B503209185
:10500000DC023213DDC08091280281110E94A520AC
:1050100080912E0281110E944C205E9880E06AE807
:1050200071E00E94CC200E9467200E94B92087E096
:1050300060E00E946F208091DC028A3010F40E94B0
:1050400095278091DC026AE070E00E94B0238AE339
:105050000E945D218091DB028A3010F40E94952726
:105060008091DB026AE070E00E94B02384E063E09C
:105070000E946F208EED93E00E94D52181E0809305
:105080004A028091460281115F988091B403813079
:1050900051F490912A02911106C090914E02911103
:1050A00002C080932A0210924D0280914D028430FA
:1050B00009F44CC09091B6038091DB02981346C06E
:1050C00085E062E040E00E94B32786ED93E00E9415
:1050D000D52180E00E945D2181E00E94C427809359
:1050E0004D028FEF90E00E94D0258091B403882379
:1050F00041F080914E02811104C0809149028823C1
:1051000021F080914C020E94391C8091B4038230BE
:1051100039F44C9905C080914E02882309F489C066
:1051200084EF91E00E94652985E062E049E00E94F9
:10513000A62780E090E00E94D02584EF91E00E94B5
:1051400065290E947A1B8093DB02AFCF80914E02CB
:10515000811104C08EE00E94292008C08091B40310
:10516000813021F48091460281115F9A10924A02A7
:105170009091B6038091DB02981309C09091B5031A
:105180008091DC02981303C081E08093B7030E94F2
:10519000672080912802882331F080912A028111B2
:1051A00002C04C9B4CC08091280281110E94932028
:1051B00080912E0281110E9444200E94431419C044
:1051C00098131092B7038EE00E942A26893C91051D
:1051D00008F077C087399105A0F182E30E94DB12C5
:1051E0008EE00E942A26873991050CF465C04C9BFD
:1051F00002C0C4E017C080912B028111FACFC11107
:10520000F8CF809149028111F4CF81E065E00E94DE
:10521000F726C82F843069F78FE16DE30E94F726E7
:105220000E94FC1B8C2F4FC010924E02BBCE5E9A88
:10523000CFCE80914B028F5F0E94FC1B71CF5E9A94
:10524000B2CF8536910550F082E30E94DB128EE0EA
:105250000E942A268536910584F52EC0C39748F012
:1052600082E30E94DB128EE00E942A26C3973CF55F
:1052700023C08EE00E942A2618161906ECF44C99D9
:1052800016C080912B02811112C0C11110C08091F3
:10529000490281110CC081E068E00E94F726843049
:1052A00031F48BE06FE10E94F7260E94FC1B82E341
:1052B0000E94DB12C1E0B6CF06C0C3E0B3CFC2E0AC
:1052C000B1CFC0E0AFCFCF9108958F929F92AF92B0
:1052D000BF92CF92DF92EF92FF926C010E947C26E8
:1052E0004B015C01E12CF12C0E947C26DC01CB01FE
:1052F00088199909AA09BB098C159D05AE05BF053A
:1053000028F481E00E94C427843071F781E00E9474
:10531000C427843011F480934D02FF90EF90DF900A
:10532000CF90BF90AF909F908F900895A0E0B0E095
:10533000ECE9F9E20C94752D5B01142FE9019C0155
:1053400040E050E060E079E08DE390E00E943B2D8A
:1053500069017A0181E0C81AD108E108F108C11495
:10536000D104E1E0EE06F10458F0CD2CDE2CEF2C58
:10537000FF24F1E0CF1AD108E108F10804E001C0F0
:1053800001E0A114B10449F00E947C266A0D7B1D46
:10539000709357026093560206C08FEF9FEF909371
:1053A00057028093560280915302811122C0EFEA86
:1053B000F3E08491809353026BE973E0FB019491D5
:1053C000E92FF0E0EE0FFF1FE458FC4F25913491D8
:1053D0003093550220935402FB016491E62FF0E0D4
:1053E000EE0FFF1FE854FC4FA591B491EC918E2B6A
:1053F0008C93D0928700C092860080918400909117
:105400008500A0E0B0E0C816D906EA06FB0620F445
:10541000D0928500C092840000610093810080E1F9
:105420008093800080916F00826080936F001111E3
:1054300004C0CE010E94D22607C080914D02843064
:1054400019F0CE010E946529CDB7DEB7EAE00C94D1
:10545000912D1F920F920FB60F9211248F93EF93FD
:10546000FF930FB6F894A8958091600088618093AF
:105470006000109260000FBEA895E0E6F0E0808129
:105480008F7B8083FF91EF918F910F900FBE0F90D4
:105490001F9018956115710581F0FB0101900020A6
:1054A000E9F73197AF01461B570BDC01ED91FC91F9
:1054B0000280F381E02D0995089580E090E0089541
:1054C000A1E0B0E0E6E6FAE20C947B2D8C01FC0151
:1054D000848169830E94C91EF80183856981682BD4
:1054E00089E593E00E9439170E946C1E2196E4E042
:1054F0000C94972D0F931F93CF938C01C62F0E946E
:10550000602A6C2F6460C8010E94602A6C2F6B7F38
:10551000C8010E94602A83EC90E00197F1F7CF91D7
:105520001F910F9108950F931F93CF938C01C62F56
:10553000607F61600E947A2A80E1C89FB0011124D7
:105540006160C8010E947A2A81E090E0CF911F91AA
:105550000F910895A6E0B0E0E0EBFAE20C946D2D17
:105560005C016B017A016115710519F0DB018D9306
:105570009C93E114F10429F0C7010297839708F086
:10558000DCC03501BFEF6B1A7B0AF5011081812F5A
:1055900090E00E94BC2B892B11F05301F2CF1D32F9
:1055A00049F43501F2E06F0E711CD50111961C9182
:1055B00001E009C01B3231F43501B2E06B0E711C01
:1055C000F501118100E0E114F10409F4C4C0F0E137
:1055D000EF16F10489F4103399F5D3018C918F7D86
:1055E000883509F0B2C011961C91B2E06B0E711CA7
:1055F000026050E1E52EF12CEAE0EE16F10409F428
:10560000B0C0F0E1EF16F104D9F028E0E216F104A1
:1056100051F438E0E32EF12C88248A94982CA82C9D
:105620004FE1B42E13C06FEF7FEFCB0197010F2C2A
:10563000000C440B550B0E94192D49015A0106C05C
:1056400088248A94982CA82C2FE0B22E7E826D821A
:1056500060E020E030E0A90127010F2C000C660873
:1056600077082D803E80E0EDE10FEA3060F08FEBAF
:10567000810F8A3110F4E9EC05C08FE9810F8A317E
:1056800090F5E9EAE10F8E2F90E08E159F055CF50D
:105690006F3F09F182169306A406B506D8F0C30140
:1056A000B2010E94092D2E2F30E040E050E0298306
:1056B0003A834B835C83260F371F481F591F89810C
:1056C0009A81AB81BC81281739074A075B0710F024
:1056D00061E001C06FEFED81FE813196FE83ED83C5
:1056E000D1011C91BECFC114D10489F0662339F0D9
:1056F0008D819E810197F6019183808308C001FF0F
:1057000006C08D819E810297D6018D939C9300FFE8
:1057100007C050954095309521953F4F4F4F5F4FB3
:1057200067FF10C082E290E09093BD038093BC03BA
:105730006FEF7FEF8FEF9FEF1BC060E070E080E0C6
:1057400090E016C0B901CA0113C010E3E114F104DE
:1057500009F45FCF51CF103309F43FCF9AE0E92E1F
:10576000F12C89E9882E982CA82C89E1B82E6ECFCF
:105770002696E2E10C94892D91110C94CC2B803269
:1057800019F089508550C8F70895FB01DC01059098
:105790000D920020E1F708959927882708950E9427
:1057A000112C08F481E00895E89409C097FB3EF4B9
:1057B00090958095709561957F4F8F4F9F4F99235E
:1057C000A9F0F92F96E9BB279395F69587957795DC
:1057D0006795B795F111F8CFFAF4BB0F11F460FF9C
:1057E0001BC06F5F7F4F8F4F9F4F16C0882311F0F4
:1057F00096E911C0772321F09EE8872F762F05C008
:10580000662371F096E8862F70E060E02AF09A95A2
:10581000660F771F881FDAF7880F9695879597F997
:105820000895990F0008550FAA0BE0E8FEEF161631
:105830001706E807F907C0F012161306E407F50784
:1058400098F0621B730B840B950B39F40A2661F0F8
:10585000232B242B252B21F408950A2609F4A1409B
:10586000A6958FEF811D811D08950E94482C0C94F0
:10587000B92C0E94AB2C38F00E94B22C20F095235A
:1058800011F00C94A22C0C94A82C11240C94ED2C47
:105890000E94CA2C70F3959FC1F3950F50E0551FDD
:1058A000629FF001729FBB27F00DB11D639FAA2775
:1058B000F00DB11DAA1F649F6627B00DA11D661FC4
:1058C000829F2227B00DA11D621F739FB00DA11DE5
:1058D000621F839FA00D611D221F749F3327A00D9F
:1058E000611D231F849F600D211D822F762F6A2F3B
:1058F00011249F5750409AF0F1F088234AF0EE0FA0
:10590000FF1FBB1F661F771F881F91505040A9F7CC
:105910009E3F510580F00C94A22C0C94ED2C5F3F1F
:10592000E4F3983ED4F3869577956795B795F79508
:10593000E7959F5FC1F7FE2B880F911D9695879580
:1059400097F9089597F99F6780E870E060E00895FF
:105950009FEF80EC089500240A9416161706180687
:105960000906089500240A94121613061406050663
:105970000895092E0394000C11F4882352F0BB0FF4
:1059800040F4BF2B11F460FF04C06F5F7F4F8F4F57
:105990009F4F089557FD9058440F551F59F05F3F92
:1059A00071F04795880F97FB991F61F09F3F79F041
:1059B00087950895121613061406551FF2CF4695C3
:1059C000F1DF08C0161617061806991FF1CF869545
:1059D0007105610508940895E894BB276627772729
:1059E000CB0197F90895F999FECF92BD81BDF89A40
:1059F000992780B50895262FF999FECF1FBA92BD39
:105A000081BD20BD0FB6F894FA9AF99A0FBE01969F
:105A10000895DB018F939F930E945A2DBF91AF9100
:105A2000A29F800D911DA39F900DB29F900D1124F8
:105A30000895A1E21A2EAA1BBB1BFD010DC0AA1FCF
:105A4000BB1FEE1FFF1FA217B307E407F50720F0E7
:105A5000A21BB30BE40BF50B661F771F881F991F62
:105A60001A9469F760957095809590959B01AC01AB
:105A7000BD01CF010895052E97FB1EF400940E94EE
:105A8000522D57FD07D00E94192D07FC03D04EF46C
:105A90000C94522D50954095309521953F4F4F4F86
:105AA0005F4F089590958095709561957F4F8F4FCA
:105AB0009F4F08950E94A42DA59F900DB49F900D17
:105AC000A49F800D911D11240895B7FF0C945A2DA9
:105AD0000E945A2D821B930B08952F923F924F9252
