:100000000C9420020C9448020C9448020C944C1C52
:100010000C944C1C0C944C1C0C94BE2E0C9448025A
:100020000C9448020C9448020C9448020C94392118
:100030000C9448020C9448020C9448020C94480218
:100040000C94021C0C9448020C9448020C94480234
:100050000C9448020C9448020C9448020C944802F8
:100060000C94BA1D0C944802670B6A0B6C0B6E0B58
:10007000700B730B750B770B790B7B0B7D0B9E0B4A
:10008000AB0BBC0BC80B0B0C1D0CF50B060CD30BF0
:10009000DF0B391640164D16601668167016751669
:1000A00077167C167E16881628182F1841185918AE
:1000B00063186D187F1889189018A818BB18CB18EA
:1000C000E318C023C223C523C723C923C923CC23D4
:1000D000CE23D023D223EF23F623FD230B24202489
:1000E0002E243C244A245E246C2442697274686481
:1000F0006179004861707079004920616D20686500
:1001000072652100506C61792073746F7269657338
:100110000041555820696E70757400506C617920EB
:100120006F776E2066696C657300506C6179207220
:100130006164696F005B205D204D5033005B205D82
:1001400020526164696F005B205D20546F6E650012
:100150005B6F66665D005B6F6E205D004D50330027
:10016000526164696F00546F6E6500416C61726D1D
:1001700020746F6E65205B20202020205D004E657E
:100180007720616C61726D2074696D65006F6666C1
:10019000006F6E20003230004E696768746D6F64C6
:1001A00065205B2020205D004E65772074696D65B9
:1001B0002F6461746500543A2000426174743A00FF
:1001C00020543A200052414D3A2020004932433A0F
:1001D00020002D333030363137004669726D77613B
:1001E00072653A20006279204E696B6F6C616920FC
:1001F0005261646B65004E4F4B4F2062656C6F6EB1
:10020000677320746F004D79204E4F4B4F00446947
:100210007374616E6365206C69676874205B205D30
:100220000053696C656E742020202020202020203F
:100230005B205D00506F77657220736176652020CA
:100240002020205B205D006D6F72652E2E2E0044F5
:10025000697374616E6365202B2F2D205B205D0018
:100260004576656E74732020202B2F2D205B205D3A
:10027000004C45442020202020202B2F2D205B20C7
:100280005D00536574204E4F4B4F005365742063DF
:100290006C6F636B0053657420616C61726D00500C
:1002A0006C617920736F6D657468696E6700507258
:1002B000657373206E6F736500206175662056004C
:1002C0002055706461746520636F6D706C65746532
:1002D0006400536174757264617900467269646187
:1002E00079005468757273646179005765646E654E
:1002F000736461790054756573646179004D6F6E44
:100300006461790053756E64617900007361766988
:100310006E672E2E2E20202020202020202020003E
:100320004765627572747374616721000B0304037F
:10033000FD02F502EB02E202DB02D20253746174A9
:10034000696F6E20005B317C735D205B327C735D76
:10035000205B337C735D20005D5B3C5D5B205D5BFF
:100360003E5D5B0000000000240027002A00000022
:100370000008000201000003040700000000000064
:1003800000005041555345004E6F204D50337320AF
:10039000666F756E640053746F7279005B3C5D5BD1
:1003A000205D5B205D5B3E5D0020416C61726D20D5
:1003B000746F6E65202B2F2D205B205D006F6666AD
:1003C000006F6E2000756E74696C0066726F6D0050
:1003D0005B2020205D2044696D205B205D0053651B
:1003E00074206E696768746D6F64650000000000BA
:1003F000250028002B000000000023002600290013
:1004000004040404040404040202020202020303BA
:1004100003030303010204081020408001020408C2
:10042000102001020408102020416C61726D200030
:100430005072657373204E6F7365000096278D218F
:1004400011241FBECFEFD8E0DEBFCDBF12E0A0E089
:10045000B1E0E8E7F6E602C005900D92A231B107DF
:10046000D9F723E0A2E1B2E001C01D92A13EB2079C
:10047000E1F712E0CFE1D2E004C02197FE010E9433
:100480002233CE31D107C9F70E948F020C942F334B
:100490000C940000CF92DF92EF92FF920F931F9384
:1004A000E82FF92F05C0015011092109310961F127
:1004B000908196239417B9F305C0015011092109C1
:1004C000310911F1908196239413F7CFC12CD12CCF
:1004D000E12CF12C0AC08FEFC81AD80AE80AF80AF2
:1004E0000C151D052E053F0579F0808186238417A4
:1004F00091F36C2D7D2D8E2D9F2D1F910F91FF90CF
:10050000EF90DF90CF90089560E070E080E090E0A1
:100510001F910F91FF90EF90DF90CF900895A5E08D
:10052000B0E0E5E9F2E00C940232789484B58260A0
:1005300084BD84B5816084BD85B5826085BD85B587
:10054000816085BD80916E00816080936E00109205
:100550008100809181008260809381008091810080
:100560008160809381008091800081608093800011
:100570008091B10084608093B1008091B00081606F
:100580008093B00080917A00846080937A0080919B
:100590007A00826080937A0080917A0081608093F3
:1005A0007A0080917A00806880937A001092C1006E
:1005B0001CBC80E880BF8FE380937E008091640044
:1005C0008460809364008091640082608093640002
:1005D0008091640080648093640088EE8AB98CE224
:1005E00084B98EE387B980E48BB981E088B9109231
:1005F000940310929303109292031092910310921D
:10060000900310928F038DE991E09093960380936D
:10061000950390918503963108F057C02DEB30E09B
:100620003093900320938F032BE931E030939203B2
:10063000209391032CE231E03093940320939303B1
:1006400020916800983050F031E09E3008F430E09E
:1006500081E001C0880F3A95EAF701C084E0822B5F
:1006600080936800983038F09E3040F0963148F022
:1006700020E030E008C02DE630E005C02BE630E099
:1006800002C02CE630E030938D0320938C03983029
:1006900030F481E001C0880F9A95EAF70EC0292F47
:1006A00030E09E3018F42850310902C02E50310934
:1006B00081E001C0880F2A95EAF780938E0380912C
:1006C0009503909196030197F1F780919303909190
:1006D0009403892B21F180917F029091800223E085
:1006E00089379207E1F0009711F00E94C61C8091B3
:1006F00097038E7F8093970310927D0210927E0263
:1007000089E793E09093800280937F02E0918C03CD
:10071000F0918D03908180918E03892B80838EE0F0
:100720000E94002A8CE00E94002A84EF91E00E943F
:10073000C82A86E06EE140E020E030E000E010E012
:100740000E946C2984E00E940D2A0E9479190E945F
:1007500031198091B1039091B203807F8A609093A8
:10076000B2038093B1030E940F190E946D1980E0BB
:1007700090E00E9488313EE1839FC0011124909354
:1007800095028093940281E00E94A32191E081115F
:1007900001C090E09093210282E00E94A321809307
:1007A0001E0283E00E94A32191E0811101C090E02C
:1007B0009093220284E00E94A3218093D90385E0D4
:1007C0000E94A3218093D80386E00E94A3218093F6
:1007D000D70387E00E94A3218093020388E00E9450
:1007E000A3218093250289E00E94A32180931D020A
:1007F0008AE00E94A32191E0811101C090E09093D2
:100800001C028BE00E94A32191E0811101C090E0C5
:10081000909308038CE00E94A321809306038DE04F
:100820000E94A321809305038EE00E94A321809360
:1008300004038FE00E94A3218093030380E10E94C0
:10084000A32191E0811101C090E090931B0281E10E
:100850000E94A321182F82E10E94A321282F30E0BB
:10086000C9014AE0149F800D911D112490938E02BE
:1008700080938D0283E10E94A3218093010317E3FB
:10088000E12E12E0F12E15E1812F0E94A321082F05
:1008900081E0810F0E94A321282F30E0C9016AE086
:1008A000069F800D911D1124F701819391937F0183
:1008B0001E5F1B3149F78BE10E94A32191E081115A
:1008C00001C090E090931A028CE10E94A32191E074
:1008D000811101C090E09093070380E090E00E94B6
:1008E000D81A8093190281E090E00E94D81A809370
:1008F000180282E090E00E94D81A8093FE0288E6F7
:100900000E94A0288BEC93E062EA71E00E94DF2E47
:100910000E94432884E10E94381388E60E94A028A0
:100920008BEC93E065EA71E00E94DF2E0E94432881
:100930000E94A71280919C03882309F496C080919D
:100940009D03886080939D03B4E0FB2EF092A0038A
:100950008BE39DE00197F1F788E993E06091A303B1
:100960000E94F52E8BEF98E00197F1F788E993E06C
:1009700060E30E940F2F0BE416E4C8010197F1F722
:1009800088E993E060E30E940F2FC8010197F1F717
:1009900088E993E060E30E940F2F83E592E00197DE
:1009A000F1F788E993E060E20E940F2F80919D03A8
:1009B00080620E942C2AF0929E030E947C2A0E9450
:1009C0003E2A82E080939F0386E00E942C2A82E0E8
:1009D0000E942C2A8BE39FE10197F1F70E940F2CD4
:1009E00084E190E00E948831182F8A3008F050C0CE
:1009F0000E943E2A80EC92E00E94652B83E061E039
:100A000046E50E94442C80E090E00E943C2B8EE260
:100A10000E94ED2A812F6AE00E94EE32892F90E039
:100A20000E943C2B89EB92E00E94652B81E090E0D4
:100A30000E943C2B8EE20E94ED2A80E090E00E9412
:100A40003C2B84E064E00E94462A8EEA92E00E94F9
:100A5000652B84E190E06AE00E94903181E060E0E3
:100A60000E94A7140E943E2A13C080E280939C0338
:100A700080919C03803408F062CF0E94A0280E94DD
:100A80004328882309F45BCF80919C038F5FEECFCE
:100A90000E94AE2188E592E060E570E040E020E54C
:100AA00030E00E942B2E80E793E066E970E040E0A2
:100AB00026E930E00E942B2E5E9A0E94B5110E941A
:100AC00062118093360287E40E94E4299091FE022D
:100AD000891B8F568093FD02F3E6FC8323E62B836C
:100AE000CE0101961C010E94B51187E00E94DF1B18
:100AF0008132934024F080912002882351F087E0D6
:100B00000E94DF1B8032934004F5809120028823ED
:100B1000E1F09091200281E089278093200287E014
:100B20000E94DF1B8032934014F00C94850F80915B
:100B30002402882311F40C94850F80911C028823D1
:100B400011F40C94850F0E94FC2B80912A032B81B9
:100B5000281709F491C1809127028823E1F0809140
:100B600007038823C1F080911F02811114C0809176
:100B70001C02882339F080912002811103C00E9459
:100B8000FC2B09C080912402811105C00E941B2A00
:100B900081E0809324021092170280912B033C8104
:100BA000381709F4E2C080911F0281117AC00E94B7
:100BB000C6119091180280912E0398136EC09091E7
:100BC000190280912D03981368C081E0809323025D
:100BD00080911602811165C080912702811161C048
:100BE00062E771E00E94A32A80918F0281110E9426
:100BF0006D198091900281115F988091210281117D
:100C000007C080919102811103C08FE60E94B42138
:100C100080ED97E00E94C82A0E943221082F0E948E
:100C20003221081721F04C9902C00C949D0F80913D
:100C30008C02843011F40C949D0F0E943E2A87E0B0
:100C400061E00E94462A83EF90E00E94652B86E0D7
:100C500062E00E94462A8AEE90E00E94652B81E0C5
:100C600065E00E94862B182F112391F080E064E14B
:100C70000E94862B60E040E00E94442C80E064E10A
:100C80000E94862B63E040E00E94442C1150ECCF80
:100C900084EF91E00E94FA2DC2CF109216021092BA
:100CA000230210911B020E943112181709F45DC033
:100CB00080912B03843008F458C0112311F40C9454
:100CC000B40F815080932B0381E0D12ED826D0928F
:100CD0001B0280912B0360912A0370E0409129034D
:100CE00050E020912D0330E000912E0310E0E090C1
:100CF0003402F090350290E00E94061F8091340289
:100D0000825B80932F030E94AA2880919402805FC7
:100D10006D2D0E94982100919402109195020E3D34
:100D200043E0140711F40C94B70F025E1F4F91E0DB
:100D3000F92EF00E80919402890F9D830E94A321C9
:100D4000682F8F2D0E9498219D819F5F9E3181F792
:100D50001093950200939402C8016EE170E00E9426
:100D6000FA3280E090E00E94903180911F02811160
:100D700002C00E9464138091270281117DC080917E
:100D80002102811179C080913202909133020A9739
:100D90007CF48091200281110BC00E94AE2188E971
:100DA00093E060E570E040E020E530E00E942B2E0B
:100DB0004C9962C08091FF0281115EC080918F02C8
:100DC00081115AC0809132029091330202970CF443
:100DD00053C0E0911D02F0E0E855FE4F108161E044
:100DE000610F81E00E94862B811346C00C94BB0FDB
:100DF000163010F00C944810143011F00C94401080
:100E000085E061E00E94462A89EF90E00E94652B10
:100E100080911E026CE1869FC00111240E94851BF7
:100E20000E94AE2180E293E06AEF70E040E02EE0A5
:100E300031E00E942B2E80E293E066E970E040E012
:100E400024EB30E00E942B2E84E992E06AEF70E000
:100E500040E02AEF30E00E942B2E80ED97E00E94C8
:100E6000FA2D80E090E00E94851B0E94A0148091E2
:100E7000240281110C94331080911F02811175C0DE
:100E800080912602811171C080912502882309F486
:100E90006CC02D9A83E290E00197F1F72D98E0E283
:100EA000F4E04491ECE0F4E0E491F0E0EE0FFF1F99
:100EB000EA50FC4F85919491642F00E412E42FE0F6
:100EC00030E00E944A02611571058105910549F0E3
:100ED000DC01CB010196A11DB11DBC01CD019F70AC
:100EE00003C060E070E0CB01109125022AE330E0FE
:100EF00040E050E00E94AE31E9E11E9FC0011124A4
:100F0000092E000CAA0BBB0B281739074A075B07F1
:100F100060F580912402882381F080911A02882351
:100F200061F00E94232A0E94F61B609312027093C4
:100F3000130280931402909315028091270281116D
:100F400014C080911702811110C080918F0281110D
:100F50000CC08091FF02811108C080912102811193
:100F600004C04C9902C00C94DC0F809124028823A9
:100F7000C9F080911A028823A9F00E94F61B009103
:100F800012021091130220911402309115020A5698
:100F90001F4F2F4F3F4F061717072807390710F429
:100FA0000C94E70FF0912A03FB8320912B032C83F1
:100FB00080E00E94552C80938C0290911F02823019
:100FC00009F44EC7833009F45FC7813009F092C736
:100FD000911190C780E50E9438130E94902A0E94C8
:100FE0003E2A80912102882331F088E70E94ED2A71
:100FF000CC24C39401C0C12C82E060E00E94462A48
:101000008FE992E00E94652B82E061E00E94462A0F
:1010100085E992E00E94652B82E062E00E94462A08
:101020008BE892E00E94652B82E063E00E94462AF2
:1010300082E892E00E94652BDC2C80918C02843047
:1010400009F42AC780E06D2D4EE70E94442C80E011
:1010500061E00E94A71480918C02823009F4EBC6F3
:10106000833009F4F3C6813041F731E0D31609F437
:10107000DEC0D31638F142E0D41609F47DC263E035
:10108000D612DBCF0E94082C81E792E00E94652BEC
:1010900082E061E00E94462A80E692E00E94652B91
:1010A00082E062E00E94462A8FE492E00E94652B73
:1010B00082E063E00E94462A87E492E00E94652B6A
:1010C00010E05EC480E06AE771E00E94A32A0E94FB
:1010D000082C8AE291E00E94652B82E061E00E9488
:1010E000462A8BE191E00E94652B82E062E00E943B
:1010F000462A81E191E00E94652B82E063E00E9434
:10110000462A84E091E00E94652B10E080918C02D9
:10111000843009F489C080918F02811102C040E2BD
:1011200001C040E081E060E00E94442C8091930285
:10113000811102C040E201C040E081E061E00E9414
:10114000442C80919002811102C040E201C040E035
:1011500081E062E00E94442C80919202811102C0E1
:1011600040E201C040E081E063E00E94442C80E066
:10117000612F4EE70E94442C81E061E00E94A71499
:1011800080918C028230E1F1833009F443C08130D8
:1011900009F0BCCF113059F038F0123091F0133013
:1011A00009F0B4CF81E00AC00E94E114AFCF809172
:1011B000FD02882311F082E001C083E00E942D250A
:1011C000A5CF8091900281110EC080918F02811174
:1011D0000E94F5218091FF02811102C04C99FBC64B
:1011E0005E985F9A02C05E9A5F989091900281E04B
:1011F00089278093900284EF91E00E94C82A86CFCD
:1012000080E0612F40E20E94442C133008F07ECF32
:101210001F5F7CCF80E0612F40E20E94442C1123AD
:1012200009F474CF115072CF0E940F2C06CFD092C8
:1012300000038AE891E00E942C2C8091D8038A3028
:1012400010F40E94242C8091D8036AE070E00E9480
:10125000F8188AE30E94ED2A8091D9038A3010F4AD
:101260000E94242C8091D9036AE070E00E94F81853
:1012700080E061E00E94462A8EE791E00E94652BA3
:1012800082E063E00E94462A8BE691E00E94652B93
:101290008EE063E00E94462A8091D703813049F0B6
:1012A00028F0823051F48CE591E005C086E691E0AB
:1012B00002C080E691E00E94652B0E94992A00E01E
:1012C00010E06AE0F62E74E1E72E80918C02843003
:1012D00009F439C1153010F062E001C063E080E02C
:1012E00040E20E94442C153010F063E001C062E03F
:1012F00080E04EE70E94442C82E062E00E94462A91
:101300008091D8038A3010F40E94242C8091D80355
:101310006AE070E00E94F8188AE30E94ED2A80914A
:10132000D9038A3010F40E94242C8091D9036AE0FA
:1013300070E00E94F81887E062E046E00E94382CD6
:1013400080912202882319F086E591E002C080E5B1
:1013500091E00E94652B123089F030F4112361F086
:101360001130A1F483E00FC0143061F048F0153063
:1013700069F48EE063E008C082E005C085E003C048
:1013800086E001C08EE062E00E94462A80E061E0D3
:101390000E94A71480918C02823009F4C8C0833067
:1013A00009F4CAC0813009F090CF123009F44FC05F
:1013B00028F4112349F11130A9F1C3C0143009F404
:1013C00062C008F452C0153009F0BBC00E94902AD8
:1013D000B0902202109222020E94082C87E491E031
:1013E0000E94652B82E061E00E94462A8DE391E035
:1013F0000E94652B82E062E00E94462A85E391E02C
:101400000E94652B00E060C08091D8038E3020F4EC
:10141000865F8093D80395C06F2D0E94EE32909323
:10142000D8038FC02091D803822F6F2D0E94EE32F7
:10143000993011F4295001C02F5F2093D803809177
:10144000D803883109F07DC0E092D8037AC080913A
:10145000D903813320F4865F8093D90372C06F2D46
:101460000E94EE329093D9036CC02091D903822F51
:101470006F2D0E94EE32993011F4295001C02F5F78
:101480002093D9035EC09091220289278093220283
:1014900058C083E06091D70348E50E94442C80E067
:1014A000602F4EE70E94442C83E0602F0E94462A62
:1014B00080E061E00E94A71480918C028230E9F004
:1014C000833021F1813029F080918C02843009F73A
:1014D00026C00093D70386E0602F0E949821809158
:1014E000D703811103C081E00E94AF248091D7030C
:1014F000823051F70E94AF24E7CF80E0602F40E2B6
:101500000E94442C023000F70F5FDECF80E0602F96
:1015100040E20E94442C0023B9F20150D5CFB09292
:10152000220280E062E071E00E94A32A0AC0153026
:1015300008F0CBCE1F5FC9CE112309F4C6CE1150DF
:10154000C4CE01E0C2CE002379F083E06091220294
:101550000E94982184E06091D9030E94982185E03F
:101560006091D8030E94982180E062E071E00E94BF
:10157000A32A1092000361CDA0902B0380902A0330
:10158000B0902D0390902E0382E891E00E942C2CC5
:1015900088EA91E00E94652B82E061E00E94462A81
:1015A00088E991E00E94652B0E94992A809134027B
:1015B00090913502805D974090933502809334027C
:1015C00010E000E080918C02843009F459C182E07F
:1015D00062E00E94462A89E08A1510F00E94242CBD
:1015E0008A2D6AE070E00E94F8188AE30E94ED2AD2
:1015F00099E0981510F00E94242C882D6AE070E084
:101600000E94F81882E063E00E94462A85E991E092
:101610000E94652B80913402909135020A9714F450
:101620000E94242C80913402909135020E943C2B20
:101630008FE20E94ED2AE9E0E91510F00E94242CC7
:10164000892D6AE070E00E94F8188FE20E94ED2A6E
:10165000F9E0FB1510F00E94242C8B2D6AE070E05D
:101660000E94F8188DE061E00E94462A80910803EC
:10167000882319F081E991E002C08DE891E00E9491
:10168000652B80E00111AAC462E040E20E94442C74
:1016900080E061E00E94462A8BEF800F863048F49C
:1016A00080E062E040E20E94442C80E063E00E941F
:1016B000462A8EE70E94ED2A402E512C2BE042163E
:1016C0005104F8F4F201EC5CFF4F0C9422338DE0EE
:1016D00061E015C082E005C083E003C085E001C081
:1016E00086E062E00CC084E009C085E007C087E0C6
:1016F00005C088E003C08AE001C08BE063E00E947F
:10170000462A80E061E00E94A71480918C0282301A
:1017100009F4A8C0833009F4AAC0813009F052CF7F
:10172000002349F0F2013197EA30F10590F4E15CD1
:10173000FF4F0C9422330E94042344CF3DE03A151E
:1017400018F04AE0A40E05C08A2D6AE00E94EE322D
:10175000A92E11E037CF8A2D6AE00E94EE3299302F
:1017600019F467EFA60E01C0A39488E111E0A81256
:1017700029CF54E1A52E26CF90E3981518F0EAE082
:101780008E0EE7CF882D6AE00E94EE32892EE1CFDF
:10179000882D6AE00E94EE32993019F4F7EF8F0E2F
:1017A000D8CF8394D6CF25E12B1518F03AE0B30EAD
:1017B000D0CF8B2D6AE00E94EE32B92E0DC08B2D5A
:1017C0006AE00E94EE32993019F447EFB40E01C07E
:1017D000B3946FE16B1530F0B110BBCF11E0BB24B7
:1017E000B394F0CE4EE1B42EB4CF82E0891518F058
:1017F0009AE0990EAECF892D6AE00E94EE32992EC2
:101800009111A7CF11E099249394DCCEEBE0E91578
:1018100098F193949ECF809134029091350289354E
:10182000910514F40A9604C06AE070E00E940E3339
:1018300090933502809334028CCF20913402309102
:101840003502C9016AE070E00E940E33099719F46D
:101850002950310902C02F5F3F4F3093350220934A
:10186000340277CF0A3008F0ADCE0F5FABCE002345
:1018700009F4A8CE0150A6CE11E03AE0932EA2CEF4
:10188000E0903402F0903502F0E3EF1AF8EFFF0A2F
:10189000F0923502E0923402112339F1682D70E0A4
:1018A0002B2D30E0092D10E08A2D90E040E050E033
:1018B0000E94061FA0922B0380922A0310922903F4
:1018C000B0922D0390922E0380913402825B80931C
:1018D0002F030E94AA280E94A0140E943112682F90
:1018E00080931B0280E10E94982180E062E071E019
:1018F0000E94A32AA2CB0E94992A111147C080916D
:101900001E022CE1829FC00111240E94851B13300E
:1019100011F40E94902A80E0612F4EE70E94442C2F
:1019200080E160E00E94462A80911E026AE070E039
:101930000E94F81880E161E00E94462A80911D0211
:101940006AE070E00E94F81880E162E00E94462A96
:10195000809125026AE070E00E94F81880E1612F12
:101960000E94462A80E061E00E94A71480918C02C8
:10197000823009F442C2833009F448C2813049F010
:1019800080918C02843009F0B6CF4CC280E090E0A8
:10199000BCCF1130E1F128F1123009F448C0133006
:1019A00079F70E94082C84E392E00E94652B82E084
:1019B00061E00E94462A81E292E00E94652B82E06B
:1019C00062E00E94462A8EE092E00E94652B82E04F
:1019D00063E00E94462A86E092E00E94652B00E0C8
:1019E0006AC080911E02893020F48F5F80931E02AE
:1019F00002C010921E0260911E023CE1639FC00172
:101A000011246D830E94851B82E06D810DC0809141
:101A10001D02893020F48F5F80931D0202C0109256
:101A20001D0289E060911D020E949821A9CF80913A
:101A30002502893020F48F5F8093250202C0109226
:101A4000250288E060912502EFCF80911C02811170
:101A500037C040E282E160E00E94442C8091210284
:101A6000811130C040E282E161E00E94442C80910B
:101A70001A02811129C040E282E162E00E94442CF6
:101A800080E0602F4EE70E94442C82E1602F0E948C
:101A9000462A0330D8F40E94992A80E061E00E942F
:101AA000A71480918C02823009F493C1833009F429
:101AB0009AC1813071F080918C02843031F660CF10
:101AC00048E5C8CF48E5CFCF48E5D6CF0E94902A59
:101AD000E4CF0130E1F0A0F0023099F1033059F782
:101AE0008AE691E00E942C2C86EF91E00E94652B03
:101AF00080E061E00E94462A24E1E22EF12C2DC014
:101B000060911C02682760931C028AE020C00E943A
:101B1000902A8091210281110BC00E94F52182E15F
:101B200061E04EE20E94442C0E94E1210E94F121DA
:101B30006091210281E06827609321020E94982130
:101B4000BACF60911A02682760931A028BE10E9453
:101B5000982182E30E943813AECF8CEE8E0D843133
:101B600019F480E062E004C0883221F480E063E090
:101B70000E94462AC7010E94D81A0E94ED2A4FEF00
:101B8000E41AF40A60E5E616F10439F780E060E053
:101B90000E94A71480E062E071E00E94A32A0E94E4
:101BA0003E2A80E06BE00E94091883E060E00E941A
:101BB000091886E06CE00E94091888E060E00E9445
:101BC00009188DE061E00E94091880E161E044E0BD
:101BD0000E94442C81E160E00E94091880E063E0EB
:101BE0000E94462A85EE91E00E94652B80918C022E
:101BF000843009F460CF80E00E94552C80938C02E1
:101C000080E00E94552C823089F780918C028430CC
:101C100069F380E00E94552C80938C0280E00E9442
:101C2000552C833091F70E943E2A8AED91E00E9464
:101C3000652B81E090E00E943C2B8EE20E94ED2A11
:101C400080E090E00E943C2B82ED91E00E94652BA9
:101C500080E061E00E94462A8CEC91E00E94652BB6
:101C600098E0F92E8F2D0E94A0280E944328811110
:101C700008C088E70E94ED2A8F2D60E170E00E9485
:101C8000F818F39488E7F812EDCF80E062E00E9444
:101C9000462A85EC91E00E94652B8091DB039091B0
:101CA000DC03009711F481EE93E0F101E81BF90BDE
:101CB000CF010E943C2B80EC91E00E94652B88E6CE
:101CC0000E94A0288BEC93E061E10E94631D0E94BA
:101CD000432888E690E062E070E00E94212990911C
:101CE000C9038091CA03981769F18BEC93E00E94B5
:101CF0001E1D5C018BEC93E00E941E1D7C01B50152
:101D00006F777727072E000C880B990B0E946B309A
:101D10004B015C01B701772786E0759567958A9539
:101D2000E1F7072E000C880B990B0E946B3020E026
:101D300030E040E85EE30E94CA30A50194010E94B1
:101D4000493203C060E070E0CB0140E00E94B61968
:101D50008FED0E94ED2A80E063E00E94462A8AEB24
:101D600091E00E94652B8BE063E00E94462A86EB9F
:101D700091E00E94652B80911B02882311F083E57E
:101D800001C087E50E94ED2A80918C02843009F41D
:101D90003CCF81E00E94552C80938C0286E063E06A
:101DA0000E94462A86E00E94DF1BBC01990F880B27
:101DB000990B0E946B3020E030E040EA5BE30E9428
:101DC000CA3042E00E94B61984E690E00E94FA2DE3
:101DD000DBCF80E0602F40E20E94442C033008F00B
:101DE0006ACE0F5F68CE80E0602F40E20E94442CF4
:101DF000002309F460CE01505ECE80E0612F40E206
:101E00000E94442C133048F41F5F07C080E0612F0C
:101E100040E20E94442C1111115080E0612F0E9479
:101E2000462AAECD80912402811107C980E090E05E
:101E30000E94851B02C980E06D2D40E20E94442C67
:101E4000F2E0FD1508F4F9C8D394F7C880E06D2DD1
:101E500040E20E94442CCD1408F0EFC8DA94EDC89B
:101E6000911148C080912402811144C080912502C3
:101E7000882309F43FC09091260281E0892780934E
:101E800026020E94641336C0992349F00E947C2ADE
:101E900010921F02109224020E94A0142BC0809165
:101EA0001C02882339F080912002811103C00E9416
:101EB000FC2B20C09091240281E08927809324028A
:101EC0000E94641380912402811107C080E090E099
:101ED0000E94851B0E94232A0AC080911E022CE1C9
:101EE000829FC00111240E94851B0E941B2A82E34D
:101EF0000E94381380911F02811102C088E701C03F
:101F000080EF0E9438130C94730587E00E94DF1B5A
:101F10008132934074F080911F02882351F00E9417
:101F20007C2A10921F02109224020E94A0140C948A
:101F3000A5050E9464130C94A50581E08093160208
:101F400080919102811103C08EE00E94002A80914D
:101F50008F0281110E94FA218091900281115F9A73
:101F60000E94A0140C9451068F5F0C94620600E04E
:101F700010E00C94970684E06CE00E94862B182FEA
:101F800080911F0281111AE00E94902A183008F0F7
:101F9000BCC080912402882351F0809108038823DB
:101FA00021F080912702811102C00E94232A15305E
:101FB00008F50E943E2A1EC08DE361E50E94862B33
:101FC0000E94B42181E0809317020C94B5070E940F
:101FD0001B2A0C94D2070E94E12102C961E040E271
:101FE0000E94442C80E063E040E20E94442C80E0A8
:101FF00062E050CB153011F00C94F8060E943221AB
:10200000F82E80E06AE671E00E94A32A01E00E94B7
:102010003221F81224C080918C02843001F10093A7
:1020200000030E943E2A81E064E10E94862B182F63
:10203000112381F080E064E10E94862BE82E80E08D
:1020400064E00E94862B682F8E2D40E00E94442C75
:102050001150EECF84EF91E00E94FA2DD8CF10926C
:1020600000030C94350780910803882329F08091A0
:10207000270281110C943C070E941B2A0C943C07F8
:1020800081E56FE60E94862B0E94B4210C943507EF
:10209000163091F418E288E10E942C2A88EC90E036
:1020A0000E94FA2D80918C02843009F411E01150C5
:1020B000123088F70C943507173011F780E06AE684
:1020C00071E00E94A32A00E010E0812F602F40E021
:1020D0000E94442C86E990E00E94FA2D80918C02A7
:1020E000843011F414E104E0812F602F40E20E945B
:1020F000442C1F5F143148F30F5F043028F380ED48
:1021000097E00E94FA2D0C94350781E56FE60E9456
:10211000862B0E94B4210C943C0783FD02C098E0FA
:1021200001C098E28770892B98E10FB6F894A895C2
:10213000909360000FBE80936000A895809160002E
:1021400080648093600080912402882319F083B713
:10215000817F0BC080911F02882321F083B7817F8C
:10216000846003C083B7817F8C6083BF83B7816045
:1021700083BF85B7806685BF8F7D85BF80916400F2
:10218000816080936400889583B78E7F83BF0FB68C
:10219000F894A89580916000886180936000109207
:1021A00060000FBE809160008F7B80936000809103
:1021B00064008E7F809364000895CF93DF93C82FCF
:1021C00082E061E00E94462A8CE393E00E94652B46
:1021D0008C2F6AE070E00E94F8188AE30E94ED2AD2
:1021E0000E94282CD0E0CC0FDD1FCB5CDD4F688136
:1021F000798180E090E00E9469302DEC3CEC4CEC61
:102200005DE30E94CA3042E00E94B619888199813C
:10221000883E934018F083E141E002C082E142E051
:1022200061E00E94382C80918B0260918A020E94AA
:10223000462ADF91CF910895EF92FF920F931F935B
:10224000CF93C82F282F30E080918D0290918E027D
:102250008901000F111F095C1D4FF80191838083D4
:10226000255F3F4F5AE0E52EF12CB7010E94FA326C
:10227000682F822F880F0E949821F80120813181D8
:10228000CC0FC901B7010E94FA32A901481B590BB2
:10229000CA01B7010E94FA3285E18C0F0E94982191
:1022A00082E061E00E94462A8CE093E00E94652B68
:1022B00088EE93E00E94C82ACF911F910F91FF9062
:1022C000EF900895CF93809108038823E9F18091DE
:1022D00006039091040320912B03981730F4C1E07A
:1022E000821768F0291758F009C0891738F4C0E040
:1022F000821728F4291718F4C1E001C0C0E089133F
:1023000010C05091050330910303351738F0409108
:102310002A03451718F0341708F0C1E0381708F4FD
:10232000C1E0281307C030912A03809105033817B4
:1023300008F0C1E0291309C090912A03809103039A
:10234000981718F4C1E001C0C0E080913602C817A8
:1023500049F0CC2311F087E401C086E60E94B42145
:10236000C09336028C2FCF910895CF93DF930E94B4
:102370003221C9E2D3E089830E94CB1F0E945520FD
:102380008091B1028A83DF91CF9108950E94CB1F83
:102390000E9455208091B50290E08E54984F909302
:1023A0003502809334020E94CB1F0E9455208091F9
:1023B000B30280932D030E94CB1F0E945520809171
:1023C000B40280932E0380E063E00E94462A0E94BC
:1023D000CB1F0E945520E091B202F0E0EE0FFF1FEC
:1023E000E45DFC4F6591749188E292E00E945A305E
:1023F00088E993E068E272E00E94DF2E8AE063E001
:102400000E94462A80913402909135020E943C2B12
:102410008FE20E94ED2A80912E038A3010F40E94F0
:10242000242C80912E036AE070E00E94F8188FE25D
:102430000E94ED2A80912D038A3010F40E94242CF2
:1024400080912D036AE070E00E94F81880913202BA
:10245000909133020A9724F482E160E00E94462AB8
:10246000089580912E039DEF980F983008F06DC06D
:102470009CEF980F963008F466C0833089F5209160
:102480002D03409134025091350235E0349FC00154
:10249000359F900D112497FD0396959587959595F9
:1024A0008795049667E070E00E940E334FE150E09C
:1024B000BA01681B790B38E1369FA001379F500D98
:1024C00011244F5F5F4F80912B0378E1279F90018C
:1024D0001124280F311D81E042175307BCF135C08C
:1024E0008A3099F520912D034091340250913502A4
:1024F00035E0349FC001359F900D112497FD039660
:102500009595879595958795019667E070E00E946F
:102510000E334FE150E0BA01681B790B38E1369F6A
:10252000A001379F500D11244F5F5F4F80912B0307
:1025300078E1279F90011124280F311D81E0421777
:10254000530724F402C081E0089580E00895EF92DB
:10255000FF920F931F93CF93DF9388E60E94A028EA
:102560008BEC93E060E00E94631D0E94432888E6A4
:1025700090E067E070E00E9421298BEC93E00E94DC
:102580001E1DC9E2D3E0982F9695969596959E705C
:10259000292F220F220F920F8F70890F88838BECC7
:1025A00093E00E941E1D982F92959F708F702AE0D5
:1025B000929F800D112489838BEC93E00E941E1D55
:1025C000982F9695969596959670292F220F220F03
:1025D000920F8F70890F8A838BEC93E00E941E1DEF
:1025E000982F92959F708F702AE0929F800D1124F2
:1025F0008B838BEC93E00E941E1D982F92959F7009
:102600008F702AE0929F800D11248C838BEC93E0D5
:102610000E941E1D982F92959F708F702AE0929FA6
:10262000800D11248D838BEC93E00E941E1D982F4A
:102630009F70925E82958F70E92E2AE0829FE00C57
:102640001124EE828A81698170E0488150E02C81FA
:1026500030E00D8110E0F12C9EE4E91A98EFF90AC0
:1026600090E00E94061FCDB7DEB7E6E00C942A3258
:10267000CF93C82F80912402882329F08091640091
:10268000806280936400C7FF04C083E00E948D10C5
:10269000C857C03420F082E00E948D10CC53C03265
:1026A00020F081E00E948D10CE51C03118F080E002
:1026B0000E948D1080912402882321F08091640073
:1026C00010926400CF910895CF930E94B5110E949B
:1026D00062118093270280912B038A3018F481E0E5
:1026E00060E005C06AE00E94EE32682F81E00E943F
:1026F000091880912B03CAE06C2F0E94EE3284E00F
:10270000692F0E94091887E06AE00E9409188091E9
:102710002A038A3018F48AE060E005C06C2F0E941A
:10272000EE32682F8AE00E94091880912A036AE03D
:102730000E94EE328DE0692F0E94091881E161E06C
:1027400043E00E94382C81E161E00E94462A80919A
:102750002602811104C080912502811103C088E7FF
:102760000E94ED2A80912402882319F084E40E94BB
:10277000ED2A80910803882349F08091270288235D
:1027800011F08EE401C08EE60E94ED2A80912302B2
:10279000882341F083E062E00E94462A80E293E0D1
:1027A0000E94652B81E162E043E00E94382C81E1C8
:1027B00062E00E94462A80912202882319F084EF69
:1027C0000E94ED2A8091FF02882319F080E70E9481
:1027D000ED2A80912102882319F083E50E94ED2AD9
:1027E00080919102811108C080919002811104C0F2
:1027F00080918F02882319F080E50E94ED2A86E0FF
:102800000E94DF1B9093330280933202C4E08AE07F
:102810000E94381386E00E94DF1B20913202309123
:102820003302820F931F9093330280933202C15080
:1028300071F765E070E00E940E33072E000C880BE4
:10284000990B0E946B3020E030E040EA5BE30E948D
:10285000CA3026E636E646E350EC0E9449322CE9BF
:1028600038ED49E952E40E94CA300E94B53216168A
:10287000170634F4643671052CF063E670E002C08C
:1028800061E070E0CB01072E000CAA0BBB0B9C0192
:10289000AD016A337105A4F0295331094109510989
:1028A000ABE5B0E00E94EF312AE230E040E050E0DA
:1028B0000E94D031DA01C9010896A11DB11D13C0D3
:1028C0002150310941095109A7E0B0E00E94EF31E0
:1028D00027E330E040E050E00E94D031DA01C90146
:1028E0000196A11DB11D909333028093320281E1C4
:1028F00060E00E94462A80913202909133020A974A
:1029000044F481E160E040E20E94442C0E94992A54
:1029100002C00E94902A80913202909133020E945C
:102920003C2B80912002882311F08BE201C085E2CC
:102930000E94ED2A82E160E00E94462ACF9108952C
:102940000E940F2C0E94C6110E9464130895CF921A
:10295000DF92EF92FF921F93CF93DF93C82FD62F72
:102960000E94F61B6B017C0120E6C20E2AEED21EED
:10297000E11CF11C10928C0214E090918C029111D8
:1029800015C08C2F0E94552C80938C02D11104C04D
:1029900088E70E943813F1CF0E94F61BC616D706AF
:1029A000E806F90650F710938C02E7CF82E30E9405
:1029B0003813DF91CF911F91FF90EF90DF90CF9070
:1029C0000895AAE4B0E0E7EEF4E10C94043281E06B
:1029D0006AE471E00E94A32A82E06AE571E00E9445
:1029E000A32A83E062E671E00E94A32A84E062E405
:1029F00071E00E94A32A8AE791E00E942C2CB12C5E
:102A000012E000E0A12C7E0121E4E20EF11CAE01F7
:102A10004F5F5F4F6A0180918C02843009F488C156
:102A200082E062E04BE50E94442C82E00E94ED2AA5
:102A300088E593E00E94652B83E00E94ED2A8DE5F6
:102A40000E94ED2A82E063E00E94462A85E493E03A
:102A50000E94652B81E061E043E10E94382C0E94D6
:102A6000992A80918F02811102C044E001C041E0A7
:102A700089E062E00E94442C82E060E00E94462AE5
:102A800060918D0270918E0280E090E00E9469302A
:102A90002DEC3CEC4CEC5DE30E94CA3042E00E941D
:102AA000B6190E94282C002341F05E980E94FA215A
:102AB00089E060E04AE00E94382C1730A9F030F439
:102AC000153059F0163041F585E022C01930C9F0B3
:102AD000B0F01A3009F581E11BC083E080938B02CE
:102AE00080938A0281E007C089E080938B0283E0B3
:102AF00080938A0282E00E94DD1000E019C08BE022
:102B000007C08FE080938B0283E080938A02F3CF2B
:102B100080938B0283E009C0812F90E00196982F6B
:102B2000990F890F80938B0282E080938A0201E0E3
:102B300080918D0290918E028815990579F08AE036
:102B4000F70111928A95E9F780E4F60111928A95CE
:102B5000E9F789E060E048E00E94382C80918B0220
:102B600060918A020E94462A80918F02882309F48C
:102B700062C0002309F45FC00B2D043008F055C07B
:102B800020E1029F4001112483E0B82E82E061E041
:102B90000E94462A612C712CF301E80DF91DEC0D01
:102BA000FD1D808180310CF480E20E94ED2AFFEF50
:102BB0006F1A7F0A20E16216710471F780918B020F
:102BC00060918A020E94462A0E94F61B2B013C015A
:102BD0000E94F61BDC01CB0184199509A609B709EF
:102BE000843F9140A105B10540F480E00E94552C3E
:102BF00080938C02882309F4D2C089E060E00E94AF
:102C0000462A88E993E0B7010E94DF2E80918B026B
:102C100060918A020E94462A80918C02882309F4DE
:102C2000AFC0033009F0B4C0B12C80918C0288236E
:102C300009F4A2CF04C080E061E00E94A714809054
:102C40008D0290908E0280918C02823009F468C0CF
:102C5000833009F469C0813009F068C0812F90E0A9
:102C60008B30910508F057C0FC01E75BFF4F0C94D7
:102C7000223380918F02882309F44DC080E02DC05B
:102C80004BE6841643E0940608F445C0C40101975E
:102C900090938E0280938D023EC080918F02882394
:102CA00019F00E94F52137C08091FF02811102C006
:102CB0004C99E1C00E94F12181E080938F022BC0EA
:102CC00058E3851654E0950630F5C4010196E0CF2F
:102CD00080918F028823F9F081E00E94791AD8CF81
:102CE00080913702909138020DC080E012C080912F
:102CF000390290913A0206C081E00BC080913B02FC
:102D000090913C0290938E0280938D0212E003C05A
:102D100082E00E941C1100918F02AA24A3947BCE12
:102D20001A3020F41F5F02C01111115000E073CE61
:102D3000AA20F9F080918D0290918E020AE010E0B5
:102D4000B8010E94FA32682F82E10E9498212091F6
:102D50008D0230918E02C901B8010E94FA32F90148
:102D6000E81BF90BCF01B8010E94FA3281E10E9401
:102D700098210E940F2CC65BDF4FE0E10C942032BB
:102D800082E30E943813BA94B11000CF033009F0E7
:102D9000B02E80918C02811148CF0F5FEECE8091D2
:102DA000BB039091BC0397FF0CC00E943119809126
:102DB000C1039091C2039C012227387F2115304224
:102DC00019F080E090E028C08F7099274091C303EC
:102DD0005091C4039C01220F331F220F331FF601B1
:102DE000E20FF31F5083E2E0F0E0EC0FFD1FE20F73
:102DF000F31F40834091C5035091C603E3E0F0E028
:102E0000EC0FFD1FE20FF31F5083E4E0F0E0EC0F46
:102E1000FD1FE20FF31F4083FC013196EE0FFF1FF1
:102E2000EE0FFF1FEC0DFD1D10820E9431198091E5
:102E3000BB039091BC0397FF1BC08091C10390918D
:102E4000C203843F51E0950798F42091C503309167
:102E5000C60383709927880F991FF701E80FF91FA0
:102E60003083E2E4F0E0EC0FFD1FE80FF91F208350
:102E7000F7011086ADCE0E94E1211CCFA0E0B0E0AA
:102E8000E4E4F7E10C940C326C017A018B01C0E0B0
:102E9000D0E0CE15DF0589F0D8016D918D01D60106
:102EA000ED91FC910190F081E02DC6010995892BEF
:102EB00011F47E0102C02196ECCFC701CDB7DEB779
:102EC000E8E00C94283220917F023091800228178C
:102ED000390771F490917E0280917D02981741F03C
:102EE000E0917E02F0E0E35CFD4F808190E0089588
:102EF0008FEF9FEF089508951F93CF93DF93DC0129
:102F00005C962D913C915D972115310539F481E056
:102F100090E013969C938E9312973DC05196ED913D
:102F2000FC91529750969C915097892F80951FB78E
:102F30005E964C915E9741FB772770F941FD609555
:102F4000F8944081772311F0492B01C04823408336
:102F5000E9012197F1F748E0508160FF02C0592B49
:102F600001C058235083E9012197F1F7669541503C
:102F700099F7772321F090818923808303C0808192
:102F8000982B90831FBF5C968D919C915D970197C4
:102F9000F1F721E030E0C901DF91CF911F91089551
:102FA00020917F02309180022817390771F48091B7
:102FB0007D0220917E0290E0805C9F4F821B9109F0
:102FC00060E470E00E940E33089580E090E0089580
:102FD00020917F023091800228173907B9F490912F
:102FE0007E0280917D02981789F0E0917E02F0E0E8
:102FF000E35CFD4F808120917E0230E02F5F3F4FE8
:103000002F73332720937E0290E008958FEF9FEF78
:103010000895CF93C62F80938B0210928A0260E0AE
:1030200043E00E94382C60918A026F5F80918B028E
:1030300043E00E94382C8C2F90E08D30910508F0F1
:10304000D5C0FC01EC5AFF4F80918B020C942233C7
:1030500060918A0240E00E94442C81E067C0609148
:103060008A0241E00E94442C82E00E94ED2A609195
:103070008A026F5F80918B0244E00E94442C87E0BB
:1030800014C060918A0246E00E94442C86E00E94AF
:10309000ED2A82E00E94ED2A60918A026F5F8091A2
:1030A0008B0243E00E94442C84E00E94ED2A84E0DD
:1030B0009BC060918A0246E00E94442C86E00E94F8
:1030C000ED2A82E013C060918A0243E00E94442C02
:1030D00084E00E94ED2A87E044C060918A0243E0C8
:1030E0000E94442C86E00E94ED2A86E00E94ED2A90
:1030F00060918A026F5F80918B0244E022C06091F0
:103100008A0240E00E94442C86E00E94ED2A86E07C
:1031100010C060918A0241E00E94442C81E01EC0F0
:1031200060918A0240E00E94442C86E00E94ED2AD1
:1031300082E00E94ED2A60918A026F5F80918B028B
:1031400043E00E94442C84E00E94ED2A85E04CC0BC
:1031500060918A0240E00E94442C86E00E94ED2AA1
:1031600082E00E94ED2A80918B0260918A026F5F5B
:103170008E5F47E00DC08F5F60918A0244E00E943D
:10318000442C80918B0260918A026F5F8F5F44E0D4
:103190000E94442C2BC060918A0240E00E94442C83
:1031A00082E00E94ED2A80E00E94ED2A60918A026E
:1031B0006F5F80918B0247E00E94442C83E00E9465
:1031C000ED2A87E011C060918A0247E00E94442CFA
:1031D00080E00E94ED2A60918A026F5F80918B02ED
:1031E00047E00E94442C83E00E94ED2ACF9108958D
:1031F000282FAB01672B61F4E0919803F0919903BC
:103200000190F081E02D88E993E0622F09950895FF
:10321000682F70E080E090E00E94F92A08951F93E3
:10322000CF93DF9380E10E94A028CBEAD3E01881FE
:10323000698122968BEC93E00E94631D8BEC93E0F6
:10324000612F0E94631D83E0C73BD80781F70E946E
:10325000432891E0811190E0892FDF91CF911F9158
:1032600008950F931F93CF93DF9380E190E060E286
:1032700070E00E9421298091C90390E02091CA0347
:10328000821B910980329105ECF3CAE0D0E08BEC0F
:1032900093E00E941E1D8E01000F111F0C551C4F44
:1032A000F801138284838BEC93E00E941E1DF801C9
:1032B00023813481822B932B94838383C930D1055E
:1032C00039F02196C031D10511F7C0E0D0E0DFCF51
:1032D000DF91CF911F910F9108950E943119E4EA77
:1032E000F3E0878190858064908787830E940F191F
:1032F0000895CF93DF935D9881E090E00E94C82A03
:103300005D9A81E090E00E94C82A1092CA03109250
:10331000C9031092C8031092C7030E94E81E0E94BE
:103320003119C4EAD3E080E091E89A8B898B0E943E
:103330000F1984EF91E00E94C82A0E94311981E0A0
:1033400090EC98878F838B859C8598619C878B8771
:103350008D859E858F619E878D870E940F198EE6D1
:1033600090E00E94C82ADF91CF9108954F925F921A
:103370006F927F928F929F92AF92BF92CF92DF9285
:10338000EF92FF92CF93DF936B017C01B42EA701E4
:1033900096010E94E932882329F088E993E062EBE4
:1033A00071E00FC0C701B6019F772FEF3FEF4FE7E6
:1033B0005FE70E94E43218163CF488E993E066EB7C
:1033C00071E00E94DF2E86C0C701B6012FEF3FEFEC
:1033D0004FE75FE40E94E43218162CF488E993E08A
:1033E0006AEB71E0EECFC701B6012FEF3FEF4FE779
:1033F0005FEC0E94643087FDF1CFC701B60120E089
:1034000030E0A9010E94643087FF09C08DE20E946C
:10341000ED2AEC01F7FAF094F7F8F09402C0C0E05E
:10342000D0E0A12C60E070E080E09FE3AB1441F0BD
:103430002DEC3CEC4CEC5DE30E94CA30A394F6CF3B
:10344000A70196010E9449322B013C010E94B5322E
:103450006B017C010E9469309B01AC01C301B20188
:103460000E9448322B013C01C701B6014AE00E948C
:10347000F92AC80FD91FBB2029F08EE20E94ED2A3D
:10348000C80FD91FFB2CFF2021F1C301B20120E09E
:1034900030E040E251E40E94CA302B013C010E941E
:1034A000B5324B01A12CB12CC501B4014AE00E94F8
:1034B000F92AC80FD91FC501B4010E9469309B01C8
:1034C000AC01C301B2010E9448322B013C01FA94C5
:1034D000DACFCE01DF91CF91FF90EF90DF90CF90C8
:1034E000BF90AF909F908F907F906F905F904F9024
:1034F0000895A1E0B0E0EFE7FAE10C94103289837F
:103500000E9431192091AB033091AC03A9015B7F7C
:103510008981811106C0397F3093AC032093AB03BE
:1035200006C0CA0192609093AC038093AB03809174
:10353000AB039091AC0391609093AC038093AB0389
:103540000E940F190E9431198091BB039091BC0316
:1035500096FFF8CF0E9431190091BB031091BC0374
:10356000002710728091AB039091AC039E7F9093E3
:10357000AC038093AB030E940F190E943119209174
:10358000BB033091BC03C9018827907436FDF5CF89
:103590000115110549F40E9431198091BD039091E4
:1035A000BE03937085599C4F2196E4E00C942C3215
:1035B000A1E0B0E0EEEDFAE10C941132182F87E5AE
:1035C00099830E94A0288BEC93E069810E94631D7F
:1035D0008BEC93E0612F0E94631D0E94432887E5D6
:1035E00090E061E070E00E9421298BEC93E00E9462
:1035F0001E1D2196E3E00C942D3290E0FC01E2596F
:10360000FC4F3491FC01EC5EFB4F2491FC01E05037
:10361000FC4FE491EE2309F43BC0332339F13330FE
:1036200091F038F43130A9F0323001F584B58F7D56
:1036300012C0373091F03830A1F03430B9F48091B5
:1036400080008F7D03C0809180008F778093800001
:103650000DC084B58F7784BD09C08091B0008F778D
:1036600003C08091B0008F7D8093B000F0E0EE0F3A
:10367000FF1FE451FC4FA591B4918FB7F894EC91E2
:10368000611103C020952E2301C02E2B2C938FBFD8
:103690000895CF93DF9390E0FC01EC5EFB4F249103
:1036A000FC01E050FC4F8491882361F190E0880F89
:1036B000991FFC01EC59FC4FC591D491FC01E451D8
:1036C000FC4FA591B491611109C09FB7F89488810E
:1036D000209582238883EC912E230BC0623061F405
:1036E0009FB7F8943881822F809583238883EC914B
:1036F0002E2B2C939FBF06C08FB7F894E8812E2BFA
:1037000028838FBFDF91CF910895CF93DF93EC0192
:103710008AE061E00E94491B209719F48AE060E08A
:1037200005C0CF3FD10529F48AE061E00E94FD1A6F
:1037300043C0E8E7F3E0E491E330F9F048F4E13026
:10374000B9F0E230A1F584B5806284BDC8BD34C053
:10375000E730E9F0E83019F1E43049F58091800074
:10376000806280938000D0938B00C0938A0024C035
:1037700084B5806884BDC7BD1FC08091800080680B
:1037800080938000D0938900C093880015C08091F9
:10379000B00080688093B000C093B3000DC08091EA
:1037A000B00080628093B000C093B40005C0C03800
:1037B000D1050CF0B9CFB2CFDF91CF9108958E3003
:1037C00008F08E508770806480937C0080917A002E
:1037D000806480937A0080917A0086FDFCCF80918E
:1037E00078002091790090E0922B08952FB7F894FB
:1037F000609186027091870280918802909189027F
:103800002FBF08951F920F920FB60F9211242F937E
:103810003F938F939F93AF93BF9380918602909134
:103820008702A0918802B09189023091850223E03D
:10383000230F2D3720F40196A11DB11D05C026E8E8
:10384000230F0296A11DB11D20938502809386024D
:1038500090938702A0938802B0938902809181029D
:1038600090918202A0918302B09184020196A11DE1
:10387000B11D8093810290938202A0938302B09342
:103880008402BF91AF919F918F913F912F910F90A3
:103890000FBE0F901F9018951F920F920FB60F92A8
:1038A00011242F933F934F935F936F937F938F9345
:1038B0009F93AF93BF93EF93FF93E0917F02F091BB
:1038C0008002309709F451C0968DA685B78585850D
:1038D00091FF04C09C91892329F447C09C918923BE
:1038E00009F043C0A389B4899C9185898095892377
:1038F0008C93868997890197F1F7608D718DA685E4
:10390000B785558538E020E0CB010197F1F7822F8C
:1039100090E095958795282F4C91452309F02068D4
:10392000315091F7868D81FD209580917D0290E048
:1039300001968F73992730917E02381749F0A09134
:103940007D02B0E0A35CBD4F2C9380937D0203C049
:10395000868D8160868F828D938D0197F1F7A38983
:10396000B4899C918589892B8C93FF91EF91BF91AC
:10397000AF919F918F917F916F915F914F913F9107
:103980002F910F900FBE0F901F901895E0917F021E
:10399000F0918002E817F90769F4A389B4899C9132
:1039A0008589809589238C931092800210927F02E2
:1039B00081E0089580E0089585ED8093BC008091BA
:1039C000BC0084FDFCCF1092560308954091D802AC
:1039D000262F30E0240F311D21323105DCF42091F7
:1039E00056032430C9F4FC0180E090E0861758F4B7
:1039F0003091D8022191DC01AA54BD4FA30FB11D13
:103A00002C930196F3CF8091D802680F6093D8026F
:103A100080E0089581E0089582E008950895E0919E
:103A2000CA038091C903E81730F4F0E0E75FFC4F68
:103A3000808190E008958FEF9FEF08959091CA03E1
:103A40008091C903981750F4E92FF0E0E75FFC4F2D
:103A5000208130E09F5F9093CA0302C02FEF3FEFB9
:103A6000C90108958091C90390E02091CA03821B87
:103A700091090895A0E0B0E0E0E4FDE10C940C327F
:103A80007C01972F8A0180915703882391F0C62FDC
:103A9000D72F6E01C40ED51ECC15DD0571F06991CE
:103AA000D701ED91FC910190F081E02DC7010995BE
:103AB000F3CF862F642F0E94E61CC801CDB7DEB776
:103AC000E8E00C942832A1E0B0E0E9E6FDE10C94D6
:103AD00012326983209157032223D1F02091C7032A
:103AE000203240F021E030E0FC013383228380E08B
:103AF00090E015C08091C803E82FF0E0E85AFC4F31
:103B0000998190838F5F8093C8038093C70305C01A
:103B1000CE01019661E00E94E61C81E090E02196D2
:103B2000E2E00C942E326093AB027093AC0280936F
:103B3000AD029093AE02DC01CB01845D9E4FAF4F8E
:103B4000BF4F8093A7029093A802A093A902B093BD
:103B5000AA0282E090E09093A6028093A5020E94C0
:103B6000F61B6093A1027093A2028093A30290932C
:103B7000A40208951F920F920FB60F9211242F9353
:103B80003F934F935F936F937F938F939F93AF93E5
:103B9000BF93EF93FF938091B900887F803609F43B
:103BA0009CC068F5883209F45BC090F4803109F458
:103BB00054C038F4882309F4F6C0883009F44DC0A5
:103BC000F6C0883109F44CC0803209F45DC0EFC002
:103BD000803409F468C048F4803309F455C0883350
:103BE00009F0E5C080935403D8C0803509F44FC074
:103BF000883509F45DC0883409F0D9C0D6C0883949
:103C000009F4C7C0A8F4883709F467C038F48836C7
:103C100009F463C0803709F460C0C9C0883809F46A
:103C2000B8C0803909F45FC0803809F0C0C05BC0FB
:103C3000803B09F486C038F4803A09F466C0883ABB
:103C400009F47FC0B4C0803C09F4A7C0883C09F4E3
:103C5000A4C0883B09F48AC0AAC08091310310C077
:103C60009091530380915203981770F5E09153039C
:103C700081E08E0F80935303F0E0EE5CFC4F808177
:103C80008093BB0085EC86C0809354038EC0E09186
:103C9000530381E08E0F809353038091BB00F0E0CB
:103CA000EE5CFC4F808390915303809152036EC071
:103CB000E091530381E08E0F809353038091BB000A
:103CC000F0E0EE5CFC4F80838091550381116DC064
:103CD00081E08093300384EA61C083E080935603DF
:103CE0001092FC02CFCF8091FC02803208F051C0CC
:103CF000E091FC0281E08E0F8093FC028091BB007A
:103D0000F0E0E452FD4F8083BDCF85EC8093BC0092
:103D1000109256038091FC02803230F4E091FC0254
:103D2000F0E0E452FD4F10826091FC0270E0E091FF
:103D3000DA02F091DB028CED92E009951092FC0220
:103D400036C084E0809356031092D9021092D802B4
:103D5000E091D602F091D70209958091D8028111A5
:103D600005C081E08093D8021092B602E091D9029A
:103D700081E08E0F8093D902F0E0EA54FD4F8081FC
:103D80008093BB009091D9028091D802981708F4D3
:103D900079CF85E88093BC000AC085EC8093BC0095
:103DA0001092560304C0109254030E94DC1CFF9131
:103DB000EF91BF91AF919F918F917F916F915F91A3
:103DC0004F913F912F910F900FBE0F901F9018951C
:103DD0001092560381E0809355031092300382E1E4
:103DE00061E00E94FD1A83E161E00E94FD1AE9EBA7
:103DF000F0E080818E7F808380818D7F808388E466
:103E00008093B80085E48093BC000895A0E0B0E002
:103E1000ECE0FFE10C940332382E962E842EF9014B
:103E200084E6E816F1042CF082EBE81A87E0F80A41
:103E300003C08EE1E80EF11CE092B5020093B402DB
:103E4000E093B3023092B1029092B0028092AF023E
:103E5000AE2DB0E020E833E341EE51E00E94EF31B7
:103E60002B013C0122EB37E0FF2484E6C82ED12C45
:103E7000C0E9D1E0C901825B97408E159F05DCF453
:103E8000C90183709927892B99F4C901B6010E9451
:103E90000E33892B31F4C901BE010E940E33892BE8
:103EA00039F480E8480E81E5581E81E0681E711CD7
:103EB0002F5F3F4FDFCF8EE4E81A88EFF80AC70183
:103EC00064E670E00E940E336C01C70160E971E0A6
:103ED0000E940E335C01C1E0D0E0112783E0E822AC
:103EE000FF24C017D1072CF5C230D10589F4E114A5
:103EF000F10471F4C114D10419F4A114B10441F412
:103F000080E8480E8BE3581E86E2681E711C0FC0C5
:103F1000DE01A354BE4FAC91B0E020E831E541E0B2
:103F200050E00E94EF31460E571E681E791E219602
:103F3000D8CF292D30E0ACE3B0E00E9439326B01DC
:103F40007C01C80CD11CE11CF11C232D30E0A0E148
:103F5000BEE00E943932C60ED71EE81EF91EDF01F0
:103F6000BB27119720E831E541E050E00E94FA318B
:103F7000DC01CB018C0D9D1DAE1DBF1DBC01CD0113
:103F8000640D751D861D971D0E94931DCDB7DEB76C
:103F9000E1E10C941F32CF92DF92EF92FF920F93E8
:103FA0001F930E94F61BC090A102D090A202E09045
:103FB000A302F090A4028B019C010C191D092E098B
:103FC0003F098091AB029091AC02A091AD02B091FB
:103FD000AE02083E134021053105D0F00196A11D27
:103FE000B11D8093AB029093AC02A093AD02B0934D
:103FF000AE02B701A60148515C4F6F4F7F4F40930F
:10400000A1025093A2026093A3027093A402C9CFAD
:104010004091A7025091A8026091A9027091AA0252
:1040200084179507A607B70788F1E0919F02F091E2
:10403000A002309759F10995611571058105910527
:1040400019F00E94931D22C08091AB029091AC02A6
:10405000A091AD02B091AE02845D9E4FAF4FBF4FB5
:104060008093A7029093A802A093A902B093AA02FA
:1040700081E090E02091A5023091A602232B11F45B
:1040800080E090E09093A6028093A5026091AB023D
:104090007091AC028091AD029091AE021F910F9190
:1040A000FF90EF90DF90CF900895A0E0B0E0EBE5B7
:1040B000F0E20C9404324B015C0180919B029091E0
:1040C0009C02A0919D02B0919E0288169906AA06B4
:1040D000BB0609F4C2C08CE3C82ED12CE12CF12C14
:1040E000C501B401A70196010E94AE316093AF02F1
:1040F000CA01B901A70196010E94AE316093B002D6
:10410000CA01B90128E130E040E050E00E94AE3140
:1041100069017A016093B102CA01B9016C5F7F4FF6
:104120008F4F9F4F27E030E040E050E00E94AE31DB
:104130006F5F6093B202412C512C320140E004E6E3
:1041400010E0C0E9D1E0242F30E02E54384FF901BF
:10415000E370FF27309789F4C901B8010E940E333C
:10416000892B31F4C901BE010E940E33892B29F439
:104170008EE691E0A0E0B0E004C08DE691E0A0E022
:10418000B0E0480E591E6A1E7B1ED301C201AA2749
:10419000BB27C816D906EA06FB0610F04F5FD3CF3F
:1041A0004093B502309799F4C90164E670E00E942B
:1041B0000E33892B39F4C90160E971E00E940E3396
:1041C000892B29F48EE691E0A0E0B0E004C08DE6F2
:1041D00091E0A0E0B0E0481A590A6A0A7B0AC418C4
:1041E000D508E608F708C90164E670E00E940E33BE
:1041F000EC01C90160E971E00E940E33AEEBB1E061
:1042000020E0213039F4309749F4209729F40097C1
:1042100029F402C04C9103C04DE101C04CE150E0D3
:1042200060E070E0C416D506E606F70640F0C41A52
:10423000D50AE60AF70A2F5F11962C3011F72F5F87
:104240002093B402C394C092B30280929B029092D6
:104250009C02A0929D02B0929E02CDB7DEB7E0E133
:104260000C9420320E94CB1F0E9455208091B002F6
:1042700008951F920F920FB60F9211240F931F9360
:104280002F933F934F935F936F937F938F939F935E
:10429000AF93BF93EF93FF930E94F61B2091990277
:1042A00030919A02890120E030E06017710782079F
:1042B0009307B8F080916F008D7F80936F0082E04C
:1042C0008093810081E080938000E0919702F091DB
:1042D0009802908180919602809589238083109224
:1042E0009602E0919702F091980290818091960257
:1042F00089278083FF91EF91BF91AF919F918F911B
:104300007F916F915F914F913F912F911F910F91ED
:104310000F900FBE0F901F9018958EEE91E0909326
:104320007A038093790389E793E00E94C61C08957D
:104330002091940230919502A901480F511DCA01A4
:104340000E94903108952091940230919502A90124
:10435000480F511DCA010E94883108955E9886E475
:1043600090E00E94C82A0895A1E0B0E0EAEBF1E2F3
:104370000C94103289830E94AE2183E060E0498171
:1043800020E030E000E010E00E946C2984E60E940A
:10439000381380919302882319F081E00E940D2A3E
:1043A00080919202882349F081E164E040E020E0BE
:1043B00030E000E010E00E946C292196E4E00C94CB
:1043C0002C328EE00E94002A84E60E94381310925C
:1043D0009202109293021092910284E00E940D2AA0
:1043E00008955F981092900208950E946D1910929E
:1043F0008F020895CF93DF930E94791980918D02E7
:1044000090918E022AE0289FE001299FD00D11246F
:10441000CE52D2420E9431192091AD033091AE03A9
:1044200022273E7F3068CE016AE070E00E94FA32B7
:10443000262B372B3093AE032093AD030E940F1928
:104440000E9431198091BB039091BC0396FFF8CF75
:104450000E9431198091AD039091AE039F779093A4
:10446000AE038093AD030E940F190E943119809111
:10447000BB039091BC0396FDF8CFDF91CF910895D7
:10448000CF93823009F477C038F4882321F181304A
:1044900009F0B8C0CAE060C0843009F48BC008F4E9
:1044A00072C0853009F0AEC088E592E068EC70E03B
:1044B00041E028EC30E00E942B2E84EF91E068EC84
:1044C00070E041E028EC30E00E942B2E80E991E082
:1044D00068EC70E092C086E091E06AEF70E041E045
:1044E0002DE431E00E942B2E84EC90E06DE770E02B
:1044F00041E027EA30E00E942B2E84EC90E06DE74B
:1045000070E041E027EA30E00E942B2E8CED90E035
:104510006AEF70E041E02DE431E00E942B2E84EC44
:1045200090E06AEF70E041E02AE932E00E942B2E31
:1045300087EF90E06AEF70E041E02DE431E00E9407
:104540002B2E86E091E06AEF70E041E02DE431E04F
:1045500057C0C15009F456C088EB91E062E370E0A7
:1045600041E024E630E00E942B2E80918C028430C2
:1045700081F7C0E0EECF88EB91E068EC70E041E0BD
:1045800024EF31E03DC088E592E064E670E041E070
:1045900024E630E00E942B2E8CEB92E064E670E083
:1045A00041E024E630E00E942B2E80E293E064E6B6
:1045B00070E023C088E592E060E570E041E024E629
:1045C00030E00E942B2E80E991E060E570E041E050
:1045D00024E630E00E942B2E84EF91E060E570E04D
:1045E00041E024E630E00E942B2E80E991E060E576
:1045F00070E041E028EC30E003C041E02CE231E023
:104600000E942B2ECF910895CF92DF92EF92FF92CE
:104610001F93CF93DF9382E991E00E942C2C8EEDC3
:1046200093E00E94652B82E061E00E94462A80EDC3
:1046300093E00E94652B82E062E00E94462A8BECA8
:1046400093E00E94652B82E063E00E94462A85EC9D
:1046500093E00E94652BC0E0DAE014E180918C02C7
:10466000843009F46FC183E061E00E94462A8091A2
:104670000803882319F081EC93E002C08DEB93E0EE
:104680000E94652B80910703811102C040E201C0A6
:1046900048E58DE061E00E94442C88E062E00E94E1
:1046A000462A809106038A3010F40E94242C8091BF
:1046B00006036AE070E00E94F8188AE30E94ED2A7F
:1046C000809105038A3010F40E94242C8091050308
:1046D0006AE070E00E94F81888E063E00E94462AD1
:1046E000809104038A3010F40E94242C80910403EA
:1046F0006AE070E00E94F8188AE30E94ED2A809137
:1047000003038A3010F40E94242C809103036AE092
:1047100070E00E94F818C23048F480E062E040E2A5
:104720000E94442C80E061E00E94462A8EEF8C0FAC
:10473000843068F480E061E040E20E94442C80E034
:1047400063E040E20E94442C80E062E009C0C63091
:1047500048F080E062E040E20E94442C80E063E0A8
:104760000E94462A8EE70E94ED2ACC2ED12C8AE0A8
:10477000C816D104D8F4F601EF59FF4F0C94223338
:1047800083E001C08DE061E00FC088E003C089E0F4
:1047900001C08BE062E008C088E005C089E003C08A
:1047A0008BE001C08CE063E00E94462A80E061E07B
:1047B0000E94A71480918C02823009F4B9C0833022
:1047C00009F4BBC0813009F049CF8AE0C816D10492
:1047D00008F08FC0F601E559FF4F0C9422339091F9
:1047E000080381E089278093080383C09091070321
:1047F00081E08927809307037CC0809106038E3077
:1048000020F4865F8093060374C06D2F0E94EE3201
:10481000909306036EC020910603822F6D2F0E9495
:10482000EE32993011F4295001C02F5F2093060316
:1048300080910603883109F05CC01093060359C0CB
:1048400080910503813320F4865F8093050351C076
:104850006D2F0E94EE32909305034BC0209105030B
:10486000822F6D2F0E94EE32993011F4295001C031
:104870002F5F209305033DC0809104038E3020F408
:10488000865F8093040335C06D2F0E94EE329093B3
:1048900004032FC020910403822F6D2F0E94EE325B
:1048A000993011F4295001C02F5F209304038091A7
:1048B00004038831F1F4109304031BC080910303B7
:1048C000813320F4865F8093030313C06D2F0E9411
:1048D000EE32909303030DC020910303822F6D2FBE
:1048E0000E94EE32993011F4295001C02F5F2093BD
:1048F00003038BE0609108030E9498218CE0609193
:1049000006030E9498218DE0609105030E94982182
:104910008EE0609104030E9498218FE06091030370
:104920000E9498218CE1609107030E94982196CE05
:10493000C93008F093CECF5F91CECC2309F48ECE50
:10494000C1508CCE80E062E071E00E94A32ADF912A
:10495000CF911F91FF90EF90DF90CF900895CF936C
:10496000DF93C82F0E943E2A8EE70E94ED2A89EA33
:1049700093E00E94652B81E160E00E94462A0E943C
:10498000992AC13019F48091020302C08091010379
:104990006AE070E00E94F8180E94AE2181E08093E6
:1049A0000003D0E080918C028430F1F18FE060E070
:1049B0000E94462A81E061E00E94A71480918C0247
:1049C000813081F7C130A9F490910203953019F438
:1049D0001092020303C09F5F909302038091020331
:1049E0006AE070E00E94F818809102030E94402261
:1049F00019C0909101039A3019F41092010303C079
:104A00009F5F90930103809101036AE070E00E9430
:104A1000F81880919102811105C0809101038F5F88
:104A20000E94B421D1E0BECFDD2359F0C13021F482
:104A300087E06091020303C083E1609101030E945B
:104A4000982180919102811103C08EE00E94002A7A
:104A500010920003DF91CF910895ADE0B0E0E3E361
:104A6000F5E20C940D32E82E81E06AE471E00E94D8
:104A7000A32A82E062E571E00E94A32A83E062E457
:104A800071E00E94A32A8AE791E00E942C2C84E026
:104A900063E00E94462A8CE993E00E94652B8BE03C
:104AA00063E042E00E94442C8091FF02882319F0C9
:104AB00092E0F92E02C0FF24F394809191028111BB
:104AC00002C04C99FECF0E94992A80E5D82E809191
:104AD0008C02843009F4BBC182E060E00E94462A67
:104AE00081E0E8127DC0809101018A3010F40E94BB
:104AF000242C809101016AE070E00E94F8180E9465
:104B0000282C2091FE0230E021503109D29EC001B4
:104B1000D39E900D112420910101820F911D820FCF
:104B2000911D8E599F4F0E94D81A6AE070E00E9432
:104B3000F8188AE30E94ED2A2091FE0230E021500D
:104B40003109D29EC001D39E900D11242091010104
:104B5000820F911D820F911D8D599F4F0E94D81A6F
:104B60008A3020F48D870E94242C8D856AE070E0C5
:104B70000E94F81800E010E02091010130E021507F
:104B800031094091FE02429FC001439F900D1124C4
:104B90008C599F4F800F911F0E94D81A482F802F49
:104BA00061E00E94442C2091010130E02150310944
:104BB0004091FE02429FC001439F900D1124800F3F
:104BC000911F88589F4F0E94D81A482F802F62E06B
:104BD0000E94442C0F5F1F4F0431110569F659C024
:104BE00082E0E8124FC04C9909C08091FF02811108
:104BF00005C080919202882309F42FC1809192020E
:104C0000882329F086E993E00E94652B14C084E68E
:104C10000E94381382E560E040E09E012F5F3F4F25
:104C20000CE010E00E946C2988E993E0BE016F5F00
:104C30007F4F0E94DF2E87E062E00E94462A4C9B55
:104C400005C080919202882309F421C1809100015E
:104C50008A3010F40E94242C809100016AE070E0F8
:104C60000E94F8188FE20E94ED2A8091FD028A309E
:104C700010F40E94242C8091FD026AE070E00E94F2
:104C8000F81807C083E0E81204C088E893E00E94A7
:104C9000652B8FE060E00E94462A8091FF02882306
:104CA00029F082E893E00E94652B05C08FE060E068
:104CB00045E00E94382C4C9906C08091FF0281117A
:104CC00002C043E001C041E088E063E00E94442C60
:104CD0008F2D880F8F0D8B5F63E00E94462A81E045
:104CE00061E00E94A71480918C02823009F49CC07C
:104CF000833009F4A3C0813009F0E9CEF816A9F198
:104D0000F81648F082E0F81609F455C083E0F8166A
:104D100009F458C0DCCE81E0E81207C0809101019F
:104D2000823008F45BC0815057C082E0E81611F071
:104D3000F12CCDCE80910001823018F0815080930B
:104D4000000180919202882329F01092920281E062
:104D5000809393024C9BECCF909100018091FE02D6
:104D6000890F81590E94B421B2CE80918F028111A6
:104D70000E94F5214C991AC081E0E81205C0E0922A
:104D80009202809101010BC082E0E8120BC081E029
:104D900080939302909100018091FE02890F8159C6
:104DA0000E94B42181E08093910202C00E94E1211F
:104DB0000E94F1218CCE4C9974C08091FF02811128
:104DC00070C085CE81E0E81217C0809101019091FA
:104DD000FE02891718F48F5F80930101809193027E
:104DE000882329F01092930281E0809392024C9BD9
:104DF0006ECE80910101B5CF82E0E81268CE80913D
:104E000000019091FD02891718F48F5F80930001D3
:104E100080919202882329F01092920281E080937F
:104E200093024C9B54CE98CF8091FF0281114FCEBC
:104E300082E08F1508F44BCEF39449CE8091FF02A7
:104E4000811145CEFF2009F473CFFA9440CE0E9421
:104E50000F2C2D96E7E00C9429324091FE0250E091
:104E600041595F4F80910001480F511D83E0652F2C
:104E700020E030E000E010E00E946C2984E60E940F
:104E800038130E94E12184E60E943813B7CE84E6ED
:104E90000E9438138BE40E94E42987598093000113
:104EA000D5CE80918F0281110E94F5218091FF0261
:104EB000882329F05E981092FF028DE004C081E003
:104EC0008093FF028EE00E94002A01CE8F929F9273
:104ED000AF92BF92CF92DF92EF92FF92CF93DF9388
:104EE0006B017C010E94F61B4B015C0189E793E09A
:104EF0000E94D017EC01892B69F40E94F61BAB01CC
:104F0000BC01481959096A097B094C155D056E05F4
:104F10007F0560F3CE01DF91CF91FF90EF90DF909E
:104F2000CF90BF90AF909F908F9008951092CE0336
:104F30001092CD0388EE93E0A0E0B0E08093CF0321
:104F40009093D003A093D103B093D2032EED31E020
:104F50003093CC032093CB0325E02093A40322E1DC
:104F60002093A50323E12093A60310929B031092A4
:104F70009A032EE032E03093990320939803109225
:104F80009C0324E12093A10324E02093A20328E0C2
:104F90002093A30310927C0310927B0380937D03E4
:104FA00090937E03A0937F03B09380038EEE91E0F5
:104FB00090937A03809379031092900310928F0359
:104FC0001092920310929103109294031092930303
:104FD0001092960310929503609197036E7F6D7FF8
:104FE000609397036695617081E0682783E00E9473
:104FF000FD1A83E061E00E94491BE7E1F4E0E491DF
:10500000E0938903E3E0F4E0E491F0E0EE0FFF1FAA
:10501000E451FC4F8591949190938B0380938A0384
:1050200082E060E00E94491B8091970381FD04C0EB
:1050300082E061E00E94FD1A82E080938503E6E150
:10504000F4E0E491E0938603E2E0F4E0E491F0E040
:10505000EE0FFF1FEA50FC4F8591949190938803C7
:10506000809387038EEF91E090937A038093790386
:105070001092CA031092C9031092C8031092C7037A
:105080000E94E81E0895909178032091C703213271
:1050900008F04AC0809156038111FCCF32E0309372
:1050A000560331E0309355033FEF30935403109291
:1050B000530320935203A8E5B3E042E353E0FA011F
:1050C0003E2F341B321718F43D913193F9CF1092D3
:1050D000310320913103990F922B909331039091DA
:1050E0003003913061F4109230039091310390932A
:1050F000BB009091BC0093FDF8CF95EC01C095EEFC
:105100009093BC00909156039230E1F39091540338
:105110009F3F79F080915403803241F08091540395
:10512000803331F084E005C081E003C082E001C03B
:1051300083E01092C8031092C7031092570308959A
:1051400091E090935703809378031092C8031092D4
:10515000C70308950F931F93CF9388E60E94A0285A
:105160008BEC93E060E00E94631D09E213E0F8011C
:105170008081CAE06C2F0E94EE32692FF0E18F9F90
:10518000600D11248BEC93E00E94631DF801818176
:105190006C2F0E94EE32692FF0E18F9F600D112479
:1051A0008BEC93E00E94631DF80182816C2F0E94BA
:1051B000EE32692FF0E18F9F600D11248BEC93E0AC
:1051C0000E94631DF80183816C2F0E94EE32692FCB
:1051D000F0E18F9F600D11248BEC93E00E94631D22
:1051E000F80184816C2F0E94EE32692FF0E18F9FCD
:1051F000600D11248BEC93E00E94631DF801858102
:105200006C2F0E94EE32692FF0E18F9F600D112408
:105210008BEC93E00E94631DF80186818E516C2F08
:105220000E94EE32692FF0E18F9F600D11248BEC0C
:1052300093E00E94631D0E944328CF911F910F911C
:105240000895909156039111FCCF613208F060E20D
:1052500091E090935603909355032FEF20935403BE
:1052600010925303260F2093520390933103909191
:105270003103880F892B8093310380913003813073
:1052800061F410923003809131038093BB008091D0
:10529000BC0083FDF8CF85EC01C085EE8093BC0097
:1052A000809156038130E1F380915303861710F407
:1052B00060915303A2E3B3E029E033E0F9018E2FBC
:1052C000821B861718F48D918193F9CF1092CA032F
:1052D0006093C903862F0895A0E0B0E0E2E7F9E209
:1052E0000C940C32E82EC62ED42EE901EDEFE80F17
:1052F000E03128F4F0E0E653FE4FF08001C0F12CDD
:105300006AE070E080E090E00E946627892B29F037
:1053100089E793E00E94E817F3CF89E793E06EE70F
:105320000E947C1789E793E062E06F0D0E947C1772
:1053300089E793E06E2D0E947C17FF2069F089E7D2
:1053400093E06C2D0E947C1782E0F81205C089E77B
:1053500093E06D2D0E947C1789E793E06FEE0E9429
:105360007C17209749F00115110531F0CE0160E05E
:1053700070E0A8010E94283368EE73E080E090E0BE
:105380000E946627E12CF12C0150110962E370E0C4
:1053900080E090E00E946627892B89F089E793E0FE
:1053A0000E94E817209791F3E016F10678F7FE01C6
:1053B000EE0DFF1D8083C70101967C01E7CFCDB7BD
:1053C000DEB7E8E00C942832A5E0B0E0EAEEF9E2BE
:1053D0000C94103260E040E09E012F5F3F4F05E0EB
:1053E00010E00E946C29CE01019660E070E040E17F
:1053F00050E00E943F2FCB012596E4E00C942C3224
:105400000F931F9360E040E020E030E000E010E008
:105410000E946C291F910F9108950F931F93682F7D
:1054200081E140E020E030E000E010E00E946C29E3
:105430001F910F9108951092A30388E993E060E013
:105440000E94F52E089588E08093A30388E993E0F5
:1054500060E00E94F52E0895CF93C82F682F607FDB
:1054600088E993E00E940F2F80E1C89FB0011124CA
:1054700088E993E00E940F2FCF91089581E00E9468
:105480002C2A8BE39FE10197F1F70895A8E0B0E0A3
:10549000ECE4FAE20C94123298E0EAE9F1E0DE0181
:1054A000119601900D929A95E1F79091A0039617AD
:1054B00010F46FEF690FFE013196E60FF11DE60F54
:1054C000F11D9081890F80680E942C2A2896E2E0C5
:1054D0000C942E32CF93DF93C8E9D3E08E818B7F7B
:1054E0008E8388600E942C2A1B86CE0160E00E9479
:1054F000F52EDF91CF910895CF93DF93C8E9D3E0E4
:105500008E81982F94609E838C600E942C2A88E064
:105510008B87CE0160E00E94F52EDF91CF91089538
:10552000E8E9F3E086818E7F868388600E942C2ADA
:105530000895E8E9F3E08681982F91609683896069
:105540000E942C2A0895A2E0B0E0E9EAFAE20C9465
:105550000E32877028E0829FC00111248064698325
:105560007A830E942C2A6981E62E7A81F72E8701A0
:10557000085F1F4FF70161917F0188E993E00E9466
:10558000282FE016F106B1F72296E6E00C942A32B5
:105590008F929F92AF92BF92CF92DF92EF92FF9243
:1055A0006C010E94F61B4B015C01E12CF12C0E9466
:1055B000F61BDC01CB0188199909AA09BB098C15D6
:1055C0009D05AE05BF0598F3FF90EF90DF90CF905B
:1055D000BF90AF909F908F900895682FE0919803AF
:1055E000F09199030190F081E02D88E993E009950D
:1055F00008958F929F92AF92BF920F931F93CF9374
:10560000DF93CDB7DEB7A1970FB6F894DEBF0FBE1C
:10561000CDBF19A2423008F44AE08E010F5D1F4F42
:10562000842E912CA12CB12CA50194010E94AE31A5
:10563000E62FB901CA0101501109EA3014F4E05D06
:1056400001C0E95CD801EC93232B242B252B61F7B7
:1056500088E993E0B8010E94DF2EA1960FB6F89476
:10566000DEBF0FBECDBFDF91CF911F910F91BF90D5
:10567000AF909F908F900895CF92DF92EF92FF921C
:10568000CF93DF936C01990FEE08FF08F7FE11C06E
:105690008DE20E94ED2AEC0166277727CB016C1979
:1056A0007D098E099F094AE00E94F92A8C0F9D1FEF
:1056B00005C0C701B6014AE00E94F92ADF91CF91E7
:1056C000FF90EF90DF90CF9008950F931F93CF93AB
:1056D000DF938C01C0E0D0E0F801EC0FFD1F649176
:1056E000662371F0E0919803F09199030190F081A5
:1056F000E02D88E993E00995892B11F02196ECCFF4
:10570000CE01DF91CF911F910F910895A0E0B0E0FD
:10571000ECE8FBE20C940832962F3FB7F8944091E6
:10572000810250918202609183027091840226B5B9
:10573000A89B06C02F3F21F04F5F5F4F6F4F7F4FF9
:105740003FBF762F652F542F4427420F511D611DF7
:10575000711DE2E0440F551F661F771FEA95D1F7D0
:10576000EA01CC0FDD1FCC0FDD1F4C275D27EA01BE
:10577000CC0FCD2FCC1FDD0BD195C427D5277E01B3
:10578000F694FE2CEE24F794E794082F10E0692F8E
:1057900070E0601B710B072E000C880B990B0E94A8
:1057A0006B3020E830E040E857E30E94CA304B01FC
:1057B0005C01CE25DF25BE0180E090E00E946930CB
:1057C0009B01AC01C501B4010E94CA306B017C0190
:1057D000B801110F880B990B0E946B309B01AC0133
:1057E000C701B6010E9449320E94B532862FCDB75B
:1057F000DEB7ECE00C94243280E090E00E94851B40
:105800000E946A2A81E080931F0210922402089568
:105810000E943E2A82E060E00E94462A08950F938B
:105820001F93CF930E943E2A02E011E0C0E08C2F2C
:10583000B8010E94A32ACF5F085F1F4FC830B9F795
:10584000CF911F910F91089580E30E94ED2A089552
:1058500080E20E94ED2A0895BC0180E00E94A32A04
:105860000E943E2A80E00E94ED2A0E94282C089582
:10587000CF93C42F0E94462ACC2321F00E94282CCB
:10588000C150FACFCF910895A1E0B0E0EAE4FCE284
:105890000C94123249830E94462A4981842F0E9427
:1058A000ED2A2196E2E00C942E32CF93C82F0E946D
:1058B000A7128091FF02811106C04C9904C080910B
:1058C0009102811146C18091320290913302059775
:1058D0000CF4C1E04C990DC080918F02811109C078
:1058E00080919002811105C080910003882309F402
:1058F00033C180912202882309F4FAC08091000309
:105900008111F6C00E94B5112091DA039091D9035C
:1059100080912A032111E9C09813E7C03091D80380
:1059200020912B033213E1C080911F0281110E944C
:105930007C2A8091240281110E94232A5E9880E0B3
:105940006AE871E00E94A32A0E943E2A0E94902ADF
:1059500087E060E00E94462A80912B038A3010F491
:105960000E94242C80912B036AE070E00E94F818BA
:105970008AE30E94ED2A80912A038A3010F40E9463
:10598000242C80912A036AE070E00E94F81884E0D9
:1059900063E00E94462A80E394E00E94652B81E048
:1059A000809300038091900281115F98C091D7038A
:1059B000C13061F480918F02811108C08091910201
:1059C000811104C00E94FA21C0938F0210928C02B0
:1059D00080918C02843009F44CC09091D90380915D
:1059E0002A03981346C085E062E040E00E94442C00
:1059F00088E294E00E94652B80E00E94ED2A81E01D
:105A00000E94552C80938C028FEF90E00E94851BA2
:105A10008091D703882341F080919102811104C0C5
:105A20008091FF02882321F0809102030E9440228E
:105A30008091D703823039F44C9905C0809191024E
:105A4000882309F48BC084EF91E00E94FA2D85E051
:105A500062E049E00E94382C80E090E00E94851BC3
:105A600084EF91E00E94FA2D0E94322180932A0354
:105A7000AFCF80919102811104C08EE00E94002A74
:105A800006C08091D703813011F40E946D19809176
:105A9000900281115F9A109200039091D903809136
:105AA0002A03981309C09091D80380912B0398136F
:105AB00003C081E08093DA030E943E2A80911F0296
:105AC000882331F080918F02811102C04C9B4CC021
:105AD00080911F0281110E946A2A80912402811103
