:100000000C944A020C9472020C9472020C945F10CD
:100010000C945F100C945F100C9449220C947202A3
:100020000C9472020C9472020C9472020C947E1462
:100030000C9472020C9472020C9472020C94720270
:100040000C94310F0C9472020C9472020C94720294
:100050000C9472020C9472020C9472020C94720250
:100060000C94EF100C9472023F2C422C442C462C22
:10007000482C4A2C4D2C502C532C562C592C7B2C74
:10008000882C992CA52CB02CBC2CD22CE32CE82C41
:10009000FA2C760379037C037F03820385038803AC
:1000A000CF07D607E107F407F70702080B08100887
:1000B0003208370859086208340A3D0A510A6B0AA7
:1000C000770A830A950AA10AAA0AC40AD90AEB0A7E
:1000D000050BED16F016F316F516F716F916FB16C6
:1000E000FE1601170417211728172F173D1752174F
:1000F00060176E177C1790179E17426972746864B8
:100100006179004861707079004963682062696EA6
:100110002068696572210047657363686963687464
:10012000656E2068004155582D45696E67616E67A0
:1001300000456967656E6573206800526164696F88
:100140002068005B205D204D5033005B205D205215
:100150006164696F005B205D205765636B746F6E2F
:100160000020205B6175735D0020205B616E205D67
:10017000004D503300526164696F00546F6E005738
:1001800065636B746F6E202020205B202020202070
:100190005D004E657565205765636B7A656974000F
:1001A00061757300616E20002E3230004E6163680D
:1001B000746D6F647573205B2020205D004E657543
:1001C00065205568727A6569742F446174756D0095
:1001D0005A3A2000416B6B753A0020543A20005285
:1001E000414D3A2020004932433A20002D3035302D
:1001F000313137004669726D776172653A2000626D
:1002000079204E696B6F6C6169205261646B650087
:10021000446965736572204E4F4B4F2067656820B7
:100220007274004D65696E204E4F4B4F00446973E8
:1002300074616E7A6C696368742020205B205D00B5
:100240005374756D6D202020202020202020205BFD
:10025000205D00416B6B752073706172656E2020AC
:1002600020205B205D007765697465722E2E2E005C
:1002700044697374616E7A202B2F2D205B205D0002
:100280004576656E747320202B2F2D205B205D003A
:100290004C454420202020202B2F2D205B205D006A
:1002A0004E4F4B4F207374656C6C656E007A6569B8
:1002B00074207374656C6C656E00416C61726D20A6
:1002C0007374656C6C656E00537069656C20776142
:1002D0007320766F72004E61736520647220636BC9
:1002E000656E00206175662056002055706461744B
:1002F00065206572666F6C67726569636800476543
:100300006275727473746167210053616D737461F7
:1003100067004672656974616700446F6E6E2E7483
:100320006167004D697474776F6368004469656E36
:1003300073746167004D6F6E74616700536F6E6E0A
:100340007461670053746174696F6E20006765643F
:100350007220636B742068616C74656E202000529B
:100360004453204265656E64656E3A204C696E6B3D
:1003700073005B317C735D205B327C735D205B338B
:100380007C735D20005D5B3C5D5B205D5B205D5BA5
:100390003E5D5B0000000000240027002A000000F2
:1003A0000008000201000003040700000000000034
:1003B00000005041555345004B65696E65204D5016
:1003C000337320676566756E64656E004765736399
:1003D000686963687465005B3C5D5B205D5B205D04
:1003E0005B3E5D00205765636B746F6E202B2F2D75
:1003F000205B205D0061757300616E20006269738F
:1004000000766F6E005B2020205D2044696D6D6575
:100410006E205B205D004E616368746D6F64757360
:10042000207374656C6C656E000000000025002868
:10043000002B000000000023002600290004040413
:10044000040404040402020202020203030303037D
:10045000030102040810204080010204081020015A
:10046000020408102020416C61726D20004E6173FF
:100470006520647220636B656E002055687200729F
:10048000656E0073706569636865726E2E2E2E004E
:100490009D31933111241FBECFEFD8E0DEBFCDBF19
:1004A00012E0A0E0B1E0EEEBFDE602C005900D9297
:1004B000A631B107D9F723E0A6E1B2E001C01D9251
:1004C000A83EB207E1F712E0C9E4D2E004C02197E8
:1004D000FE010E94A632C834D107C9F70E94A723A3
:1004E0000C94D2360C94000083FD02C098E001C049
:1004F00098E28770892B98E10FB6F894A8959093AD
:1005000060000FBE80936000A895809160008064B9
:100510008093600080912802882319F083B7817F3F
:100520000BC080912302882321F083B7817F8460F0
:1005300003C083B7817F8C6083BF83B7816083BF33
:10054000889583B78E7F83BF0FB6F894A895809166
:100550006000886180936000109260000FBE8091FF
:1005600060008F7B809360000895CF93C82F61E077
:1005700081E00E94041D84E493E00E94A61D6AE0CD
:1005800070E08C2F0E941D0B8AE30E94EC1D80E21C
:100590000E94EC1DEC2FF0E0EE0FFF1FE15DFD4F20
:1005A0006081718180E090E00E94F33420E030E0CF
:1005B00040E251E40E94193342E0CF910C949A0B2F
:1005C000CF93809102038823E9F1809100039091F9
:1005D000FE0220912503981730F4C1E0821768F0DD
:1005E000291758F009C0891738F4C0E0821728F499
:1005F000291718F4C1E001C0C0E0891310C0509160
:10060000FF023091FD02351738F040912403451761
:1006100018F0341708F0C1E0381708F4C1E02813C7
:1006200007C0309124038091FF02381708F0C1E021
:10063000291309C0909124038091FD02981718F4A2
:10064000C1E001C0C0E080913002C81749F0CC235E
:1006500011F087E401C086E60E94DC14C0933002EA
:100660008C2FCF910895CF93DF930E947614C3E22D
:10067000D3E089830E94F9120E948313809197022C
:100680008A83DF91CF9108950E94F9120E9483130B
:1006900080919B0290E08E54984F90932F0280930C
:1006A0002E020E94F9120E94831380919902809376
:1006B00027030E94F9120E94831380919A0280936B
:1006C000280363E080E00E94041D0E94F9120E944A
:1006D0008313E09198028E2F90E0FC013197E73070
:1006E000F105D0F4E75BFF4F0C94A6328CE393E066
:1006F00011C085E393E00EC08CE293E00BC083E26F
:1007000093E008C08AE193E005C082E193E002C073
:100710008AE093E00E94A61D63E08AE00E94041D27
:10072000809127038A3010F40E94E91E6AE070E08D
:10073000809127030E941D0B8EE20E94EC1D809188
:1007400028038A3010F40E94E91E6AE070E080916C
:1007500028030E941D0B8EE20E94EC1D80912E0248
:1007600090912F020E94E90980912C0290912D0214
:100770000A9724F460E082E10C94041D08958091AE
:1007800028039DEF980F983008F06DC09CEF980FEC
:10079000963008F466C0833089F520912703409194
:1007A0002E0250912F0235E0349FC001359F900DED
:1007B000112497FD039695958795959587950496B1
:1007C00067E070E00E9492324FE150E0BA01681B8E
:1007D000790B38E1369FA001379F500D11244F5FF0
:1007E0005F4F8091250378E1279F90011124280F06
:1007F000311D81E042175307BCF135C08A3099F5AD
:100800002091270340912E0250912F0235E0349F12
:10081000C001359F900D112497FD039695958795FE
:1008200095958795019667E070E00E9492324FE1BE
:1008300050E0BA01681B790B38E1369FA001379F61
:10084000500D11244F5F5F4F8091250378E1279F62
:1008500090011124280F311D81E04217530724F421
:1008600002C081E0089580E00895EF92FF920F9317
:100870001F93CF93DF9388E60E94701B60E081EDA9
:1008800093E00E9409100E94131B67E070E088E665
:1008900090E00E94F01B81ED93E00E94BD0FC3E247
:1008A000D3E0982F9695969596959E70292F220FB6
:1008B000220F920F8F70890F888381ED93E00E9441
:1008C000BD0F982F92959F708F702AE0929F800D98
:1008D0001124898381ED93E00E94BD0F982F969596
:1008E000969596959670292F220F220F920F8F7052
:1008F000890F8A8381ED93E00E94BD0F982F929516
:100900009F708F702AE0929F800D11248B8381ED60
:1009100093E00E94BD0F982F92959F708F702AE0F0
:10092000929F800D11248C8381ED93E00E94BD0F76
:10093000982F92959F708F702AE0929F800D1124BE
:100940008D8381ED93E00E94BD0F982F9F70925E82
:1009500082958F70E92E2AE0829FE00C1124EE82AE
:10096000F12C8EE4E81A88EFF80A0D8110E02C8152
:1009700030E0488150E0698170E08A8190E00E9417
:100980001D12DF91CF911F910F91FF90EF9008956D
:10099000CF93C82F80912802882329F0809164008A
:1009A000806280936400C7FF04C083E00E947402E9
:1009B000C857C03420F082E00E947402CC53C03289
:1009C00020F081E00E947402CE51C03118F080E026
:1009D0000E94740280912802882321F08091640093
:1009E00010926400CF910895CF930E9433030E9428
:1009F000E00280932B02809125038A3010F460E09E
:100A000004C06AE00E947232682F81E00E94170AD7
:100A100080912503CAE06C2F0E947232692F84E016
:100A20000E94170A6AE087E00E94170A8091240357
:100A30008A3010F460E004C06C2F0E947232682F7C
:100A40008AE00E94170A809124036AE00E947232B1
:100A5000692F8DE00E94170A43E061E081E10E9466
:100A6000C11F61E081E10E94041D80912A02811171
:100A700004C080912902811103C088E70E94EC1D07
:100A800080912802882319F084E40E94EC1D809153
:100A90000203882349F080912B02882311F08EE411
:100AA00001C08EE60E94EC1D80912702882341F050
:100AB00062E083E00E94041D8EEF92E00E94A61D7A
:100AC00043E062E081E10E94C11F62E081E10E9497
:100AD000041D80912602882319F084EF0E94EC1DEA
:100AE0008091F902882319F080E70E94EC1D809123
:100AF0002502882319F083E50E94EC1D80918B026A
:100B0000811108C080918A02811104C080918902FC
:100B1000882319F080E50E94EC1D86E00E942B0ED0
:100B200090932D0280932C02C4E08AE00E94C804B6
:100B300086E00E942B0E20912C0230912D02820F14
:100B4000931F90932D0280932C02C15071F765E0A2
:100B500070E00E949232072E000C880B990B0E94C5
:100B6000F53420E030E040EA5BE30E94543526E6AD
:100B700036E646E350E40E94AC3226EF3DEF44E512
:100B80005CE30E9419330E948B331616170634F467
:100B9000643671052CF063E670E002C061E070E03D
:100BA000CB01072E000CAA0BBB0B9C01AD016A33D5
:100BB0007105A4F02953310941095109ABE5B0E0B1
:100BC0000E9479362AE230E040E050E00E945A3636
:100BD000DA01C9010896A11DB11D13C021503109C8
:100BE00041095109A7E0B0E00E94793627E330E0DF
:100BF00040E050E00E945A36DA01C9010196A11D79
:100C0000B11D90932D0280932C0260E081E10E943F
:100C1000041D80912C0290912D020A9744F440E229
:100C200060E081E10E94CE1F0E94601D02C00E9410
:100C3000571D80912C0290912D020E94E90980910C
:100C40002402882311F08BE201C085E20E94EC1D92
:100C500060E082E1CF910C94041D85E993E00E944D
:100C60008F220E94C01E0E9444030C94F404CF9271
:100C7000DF92EF92FF921F93CF93DF93C82FD62F6F
:100C80000E94420E6B017C0120E6C20E2AEED21EAB
:100C9000E11CF11C1092860214E0909186029111E1
:100CA00015C08C2F0E94DD1F80938602D11104C0D5
:100CB00088E70E94C804F1CF0E94420EC616D706EC
:100CC000E806F90650F710938602E7CF82E3DF913A
:100CD000CF911F91FF90EF90DF90CF900C94C804BC
:100CE0005F926F927F928F929F92AF92BF92CF92BC
:100CF000DF92EF92FF920F931F93CF93DF93CDB7C5
:100D0000DEB7CA54D1090FB6F894DEBF0FBECDBF0F
:100D10006AE471E081E00E946A1D6AE571E082E0A8
:100D20000E946A1D62E671E083E00E946A1D62E42F
:100D300071E084E00E946A1D8AE791E00E94B31F7F
:100D400080918902882329F0CE018F5B9F4F0E94FA
:100D5000B80E02E010E0D12C512CAE014F5F5F4F76
:100D60005A0190E4C92EC40E2AE0E22EF12C8091A3
:100D70008602843009F4E8C14BE562E081E00E941C
:100D8000CE1F82E00E94EC1D85E893E00E94A61D24
:100D900083E00E94EC1D8DE50E94EC1D63E081E084
:100DA0000E94041D82E793E00E94A61D43E161E0DA
:100DB00081E00E94C11F0E94601D80918902811103
:100DC00002C044E001C041E062E088E00E94CE1F22
:100DD00080918902811102C040E201C042E562E0D7
:100DE0008BE00E94CE1F60E082E00E94041D6091B3
:100DF00087027091880280E090E00E94F33420E046
:100E000030E040E251E40E94193342E00E949A0B24
:100E100080E20E94EC1DDD2069F05E980E9425159D
:100E20004AE060E089E00E94C11FCE018F5B9F4FC6
:100E30000E94B80E60E089E00E94041D8091890242
:100E4000882339F0BE016F5B7F4F85E993E00E94F4
:100E50006A220830B1F038F4063069F0073001F545
:100E600063E084E022C00A30A9F088F00B30C1F4BE
:100E700063E080E11AC081E00E94B50263E082E095
:100E800014C082E00E94B50263E088E00EC063E017
:100E90008AE00BC083E00E94B50263E08EE005C0EB
:100EA000802F880F800F62E08E5F0E94041D112347
:100EB00009F45BC010928602F50180E28193CE12A4
:100EC000FDCF0E94571D44E162E080E00E94C11FF7
:100ED00062E081E00E94041D8FE593E00E94A61D60
:100EE00063E081E00E94041D8DE493E00E94A61D52
:100EF00045EF63E085E00E94CE1F8091860283303B
:100F0000C0F5C5010E944E0E350184E0D82E13E0D5
:100F100061E082E00E94041D812C912CF301E80D18
:100F2000F91D808180310CF480E20E94EC1D5FEF9E
:100F3000851A950A80E18816910481F7C5010E94FF
:100F40004E0E62E08BE00E94041D80E00E94DD1FD7
:100F500080938602833088F61150D1F6DA9490E1BE
:100F6000690E711CD110D3CFC8CF61E080E00E9420
:100F7000370680918602823009F4CFC0833009F4AD
:100F8000D7C0813009F0DDC0802F90E08C30910512
:100F900008F0BDC0FC01E05BFF4F0C94A6328091CD
:100FA0008902882309F4B3C080E032C080918702AF
:100FB000909188028B3623E0920708F4A8C001972D
:100FC0007CC080918902882319F00E9420159FC05F
:100FD0008091F902811102C04C99F2C00E941C1547
:100FE00081E08093890293C01091890291C0809121
:100FF000870290918802883344E0940708F087C004
:1010000001965BC080918902882309F480C081E049
:101010000E94730C52C080913102909132024DC0F7
:1010200080918702909188029093320280933102DE
:10103000B7010E947E32682F86E190E00E94D314AF
:101040002091310230913202C901B7010E947E32F3
:10105000A901481B590BCA01B7010E947E3285E1E4
:1010600090E051C0809133029091340226C080916B
:101070008702909188029093340280933302B701E3
:101080000E947E32682F88E190E00E94D314209164
:10109000330230913402C901B7010E947E32A901A6
:1010A000481B590BCA01B7010E947E3287E190E0CC
:1010B0002AC08091350290913602909388028093E5
:1010C000870225C080918702909188029093360212
:1010D00080933502B7010E947E32682F8AE190E04A
:1010E0000E94D3142091350230913602C901B70114
:1010F0000E947E32A901481B590BCA01B7010E9408
:101100007E3289E190E00E94D3140E94D31E10E049
:10111000D0908902552453942ACE0B3008F40F5FE7
:101120008091890281110DC0033059F404E009C097
:101130000111015080918902811103C0033009F42B
:1011400002E010E0D12C13CE552009F180918702E6
:10115000909188020AE010E0B8010E947E32682F68
:1011600082E190E00E94D31420918702309188029E
:10117000C901B8010E947E32A901481B590BCA015E
:10118000B8010E947E3281E190E00E94D3140E9457
:10119000C01EC65BDF4F0FB6F894DEBF0FBECDBFDB
:1011A000DF91CF911F910F91FF90EF90DF90CF9043
:1011B000BF90AF909F908F907F906F905F900895B9
:1011C0000E940D150BCF8F929F92AF92BF92CF923C
:1011D000DF92EF92FF926C010E94420E4B015C0184
:1011E000E12CF12C0E94420EDC01CB0188199909F7
:1011F000AA09BB098C159D05AE05BF0528F481E041
:101200000E94DD1F843071F781E00E94DD1F843071
:1012100011F480938602FF90EF90DF90CF90BF9003
:10122000AF909F908F9008950C94C71DCF92DF923E
:10123000EF92FF920F931F93CF93DF936C017A018C
:101240008B01C0E0D0E0CE15DF0589F0D8016D91AB
:101250008D01D601ED91FC910190F081E02DC60148
:101260000995892B11F47E0102C02196ECCFC701AC
:10127000DF91CF911F910F91FF90EF90DF90CF9072
:1012800008952091790230917A022817390771F474
:101290009091780280917702981741F0E09178025E
:1012A000F0E0E95CFD4F808190E008958FEF9FEFC3
:1012B000089508951F93CF93DF93DC015C962D91E1
:1012C0003C915D972115310539F481E090E013964A
:1012D0009C938E9312973DC05196ED91FC9152973D
:1012E00050969C915097892F80951FB75E964C9190
:1012F0005E9741FB772770F941FD6095F894408136
:10130000772311F0492B01C048234083E90121973D
:10131000F1F748E0508160FF02C0592B01C058230B
:101320005083E9012197F1F76695415099F77723AA
:1013300021F090818923808303C08081982B908342
:101340001FBF5C968D919C915D970197F1F721E00D
:1013500030E0C901DF91CF911F910895209179026A
:1013600030917A022817390771F480917702209121
:10137000780290E0805C9F4F821B910960E470E0EE
:101380000E949232089580E090E0089520917902C1
:1013900030917A0228173907B9F490917802809138
:1013A0007702981789F0E0917802F0E0E95CFD4F50
:1013B00080812091780230E02F5F3F4F2F733327D9
:1013C0002093780290E008958FEF9FEF08950E9498
:1013D000C433CF92DF92EF92FF92CF93DF936C01F1
:1013E000990FEE08FF08F7FE17C08DE20E94EC1D72
:1013F000EC0166277727CB016C197D098E099F09BF
:101400004AE00E94F71D8C0F9D1FDF91CF91FF9046
:10141000EF90DF90CF9008954AE0C701B601DF91C9
:10142000CF91FF90EF90DF90CF900C94F71DCF936A
:10143000C62F809385021092840243E060E00E94F0
:10144000C11F609184026F5F43E0809185020E941A
:10145000C11F8C2F90E08D30910508F0ECC0FC018D
:10146000E45AFF4F0C94A63240E0609184028091D0
:1014700085020E94CE1F81E075C041E06091840228
:10148000809185020E94CE1F82E00E94EC1D609137
:1014900084026F5F44E0809185020E94CE1F87E046
:1014A00016C046E060918402809185020E94CE1FA2
:1014B00086E00E94EC1D82E00E94EC1D6091840297
:1014C0006F5F43E0809185020E94CE1F84E00E94FE
:1014D000EC1D84E0ADC046E06091840280918502FD
:1014E0000E94CE1F86E00E94EC1D82E017C043E000
:1014F00060918402809185020E94CE1F84E00E9448
:10150000EC1D87E04CC043E060918402809185022D
:101510000E94CE1F86E00E94EC1D86E00E94EC1D1A
:10152000609184026F5F44E026C040E060918402D5
:10153000809185020E94CE1F86E00E94EC1D86E00D
:1015400014C041E060918402809185020E94CE1F08
:1015500081E022C040E060918402809185020E9477
:10156000CE1F86E00E94EC1D82E00E94EC1D60917F
:1015700084026F5F43E0809185020E94CE1F84E069
:101580000E94EC1D85E054C040E06091840280918F
:1015900085020E94CE1F86E00E94EC1D82E00E9420
:1015A000EC1D609184026F5F8091850247E08E5F41
:1015B0000FC08091850244E0609184028F5F0E9499
:1015C000CE1F609184026F5F8091850244E08F5F3F
:1015D000CF910C94CE1F40E06091840280918502EF
:1015E0000E94CE1F82E00E94EC1D80E00E94EC1D54
:1015F000609184026F5F47E0809185020E94CE1F58
:1016000083E00E94EC1D87E013C047E060918402F4
:10161000809185020E94CE1F80E00E94EC1D6091A7
:1016200084026F5F47E0809185020E94CE1F83E0B5
:10163000CF910C94EC1DCF910895AB01672B59F419
:10164000E0919503F09196030190F081E02D682FD1
:1016500085E993E00994682F70E080E090E00C94B5
:10166000F71D1F93CF93DF9380E10E94701BC5EBA2
:10167000D3E018816981229681ED93E00E940910E0
:10168000612F81ED93E00E94091083E0C13CD807EF
:1016900081F70E94131B91E0811190E0892FDF9167
:1016A000CF911F9108950F931F93CF93DF9360E223
:1016B00070E080E190E00E94F01B8091740390E064
:1016C00020917503821B910980329105ECF3CAE0E9
:1016D000D0E081ED93E00E94BD0F8E01000F111F3D
:1016E00002551C4FF8011382848381ED93E00E9420
:1016F000BD0FF80123813481822B932B9483838344
:10170000C930D10539F02196C031D10511F7C0E0BB
:10171000D0E0DFCFDF91CF911F910F9108950E940C
:10172000530BEEEAF3E0878190858064908787838E
:101730000C94310B4F925F926F927F928F929F9297
:10174000AF92BF92CF92DF92EF92FF926B017C013A
:10175000B42E9B01AC010E94BF33882319F068E0CE
:1017600072E027C026013701E89477F82FEF3FEFAA
:101770004FE75FE7C301B2010E94BF3381110DC083
:101780002FEF3FEF4FE75FE7C301B2010E94EE3456
:1017900018161CF46CE072E00CC02FEF3FEF4FE71F
:1017A0005FE4C701B6010E94BA33181694F460E1F1
:1017B00072E085E993E0FF90EF90DF90CF90BF90CB
:1017C000AF909F908F907F906F905F904F900C9410
:1017D0006A222FEF3FEF4FE75FECC701B6010E948F
:1017E000EE3487FDE4CF20E030E0A901C701B60167
:1017F0000E94EE3487FF09C08DE20E94EC1D4C016F
:10180000F7FAF094F7F8F09402C0812C912CA12CF7
:1018100060E070E080E09FE3AB1441F020E030E056
:1018200040E251E40E941933A394F6CF9B01AC012E
:10183000C701B6010E94AD322B013C010E948B33DF
:101840006B017C010E94F3349B01AC01C301B20126
:101850000E94AC322B013C014AE0C701B6010E9454
:10186000F71D7C01E80CF91CBB2041F064E172E03B
:1018700085E993E00E946A22E80EF91EDB2CDD2048
:1018800021F120E030E040E251E4C301B2010E94C6
:1018900054352B013C010E948B334B01A12CB12C00
:1018A0004AE0C501B4010E94F71DE80EF91EC5010A
:1018B000B4010E94F3349B01AC01C301B2010E9448
:1018C000AC322B013C01DA94DACFC701FF90EF90E4
:1018D000DF90CF90BF90AF909F908F907F906F9050
:1018E0005F904F9008950F931F93CF93DF931F92B4
:1018F000CDB7DEB789830E94530B2091B503309199
:10190000B603A9015B7F8981811106C0397F3093BD
:10191000B6032093B50306C0CA0192609093B60344
:101920008093B5038091B5039091B6039160909335
:10193000B6038093B5030E94310B0E94530B809134
:10194000C5039091C60396FFF8CF0E94530B0091F8
:10195000C5031091C603002710728091B5039091C2
:10196000B6039E7F9093B6038093B5030E94310B1C
:101970000E94530B2091C5033091C603C9018827EB
:10198000907436FDF5CF012B49F40E94530B8091E2
:10199000C7039091C803937085599C4F0F90DF91B6
:1019A000CF911F910F9108951F93CF93DF931F92B3
:1019B000CDB7DEB7182F87E599830E94701B9981F8
:1019C000692F81ED93E00E940910612F81ED93E072
:1019D0000E9409100E94131B61E070E087E590E00F
:1019E0000E94F01B9091740380917503981729F061
:1019F00081ED93E00E94BD0F01C08FEF0F90DF914A
:101A0000CF911F91089590E0FC01E256FC4F349174
:101A1000FC01EF5AFB4F2491FC01E35CFB4FE49186
:101A2000EE2309F43BC0332339F1333091F038F41D
:101A30003130A9F0323001F584B58F7D12C03730D6
:101A400091F03830A1F03430B9F4809180008F7D6E
:101A500003C0809180008F77809380000DC084B593
:101A60008F7784BD09C08091B0008F7703C08091CB
:101A7000B0008F7D8093B000F0E0EE0FFF1FE75DB8
:101A8000FB4FA591B4918FB7F894EC91611103C00D
:101A900020952E2301C02E2B2C938FBF0895CF931A
:101AA000DF9390E0FC01EF5AFB4F2491FC01E35CD3
:101AB000FB4F8491882361F190E0880F991FFC010E
:101AC000EC56FC4FC591D491FC01E75DFB4FA5910D
:101AD000B491611109C09FB7F89488812095822341
:101AE0008883EC912E230BC0623061F49FB7F89489
:101AF0003881822F809583238883EC912E2B2C9321
:101B00009FBF06C08FB7F894E8812E2B28838FBF24
:101B1000DF91CF910895CF93DF93EC0161E08AE0EC
:101B20000E944F0D209711F460E004C0CF3FD10513
:101B300031F461E08AE0DF91CF910C94030DE8EA83
:101B4000F3E0E491E330F9F048F4E130B9F0E23049
:101B5000A1F584B5806284BDC8BD34C0E730E9F02A
:101B6000E83019F1E43049F580918000806280937B
:101B70008000D0938B00C0938A0024C084B5806815
:101B800084BDC7BD1FC080918000806880938000A5
:101B9000D0938900C093880015C08091B000806800
:101BA0008093B000C093B3000DC08091B0008062FC
:101BB0008093B000C093B40005C0C038D1050CF0CC
:101BC000B8CFB2CFDF91CF910895CF93DF93CEEA14
:101BD000D3E061E088810E944F0D61E089810E941D
:101BE0004F0D60E089810E94030D60E088810E94B2
:101BF000030D81E090E00E94C71D61E088810E9492
:101C0000030D81E090E00E94C71D0E94ED1A0E9422
:101C1000530B80E091E89A8B898B0E94310B84EF03
:101C200091E00E94C71D0E94530B81E090EC9887C1
:101C30008F838B859C8598619C878B878D859E85FE
:101C40008F619E878D870E94310B8EE690E0DF9139
:101C5000CF910C94C71D8E3008F08E508770806431
:101C600080937C0080917A00806480937A008091D8
:101C70007A0086FDFCCF809178002091790090E079
:101C8000922B08952FB7F894609180027091810291
:101C900080918202909183022FBF08958F929F922C
:101CA000AF92BF92EF92FF920F931F93CF93DF9368
:101CB0007C010E94420E4B015C0124EF820E21E068
:101CC000921EA11CB11CC0E0D0E000E010E00E9418
:101CD000420E681579058A059B0598F02196CC0F70
:101CE000DD1FCC0FDD1FCE0DDF1D1882DF91CF91E0
:101CF0001F910F91FF90EF90BF90AF909F908F90AA
:101D000008950830110554F70E94530B8091C503C4
:101D10009091C60397FF27C0E091CB03F091CC03CD
:101D2000CF018827987F81159042D1F4EF70FF276B
:101D3000EC17FD071CF00F5F1F4FEF018091CD03E3
:101D40009091CE03EE0FFF1FEE0FFF1FEE0DFF1D54
:101D5000908381838091CF039091D003928383837A
:101D600088E290E002C08EE190E00E94C71DAFCFF4
:101D70008F929F92AF92BF92DF92EF92FF920F935A
:101D80001F93CF93DF9300D000D0CDB7DEB77C0197
:101D90000E94420E4B015C0128EE820E23E0921E4F
:101DA000A11CB11C19821A821B821C8200E010E067
:101DB000DD24D3940E94420E681579058A059B059F
:101DC000F8F40E94530B8091C5039091C60397FFCE
:101DD00035C08091CB039091CC03FC01E370FF27C9
:101DE000A1E0B0E0AC0FBD1FAE0FBF1F2C912223AE
:101DF000A1F088E290E00E94C71D04301105D0F2E6
:101E00000E94420E681579058A059B0518F0F701B6
:101E1000108217C0F701108614C0843F914048F724
:101E2000DC920F5F1F4F8091CF039091D003EE0F94
:101E3000FF1FEE0DFF1D90838183DBCF8EE190E0CD
:101E4000DACF0F900F900F900F90DF91CF911F91ED
:101E50000F91FF90EF90DF90BF90AF909F908F9089
:101E600008951F920F920FB60F9211242F933F9354
:101E70008F939F93AF93BF93809180029091810243
:101E8000A0918202B091830230917F0223E0230F60
:101E90002D3720F40196A11DB11D05C026E8230FA2
:101EA0000296A11DB11D20937F0280938002909322
:101EB0008102A0938202B093830280917B02909171
:101EC0007C02A0917D02B0917E020196A11DB11D00
:101ED00080937B0290937C02A0937D02B0937E025C
:101EE000BF91AF919F918F913F912F910F900FBE16
:101EF0000F901F90189585ED8093BC008091BC00D9
:101F000084FDFCCF1092710308954091D202262FD8
:101F100030E0240F311D21323105DCF420917103B2
:101F20002430C9F4FC0180E090E0861758F4309129
:101F3000D2022191DC01A055BD4FA30FB11D2C93FE
:101F40000196F3CF8091D202680F6093D20280E0B5
:101F5000089581E0089582E008950895E091750361
:101F600080917403E81730F4F0E0ED5FFC4F80815E
:101F700090E008958FEF9FEF089590917503809101
:101F80007403981750F4E92FF0E0ED5FFC4F2081C7
:101F900030E09F5F9093750302C02FEF3FEFC901C0
:101FA00008958091740390E020917503821B91093C
:101FB0000895CF92DF92EF92FF920F931F93CF93EA
:101FC000DF937C01262F972F8A0180914E0388236F
:101FD00091F0C62FD72F6E01C40ED51ECC15DD058E
:101FE00071F06991D701ED91FC910190F081E02DA4
:101FF000C7010995F3CF642F822F0E94850FC80176
:10200000DF91CF911F910F91FF90EF90DF90CF90D4
:102010000895CF93DF931F92CDB7DEB769832091E8
:102020004E032223D1F020917203203240F021E0B0
:1020300030E0FC013383228380E090E015C0809182
:102040007303E82FF0E0E15BFC4F998190838F5F91
:10205000809373038093720305C061E0CE01019603
:102060000E94850F81E090E00F90DF91CF9108955D
:102070006093AC027093AD028093AE029093AF0276
:10208000DC01CB01845D9E4FAF4FBF4F8093A80210
:102090009093A902A093AA02B093AB0282E090E0D1
:1020A0009093A7028093A6020E94420E6093A20220
:1020B0007093A3028093A4029093A50208951F92A7
:1020C0000F920FB60F9211242F933F934F935F936C
:1020D0006F937F938F939F93AF93BF93EF93FF93F0
:1020E000E0917902F0917A02309709F451C0968D0F
:1020F000A685B785858591FF04C09C91892329F425
:1021000047C09C91892309F043C0A389B4899C915D
:102110008589809589238C93868997890197F1F722
:10212000608D718DA685B785558538E020E0CB019F
:102130000197F1F7822F90E095958795282F4C9184
:10214000452309F02068315091F7868D81FD209557
:102150008091770290E001968F73992730917802F1
:10216000381749F0A0917702B0E0A95CBD4F2C93DD
:102170008093770203C0868D8160868F828D938DD8
:102180000197F1F7A389B4899C918589892B8C9358
:10219000FF91EF91BF91AF919F918F917F916F913F
:1021A0005F914F913F912F910F900FBE0F901F9015
:1021B0001895E0917902F0917A02E817F90769F42D
:1021C000A389B4899C918589809589238C931092E9
:1021D0007A021092790281E0089580E008951F92BA
:1021E0000F920FB60F9211242F933F934F935F934B
:1021F0006F937F938F939F93AF93BF93EF93FF93CF
:102200008091B900887F803609F49CC068F58832D7
:1022100009F45BC090F4803109F454C038F4882389
:1022200009F4F6C0883009F44DC0F6C0883109F4CD
:102230004CC0803209F45DC0EFC0803409F468C03E
:1022400048F4803309F455C0883309F0E5C0809321
:102250004D03D8C0803509F44FC0883509F45DC0FE
:10226000883409F0D9C0D6C0883909F4C7C0A8F4A9
:10227000883709F467C038F4883609F463C08037BA
:1022800009F460C0C9C0883809F4B8C0803909F4BD
:102290005FC0803809F0C0C05BC0803B09F486C0D5
:1022A00038F4803A09F466C0883A09F47FC0B4C0B3
:1022B000803C09F4A7C0883C09F4A4C0883B09F419
:1022C0008AC0AAC080912A0310C090914C038091CB
:1022D0004B03981770F5E0914C0381E08E0F8093CB
:1022E0004C03F0E0E55DFC4F80818093BB0085EC02
:1022F00086C080934D038EC0E0914C0381E08E0F29
:1023000080934C038091BB00F0E0E55DFC4F80833F
:1023100090914C0380914B036EC0E0914C0381E09F
:102320008E0F80934C038091BB00F0E0E55DFC4F85
:1023300080838091700381116DC081E080936F0371
:1023400084EA61C083E0809371031092F602CFCFDC
:102350008091F602803208F051C0E091F60281E0EF
:102360008E0F8093F6028091BB00F0E0EA52FD4FA1
:102370008083BDCF85EC8093BC0010927103809167
:10238000F602803230F4E091F602F0E0EA52FD4FBE
:1023900010826091F60270E0E091D402F091D502D3
:1023A00086ED92E009951092F60236C084E08093A3
:1023B00071031092D3021092D202E091D002F091F8
:1023C000D10209958091D202811105C081E08093EC
:1023D000D2021092B002E091D30281E08E0F80937E
:1023E000D302F0E0E055FD4F80818093BB009091D7
:1023F000D3028091D202981708F479CF85E88093B0
:10240000BC000AC085EC8093BC001092710304C02C
:1024100010924D030E947B0FFF91EF91BF91AF91FE
:102420009F918F917F916F915F914F913F912F91EC
:102430000F900FBE0F901F9018953F924F925F9292
:102440006F927F928F929F92AF92BF92CF92DF92C4
:10245000EF92FF920F931F93CF93DF93382E962E18
:10246000842EF90184E6E816F1042CF082EBE81AD8
:1024700087E0F80A03C08EE1E80EF11CE0929B02AF
:1024800000939A02E09399023092970290929602FA
:1024900080929502AE2DB0E020E833E341EE51E0AA
:1024A0000E9479362B013C0122EB37E0FF2484E6C1
:1024B000C82ED12CC0E9D1E0C901825B97408E15AE
:1024C0009F05DCF4C90183709927892B99F4C90110
:1024D000B6010E949232892B31F4C901BE010E94DB
:1024E0009232892B39F480E8480E81E5581E81E04C
:1024F000681E711C2F5F3F4FDFCF8EE4E81A88EF14
:10250000F80AC70164E670E00E9492326C01C701CC
:1025100060E971E00E9492325C01C1E0D0E01127D5
:1025200083E0E822FF24C017D1072CF5C230D10583
:1025300089F4E114F10471F4C114D10419F4A11463
:10254000B10441F480E8480E8BE3581E86E2681E11
:10255000711C0FC0DE01AB55BE4FAC91B0E020E85E
:1025600031E541E050E00E947936460E571E681E64
:10257000791E2196D8CF292D30E0ACE3B0E00E943F
:10258000C3366B017C01C80CD11CE11CF11C232D4E
:1025900030E0A0E1BEE00E94C336C60ED71EE81EA2
:1025A000F91EDF01BB27119720E831E541E050E03B
:1025B0000E948436DC01CB018C0D9D1DAE1DBF1D1C
:1025C000BC01CD01640D751D861D971DDF91CF9156
:1025D0001F910F91FF90EF90DF90CF90BF90AF9041
:1025E0009F908F907F906F905F904F903F900C9452
:1025F0003810CF92DF92EF92FF920F931F930E94B9
:10260000420EC090A202D090A302E090A402F090EB
:10261000A5028B019C010C191D092E093F0980910F
:10262000AC029091AD02A091AE02B091AF02083E13
:10263000134021053105D0F00196A11DB11D8093F5
:10264000AC029093AD02A093AE02B093AF02B7017B
:10265000A60148515C4F6F4F7F4F4093A2025093A9
:10266000A3026093A4027093A502C9CF4091A8026F
:102670005091A9026091AA027091AB02841795074C
:10268000A607B70788F1E091A002F091A102309768
:1026900059F10995611571058105910519F00E949F
:1026A000381022C08091AC029091AD02A091AE0290
:1026B000B091AF02845D9E4FAF4FBF4F8093A80291
:1026C0009093A902A093AA02B093AB0281E090E09C
:1026D0002091A6023091A702232B11F480E090E014
:1026E0009093A7028093A6026091AC027091AD0214
:1026F0008091AE029091AF021F910F91FF90EF90E9
:10270000DF90CF9008954F925F926F927F928F9259
:102710009F92AF92BF92CF92DF92EF92FF920F9370
:102720001F93CF93DF934B015C0180919C029091AA
:102730009D02A0919E02B0919F0288169906AA065A
:10274000BB0609F4C2C08CE3C82ED12CE12CF12CBD
:10275000C501B401A70196010E9438366093950225
:10276000CA01B901A70196010E943836609396020A
:10277000CA01B90128E130E040E050E00E9438365B
:1027800069017A0160939702CA01B9016C5F7F4FBA
:102790008F4F9F4F27E030E040E050E00E943836F6
:1027A0006F5F60939802412C512C320140E004E6A7
:1027B00010E0C0E9D1E0242F30E02E54384FF90169
:1027C000E370FF27309789F4C901B8010E94923263
:1027D000892B31F4C901BE010E949232892B29F460
:1027E0008EE691E0A0E0B0E004C08DE691E0A0E0CC
:1027F000B0E0480E591E6A1E7B1ED301C201AA27F3
:10280000BB27C816D906EA06FB0610F04F5FD3CFE8
:1028100040939B02309799F4C90164E670E00E94EE
:102820009232892B39F4C90160E971E00E94923239
:10283000892B29F48EE691E0A0E0B0E004C08DE69B
:1028400091E0A0E0B0E0481A590A6A0A7B0AC4186D
:10285000D508E608F708C90164E670E00E949232E4
:10286000EC01C90160E971E00E949232A6EAB1E090
:1028700020E0213039F4309749F4209729F400976B
:1028800029F402C04C9103C04DE101C04CE150E07D
:1028900060E070E0C416D506E606F70640F0C41AFC
:1028A000D50AE60AF70A2F5F11962C3011F72F5F31
:1028B00020939A02C394C092990280929C029092B3
:1028C0009D02A0929E02B0929F02DF91CF911F9134
:1028D0000F91FF90EF90DF90CF90BF90AF909F90BF
:1028E0008F907F906F905F904F9008950E94F912A3
:1028F0000E9483138091960290E008951F920F9298
:102900000FB60F9211240F931F932F933F934F9362
:102910005F936F937F938F939F93AF93BF93EF9347
:10292000FF930E94420E0091910210919202209119
:102930009302309194026017710782079307B8F0F1
:1029400080916F008D7F80936F0082E08093810083
:1029500081E080938000E0918F02F091900290815D
:1029600080918E0280958923808310928E02E0915F
:102970008F02F0919002908180918E02892780834E
:10298000FF91EF91BF91AF919F918F917F916F9147
:102990005F914F913F912F911F910F910F900FBE1B
:1029A0000F901F9018950C941A360C9412365E985E
:1029B00086E490E00C9414090F931F93CF93DF9358
:1029C0001F92CDB7DEB789830E94D71400E010E0D4
:1029D00020E030E08981482F60E083E00E943B1CCA
:1029E00084E60E94C80480918D02882319F081E05A
:1029F0000E94EB1C80918C02882349F000E010E0DB
:102A000020E030E040E064E081E10E943B1C0F9058
:102A1000DF91CF911F910F9108958EE00E94DE1CEF
:102A200084E60E94C80410928C0210928D021092CB
:102A30008B0284E00C94EB1C5F9810928A0208953C
:102A40000E948F0B109289020895CF93DF930E940A
:102A5000E50D80918702909188022AE0289FE0018D
:102A6000299FD00D1124CE52D2420E94530B2091A7
:102A7000B7033091B80322273E7F3068CE016AE069
:102A800070E00E947E32262B372B3093B8032093C0
:102A9000B7030E94310B0E94530B8091C5039091A4
:102AA000C60396FFF8CF0E94530B8091B703909115
:102AB000B8039F779093B8038093B7030E94310BBC
:102AC0000E94530B8091C5039091C60396FDF8CFE9
:102AD000DF91CF910895CF93823009F478C038F414
:102AE000882329F1813009F0B9C0CAE061C084307F
:102AF00009F48FC008F473C0853009F0AFC028EC2A
:102B000030E041E068EC70E088E592E00E94EC1E65
:102B100028EC30E041E068EC70E084EF91E00E9446
:102B2000EC1E2CE231E041E068EC70E092C02DE454
:102B300031E041E06AEF70E086E091E00E94EC1E37
:102B400027EA30E041E06DE770E084EC90E00E941D
:102B5000EC1E27EA30E041E06DE770E084EC90E0A5
:102B60000E94EC1E2DE431E041E06AEF70E08CED54
:102B700090E00E94EC1E2AE932E041E06AEF70E04A
:102B800084EC90E00E94EC1E2DE431E041E06AEF1D
:102B900070E087EF90E00E94EC1E2DE431E041E010
:102BA0006AEF70E086E091E056C0C15009F456C06B
:102BB00024E630E041E062E370E088EB91E00E94BF
:102BC000EC1E80918602843081F7C0E0EECF24EFC6
:102BD00031E041E068EC70E088EB91E03CC024E635
:102BE00030E041E064E670E088E592E00E94EC1E8F
:102BF00024E630E041E064E670E08CEB92E00E9475
:102C0000EC1E2CE231E041E064E670E080E293E00B
:102C100022C024E630E041E060E570E088E592E023
:102C20000E94EC1E24E630E041E060E570E080E9BF
:102C300091E00E94EC1E24E630E041E060E570E0A7
:102C400084EF91E00E94EC1E28EC30E041E060E56A
:102C500070E080E991E0CF910C94EC1ECF91089543
:102C6000CF92DF92EF92FF92CF93DF9382E891E0D1
:102C70000E94B31F86E194E00E94A61D61E082E0FD
:102C80000E94041D85E094E00E94A61D62E082E09F
:102C90000E94041D81E094E00E94A61D63E082E092
:102CA0000E94041D8DEF93E00E94A61DC0E0D4E1B8
:102CB00080918602843009F47DC161E083E00E9446
:102CC000041D80910203882319F089EF93E002C06C
:102CD00085EF93E00E94A61D80910103811102C03F
:102CE00040E201C048E561E080E10E94CE1F62E061
:102CF00086E00E94041D809100038A3010F40E9437
:102D0000E91E6AE070E0809100030E941D0B8AE3D7
:102D10000E94EC1D8091FF028A3010F40E94E91E8F
:102D20006AE070E08091FF020E941D0B0E94E51E88
:102D300063E086E00E94041D8091FE028A3010F458
:102D40000E94E91E6AE070E08091FE020E941D0B65
:102D50008AE30E94EC1D8091FD028A3010F40E94EB
:102D6000E91E6AE070E08091FD020E941D0B0E9446
:102D7000E51EC23048F440E262E080E00E94CE1FCF
:102D800061E080E00E94041D8EEF8C0F843060F4BF
:102D900040E261E080E00E94CE1F40E263E080E01C
:102DA0000E94CE1F62E008C0C63048F040E262E0F8
:102DB00080E00E94CE1F63E080E00E94041D8EE749
:102DC0000E94EC1DCC2ED12C8AE0C816D10400F54F
:102DD000F601E759FF4F0C94A63261E083E016C07C
:102DE00061E080E113C062E007C062E008C062E019
:102DF00009C062E00AC063E086E008C063E087E0E3
:102E000005C063E089E002C063E08AE00E94041D1F
:102E100061E080E00E94370680918602823009F4EA
:102E2000BFC0833009F4C1C0813009F041CF8AE0CE
:102E3000C816D10408F08FC0F601ED58FF4F0C946E
:102E4000A6329091020381E089278093020383C018
:102E50009091010381E08927809301037CC08091D8
:102E600000038E3020F4865F8093000374C06AE014
:102E70000E947232909300036EC020910003822F53
:102E80006AE00E947232993011F4295001C02F5F1C
:102E90002093000380910003883109F05CC0D09337
:102EA000000359C08091FF02813320F4865F809334
:102EB000FF0251C06AE00E9472329093FF024BC041
:102EC0002091FF02822F6AE00E947232993011F441
:102ED000295001C02F5F2093FF023DC08091FE0268
:102EE0008E3020F4865F8093FE0235C06AE00E9437
:102EF00072329093FE022FC02091FE02822F6AE070
:102F00000E947232993011F4295001C02F5F209332
:102F1000FE028091FE028831F1F4D093FE021BC0C4
:102F20008091FD02813320F4865F8093FD0213C0FF
:102F30006AE00E9472329093FD020DC02091FD0262
:102F4000822F6AE00E947232993011F4295001C038
:102F50002F5F2093FD02609102038BE090E00E94BE
:102F6000D314609100038CE090E00E94D314609130
:102F7000FF028DE090E00E94D3146091FE028EE08B
:102F800090E00E94D3146091FD028FE090E00E94D7
:102F9000D314609101038CE190E00E94D31488CE99
:102FA000C93008F085CECF5F83CECC2309F480CE24
:102FB000C1507ECE62E071E080E0DF91CF91FF9062
:102FC000EF90DF90CF900C946A1DCF93DF93C82FC2
:102FD00085E993E00E948F228EE70E94EC1D84EE2B
:102FE00093E00E94A61D60E08FE00E94041D0E94F5
:102FF000601D6AE070E0C13019F48091FC0202C0EB
:103000008091FB020E941D0B0E94D71481E08093E7
:10301000FA02D0E0809186028430F1F160E08FE026
:103020000E94041D61E081E00E94370680918602C3
:10303000813081F7C130A9F49091FC02953019F4E8
:103040001092FC0203C09F5F9093FC026AE070E064
:103050008091FC020E941D0B8091FC020E946B1566
:1030600019C09091FB029A3019F41092FB0203C030
:103070009F5F9093FB026AE070E08091FB020E94E8
:103080001D0B80918B02811105C08091FB028F5F27
:103090000E94DC14D1E0BECFDD2369F0C13029F4F9
:1030A0006091FC0287E090E004C06091FB0283E144
:1030B00090E00E94D31480918B02811103C08EE0B6
:1030C0000E94DE1C1092FA02DF91CF910895DF92E8
:1030D000EF92FF920F931F93CF93DF93CDB7DEB79D
:1030E0002D970FB6F894DEBF0FBECDBFE82E8091AE
:1030F0008B02811102C04C99FECF6AE471E081E03D
:103100000E946A1D62E571E082E00E946A1D62E42D
:1031100071E083E00E946A1D8AE791E00E94B31F7C
:1031200063E084E00E94041D87ED93E00E94A61DE9
:1031300042E063E08BE00E94CE1F8091F902882379
:1031400019F092E0F92E02C0FF24F3940E94601D52
:1031500080E5D82E80918602843009F4C4C181E0D4
:10316000E81282C060E082E00E94041D80910101AB
:103170008A3010F40E94E91E6AE070E0809101013B
:103180000E941D0B80E20E94EC1D2091F80230E0AD
:1031900021503109D29EC001D39E900D112420915F
:1031A0000101820F911D820F911D8E599F4F0E9428
:1031B000D40C6AE070E00E941D0B8AE30E94EC1DB3
:1031C0002091F80230E021503109D29EC001D39EF7
:1031D000900D112420910101820F911D820F911DEC
:1031E0008D599F4F0E94D40C8A3020F48D870E9405
:1031F000E91E8D856AE070E00E941D0B00E010E082
:103200002091010130E0215031094091F802429FA4
:10321000C001439F900D11248C599F4F800F911F27
:103220000E94D40C482F61E0802F0E94CE1F209175
:10323000010130E0215031094091F802429FC00164
:10324000439F900D1124800F911F88589F4F0E941B
:10325000D40C482F62E0802F0E94CE1F0F5F1F4FBB
:103260000431110569F661C082E0E81253C04C993F
:1032700009C08091F902811105C080918C028823D8
:1032800009F441C160E082E00E94041D80918C023B
:10329000882329F08CEC93E00E94A61D14C084E6DC
:1032A0000E94C8040CE010E09E012F5F3F4F40E0F9
:1032B00060E082E50E943B1CBE016F5F7F4F85E9A5
:1032C00093E00E946A2262E087E00E94041D4C9B0A
:1032D00005C080918C02882309F430C180910001DF
:1032E0008A3010F40E94E91E6AE070E080910001CB
:1032F0000E941D0B8FE20E94EC1D8091F7028A3024
:1033000010F40E94E91E6AE070E08091F7020E94CA
:103310001D0B0BC083E0E81208C061E080E00E9452
:10332000041D88EB93E00E94A61D60E08FE00E94E0
:10333000041D8091F902882329F082EB93E00E941A
:10334000A61D05C045E060E08FE00E94C11F4C99BA
:1033500006C08091F902811102C043E001C041E042
:1033600063E088E00E94CE1F8F2D880F8F0D63E0F1
:103370008B5F0E94041D61E081E00E94370680910E
:103380008602823009F49CC0833009F4A3C08130E6
:1033900009F0E0CEF816A9F1F81648F082E0F81628
:1033A00009F455C083E0F81609F458C0D3CE81E083
:1033B000E81207C080910101823008F45BC081509F
:1033C00057C082E0E81611F0F12CC4CE80910001C4
:1033D000823018F081508093000180918C02882304
:1033E00029F010928C0281E080938D024C9BECCFEF
:1033F000909100018091F802890F81590E94DC149C
:10340000A9CE8091890281110E9420154C991AC081
:1034100081E0E81205C0E0928C02809101010BC0AE
:1034200082E0E8120BC081E080938D029091000150
:103430008091F802890F81590E94DC1481E0809309
:103440008B0202C00E940D150E941C1583CE4C9960
:103450007FC08091F90281117BC07CCE81E0E812AF
:1034600017C0809101019091F802891718F48F5FBD
:103470008093010180918D02882329F010928D02A2
:1034800081E080938C024C9B65CE80910101B5CF89
:1034900082E0E8125FCE809100019091F7028917D7
:1034A00018F48F5F8093000180918C02882329F0AB
:1034B00010928C0281E080938D024C9B4BCE98CF72
:1034C0008091F902811146CE82E08F1508F442CE38
:1034D000F39440CE8091F90281113CCEFF2009F493
:1034E00073CFFA9437CE0E94C01E2D960FB6F89473
:1034F000DEBF0FBECDBFDF91CF911F910F91FF9027
:10350000EF90DF9008958091F80290E081599F4FED
:1035100020910001820F911D00E010E020E030E0DA
:10352000482F692F83E00E943B1C84E60E94C80458
:103530000E940D1584E60E94C804A4CE84E60E9471
:10354000C8048BE40E94B91C875980930001C6CE41
:103550008091890281110E9420158091F9028823AF
:1035600029F05E981092F9028DE004C081E080930A
:10357000F9028EE00E94DE1CEDCD8F929F92AF92F9
:10358000BF92CF92DF92EF92FF92CF93DF936B01C6
:103590007C010E94420E4B015C0186E793E00E9491
:1035A000AE09EC01892B69F40E94420EAB01BC010B
:1035B000481959096A097B094C155D056E057F0597
:1035C00060F3CE01DF91CF91FF90EF90DF90CF902D
:1035D000BF90AF909F908F900895109275031092B6
:1035E000740310927303109272031092710381E0BE
:1035F0008093700310926F0361E082E10E94030DDB
:1036000061E083E10E94030DE9EBF0E080818E7FB1
:10361000808380818D7F808388E48093B80085E4F7
:103620008093BC000895209172039091DD032132B4
:1036300008F04AC0809171038111FCCF32E03093D1
:10364000710331E0309370033FEF30934D031092DC
:103650004C0320934B03AFE4B3E04BE253E0FA0199
:103660003E2F341B321718F43D913193F9CF10924D
:103670002A0320912A03990F922B90932A03909169
:103680006F03913061F410926F0390912A0390932D
:10369000BB009091BC0093FDF8CF95EC01C095EE76
:1036A0009093BC00909171039230E1F390914D039F
:1036B0009F3F79F080914D03803241F080914D031E
:1036C000803331F084E005C081E003C082E001C0B6
:1036D00083E0109273031092720310924E030895C8
:1036E00091E090934E038093DD0310927303109248
:1036F000720308950F931F93CF9388E60E94701B67
:1037000060E081ED93E00E94091003E213E0F8010C
:103710008081CAE06C2F0E947232692FF0E18F9F86
:10372000600D112481ED93E00E940910F801818160
:103730006C2F0E947232692FF0E18F9F600D11246F
:1037400081ED93E00E940910F80182816C2F0E94A4
:103750007232692FF0E18F9F600D112481ED93E0AB
:103760000E940910F80183816C2F0E947232692F28
:10377000F0E18F9F600D112481ED93E00E9409100C
:10378000F80184816C2F0E947232692FF0E18F9FC3
:10379000600D112481ED93E00E940910F8018581EC
:1037A0006C2F0E947232692FF0E18F9F600D1124FF
:1037B00081ED93E00E940910F80186818E516C2FF3
:1037C0000E947232692FF0E18F9F600D112481ED0C
:1037D00093E00E940910CF911F910F910C94131B3D
:1037E000909171039111FCCF613208F060E291E099
:1037F00090937103909370032FEF20934D031092D9
:103800004C03260F20934B0390932A0390912A0395
:10381000880F892B80932A0380916F03813061F494
:1038200010926F0380912A038093BB008091BC00AB
:1038300083FDF8CF85EC01C085EE8093BC008091BC
:1038400071038130E1F380914C03861710F460918D
:103850004C03ABE2B3E023E033E0F9018E2F821B8F
:10386000861718F48D918193F9CF109275036093A8
:103870007403862F0895CF92DF92EF92FF920F93F9
:103880001F93CF93DF93E82EC62ED42EE901EDEFE0
:10389000E80FE03128F4F0E0EE54FE4FF08001C074
:1038A000F12C6AE070E080E090E00E94BD1A892B64
:1038B00029F086E793E00E94C609F3CF6EE786E71A
:1038C00093E00E945A0962E06F0D86E793E00E9440
:1038D0005A096E2D86E793E00E945A09FF2069F08D
:1038E0006C2D86E793E00E945A0982E0F81205C029
:1038F0006D2D86E793E00E945A096FEE86E793E00C
:103900000E945A09209749F00115110531F0A801CC
:1039100060E070E0CE010E94C93368EE73E080E0A1
:1039200090E00E94BD1AE12CF12C0150110962E3D4
:1039300070E080E090E00E94BD1A892B89F086E754
:1039400093E00E94C609209791F3E016F10678F7FC
:10395000FE01EE0DFF1D8083C70101967C01E7CFBC
:10396000DF91CF911F910F91FF90EF90DF90CF905B
:1039700008950F931F93CF93DF9300D000D01F9231
:10398000CDB7DEB705E010E09E012F5F3F4F40E06E
:1039900060E00E943B1C40E150E060E070E0CE013E
:1039A00001960E94D033CB010F900F900F900F9093
:1039B0000F90DF91CF911F910F9108950F931F9357
:1039C00000E010E020E030E040E060E00E943B1CBE
:1039D0001F910F9108950F931F9300E010E020E0D6
:1039E00030E040E0682F81E10E943B1C1F910F9165
:1039F0000895E0919503F09196030084F185E02D00
:103A000060E085E993E00994CF93DF93CDB7DEB70B
:103A100028970FB6F894DEBF0FBECDBF1D8290E48D
:103A20009E8324E12F8324E5288719829A8390E1DD
:103A30009B8390E59C8390919C03691710F06FEF36
:103A4000690F40919D03262F30E0FE01E20FF31F26
:103A5000403121F4943011F4918101C09581682F97
:103A6000690F606885E993E028960FB6F894DEBF89
:103A70000FBECDBFDF91CF910C947F220E94F91C25
:103A8000E5E9F3E065816B7F65836860CF010C94A5
:103A90007F22E5E9F3E06581862F846085836C6091
:103AA000CF010E947F2285E993E00C948722E5E90B
:103AB000F3E065816E7F65836860CF010C947F229F
:103AC000E5E9F3E06581862F816085836960CF0138
:103AD0000C947F22CF92DF92EF92FF920F931F936D
:103AE000CF93DF931F92CDB7DEB7162F877028E0F4
:103AF000829FC0011124682F606485E993E0798377
:103B00000E947F2283E790E00197F1F7C12E79812F
:103B1000D72E8601085F1F4F8BE9E82EF12CF601A6
:103B200061916F0185E993E00E94AD21C701019782
:103B3000F1F7C016D10699F70F90DF91CF911F9141
:103B40000F91FF90EF90DF90CF9008950F931F9308
:103B5000CF93DF938C01C0E0D0E0F801EC0FFD1FA4
:103B60006491662371F0E0919503F09196030190C2
:103B7000F081E02D85E993E00995892B11F02196DC
:103B8000ECCFCE01DF91CF911F910F9108958F92CD
:103B90009F92AF92BF92CF92DF92EF92FF926C0111
:103BA0000E94420E4B015C01E12CF12C0E94420E5E
:103BB000DC01CB0188199909AA09BB098C159D055F
:103BC000AE05BF0598F3FF90EF90DF90CF90BF90C8
:103BD000AF909F908F900895E0919503F091960398
:103BE0000190F081E02D682F85E993E009948F9290
:103BF0009F92AF92BF920F931F93CF93DF93CDB756
:103C0000DEB7A1970FB6F894DEBF0FBECDBF19A2E5
:103C1000423008F44AE08E010F5D1F4F842E912C34
:103C2000A12CB12CA50194010E943836E62FB901D0
:103C3000CA0101501109EA3014F4E05D01C0E95CE9
:103C4000D801EC93232B242B252B61F7B80185E9B0
:103C500093E00E946A22A1960FB6F894DEBF0FBED1
:103C6000CDBFDF91CF911F910F91BF90AF909F90EB
:103C70008F900895CF92DF92EF92FF920F931F9350
:103C8000CF93DF93C62F2FB7F89440917B025091CA
:103C90007C0260917D0270917E0296B5A89B06C061
:103CA0009F3F21F04F5F5F4F6F4F7F4F2FBF762FAA
:103CB000652F542F4427490F511D611D711D32E09E
:103CC000440F551F661F771F3A95D1F79A01220FAF
:103CD000331F220F331F42275327BA01660F672F66
:103CE000661F770B719546275727BA017695762F71
:103CF000662777956795082F10E06427752780E081
:103D000090E00E94F33420E03FEF4FE757E40E9439
:103D100019336B017C01D0E0C01BD10BBE01DD0F5C
:103D2000880B990B0E94F5349B01AC01C701B601C9
:103D30000E9454356B017C01B801110F880B990B5F
:103D40000E94F5349B01AC01C701B6010E94AD325F
:103D50000E948B33862FDF91CF911F910F91FF909F
:103D6000EF90DF90CF90089580E090E00E948B0D5F
:103D70000E943E1D81E08093230210922802089544
:103D80000F931F93CF9302E011E0C0E0B8018C2F96
:103D90000E946A1DCF5F085F1F4FC830B9F7CF91EF
:103DA0001F910F91089561E081E00E94041D83E856
:103DB00094E00E94A61D82E30C94C8048FEE0E943A
:103DC000EC1D8FE794E00C94A61D8AE794E00C9418
:103DD000A61D80E30C94EC1D8F929F92AF92BF9230
:103DE000CF92DF92EF92FF920F931F93CF93DF93C7
:103DF000142FE9014B01A12CB12C9C0140E050E0B3
:103E000060E079E08DE390E00E94383669017A0144
:103E100081E0C81AD108E108F108C114D104E1E039
:103E2000EE06F10458F0CD2CDE2CEF2CFF24F1E04F
:103E3000CF1AD108E108F10804E001C001E08114C3
:103E40009104A104B10479F00E94420E860E971EDF
:103E5000A81EB91E8092910290929202A0929302A3
:103E6000B09294020BC08FEF9FEFDC018093910220
:103E700090939202A0939302B093940280918E0249
:103E8000811122C0ECE5F4E0849180938E0268E415
:103E900074E0FB019491E92FF0E0EE0FFF1FE75D66
:103EA000FB4F259134913093900220938F02FB01B8
:103EB0006491E62FF0E0EE0FFF1FEC56FC4FA5914A
:103EC000B491EC918E2B8C93D0928700C092860097
:103ED0008091840090918500A0E0B0E0C816D906DA
:103EE000EA06FB0620F4D0928500C09284000061AF
:103EF0000093810080E18093800080916F00826058
:103F000080936F0011110FC0CE01DF91CF911F91EF
:103F10000F91FF90EF90DF90CF90BF90AF909F9068
:103F20008F900C94140980918602843079F0CE0130
:103F3000DF91CF911F910F91FF90EF90DF90CF9085
:103F4000BF90AF909F908F900C94E308DF91CF913A
:103F50001F910F91FF90EF90DF90CF90BF90AF90A7
:103F60009F908F900895BC0180E00E946A1D85E9B2
:103F700093E00E948F2280E00E94EC1D80E20C946E
:103F8000EC1DCF93C42F0E94041DCC2329F080E2A6
:103F90000E94EC1DC150F9CFCF910895CF93DF93CC
:103FA0001F92CDB7DEB749830E94041D4981842F3B
:103FB0000F90DF91CF910C94EC1DCF93C82F80917F
:103FC000F902811106C04C9904C080918B028111C5
:103FD0005DC180912C0290912D0205970CF4C1E0F7
:103FE0004C990DC080918902811109C080918A028B
:103FF000811105C08091FA02882309F44AC1809199
:104000002602882309F411C18091FA0281110DC1A1
:104010000E9433039091E103809126029111FCC02C
:10402000882309F402C12091E0039091240329130D
:10403000F3C02091DF03909125032913EDC08091F7
:10404000230281110E94491D80912802882321F0BA
:1040500085E993E00E9487225E986AE871E080E03B
:104060000E946A1D85E993E00E948F220E94571DDD
:1040700060E087E00E94041D809125038A3010F4DF
:104080000E94E91E6AE070E0809125030E941D0BEA
:104090008AE30E94EC1D809124038A3010F40E9470
:1040A000E91E6AE070E0809124030E941D0B63E02A
:1040B00084E00E94041D8DE694E00E94A61D45EF59
:1040C00063E08BE00E94CE1F81E08093FA02809132
:1040D0008A0281115F98C091DE03C13061F4809142
:1040E0008902811108C080918B02811104C00E9455
:1040F0002515C09389021092860280918602843031
:1041000009F44CC09091E00380912403981346C0B9
:1041100040E062E085E00E94CE1F85E694E00E94C8
:10412000A61D80E00E94EC1D81E00E94DD1F8093AF
:1041300086028FEF90E00E948B0D8091DE03882332
:1041400041F080918B02811104C08091F902882393
:1041500021F08091FC020E946B158091DE03823079
:1041600039F44C9905C080918B02882309F495C0DD
:1041700084EF91E00E94E30849E062E085E00E945C
:10418000C11F80E090E00E948B0D84EF91E00E94BF
:10419000E3080E94761480932403AFCF80918B02B2
:1041A000811104C08EE00E94DE1C06C08091DE03F7
:1041B000813011F40E948F0B80918A0281115F9AE5
:1041C0001092FA029091E00380912403981309C0A1
:1041D0009091DF0380912503981303C081E08093C1
:1041E000E10385E993E00E948F22809123028823D6
:1041F00031F080918902811102C04C9B54C08091A2
:10420000230281110E943E1D8091280281110E948B
:10421000F91C0E942D061FC0882339F09091E003FD
:104220008091240398131092E1038EE00E942B0EDC
:10423000893C910508F079C087399105B0F182E396
:104240000E94C8048EE00E942B0E873991050CF461
:1042500067C04C9B02C0C4E017C080912502811149
:10426000FACFC111F8CF8091F9028111F4CF65E046
:1042700081E00E943A1EC82F843069F76DE38FE118
:104280000E943A1E0E94DC148C2F51C010928B02A7
:10429000A0CE5E9A0E943504B2CE8091FB028F5F61
:1042A0000E94DC1465CF5E9AAACF8536910550F046
:1042B00082E30E94C8048EE00E942B0E8536910591
:1042C00084F52EC0C39748F082E30E94C8048EE0B4
:1042D0000E942B0EC3973CF523C082E30E94C804C2
:1042E0008EE00E942B0E18161906D4F44C9916C0B5
:1042F00080912502811112C0C11110C08091F90274
:1043000081110CC068E081E00E943A1E843031F4D3
:104310006FE18BE00E943A1E0E94DC14C1E0B4CF32
:1043200006C0C3E0B1CFC2E0AFCFC0E0ADCFCF9108
:10433000089521E001C0220F6A95EAF7DC011C967E
:104340002C931C971A965C934E931997ED91FC91C0
:104350000084F185E02D60E00994DC01ED91FC9191
:104360000284F385E02D41E0099581E090E0089515
:1043700008950895CF93DF93FC012381222391F0C8
:10438000EC01818180956823608382810E94701B8B
:10439000688181ED93E00E9409100E94131B282F71
:1043A00030E002C020E030E081E090E0232B11F00B
:1043B00080E090E0DF91CF910895EF92FF920F930C
:1043C0001F93CF938C01FC01759684E0C0E060FFE1
:1043D00002C09081C92B6695815031968111F7CF2B
:1043E000413011F4F8014489F8018585C82BC42BAC
:1043F0007801FEE0EF0EF11CF80162896C2BC70119
:104400000E94BA21F801628960956C23C701CF919F
:104410001F910F91FF90EF900C94BA210F931F936F
:10442000CF93DF93062F0F70423019F440E0602FD6
:1044300010C0142F262FEC0130E0B90184E07595EF
:1044400067958A95E1F7CE010E94DD21412F602F0B
:10445000CE01DF91CF911F910F910C94DD21FC01D2
:1044600084858823A9F0218532852115310519F429
:10447000611106C007C02130310521F4611102C06D
:10448000858701C015866585CF010E960C94BA21EB
:1044900008951F920F920FB60F9211248F93EF93EE
:1044A000FF930FB6F894A89580916000886180937F
:1044B0006000109260000FBEA895E0E6F0E08081F9
:1044C0008F7B8083FF91EF918F910F900FBE0F90A4
:1044D0001F9018956115710579F0FB01019000207E
:1044E000E9F73197AF01461B570BDC01ED91FC91C9
:1044F0000280F381E02D099480E090E00895DC01D2
:10450000ED91FC910284F385E02D40E00994DC01FB
:10451000ED91FC910084F185E02D6FEF099461E04D
:104520000E947F228BE39FE10197F1F70895CF92DC
:10453000DF92EF92FF920F931F93CF93DF93EC01E3
:10454000423018F08C8188608C834F8368872223E7
:1045500029F0413019F48C8184608C830E94420ED2
:104560006B017C010E94420EDC01CB018C199D097C
:10457000AE09BF0984369105A105B10598F36C8198
:1045800064FD31C0E881F9810284F385E02D42E0C9
:1045900063E0CE0109958BE496E40197F1F7E88199
:1045A000F9810284F385E02D42E063E0CE010995B4
:1045B00003E512E0C8010197F1F7E881F98102846F
:1045C000F385E02D42E063E0CE010995C801019733
:1045D000F1F7E881F9810284F385E02D42E062E0A1
:1045E000CE01099517C06062CE010E947F228BE444
:1045F00096E40197F1F76C816062CE010E947F2200
:1046000003E512E0C8010197F1F76C816062CE0109
:104610000E947F22C8010197F1F76C816062CE0190
:104620000E947F228BEE90E00197F1F784E08D836A
:104630006CE0CE010E947F22CE010E948F2282E098
:104640008E8366E0CE010E947F22CE01DF91CF9162
:104650001F910F91FF90EF90DF90CF900C948722E5
:10466000FF920F931F93CF93DF93EC01162F042F2C
:10467000F22E8B85888B0E94ED1A88890E94701B10
:104680000E94131B91E0811190E0998B992329F0EE
:1046900081ED93E00E94BD0F8E878989882339F0D0
:1046A0001F861C8260E0CE010E960E94BA212F2D3B
:1046B000402F612FCE01DF91CF911F910F91FF907D
:1046C0000C949722CF92DF92EF92FF920F931F9359
:1046D000E82FF92F05C0015011092109310961F1B5
:1046E000908196239417B9F305C00150110921094F
:1046F000310911F1908196239413F7CFC12CD12C5D
:10470000E12CF12C0AC08FEFC81AD80AE80AF80A7F
:104710000C151D052E053F0579F080818623841731
:1047200091F36C2D7D2D8E2D9F2D1F910F91FF905C
:10473000EF90DF90CF90089560E070E080E090E02F
:104740001F910F91FF90EF90DF90CF900895CF933E
:10475000DF93CDB7DEB72A970FB6F894DEBF0FBE52
:10476000CDBF789484B5826084BD84B5816084BDFA
:1047700085B5826085BD85B5816085BD80916E00FF
:10478000816080936E001092810080918100826030
:10479000809381008091810081608093810080916D
:1047A00080008160809380008091B100846080935C
:1047B000B1008091B00081608093B00080917A0058
:1047C000846080937A0080917A00826080937A007E
:1047D00080917A00816080937A0080917A0080686D
:1047E00080937A001092C1001CBC80E880BF8FE3E8
:1047F00080937E0080916400846080936400809147
:10480000640082608093640080916400806480937F
:10481000640088EC8AB98CE284B98EE387B980E4BD
:104820008BB981E088B91092910310929003109295
:104830008F0310928E0310928D0310928C038DE9DA
:1048400091E0909393038093920390918203963129
:1048500008F057C02DEB30E030938D0320938C038C
:104860002BE931E030938F0320938E032CE231E06B
:10487000309391032093900320916800983050F07A
:1048800031E09E3008F430E081E001C0880F3A95B5
:10489000EAF701C084E0822B80936800983038F0FA
:1048A0009E3040F0963148F020E030E008C02DE620
:1048B00030E005C02BE630E002C02CE630E030935B
:1048C0008A0320938903983030F481E001C0880F77
:1048D0009A95EAF70EC0292F30E09E3018F4285040
:1048E000310902C02E50310981E001C0880F2A959C
:1048F000EAF780938B038091920390919303019741
:10490000F1F78091900390919103892B21F180918F
:10491000790290917A0223E086379207E1F00097BE
:1049200011F00E94D910809194038E7F809394039C
:10493000109277021092780286E793E090937A02C1
:1049400080937902E0918903F0918A0390818091AC
:104950008B03892B80838EE00E94DE1C8CE00E94FA
:10496000DE1C84EF91E00E94140900E010E020E0DA
:1049700030E040E06EE186E00E943B1C84E00E9453
:10498000EB1C0E94E50D0E94530B8091BB0390919C
:10499000BC03807F8A609093BC038093BB030E941A
:1049A000310B0E948F0B81E090E00E94D51491E0C2
:1049B000811101C090E09093250282E090E00E9476
:1049C000D5148093220283E090E00E94D51491E0F8
:1049D000811101C090E09093260284E090E00E9453
:1049E000D5148093E00385E090E00E94D514809375
:1049F000DF0386E090E00E94D5148093DE0387E019
:104A000090E00E94D5148093FC0288E090E00E9420
:104A1000D5148093290289E090E00E94D5148093F8
:104A200021028AE090E00E94D51491E0811101C03A
:104A300090E0909320028BE090E00E94D51491E0EA
:104A4000811101C090E0909302038CE090E00E94FD
:104A5000D514809300038DE090E00E94D5148093DC
:104A6000FF028EE090E00E94D5148093FE028FE05A
:104A700090E00E94D5148093FD0280E190E00E94B6
:104A8000D51491E0811101C090E090931F0281E163
:104A900090E00E94D514182F82E190E00E94D51476
:104AA000282F30E0C9014AE0149F800D911D112488
:104AB000909388028093870283E190E00E94D5144E
:104AC0008093FB0211E3E12E12E0F12E05E110E0EC
:104AD000C8010E94D514D82EC80101960E94D51491
:104AE000282F30E0C9016AE0D69E800D911D112467
:104AF000D7018D939D937D010E5F1F4F0B311105E3
:104B000039F78BE190E00E94D51491E0811101C04A
:104B100090E090931E028CE190E00E94D51491E009
:104B2000811101C090E09093010380E090E00E9429
:104B3000D40C80931D0281E090E00E94D40C8093FD
:104B40001C0282E090E00E94D40C8093F80288E678
:104B50000E94701B62E072E081ED93E00E946A2285
:104B60000E94131B84E10E94C80488E60E94701B07
:104B700065E072E081ED93E00E946A220E94131BBF
:104B80000E94350420E044E064E185E993E00E945E
:104B900030230E94C01E84E190E00E94D514182F9B
:104BA0008A3008F045C085E993E00E948F228AEEA2
:104BB00092E00E94A61D46E561E083E00E94CE1FC0
:104BC00080E090E00E94E9098EE20E94EC1D812FB6
:104BD0006AE00E947232892F90E00E94E90983EE18
:104BE00092E00E94A61D81E090E00E94E9098EE219
:104BF0000E94EC1D80E090E00E94E90964E084E0FE
:104C00000E94041D86ED92E00E94A61D45EF64E01F
:104C10008BE00E94CE1F6AE084E190E00E94D314F2
:104C200060E081E00E94370685E993E00E948F22D0
:104C30000E94D71420E530E040E060E570E088E5B0
:104C400092E00E94EC1E26E930E040E066E970E068
:104C500080E793E00E94EC1E5E9A0E9433030E945C
:104C6000E0028093300287E40E94B91C9091F80220
:104C7000891B8F568093F702B3E6B987E3E6E8878E
:104C8000BAE32B2E312C412C512C9E012F5F3F4F2C
:104C900039010E94330387E00E942B0E813293403A
:104CA00024F080912402882351F087E00E942B0E8B
:104CB0008032934004F5809124028823E1F09091A2
:104CC000240281E089278093240287E00E942B0E32
:104CD0008032934014F00C9487308091280288230E
:104CE00011F40C94873080912002882311F40C94E5
:104CF00087300E94B41E809124036885681709F4E8
:104D000068C180912B028823E1F080910103882300
:104D1000C1F080912302811114C080912002882368
:104D200039F080912402811103C00E94B41E09C091
:104D300080912802811105C00E94F91C81E08093B6
:104D4000280210921B02809125039985981709F477
:104D5000B9C08091230281117EC00E9444039091CA
:104D60001C0280912803981372C090911D028091BB
:104D7000270398136CC081E08093270280911A0268
:104D8000811169C080912B02811165C062E771E0D9
:104D90000E946A1D8091890281110E948F0B80916F
:104DA0008A0281115F9880912502811107C080914C
:104DB0008B02811103C08FE60E94DC1480ED97E026
:104DC0000E9414090E9476147C01FF240E9476142C
:104DD000E816F90621F04C9902C00C949F3080919E
:104DE0008602843011F40C949F3085E993E00E9490
:104DF0008F2261E087E00E94041D83E091E00E9421
:104E0000A61D62E086E00E94041D8AEF90E00E94E9
:104E1000A61D65E081E00E943A1E182F112391F033
:104E200064E180E00E943A1E40E060E00E94CE1FF4
:104E300064E180E00E943A1E40E063E00E94CE1FE1
:104E40001150ECCF84EF91E00E94E308BFCF1092A5
:104E50001A021092270210911F020E94BF03181716
:104E600089F180912503843068F1112311F40C94A9
:104E7000B63081508093250381E0D12ED826D09280
:104E80001F02E0902E02F0902F020091280310E004
:104E90002091270330E04091230350E060912403E8
:104EA00070E08091250390E00E941D1280912E02F7
:104EB000825B809329030E947A1B6D2D80E190E034
:104EC0000E94D31480912302811102C00E94F40435
:104ED00080912B0281117DC080912502811179C0C2
:104EE00080912C0290912D020A977CF480912402EB
:104EF00081110BC00E94D71420E530E040E060E54E
:104F000070E088E993E00E94EC1E4C9962C08091A9
:104F1000F90281115EC08091890281115AC080918D
:104F20002C0290912D0202970CF453C0E0912102C3
:104F3000F0E0E456FE4F108161E0610F81E00E94D5
:104F40003A1E811346C00C94B930163010F00C9400
:104F50004C31143011F00C94443161E083E00E9434
:104F6000041D89E091E00E94A61D80912202ACE11F
:104F70008A9FC00111240E948B0D0E94D7142EE03D
:104F800031E040E06AEF70E080E293E00E94EC1EC6
:104F900024EB30E040E066E970E080E293E00E94BC
:104FA000EC1E2AEF30E040E06AEF70E084E992E026
:104FB0000E94EC1E80ED97E00E94E30880E090E004
:104FC0000E948B0D0E942D068091280281110C9465
:104FD00037318091230281117AC080912A02811198
:104FE00076C080912902882309F471C02D988FE042
:104FF00090E00197F1F72D9A83E290E00197F1F7A5
:105000002D98EDE5F4E06491E9E4F4E0E491F0E05A
:10501000EE0FFF1FED5CFB4F8591949100E412E4CD
:105020002FE030E0462F0E94622361157105810553
:10503000910549F0DC01CB010196A11DB11DBC0118
:10504000CD019F7003C060E070E0CB011091290298
:10505000A20191010E943836B9E11B9FC0011124C1
:10506000092E000CAA0BBB0B281739074A075B0750
:1050700070F580912802882391F080911E02882388
:1050800071F085E993E00E9487220E94420E6093AE
:105090001602709317028093180290931902809160
:1050A0002B02811114C080911B02811110C08091CC
:1050B000890281110CC08091F902811108C0809190
:1050C0002502811104C04C9902C00C94DE308091FD
:1050D00028028823C9F080911E028823A9F00E942B
:1050E000420E009116021091170220911802309181
:1050F00019020A561F4F2F4F3F4F06171707280751
:10510000390710F40C94E930E0912403E887F0911A
:105110002503F98780E00E94DD1F8093860290912D
:105120002302823009F49CC7833009F4ADC7813073
:1051300009F0E2C79111E0C780E50E94C8040E940F
:10514000571D85E993E00E948F22809125028823D4
:1051500031F088E70E94EC1D21E02B8301C01B8207
:1051600060E082E00E94041D88EC92E00E94A61D8F
:1051700061E082E00E94041D8AEB92E00E94A61D7D
:1051800062E081E00E94041D0E94E51E8DEA92E02B
:105190000E94A61D63E082E00E94041D80EA92E066
:1051A0000E94A61DAB8080918602843009F474C7EA
:1051B0004EE76A2D80E00E94CE1F61E080E00E94F1
:1051C000370680918602823009F434C7833009F4AF
:1051D0003CC7813041F731E0A31609F4F0C0A316B3
:1051E00068F142E0A41609F49BC263E0A612DBCF8B
:1051F00085E993E00E948F2260E082E00E94041D16
:1052000080E992E00E94A61D61E082E00E94041DF8
:1052100080E892E00E94A61D62E082E00E94041DE8
:1052200080E792E00E94A61D63E082E00E94041DD8
:1052300086E692E00E94A61D10E04AC46AE771E08B
:1052400080E00E946A1D85E993E00E948F2260E061
:1052500082E00E94041D8BE391E00E94A61D0E9443
:10526000DE1E61E082E00E94041D81E391E00E9465
:10527000A61D0E94DE1E62E082E00E94041D85E2FF
:1052800091E00E94A61D63E082E00E94041D87E178
:1052900091E00E94A61D0E94DE1E10E08091860211
:1052A000843009F489C080918902811102C040E2F2
:1052B00001C040E060E081E00E94CE1F80918D023D
:1052C000811102C040E201C040E061E081E00E9443
:1052D000CE1F80918A02811102C040E201C040E0ED
:1052E00062E081E00E94CE1F80918C02811102C099
:1052F00040E201C040E063E081E00E94CE1F4EE743
:10530000612F80E00E94CE1F61E081E00E9437069D
:10531000809186028230E1F1833009F443C081300C
:1053200009F0BCCF113059F038F0123091F0133041
:1053300009F0B4CF81E00AC00E947006AFCF80911F
:10534000F702882311F082E001C083E00E94671811
:10535000A5CF80918A0281110EC0809189028111AE
:105360000E9420158091F902811102C04C9935C725
:105370005E985F9A02C05E9A5F9890918A0281E07F
:10538000892780938A0284EF91E00E94140986CFD6
:1053900040E2612F80E00E94CE1F133008F07ECFE4
:1053A0001F5F7CCF40E2612F80E00E94CE1F11235F
:1053B00009F474CF115072CF0E94C01EF4CEA09297
:1053C000FA028AE891E00E94B31F8091DF038A30DD
:1053D00010F40E94E91E6AE070E08091DF030E94F1
:1053E0001D0B8AE30E94EC1D8091E0038A3010F4CB
:1053F0000E94E91E6AE070E08091E0030E941D0BAC
:105400000E94E51E61E080E00E94041D82E991E0B7
:105410000E94A61D63E082E00E94041D8FE791E0D8
:105420000E94A61D63E08EE00E94041D8091DE03B1
:10543000813049F028F0823051F481E791E005C0D5
:105440008BE791E002C085E791E00E94A61D0E94D3
:10545000601D00E010E06AE0F62E74E1E72E809116
:105460008602843009F440C1153010F062E001C0BA
:1054700063E040E280E00E94CE1F153010F063E050
:1054800001C062E04EE780E00E94CE1F62E082E051
:105490000E94041D8091DF038A3010F40E94E91EEF
:1054A0006AE070E08091DF030E941D0B8AE30E9496
:1054B000EC1D8091E0038A3010F40E94E91E6AE03E
:1054C00070E08091E0030E941D0B0E94E51E809118
:1054D0002602882319F089E691E002C081E691E076
:1054E0000E94A61D123091F038F4112361F01130A2
:1054F000B9F462E083E012C0143071F050F015305E
:1055000079F463E00AC062E082E008C062E085E00E
:1055100005C062E086E002C062E08EE00E94041DE9
:1055200061E080E00E94370680918602823009F4B3
:10553000CFC0833009F4D1C0813009F090CF123050
:1055400009F455C028F4112379F11130D9F1CAC0FA
:10555000143009F468C008F458C0153009F0C2C00E
:105560000E94571DD09026021092260285E993E0F2
:105570000E948F2260E082E00E94041D85E591E098
:105580000E94A61D61E082E00E94041D8BE491E070
:105590000E94A61D62E082E00E94041D83E491E067
:1055A0000E94A61D00E060C08091DF038E3020F4D1
:1055B000865F8093DF0396C06F2D0E9472329093B6
:1055C000DF0390C02091DF03822F6F2D0E94723283
:1055D000993011F4295001C02F5F2093DF0380918F
:1055E000DF03883109F07EC0E092DF037BC0809149
:1055F000E003813320F4865F8093E00373C06F2D56
:105600000E9472329093E0036DC02091E003822FDC
:105610006F2D0E947232993011F4295001C02F5F12
:105620002093E0035FC09091260289278093260291
:1056300059C048E56091DE0383E00E94CE1F4EE72B
:10564000602F80E00E94CE1F602F83E00E94041D27
:1056500061E080E00E943706809186028230F1F09E
:10566000833029F1813029F080918602843009F756
:1056700027C00093DE03602F86E090E00E94D314E1
:105680008091DE03811103C081E00E94E5178091C3
:10569000DE03823049F70E94E517E6CF40E2602F33
:1056A00080E00E94CE1F0230F8F60F5FDDCF40E2AF
:1056B000602F80E00E94CE1F0023B1F20150D4CFB2
:1056C000D092260262E071E080E00E946A1D0AC06A
:1056D000153008F0C4CE1F5FC2CE112309F4BFCE2F
:1056E0001150BDCE01E0BBCE002391F060912602A7
:1056F00083E090E00E94D3146091E00384E090E0A6
:105700000E94D3146091DF0385E090E00E94D314DF
:1057100062E071E080E00E946A1D1092FA0243CDBF
:10572000C090250390902403D0902703B0902803C5
:1057300082E891E00E94B31F8DEB91E00E94A61DCC
:1057400061E082E00E94041D8CEA91E00E94A61DA7
:105750000E94601D80912E0290912F02805D9740E3
:1057600090932F0280932E0210E000E08091860239
:10577000843009F462C162E082E00E94041D89E085
:105780008C1510F00E94E91E6AE070E08C2D0E94DA
:105790001D0B8AE30E94EC1D99E0991510F00E9400
:1057A000E91E6AE070E0892D0E941D0B0E94E51E33
:1057B00063E082E00E94041DA9E0AD1510F00E9494
:1057C000E91E6AE070E08D2D0E941D0B8EE20E94A2
:1057D000EC1DB9E0BB1510F00E94E91E6AE070E014
:1057E0008B2D0E941D0B88EA91E00E94A61D8091DE
:1057F0002E0290912F020A9714F40E94E91E8091C4
:105800002E0290912F020E94E90961E08EE00E9431
:10581000041D80910203882319F084EA91E002C0FC
:1058200080EA91E00E94A61D40E20111D9C462E025
:1058300080E00E94CE1F61E080E00E94041D8BEF9B
:10584000800F863048F440E262E080E00E94CE1F84
:1058500063E080E00E94041D8EE70E94EC1D802F13
:1058600090E0A0E0B0E08C839D83AE83BF830B9774
:1058700020F5EC81FD81EC5CFF4F0C94A63261E0D9
:105880008EE019C062E007C062E008C062E009C0B3
:1058900062E00AC063E082E00EC063E083E00BC018
:1058A00063E085E008C063E086E005C063E08AE06D
:1058B00002C063E08BE00E94041D61E080E00E9472
:1058C000370680918602823009F4A9C0833009F43A
:1058D000ABC0813009F04ACF002351F0EC81FD814B
:1058E0003197EA30F10590F4E15CFF4F0C94A63259
:1058F0000E9430163BCF9DE09C1518F0AAE0CA0E1E
:1059000005C08C2D6AE00E947232C92E11E02ECFA4
:105910008C2D6AE00E947232993019F4B7EFCB0EE9
:1059200001C0C394E8E111E0CE1220CF54E1C52EAE
:105930001DCFF0E3F91518F02AE0920EE7CF892D7C
:105940006AE00E947232992EE1CF892D6AE00E94AE
:105950007232993019F437EF930ED8CF9394D6CF93
:1059600045E14D1518F06AE0D60ED0CF8D2D6AE0D6
:105970000E947232D92E0DC08D2D6AE00E947232C3
:10598000993019F487EFD80E01C0D3949FE19D158B
:1059900030F0D110BBCF11E0DD24D394E7CE4EE13F
:1059A000D42EB4CFA2E0AB1518F0BAE0BB0EAECF48
:1059B0008B2D6AE00E947232B92E9111A7CF11E0AF
:1059C000BB24B394D3CEEBE0EB1598F1B3949ECF08
:1059D00080912E0290912F028935910514F40A9638
:1059E00004C06AE070E00E94923290932F0280938C
:1059F0002E028CCF20912E0230912F02C9016AE035
:105A000070E00E949232099719F42950310902C0BE
:105A10002F5F3F4F30932F0220932E0277CF0A3013
:105A200008F0A4CE0F5FA2CE002309F49FCE015050
:105A30009DCE11E03AE0B32E99CEE0902E02F09088
:105A40002F02F0E3EF1AF8EFFF0AF0922F02E09234
:105A50002E02112341F10B2D10E02D2D30E0692D88
:105A600070E040E050E08C2D90E00E941D12C0924A
:105A700025039092240310922303D0922703B0921F
:105A8000280380912E02825B809329030E947A1B57
:105A90000E942D060E94BF0380931F02682F80E1A1
:105AA00090E00E94D31462E071E080E00E946A1DE1
:105AB0007ACB82E390E00E941409809186028230C2
:105AC00009F49AC2833009F4A0C2813009F44BC0B2
:105AD00080918602843009F4A4C20E94601D1111D5
