:100000000C9410020C9438020C9438020C943909A8
:100010000C9439090C9439090C94291C0C9438025D
:100020000C9438020C9438020C9438020C94760D1F
:100030000C9438020C9438020C9438020C94380258
:100040000C9457140C9438020C9438020C94380217
:100050000C9438020C9438020C9438020C94380238
:100060000C94C9090C943802FE24012503250525AA
:10007000072509250C250F25122515251825E3260A
:10008000F02601270D27182724273A274B2750272A
:100090006227EF25F225F525F725F925FB25FD2516
:1000A00000260326062623262A2631263F26542606
:1000B000622670267E269226A026110314031703BB
:1000C0001A031D0320032303791082109610B01029
:1000D000BC10C810DA10E610EF1009111E11301113
:1000E0004A1142697274686461790048617070797C
:1000F000004963682062696E206869657221004763
:100100006573636869636874656E2068004155585B
:100110002D45696E67616E6700456967656E657339
:10012000206800526164696F2068005B205D204D8B
:100130005033005B205D20526164696F005B205D7D
:10014000205765636B746F6E0020205B6175735D73
:100150000020205B616E205D004D503300526164D1
:10016000696F00546F6E005765636B746F6E20206B
:1001700020205B20202020205D004E6575652057E3
:1001800065636B7A6569740061757300616E200048
:1001900062697300766F6E005B2020205D204469E9
:1001A0006D6D656E205B205D004E616368746D6FE0
:1001B000647573207374656C6C656E006175730093
:1001C000616E20002E3230004E616368746D6F6482
:1001D0007573205B2020205D004E65756520556895
:1001E000727A6569742F446174756D005A3A200003
:1001F000416B6B753A0020543A200052414D3A2031
:1002000020004932433A20002D313230353136005A
:100210004669726D776172653A20006279204E6995
:100220006B6F6C6169205261646B65004469657332
:100230006572204E4F4B4F20676568207274004DE9
:1002400065696E204E4F4B4F0044697374616E7A3E
:100250006C696368742020205B205D005374756DA9
:100260006D202020202020202020205B205D0041C8
:100270006B6B752073706172656E202020205B208F
:100280005D007765697465722E2E2E004469737463
:10029000616E7A202B2F2D205B205D004576656EE8
:1002A000747320202B2F2D205B205D004C454420B3
:1002B000202020202B2F2D205B205D004E4F4B4F08
:1002C000207374656C6C656E007A65697420737454
:1002D000656C6C656E00416C61726D207374656C49
:1002E0006C656E00537069656C2077617320766F62
:1002F00072004E61736520647220636B656E00202E
:1003000061756620560020557064617465206572C1
:10031000666F6C67726569636800476562757274C1
:1003200073746167210053616D7374616700467275
:10033000656974616700446F6E6E2E746167004D6D
:10034000697474776F6368004469656E737461677C
:10035000004D6F6E74616700536F6E6E746167005D
:100360005041555345004B65696E65204D503373C0
:1003700020676566756E64656E00476573636869BE
:1003800063687465005B3C5D5B205D5B205D5B3E8C
:100390005D00205765636B746F6E202B2F2D205BE3
:1003A000205D0000000000240027002A000000005B
:1003B0000800020100000304070000000000000024
:1003C0000000000000250028002B00000000002392
:1003D00000260029000404040404040404020202A8
:1003E0000202020303030303030102040810204076
:1003F0008001020408102001020408102020416C32
:1004000061726D20004E61736520647220636B65BC
:100410006E00205568720072656E00003A2C302C18
:1004200011241FBECFEFD8E0DEBFCDBF12E0A0E0A9
:10043000B1E0E6EFF2E602C005900D92A631B107F9
:10044000D9F723E0A6E1B2E001C01D92A53CB207B6
:10045000E1F712E0CFE0D2E004C02197FE010E9454
:100460002E2DCE30D107C9F70E948F1D0C946E310E
:100470000C94000083FD02C098E001C098E28770F0
:10048000892B98E10FB6F894A895909360000FBE61
:1004900080936000A89580916000806480936000E4
:1004A00080913202882319F083B7817F0BC080913D
:1004B0002C02882321F083B7817F846003C083B737
:1004C000817F8C6083BF83B7816083BF889583B74A
:1004D0008E7F83BF0FB6F894A895809160008861E5
:1004E00080936000109260000FBE809160008F7B4F
:1004F000809360000895CF9380913F028823E9F1B3
:1005000080913E0290913D0220912503981730F48E
:10051000C1E0821768F0291758F009C0891738F42C
:10052000C0E0821728F4291718F4C1E001C0C0E028
:10053000891310C050913C0230913B02351738F0BE
:1005400040912403451718F0341708F0C1E038171C
:1005500008F4C1E0281307C03091240380913C02C5
:10056000381708F0C1E0291309C090912403809145
:100570003B02981718F4C1E001C0C0E080913A0234
:10058000C81749F0CC2311F087E401C086E60E9429
:10059000D40DC0933A028C2FCF910895CF93DF935F
:1005A0000E946E0DC3E2D3E089830E94F10B0E948A
:1005B0007B0C809154028A83DF91CF9108950E9431
:1005C000F10B0E947B0C8091580290E08E54984F62
:1005D00090933902809338020E94F10B0E947B0CA9
:1005E00080915602809327030E94F10B0E947B0C9E
:1005F000809157028093280363E080E00E94C21636
:100600000E94F10B0E947B0CE09155028E2F90E02E
:10061000FC013197E730F105D0F4E35AFF4F0C9419
:100620002E2D88E593E011C081E593E00EC088E4AB
:1006300093E00BC08FE393E008C086E393E005C02E
:100640008EE293E002C086E293E00E94641763E0CA
:100650008AE00E94C216809127038A3010F40E941B
:100660009C186AE070E0809127030E9462118EE27C
:100670000E948517809128038A3010F40E949C18EC
:100680006AE070E0809128030E9462118EE20E946D
:10069000851780913802909139020E942E10809126
:1006A0003602909137020A9724F460E082E10C94BC
:1006B000C2160895809128039DEF980F983008F096
:1006C0006DC09CEF980F963008F466C0833089F5B2
:1006D00020912703409138025091390235E0349F30
:1006E000C001359F900D112497FD03969595879530
:1006F00095958795049667E070E00E941A2D4FE16A
:1007000050E0BA01681B790B38E1369FA001379F92
:10071000500D11244F5F5F4F8091250378E1279F93
:1007200090011124280F311D81E042175307BCF1BD
:1007300035C08A3099F520912703409138025091B5
:10074000390235E0349FC001359F900D112497FD8B
:1007500003969595879595958795019667E070E046
:100760000E941A2D4FE150E0BA01681B790B38E165
:10077000369FA001379F500D11244F5F5F4F80912E
:10078000250378E1279F90011124280F311D81E076
:100790004217530724F402C081E0089580E00895D1
:1007A000EF92FF920F931F93CF93DF9388E60E94FF
:1007B0002E1560E08EEA93E00E94E3080E94D114B7
:1007C00067E070E088E690E00E94AE158EEA93E064
:1007D0000E949708C3E2D3E0982F96959695969538
:1007E0009E70292F220F220F920F8F70890F8883FE
:1007F0008EEA93E00E949708982F92959F708F70D1
:100800002AE0929F800D112489838EEA93E00E9452
:100810009708982F9695969596959670292F220F62
:10082000220F920F8F70890F8A838EEA93E00E94C5
:100830009708982F92959F708F702AE0929F800D55
:1008400011248B838EEA93E00E949708982F92954B
:100850009F708F702AE0929F800D11248C838EEA06
:1008600093E00E949708982F92959F708F702AE0CE
:10087000929F800D11248D838EEA93E00E94970849
:10088000982F9F70925E82958F70E92E2AE0829F4A
:10089000E00C1124EE82F12C8EE4E81A88EFF80ABD
:1008A0000D8110E02C8130E0488150E0698170E0DA
:1008B0008A8190E00E94150BDF91CF911F910F91DB
:1008C000FF90EF900895CF93C82F80913202882334
:1008D00029F080916400806280936400C7FF04C0A7
:1008E00083E00E943A02C857C03420F082E00E94A0
:1008F0003A02CC53C03220F081E00E943A02CE513D
:10090000C03118F080E00E943A02809132028823C0
:1009100021F08091640010926400CF910895CF93EC
:100920000E94CE020E947B028093350280912503B3
:100930008A3010F460E004C06AE00E940E2D682F37
:1009400081E00E945C1080912503CAE06C2F0E9418
:100950000E2D692F84E00E945C106AE087E00E94FF
:100960005C10809124038A3010F460E004C06C2F86
:100970000E940E2D682F8AE00E945C108091240353
:100980006AE00E940E2D692F8DE00E945C1043E00A
:1009900061E081E10E94AD1861E081E10E94C21630
:1009A00080913402811104C080913302811103C00F
:1009B00088E70E94851780913202882319F084E429
:1009C0000E94851780913F02882349F0809135026B
:1009D000882311F08EE401C08EE60E948517809175
:1009E0003102882341F062E083E00E94C2168AE16E
:1009F00093E00E94641743E062E081E10E94AD1839
:100A000062E081E10E94C21680913002882319F0D1
:100A100084EF0E94851780914302882319F080E7B4
:100A20000E94851780912F02882319F083E50E9488
:100A3000851780914802811108C080914002811180
:100A400004C080912E02882319F080E50E9485174A
:100A500086E00E94F9139093370280933602C4E037
:100A60008AE00E94630486E00E94F9132091360216
:100A700030913702820F931F909337028093360292
:100A8000C15071F765E070E00E941A2D072E000C2E
:100A9000880B990B0E94912F20E030E040EA5BE345
:100AA0000E94F02F26E636E646E350E40E94482DE9
:100AB00026EF3DEF44E55CE30E94B52D0E94272E12
:100AC0001616170634F4643671052CF063E670E0F0
:100AD00002C061E070E0CB01072E000CAA0BBB0B3B
:100AE0009C01AD016A337105A4F029533109410914
:100AF0005109ABE5B0E00E9415312AE230E040E058
:100B000050E00E94F630DA01C9010896A11DB11D1E
:100B100013C02150310941095109A7E0B0E00E94FA
:100B2000153127E330E040E050E00E94F630DA0172
:100B3000C9010196A11DB11D909337028093360221
:100B400060E081E10E94C2168091360290913702E6
:100B50000A9744F440E260E081E10E94BA180E94E2
:100B60001E1702C00E94151780913602909137021D
:100B70000E942E1080912D02882311F08BE201C07B
:100B800085E20E94851760E082E1CF910C94C21645
:100B900081E993E00E946F1C0E947E180E94DF0290
:100BA0000C948F04CF92DF92EF92FF921F93CF931A
:100BB000DF93C82FD62F0E944B146B017C0120E6D7
:100BC000C20E2AEED21EE11CF11C1092470214E064
:100BD00090914702911115C08C2F0E94C9188093E3
:100BE0004702D11104C088E70E946304F1CF0E943C
:100BF0004B14C616D706E806F90650F710934702BD
:100C0000E7CF82E3DF91CF911F91FF90EF90DF90CC
:100C1000CF900C946304DF92EF92FF920F931F9397
:100C2000CF93DF93CDB7DEB72D970FB6F894DEBF25
:100C30000FBECDBFE82E80914802811102C04C99B1
:100C4000FECF6AE471E081E00E94281762E571E05E
:100C500082E00E94281762E471E083E00E94281776
:100C60008AE791E00E949F1863E084E00E94C21628
:100C700085E893E00E94641742E063E08BE00E9405
:100C8000BA1880914302882319F092E0F92E02C02D
:100C9000FF24F3940E941E1780E5D82E809147020E
:100CA000843009F4BFC181E0E81282C060E082E0D4
:100CB0000E94C216809101018A3010F40E949C1893
:100CC0006AE070E0809101010E94621180E20E945E
:100CD00085172091420230E021503109D29EC00197
:100CE000D39E900D112420910101820F911D820F3E
:100CF000911D8E599F4F0E9476116AE070E00E940C
:100D000062118AE30E9485172091420230E021504F
:100D10003109D29EC001D39E900D11242091010172
:100D2000820F911D820F911D8D599F4F0E94761148
:100D30008A3020F48D870E949C188D856AE070E0CF
:100D40000E94621100E010E02091010130E021508A
:100D5000310940914202429FC001439F900D1124EE
:100D60008C599F4F800F911F0E947611482F61E090
:100D7000802F0E94BA182091010130E021503109E2
:100D800040914202429FC001439F900D1124800F69
:100D9000911F88589F4F0E947611482F62E0802F44
:100DA0000E94BA180F5F1F4F0431110569F661C028
:100DB00082E0E81253C04C9909C08091430281112E
:100DC00005C080914902882309F43CC160E082E0BB
:100DD0000E94C21680914902882329F08AE793E095
:100DE0000E94641714C084E60E9463040CE010E0C3
:100DF0009E012F5F3F4F40E060E082E50E94F915C1
:100E0000BE016F5F7F4F81E993E00E944A1C62E060
:100E100087E00E94C2164C9B05C08091490288233E
:100E200009F42BC1809100018A3010F40E949C18B3
:100E30006AE070E0809100010E9462118FE20E94DE
:100E40008517809141028A3010F40E949C186AE054
:100E500070E0809141020E9462110BC083E0E812B1
:100E600008C061E080E00E94C21686E693E00E941E
:100E7000641760E08FE00E94C216809143028823CD
:100E800029F080E693E00E94641705C045E060E029
:100E90008FE00E94AD184C9906C0809143028111E9
:100EA00002C043E001C041E063E088E00E94BA185C
:100EB0008F2D880F8F0D63E08B5F0E94C21661E05B
:100EC00081E00E94D20580914702823009F497C0E8
:100ED000833009F49EC0813009F0E0CEF816A9F104
:100EE000F81648F082E0F81609F450C083E0F816CE
:100EF00009F453C0D3CE81E0E81207C0809101010C
:100F0000823008F456C0815052C082E0E81611F0D9
:100F1000F12CC4CE80910001823018F08150809372
:100F2000000180914902882329F01092490281E052
:100F300080934A024C9BECCF909100018091420239
:100F4000890F81590E94D40DA9CE4C9919C081E016
:100F5000E81205C0E0924902809101010AC082E0D6
:100F6000E8120AC0F0924A02909100018091420278
:100F7000890F81590E94D40D81E08093480202C0FC
:100F80000E94050E5F981092400288CE8091430225
:100F90004C997DC081117BC081CE81E0E81217C0E1
:100FA0008091010190914202891718F48F5F80931C
:100FB000010180914A02882329F010924A0281E0BF
:100FC000809349024C9B6ACE80910101BACF82E0A6
:100FD000E81264CE8091000190914102891718F4C3
:100FE0008F5F8093000180914902882329F010923D
:100FF000490281E080934A024C9B50CE9DCF809164
:10100000430281114BCE82E08F1508F447CEF39452
:1010100045CE80914302811141CEFF2009F478CF63
:10102000FA943CCE0E947E182D960FB6F894DEBF3F
:101030000FBECDBFDF91CF911F910F91FF90EF9029
:10104000DF9008958091420290E081599F4F209156
:101050000001820F911D00E010E020E030E0482FF9
:10106000692F83E00E94F91584E60E9463040E94C0
:10107000050E84E60E946304A9CE84E60E94630400
:101080008BE40E947716875980930001CBCE88238A
:1010900029F05E98109243028DE004C081E08093B5
:1010A00043028EE00E949C16F9CD85ED8093BC0032
:1010B0008091BC0084FDFCCF1092500308954091B4
:1010C0008F02262F30E0240F311D21323105DCF450
:1010D000209150032430C9F4FC0180E090E0861791
:1010E00058F430918F022191DC01A359BD4FA30F19
:1010F000B11D2C930196F3CF80918F02680F6093FE
:101100008F0280E0089581E0089582E008950895B7
:10111000E091AD038091AC03E81730F4F0E0ED5FAF
:10112000FC4F808190E008958FEF9FEF089590919C
:10113000AD038091AC03981750F4E92FF0E0ED5F18
:10114000FC4F208130E09F5F9093AD0302C02FEFF2
:101150003FEFC90108958091AC0390E02091AD0369
:10116000821B91090895CF92DF92EF92FF920F9325
:101170001F93CF93DF937C01262F972F8A018091B5
:101180005103882391F0C62FD72F6E01C40ED51EB0
:10119000CC15DD0571F06991D701ED91FC910190BD
:1011A000F081E02DC7010995F3CF642F822F0E94B3
:1011B0005F08C801DF91CF911F910F91FF90EF90D1
:1011C000DF90CF900895CF93DF931F92CDB7DEB716
:1011D0006983209151032223D1F02091AA03203268
:1011E00040F021E030E0FC013383228380E090E096
:1011F00015C08091AB03E82FF0E0EE5AFC4F9981C7
:1012000090838F5F8093AB038093AA0305C061E056
:10121000CE0101960E945F0881E090E00F90DF917F
:10122000CF9108956093690270936A0280936B0274
:1012300090936C02DC01CB01845D9E4FAF4FBF4F9A
:101240008093650290936602A0936702B093680250
:1012500082E090E090936402809363020E944B14BA
:1012600060935F02709360028093610290936202C8
:1012700008951F920F920FB60F9211242F933F9350
:101280004F935F936F937F938F939F93AF93BF938E
:10129000EF93FF93E091FA02F091FB02309709F48B
:1012A00051C0968DA685B785858591FF04C09C9118
:1012B000892329F447C09C91892309F043C0A3895D
:1012C000B4899C918589809589238C938689978997
:1012D0000197F1F7608D718DA685B785558538E04A
:1012E00020E0CB010197F1F7822F90E0959587954B
:1012F000282F4C91452309F02068315091F7868DB5
:1013000081FD20958091F90290E001968F739927D5
:101310003091F802381749F0A091F902B0E0AC54CE
:10132000BD4F2C938093F90203C0868D8160868F18
:10133000828D938D0197F1F7A389B4899C9185895A
:10134000892B8C93FF91EF91BF91AF919F918F91DA
:101350007F916F915F914F913F912F910F900FBEB1
:101360000F901F901895E091FA02F091FB02E81798
:10137000F90769F4A389B4899C91858980958923AB
:101380008C931092FB021092FA0281E0089580E0A3
:1013900008951F920F920FB60F9211242F933F932F
:1013A0004F935F936F937F938F939F93AF93BF936D
:1013B000EF93FF938091B900887F803609F49CC039
:1013C00068F5883209F45BC090F4803109F454C0A8
:1013D00038F4882309F4F6C0883009F44DC0F6C00B
:1013E000883109F44CC0803209F45DC0EFC080340C
:1013F00009F468C048F4803309F455C0883309F013
:10140000E5C080934E03D8C0803509F44FC08835BD
:1014100009F45DC0883409F0D9C0D6C0883909F410
:10142000C7C0A8F4883709F467C038F4883609F4CF
:1014300063C0803709F460C0C9C0883809F4B8C0F7
:10144000803909F45FC0803809F0C0C05BC0803BC0
:1014500009F486C038F4803A09F466C0883A09F481
:101460007FC0B4C0803C09F4A7C0883C09F4A4C084
:10147000883B09F48AC0AAC080912B0310C09091C8
:101480004D0380914C03981770F5E0914D0381E076
:101490008E0F80934D03F0E0E45DFC4F80818093DC
:1014A000BB0085EC86C080934E038EC0E0914D0357
:1014B00081E08E0F80934D038091BB00F0E0E45DEE
:1014C000FC4F808390914D0380914C036EC0E0915E
:1014D0004D0381E08E0F80934D038091BB00F0E0BF
:1014E000E45DFC4F808380914F0381116DC081E0EA
:1014F00080932A0384EA61C083E0809350031092B2
:10150000B302CFCF8091B302803208F051C0E09196
:10151000B30281E08E0F8093B3028091BB00F0E0B4
:10152000ED56FD4F8083BDCF85EC8093BC001092BB
:1015300050038091B302803230F4E091B302F0E0C6
:10154000ED56FD4F10826091B30270E0E091910280
:10155000F091920283E992E009951092B30236C0AD
:1015600084E0809350031092900210928F02E091D9
:101570008D02F0918E02099580918F02811105C034
:1015800081E080938F0210926D02E091900281E0E1
:101590008E0F80939002F0E0E359FD4F808180939D
:1015A000BB009091900280918F02981708F479CF38
:1015B00085E88093BC000AC085EC8093BC00109243
:1015C000500304C010924E030E945508FF91EF9102
:1015D000BF91AF919F918F917F916F915F914F914B
:1015E0003F912F910F900FBE0F901F901895109262
:1015F000500381E080934F0310922A0361E082E15F
:101600000E94171361E083E10E941713E9EBF0E0F9
:1016100080818E7F808380818D7F808388E480932A
:10162000B80085E48093BC0008953F924F925F928A
:101630006F927F928F929F92AF92BF92CF92DF92E2
:10164000EF92FF920F931F93CF93DF93382E962E36
:10165000842EF90184E6E816F1042CF082EBE81AF6
:1016600087E0F80A03C08EE1E80EF11CE092580210
:1016700000935702E0935602309254029092530224
:1016800080925202AE2DB0E020E833E341EE51E00B
:101690000E9415312B013C0122EB37E0FF2484E648
:1016A000C82ED12CC0E9D1E0C901825B97408E15CC
:1016B0009F05DCF4C90183709927892B99F4C9012E
:1016C000B6010E941A2D892B31F4C901BE010E9476
:1016D0001A2D892B39F480E8480E81E5581E81E0E7
:1016E000681E711C2F5F3F4FDFCF8EE4E81A88EF32
:1016F000F80AC70164E670E00E941A2D6C01C70168
:1017000060E971E00E941A2D5C01C1E0D0E0112770
:1017100083E0E822FF24C017D1072CF5C230D105A1
:1017200089F4E114F10471F4C114D10419F4A11481
:10173000B10441F480E8480E8BE3581E86E2681E2F
:10174000711C0FC0DE01AB55BE4FAC91B0E020E87C
:1017500031E541E050E00E941531460E571E681EEB
:10176000791E2196D8CF292D30E0ACE3B0E00E945D
:101770005F316B017C01C80CD11CE11CF11C232DD5
:1017800030E0A0E1BEE00E945F31C60ED71EE81E29
:10179000F91EDF01BB27119720E831E541E050E059
:1017A0000E942031DC01CB018C0D9D1DAE1DBF1DA3
:1017B000BC01CD01640D751D861D971DDF91CF9174
:1017C0001F910F91FF90EF90DF90CF90BF90AF905F
:1017D0009F908F907F906F905F904F903F900C9470
:1017E0001209CF92DF92EF92FF920F931F930E9404
:1017F0004B14C0905F02D0906002E0906102F090C4
:1018000062028B019C010C191D092E093F09809170
:10181000690290916A02A0916B02B0916C02083E3D
:10182000134021053105D0F00196A11DB11D809313
:10183000690290936A02A0936B02B0936C02B701A5
:10184000A60148515C4F6F4F7F4F40935F0250930A
:1018500060026093610270936202C9CF4091650299
:101860005091660260916702709168028417950733
:10187000A607B70788F1E0915D02F0915E0230970C
:1018800059F10995611571058105910519F00E94BD
:10189000120922C08091690290916A02A0916B02A4
:1018A000B0916C02845D9E4FAF4FBF4F8093650235
:1018B00090936602A0936702B093680281E090E083
:1018C0002091630230916402232B11F480E090E0B8
:1018D00090936402809363026091690270916A023E
:1018E00080916B0290916C021F910F91FF90EF908D
:1018F000DF90CF9008954F925F926F927F928F9278
:101900009F92AF92BF92CF92DF92EF92FF920F938E
:101910001F93CF93DF934B015C018091590290910B
:101920005A02A0915B02B0915C0288169906AA0641
:10193000BB0609F4C2C08CE3C82ED12CE12CF12CDB
:10194000C501B401A70196010E94D43060935202F0
:10195000CA01B901A70196010E94D43060935302D5
:10196000CA01B90128E130E040E050E00E94D430E3
:1019700069017A0160935402CA01B9016C5F7F4F1B
:101980008F4F9F4F27E030E040E050E00E94D4307E
:101990006F5F60935502412C512C320140E004E608
:1019A00010E0C0E9D1E0242F30E02E54384FF90187
:1019B000E370FF27309789F4C901B8010E941A2DFE
:1019C000892B31F4C901BE010E941A2D892B29F4FB
:1019D0008EE691E0A0E0B0E004C08DE691E0A0E0EA
:1019E000B0E0480E591E6A1E7B1ED301C201AA2711
:1019F000BB27C816D906EA06FB0610F04F5FD3CF07
:101A000040935802309799F4C90164E670E00E944F
:101A10001A2D892B39F4C90160E971E00E941A2D51
:101A2000892B29F48EE691E0A0E0B0E004C08DE6B9
:101A300091E0A0E0B0E0481A590A6A0A7B0AC4188B
:101A4000D508E608F708C90164E670E00E941A2D7F
:101A5000EC01C90160E971E00E941A2DA6EAB1E02B
:101A600020E0213039F4309749F4209729F4009789
:101A700029F402C04C9103C04DE101C04CE150E09B
:101A800060E070E0C416D506E606F70640F0C41A1A
:101A9000D50AE60AF70A2F5F11962C3011F72F5F4F
:101AA00020935702C394C09256028092590290929A
:101AB0005A02A0925B02B0925C02DF91CF911F911B
:101AC0000F91FF90EF90DF90CF90BF90AF909F90DD
:101AD0008F907F906F905F904F9008950E94F10BD0
:101AE0000E947B0C8091530290E008951F920F9208
:101AF0000FB60F9211240F931F932F933F934F9381
:101B00005F936F937F938F939F93AF93BF93EF9365
:101B1000FF930E944B1400914E0210914F022091AE
:101B20005002309151026017710782079307B8F095
:101B300080916F008D7F80936F0082E080938100A1
:101B400081E080938000E0914C02F0914D02908101
:101B500080914B0280958923808310924B02E09103
:101B60004C02F0914D02908180914B028927808335
:101B7000FF91EF91BF91AF919F918F917F916F9165
:101B80005F914F913F912F911F910F910F900FBE39
:101B90000F901F9018950C94B6300C94AE305E9850
:101BA00086E490E00C94D3170F931F93CF93DF93A9
:101BB0001F92CDB7DEB789830E94CF0D00E010E001
:101BC00020E030E08981482F60E083E00E94F91531
:101BD00084E60E94630480914A02882319F081E020
:101BE0000E94A91680914902882349F000E010E084
:101BF00020E030E040E064E081E10E94F9150F90C0
:101C0000DF91CF911F910F9108958EE00E949C1655
:101C100084E60E9463041092490210924A021092D4
:101C2000480284E00C94A916CF93823009F478C05E
:101C300038F4882329F1813009F0B9C0CAE061C0C5
:101C4000843009F48FC008F473C0853009F0AFC048
:101C500028EC30E041E068EC70E088E592E00E941A
:101C6000B21A28EC30E041E068EC70E084EF91E0DB
:101C70000E94B21A2CE231E041E068EC70E092C0C0
:101C80002DE431E041E06AEF70E086E091E00E94EF
:101C9000B21A27EA30E041E06DE770E084EC90E0B2
:101CA0000E94B21A27EA30E041E06DE770E084EC70
:101CB00090E00E94B21A2DE431E041E06AEF70E05A
:101CC0008CED90E00E94B21A2AE932E041E06AEF1E
:101CD00070E084EC90E00E94B21A2DE431E041E023
:101CE0006AEF70E087EF90E00E94B21A2DE431E0D5
:101CF00041E06AEF70E086E091E056C0C15009F41F
:101D000056C024E630E041E062E370E088EB91E009
:101D10000E94B21A80914702843081F7C0E0EECF72
:101D200024EF31E041E068EC70E088EB91E03CC0EA
:101D300024E630E041E064E670E088E592E00E944D
:101D4000B21A24E630E041E064E670E08CEB92E009
:101D50000E94B21A2CE231E041E064E670E080E2D9
:101D600093E022C024E630E041E060E570E088E5E1
:101D700092E00E94B21A24E630E041E060E570E0B3
:101D800080E991E00E94B21A24E630E041E060E58B
:101D900070E084EF91E00E94B21A28EC30E041E05C
:101DA00060E570E080E991E0CF910C94B21ACF9198
:101DB0000895CF93DF93C82F81E993E00E946F1CB1
:101DC0008EE70E94851782E993E00E94641760E025
:101DD0008FE00E94C2160E941E176AE070E0C130B8
:101DE00019F48091460202C0809145020E9462115E
:101DF0000E94CF0D81E080934402D0E080914702A1
:101E00008430F1F160E08FE00E94C21661E081E071
:101E10000E94D20580914702813081F7C130A9F438
:101E200090914602953019F41092460203C09F5FCC
:101E3000909346026AE070E0809146020E9462112F
:101E4000809146020E94140E19C0909145029A306A
:101E500019F41092450203C09F5F909345026AE017
:101E600070E0809145020E946211809148028111C8
:101E700005C0809145028F5F0E94D40DD1E0BECF96
:101E8000DD2369F0C13029F46091460287E090E0DB
:101E900004C06091450283E190E00E94CB0D8091E7
:101EA0004802811103C08EE00E949C1610924402E9
:101EB000DF91CF910895CF92DF92EF92FF920F932F
:101EC0001F93CF93DF936C017A018B01C0E0D0E0C8
:101ED000CE15DF0589F0D8016D918D01D601ED9108
:101EE000FC910190F081E02DC6010995892B11F438
:101EF0007E0102C02196ECCFC701DF91CF911F91E7
:101F00000F91FF90EF90DF90CF9008952091FA020B
:101F10003091FB022817390771F49091F8028091F3
:101F2000F902981741F0E091F802F0E0EC54FD4F0F
:101F3000808190E008958FEF9FEF089508951F939B
:101F4000CF93DF93DC015C962D913C915D97211539
:101F5000310539F481E090E013969C938E931297AB
:101F60003DC05196ED91FC91529750969C9150979F
:101F7000892F80951FB75E964C915E9741FB77271E
:101F800070F941FD6095F8944081772311F0492B59
:101F900001C048234083E9012197F1F748E05081CF
:101FA00060FF02C0592B01C058235083E9012197DB
:101FB000F1F76695415099F7772321F090818923B5
:101FC000808303C08081982B90831FBF5C968D9186
:101FD0009C915D970197F1F721E030E0C901DF9115
:101FE000CF911F9108952091FA023091FB0228179A
:101FF000390771F48091F9022091F80290E0805C39
:102000009F4F821B910960E470E00E941A2D089591
:1020100080E090E008952091FA023091FB022817A9
:102020003907B9F49091F8028091F902981789F074
:10203000E091F802F0E0EC54FD4F80812091F8022D
:1020400030E02F5F3F4F2F7333272093F80290E04B
:1020500008958FEF9FEF08950E94602ECF92DF9238
:10206000EF92FF92CF93DF936C01990FEE08FF0878
:10207000F7FE17C08DE20E948517EC0166277727CF
:10208000CB016C197D098E099F094AE00E949017C7
:102090008C0F9D1FDF91CF91FF90EF90DF90CF903D
:1020A00008954AE0C701B601DF91CF91FF90EF900C
:1020B000DF90CF900C949017CF93C62F809302039C
:1020C0001092010343E060E00E94AD1860910103AB
:1020D0006F5F43E0809102030E94AD188C2F90E067
:1020E0008D30910508F0ECC0FC01EC59FF4F0C94C9
:1020F0002E2D40E060910103809102030E94BA18E6
:1021000081E075C041E060910103809102030E946B
:10211000BA1882E00E948517609101036F5F44E066
:10212000809102030E94BA1887E016C046E06091D1
:102130000103809102030E94BA1886E00E9485176D
:1021400082E00E948517609101036F5F43E08091F8
:1021500002030E94BA1884E00E94851784E0ADC093
:1021600046E060910103809102030E94BA1886E064
:102170000E94851782E017C043E0609101038091BF
:1021800002030E94BA1884E00E94851787E04CC0C1
:1021900043E060910103809102030E94BA1886E037
:1021A0000E94851786E00E948517609101036F5F8A
:1021B00044E026C040E060910103809102030E9448
:1021C000BA1886E00E94851786E014C041E060914D
:1021D0000103809102030E94BA1881E022C040E00E
:1021E00060910103809102030E94BA1886E00E9468
:1021F000851782E00E948517609101036F5F43E0BD
:10220000809102030E94BA1884E00E94851785E03D
:1022100054C040E060910103809102030E94BA180B
:1022200086E00E94851782E00E9485176091010375
:102230006F5F8091020347E08E5F0FC080910203C1
:1022400044E0609101038F5F0E94BA18609101031E
:102250006F5F8091020344E08F5FCF910C94BA18B6
:1022600040E060910103809102030E94BA1882E06D
:102270000E94851780E00E948517609101036F5FBF
:1022800047E0809102030E94BA1883E00E948517FC
:1022900087E013C047E060910103809102030E9430
:1022A000BA1880E00E948517609101036F5F47E0D4
:1022B000809102030E94BA1883E0CF910C94851795
:1022C000CF910895AB01672B59F4E0919103F09100
:1022D00092030190F081E02D682F81E993E0099449
:1022E000682F70E080E090E00C9490171F93CF93DC
:1022F000DF931F92CDB7DEB7182F87E599830E9431
:102300002E159981692F8EEA93E00E94E308612FD0
:102310008EEA93E00E94E3080E94D11461E070E02D
:1023200087E590E00E94AE159091AC038091AD03DB
:10233000981729F08EEA93E00E94970801C08FEF6A
:102340000F90DF91CF911F9108954F925F926F92FE
:102350007F928F929F92AF92BF92CF92DF92EF9235
:10236000FF926B017C01B42E9B01AC010E945B2E9D
:10237000882319F068E072E027C026013701E8944D
:1023800077F82FEF3FEF4FE75FE7C301B2010E94FD
:102390005B2E81110DC02FEF3FEF4FE75FE7C301C9
:1023A000B2010E948A2F18161CF46CE072E00CC077
:1023B0002FEF3FEF4FE75FE4C701B6010E94562EB3
:1023C000181694F460E172E081E993E0FF90EF90D9
:1023D000DF90CF90BF90AF909F908F907F906F9045
:1023E0005F904F900C944A1C2FEF3FEF4FE75FEC4C
:1023F000C701B6010E948A2F87FDE4CF20E030E0BC
:10240000A901C701B6010E948A2F87FF09C08DE28A
:102410000E9485174C01F7FAF094F7F8F09402C087
:10242000812C912CA12C60E070E080E09FE3AB1444
:1024300040F420E030E040E251E40E94B52DA39446
:10244000F6CF9B01AC01C701B6010E94492D2B01BB
:102450003C010E94272E6B017C010E948F2F9B0163
:10246000AC01C301B2010E94482D2B013C014AE09E
:10247000C701B6010E9490177C01E80CF91CBB2033
:1024800041F064E172E081E993E00E944A1CE80EA9
:10249000F91EDB2CDD2021F120E030E040E251E4A8
:1024A000C301B2010E94F02F2B013C010E94272E94
:1024B0004B01A12CB12C4AE0C501B4010E94901738
:1024C000E80EF91EC501B4010E948F2F9B01AC01DB
:1024D000C301B2010E94482D2B013C01DA94DACFEE
:1024E000C701FF90EF90DF90CF90BF90AF909F908B
:1024F0008F907F906F905F904F90089510928D0312
:1025000010928C0310928B0310928A03109289030D
:10251000109288038DE991E090938F0380938E034E
:1025200090917E03963108F057C02DEB30E0309348
:102530008903209388032BE931E030938B032093A8
:102540008A032CE231E030938D0320938C03209199
:102550006800983050F031E09E3008F430E081E0BF
:1025600001C0880F3A95EAF701C084E0822B80937E
:102570006800983038F09E3040F0963148F020E006
:1025800030E008C02DE630E005C02BE630E002C0A8
:102590002CE630E03093860320938503983030F4A6
:1025A00081E001C0880F9A95EAF70EC0292F30E02C
:1025B0009E3018F42850310902C02E50310981E0B4
:1025C00001C0880F2A95EAF78093870380918E03D4
:1025D00090918F030197F1F780918C0390918D0377
:1025E000892B21F18091FA029091FB0223E082373E
:1025F0009207E1F0009711F00E94B30980919003D7
:102600008E7F809390031092F9021092F80282E775
:1026100093E09093FB028093FA02E0918503F0919E
:102620008603908180918703892B8083089590E0B1
:10263000FC01E355FC4F3491FC01E751FC4F249120
:10264000FC01EB52FC4FE491EE2309F43BC0332331
:1026500039F1333091F038F43130A9F0323001F5EE
:1026600084B58F7D12C0373091F03830A1F034300E
:10267000B9F4809180008F7D03C0809180008F77B6
:10268000809380000DC084B58F7784BD09C0809190
:10269000B0008F7703C08091B0008F7D8093B00031
:1026A000F0E0EE0FFF1FEF53FC4FA591B4918FB7F1
:1026B000F894EC91611103C020952E2301C02E2BBC
:1026C0002C938FBF0895CF93DF9390E0FC01E751E7
:1026D000FC4F2491FC01EB52FC4F8491882361F163
:1026E00090E0880F991FFC01ED55FC4FC591D491E6
:1026F000FC01EF53FC4FA591B491611109C09FB744
:10270000F8948881209582238883EC912E230BC036
:10271000623061F49FB7F8943881822F80958323CB
:102720008883EC912E2B2C939FBF06C08FB7F89413
:10273000E8812E2B28838FBFDF91CF910895CF930F
:10274000DF93EC0161E08AE00E946313209711F4AB
:1027500060E004C0CF3FD10531F461E08AE0DF9151
:10276000CF910C941713E7EBF3E0E491E330F9F029
:1027700048F4E130B9F0E230A1F584B5806284BD5F
:10278000C8BD34C0E730E9F0E83019F1E43049F56C
:1027900080918000806280938000D0938B00C093F2
:1027A0008A0024C084B5806884BDC7BD1FC08091E5
:1027B0008000806880938000D0938900C093880057
:1027C00015C08091B00080688093B000C093B300C2
:1027D0000DC08091B00080628093B000C093B400BF
:1027E00005C0C038D1050CF0B8CFB2CFDF91CF9182
:1027F00008958E3008F08E508770806480937C003E
:1028000080917A00806480937A0080917A0086FDBE
:10281000FCCF809178002091790090E0922B089570
:10282000789484B5826084BD84B5816084BD85B5AB
:10283000826085BD85B5816085BDEEE6F0E0808172
:1028400081608083E1E8F0E0108280818260808393
:10285000808181608083E0E8F0E080818160808316
:10286000E1EBF0E0808184608083E0EBF0E0808148
:1028700081608083EAE7F0E08081846080838081EA
:102880008260808380818160808380818068808392
:102890001092C10008952FB7F8946091FD027091D5
:1028A000FE028091FF02909100032FBF08951F92B6
:1028B0000F920FB60F9211242F933F938F939F93F4
:1028C000AF93BF938091FD029091FE02A091FF0211
:1028D000B09100033091FC0223E0230F2D3720F448
:1028E0000196A11DB11D05C026E8230F0296A11D6A
:1028F000B11D2093FC028093FD029093FE02A093F1
:10290000FF02B09300038091F4029091F502A09130
:10291000F602B091F7020196A11DB11D8093F40259
:102920009093F502A093F602B093F702BF91AF9196
:102930009F918F913F912F910F900FBE0F901F90FD
:1029400018958F929F92AF92BF92CF92DF92EF92A3
:10295000FF92CF93DF936B017C010E944B144B01DC
:102960005C0182E793E00E94F30FEC01892B69F48C
:102970000E944B14AB01BC01481959096A097B0933
:102980004C155D056E057F0560F3CE01DF91CF919B
:10299000FF90EF90DF90CF90BF90AF909F908F907F
:1029A00008952091AA039091BA03213208F04AC0F9
:1029B000809150038111FCCF32E03093500331E01D
:1029C00030934F033FEF30934E0310924D0320930B
:1029D0004C03A2E5B3E04CE253E0FA013E2F341B76
:1029E000321718F43D913193F9CF10922B032091B7
:1029F0002B03990F922B90932B0390912A039130E4
:102A000061F410922A0390912B039093BB00909154
:102A1000BC0093FDF8CF95EC01C095EE9093BC00FF
:102A2000909150039230E1F390914E039F3F79F0E3
:102A300080914E03803241F080914E03803331F01B
:102A400084E005C081E003C082E001C083E0109211
:102A5000AB031092AA0310925103089591E0909352
:102A600051038093BA031092AB031092AA03089506
:102A70000F931F93CF9388E60E942E1560E08EEA95
:102A800093E00E94E30803E213E0F8018081CAE0CA
:102A90006C2F0E940E2D692FF0E18F9F600D112485
:102AA0008EEA93E00E94E308F80181816C2F0E9476
:102AB0000E2D692FF0E18F9F600D11248EEA93E0B7
:102AC0000E94E308F80182816C2F0E940E2D692F6D
:102AD000F0E18F9F600D11248EEA93E00E94E308DD
:102AE000F80183816C2F0E940E2D692FF0E18F9FDA
:102AF000600D11248EEA93E00E94E308F8018481BE
:102B00006C2F0E940E2D692FF0E18F9F600D112414
:102B10008EEA93E00E94E308F80185816C2F0E9401
:102B20000E2D692FF0E18F9F600D11248EEA93E046
:102B30000E94E308F80186818E516C2F0E940E2DB1
:102B4000692FF0E18F9F600D11248EEA93E00E94BF
:102B5000E308CF911F910F910C94D11490915003E1
:102B60009111FCCF613208F060E291E09093500344
:102B700090934F032FEF20934E0310924D03260F97
:102B800020934C0390932B0390912B03880F892B58
:102B900080932B0380912A03813061F410922A03E1
:102BA00080912B038093BB008091BC0083FDF8CF04
:102BB00085EC01C085EE8093BC008091500381308C
:102BC000E1F380914D03861710F460914D03ACE260
:102BD000B3E023E033E0F9018E2F821B861718F44F
:102BE0008D918193F9CF1092AD036093AC03862F42
:102BF0000895CF92DF92EF92FF920F931F93CF939E
:102C0000DF93E82EC62ED42EE901EDEFE80FE03178
:102C100028F4F0E0EE54FE4FF08001C0F12C6AE0A1
:102C200070E080E090E00E94A114892B29F082E7F7
:102C300093E00E940B10F3CF6EE782E793E00E94CF
:102C40009F0F62E06F0D82E793E00E949F0F6E2D51
:102C500082E793E00E949F0FFF2069F06C2D82E7CE
:102C600093E00E949F0F82E0F81205C06D2D82E76D
:102C700093E00E949F0F6FEE82E793E00E949F0F08
:102C8000209749F00115110531F0A80160E070E0CE
:102C9000CE010E94652E68EE73E080E090E00E9415
:102CA000A114E12CF12C0150110962E370E080E0E5
:102CB00090E00E94A114892B89F082E793E00E94A2
:102CC0000B10209791F3E016F10678F7FE01EE0D58
:102CD000FF1D8083C70101967C01E7CFDF91CF9173
:102CE0001F910F91FF90EF90DF90CF9008950F9379
:102CF0001F93CF93DF9300D000D01F92CDB7DEB7E4
:102D000005E010E09E012F5F3F4F40E060E00E9431
:102D1000F91540E150E060E070E0CE0101960E94BC
:102D20006C2ECB010F900F900F900F900F90DF91B2
:102D3000CF911F910F9108950F931F9300E010E022
:102D400020E030E040E060E00E94F9151F910F9113
:102D500008950F931F9300E010E020E030E040E082
:102D6000682F81E10E94F9151F910F910895E0915C
:102D70009103F09192030084F185E02D60E081E9F8
:102D800093E00994CF93DF93CDB7DEB728970FB6C2
:102D9000F894DEBF0FBECDBF1D8290E49E8324E178
:102DA0002F8324E5288719829A8390E19B8390E5FD
:102DB0009C8390919803691710F06FEF690F409111
:102DC0009903262F30E0FE01E20FF31F403121F47A
:102DD000943011F4918101C09581682F690F60686A
:102DE00081E993E028960FB6F894DEBF0FBECDBF01
:102DF000DF91CF910C945F1C0E94B716E1E9F3E0DC
:102E000065816B7F65836860CF010C945F1CE1E98D
:102E1000F3E06581862F846085836C60CF010E941A
:102E20005F1C81E993E00C94671CE1E9F3E06581A4
:102E30006E7F65836860CF010C945F1CE1E9F3E06D
:102E40006581862F816085836960CF010C945F1C4A
:102E5000CF92DF92EF92FF920F931F93CF93DF9366
:102E60001F92CDB7DEB7162F877028E0829FC00172
:102E70001124682F606481E993E079830E945F1CCC
:102E800083E790E00197F1F7C12E7981D72E860173
:102E9000085F1F4F8BE9E82EF12CF60161916F015D
:102EA00081E993E00E948D1BC7010197F1F7C016DD
:102EB000D10699F70F90DF91CF911F910F91FF905D
:102EC000EF90DF90CF9008950F931F93CF93DF93F0
:102ED0008C01C0E0D0E0F801EC0FFD1F6491662387
:102EE00071F0E0919103F09192030190F081E02D57
:102EF00081E993E00995892B11F02196ECCFCE0161
:102F0000DF91CF911F910F910895E0919103F0917E
:102F100092030190F081E02D682F81E993E00994FC
:102F20008F929F92AF92BF920F931F93CF93DF9395
:102F3000CDB7DEB7A1970FB6F894DEBF0FBECDBFF9
:102F400019A2423008F44AE08E010F5D1F4F842E13
:102F5000912CA12CB12CA50194010E94D430E62F14
:102F6000B901CA0101501109EA3014F4E05D01C051
:102F7000E95CD801EC93232B242B252B61F7B801B6
:102F800081E993E00E944A1CA1960FB6F894DEBF37
:102F90000FBECDBFDF91CF911F910F91BF90AF902A
:102FA0009F908F9008958F929F92AF92BF92CF92F1
:102FB000DF92EF92FF926C010E944B144B015C0177
:102FC000E12CF12C0E944B14DC01CB0188199909EA
:102FD000AA09BB098C159D05AE05BF0598F3FF90A6
:102FE000EF90DF90CF90BF90AF909F908F9008951B
:102FF000CF92DF92EF92FF920F931F93CF93DF93C5
:10300000C62F2FB7F8944091F4025091F5026091C9
:10301000F6027091F70296B5A89B06C09F3F21F07B
:103020004F5F5F4F6F4F7F4F2FBF762F652F542F0E
:103030004427490F511D611D711D32E0440F551F7A
:10304000661F771F3A95D1F79A01220F331F220F7F
:10305000331F42275327BA01660F672F661F770B6E
:10306000719546275727BA017695762F662777956B
:103070006795082F10E06427752780E090E00E9494
:103080008F2F20E03FEF4FE757E40E94B52D6B01F3
:103090007C01D0E0C01BD10BBE01DD0F880B990B6A
:1030A0000E94912F9B01AC01C701B6010E94F02F35
:1030B0006B017C01B801110F880B990B0E94912FB5
:1030C0009B01AC01C701B6010E94492D0E94272E29
:1030D000862FDF91CF911F910F91FF90EF90DF909E
:1030E000CF90089580E090E00E949F130E94FC160C
:1030F00081E080932C021092320208950F931F9367
:10310000CF9302E011E0C0E0B8018C2F0E94281795
:10311000CF5F085F1F4FC830B9F7CF911F910F9154
:1031200008958FEE0E94851787E194E00C94641750
:1031300082E194E00C94641780E30C948517BC0141
:1031400080E00E94281781E993E00E946F1C80E0D4
:103150000E94851780E20C948517CF93C42F0E949C
:10316000C216CC2329F080E20E948517C150F9CF06
:10317000CF910895CF93DF931F92CDB7DEB74983E8
:103180000E94C2164981842F0F90DF91CF910C9439
:103190008517CF93C82F80914302811106C04C99A7
:1031A00004C080914802811159C1809136029091EA
:1031B000370205970CF4C1E04C990DC080912E02A6
:1031C000811109C080914002811105C080914402A3
:1031D000882309F446C180913002882309F40DC187
:1031E00080914402811109C10E94CE029091BE03D8
:1031F000809130029111F8C0882309F4FEC020911B
:10320000BD03909124032913EFC02091BC0390913A
:1032100025032913E9C080912C0281110E94071710
:1032200080913202882321F081E993E00E94671C9B
:103230005E986AE871E080E00E94281781E993E0D7
:103240000E946F1C0E94151760E087E00E94C21662
:10325000809125038A3010F40E949C186AE070E087
:10326000809125030E9462118AE30E948517809154
:1032700024038A3010F40E949C186AE070E0809168
:1032800024030E94621163E084E00E94C21685E07C
:1032900094E00E94641745EF63E08BE00E94BA1847
:1032A00081E0809344028091400281115F98809177
:1032B000BB03813051F490912E02911106C0909180
:1032C0004802911102C080932E0210924702809111
:1032D0004702843009F44CC09091BD0380912403CF
:1032E000981346C040E062E085E00E94BA188DEF76
:1032F00093E00E94641780E00E94851781E00E949D
:10330000C918809347028FEF90E00E949F1380912D
:10331000BB03882341F080914802811104C0809151
:103320004302882321F0809146020E94140E80916E
:10333000BB03823039F44C9905C080914802882340
:1033400009F493C084EF91E00E94811A49E062E0A1
:1033500085E00E94AD1880E090E00E949F1384EF0A
:1033600091E00E94811A0E946E0D80932403AFCFDA
:1033700080914802811104C08EE00E949C1608C012
:103380008091BB03813021F48091400281115F9ACA
:10339000109244029091BD0380912403981309C0B8
:1033A0009091BC0380912503981303C081E0809322
:1033B000BE0381E993E00E946F1C80912C02882358
:1033C00031F080912E02811102C04C9B54C080913B
:1033D0002C0281110E94FC168091320281110E9400
:1033E000B7160E94C8051FC0882339F09091BD030D
:1033F0008091240398131092BE038EE00E94F9136B
:10340000893C910508F079C087399105B0F182E3D4
:103410000E9463048EE00E94F913873991050CF431
:1034200067C04C9B02C0C4E017C080912F0281117D
:10343000FACFC111F8CF809143028111F4CF65E03A
:1034400081E00E94F817C82F843069F76DE38FE19F
:103450000E94F8170E94D40D8C2F51C01092480280
:10346000A4CE5E9A0E94D003B6CE809145028F5FB3
:103470000E94D40D67CF5E9AAACF8536910550F091
:1034800082E30E9463048EE00E94F9138536910561
:1034900084F52EC0C39748F082E30E9463048EE057
:1034A0000E94F913C3973CF523C082E30E94630492
:1034B0008EE00E94F91318161906D4F44C9916C020
:1034C00080912F02811112C0C11110C0809143025E
:1034D00081110CC068E081E00E94F817843031F45B
:1034E0006FE18BE00E94F8170E94D40DC1E0B4CFC9
:1034F00006C0C3E0B1CFC2E0AFCFC0E0ADCFCF9147
:1035000008958F929F92AF92BF92CF92DF92EF92E7
:10351000FF926C010E944B144B015C01E12CF12CD9
:103520000E944B14DC01CB0188199909AA09BB0937
:103530008C159D05AE05BF0528F481E00E94C918D1
:10354000843071F781E00E94C918843011F48093AF
:103550004702FF90EF90DF90CF90BF90AF909F9089
:103560008F9008958F929F92AF92BF92CF92DF92E9
:10357000EF92FF920F931F93CF93DF93142FE901E4
:103580004B01A12CB12C9C0140E050E060E079E0BF
:103590008DE390E00E94D43069017A0181E0C81A7D
:1035A000D108E108F108C114D104E1E0EE06F1040C
:1035B00058F0CD2CDE2CEF2CFF24F1E0CF1AD108EF
:1035C000E108F10804E001C001E081149104A104C4
:1035D000B10479F00E944B14860E971EA81EB91EE6
:1035E00080924E0290924F02A0925002B0925102ED
:1035F0000BC08FEF9FEFDC0180934E0290934F0240
:10360000A0935002B093510280914B02811122C0CD
:10361000E4EFF3E0849180934B0260EE73E0FB01F2
:103620009491E92FF0E0EE0FFF1FEF53FC4F25912F
:10363000349130934D0220934C02FB016491E62FAC
:10364000F0E0EE0FFF1FED55FC4FA591B491EC910A
:103650008E2B8C93D0928700C0928600809184003C
:1036600090918500A0E0B0E0C816D906EA06FB06F6
:1036700020F4D0928500C092840000610093810004
:1036800080E18093800080916F00826080936F0062
:1036900011110FC0CE01DF91CF911F910F91FF90BB
:1036A000EF90DF90CF90BF90AF909F908F900C9451
:1036B000D31780914702843079F0CE01DF91CF910A
:1036C0001F910F91FF90EF90DF90CF90BF90AF9040
:1036D0009F908F900C94811ADF91CF911F910F9141
:1036E000FF90EF90DF90CF90BF90AF909F908F9022
:1036F000089521E001C0220F6A95EAF7DC011C96CB
:103700002C931C971A965C934E931997ED91FC910C
:103710000084F185E02D60E00994DC01ED91FC91DD
:103720000284F385E02D41E0099581E090E0089561
:1037300008950895CF93DF93FC012381222391F014
:10374000EC01818180956823608382810E942E151F
:1037500068818EEA93E00E94E3080E94D114282F2A
:1037600030E002C020E030E081E090E0232B11F057
:1037700080E090E0DF91CF910895EF92FF920F9358
:103780001F93CF938C01FC01759684E0C0E060FF2D
:1037900002C09081C92B6695815031968111F7CF77
:1037A000413011F4F8014489F8018585C82BC42BF8
:1037B0007801FEE0EF0EF11CF80162896C2BC70165
:1037C0000E949A1BF801628960956C23C701CF9112
:1037D0001F910F91FF90EF900C949A1B0F931F93E2
:1037E000CF93DF93062F0F70423019F440E0602F23
:1037F00010C0142F262FEC0130E0B90184E075953C
:1038000067958A95E1F7CE010E94BD1B412F602F7D
:10381000CE01DF91CF911F910F910C94BD1BFC0144
:1038200084858823A9F0218532852115310519F475
:10383000611106C007C02130310521F4611102C0B9
:10384000858701C015866585CF010E960C949A1B5D
:1038500008951F920F920FB60F9211248F93EF933A
:10386000FF930FB6F894A8958091600088618093CB
:103870006000109260000FBEA895E0E6F0E0808145
:103880008F7B8083FF91EF918F910F900FBE0F90F0
:103890001F9018956115710579F0FB0101900020CA
:1038A000E9F73197AF01461B570BDC01ED91FC9115
:1038B0000280F381E02D099480E090E00895DC011E
:1038C000ED91FC910284F385E02D40E00994DC0148
:1038D000ED91FC910084F185E02D6FEF099461E09A
:1038E0000E945F1C8BE39FE10197F1F70895CF924F
:1038F000DF92EF92FF920F931F93CF93DF93EC0130
:10390000423018F08C8188608C834F836887222333
:1039100029F0413019F48C8184608C830E944B140F
:103920006B017C010E944B14DC01CB018C199D09B9
:10393000AE09BF0984369105A105B10598F36C81E4
:1039400064FD31C0E881F9810284F385E02D42E015
:1039500063E0CE0109958BE496E40197F1F7E881E5
:10396000F9810284F385E02D42E063E0CE01099500
:1039700003E512E0C8010197F1F7E881F9810284BB
:10398000F385E02D42E063E0CE010995C80101977F
:10399000F1F7E881F9810284F385E02D42E062E0ED
:1039A000CE01099517C06062CE010E945F1C8BE4B6
:1039B00096E40197F1F76C816062CE010E945F1C72
:1039C00003E512E0C8010197F1F76C816062CE0156
:1039D0000E945F1CC8010197F1F76C816062CE0103
:1039E0000E945F1C8BEE90E00197F1F784E08D83DD
:1039F0006CE0CE010E945F1CCE010E946F1C82E031
:103A00008E8366E0CE010E945F1CCE01DF91CF91D4
:103A10001F910F91FF90EF90DF90CF900C94671C57
:103A2000FF920F931F93CF93DF93EC01162F042F78
:103A3000F22E8B85888B1092AD031092AC031092FE
:103A4000AB031092AA030E94F70A88890E942E15E0
:103A50000E94D11491E0811190E0998B992329F073
:103A60008EEA93E00E9497088E878989882339F02F
:103A70001F861C8260E0CE010E960E949A1B2F2D9D
:103A8000402F612FCE01DF91CF911F910F91FF90B9
:103A90000C94771CCF92DF92EF92FF920F931F93BB
:103AA000E82FF92F05C0015011092109310961F1F1
:103AB000908196239417B9F305C00150110921098B
:103AC000310911F1908196239413F7CFC12CD12C99
:103AD000E12CF12C0AC08FEFC81AD80AE80AF80ABC
:103AE0000C151D052E053F0579F08081862384176E
:103AF00091F36C2D7D2D8E2D9F2D1F910F91FF9099
:103B0000EF90DF90CF90089560E070E080E090E06B
:103B10001F910F91FF90EF90DF90CF900895CF937A
:103B2000DF9300D000D000D0CDB7DEB70E941014D4
:103B30001CBC80E880BF8FE380937E00809164008E
:103B4000846080936400809164008260809364004C
:103B50008091640080648093640088EC8AB98CE270
:103B600084B98EE387B980E48BB981E088B90E947B
:103B70007E128EE00E949C168CE00E949C1684EFC0
:103B800091E00E94D31700E010E020E030E040E038
:103B90006EE186E00E94F91584E00E94A91681E09A
:103BA00090E00E94CD0D91E0811101C090E09093D2
:103BB0002F0282E090E00E94CD0D80932B0283E0E3
:103BC00090E00E94CD0D91E0811101C090E09093B2
:103BD000300284E090E00E94CD0D8093BD0385E02B
:103BE00090E00E94CD0D8093BC0386E090E00E949F
:103BF000CD0D8093BB0387E090E00E94CD0D8093B4
:103C0000460288E090E00E94CD0D8093330289E067
:103C100090E00E94CD0D80932A028AE090E00E94FD
:103C2000CD0D91E0811101C090E0909329028BE0CD
:103C300090E00E94CD0D91E0811101C090E0909341
:103C40003F028CE090E00E94CD0D80933E028DE01B
:103C500090E00E94CD0D80933C028EE090E00E94A7
:103C6000CD0D80933D028FE090E00E94CD0D8093BA
:103C70003B0280E190E00E94CD0D91E0811101C0F6
:103C800090E09093280281E190E00E94CD0D182FE2
:103C900082E190E00E94CD0D282F30E0C9014AE07A
:103CA000149F800D911D112490932702809326026A
:103CB00083E190E00E94CD0D80934502B0E2EB2EAF
:103CC000B2E0FB2E05E110E0C8010E94CD0DD82E18
:103CD000C80101960E94CD0D282F30E0C9016AE08D
:103CE000D69E800D911D1124F701819391937F0140
:103CF0000E5F1F4F0B31110539F78BE190E00E94E9
:103D0000CD0D91E0811101C090E090931F028CE1F4
:103D100090E00E94CD0D91E0811101C090E0909360
:103D20001E0280E090E00E94761180931D0281E0E7
:103D300090E00E94761180931C0282E090E00E9445
:103D400076118093420288E60E942E1562E072E0AE
:103D50008EEA93E00E944A1C0E94D11484E10E94E2
:103D6000630488E60E942E1565E072E08EEA93E017
:103D70000E944A1C0E94D1140E94D00320E044E01B
:103D800064E181E993E00E94101D0E947E1884E1A5
:103D900090E00E94CD0D182F8A3008F045C081E9CF
:103DA00093E00E946F1C86E093E00E94641746E552
:103DB00061E083E00E94BA1880E090E00E942E103B
:103DC0008EE20E948517812F6AE00E940E2D892FB6
:103DD00090E00E942E108FEF92E00E94641781E025
:103DE00090E00E942E108EE20E94851780E090E005
:103DF0000E942E1064E084E00E94C21682EF92E0DE
:103E00000E94641745EF64E08BE00E94BA186AE0F4
:103E100084E190E00E94CB0D60E081E00E94D20539
:103E200081E993E00E946F1C0E94CF0D20E530E0F5
:103E300040E060E570E088E592E00E94B21A26E971
:103E400030E040E066E970E080E793E00E94B21A5B
:103E50005E9A0E94CE020E947B0280933A0287E41F
:103E60000E94771690914202891B8F5680934102DF
:103E7000F3E6FD8323E62C83CE0101963C010E94EC
:103E8000CE0287E00E94F9138132934024F08091A2
:103E90002D02882351F087E00E94F913803293406D
:103EA00004F580912D028823E1F090912D0281E0AC
:103EB000892780932D0287E00E94F9138032934076
:103EC00014F00C94F62A80913202882311F40C9499
:103ED000F62A80912902882311F40C94F62A0E9474
:103EE0007218809124032C81281709F433C1809122
:103EF00035028823E1F080911E028823C1F0809171
:103F00002C02811114C080912902882339F08091FC
:103F10002D02811103C00E94721809C080913202E3
:103F2000811105C00E94B71681E080933202109281
:103F30001B02809125033D81381709F484C08091CC
:103F40002C02811149C00E94DF0290911C028091D5
:103F5000280398133DC090911D0280912703981368
:103F600037C081E08093310280911A02811134C000
:103F700080913502811130C062E771E00E942817FC
:103F80008091400281115F9880912F02811107C0BA
:103F900080914802811103C08FE60E94D40D80ED0C
:103FA00097E00E94D3170E946E0D7C01FF240E94AF
:103FB0006E0DE816F90621F04C9902C00C940E2BF8
:103FC00080914702843011F00C94202B0C940E2B1E
:103FD00010921A0210923102109128020E945A0384
:103FE000181789F180912503843068F1112311F4A9
:103FF0000C94532B81508093250381E0D12ED82639
:10400000D0922802E0903802F09039020091280303
:1040100010E02091270330E04091230350E06091AD
:10402000240370E08091250390E00E94150B80919D
:104030003802825B809329030E9438156D2D80E140
:1040400090E00E94CB0D80912C02811102C00E9451
:104050008F048091350281117DC080912F028111E2
:1040600079C080913602909137020A977CF4809152
:104070002D0281110BC00E94CF0D20E530E040E001
:1040800060E570E088E993E00E94B21A4C9962C042
:104090008091430281115EC080912E0281115AC02D
:1040A000809136029091370202970CF453C0E09150
:1040B0002A02F0E0E456FE4F108161E0610F81E0DA
:1040C0000E94F817811346C00C94562B163010F03E
:1040D0000C94F12B143011F00C94E92B61E083E087
:1040E0000E94C21681EF90E00E94641780912B021B
:1040F0004CE1849FC00111240E949F130E94CF0DA8
:104100002EE031E040E06AEF70E080E293E00E9450
:10411000B21A24EB30E040E066E970E080E293E020
:104120000E94B21A2AEF30E040E06AEF70E084E9C2
:1041300092E00E94B21A80ED97E00E94811A80E01E
:1041400090E00E949F130E94C80580913202811165
:104150000C94BB2B80912C0281117CC08091340285
:10416000811178C080913302882309F473C02D989F
:104170008FE090E00197F1F72D9A83E290E00197AC
:10418000F1F72D98E5EFF3E06491E1EEF3E0E491CF
:10419000F0E0EE0FFF1FE553FC4F8591949100E492
:1041A00012E42FE030E0462F0E944A1D6115710590
:1041B0008105910549F0DC01CB010196A11DB11DDE
:1041C000BC01CD019F7003C060E070E0CB01109195
:1041D00033022AE330E040E050E00E94D43069E14D
:1041E000169FC0011124092E000CAA0BBB0B281727
:1041F00039074A075B0770F580913202882391F0F6
:1042000080911F02882371F081E993E00E94671C6E
:104210000E944B1460931602709317028093180249
:104220009093190280913502811114C080911B0274
:10423000811110C080912E0281110CC08091430227
:10424000811108C080912F02811104C04C9902C0D5
:104250000C947A2B809132028823C9F080911F023E
:104260008823A9F00E944B140091160210911702A6
:1042700020911802309119020A561F4F2F4F3F4FBD
:10428000061717072807390710F40C94852B80911F
:1042900024038C83909125039D8380E00E94C9189C
:1042A0008093470290912C02823011F40C949F2A43
:1042B000833011F40C94B32A813011F00C94EB2A62
:1042C00091110C94EB2A80E50E9463040E9415175B
:1042D00081E993E00E946F1C80912F02882331F0C6
:1042E00088E70E948517E1E0EB8301C01B8260E054
:1042F00082E00E94C21684EE92E00E94641761E0A0
:1043000082E00E94C21686ED92E00E94641762E08D
:1043100081E00E94C2160E94981889EC92E00E94E7
:10432000641763E082E00E94C2168CEB92E00E9468
:104330006417AB8080914702843011F40C94BB2A3F
:104340004EE76A2D80E00E94BA1861E080E00E948A
:10435000D20580914702823011F40C94852A833073
:1043600011F40C94922A813029F7F1E0AF1609F488
:10437000E1C0AF1668F122E0A21609F493C233E05F
:10438000A312D8CF81E993E00E946F1C60E082E025
:104390000E94C2168CEA92E00E94641761E082E0FB
:1043A0000E94C2168CE992E00E94641762E082E0EB
:1043B0000E94C2168CE892E00E94641763E082E0DB
:1043C0000E94C21682E892E00E94641710E0E8C5DD
:1043D0006AE771E080E00E94281781E993E00E947B
:1043E0006F1C60E082E00E94C21683E291E00E94AE
:1043F00064170E94911861E082E00E94C21689E170
:1044000091E00E9464170E94911862E082E00E948D
:10441000C2168DE091E00E94641763E082E00E9482
:10442000C2168FEF90E00E9464170E94911810E06E
:1044300080914702843009F47AC048E760E081E067
:104440000E94BA1880914A02811102C040E201C064
:1044500040E061E081E00E94BA1880914002811141
:1044600002C040E201C040E062E081E00E94BA1870
:1044700080914902811102C040E201C040E063E046
:1044800081E00E94BA184EE7612F80E00E94BA18BE
:1044900061E081E00E94D20580914702823099F16B
:1044A0008330D9F1813021F6123079F0133049F19F
:1044B000113009F0BDCF80914102882311F082E0D4
:1044C00001C083E00E940B06B3CF809140028111AE
:1044D0000BC080914302811104C04C9B02C00C941C
:1044E000892B5E985F9A02C05E9A5F989091400215
:1044F00081E089278093400284EF91E00E94D317E6
:1045000097CF81E0DFCF40E2612F80E00E94BA18B0
:10451000133008F08DCF1F5F8BCF40E2612F80E01A
:104520000E94BA18112309F483CF115081CF0E9441
:104530007E1800CFA09244028AE891E00E949F1862
:104540008091BC038A3010F40E949C186AE070E0ED
:104550008091BC030E9462118AE30E9485178091BA
:10456000BD038A3010F40E949C186AE070E08091CC
:10457000BD030E9462110E94981861E080E00E94D1
:10458000C2168AE791E00E94641763E082E00E940D
:10459000C21687E691E00E94641763E08EE00E94F5
:1045A000C2168091BB03813049F028F0823051F46B
:1045B00089E591E005C083E691E002C08DE591E0D8
:1045C0000E9464170E941E1700E010E07AE0F72EA8
:1045D000E4E1EE2E80914702843009F447C11530A2
:1045E00010F062E001C063E040E280E00E94BA188F
:1045F000153010F063E001C062E04EE780E00E94F9
:10460000BA1862E082E00E94C2168091BC038A3030
:1046100010F40E949C186AE070E08091BC030E9434
:1046200062118AE30E9485178091BD038A3010F4DD
:104630000E949C186AE070E08091BD030E946211A4
:104640000E94981880913002882319F081E591E04A
:1046500002C089E491E00E946417123091F038F4AE
:10466000112361F01130B9F462E083E012C014301C
:1046700071F050F0153079F463E00AC062E082E036
:1046800008C062E085E005C062E086E002C062E04A
:104690008EE00E94C21661E080E00E94D205809107
:1046A0004702823009F4D6C0833009F4D8C0813083
:1046B00009F090CF123009F455C028F4112379F194
:1046C0001130D9F1D1C0143009F468C008F458C0D1
:1046D000153009F0C9C00E941517D0903002109211
:1046E000300281E993E00E946F1C60E082E00E944A
:1046F000C2168DE391E00E94641761E082E00E949F
:10470000C21683E391E00E94641762E082E00E9497
:10471000C2168BE291E00E94641700E065C08091B0
:10472000BC038E3020F4865F8093BC039DC06F2D48
:104730000E940E2D9093BC0397C02091BC03822F42
:104740006F2D0E940E2D993011F4295001C02F5F5A
:104750002093BC038091BC03883109F085C0E092AE
:10476000BC0382C08091BD03813320F4865F8093B7
:10477000BD037AC06F2D0E940E2D9093BD0374C0AF
:104780002091BD03822F6F2D0E940E2D993011F4C0
:10479000295001C02F5F2093BD0366C09091300265
:1047A00089278093300260C048E56091BB0383E0B5
:1047B0000E94BA184EE7602F80E00E94BA184DE2BE
:1047C00061E083E00E94BA18602F83E00E94C21665
:1047D00061E080E00E94D20580914702823001F1C1
:1047E000833039F1813029F0809147028430E1F63D
:1047F00029C00130C9F30093BB03602F86E090E02D
:104800000E94CB0D8091BB03811103C081E00E9407
:10481000D90E8091BB03823039F70E94D90EE4CFC4
:1048200040E2602F80E00E94BA180230E8F60F5F85
:10483000DBCF40E2602F80E00E94BA180023A1F293
:104840000150D2CFD092300262E071E080E00E944D
:1048500028170AC0153008F0BDCE1F5FBBCE11234C
:1048600009F4B8CE1150B6CE01E0B4CE002391F0D9
:104870006091300283E090E00E94CB0D6091BD0317
:1048800084E090E00E94CB0D6091BC0385E090E055
:104890000E94CB0D62E071E080E00E942817109228
:1048A000440248CDC090250390902403D090270364
:1048B000B090280382E891E00E949F1889ED91E072
:1048C0000E94641761E082E00E94C21688EC91E0C9
:1048D0000E9464170E941E1780913802909139023D
:1048E000805D9740909339028093380210E000E099
:1048F00064E1E62E80914702843009F406C362E049
:1049000082E00E94C21649E04C1510F00E949C18EB
:104910006AE070E08C2D0E9462118AE30E94851784
:1049200069E0691510F00E949C186AE070E0892D1A
:104930000E9462110E94981863E082E00E94C216F1
:1049400089E08D1510F00E949C186AE070E08D2DB2
:104950000E9462118EE20E94851799E09B1510F06B
:104960000E949C186AE070E08B2D0E94621184EC1A
:1049700091E00E94641780913802909139020A9761
:1049800014F40E949C1880913802909139020E9480
:104990002E1061E08EE00E94C21680913F028823B3
:1049A00019F080EC91E002C08CEB91E00E9464175A
:1049B00040E20111B2C662E080E00E94BA1861E0F4
:1049C00080E00E94C2168BEF800F863048F440E2F0
:1049D00062E080E00E94BA1863E080E00E94C216A4
:1049E0008EE70E948517202E312CEBE02E16310425
:1049F00018F5F101EC5CFF4F0C942E2D61E08EE078
:104A000019C062E007C062E008C062E009C062E06D
:104A10000AC063E082E00EC063E083E00BC063E0A5
:104A200085E008C063E086E005C063E08AE002C07C
:104A300063E08BE00E94C21661E080E00E94D20534
:104A400080914702823009F452C2833009F454C283
:104A5000813009F04FCF002351F0F1013197EA3056
:104A6000F10508F0BBC1E15CFF4F0C942E2D82E8EC
:104A700091E00E949F1889EA91E00E94641761E02A
:104A800082E00E94C21688E991E00E94641762E009
:104A900082E00E94C21684E991E00E94641763E0FC
:104AA00082E00E94C21680E991E00E946417F12C16
:104AB00080914702843009F480C161E083E00E9464
:104AC000C21680913F02882319F08CE891E002C061
:104AD00088E891E00E94641780911E02811102C053
:104AE00040E201C048E561E080E10E94BA1862E05E
:104AF00086E00E94C21680913E028A3010F40E9425
:104B00009C186AE070E080913E020E9462118AE384
:104B10000E94851780913C028A3010F40E949C18F4
:104B20006AE070E080913C020E9462110E94981835
:104B300063E086E00E94C21680913D028A3010F444
:104B40000E949C186AE070E080913D020E94621110
:104B50008AE30E94851780913B028A3010F40E94FC
:104B60009C186AE070E080913B020E9462110E94F2
:104B70009818F1E0FF1548F040E262E080E00E9402
:104B8000BA1861E080E00E94C2168EEF8F0D84306B
:104B900060F440E261E080E00E94BA1840E263E025
:104BA00080E00E94BA1862E009C025E02F1548F4A1
:104BB00040E262E080E00E94BA1863E080E00E9478
:104BC000C2168EE70E9485172F2C312C3AE023164F
:104BD000310400F5F101E75BFF4F0C942E2D61E0ED
:104BE00083E016C061E080E113C062E007C062E0CC
:104BF00008C062E009C062E00AC063E086E008C065
:104C000063E087E005C063E089E002C063E08AE01A
:104C10000E94C21661E080E00E94D20580914702A6
:104C2000823009F4BFC0833009F4C2C0813009F07A
:104C30003FCF4AE02416310408F08FC0F101ED5A4D
:104C4000FF4F0C942E2D90913F0281E08927809395
:104C50003F0283C090911E0281E0892780931E024B
:104C60007CC080913E028E3020F4865F80933E02AD
:104C700074C06AE00E940E2D90933E026EC0209197
:104C80003E02822F6AE00E940E2D993011F42950C5
:104C900001C02F5F20933E0280913E02883109F0CF
:104CA0005CC0E0923E0259C080913C02813320F406
:104CB000865F80933C0251C06AE00E940E2D909363
:104CC0003C024BC020913C02822F6AE00E940E2DD4
:104CD000993011F4295001C02F5F20933C023DC050
:104CE00080913D028E3020F4865F80933D0235C076
:104CF0006AE00E940E2D90933D022FC020913D024C
:104D0000822F6AE00E940E2D993011F4295001C0C3
:104D10002F5F20933D0280913D028831F1F4E092B3
:104D20003D021BC080913B02813320F4865F80935B
:104D30003B0213C06AE00E940E2D90933B020DC00F
:104D400020913B02822F6AE00E940E2D993011F4CF
:104D5000295001C02F5F20933B0260913F028BE0FE
:104D600090E00E94CB0D60913E028CE090E00E94AA
:104D7000CB0D60913C028DE090E00E94CB0D6091E4
:104D80003D028EE090E00E94CB0D60913B028FE0EF
:104D900090E00E94CB0D60911E028CE190E00E9499
:104DA000CB0D86CE68E06F1508F482CEF39480CEEA
:104DB000FF2009F47DCEFA947BCE62E071E080E0C2
:104DC0000E94281797CD8DE08C1518F09AE0C90E37
:104DD00005C08C2D6AE00E940E2DC92E11E08ACDEF
:104DE0008C2D6AE00E940E2D993019F4E7EFCE0E5B
:104DF00001C0C394F8E111E0CF127CCD54E1C52E7F
:104E000079CD20E3291518F03AE0930EE7CF892DEC
:104E10006AE00E940E2D992EE1CF892D6AE00E9452
:104E20000E2D993019F447EF940ED8CF9394D6CF26
:104E300065E16D1518F08AE0D80ED0CF8D2D6AE0AF
:104E40000E940E2DD92E0DC08D2D6AE00E940E2DD0
:104E5000993019F497EFD90E01C0D394EFE1ED1515
:104E600030F0D110BBCF11E0DD24D39443CD4EE11F
:104E7000D42EB4CFF2E0FB1518F02AE0B20EAECF7C
:104E80008B2D6AE00E940E2DB92E9111A7CF11E053
:104E9000BB24B3942FCD3BE03B1598F1B3949ECF48
:104EA00080913802909139028935910514F40A965F
:104EB00004C06AE070E00E941A2D9093390280933A
:104EC00038028CCF2091380230913902C9016AE052
:104ED00070E00E941A2D099719F42950310902C077
:104EE0002F5F3F4F309339022093380277CF0A303B
:104EF00008F000CD0F5FFECC002309F4FBCC01507D
:104F0000F9CC11E03AE0B32EF5CCE0903802F09005
:104F1000390240E3E41A48EFF40AF0923902E092D1
:104F20003802112341F10B2D10E02D2D30E0692DB9
:104F300070E040E050E08C2D90E00E94150BC09294
:104F400025039092240310922303D0922703B0925A
:104F5000280380913802825B809329030E943815D0
:104F60000E94C8050E945A0380932802682F80E19E
:104F700090E00E94CB0D62E071E080E00E94281773
:104F8000D9C982E390E00E94D31780914702823012
:104F900009F49BC2833009F4A1C2813009F44BC0EB
:104FA00080914702843009F4A5C20E941E17111196
:104FB00007C080912B026CE1869FC001112402C0C2
:104FC00080E090E00E949F13133011F40E941517A7
:104FD0004EE7612F80E00E94BA1860E08FE00E94E7
:104FE000C2166AE070E080912B020E94621161E0BB
:104FF0008FE00E94C2166AE070E080912A020E944F
:10500000621162E08FE00E94C2166AE070E0809157
:1050100033020E946211612F8FE00E94C21680E06D
:105020000E94C918809347028111ABCF84E690E0BB
:105030000E94D317F4CF113009F444C060F112304C
:1050400009F451C0133009F0ABCF81E993E00E941D
:105050006F1C60E082E00E94C2168FE692E00E9420
:10506000641761E082E00E94C2168CE592E00E9423
:10507000641762E082E00E94C21689E492E00E9416
:10508000641763E082E00E94C2168FE392E00E9400
:10509000641700E06DC080912B02893020F48F5F8F
:1050A00080932B0202C010922B0260912B02ECE144
:1050B0006E9FC00111246E830E949F136E8182E057
:1050C00090E00EC080912A02893020F48F5F809397
:1050D0002A0202C010922A0260912A0289E090E01E
:1050E0000E94CB0D5DCF80913302893020F48F5F19
:1050F0008093330202C0109233026091330288E041
:1051000090E0EECF80912902811137C040E260E04B
:1051100082E10E94BA1880912F02811130C040E2D2
:1051200061E082E10E94BA1880911F02811129C0BA
:1051300040E262E082E10E94BA184EE7602F80E010
:105140000E94BA18602F82E10E94C2160330D8F480
:105150000E941E1761E080E00E94D2058091470204
:10516000823009F49EC1833009F4A5C1813071F009
:1051700080914702843031F613CF48E5C8CF48E527
:10518000CFCF48E5D6CF0E941517E4CF013011F1FB
:10519000C8F00230D1F1033059F78AE691E00E945D
:1051A0009F188CE292E00E9464174FEE60E081E16C
:1051B0000E94BA1861E080E00E94C21624E1E22E4B
:1051C000F12C30C0609129026827609329028AE09F
:1051D00090E022C00E94151780912F0281110AC011
:1051E0004EE261E082E10E94BA180E94050E5F98CB
:1051F0001092400260912F0281E0682760932F0295
:1052000081E090E00E94CB0DB3CF60911F02682730
:1052100060931F028AE190E00E94CB0D82E30E941E
:105220006304A6CF8CEE8E0D843111F462E003C0CE
:10523000883221F463E080E00E94C216C7010E9418
:1052400076110E948517FFEFEF1AFF0A20E5E2169C
:10525000F10441F760E080E00E94D20562E071E075
:1052600080E00E94281781E993E00E946F1C6BE0A8
:1052700080E00E945C1060E083E00E945C106CE0C3
:1052800086E00E945C1060E088E00E945C1061E0B3
:105290008DE00E945C1044E061E080E10E94BA1859
:1052A00060E081E10E945C1063E080E00E94C21631
:1052B0008BE192E00E94641780914702843009F4E8
:1052C00057CF80E00E94C9188093470280E00E9477
:1052D000C918823089F780914702843069F380E0F1
:1052E0000E94C9188093470280E00E94C918833049
:1052F00091F781E993E00E946F1C60E080E00E94DA
:10530000C21680E192E00E94641781E090E00E9462
:105310002E108EE20E94851780E090E00E942E10F1
:1053200088E092E00E94641761E080E00E94C2166B
:1053300082E092E00E94641798E0F92E8F2D0E947F
:105340002E150E94D114811108C088E70E9485178C
:1053500060E170E08F2D0E946211F39438E7F31240
:10536000EDCF62E080E00E94C2168BEF91E00E94D8
:1053700064178091BF039091C003009711F485ECEE
:1053800093E0F301E81BF90BCF010E942E1086EF8A
:1053900091E00E94641788E60E942E1561E18EEA72
:1053A00093E00E94E3080E94D11462E070E088E676
:1053B00090E00E94AE158EEA93E00E949708F82EC6
:1053C0008EEA93E00E9497084C016F2D70E080E018
:1053D00090E00E948F2F6B017C01B40186E07595EF
:1053E00067958A95E1F7072E000C880B990B0E94B0
:1053F000912F20E030E040E85EE30E94F02F9B0117
:10540000AC01C701B6010E94492D40E050E00E9466
:10541000A5118FED0E94851763E080E00E94C216FF
:1054200080EF91E00E94641763E08BE00E94C21657
:105430008CEE91E00E94641780912802882311F07D
:1054400083E501C087E50E9485178091470284307B
:1054500009F441CF81E00E94C9188093470263E0BC
:1054600086E00E94C21686E00E94F913BC01990FE3
:10547000880B990B0E94912F20E030E040EA50E425
:105480000E94F02F20E030E040E85AE30E94F02F25
:1054900042E050E00E94A51184E690E00E94811A4B
:1054A000D4CF40E2602F80E00E94BA18033008F0A9
:1054B0005FCE0F5F5DCE40E2602F80E00E94BA18A1
:1054C000002309F455CE015053CE40E2612F80E015
:1054D0000E94BA18133048F41F5F07C040E2612FE2
:1054E00080E00E94BA1811111150612F80E00E94D3
:1054F000C21656CD8091320281110C949A2180E01F
:1055000090E00E949F130C949A2140E26A2D80E063
:105510000E94BA18F2E0FA1510F40C949A21A394A0
:105520000C949A2140E26A2D80E00E94BA182B81E7
:105530002A1510F00C949A21AA940C949A21911196
:105540004AC080913202811146C080913302882383
:1055500009F441C09091340281E08927809334029C
:105560000E948F0438C0992349F00E9407171092B7
:105570002C02109232020E94C8052DC0809129028F
:10558000882339F080912D02811103C00E94721886
:1055900022C09091320281E08927809332020E94DA
:1055A0008F0480913202811109C080E090E00E9456
:1055B0009F1381E993E00E94671C0AC080912B022F
:1055C0003CE1839FC00111240E949F130E94B716E3
:1055D00082E30E94630480912C02811102C088E75B
:1055E00001C080EF0E9463040C943F1F87E00E947B
:1055F000F9138132934074F080912C02882351F08A
:105600000E94071710922C02109232020E94C805C5
:105610000C94711F0E948F040C94711F81E0809381
:105620001A0280914802811103C08EE00E949C16EC
:105630008091400281115F9A0E94C8050C94EC1F72
:1056400081E993E00E946F1C61E087E00E94C2162E
:105650008BEE90E00E94641762E086E00E94C21622
:1056600082EE90E00E94641765E081E00E94F817E6
:10567000182F112391F064E180E00E94F81740E0B8
:1056800060E00E94BA1864E180E00E94F81740E0F0
:1056900063E00E94BA181150ECCF84EF91E00E94B1
:1056A000811A0C94D71F8F5F0C94FB1F6CE084E071
:1056B0000E94F817182F80912C0281111AE00E9485
:1056C00015171830A8F580913202882361F0809177
:1056D0003F02882321F080913502811104C081E9C5
:1056E00093E00E94671C153058F581E993E00E9411
:1056F0006F1C26C061E58DE30E94F8170E94D40D4F
:1057000081E080931B020C942A210E94B7160C940E
:1057100047210E94050E0C94712261E080E00E94F6
:10572000BA1840E263E080E00E94BA1862E048C91B
:105730006FE681E50E94F8170E94D40D0C94AA2010
:10574000153011F00C9466200E946E0D7C016AE603
:1057500071E080E00E942817FF2401E00E946E0D96
:10576000E816F90621F480914702843089F41092FA
:1057700044020C94A32080913F02882329F0809159
:10578000350281110C94AA200E94B7160C94AA200D
:105790000093440281E993E00E946F1C64E181E080
:1057A0000E94F817182F112379F064E080E00E941E
:1057B000F817D82E64E180E00E94F81740E06D2DC4
:1057C0000E94BA181150EFCF84EF91E00E94811A25
:1057D000C5CF6FE681E50E94F8170E94D40D0C94A6
:1057E000A3201630A1F418E268E181E993E00E9459
:1057F0005F1C88EC90E00E94811A809147028430FF
:1058000009F411E01150123078F70C94A3201730EE
:1058100001F76AE671E080E00E94281700E010E0DE
:1058200040E0602F812F0E94BA1886E990E00E9424
:10583000811A80914702843011F414E104E040E2BF
:10584000602F812F0E94BA181F5F143148F30F5F39
:10585000043028F380ED97E00E94811A0C94A32075
:1058600086ED91E0909373038093720382E793E057
:105870000C94B309CF92DF92EF92FF92CF931092E4
:10588000B1031092B00398EEC92E93E0D92EE12C0B
:10589000F12CC092B203D092B303E092B403F09221
:1058A000B50386EC91E09093AF038093AE03109222
:1058B00094031092930386EF91E090939203809368
:1058C00091031092A1038FEF8093A00310929F0386
:1058D0001092A20387E280939C0310929D03109282
:1058E0009E0310929B0310929A0384E08093A3037B
:1058F00082E08093A403C1E0C093A50380E180937C
:10590000A60380E28093A70380E48093A80380E845
:105910008093A90340E050E063E081E993E00E94B6
:10592000791B1092750310927403C0927603D09283
:105930007703E0927803F092790386ED91E09093FB
:10594000730380937203109289031092880310925C
:105950008B0310928A0310928D0310928C03109285
:105960008F0310928E03809190038E7F8D7F8093A2
:10597000900386958170682F6C2783E00E9417132F
:1059800061E083E00E946313ECEEF3E0E491E093C6
:105990008203E8EDF3E0E491F0E0EE0FFF1FEF5338
:1059A000FC4F85919491909384038093830360E0EE
:1059B00082E00E9463138091900381FD04C061E046
:1059C00082E00E94171382E080937E03EBEEF3E007
:1059D000E491E0937F03E7EDF3E0E491F0E0EE0F74
:1059E000FF1FE553FC4F8591949190938103809321
:1059F000800386EE91E0909373038093720310927C
:105A0000AD031092AC031092AB031092AA03CF9196
:105A1000FF90EF90DF90CF900C94F70A991B79E0FC
:105A200004C0991F961708F0961B881F7A95C9F72E
:105A30008095089597FB072E16F4009407D077FD04
:105A400009D00E94342D07FC05D03EF49095819535
:105A50009F4F0895709561957F4F0895EE0FFF1F3A
:105A60000590F491E02D0994AA1BBB1B51E107C0DE
:105A7000AA1FBB1FA617B70710F0A61BB70B881FDE
:105A8000991F5A95A9F780959095BC01CD0108956D
:105A90005058BB27AA270E94602D0C9474300E9496
:105AA000663038F00E946D3020F039F49F3F19F4D1
:105AB00026F40C9463300EF4E095E7FB0C945D3013
:105AC000E92F0E94853058F3BA17620773078407DD
:105AD000950720F079F4A6F50C94A7300EF4E09524
