:100000000C945C020C9484020C9484020C94DD1C0D
:100010000C94DD1C0C94DD1C0C94B42F0C94840205
:100020000C9484020C9484020C9484020C94CF20CF
:100030000C9484020C9484020C9484020C94840228
:100040000C94B51B0C9484020C9484020C948402CE
:100050000C9484020C9484020C9484020C94840208
:100060000C946D1D0C948402DB0ADE0AE00AE20A9D
:10007000E40AE70AE90AEB0AED0AEF0AF10A130BB0
:10008000200B310B3D0B480B540B6A0B7B0B800B89
:10009000920B810FC40FFB0F39107010A710BB100B
:1000A000A712AE12B912CC12CF12DA12E312E81272
:1000B0000A130F1331133A13101717172917411783
:1000C0004B1755176717711778179017A317B317A2
:1000D000CB1719261C261F262226252628262B2646
:1000E0008C2D8E2D912D932D952D972D9A2D9C2D08
:1000F0009E2DA02DBD2DC42DCB2DD92DEE2DFC2D4B
:100100000A2E182E2C2E3A2E426972746864617978
:10011000004861707079005775737374657374204B
:1001200044752C20646173732E2E2E004963682061
:1001300062696E206869657221005B205D204D5008
:1001400033005B205D20526164696F005B205D209D
:100150005765636B746F6E0020205B6175735D0083
:1001600020205B616E205D004D5033005261646958
:100170006F00546F6E005765636B746F6E202020A4
:10018000205B20202020205D004E6575652057658E
:10019000636B7A6569740061757300616E20002E6F
:1001A0003230004E616368746D6F647573205B203C
:1001B00020205D004E657565205568727A6569740A
:1001C0002F446174756D005A3A2000416B6B753A8B
:1001D0000020543A200052414D3A20200049324339
:1001E0003A20002D313230353136004669726D7754
:1001F0006172653A20006279204E696B6F6C6169AB
:10020000205261646B6500446965736572204E4FCE
:100210004B4F20676568207274004D65696E204EF3
:100220004F4B4F0044697374616E7A6C69636874F4
:100230002020205B205D005374756D6D20202020F0
:100240002020202020205B205D00416B6B752073F7
:10025000706172656E202020205B205D00776569EB
:100260007465722E2E2E0044697374616E7A202B91
:100270002F2D205B205D004576656E747320202B4A
:100280002F2D205B205D004C454420202020202B7A
:100290002F2D205B205D004E4F4B4F207374656CFB
:1002A0006C656E007A656974207374656C6C656E3C
:1002B00000416C61726D207374656C6C656E0053E7
:1002C0007069656C2077617320766F72004E617380
:1002D0006520647220636B656E0020617566205630
:1002E0000020557064617465206572666F6C67727A
:1002F00065696368006765647220636B7420686178
:100300006C74656E202000524453204265656E6413
:10031000656E3A204C696E6B73005B317C735D20B7
:100320005B327C735D205B337C735D20005D5B3CE6
:100330005D5B205D5B205D5B3E5D5B005041555326
:1003400045004B65696E65204D50337320676566C7
:10035000756E64656E00476573636869636874658C
:10036000005B3C5D5B205D5B205D5B3E5D00476547
:1003700073636869636874656E2068004155582D21
:1003800045696E67616E6700456967656E657320D4
:100390006800526164696F2068000000000024005A
:1003A00027002A00000000080002010000030407E3
:1003B0000000000000000000205568720072656EA9
:1003C0000073706569636865726E2E2E2E00476536
:1003D0006275727473746167210053616D73746127
:1003E00067004672656974616700446F6E6E2E74B3
:1003F0006167004D697474776F6368004469656E66
:1004000073746167004D6F6E74616700536F6E6E39
:100410007461670053746174696F6E20000000009E
:1004200000250028002B00000000002300260029E2
:10043000000404040404040404020202020202038D
:100440000303030303010204081020408001020497
:10045000081020010204081020205765636B746F98
:100460006E202B2F2D205B205D0061757300616E67
:10047000200062697300766F6E005B2020205D2093
:1004800044696D6D656E205B205D004E616368742C
:100490006D6F647573207374656C6C656E002041BC
:1004A0006C61726D20004E61736520647220636B15
:1004B000656E0000A8282A2111241FBECFEFD8E0C6
:1004C000DEBFCDBF12E0A0E0B1E0E8EFFCE602C085
:1004D00005900D92A831B107D9F723E0A8E1B2E069
:1004E00001C01D92AC3EB207E1F712E0CBE5D2E0CD
:1004F00004C02197FE010E94BA32CA35D107C9F75C
:100500000E94CB020C946F360C940000CF92DF92C5
:10051000EF92FF920F931F93E82FF92F05C0015020
:1005200011092109310961F1908196239417B9F3DA
:1005300005C0015011092109310911F1908196235B
:100540009413F7CFC12CD12CE12CF12C0AC08FEFE2
:10055000C81AD80AE80AF80A0C151D052E053F0529
:1005600079F080818623841791F36C2D7D2D8E2D5B
:100570009F2D1F910F91FF90EF90DF90CF900895E6
:1005800060E070E080E090E01F910F91FF90EF90AD
:10059000DF90CF900895A9E0B0E0E1EDF2E00C9497
:1005A0002936789484B5826084BD84B5816084BD29
:1005B00085B5826085BD85B5816085BD80916E0001
:1005C000816080936E001092810080918100826032
:1005D000809381008091810081608093810080916F
:1005E00080008160809380008091B100846080935E
:1005F000B1008091B00081608093B00080917A005A
:10060000846080937A0080917A00826080937A007F
:1006100080917A00816080937A0080917A0080686E
:1006200080937A001092C1001CBC80E880BF8FE3E9
:1006300080937E0080916400846080936400809148
:100640006400826080936400809164008064809381
:10065000640088EC8AB98CE284B98EE387B980E4BF
:100660008BB981E088B910928D0310928C0310929F
:100670008B0310928A0310928903109288038DE9EC
:1006800091E090938F0380938E0390917E03963137
:1006900008F057C02DEB30E0309389032093880396
:1006A0002BE931E030938B0320938A032CE231E075
:1006B00030938D0320938C0320916800983050F084
:1006C00031E09E3008F430E081E001C0880F3A95B7
:1006D000EAF701C084E0822B80936800983038F0FC
:1006E0009E3040F0963148F020E030E008C02DE622
:1006F00030E005C02BE630E002C02CE630E030935D
:10070000860320938503983030F481E001C0880F80
:100710009A95EAF70EC0292F30E09E3018F4285041
:10072000310902C02E50310981E001C0880F2A959D
:10073000EAF78093870380918E0390918F0301974E
:10074000F1F780918C0390918D03892B21F1809199
:1007500070029091710223E082379207E1F00097D6
:1007600011F00E94571D809190038E7F809390031B
:1007700010926E0210926F0282E793E090937102E2
:1007800080937002E0918503F091860390818091BF
:100790008703892B80830E946E2B8CE00E94612B43
:1007A00084EF91E00E94262586E06EE140E020E0A3
:1007B00030E000E010E00E94CD2A84E00E94722B1D
:1007C0000E94681A0E9419188091B7039091B8038B
:1007D000807F8A609093B8038093B7030E94F717D5
:1007E0000E94551881E090E00E94272191E081113C
:1007F00001C090E09093F20282E090E00E942721F5
:100800008093240283E090E00E94272191E08111EF
:1008100001C090E09093F30284E090E00E942721D1
:100820008093E40385E090E00E9427218093E30316
:1008300086E090E00E9427218093E20387E090E029
:100840000E9427218093DB0388E090E00E9427210B
:100850008093F60289E090E00E9427218093230292
:100860008AE090E00E94272191E0811101C090E090
:10087000909322028BE090E00E94272191E0811169
:1008800001C090E09093E1038CE090E00E9427216A
:100890008093DF038DE090E00E9427218093DE03A8
:1008A0008EE090E00E9427218093DD038FE090E0AE
:1008B0000E9427218093DC0380E190E00E942721A1
:1008C00091E0811101C090E09093210281E190E0DC
:1008D0000E942721182F82E190E00E942721282FD3
:1008E00030E0C9014AE0149F800D911D11249093BE
:1008F0007F0280937E0283E190E00E942721809313
:10090000DA0315E2E12E12E0F12E05E110E0C80154
:100910000E942721D82EC80101960E942721282F46
:1009200030E0C9016AE0D69E800D911D1124D701E7
:100930008D939D937D010E5F1F4F0B31110539F78C
:100940008BE190E00E94272191E0811101C090E0AD
:10095000909320028CE190E00E94272191E0811188
:1009600001C090E09093E00387E560E070E00E94B2
:10097000352180931F0287E561E070E00E943521F8
:1009800080931E0210922B0288E60E94012A8DECB1
:1009900093E06BE971E00E94D52F0E94A42984E1C5
:1009A0000E948F2488E60E94012A8DEC93E06EE974
:1009B00071E00E94D52F0E94A4290E94FE2381E9A4
:1009C00093E064E144E020E00E9499300E94B72562
:1009D00084E190E00E942721182F8A3008F045C05A
:1009E00081E993E00E94FD2F81EE92E00E941F2C8E
:1009F00083E061E046E50E94202780E090E00E94CD
:100A0000C8168EE20E94652C812F6AE00E94863211
:100A1000892F90E00E94C8168AED92E00E941F2C58
:100A200081E090E00E94C8168EE20E94652C80E072
:100A300090E00E94C81684E064E00E948C2B8DEC4C
:100A400092E00E941F2C8BE064E045EF0E9420277B
:100A500084E190E06AE00E94242181E060E00E944D
:100A6000BB2481E993E00E94FD2F0E94622188E56A
:100A700092E060E570E040E020E530E00E94622610
:100A800080E793E066E970E040E026E930E00E940C
:100A900062265E9A0E9477230E94F8228093FD02CC
:100AA00087E40E94452B90912B02891B8F568093DF
:100AB0002D02B3E6B887E3E6EF83BAE32B2E312CA1
:100AC000412C512C9E012F5F3F4F39010E9477230B
:100AD00087E00E94AF1A8132934024F08091F102A6
:100AE000882351F087E00E94AF1A8032934004F5CA
:100AF0008091F1028823E1F09091F10281E0892751
:100B00008093F10287E00E94AF1A8032934014F084
:100B10000C94180F8091F502882311F40C94180F8F
:100B200080912202882311F40C94180F0E94AB25A7
:100B300080911F036F81681709F4ACC18091F8029E
:100B40008823E1F08091E0038823C1F08091F002D6
:100B5000811114C080912202882339F08091F10222
:100B6000811103C00E94AB2509C08091F50281115B
:100B700005C00E94802B81E08093F50210921D0237
:100B8000809120039885981709F4B9C08091F002EC
:100B900081117EC00E94E72590911E02809123035F
:100BA000981372C090911F028091220398136CC019
:100BB00081E08093F40280911C02811169C08091D0
:100BC000F802811165C06BE771E00E94EE2B809105
:100BD000800281110E9455188091810281115F98D5
:100BE0008091F202811107C080918202811103C0BD
:100BF0008FE60E94682180ED97E00E9426250E94E2
:100C0000C7206C01DD240E94C720C816D90621F038
:100C10004C9902C00C94300F80917D02843011F405
:100C20000C94300F81E993E00E94FD2F87E061E092
:100C30000E948C2B81E191E00E941F2C86E062E0F3
:100C40000E948C2B88E091E00E941F2C81E065E0DF
:100C50000E942925182F112391F080E064E10E9461
:100C6000292560E040E00E94202780E064E10E94A6
:100C7000292563E040E00E9420271150ECCF84EF4B
:100C800091E00E94F524BFCF10921C021092F40252
:100C9000109121020E948823181789F18091200366
:100CA000843068F1112311F40C94460F8150809325
:100CB000200381E0D12ED826D092210280912003FA
:100CC00060911F0370E040911E0350E020912203C9
:100CD00030E00091230310E0E090FB02F090FC0272
:100CE00090E00E949B1E8091FB02825B8093240314
:100CF0000E940B2A80E190E06D2D0E9424218091BA
:100D0000F002811102C00E9431278091F802811106
:100D1000C1C08091F2028111BDC08091F902909111
:100D2000FA020A977CF48091F10281110BC00E94B3
:100D3000622188E993E060E570E040E020E530E082
:100D40000E9462264C99A6C080912C028111A2C0FB
:100D50008091800281119EC08091F9029091FA02E7
:100D600002970CF497C0E0912302F0E0ED55FE4F9E
:100D7000108161E0610F81E00E94292581138AC002
:100D800080E06CE00E942925182F8091F0028111EB
:100D90001AE00E94D92B183010F00C94710F80913A
:100DA000F50281110C94490F153020F481E993E08C
:100DB0000E94FD2F812F90E0FC013197E730F10573
:100DC00010F40C947D0F80E06AE10E942925A0E5D3
:100DD0008A9FC00111248C01005B194BD12C80E546
:100DE000B8010E943521482F8D2D60E00E942027F8
:100DF000B8016C5E7F4F80E50E943521482F8D2D14
:100E000061E00E942027B801685D7F4F80E50E9465
:100E10003521482F8D2D62E00E942027B801645CA7
:100E20007F4F80E50E943521482F8D2D63E00E9481
:100E30002027D3940F5F1F4FB4E1DB12D0CF0E9465
:100E4000622180E793E060E570E040E026E930E071
:100E50000E94622680E793E060E971E040E020E9CB
:100E600031E00E9462265E9A81E061E00E94BB242C
:100E70000E946D288091F502882361F08091E10342
:100E8000882311F40C94790F8091F802882311F4CF
:100E90000C94790F8091F002811178C08091F70253
:100EA000811174C08091F602882309F46FC02D98D7
:100EB0008FE090E00197F1F72D9A83E290E001979F
:100EC000F1F72D98E1E5F4E04491EDE3F4E0E491ED
:100ED000F0E0EE0FFF1FE95DFB4F85919491642FC9
:100EE00000E412E42FE030E00E94860261157105F3
:100EF0008105910549F0DC01CB010196A11DB11DD1
:100F0000BC01CD019F7003C060E070E0CB01109187
:100F1000F602A20191010E94D535B9E11B9FC001E3
:100F20001124092E000CAA0BBB0B281739074A07FE
:100F30005B0760F58091F502882391F08091200293
:100F4000882371F081E993E00E94F42F0E94C61A71
:100F5000609318027093190280931A0290931B02F7
:100F60008091F802811112C080911D0281110EC082
:100F70008091800281110AC080912C02811106C0EB
:100F80008091F202811102C04C9B92C78091F502C0
:100F90008823C1F0809120028823A1F00E94C61A04
:100FA000009118021091190220911A0230911B022F
:100FB0000A561F4F2F4F3F4F0617170728073907AD
:100FC00008F480C7E0911F03EF83F0912003F887B6
:100FD00080E00E94CB3080937D029091F0028230BD
:100FE00009F4CFC6833009F4E0C6813009F015C793
:100FF000911113C780E50E948F240E94D92B81E9AB
:1010000093E00E94FD2F8091F202882331F088E75F
:101010000E94652C8824839401C0812C82E060E0CA
:101020000E948C2B8FEB92E00E941F2C82E061E0EB
:101030000E948C2B81EB92E00E941F2C81E062E0E9
:101040000E948C2B0E94DE2584EA92E00E941F2CD5
:1010500082E063E00E948C2B87E992E00E941F2CC3
:10106000A82C80917D02843009F4A7C680E06A2D07
:101070004EE70E94202780E061E00E94BB2480911F
:101080007D02823009F468C6833009F470C681306D
:1010900041F721E0A21691F1A21668F132E0A31601
:1010A00009F4DAC143E0A412DCCF81E993E00E94A5
:1010B000FD2F82E060E00E948C2B87E892E00E9486
:1010C0001F2C82E061E00E948C2B87E792E00E9457
:1010D0001F2C82E062E00E948C2B87E692E00E9447
:1010E0001F2C82E063E00E948C2B8DE592E00E9431
:1010F0001F2C10E085C30E94E610B3CFA092D90345
:1011000083E991E00E9404278091E3038A3010F480
:101110000E94E3258091E3036AE070E00E94E017FB
:101120008AE30E94652C8091E4038A3010F40E94C7
:10113000E3258091E4036AE070E00E94E0170E94DA
:10114000DE2580E061E00E948C2B89E891E00E941E
:101150001F2C82E063E00E948C2B86E791E00E94C6
:101160001F2C8EE063E00E948C2B8091E203813083
:1011700049F028F0823051F488E691E005C082E71A
:1011800091E002C08CE691E00E941F2C0E94E32BAC
:1011900000E010E0EAE0DE2EF4E1CF2E80917D0247
:1011A000843009F43DC1153010F062E001C063E005
:1011B00080E040E20E942027153010F063E001C07B
:1011C00062E080E04EE70E94202782E062E00E9419
:1011D0008C2B8091E3038A3010F40E94E3258091E8
:1011E000E3036AE070E00E94E0178AE30E94652C46
:1011F0008091E4038A3010F40E94E3258091E40397
:101200006AE070E00E94E0170E94DE258091F30200
:10121000882319F080E691E002C088E591E00E9401
:101220001F2C123089F030F4112361F01130A1F439
:1012300083E00FC0143061F048F0153069F48EE09F
:1012400063E008C082E005C085E003C086E001C01D
:101250008EE062E00E948C2B80E061E00E94BB2463
:1012600080917D02823009F4CFC0833009F4D1C06F
:10127000813009F093CF123009F455C028F41123BE
:1012800079F11130D9F1CAC0143009F468C008F4FA
:1012900058C0153009F0C2C00E94D92BF090F3025B
:1012A0001092F30281E993E00E94FD2F82E060E05A
:1012B0000E948C2B8CE491E00E941F2C82E061E064
:1012C0000E948C2B82E491E00E941F2C82E062E05D
:1012D0000E948C2B8AE391E00E941F2C00E060C0EA
:1012E0008091E3038E3020F4865F8093E30396C001
:1012F0006D2D0E9486329093E30390C02091E3030A
:10130000822F6D2D0E948632993011F4295001C030
:101310002F5F2093E3038091E303883109F07EC0BF
:10132000C092E3037BC08091E403813320F4865FA5
:101330008093E40373C06D2D0E9486329093E40382
:101340006DC02091E403822F6D2D0E94863299306A
:1013500011F4295001C02F5F2093E4035FC09091E6
:10136000F30289278093F30259C083E06091E2037E
:1013700048E50E94202780E0602F4EE70E9420274A
:1013800083E0602F0E948C2B80E061E00E94BB24F0
:1013900080917D028230F1F0833029F1813029F093
:1013A00080917D02843009F727C00093E20386E034
:1013B00090E0602F0E9424218091E203811103C0FC
:1013C00081E00E94822E8091E203823049F70E94E0
:1013D000822EE6CF80E0602F40E20E94202702307C
:1013E000F8F60F5FDDCF80E0602F40E20E942027FB
:1013F0000023B1F20150D4CFF092F30280E06BE011
:1014000071E00E94EE2B0AC0153008F0C7CE1F5FB6
:10141000C5CE112309F4C2CE1150C0CE01E0BECE1C
:10142000002391F083E090E06091F3020E94242178
:1014300084E090E06091E4030E94242185E090E044
:101440006091E3030E94242180E06BE071E00E9440
:10145000EE2B1092D90305CEC090200390901F036D
:10146000D0902203B09023038BE891E00E940427E0
:1014700084EB91E00E941F2C82E061E00E948C2BA3
:1014800083EA91E00E941F2C0E94E32B8091FB02D3
:101490009091FC02805D97409093FC028093FB0248
:1014A00010E000E080917D02843009F45EC182E0AA
:1014B00062E00E948C2B69E06C1510F00E94E3251D
:1014C0008C2D6AE070E00E94E0178AE30E94652C90
:1014D00089E0891510F00E94E325892D6AE070E00B
:1014E0000E94E0170E94DE2582E063E00E948C2BC0
:1014F00099E09D1510F00E94E3258D2D6AE070E0C3
:101500000E94E0178EE20E94652CA9E0AB1510F056
:101510000E94E3258B2D6AE070E00E94E0178FE9BE
:1015200091E00E941F2C8091FB029091FC020A978F
:1015300014F40E94E3258091FB029091FC020E942A
:10154000C8168EE061E00E948C2B8091E103882315
:1015500019F08BE991E002C087E991E00E941F2C0D
:1015600080E00111B2C462E040E20E94202780E0E6
:1015700061E00E948C2B8BEF800F863048F480E076
:1015800062E040E20E94202780E063E00E948C2B12
:101590008EE70E94652C802F90E0A0E0B0E08B8366
:1015A0009C83AD83BE830B9700F5EB81FC81EC5CE3
:1015B000FF4F0C94BA328EE061E015C082E005C0A6
:1015C00083E003C085E001C086E062E00CC082E0F9
:1015D00009C083E007C085E005C086E003C08AE05B
:1015E00001C08BE063E00E948C2B80E061E00E94F0
:1015F000BB2480917D02823009F4A9C0833009F4B4
:10160000ABC0813009F04ECF002351F0EB81FC815B
:101610003197EA30F10590F4E15CFF4F0C94BA3257
:101620000E94CE2C3FCF9DE09C1518F0AAE0CA0E78
:1016300005C08C2D6AE00E948632C92E11E032CF9F
:101640008C2D6AE00E948632993019F4B7EFCB0EE8
:1016500001C0C394E8E111E0CE1224CF74E1C72E9B
:1016600021CFF0E3F91518F02AE0920EE7CF892D8B
:101670006AE00E948632992EE1CF892D6AE00E94AD
:101680008632993019F437EF930ED8CF9394D6CF92
:1016900045E14D1518F06AE0D60ED0CF8D2D6AE0E9
:1016A0000E948632D92E0DC08D2D6AE00E948632AE
:1016B000993019F487EFD80E01C0D3949FE19D159E
:1016C00030F0D110BBCF11E0DD24D394EBCE6EE12E
:1016D000D62EB4CFA2E0AB1518F0BAE0BB0EAECF59
:1016E0008B2D6AE00E948632B92E9111A7CF11E0AE
:1016F000BB24B394D7CEEBE0EB1598F1B3949ECF17
:101700008091FB029091FC028935910514F40A96B0
:1017100004C06AE070E00E94A6329093FC028093BD
:10172000FB028CCF2091FB023091FC02C9016AE0E0
:1017300070E00E94A632099719F42950310902C0BD
:101740002F5F3F4F3093FC022093FB0277CF0A308C
:1017500008F0A8CE0F5FA6CE002309F4A3CE015057
:10176000A1CE11E05AE0B52E9DCEE090FB02F090A4
:10177000FC02F0E3EF1AF8EFFF0AF092FC02E092AD
:10178000FB02112341F1692D70E02D2D30E00B2D6E
:1017900010E08C2D90E040E050E00E949B1EC09233
:1017A000200390921F0310921E03D0922203B09246
:1017B00023038091FB02825B809324030E940B2A07
:1017C0000E946D280E948823682F8093210280E167
:1017D00090E00E94242180E06BE071E00E94EE2BFB
:1017E00040CC82E390E00E94262580917D028230E9
:1017F00009F494C2833009F49AC2813009F44BC0D1
:1018000080917D02843009F49EC20E94E32B111165
:1018100007C0809124022CE1829FC001112402C0E4
:1018200080E090E00E940E1A133011F40E94D92B30
:1018300080E0612F4EE70E9420278FE060E00E9449
:101840008C2B809124026AE070E00E94E0178FE008
:1018500061E00E948C2B809123026AE070E00E947C
:10186000E0178FE062E00E948C2B8091F6026AE024
:1018700070E00E94E0178FE0612F0E948C2B80E0C7
:101880000E94CB3080937D028111ABCF84E690E043
:101890000E942625F4CF113009F444C060F11230C3
:1018A00009F451C0133009F0ABCF81E993E00E94F5
:1018B000FD2F82E060E00E948C2B8AE492E00E947F
:1018C0001F2C82E061E00E948C2B87E392E00E9453
:1018D0001F2C82E062E00E948C2B84E292E00E9446
:1018E0001F2C82E063E00E948C2B8AE192E00E9430
:1018F0001F2C00E06DC080912402893020F48F5F9E
:101900008093240202C010922402609124023CE1E0
:10191000639FC001112469870E940E1A82E090E043
:1019200069850EC080912302893020F48F5F8093F7
:10193000230202C01092230289E090E0609123020A
:101940000E9424215DCF8091F602893020F48F5FC0
:101950008093F60202C01092F60288E090E0609157
:10196000F602EECF80912202811137C040E282E17F
:1019700060E00E9420278091F202811130C040E295
:1019800082E161E00E94202780912002811129C01C
:1019900040E282E162E00E94202780E0602F4EE773
:1019A0000E94202782E1602F0E948C2B0330D8F404
:1019B0000E94E32B80E061E00E94BB2480917D02C5
:1019C000823009F497C1833009F49EC1813071F0EF
:1019D00080917D02843031F613CF48E5C8CF48E5C9
:1019E000CFCF48E5D6CF0E94D92BE4CF013011F1FB
:1019F000C8F00230D9F1033059F783E791E00E9433
:101A0000042787E092E00E941F2C81E160E04FEE06
:101A10000E94202780E061E00E948C2B44E1C42ECC
:101A2000D12C31C0609122026827609322028AE0A3
:101A300090E023C00E94D92B8091F20281110BC04B
:101A40000E94A82182E161E04EE20E9420270E94CC
:101A500095210E94A4216091F20281E068276093A1
:101A6000F20281E090E00E942421B2CF6091200236
:101A70006827609320028AE190E00E94242182E39B
:101A80000E948F24A5CF8CEE8C0D843119F480E058
:101A900062E004C0883221F480E063E00E948C2B75
:101AA00087E5B6010E9435210E94652C4FEFC41ACC
:101AB000D40A60E5C616D10431F780E060E00E94E8
:101AC000BB2480E06BE071E00E94EE2B81E993E0A3
:101AD0000E94FD2F80E06BE00E94F11683E060E041
:101AE0000E94F11686E06CE00E94F11688E060E04A
:101AF0000E94F1168DE061E00E94F11680E161E044
:101B000044E00E94202781E160E00E94F11680E01D
:101B100063E00E948C2B86EF91E00E941F2C809145
:101B20007D02843009F454CF80E00E94CB30809352
:101B30007D0280E00E94CB30823089F780917D0267
:101B4000843069F380E00E94CB3080937D0280E096
:101B50000E94CB30833091F781E993E00E94FD2F02
:101B600080E060E00E948C2B8BEE91E00E941F2CA5
:101B700081E090E00E94C8168EE20E94652C80E011
:101B800090E00E94C81683EE91E00E941F2C80E036
:101B900061E00E948C2B8DED91E00E941F2C38E0BB
:101BA000D32E8D2D0E94012A0E94A429811108C0E4
:101BB00088E70E94652C8D2D60E170E00E94E0179F
:101BC000D39488E7D812EDCF80E062E00E948C2B9E
:101BD00086ED91E00E941F2C8091E6039091E7032F
:101BE000009711F48CEE93E0D301A81BB90BCD0143
:101BF0000E94C81681ED91E00E941F2C88E60E9489
:101C0000012A8DEC93E061E10E94861C0E94A429C8
:101C100088E690E062E070E00E94822A8DEC93E01A
:101C20000E94411CB82E8DEC93E00E94411C26E0DE
:101C3000959587952A95E1F7BC01990F880B990B2B
:101C40000E94923420E030E040E85EE30E94F134EC
:101C50006B017C016B2D70E080E090E00E9490347D
:101C60009B01AC01C701B6010E94C13240E00E9455
:101C700061188FED0E94652C80E063E00E948C2B40
:101C80008BEC91E00E941F2C8BE063E00E948C2B78
:101C900087EC91E00E941F2C80912102882311F093
:101CA00083E501C087E50E94652C80917D02843028
:101CB00009F444CF81E00E94CB3080937D0286E01E
:101CC00063E00E948C2B86E00E94AF1ABC01990F42
:101CD000880B990B0E94923420E030E040EA5BE3ED
:101CE0000E94F13442E00E94611884E690E00E9474
:101CF000F524DBCF80E0602F40E20E9420270330F4
:101D000008F066CE0F5F64CE80E0602F40E20E9454
:101D10002027002309F45CCE01505ACE80E0612FC9
:101D200040E20E942027133048F41F5F07C080E084
:101D3000612F40E20E9420271111115080E0612F95
:101D40000E948C2B5DCD8091F50281118AC980E0C3
:101D500090E00E940E1A85C980E06A2D40E20E9440
:101D60002027B2E0BA1508F47CC9A3947AC980E0B0
:101D70006A2D40E20E9420278A1408F072C9AA94B2
:101D800070C991114AC08091F502811146C08091BD
:101D9000F602882309F441C09091F70281E0892777
:101DA0008093F7020E94312738C0992349F00E949E
:101DB000CA2B1092F0021092F5020E946D282DC0DD
:101DC00080912202882339F08091F102811103C0B1
:101DD0000E94AB2522C09091F50281E08927809373
:101DE000F5020E9431278091F502811109C080E03F
:101DF00090E00E940E1A81E993E00E94F42F0AC03D
:101E000080912402ECE18E9FC00111240E940E1AE1
:101E10000E94802B82E30E948F248091F002811126
:101E200002C088E701C080EF0E948F240C946605F1
:101E300087E00E94AF1A8132934074F08091F002E3
:101E4000882351F00E94CA2B1092F0021092F502E2
:101E50000E946D280C9498050E9431270C949805D7
:101E600081E080931C0280918202811102C00E9455
:101E70006E2B8091800281110E94AD2180918102A0
:101E800081115F9A0E946D280C9448068F5F0C9414
:101E900057068091E103882329F08091F80281118F
:101EA0000C94D40681E993E00E94F42F0C94D4069C
:101EB0008DE361E50E9429250E94682181E08093DD
:101EC0001D0264C80E94802B7DC861E040E20E9430
:101ED000202780E063E040E20E94202780E062E06B
:101EE00048CB81E56FE60E9429250E9468210C9469
:101EF0004A070E94802B0C944A07E75BFF4F0C9423
:101F0000BA3280E062E00E942925182F80E061E06B
:101F10000E948C2B80E065E60E942925EAE08E9FD6
:101F2000C00111240E94B42C111106C081E993E074
:101F300061EA71E00E94D52F80E062E00E948C2B64
:101F400080E065E60E942925FAE08F9FC0011124F8
:101F500088519C4F0E94B42C80E065E60E942925A0
:101F60002AE0829FC0011124112319F028EB3BE0E5
:101F700002C020ED37E0820F931F0E94B42C8BE04B
:101F80000E9468210C94340780E064E60E942925B1
:101F9000082F87E191E00E941F2C3CE3039F800102
:101FA00011240056104FD12C80E5B8010E94352134
:101FB000482F8D2D61E00E942027B8016C5E7F4F75
:101FC00080E50E943521482F8D2D62E00E94202758
:101FD000B801685D7F4F80E50E943521482F8D2D27
:101FE00063E00E942027D3940F5F1F4F44E1D41277
:101FF000DBCF0C94340780E064E60E94292560E57D
:10200000869FC00111248C01005F184DD12C80E502
:10201000B8010E943521482F8D2D60E00E942027B5
:10202000B8016C5E7F4F80E50E943521482F8D2DD1
:1020300061E00E942027B801685D7F4F80E50E9423
:102040003521482F8D2D62E00E942027B801645C65
:102050007F4F80E50E943521482F8D2D63E00E943F
:102060002027D3940F5F1F4F84E1D812D0CF0C9458
:10207000340783E061E00E948C2B8CE291E00E94A7
:102080001F2C80912402ACE18A9FC00111240E9480
:102090000E1A0E94622180E293E06AEF70E040E055
:1020A0002EE031E00E94622680E293E066E970E073
:1020B00040E024EB30E00E94622684E992E06AEF7F
:1020C00070E040E02AEF30E00E94622680ED97E069
:1020D0000E94F52480E090E00E940E1A0C943807CC
:1020E0000E94C7207C0180E063E771E00E94EE2B34
:1020F000FF2401E00E94C720E816F90609F062C03B
:1021000080917D02843009F45DC00093D90381E998
:1021100093E00E94FD2F81E064E10E942925182FA1
:10212000112381F080E064E10E942925D82E80E00F
:1021300064E00E942925682F8D2D40E00E94202711
:102140001150EECF84EF91E00E94F524D3CF18E236
:1021500081E993E068E10E94EB2F88EC90E00E9417
:10216000F52480917D02843009F411E01150123081
:1021700078F70C94380780E063E771E00E94EE2B5B
:1021800000E010E0812F602F40E00E94202786E9C8
:1021900090E00E94F52480917D02843011F414E1D6
:1021A00004E0812F602F40E20E9420271F5F14313E
:1021B00048F30F5F043028F380ED97E00E94F52488
:1021C0000C9438071092D9030C943807AAE4B0E0B5
:1021D000ECEEF0E10C942B3680E063E871E00E94B5
:1021E000EE2B81E993E00E94FD2F82E060E00E94E7
:1021F0008C2B82E993E00E941F2C0E94D62582E05E
:1022000061E00E948C2B88E893E00E941F2C0E94C2
:10221000D62582E062E00E948C2B8CE793E00E943E
:102220001F2C82E063E00E948C2B8EE693E00E94DC
:102230001F2C0E94D625E12CAE014F5F5F4F6A0133
:1022400080917D02843009F47CC4809180028111E8
:1022500002C040E201C040E081E060E00E9420272F
:1022600080918402811102C040E201C040E081E01F
:1022700061E00E94202780918102811102C040E22A
:1022800001C040E081E062E00E94202781E063E03D
:1022900048E70E94202780E06E2D4EE70E9420270D
:1022A00081E061E00E94BB2480917D02823009F4CC
:1022B00033C4833009F43BC4813011F651E0E51694
:1022C00009F43FC2E51628F082E0E81609F405C4D7
:1022D000B7CF81E063E571E00E94EE2B82E063E618
:1022E00071E00E94EE2B83E06BE671E00E94EE2B22
:1022F00084E06BE471E00E94EE2B83E891E00E94A1
:10230000042780918002882329F0CE018F5B9F4FA4
:102310000E943C1B02E010E0F12C812C20E4922E64
:102320009C0C3AE0A32EB12C80917D02843009F4FC
:10233000E3C181E062E04BE50E94202782E00E9439
:10234000652C8DE293E00E941F2C83E00E94652C97
:102350008DE50E94652C81E063E00E948C2B8AE170
:1023600093E00E941F2C81E061E043E10E9413276B
:102370000E94E32B80918002811102C044E001C0E1
:1023800041E088E062E00E94202780918002811174
:1023900002C040E201C042E58BE062E00E942027DB
:1023A00082E060E00E948C2B60917E0270917F023F
:1023B00080E090E00E9490342DEC3CEC4CEC5DE32E
:1023C0000E94F13442E00E94611880E20E94652C74
:1023D000FF2069F05E980E94AD2189E060E04AE04C
:1023E0000E941327CE018F5B9F4F0E943C1B89E008
:1023F00060E00E948C2B80918002882339F081E973
:1024000093E0BE016F5B7F4F0E94D52F083099F09B
:1024100030F4063059F00730D9F484E017C00A30A0
:1024200089F070F00B30A1F480E110C081E00E94CF
:102430004B2382E00BC082E00E944B2388E006C061
:102440008AE004C083E00E944B238EE063E005C075
:10245000802F880F800F8E5F62E00E948C2B1123EB
:1024600009F45BC010927D02F60180E281939E1216
:10247000FDCF0E94D92B80E062E044E10E94132747
:1024800081E062E00E948C2B87E093E00E941F2C89
:1024900081E063E00E948C2B85EF92E00E941F2C6C
:1024A00085E063E045EF0E94202780917D02833024
:1024B000C0F5C6010E94D21A260194E0F92E13E05D
:1024C00082E061E00E948C2B612C712CF201E60D00
:1024D000F71D808180310CF480E20E94652C9FEF13
:1024E000691A790A20E16216710481F7C6010E9417
:1024F000D21A8BE062E00E948C2B80E00E94CB30ED
:1025000080937D02833088F61150D1F6FA9440E131
:10251000440E511CF110D3CFC8CF80E061E00E947F
:10252000BB2480917D02823009F4CFC0833009F44E
:10253000D7C0813009F0DDC0802F90E08C3091054C
:1025400008F0BDC0FC01E05BFF4F0C94BA328091F3
:102550008002882309F4B3C080E032C080917E02FB
:1025600090917F028B3653E0950708F4A8C001973D
:102570007CC080918002882319F00E94A8219FC00E
:1025800080912C02811102C04C99E2C20E94A421C8
:1025900081E08093800293C01091800291C080916D
:1025A0007E0290917F02883324E0920708F087C072
:1025B00001965BC080918002882309F480C081E08D
:1025C0000E94271952C080912502909126024DC089
:1025D00080917E0290917F02909326028093250243
:1025E000B5010E949232682F86E190E00E9424217A
:1025F0002091250230912602C901B5010E94923234
:10260000A901481B590BCA01B5010E94923285E10C
:1026100090E051C0809127029091280226C08091BD
:102620007E0290917F029093280280932702B50149
:102630000E949232682F88E190E00E94242120912C
:10264000270230912802C901B5010E949232A901E6
:10265000481B590BCA01B5010E94923287E190E0F4
:102660002AC08091290290912A0290937F02809340
:102670007E0225C080917E0290917F0290932A0273
:1026800080932902B5010E949232682F8AE190E07E
:102690000E9424212091290230912A02C901B5010A
:1026A0000E949232A901481B590BCA01B5010E9430
:1026B000923289E190E00E9424210E94CA2510E014
:1026C000F0908002882483942FCE0B3008F40F5FA3
:1026D0008091800281110DC0033059F404E009C0DB
:1026E0000111015080918002811103C0033009F46F
:1026F00002E010E0F12C18CE882009F4EBC18091A3
:102700007E0290917F020AE010E0B8010E949232AE
:10271000682F82E190E00E94242120917E02309176
:102720007F02C901B8010E949232A901481B590BCE
:10273000CA01B8010E94923281E190E00E942421F6
:10274000C9C190912D0280918202992309F427C179
:10275000811102C04C99FECF81E063E571E00E94D7
:10276000EE2B82E06BE571E00E94EE2B83E06BE4E0
:1027700071E00E94EE2B83E891E00E94042784E040
:1027800063E00E948C2B81E693E00E941F2C8BE07B
:1027900063E042E00E94202780912C02882319F0F8
:1027A00082E0F82E02C0FF24F3940E94E32BBB24A6
:1027B000B39480917D02843009F48CC14C9909C096
:1027C00080912C02811105C080918302882309F435
:1027D000C2C182E060E00E948C2B8091830288233A
:1027E00029F086E593E00E941F2C10C084E60E9429
:1027F0008F2482E560E040E096010CE010E00E944A
:10280000CD2A81E993E0B6010E94D52F87E062E0EE
:102810000E948C2B4C9B05C080918302882309F475
:10282000B4C180910A018A3010F40E94E32580919E
:102830000A016AE070E00E94E0178FE20E94652CB6
:1028400080912D028A3010F40E94E32580912D02A0
:102850006AE070E00E94E0178FE060E00E948C2B3D
:1028600080912C02882329F08CE393E00E941F2C96
:1028700005C08FE060E045E00E9413274C9906C038
:1028800080912C02811102C043E001C041E088E048
:1028900063E00E9420278F2D880F8F0D8B5F63E0F0
:1028A0000E948C2B81E061E00E94BB2480917D021C
:1028B000823009F461C0833009F468C0813009F0C6
:1028C00078CF51E0F516E1F0F51638F082E0F81611
:1028D00081F193E0F916A1F16CCF80910A01823069
:1028E00018F0815080930A0180918302882321F09F
:1028F00010928302B09284024C9935C0F12C59CFCA
:102900008091800281110E94A8214C990DC0B09243
:10291000840290910A0180912B02890F81590E94B3
:102920006821B092820202C00E9495210E94A421D7
:1029300040CF4C9934C180912C02811130C139CFE4
:1029400080910A0190912D02891718F48F5F80936E
:102950000A0180918302882321F010928302B092B1
:1029600084024C9B26CF90910A0180912B02890F03
:1029700081590E9468211DCF80912C02811119CFAD
:1029800022E02F1508F415CFF39413CF80912C0279
:1029900081110FCFFF2009F4B1CFFA940ACF811132
:1029A00002C04C99FECF81E063E571E00E94EE2BFE
:1029B00082E06BE571E00E94EE2B83E06BE471E056
:1029C0000E94EE2B83E891E00E94042784E063E0FC
:1029D0000E948C2B81E693E00E941F2C8BE063E029
:1029E00042E00E94202780912C02882311F012E0FF
:1029F00001C011E00E94E32B80917D02843009F434
:102A000069C080E061E00E948C2B82E493E00E9428
:102A10001F2C8FE060E00E948C2B80912C02882379
:102A200029F08CE393E00E941F2C05C08FE060E04A
:102A300045E00E9413274C9906C080912C02811119
:102A400002C043E001C041E088E063E00E9420272B
:102A5000812F880F810F8B5F63E00E948C2B81E0B8
:102A600061E00E94BB2480917D02823009F18330B5
:102A700041F1813009F6113021F0123009F0BCCF5C
:102A800010C08091800281110E94A8214C9904C03D
:102A900081E08093820202C00E9495210E94A421BD
:102AA000ABCF4C9991C080912C0281118DC0A4CFE5
:102AB00080912C028111A0CF133008F09DCF1F5FB1
:102AC0009BCF80912C02811197CF112309F494CFD1
:102AD000115092CF0E94B725B3CB80918102811112
:102AE0000EC08091800281110E94A82180912C0249
:102AF000811102C04C997EC05E985F9A02C05E9AB6
:102B00005F989091810281E089278093810284EF10
:102B100091E00E94262594CB80E06E2D40E20E9439
:102B2000202742E04E1508F48BCBE39489CB80E05C
:102B30006E2D40E20E942027EE2009F481CBEA941A
:102B40007FCB0E94B725C65BDF4FE0E10C94473690
:102B50000E9495211BCD40912B0250E041595F4FBF
:102B600080910A01480F511D83E0652F20E030E07D
:102B700000E010E00E94CD2A84E60E948F240E948B
:102B8000952184E60E948F2424CE84E60E948F241F
:102B90008BE40E94452B875980930A0142CE809195
:102BA000800281110E94A82180912C02882339F093
:102BB0005E9810922C028DE00E94612BFACDB092AB
:102BC0002C020E946E2BF5CD8091800281110E9413
:102BD000A82180912C02882339F05E9810922C0253
:102BE0008DE00E94612B08CF81E080932C020E942F
:102BF0006E2B02CF0E9495217FCFA0E0B0E0E3E0F2
:102C0000F6E10C9433366C017A018B01C0E0D0E020
:102C1000CE15DF0589F0D8016D918D01D601ED91BA
:102C2000FC910190F081E02DC6010995892B11F4EA
:102C30007E0102C02196ECCFC701CDB7DEB7E8E038
:102C40000C944F3620917002309171022817390789
:102C500071F490916F0280916E02981741F0E091AB
:102C60006F02F0E0E25DFD4F808190E008958FEF0C
:102C70009FEF089508951F93CF93DF93DC015C9637
:102C80002D913C915D972115310539F481E090E05B
:102C900013969C938E9312973DC05196ED91FC91A3
:102CA000529750969C915097892F80951FB75E96AA
:102CB0004C915E9741FB772770F941FD6095F89440
:102CC0004081772311F0492B01C048234083E9015B
:102CD0002197F1F748E0508160FF02C0592B01C0F5
:102CE00058235083E9012197F1F76695415099F7F0
:102CF000772321F090818923808303C08081982BE2
:102D000090831FBF5C968D919C915D970197F1F721
:102D100021E030E0C901DF91CF911F91089520910A
:102D20007002309171022817390771F480916E0298
:102D300020916F0290E0805C9F4F821B910960E4BC
:102D400070E00E94A632089580E090E008952091FE
:102D500070023091710228173907B9F490916F020F
:102D600080916E02981789F0E0916F02F0E0E25DC9
:102D7000FD4F808120916F0230E02F5F3F4F2F7316
:102D8000332720936F0290E008958FEF9FEF08950F
:102D9000CF92DF92EF92FF92CF93DF936C01990F66
:102DA000EE08FF08F7FE11C08DE20E94652CEC01D1
:102DB00066277727CB016C197D098E099F094AE0A8
:102DC0000E94712C8C0F9D1F05C0C701B6014AE0FF
:102DD0000E94712CDF91CF91FF90EF90DF90CF9008
:102DE0000895CF93C62F80937C0210927B0260E0FF
:102DF00043E00E94132760917B026F5F80917C0209
:102E000043E00E9413278C2F90E08D30910508F04D
:102E1000D5C0FC01E45AFF4F80917C020C94BA3279
:102E200060917B0240E00E94202781E067C06091B2
:102E30007B0241E00E94202782E00E94652C609185
:102E40007B026F5F80917C0244E00E94202787E034
:102E500014C060917B0246E00E94202786E00E9419
:102E6000652C82E00E94652C60917B026F5F8091EF
:102E70007C0243E00E94202784E00E94652C84E0CD
:102E80009BC060917B0246E00E94202786E00E9462
:102E9000652C82E013C060917B0243E00E942027F2
:102EA00084E00E94652C87E044C060917B0243E08F
:102EB0000E94202786E00E94652C86E00E94652CF7
:102EC00060917B026F5F80917C0244E022C0609140
:102ED0007B0240E00E94202786E00E94652C86E06D
:102EE00010C060917B0241E00E94202781E01EC05B
:102EF00060917B0240E00E94202786E00E94652CC2
:102F000082E00E94652C60917B026F5F80917C0261
:102F100043E00E94202784E00E94652C85E04CC09D
:102F200060917B0240E00E94202786E00E94652C91
:102F300082E00E94652C80917C0260917B026F5F31
:102F40008E5F47E00DC08F5F60917B0244E00E947E
:102F5000202780917C0260917B026F5F8F5F44E04D
:102F60000E9420272BC060917B0240E00E94202716
:102F700082E00E94652C80E00E94652C60917B02BB
:102F80006F5F80917C0247E00E94202783E00E94CF
:102F9000652C87E011C060917B0247E00E942027EA
:102FA00080E00E94652C60917B026F5F80917C02C3
:102FB00047E00E94202783E00E94652CCF9108956E
:102FC000282FAB01672B61F4E0919103F0919203FC
:102FD0000190F081E02D81E993E0622F0995089539
:102FE000682F70E080E090E00E94712C08951F939C
:102FF000CF93DF9380E10E94012AC1EBD3E01881D7
:10300000698122968DEC93E00E94861C8DEC93E002
:10301000612F0E94861C83E0CD3BD80781F70E9478
:10302000A42991E0811190E0892FDF91CF911F9128
:1030300008950F931F93CF93DF9380E190E060E2B8
:1030400070E00E94822A8091700390E020917103C9
:10305000821B910980329105ECF3CAE0D0E08DEC3F
:1030600093E00E94411C8E01000F111F06551C4F5A
:10307000F801138284838DEC93E00E94411CF801D7
:1030800023813481822B932B94838383C930D10590
:1030900039F02196C031D10511F7C0E0D0E0DFCF83
:1030A000DF91CF911F910F9108950E941918EAEABC
:1030B000F3E0878190858064908787830E94F7176B
:1030C00008954F925F926F927F928F929F92AF92EC
:1030D000BF92CF92DF92EF92FF92CF93DF936B017B
:1030E0007C01B42EA70196010E946133882329F048
:1030F00081E993E06DEA71E00FC0C701B6019F77E7
:103100002FEF3FEF4FE75FE70E945C3318163CF468
:1031100081E993E061EB71E00E94D52F89C0C7017E
:10312000B6012FEF3FEF4FE75FE40E945C331816C4
:103130002CF481E993E065EB71E0EECFC701B601B5
:103140002FEF3FEF4FE75FEC0E948B3487FDF1CF0D
:10315000C701B60120E030E0A9010E948B3487FF4F
:1031600009C08DE20E94652CEC01F7FAF094F7F8A3
:10317000F09402C0C0E0D0E0A12C60E070E080E0FC
:103180009FE3AB1441F02DEC3CEC4CEC5DE30E9472
:10319000F134A394F6CFA70196010E94C1322B010E
:1031A0003C010E942D336B017C010E9490349B01F5
:1031B000AC01C301B2010E94C0322B013C01C70126
:1031C000B6014AE00E94712CC80FD91FBB2041F004
:1031D00081E993E069EB71E00E94D52FC80FD91FF8
:1031E000FB2CFF2021F1C301B20120E030E040E2DE
:1031F00051E40E94F1342B013C010E942D334B011C
:10320000A12CB12CC501B4014AE00E94712CC80F59
:10321000D91FC501B4010E9490349B01AC01C301C8
:10322000B2010E94C0322B013C01FA94DACFCE01E8
:10323000DF91CF91FF90EF90DF90CF90BF90AF9054
:103240009F908F907F906F905F904F900895A1E036
:10325000B0E0EDE2F9E10C94373689830E94191849
:103260002091B1033091B203A9015B7F8981811163
:1032700006C0397F3093B2032093B10306C0CA0160
:1032800092609093B2038093B1038091B1039091C7
:10329000B20391609093B2038093B1030E94F71739
:1032A0000E9419188091C1039091C20396FFF8CF34
:1032B0000E9419180091C1031091C20300271072D7
:1032C0008091B1039091B2039E7F9093B20380935B
:1032D000B1030E94F7170E9419182091C103309181
:1032E000C203C9018827907436FDF5CF0115110579
:1032F00049F40E9419188091C3039091C4039370FC
:1033000085599C4F2196E4E00C94533690E0FC01E3
:10331000EC55FC4F3491FC01EB5BFB4F2491FC011D
:10332000EF5CFB4FE491EE2309F43BC0332339F10A
:10333000333091F038F43130A9F0323001F584B5F2
:103340008F7D12C0373091F03830A1F03430B9F4AD
:10335000809180008F7D03C0809180008F77809363
:1033600080000DC084B58F7784BD09C08091B00006
:103370008F7703C08091B0008F7D8093B000F0E024
:10338000EE0FFF1FE35EFB4FA591B4918FB7F8944A
:10339000EC91611103C020952E2301C02E2B2C939C
:1033A0008FBF0895CF93DF9390E0FC01EB5BFB4F61
:1033B0002491FC01EF5CFB4F8491882361F190E044
:1033C000880F991FFC01E656FC4FC591D491FC0172
:1033D000E35EFB4FA591B491611109C09FB7F894CA
:1033E0008881209582238883EC912E230BC0623044
:1033F00061F49FB7F8943881822F80958323888366
:10340000EC912E2B2C939FBF06C08FB7F894E881C8
:103410002E2B28838FBFDF91CF910895CF93DF9319
:10342000EC018AE061E00E94D219209719F48AE049
:1034300060E005C0CF3FD10529F48AE061E00E9439
:10344000861943C0EEEAF3E0E491E330F9F048F482
:10345000E130B9F0E230A1F584B5806284BDC8BD29
:1034600034C0E730E9F0E83019F1E43049F58091F3
:103470008000806280938000D0938B00C0938A008C
:1034800024C084B5806884BDC7BD1FC08091800002
:10349000806880938000D0938900C093880015C015
:1034A0008091B00080688093B000C093B3000DC0DD
:1034B0008091B00080628093B000C093B40005C0DA
:1034C000C038D1050CF0B9CFB2CFDF91CF910895BC
:1034D000CF93DF93CAEAD3E0888161E00E94D219DA
:1034E000898161E00E94D219898160E00E94861979
:1034F000888160E00E94861981E090E00E94402C63
:10350000888161E00E94861981E090E00E94402C51
:103510000E947E290E94191880E091E89A8B898B7D
:103520000E94F71784EF91E00E94402C0E94191826
:1035300081E090EC98878F838B859C8598619C8730
:103540008B878D859E858F619E878D870E94F7175B
:103550008EE690E00E94402CDF91CF9108958E304E
:1035600008F08E508770806480937C0080917A0090
:10357000806480937A0080917A0086FDFCCF8091F0
:1035800078002091790090E0922B08952FB7F8945D
:1035900060917702709178028091790290917A021D
:1035A0002FBF08958F929F92AF92BF92EF92FF929A
:1035B0000F931F93CF93DF937C010E94C61A4B0198
:1035C0005C0124EF820E21E0921EA11CB11CC0E020
:1035D000D0E000E010E00E94C61A681579058A055F
:1035E0009B0598F02196CC0FDD1FCC0FDD1FCE0D73
:1035F000DF1D1882DF91CF911F910F91FF90EF9007
:10360000BF90AF909F908F9008950830110554F7A8
:103610000E9419188091C1039091C20397FF27C09F
:10362000E091C703F091C803CF018827987F8115E7
:103630009042D1F4EF70FF27EC17FD071CF00F5FED
:103640001F4FEF018091C9039091CA03EE0FFF1F36
:10365000EE0FFF1FEE0DFF1D908381838091CB0342
:103660009091CC039283838388E290E002C08EE144
:1036700090E00E94402CAFCF8F929F92AF92BF926A
:10368000DF92EF92FF920F931F93CF93DF9300D0BF
:1036900000D0CDB7DEB77C010E94C61A4B015C0199
:1036A00028EE820E23E0921EA11CB11C19821A8200
:1036B0001B821C8200E010E0DD24D3940E94C61A15
:1036C000681579058A059B05F8F40E941918809100
:1036D000C1039091C20397FF35C08091C7039091B9
:1036E000C803FC01E370FF27A1E0B0E0AC0FBD1FF1
:1036F000AE0FBF1F2C912223A1F088E290E00E9420
:10370000402C04301105D0F20E94C61A68157905C4
:103710008A059B0518F0F701108217C0F701108683
:1037200014C0843F914048F7DC920F5F1F4F809197
:10373000CB039091CC03EE0FFF1FEE0DFF1D908386
:103740008183DBCF8EE190E0DACF0F900F900F9066
:103750000F90DF91CF911F910F91FF90EF90DF902D
:10376000BF90AF909F908F9008951F920F920FB6C9
:103770000F9211242F933F938F939F93AF93BF93F7
:103780008091770290917802A0917902B0917A02AB
:103790003091760223E0230F2D3720F40196A11DEE
:1037A000B11D05C026E8230F0296A11DB11D20936F
:1037B00076028093770290937802A0937902B09377
:1037C0007A028091720290917302A0917402B0917A
:1037D00075020196A11DB11D809372029093730230
:1037E000A0937402B0937502BF91AF919F918F9196
:1037F0003F912F910F900FBE0F901F90189585ED60
:103800008093BC008091BC0084FDFCCF10926D03BE
:1038100008954091C902262F30E0240F311D213236
:103820003105DCF420916D032430C9F4FC0180E003
:1038300090E0861758F43091C9022191DC01A95516
:10384000BD4FA30FB11D2C930196F3CF8091C902F8
:10385000680F6093C90280E0089581E0089582E0D6
:1038600008950895E091710380917003E81730F492
:10387000F0E0E250FD4F808190E008958FEF9FEFE0
:1038800008959091710380917003981750F4E92F77
:10389000F0E0E250FD4F208130E09F5F9093710394
:1038A00002C02FEF3FEFC90108958091700390E0AF
:1038B00020917103821B91090895A0E0B0E0E3E636
:1038C000FCE10C9433367C01972F8A0180914903E7
:1038D000882391F0C62FD72F6E01C40ED51ECC15AC
:1038E000DD0571F06991D701ED91FC910190F081B6
:1038F000E02DC7010995F3CF862F642F0E94091C84
:10390000C801CDB7DEB7E8E00C944F36A1E0B0E0D7
:10391000ECE8FCE10C9439366983209149032223B9
:10392000D1F020916E03203240F021E030E0FC0124
:103930003383228380E090E015C080916F03E82FED
:10394000F0E0E65BFC4F998190838F5F80936F037B
:1039500080936E0305C0CE01019661E00E94091CB0
:1039600081E090E02196E2E00C94553660939C0251
:1039700070939D0280939E0290939F02DC01CB0185
:10398000845D9E4FAF4FBF4F8093980290939902F2
:10399000A0939A02B0939B0282E090E090939702EA
:1039A000809396020E94C61A6093920270939302CB
:1039B000809394029093950208951F920F920FB6F0
:1039C0000F9211242F933F934F935F936F937F93A5
:1039D0008F939F93AF93BF93EF93FF93E091700208
:1039E000F0917102309709F451C0968DA685B78584
:1039F000858591FF04C09C91892329F447C09C913F
:103A0000892309F043C0A389B4899C918589809555
:103A100089238C93868997890197F1F7608D718D41
:103A2000A685B785558538E020E0CB010197F1F7F1
:103A3000822F90E095958795282F4C91452309F08A
:103A40002068315091F7868D81FD209580916E021E
:103A500090E001968F73992730916F02381749F0E3
:103A6000A0916E02B0E0A25DBD4F2C9380936E02D8
:103A700003C0868D8160868F828D938D0197F1F7CB
:103A8000A389B4899C918589892B8C93FF91EF91AF
:103A9000BF91AF919F918F917F916F915F914F9166
:103AA0003F912F910F900FBE0F901F901895E091AE
:103AB0007002F0917102E817F90769F4A389B489DB
:103AC0009C918589809589238C9310927102109224
:103AD000700281E0089580E008951F920F920FB662
:103AE0000F9211242F933F934F935F936F937F9384
:103AF0008F939F93AF93BF93EF93FF938091B90000
:103B0000887F803609F49CC068F5883209F45BC070
:103B100090F4803109F454C038F4882309F4F6C0D5
:103B2000883009F44DC0F6C0883109F44CC08032A9
:103B300009F45DC0EFC0803409F468C048F48033F4
:103B400009F455C0883309F0E5C080934803D8C014
:103B5000803509F44FC0883509F45DC0883409F018
:103B6000D9C0D6C0883909F4C7C0A8F4883709F489
:103B700067C038F4883609F463C0803709F460C040
:103B8000C9C0883809F4B8C0803909F45FC08038EA
:103B900009F0C0C05BC0803B09F486C038F4803AAD
:103BA00009F466C0883A09F47FC0B4C0803C09F4C7
:103BB000A7C0883C09F4A4C0883B09F48AC0AAC005
:103BC0008091250310C09091470380914603981778
:103BD00070F5E091470381E08E0F80934703F0E09A
:103BE000EA5DFC4F80818093BB0085EC86C08093AA
:103BF00048038EC0E091470381E08E0F8093470316
:103C00008091BB00F0E0EA5DFC4F80839091470318
:103C1000809146036EC0E091470381E08E0F809350
:103C200047038091BB00F0E0EA5DFC4F8083809108
:103C30006C0381116DC081E080936B0384EA61C0E5
:103C400083E080936D031092ED02CFCF8091ED025F
:103C5000803208F051C0E091ED0281E08E0F809338
:103C6000ED028091BB00F0E0E353FD4F8083BDCFB8
:103C700085EC8093BC0010926D038091ED02803240
:103C800030F4E091ED02F0E0E353FD4F10826091DB
:103C9000ED0270E0E091CB02F091CC028DEC92E06D
:103CA00009951092ED0236C084E080936D03109266
:103CB000CA021092C902E091C702F091C8020995A8
:103CC0008091C902811105C081E08093C9021092E0
:103CD000A702E091CA0281E08E0F8093CA02F0E051
:103CE000E955FD4F80818093BB009091CA0280917D
:103CF000C902981708F479CF85E88093BC000AC000
:103D000085EC8093BC0010926D0304C010924803B0
:103D10000E94FF1BFF91EF91BF91AF919F918F91F7
:103D20007F916F915F914F913F912F910F900FBEB7
:103D30000F901F901895A0E0B0E0E1EAFEE10C942E
:103D40002A36382E962E842EF90184E6E816F104E0
:103D50002CF082EBE81A87E0F80A03C08EE1E80E47
:103D6000F11CE092A6020093A502E093A402309217
:103D7000A2029092A1028092A002AE2DB0E020E8B3
:103D800033E341EE51E00E9416362B013C0122EB59
:103D900037E0FF2484E6C82ED12CC0E9D1E0C90168
:103DA000825B97408E159F05DCF4C90183709927CB
:103DB000892B99F4C901B6010E94A632892B31F4EE
:103DC000C901BE010E94A632892B39F480E8480E51
:103DD00081E5581E81E0681E711C2F5F3F4FDFCFC9
:103DE0008EE4E81A88EFF80AC70164E670E00E94E2
:103DF000A6326C01C70160E971E00E94A6325C0145
:103E0000C1E0D0E0112783E0E822FF24C017D107EA
:103E10002CF5C230D10589F4E114F10471F4C11418
:103E2000D10419F4A114B10441F480E8480E8BE3E5
:103E3000581E86E2681E711C0FC0DE01A654BE4FDC
:103E4000AC91B0E020E831E541E050E00E94163648
:103E5000460E571E681E791E2196D8CF292D30E0B8
:103E6000ACE3B0E00E9460366B017C01C80CD11C51
:103E7000E11CF11C232D30E0A0E1BEE00E94603681
:103E8000C60ED71EE81EF91EDF01BB27119720E8DA
:103E900031E541E050E00E942136DC01CB018C0D80
:103EA0009D1DAE1DBF1DBC01CD01640D751D861D80
:103EB000971D0E94B61CCDB7DEB7E1E10C944636E3
:103EC000CF92DF92EF92FF920F931F930E94C61A38
:103ED000C0909202D0909302E0909402F0909502EC
:103EE0008B019C010C191D092E093F0980919C0230
:103EF00090919D02A0919E02B0919F02083E1340B6
:103F000021053105D0F00196A11DB11D80939C02C1
:103F100090939D02A0939E02B0939F02B701A601C9
:103F200048515C4F6F4F7F4F4093920250939302E2
:103F30006093940270939502C9CF4091980250917A
:103F4000990260919A0270919B0284179507A607C7
:103F5000B70788F1E0919002F0919102309759F102
:103F60000995611571058105910519F00E94B61C2E
:103F700022C080919C0290919D02A0919E02B091DE
:103F80009F02845D9E4FAF4FBF4F809398029093E6
:103F90009902A0939A02B0939B0281E090E0209155
:103FA000960230919702232B11F480E090E09093D9
:103FB00097028093960260919C0270919D0280917D
:103FC0009E0290919F021F910F91FF90EF90DF90C2
:103FD000CF900895A0E0B0E0E0EFFFE10C942B3625
:103FE0004B015C0180918C0290918D02A0918E0218
:103FF000B0918F0288169906AA06BB0609F4C2C0C2
:104000008CE3C82ED12CE12CF12CC501B401A70101
:1040100096010E94D5356093A002CA01B901A7019B
:1040200096010E94D5356093A102CA01B90128E129
:1040300030E040E050E00E94D53569017A0160939C
:10404000A202CA01B9016C5F7F4F8F4F9F4F27E0DB
:1040500030E040E050E00E94D5356F5F6093A302EE
:10406000412C512C320140E004E610E0C0E9D1E0DF
:10407000242F30E02E54384FF901E370FF2730979A
:1040800089F4C901B8010E94A632892B31F4C90113
:10409000BE010E94A632892B29F48EE691E0A0E0B1
:1040A000B0E004C08DE691E0A0E0B0E0480E591EFB
:1040B0006A1E7B1ED301C201AA27BB27C816D906D8
:1040C000EA06FB0610F04F5FD3CF4093A60230976D
:1040D00099F4C90164E670E00E94A632892B39F494
:1040E000C90160E971E00E94A632892B29F48EE6AD
:1040F00091E0A0E0B0E004C08DE691E0A0E0B0E087
:10410000481A590A6A0A7B0AC418D508E608F7084B
:10411000C90164E670E00E94A632EC01C90160E9C1
:1041200071E00E94A632ABEBB1E020E0213039F41F
:10413000309749F4209729F4009729F402C04C9154
:1041400003C04DE101C04CE150E060E070E0C416F6
:10415000D506E606F70640F0C41AD50AE60AF70ABD
:104160002F5F11962C3011F72F5F2093A502C39477
:10417000C092A40280928C0290928D02A0928E0234
:10418000B0928F02CDB7DEB7E0E10C9447360E94C3
:10419000601F0E94EA1F8091A10290E008951F9283
:1041A0000F920FB60F9211240F931F932F933F93EB
:1041B0004F935F936F937F938F939F93AF93BF932F
:1041C000EF93FF930E94C61A009188021091890212
:1041D00020918A0230918B02601771078207930742
:1041E000B8F080916F008D7F80936F0082E08093A4
:1041F000810081E080938000E0918602F091870247
:104200009081809185028095892380831092850218
:10421000E0918602F0918702908180918502892742
:104220008083FF91EF91BF91AF919F918F917F918B
:104230006F915F914F913F912F911F910F910F902F
:104240000FBE0F901F9018950E94B73508950E94D9
:10425000AF3508958BEE91E09093730380937203D2
:1042600082E793E00E94571D0895A1E0B0E0EBE3E0
:10427000F1E20C943736182F062F79830E94012A19
:104280008DEC93E069810E94861C8DEC93E0602F99
:104290000E94861C0E94A429812F90E061E070E0BA
:1042A0000E94822A9091700380917103981729F0DF
:1042B0008DEC93E00E94411C01C08FEF2196E4E059
:1042C0000C9453365E9886E490E00E94262508956B
:1042D000A1E0B0E0EEE6F1E20C94373689830E946B
:1042E000622183E060E0498120E030E000E010E0FE
:1042F0000E94CD2A84E60E948F2480918402882324
:1043000019F081E00E94722B80918302882349F08A
:1043100081E164E040E020E030E000E010E00E9455
:10432000CD2A2196E4E00C9453360E946E2B84E64D
:104330000E948F24109283021092840210928202B3
:1043400084E00E94722B08955F9810928102089574
:104350000E945518109280020895CF93DF930E9417
:10436000681A80917E0290917F022AE0289FE001E6
:10437000299FD00D1124CE52D2420E9419182091AB
:10438000B3033091B40322273E7F3068CE016AE048
:1043900070E00E949232262B372B3093B403209387
:1043A000B3030E94F7170E9419188091C1039091DE
:1043B000C20396FFF8CF0E9419188091B303909121
:1043C000B4039F779093B4038093B3030E94F717CD
:1043D0000E9419188091C1039091C20396FDF8CFF5
:1043E000DF91CF910895CF93823009F477C038F4EC
:1043F000882321F1813009F0B8C0CAE060C0843060
:1044000009F48BC008F472C0853009F0AEC088E5AD
:1044100092E068EC70E041E028EC30E00E94622617
:1044200084EF91E068EC70E041E028EC30E00E941D
:10443000622680E991E068EC70E092C086E091E04D
:104440006AEF70E041E02DE431E00E94622684ECE6
:1044500090E06DE770E041E027EA30E00E946226DC
:1044600084EC90E06DE770E041E027EA30E00E94E4
:1044700062268CED90E06AEF70E041E02DE431E0DF
:104480000E94622684EC90E06AEF70E041E02AE945
:1044900032E00E94622687EF90E06AEF70E041E030
:1044A0002DE431E00E94622686E091E06AEF70E040
:1044B00041E02DE431E057C0C15009F456C088EB0B
:1044C00091E062E370E041E024E630E00E94622681
:1044D00080917D02843081F7C0E0EECF88EB91E0DF
:1044E00068EC70E041E024EF31E03DC088E592E007
:1044F00064E670E041E024E630E00E9462268CEB46
:1045000092E064E670E041E024E630E00E9462263A
:1045100080E293E064E670E023C088E592E060E525
:1045200070E041E024E630E00E94622680E991E0FC
:1045300060E570E041E024E630E00E94622684EF0E
:1045400091E060E570E041E024E630E00E94622600
:1045500080E991E060E570E041E028EC30E003C0E4
:1045600041E02CE231E00E946226CF91089583FD64
:1045700002C098E001C098E28770892B98E10FB6DD
:10458000F894A895909360000FBE80936000A89562
:10459000809160008064809360008091F5028823A0
:1045A00019F083B7817F0BC08091F002882321F03E
:1045B00083B7817F846003C083B7817F8C6083BFB2
:1045C00083B7816083BF889583B78E7F83BF0FB623
:1045D000F894A895809160008861809360001092A3
:1045E00060000FBE809160008F7B80936000089513
:1045F000CF938091E1038823E9F18091DF039091CB
:10460000DD0320912003981730F4C1E0821768F091
:10461000291758F009C0891738F4C0E0821728F428
:10462000291718F4C1E001C0C0E0891310C05091EF
:10463000DE033091DC03351738F040911F03451736
:1046400018F0341708F0C1E0381708F4C1E0281357
:1046500007C030911F038091DE03381708F0C1E0D6
:10466000291309C090911F038091DC03981718F457
:10467000C1E001C0C0E08091FD02C81749F0CC2321
:1046800011F087E401C086E60E946821C093FD0214
:104690008C2FCF910895CF93C82F81E061E00E94C5
:1046A0008C2B84E194E00E941F2C8C2F6AE070E038
:1046B0000E94E0178AE30E94652C80E20E94652C2C
:1046C000EC2FF0E0EE0FFF1FED5DFD4F608171817B
:1046D00080E090E00E9490342DEC3CEC4CEC5DE3EB
:1046E0000E94F13442E00E946118CF910895CF9367
:1046F000DF930E94C720CEE1D3E089830E94601F30
:104700000E94EA1F8091A2028A83DF91CF910895CF
:10471000809123039DEF980F983008F06DC09CEFB7
:10472000980F963008F466C0833089F520912203F3
:104730004091FB025091FC0235E0349FC001359F4F
:10474000900D112497FD03969595879595958795DE
:10475000049667E070E00E94A6324FE150E0BA0193
:10476000681B790B38E1369FA001379F500D11244B
:104770004F5F5F4F8091200378E1279F90011124C4
:10478000280F311D81E042175307BCF135C08A3034
:1047900099F5209122034091FB025091FC0235E0F3
:1047A000349FC001359F900D112497FD0396959578
:1047B000879595958795019667E070E00E94A632EF
:1047C0004FE150E0BA01681B790B38E1369FA00138
:1047D000379F500D11244F5F5F4F8091200378E188
:1047E000279F90011124280F311D81E042175307A4
:1047F00024F402C081E0089580E00895EF92FF92D2
:104800000F931F93CF93DF9388E60E94012A8DECCC
:1048100093E060E00E94861C0E94A42988E690E054
:1048200067E070E00E94822A8DEC93E00E94411CB8
:10483000CEE1D3E0982F9695969596959E70292F68
:10484000220F220F920F8F70890F88838DEC93E0D7
:104850000E94411C982F92959F708F702AE0929F22
:10486000800D112489838DEC93E00E94411C982FC8
:104870009695969596959670292F220F220F920F56
:104880008F70890F8A838DEC93E00E94411C982FD2
:1048900092959F708F702AE0929F800D11248B83D8
:1048A0008DEC93E00E94411C982F92959F708F7021
:1048B0002AE0929F800D11248C838DEC93E00E945E
:1048C000411C982F92959F708F702AE0929F800DC7
:1048D00011248D838DEC93E00E94411C982F9F70D2
:1048E000925E82958F70E92E2AE0829FE00C11245F
:1048F000EE828A81698170E0488150E02C8130E04D
:104900000D8110E0F12C9EE4E91A98EFF90A90E08D
:104910000E949B1ECDB7DEB7E6E00C945136CF93D4
:10492000C82F8091F502882329F08091640080626D
:1049300080936400C7FF04C083E00E94B722C85779
:10494000C03420F082E00E94B722CC53C03220F065
:1049500081E00E94B722CE51C03118F080E00E9461
:10496000B7228091F502882321F080916400109293
:104970006400CF910895CF92DF92EF92FF921F9340
:10498000CF93DF93C82FD62F0E94C61A6B017C01EC
:1049900020E6C20E2AEED21EE11CF11C10927D020E
:1049A00014E090917D02911115C08C2F0E94CB30A4
:1049B00080937D02D11104C088E70E948F24F1CF3B
:1049C0000E94C61AC616D706E806F90650F71093D5
:1049D0007D02E7CF82E30E948F24DF91CF911F9168
:1049E000FF90EF90DF90CF9008958F929F92AF92BB
:1049F000BF92CF92DF92EF92FF926C010E94C61A93
:104A00004B015C01E12CF12C0E94C61ADC01CB01A8
:104A100088199909AA09BB098C159D05AE05BF0522
:104A200028F481E00E94CB30843071F781E00E944D
:104A3000CB30843011F480937D02FF90EF90DF90B3
:104A4000CF90BF90AF909F908F9008950E94402C80
:104A50000895A0E0B0E0EFE2F5E20C943336962F33
:104A60003FB7F894409172025091730260917402C2
:104A70007091750226B5A89B06C02F3F21F04F5FAD
:104A80005F4F6F4F7F4F3FBF762F652F542F4427C7
:104A9000420F511D611D711DE2E0440F551F661F3D
:104AA000771FEA95D1F72091EE023091EF02420F85
:104AB000531F611D711DEA01CC0FDD1FCC0FDD1FDF
:104AC0004C275D27EA01CC0FCD2FCC1FDD0BD195F4
:104AD0004C275D27EA01D695DC2FCC27D795C795C3
:104AE000C427D527D093EF02C093EE02082F10E021
:104AF000692F70E0601B710B072E000C880B990B5F
:104B00000E94923420E830E040E857E30E94F134FC
:104B10006B017C01BE0180E090E00E9490349B011B
:104B2000AC01C701B6010E94F1346B017C01B801F0
:104B3000110F880B990B0E9492349B01AC01C701A5
:104B4000B6010E94C1320E942D33862FCDB7DEB749
:104B5000E8E00C944F3680E090E00E940E1A0E942C
:104B6000BE2B81E08093F0021092F50208950F931E
:104B70001F93CF930BE011E0C0E08C2FB8010E948F
:104B8000EE2BCF5F085F1F4FC830B9F7CF911F9151
:104B90000F91089581E061E00E948C2B81EC93E0FD
:104BA0000E941F2C82E30E948F2408958FEE0E94A2
:104BB000652C8DEB93E00E941F2C089588EB93E009
:104BC0000E941F2C089580E30E94652C08950E9486
:104BD000601F0E94EA1F8091A60290E08E54984FB9
:104BE0009093FC028093FB020E94601F0E94EA1FC8
:104BF0008091A402809322030E94601F0E94EA1FFA
:104C00008091A5028093230380E063E00E948C2BB7
:104C10000E94601F0E94EA1FE091A3028E2F90E085
:104C2000FC013197E730F105D0F4E759FF4F0C94C0
:104C3000BA328CE094E011C085E094E00EC08CEFB5
:104C400093E00BC083EF93E008C08AEE93E005C0C9
:104C500082EE93E002C08AED93E00E941F2C8AE06E
:104C600063E00E948C2B809122038A3010F40E9412
:104C7000E325809122036AE070E00E94E0178EE253
:104C80000E94652C809123038A3010F40E94E32552
:104C9000809123036AE070E00E94E0178EE20E9498
:104CA000652C8091FB029091FC020E94C8168091B5
:104CB000F9029091FA020A9724F482E160E00E94DE
:104CC0008C2B0895A0E0B0E0E8E6F6E20C942F36D5
:104CD000142FE9014B01A12CB12C9C0140E050E0C4
:104CE00060E079E08DE390E00E94D53569017A01BA
:104CF00081E0C81AD108E108F108C114D104E1E04B
:104D0000EE06F10458F0CD2CDE2CEF2CFF24F1E060
:104D1000CF1AD108E108F10804E001C001E08114D4
:104D20009104A104B10479F00E94C61A860E971E60
:104D3000A81EB91E8092880290928902A0928A02CF
:104D4000B0928B020BC08FEF9FEFDC018093880243
:104D500090938902A0938A02B0938B02809185027E
:104D6000811122C0E0E5F4E08491809385026CE338
:104D700074E0FB019491E92FF0E0EE0FFF1FE35E7A
:104D8000FB4F259134913093870220938602FB01DB
:104D90006491E62FF0E0EE0FFF1FE656FC4FA59161
:104DA000B491EC918E2B8C93D0928700C0928600A8
:104DB0008091840090918500A0E0B0E0C816D906EB
:104DC000EA06FB0620F4D0928500C09284000061C0
:104DD0000093810080E18093800080916F00826069
:104DE00080936F00111104C0CE010E94262507C0D8
:104DF00080917D02843019F0CE010E94F524CDB758
:104E0000DEB7ECE00C944B36BC0180E00E94EE2B48
:104E100081E993E00E94FD2F80E00E94652C80E2F2
:104E20000E94652C0895CF93C42F0E948C2BCC2315
:104E300029F080E20E94652CC150F9CFCF910895EE
:104E4000A1E0B0E0E6E2F7E20C94393649830E9433
:104E50008C2B4981842F0E94652C2196E2E00C94D2
:104E60005536CF930E9477230E94F8228093F80250
:104E7000809120038A3018F481E060E005C06AE088
:104E80000E948632682F81E00E94F11680912003F3
:104E9000CAE06C2F0E94863284E0692F0E94F116CE
:104EA00087E06AE00E94F11680911F038A3018F4AF
:104EB0008AE060E005C06C2F0E948632682F8AE08D
:104EC0000E94F11680911F036AE00E9486328DE0F5
:104ED000692F0E94F11681E161E043E00E941327EF
:104EE00081E161E00E948C2B8091F702811104C066
:104EF0008091F602811103C088E70E94652C8091A1
:104F0000F502882319F084E40E94652C8091E10366
:104F1000882349F08091F802882311F08EE401C0C3
:104F20008EE60E94652C8091F402882341F083E094
:104F300062E00E948C2B8EEC93E00E941F2C81E19A
:104F400062E043E00E94132781E162E00E948C2B23
:104F50008091F302882319F084EF0E94652C8091E0
:104F60002C02882319F080E70E94652C8091F202C0
:104F7000882319F083E50E94652C809182028111BB
:104F800008C080918102811104C080918002882331
:104F900019F080E50E94652C86E00E94AF1A90937C
:104FA000FA028093F902C4E08AE00E948F2486E02E
:104FB0000E94AF1A2091F9023091FA02820F931FDA
:104FC0009093FA028093F902C15071F765E070E0A6
:104FD0000E94A632072E000C880B990B0E94923477
:104FE00020E030E040EA5BE30E94F13426E636E65A
:104FF00046E350EC0E94C1322CE938ED49E952E415
:105000000E94F1340E942D331616170634F46436CC
:1050100071052CF063E670E002C061E070E0CB0146
:10502000072E000CAA0BBB0B9C01AD016A33710566
:10503000A4F02953310941095109ABE5B0E00E94C0
:1050400016362AE230E040E050E00E94F735DA01FF
:10505000C9010896A11DB11D13C021503109410994
:105060005109A7E0B0E00E94163627E330E040E0A7
:1050700050E00E94F735DA01C9010196A11DB11D6A
:105080009093FA028093F90281E160E00E948C2BF8
:105090008091F9029091FA020A9744F481E160E06C
:1050A00040E20E9420270E94E32B02C00E94D92BDD
:1050B0008091F9029091FA020E94C8168091F10243
:1050C000882311F08BE201C085E20E94652C82E109
:1050D00060E00E948C2BCF91089581E993E00E94BB
:1050E000FD2F0E94B7250E94E7250E9431270895D1
:1050F0008F929F92AF92BF92CF92DF92EF92FF92E8
:10510000CF93DF936B017C010E94C61A4B015C01B7
:1051100082E793E00E948F16EC01892B69F40E94CC
:10512000C61AAB01BC01481959096A097B094C151B
:105130005D056E057F0560F3CE01DF91CF91FF9095
:10514000EF90DF90CF90BF90AF909F908F90089599
:10515000CF92DF92EF92FF92CF931092D0031092F2
:10516000CF0398EEC92E93E0D92EE12CF12CC092FA
:10517000D103D092D203E092D303F092D4038BED0B
:1051800091E09093CE038093CD0385E08093AA03B2
:1051900082E18093AB0383E18093AC03109294038C
:1051A000109293038BE092E090939203809391038B
:1051B0001092A1038FEF8093A00310929F0310928F
:1051C000A20387E280939C0310929D0310929E039A
:1051D00010929B0310929A0384E08093A30382E0D1
:1051E0008093A403C1E0C093A50380E18093A6034C
:1051F00080E28093A70380E48093A80380E88093F3
:10520000A90381E993E063E040E050E00E94032FAE
:105210001092750310927403C0927603D0927703B4
:10522000E0927803F09279038BEE91E09093730310
:1052300080937203109289031092880310928B035B
:1052400010928A0310928D0310928C0310928F0398
:1052500010928E03809190038E7F8D7F80939003B8
:1052600086958170682F6C2783E00E94861983E001
:1052700061E00E94D219E8E4F4E0E491E093820353
:10528000E4E3F4E0E491F0E0EE0FFF1FE35EFB4F98
:1052900085919491909384038093830382E060E0EE
:1052A0000E94D2198091900381FD04C082E061E0E8
:1052B0000E94861982E080937E03E7E4F4E0E491A3
:1052C000E0937F03E3E3F4E0E491F0E0EE0FFF1FEF
:1052D000E95DFB4F859194919093810380938003C6
:1052E0008BEF91E090937303809372030E947E2969
:1052F000CF91FF90EF90DF90CF90089510927103BF
:105300001092700310926F0310926E0310926D034F
:1053100081E080936C0310926B0382E161E00E9454
:10532000861983E161E00E948619E9EBF0E0808153
:105330008E7F808380818D7F808388E48093B80016
:1053400085E48093BC00089590916A0320916E03D8
:10535000213208F04AC080916D038111FCCF32E008
:1053600030936D0331E030936C033FEF309348038B
:105370001092470320934603AAE4B3E046E253E0C9
:10538000FA013E2F341B321718F43D913193F9CFB7
:105390001092250320912503990F922B90932503BA
:1053A00090916B03913061F410926B0390912503FF
:1053B0009093BB009091BC0093FDF8CF95EC01C099
:1053C00095EE9093BC0090916D039230E1F3909133
:1053D00048039F3F79F080914803803241F08091EB
:1053E0004803803331F084E005C081E003C082E0EF
:1053F00001C083E010926F0310926E031092490374
:10540000089591E09093490380936A0310926F038B
:1054100010926E0308950F931F93CF9388E60E9416
:10542000012A8DEC93E060E00E94861C0EE113E0FF
:10543000F8018081CAE06C2F0E948632692FF0E16A
:105440008F9F600D11248DEC93E00E94861CF80163
:1054500081816C2F0E948632692FF0E18F9F600D51
:1054600011248DEC93E00E94861CF80182816C2F40
:105470000E948632692FF0E18F9F600D11248DEC20
:1054800093E00E94861CF80183816C2F0E94863273
:10549000692FF0E18F9F600D11248DEC93E00E9445
:1054A000861CF80184816C2F0E948632692FF0E1FE
:1054B0008F9F600D11248DEC93E00E94861CF801F3
:1054C00085816C2F0E948632692FF0E18F9F600DDD
:1054D00011248DEC93E00E94861CF80186818E5188
:1054E0006C2F0E948632692FF0E18F9F600D11248E
:1054F0008DEC93E00E94861C0E94A429CF911F91FD
:105500000F91089590916D039111FCCF613208F0D5
:1055100060E291E090936D0390936C032FEF2093E2
:10552000480310924703260F2093460390932503C8
:1055300090912503880F892B8093250380916B031D
:10554000813061F410926B03809125038093BB003E
:105550008091BC0083FDF8CF85EC01C085EE80937F
:10556000BC0080916D038130E1F380914703861781
:1055700010F460914703A6E2B3E02EEF32E0F901A8
:105580008E2F821B861718F48D918193F9CF10927C
:10559000710360937003862F0895A0E0B0E0E3EDFF
:1055A000FAE20C943336E82EC62ED42EE901EDEF44
:1055B000E80FE03128F4F0E0E953FE4FF08001C03D
:1055C000F12C6AE070E080E090E00E947828892B5E
:1055D00029F082E793E00E94A716F3CF82E793E0D9
:1055E0006EE70E943B1682E793E062E06F0D0E9437
:1055F0003B1682E793E06E2D0E943B16FF2069F078
:1056000082E793E06C2D0E943B1682E0F81205C001
:1056100082E793E06D2D0E943B1682E793E06FEEE8
:105620000E943B16209749F00115110531F0CE017B
:1056300060E070E0A8010E94663368EE73E080E0ED
:1056400090E00E947828E12CF12C0150110962E3CE
:1056500070E080E090E00E947828892B89F082E752
:1056600093E00E94A716209791F3E016F10678F7D1
:10567000FE01EE0DFF1D8083C70101967C01E7CF7F
:10568000CDB7DEB7E8E00C944F36A5E0B0E0EBE430
:10569000FBE20C94373660E040E09E012F5F3F4F05
:1056A00005E010E00E94CD2ACE01019660E070E096
:1056B00040E150E00E946D33CB012596E4E00C946C
:1056C00053360F931F9360E040E020E030E000E0AD
:1056D00010E00E94CD2A1F910F9108958EE00E9444
:1056E000612B08950F931F93682F81E140E020E024
:1056F00030E000E010E00E94CD2A1F910F91089544
:10570000E0919103F09192030084F185E02D81E90D
:1057100093E060E009950895A8E0B0E0E2E9FBE2DB
:105720000C9439361D8290E49E8324E12F8324E576
:10573000288719829A8390E19B8390E59C839091BE
:105740009803691710F06FEF690F40919903262FA6
:1057500030E0FE01E20FF31F403121F4943011F4E8
:10576000918101C09581682F690F606881E993E09C
:105770000E94EB2F2896E2E00C9455360E94802B75
:10578000E1E9F3E065816B7F65836860CF010E948A
:10579000EB2F0895E1E9F3E06581862F846085832E
:1057A0006C60CF010E94EB2F81E993E00E94F42FFF
:1057B0000895E1E9F3E065816E7F65836860CF015C
:1057C0000E94EB2F0895E1E9F3E06581862F816067
:1057D00085836960CF010E94EB2F0895A1E0B0E0BE
:1057E000E4EFFBE20C943336162F877028E0829F9B
:1057F000C0011124682F606481E993E079830E94DD
:10580000EB2F83E790E00197F1F7C12E7981D72E36
:105810008601085F1F4F8BE9E82EF12CF60161919C
:105820006F0181E993E00E94182FC7010197F1F7FA
:10583000C016D10699F72196E8E00C944F360F93E5
:105840001F93CF93DF938C01C0E0D0E0F801EC0F01
:10585000FD1F6491662371F0E0919103F091920332
:105860000190F081E02D81E993E00995892B11F0F9
:105870002196ECCFCE01DF91CF911F910F9108952A
:105880008F929F92AF92BF92CF92DF92EF92FF9250
:105890006C010E94C61A4B015C01E12CF12C0E94A4
:1058A000C61ADC01CB0188199909AA09BB098C1514
:1058B0009D05AE05BF0598F3FF90EF90DF90CF9068
:1058C000BF90AF909F908F900895682FE0919103C3
:1058D000F09192030190F081E02D81E993E0099528
:1058E00008958F929F92AF92BF920F931F93CF9381
:1058F000DF93CDB7DEB7A1970FB6F894DEBF0FBE2A
:10590000CDBF19A2423008F44AE08E010F5D1F4F4F
:10591000842E912CA12CB12CA50194010E94D53587
:10592000E62FB901CA0101501109EA3014F4E05D13
:1059300001C0E95CD801EC93232B242B252B61F7C4
:1059400081E993E0B8010E94D52FA1960FB6F89493
:10595000DEBF0FBECDBFDF91CF911F910F91BF90E2
:10596000AF909F908F9008950F931F93CF93DF93E5
:10597000EC018C01065F1F4FC017D10750F480E582
:10598000BE010E943521803211F00E94652C2196C3
:10599000F3CFDF91CF911F910F910895CF92DF92B6
:1059A000EF92FF92CF93DF938BE891E00E94042760
:1059B0008BE894E00E941F2C82E061E00E948C2B17
:1059C0008AE794E00E941F2C82E062E00E948C2B08
:1059D00086E794E00E941F2C82E063E00E948C2BFB
:1059E00082E794E00E941F2CC0E0D4E180917D0208
:1059F000843009F47BC183E061E00E948C2B8091AC
:105A0000E103882319F08EE694E002C08AE694E070
:105A10000E941F2C8091E003811102C040E201C06E
:105A200048E580E161E00E94202786E062E00E9474
:105A30008C2B8091DF038A3010F40E94E325809143
:105A4000DF036AE070E00E94E0178AE30E94652CA1
:105A50008091DE038A3010F40E94E3258091DE03FA
:105A60006AE070E00E94E0170E94DE2586E063E0B5
:105A70000E948C2B8091DD038A3010F40E94E32574
:105A80008091DD036AE070E00E94E0178AE30E94E3
:105A9000652C8091DC038A3010F40E94E32580910C
:105AA000DC036AE070E00E94E0170E94DE25C2304D
:105AB00048F480E062E040E20E94202780E061E05C
:105AC0000E948C2B8EEF8C0F843068F480E061E0B4
:105AD00040E20E94202780E063E040E20E9420270D
