:100000000C9446020C946E020C946E020C94FA1C32
:100010000C94FA1C0C94FA1C0C9436300C946E025E
:100020000C946E020C946E020C946E020C94E721F8
:100030000C946E020C946E020C946E020C946E0280
:100040000C94B01C0C946E020C946E020C946E0214
:100050000C946E020C946E020C946E020C946E0260
:100060000C94681E0C946E02B50BB80BBA0BBC0B4B
:10007000BE0BC10BC30BC50BC70BC90BCB0BEC0BDA
:10008000F90B0A0C160C210C2D0C430C540C590CBA
:100090006B0C2B0776108D109110C810FA100C11F4
:1000A000E316EA16F7160A1712171A171F17211761
:1000B000261728173217FB18021914192C1936198C
:1000C000401952195C1963197B198E199E19B619BA
:1000D00029252B252E253025322534253725392570
:1000E0003B253D255A256125682576258B259925B3
:1000F000A725B525C925D725426972746864617939
:10010000004861707079005775737374657374205B
:1001100044752C20646173732E2E2E004963682071
:1001200062696E206869657221004765736368695A
:10013000636874656E2068004155582D45696E6787
:10014000616E6700456967656E657320680052617E
:1001500064696F2068005B205D204D5033005B2098
:100160005D20526164696F005B205D205765636BA1
:10017000746F6E0020205B6175735D0020205B61F1
:100180006E205D004D503300526164696F00546F02
:100190006E005765636B746F6E202020205B2020FB
:1001A0002020205D004E657565205765636B7A657C
:1001B00069740061757300616E20002E3230004E4C
:1001C000616368746D6F647573205B2020205D002F
:1001D0004E657565205568727A6569742F4461743F
:1001E000756D005A3A2000416B6B753A0020543A05
:1001F000200052414D3A2020004932433A20002D40
:10020000303830313138004669726D776172653A45
:1002100020006279204E696B6F6C616920526164C5
:100220006B6500446965736572204E4F4B4F2067C4
:100230006568207274004D65696E204E4F4B4F000B
:1002400044697374616E7A6C696368742020205B02
:10025000205D005374756D6D20202020202020200B
:1002600020205B205D00416B6B75207370617265AF
:100270006E202020205B205D007765697465722EFA
:100280002E2E0044697374616E7A202B2F2D205B13
:10029000205D004576656E747320202B2F2D205B2A
:1002A000205D004C454420202020202B2F2D205B5A
:1002B000205D004E4F4B4F207374656C6C656E0073
:1002C0007A656974207374656C6C656E00416C614D
:1002D000726D207374656C6C656E00537069656C2B
:1002E0002077617320766F72004E617365206472AF
:1002F00020636B656E002061756620560020557086
:1003000064617465206572666F6C677265696368A5
:100310000053616D7374616700467265697461674B
:1003200000446F6E6E2E746167004D697474776F50
:100330006368004469656E73746167004D6F6E7425
:10034000616700536F6E6E7461670000737065695A
:10035000636865726E2E2E2E2020202020004765B7
:10036000627572747374616721004B0343033C032D
:1003700033032A0321031903110353746174696F52
:100380006E20005B317C735D205B327C735D205B93
:10039000337C735D20005D5B3C5D5B205D5B3E5D9F
:1003A0005B0000000000240027002A000000000875
:1003B000000201000003040700000000000000002C
:1003C0005041555345004B65696E65204D50337360
:1003D0000047657363686963687465005B3C5D5BD7
:1003E000205D5B205D5B3E5D00205765636B746F35
:1003F0006E202B2F2D205B205D0061757300616ED8
:10040000200062697300766F6E005B2020205D2003
:1004100044696D6D656E205B205D004E616368749C
:100420006D6F647573207374656C6C656E0000008D
:100430000000250028002B000000000023002600FB
:100440002900040404040404040402020202020257
:100450000303030303030102040810204080010288
:100460000408102001020408102020416C61726D04
:1004700020004E61736520647220636B656E0020FE
:100480005568720072656E001E293B2211241FBE42
:10049000CFEFD8E0DEBFCDBF12E0A0E0B1E0E8E6EC
:1004A000F9E602C005900D92A631B107D9F723E015
:1004B000A6E1B2E001C01D92A63EB207E1F712E04C
:1004C000C5E4D2E004C02197FE010E949A34C434EE
:1004D000D107C9F70E94B5020C94A7340C94000010
:1004E000CF92DF92EF92FF920F931F93E82FF92F95
:1004F00005C0015011092109310961F1908196234C
:100500009417B9F305C0015011092109310911F1FE
:10051000908196239413F7CFC12CD12CE12CF12C90
:100520000AC08FEFC81AD80AE80AF80A0C151D0588
:100530002E053F0579F080818623841791F36C2D79
:100540007D2D8E2D9F2D1F910F91FF90EF90DF90AD
:10055000CF90089560E070E080E090E01F910F91EF
:10056000FF90EF90DF90CF900895A5E0B0E0EBEB27
:10057000F2E00C947A33789484B5826084BD84B5BB
:10058000816084BD85B5826085BD85B5816085BD8E
:1005900080916E00816080936E0010928100809146
:1005A00081008260809381008091810081608093CE
:1005B0008100809180008160809380008091B100F3
:1005C00084608093B1008091B00081608093B0001E
:1005D00080917A00846080937A0080917A008260B2
:1005E00080937A0080917A00816080937A00809174
:1005F0007A00806880937A001092C1001CBC80E869
:1006000080BF8FE380937E0080916400846080933C
:100610006400809164008260809364008091640033
:1006200080648093640088EE8AB98CE284B98EE39A
:1006300087B980E48BB981E088B910929903109250
:1006400098031092970310929603109295031092BC
:1006500094038DE991E090939B0380939A0390918A
:100660008A03963108F057C02DEB30E030939503A4
:10067000209394032BE931E0309397032093960362
:100680002CE231E030939903209398032091680085
:10069000983050F031E09E3008F430E081E001C045
:1006A000880F3A95EAF701C084E0822B80936800B6
:1006B000983038F09E3040F0963148F020E030E03D
:1006C00008C02DE630E005C02BE630E002C02CE685
:1006D00030E03093920320939103983030F481E01E
:1006E00001C0880F9A95EAF70EC0292F30E09E309E
:1006F00018F42850310902C02E50310981E001C0A0
:10070000880F2A95EAF78093930380919A0390913A
:100710009B030197F1F78091980390919903892B9E
:1007200021F1809183029091840223E08E37920719
:10073000E1F0009711F00E94741D80919C038E7F60
:1007400080939C0310928102109282028EE793E0C4
:100750009093840280938302E0919103F09192033D
:10076000908180919303892B80838EE00E94882B57
:100770008CE00E94882B84EF91E00E94712C86E02F
:100780006EE140E020E030E000E010E00E94F42A5A
:1007900084E00E94952B0E944C1A0E94041A8091BA
:1007A000B6039091B703807F8A609093B7038093DC
:1007B000B6030E94E2190E94401A80E090E00E9475
:1007C00000333EE1839FC0011124909399028093EE
:1007D000980281E00E94602291E0811101C090E0C6
:1007E0009093250282E00E9460228093220283E09F
:1007F0000E94602291E0811101C090E09093260256
:1008000084E00E9460228093DE0385E00E946022E3
:100810008093DD0386E00E9460228093DC0387E002
:100820000E9460228093070388E00E9460228093E8
:10083000290289E00E946022809321028AE00E94BE
:10084000602291E0811101C090E0909320028BE042
:100850000E94602291E0811101C090E090930D030D
:100860008CE00E94602280930B038DE00E94602246
:1008700080930A038EE00E946022809309038FE038
:100880000E9460228093080380E10E94602291E030
:10089000811101C090E090931F0281E10E946022CB
:1008A000182F82E10E946022282F30E0C9014AE01F
:1008B000149F800D911D11249093920280939102B8
:1008C00083E10E946022809306031BE3E12E12E085
:1008D000F12E15E1812F0E946022082F81E0810F07
:1008E0000E946022282F30E0C9016AE0069F800D37
:1008F000911D1124F701819391937F011E5F1B319C
:1009000049F78BE10E94602291E0811101C090E0E3
:1009100090931E028CE10E94602291E0811101C03F
:1009200090E090930C0387E560E070E00E946B22FA
:1009300080931D0287E561E070E00E946B22809346
:100940001C0287E562E070E00E946B228093030343
:1009500088E60E94282A80ED93E063EA71E00E9415
:1009600057300E94CB2984E10E94E21388E60E945E
:10097000282A80ED93E066EA71E00E9457300E94D9
:10098000CB290E9451138091A103882309F499C0B7
:100990008091A20388608093A203B4E0FB2EF092C2
:1009A000A5038BE39DE00197F1F78DE993E060915A
:1009B000A8030E946D308BEF98E00197F1F78DE965
:1009C00093E060E30E9487300BE416E4C8010197CE
:1009D000F1F78DE993E060E30E948730C801019749
:1009E000F1F78DE993E060E30E94873083E592E0C0
:1009F0000197F1F78DE993E060E20E9487308091E2
:100A0000A20380620E94B42BF092A3030E94042CE4
:100A10000E94C62B82E08093A40386E00E94B42B40
:100A200082E00E94B42B8BE39FE10197F1F70E94D3
:100A3000672D84E190E00E940033182F8A3008F07F
:100A400053C00E94C62B8DEF92E00E94502C83E091
:100A500061E046E50E94B42D80E090E00E94B3186A
:100A60000E948D2D812F6AE00E946634892F90E0CC
:100A70000E94B31886EF92E00E94502C81E090E033
:100A80000E94B3180E948D2D80E090E00E94B31860
:100A900084E064E00E94CE2B89EE92E00E94502C0C
:100AA0008BE064E045EF0E94B42D84E190E06AE0C1
:100AB0000E94083381E060E00E9451150E94C62B1D
:100AC00013C080E28093A1038091A103803408F0D9
:100AD0005FCF0E94282A0E94CB29882309F458CF8F
:100AE0008091A1038F5FEECF0E94902288E592E073
:100AF00060E570E040E020E530E00E94A32F80E751
:100B000093E066E970E040E026E930E00E94A32F20
:100B10005E9A0E9461120E940C1280933A0287E44E
:100B20000E946C2B409103032EE13FEF241B3109FF
:100B3000820F931F9093020380930103F3E6FC83DB
:100B400023E62B83CE0101961C010E94611287E0EF
:100B50000E948D1C8132934024F0809124028823CE
:100B600051F087E00E948D1C8032934004F5809103
:100B700024028823E1F09091240281E08927809368
:100B8000240287E00E948D1C8032934014F00C9464
:100B9000D80F80912802882311F40C94D80F8091EB
:100BA0002002882311F40C94D80F0E945B2D8091B1
:100BB0002F032B81281709F4A5C180912B028823CC
:100BC000E1F080910C038823C1F080912302811110
:100BD00014C080912002882339F080912402811171
:100BE00003C00E945B2D09C080912802811105C0BD
:100BF0000E94A32B81E08093280210921B02809117
:100C000030033C81381709F4E3C08091230281113D
:100C10007BC00E94721290911C0280913303981342
:100C20006FC090911D0280913203981369C081E0DA
:100C30008093270280911A02811166C080912B0255
:100C4000811162C063E771E00E942B2C80919302B6
:100C500081110E94401A8091940281115F988091C5
:100C60002502811108C080919502811104C082EE95
:100C700090E00E94962280ED97E00E94712C0E94E5
:100C8000E021082F0E94E021081721F04C9902C0B2
:100C90000C94F00F80919002843011F40C94F00FBA
:100CA0000E94C62B87E061E00E94CE2B81E091E09C
:100CB0000E94502C86E062E00E94CE2B88EF90E0EC
:100CC0000E94502C81E065E00E94E52C182F112332
:100CD00091F080E064E10E94E52C60E040E00E9439
:100CE000B42D80E064E10E94E52C63E040E00E94C6
:100CF000B42D1150ECCF84EF91E00E94722FC2CF3F
:100D000010921A021092270210911F020E94DB1209
:100D1000181709F45DC080913003843008F458C07E
:100D2000112311F40C94071081508093300381E05B
:100D3000D12ED826D0921F028091300360912F03CC
:100D400070E040912E0350E02091320330E000919A
:100D5000330310E0E0903802F090390290E00E94F6
:100D6000B41F80913802825B809334030E94322A40
:100D700080919802805F6D2D0E944622009198021A
:100D8000109199020E3D43E0140711F40C940A10DF
:100D9000025E1F4F91E0F92EF00E80919802890FAC
:100DA0009D830E946022682F8F2D0E9446229D8184
:100DB0009F5F9E3181F71093990200939802C801BA
:100DC0006EE170E00E94723480E090E00E9408338F
:100DD00080912302811102C00E940E1480912B0287
:100DE000811190C08091250281118CC080913602C2
:100DF000909137020A977CF48091240281110BC0F4
:100E00000E94902288E993E060E570E040E020E5F0
:100E100030E00E94A32F4C9975C08091040381118A
:100E200071C08091930281116DC0809136029091C2
:100E3000370202970CF466C0E0912102F0E0E5551C
:100E4000FE4F108161E0610F81E00E94E52C81136B
:100E500059C00C940E1080E062E00E94E52C182F1F
:100E600080E061E00E94CE2B80E065E60E94E52CE8
:100E70006AE0869FC00111240E945124111106C00E
:100E80008DE993E069EA71E00E94573080E062E00A
:100E90000E94CE2B80E065E60E94E52CEAE08E9F62
:100EA000C001112488519C4F0E94512480E065E6C6
:100EB0000E94E52CFAE08F9FC0011124112311F448
:100EC0000C94891028EB3BE0820F931F0E94512461
:100ED0008BE090E00E94962281E061E00E94511533
:100EE0000E944A1580912802882361F080910D03A9
:100EF000882311F40C94811080912B02882311F423
:100F00000C94811080912302811175C080912A0276
:100F1000811171C080912902882309F46CC02D9A37
:100F200083E290E00197F1F72D98E2E6F4E0449136
:100F3000EEE4F4E0E491F0E0EE0FFF1FE85CFB4F1D
:100F400085919491642F00E412E42FE030E00E9438
:100F50007002611571058105910549F0DC01CB0135
:100F60000196A11DB11DBC01CD019F7003C060E0C1
:100F700070E0CB01109129022AE330E040E050E01C
:100F80000E94263369E1169FC0011124092E000C2E
:100F9000AA0BBB0B281739074A075B0760F580913E
:100FA0002802882381F080911E02882361F00E942C
:100FB000AB2B0E94A41C60931602709317028093BF
:100FC00018029093190280912B02811114C0809114
:100FD0001B02811110C08091930281110CC080917D
:100FE0000403811108C080912502811104C04C992D
:100FF00002C00C942E10809128028823C9F08091A1
:101000001E028823A9F00E94A41C009116021091D0
:10101000170220911802309119020A561F4F2F4FC4
:101020003F4F061717072807390710F40C943A109A
:1010300080912F038B83909130039C8380E00E94EA
:10104000C52D8093900290912302823009F45BC7F2
:10105000833009F46CC7813009F09FC791119DC797
:1010600080E50E94E2130E94182C0E94C62B8091FA
:101070002502882331F088E70E94962CCC24C39463
:1010800001C0C12C82E060E00E94CE2B8BED92E08B
:101090000E94502C82E061E00E94CE2B8DEC92E009
:1010A0000E94502C81E062E00E94CE2B0E94842D91
:1010B00080EC92E00E94502C82E063E00E94CE2BF4
:1010C00083EB92E00E94502CDC2C809190028430C3
:1010D00009F435C780E06D2D4EE70E94B42D80E005
:1010E00061E00E94511580919002823009F4F6C6A9
:1010F000833009F4FEC6813041F7E1E0DE1609F4E1
:10110000E7C0DE1638F1F2E0DF1609F485C223E00D
:10111000D212DBCF0E94952D83EA92E00E94502CE0
:1011200082E061E00E94CE2B83E992E00E94502C85
:1011300082E062E00E94CE2B83E892E00E94502C75
:1011400082E063E00E94CE2B89E792E00E94502C5F
:1011500010E064C480E06BE771E00E942B2C0E94D9
:10116000952D8EE491E00E94502C0E947C2D82E00F
:1011700061E00E94CE2B84E491E00E94502C0E94FA
:101180007C2D82E062E00E94CE2B88E391E00E94F9
:10119000502C82E063E00E94CE2B8AE291E00E9414
:1011A000502C0E947C2D10E080919002843009F434
:1011B0008CC080919302811102C040E201C040E0E6
:1011C00081E060E00E94B42D80919702811102C0FD
:1011D00040E201C040E081E061E00E94B42D8091D6
:1011E0009402811102C040E201C040E081E062E06F
:1011F0000E94B42D80919602811102C040E201C08C
:1012000040E081E063E00E94B42D80E0612F4EE772
:101210000E94B42D81E061E00E94511580919002FE
:10122000823009F43EC0833009F445C0813009F0B2
:10123000BBCF113059F038F01230A1F0133009F063
:10124000B3CF81E00CC00E948B15AECF809101031B
:1012500090910203892B11F082E001C083E00E948B
:101260009926A2CF8091940281110EC080919302A1
:1012700081110E94D92280910403811102C04C99EE
:10128000FDC65E985F9A02C05E9A5F989091940244
:1012900081E089278093940284EF91E00E94712C71
:1012A00083CF80E0612F40E20E94B42D133008F01C
:1012B0007BCF1F5F79CF80E0612F40E20E94B42D89
:1012C000112309F471CF11506FCF0E94672DFDCE0D
:1012D000D09205038BE891E00E949C2D8091DD0364
:1012E0008A3010F40E94892D8091DD036AE070E05D
:1012F0000E94CB198AE30E94962C8091DE038A30EB
:1013000010F40E94892D8091DE036AE070E00E9453
:10131000CB190E94842D80E061E00E94CE2B85EAEB
:1013200091E00E94502C82E063E00E94CE2B82E983
:1013300091E00E94502C8EE063E00E94CE2B8091C1
:10134000DC03813049F028F0823051F484E891E0E8
:1013500005C08EE891E002C088E891E00E94502C20
:101360000E94212C00E010E06AE0F62E74E1E72EE6
:1013700080919002843009F436C1153010F062E09B
:1013800001C063E080E040E20E94B42D153010F00F
:1013900063E001C062E080E04EE70E94B42D82E08D
:1013A00062E00E94CE2B8091DD038A3010F40E940F
:1013B000892D8091DD036AE070E00E94CB198AE3F9
:1013C0000E94962C8091DE038A3010F40E94892DB1
:1013D0008091DE036AE070E00E94CB190E94842DA8
:1013E00080912602882319F08CE791E002C084E7FF
:1013F00091E00E94502C123089F030F4112361F0FA
:101400001130A1F483E00FC0143061F048F01530C2
:1014100069F48EE063E008C082E005C085E003C0A7
:1014200086E001C08EE062E00E94CE2B80E061E0A9
:101430000E94511580919002823009F4C8C0833017
:1014400009F4CAC0813009F093CF123009F44FC0BB
:1014500028F4112349F11130A9F1C3C0143009F463
:1014600062C008F452C0153009F0BBC00E94182CAD
:10147000B0902602109226020E94952D88E691E0F7
:101480000E94502C82E061E00E94CE2B8EE591E01C
:101490000E94502C82E062E00E94CE2B86E591E013
:1014A0000E94502C00E060C08091DD038E3020F45B
:1014B000865F8093DD0395C06F2D0E946634909304
:1014C000DD038FC02091DD03822F6F2D0E946634D3
:1014D000993011F4295001C02F5F2093DD038091D2
:1014E000DD03883109F07DC0E092DD037AC0809190
:1014F000DE03813320F4865F8093DE0372C06F2D9C
:101500000E9466349093DE036CC02091DE03822F2C
:101510006F2D0E946634993011F4295001C02F5F5D
:101520002093DE035EC090912602892780932602D5
:1015300058C083E06091DC0348E50E94B42D80E050
:10154000602F4EE70E94B42D83E0602F0E94CE2BC7
:1015500080E061E00E945115809190028230E9F0B4
:10156000833021F1813029F080919002843009F795
:1015700026C00093DC0386E0602F0E944622809103
:10158000DC03811103C081E00E9419268091DC03F5
:10159000823051F70E941926E7CF80E0602F40E2A9
:1015A0000E94B42D023000F70F5FDECF80E0602F85
:1015B00040E20E94B42D0023B9F20150D5CFB09281
:1015C000260280E063E071E00E942B2C0AC01530F7
:1015D00008F0CECE1F5FCCCE112309F4C9CE115036
:1015E000C7CE01E0C5CE002379F083E060912602EA
:1015F0000E94462284E06091DE030E94462285E03C
:101600006091DD030E94462280E063E071E00E9469
:101610002B2C1092050359CDA090300380902F03FE
:10162000B09032039090330383E891E00E949C2DA8
:1016300080ED91E00E94502C82E061E00E94CE2B70
:101640008FEB91E00E94502C0E94212C8091380257
:1016500090913902805D97409093390280933802CF
:1016600010E000E080919002843009F457C182E0DC
:1016700062E00E94CE2B39E03A1510F00E94892DCD
:101680008A2D6AE070E00E94CB198AE30E94962CB2
:1016900049E0481510F00E94892D882D6AE070E01D
:1016A0000E94CB190E94842D82E063E00E94CE2B21
:1016B00069E06B1510F00E94892D8B2D6AE070E0B7
:1016C0000E94CB190E948D2D89E0891510F00E948F
:1016D000892D892D6AE070E00E94CB198BEB91E097
:1016E0000E94502C80913802909139020A9714F48C
:1016F0000E94892D80913802909139020E94B3187E
:101700008EE061E00E94CE2B80910D03882319F0BA
:1017100087EB91E002C083EB91E00E94502C80E0C7
:101720000111AFC462E040E20E94B42D80E061E0AC
:101730000E94CE2B8BEF800F863048F480E062E071
:1017400040E20E94B42D80E063E00E94CE2B8EE741
:101750000E94962C402E512C9BE049165104F8F41F
:10176000F201EC5CFF4F0C949A348EE061E015C0FE
:1017700082E005C083E003C085E001C086E062E04E
:101780000CC082E009C083E007C085E005C086E0A8
:1017900003C08AE001C08BE063E00E94CE2B80E0B2
:1017A00061E00E94511580919002823009F4A8C036
:1017B000833009F4AAC0813009F054CF002349F0E6
:1017C000F2013197EA30F10590F4E15CFF4F0C949F
:1017D0009A340E946B2446CFEDE0EA1518F0FAE047
:1017E000AF0E05C08A2D6AE00E946634A92E11E072
:1017F00039CF8A2D6AE00E946634993019F427EFB8
:10180000A20E01C0A39438E111E0A3122BCF54E142
:10181000A52E28CF40E3481518F06AE0860EE7CFE2
:10182000882D6AE00E946634892EE1CF882D6AE017
:101830000E946634993019F487EF880ED8CF8394CC
:10184000D6CF95E19B1518F0EAE0BE0ED0CF8B2DD8
:101850006AE00E946634B92E0DC08B2D6AE00E94AA
:101860006634993019F4F7EFBF0E01C0B3942FE13D
:101870002B1530F0B110BBCF11E0BB24B394F2CEE6
:101880004EE1B42EB4CF32E0391518F04AE0940E90
:10189000AECF892D6AE00E946634992E9111A7CFB0
:1018A00011E099249394DECE6BE0691598F193943E
:1018B0009ECF80913802909139028935910514F4B8
:1018C0000A9604C06AE070E00E9486349093390260
:1018D000809338028CCF2091380230913902C901AF
:1018E0006AE070E00E948634099719F429503109A2
:1018F00002C02F5F3F4F309339022093380277CFD9
:101900000A3008F0AFCE0F5FADCE002309F4AACEA7
:101910000150A8CE11E03AE0932EA4CEE090380218
:10192000F090390280E3E81A88EFF80AF092390261
:10193000E0923802112339F1682D70E02B2D30E050
:10194000092D10E08A2D90E040E050E00E94B41F85
:10195000A092300380922F0310922E03B092320394
:101960009092330380913802825B809334030E940B
:10197000322A0E944A150E94DB12682F80931F02B0
:1019800080E10E94462280E063E071E00E942B2CFF
:101990009CCB0E94212C111147C080912202ECE1C6
:1019A0008E9FC00111240E94331C133011F40E9439
:1019B000182C80E0612F4EE70E94B42D8FE060E08C
:1019C0000E94CE2B809122026AE070E00E94CB1927
:1019D0008FE061E00E94CE2B809121026AE070E0EE
:1019E0000E94CB198FE062E00E94CE2B80912902E9
:1019F0006AE070E00E94CB198FE0612F0E94CE2B2D
:101A000080E061E00E94511580919002823009F4DB
:101A100047C2833009F44DC2813049F08091900271
:101A2000843009F0B6CF51C280E090E0BCCF1130D5
:101A3000E1F128F1123009F448C0133079F70E941F
:101A4000952D86E692E00E94502C82E061E00E9493
:101A5000CE2B83E592E00E94502C82E062E00E944F
:101A6000CE2B80E492E00E94502C82E063E00E9442
:101A7000CE2B86E392E00E94502C00E06AC0809159
:101A80002202893020F48F5F8093220202C01092DC
:101A9000220260912202FCE16F9FC00111246D833C
:101AA0000E94331C82E06D810DC08091210289303B
:101AB00020F48F5F8093210202C01092210289E0FE
:101AC000609121020E944622A9CF8091290289308B
:101AD00020F48F5F8093290202C01092290288E0CF
:101AE00060912902EFCF80912002811137C040E23E
:101AF00082E160E00E94B42D80912502811130C006
:101B000040E282E161E00E94B42D80911E028111C9
:101B100029C040E282E162E00E94B42D80E0602FA3
:101B20004EE70E94B42D82E1602F0E94CE2B03303D
:101B3000D8F40E94212C80E061E00E945115809130
:101B40009002823009F498C1833009F49FC181303A
:101B500071F080919002843031F660CF48E5C8CFB3
:101B600048E5CFCF48E5D6CF0E94182CE4CF01300E
:101B700009F1C8F00230C1F1033059F78BE691E06A
:101B80000E949C2D83E292E00E94502C81E160E053
:101B90004FEE0E94B42D80E061E00E94CE2B24E144
:101BA000E22EF12C2DC06091200268276093200264
:101BB0008AE020C00E94182C8091250281110BC060
:101BC0000E94D92282E161E04EE20E94B42D0E947F
:101BD000C5220E94D5226091250281E0682760938A
:101BE00025020E944622B5CF60911E0268276093AD
:101BF0001E028BE10E94462282E30E94E213A9CFDB
:101C00008CEE8E0D843119F480E062E004C08832DD
:101C100021F480E063E00E94CE2B87E5B7010E94AB
:101C20006B220E94962C2FEFE21AF20A30E5E3169F
:101C3000F10431F780E060E00E94511580E063E03C
:101C400071E00E942B2C0E94C62B80E06BE00E946A
:101C5000DC1883E060E00E94DC1886E06CE00E9403
:101C6000DC1888E060E00E94DC188DE061E00E94F2
:101C7000DC1880E161E044E00E94B42D81E160E085
:101C80000E94DC1880E063E00E94CE2B82E192E0AB
:101C90000E94502C80919002843009F45ACF80E049
:101CA0000E94C52D8093900280E00E94C52D823055
:101CB00089F780919002843069F380E00E94C52DFD
:101CC0008093900280E00E94C52D833091F70E949E
:101CD000C62B87E092E00E94502C81E090E00E94A9
:101CE000B3180E948D2D80E090E00E94B3188FEF12
:101CF00091E00E94502C80E061E00E94CE2B89EFA1
:101D000091E00E94502C98E0F92E8F2D0E94282AF5
:101D10000E94CB29811108C088E70E94962C8F2D44
:101D200060E170E00E94CB19F39448E7F412EDCF24
:101D300080E062E00E94CE2B82EF91E00E94502C66
:101D40008091E0039091E103009711F486EE93E017
:101D5000F101E81BF90BCF010E94B3188DEE91E061
:101D60000E94502C88E60E94282A80ED93E061E1D1
:101D70000E94111E0E94CB2988E690E062E070E08C
:101D80000E94A92A9091CE038091CF03981769F100
:101D900080ED93E00E94CC1D5C0180ED93E00E94F9
:101DA000CC1D7C01B5016F777727072E000C880BBF
:101DB000990B0E94E3314B015C01B701772786E064
:101DC000759567958A95E1F7072E000C880B990B9E
:101DD0000E94E33120E030E040E85EE30E944232BE
:101DE000A50194010E94C13303C060E070E0CB0103
:101DF00040E00E94891A8FED0E94962C80E063E0FB
:101E00000E94CE2B87EE91E00E94502C8BE063E085
:101E10000E94CE2B83EE91E00E94502C80911F02F5
:101E2000882311F083E501C087E50E94962C8091FC
:101E30009002843009F43DCF81E00E94C52D80934B
:101E4000900286E063E00E94CE2B86E00E948D1C0B
:101E5000BC01990F880B990B0E94E33120E030E020
:101E600040EA5BE30E94423242E00E94891A84E623
:101E700090E00E94722FDBCF80E0602F40E20E9452
:101E8000B42D033008F065CE0F5F63CE80E0602F85
:101E900040E20E94B42D002309F45BCE015059CEDC
:101EA00080E0612F40E20E94B42D133048F41F5FA0
:101EB00007C080E0612F40E20E94B42D1111115043
:101EC00080E0612F0E94CE2BA9CD80912802811144
:101ED000FCC880E090E00E94331CF7C880E06D2DC4
:101EE00040E20E94B42DF2E0FD1508F4EEC8D39450
:101EF000ECC880E06D2D40E20E94B42DCD1408F0B6
:101F0000E4C8DA94E2C8911148C080912802811196
:101F100044C080912902882309F43FC090912A028D
:101F200081E0892780932A020E940E1436C09923EB
:101F300049F00E94042C10922302109228020E9461
:101F40004A152BC080912002882339F08091240209
:101F5000811103C00E945B2D20C09091280281E076
:101F60008927809328020E940E14809128028111F3
:101F700007C080E090E00E94331C0E94AB2B0AC097
:101F8000809122022CE1829FC00111240E94331C07
:101F90000E94A32B82E30E94E2138091230281110D
:101FA00002C088E701C080EF0E94E2130C94A505EF
:101FB00087E00E948D1C8132934074F0809123024F
:101FC000882351F00E94042C1092230210922802C0
:101FD0000E944A150C94D7050E940E140C94D70544
:101FE00081E080931A0280919502811103C08EE0F6
:101FF0000E94882B8091930281110E94DE228091A1
:10200000940281115F9A0E944A150C9484068F5F96
:102010000C94950600E010E00C94CA0680E06CE099
:102020000E94E52C182F8091230281111AE00E9452
:10203000182C183090F580912802882351F0809157
:102040000D03882321F080912B02811102C00E9490
:10205000AB2B153058F50E94C62B28C085E667E9E2
:102060000E94E52C90E00E94962281E080931B0262
:102070000C94FB070E94A32B0C9418080E94C52205
:1020800000C961E040E20E94B42D80E063E040E2DC
:102090000E94B42D80E062E04BCB87E962EE0E94A3
:1020A000E52C90E00E9496220C948207812F90E00C
:1020B000FC013197E730F10540F10E94902280E762
:1020C00093E060E570E040E026E930E00E94A32F55
:1020D00080E793E060E971E040E020E931E00E94B0
:1020E000A32F5E9A80E596E463E007C087E091E065
:1020F0000E94502C80EA9FE061E00E94E8230C944B
:1021000070070E94A32B0C948207E75BFF4F0C948F
:102110009A3420ED37E00C94640780E197E262E0A6
:10212000ECCF83E061E00E94CE2B8CE191E00E9435
:10213000502C809122022CE1829FC00111240E9428
:10214000331C0E94902280E293E06AEF70E040E04E
:102150002EE031E00E94A32F80E293E066E970E078
:1021600040E024EB30E00E94A32F84E992E06AEF84
:1021700070E040E02AEF30E00E94A32F80ED97E06E
:102180000E94722F80E090E00E94331C0C94700734
:102190000E94E021F82E80E06BE671E00E942B2C7B
:1021A00001E00E94E021F8125EC08091900284302C
:1021B00009F459C0009305030E94C62B81E064E135
:1021C0000E94E52C182F112381F080E064E10E9429
:1021D000E52CE82E80E064E00E94E52C682F8E2D2F
:1021E00040E00E94B42D1150EECF84EF91E00E94A8
:1021F000722FD7CF18E288E10E94B42B88EC90E0D0
:102200000E94722F80919002843009F411E01150E5
:10221000123088F70C94700780E06BE671E00E9442
:102220002B2C00E010E0812F602F40E00E94B42DA5
:1022300086E990E00E94722F80919002843011F420
:1022400014E104E0812F602F40E20E94B42D1F5F53
:10225000143148F30F5F043028F380ED97E00E94BB
:10226000722F0C947007109205030C94700783FD75
:1022700002C098E001C098E28770892B98E10FB600
:10228000F894A895909360000FBE80936000A89585
:102290008091600080648093600080912802882390
:1022A00019F083B7817F0BC080912302882321F02E
:1022B00083B7817F846003C083B7817F8C6083BFD5
:1022C00083B7816083BF85B7806685BF8F7D85BFFB
:1022D00080916400816080936400889583B78E7FCD
:1022E00083BF0FB6F894A8958091600088618093B1
:1022F0006000109260000FBE809160008F7B809321
:102300006000809164008E7F809364000895CF9375
:10231000DF93C82F82E061E00E94CE2B8AE793E032
:102320000E94502C8C2F6AE070E00E94CB198AE347
:102330000E94962C0E94912DD0E0CC0FDD1FC75C2F
:10234000DD4F6881798180E090E00E94E1312DECE1
:102350003CEC4CEC5DE30E94423242E00E94891A60
:1023600088819981883E934018F083E141E002C062
:1023700082E142E061E00E94A82D80918F0260918D
:102380008E020E94CE2BDF91CF910895EF92FF92A3
:102390000F931F93CF93C82F282F30E08091910285
:1023A000909192028901000F111F055C1D4FF801E9
:1023B00091838083255F3F4F5AE0E52EF12CB701D2
:1023C0000E947234682F822F880F0E944622F801E3
:1023D00020813181CC0FC901B7010E947234A9015B
:1023E000481B590BCA01B7010E94723485E18C0F5A
:1023F0000E94462282E061E00E94CE2B8CE493E0B2
:102400000E94502C88EE93E00E94712CCF911F9176
:102410000F91FF90EF900895CF9380910D03882343
:10242000E9F180910B0390910903209130039817F3
:1024300030F4C1E0821768F0291758F009C08917F5
:1024400038F4C0E0821728F4291718F4C1E001C05D
:10245000C0E0891310C050910A033091080335176A
:1024600038F040912F03451718F0341708F0C1E0F9
:10247000381708F4C1E0281307C030912F0380916A
:102480000A03381708F0C1E0291309C090912F03FF
:1024900080910803981718F4C1E001C0C0E0809152
:1024A0003A02C81759F0CC2319F08FE690E002C029
:1024B0008CEA90E00E949622C0933A028C2FCF9132
:1024C0000895CF93DF930E94E021CEE2D3E0898389
:1024D0000E9479200E9403218091B5028A83DF91B6
:1024E000CF9108950E9479200E9403218091B90222
:1024F00090E08E54984F90933902809338020E9456
:1025000079200E9403218091B702809332030E94B8
:1025100079200E9403218091B8028093330380E0E8
:1025200063E00E94CE2B0E9479200E940321E0915B
:10253000B602F0E0EE0FFF1FE659FC4F6591749173
:102540008CE292E00E94D2318DE993E06CE272E07D
:102550000E9457308AE063E00E94CE2B80913203C4
:102560008A3010F40E94892D809132036AE070E075
:102570000E94CB190E948D2D809133038A3010F474
:102580000E94892D809133036AE070E00E94CB198C
:102590000E948D2D80913802909139020E94B318CB
:1025A00080913602909137020A9724F482E160E02C
:1025B0000E94CE2B0895809133039DEF980F9830A1
:1025C00008F06DC09CEF980F963008F466C0833019
:1025D00089F520913203409138025091390235E05B
:1025E000349FC001359F900D112497FD039695955A
:1025F000879595958795049667E070E00E948634EC
:102600004FE150E0BA01681B790B38E1369FA00119
:10261000379F500D11244F5F5F4F8091300378E159
:10262000279F90011124280F311D81E04217530785
:10263000BCF135C08A3099F52091320340913802BF
:102640005091390235E0349FC001359F900D11241F
:1026500097FD03969595879595958795019667E0E3
:1026600070E00E9486344FE150E0BA01681B790B9C
:1026700038E1369FA001379F500D11244F5F5F4F07
:102680008091300378E1279F90011124280F311D9C
:1026900081E04217530724F402C081E0089580E0EE
:1026A0000895EF92FF920F931F93CF93DF9388E6E5
:1026B0000E94282A80ED93E060E00E94111E0E9493
:1026C000CB2988E690E067E070E00E94A92A80EDBF
:1026D00093E00E94CC1DCEE2D3E0982F969596957C
:1026E00096959E70292F220F220F920F8F70890FBF
:1026F000888380ED93E00E94CC1D982F92959F7067
:102700008F702AE0929F800D1124898380ED93E0E1
:102710000E94CC1D982F9695969596959670292F88
:10272000220F220F920F8F70890F8A8380ED93E022
:102730000E94CC1D982F92959F708F702AE0929FD7
:10274000800D11248B8380ED93E00E94CC1D982F87
:1027500092959F708F702AE0929F800D11248C8338
:1027600080ED93E00E94CC1D982F92959F708F7002
:102770002AE0929F800D11248D8380ED93E00E94CA
:10278000CC1D982F9F70925E82958F70E92E2AE063
:10279000829FE00C1124EE828A81698170E0488179
:1027A00050E02C8130E00D8110E0F12C9EE4E91A1C
:1027B00098EFF90A90E00E94B41FCDB7DEB7E6E0CB
:1027C0000C94A233CF93C82F80912802882329F03C
:1027D00080916400806280936400C7FF04C083E03E
:1027E0000E943711C857C03420F082E00E94371190
:1027F000CC53C03220F081E00E943711CE51C0315D
:1028000018F080E00E94371180912802882321F07F
:102810008091640010926400CF910895CF930E943C
:1028200061120E940C1280932B02809130038A3037
:1028300018F481E060E005C06AE00E946634682F09
:1028400081E00E94DC1880913003CAE06C2F0E9466
:10285000663484E0692F0E94DC1887E06AE00E94F9
:10286000DC1880912F038A3018F48AE060E005C0FC
:102870006C2F0E946634682F8AE00E94DC188091D9
:102880002F036AE00E9466348DE0692F0E94DC18F5
:1028900081E161E043E00E94A82D81E161E00E94B6
:1028A000CE2B80912A02811104C0809129028111CE
:1028B00003C088E70E94962C80912802882319F093
:1028C00084E40E94962C80910D03882349F0809126
:1028D0002B02882311F08EE401C08EE60E94962C14
:1028E00080912702882341F083E062E00E94CE2B92
:1028F0008EE593E00E94502C81E162E043E00E946B
:10290000A82D81E162E00E94CE2B809126028823CF
:1029100019F084EF0E94962C80910403882319F00B
:1029200080E70E94962C80912502882319F083E588
:102930000E94962C80919502811108C0809194028A
:10294000811104C080919302882319F080E50E94D0
:10295000962C86E00E948D1C90933702809336025D
:10296000C4E08AE00E94E21386E00E948D1C209160
:10297000360230913702820F931F90933702809373
:102980003602C15071F765E070E00E948634072E70
:10299000000C880B990B0E94E33120E030E040EA04
:1029A0005BE30E94423226E636E646E350EC0E94A4
:1029B000C1332CE938ED49E952E40E9442320E94C9
:1029C0002D341616170634F4643671052CF063E6C0
:1029D00070E002C061E070E0CB01072E000CAA0B92
:1029E000BB0B9C01AD016A337105A4F02953310979
:1029F00041095109ABE5B0E00E9467332AE230E0BB
:102A000040E050E00E944833DA01C9010896A11D58
:102A1000B11D13C02150310941095109A7E0B0E0AF
:102A20000E94673327E330E040E050E00E944833E3
:102A3000DA01C9010196A11DB11D9093370280935F
:102A4000360281E160E00E94CE2B809136029091A7
:102A500037020A9744F481E160E040E20E94B42D1D
:102A60000E94212C02C00E94182C80913602909165
:102A700037020E94B31880912402882311F08BE260
:102A800001C085E20E94962C82E160E00E94CE2B7C
:102A9000CF9108950E94672D0E9472120E940E1419
:102AA0000895CF92DF92EF92FF921F93CF93DF931F
:102AB000C82FD62F0E94A41C6B017C0120E6C20EF9
:102AC0002AEED21EE11CF11C1092900214E09091AB
:102AD0009002911115C08C2F0E94C52D80939002F9
:102AE000D11104C088E70E94E213F1CF0E94A41C18
:102AF000C616D706E806F90650F710939002E7CFFE
:102B000082E30E94E213DF91CF911F91FF90EF903B
:102B1000DF90CF900895AAE4B0E0E1E9F5E10C94EC
:102B20007C3381E06BE471E00E942B2C82E06BE54A
:102B300071E00E942B2C83E063E671E00E942B2C55
:102B400084E063E471E00E942B2C8BE791E00E940B
:102B50009C2DB12C12E000E0A12C7E0121E4E20EBC
:102B6000F11CAE014F5F5F4F6A018091900284308B
:102B700009F488C182E062E04BE50E94B42D82E056
:102B80000E94962C86E993E00E94502C83E00E94DC
:102B9000962C8DE50E94962C82E063E00E94CE2B5D
:102BA00083E893E00E94502C81E061E043E10E94C1
:102BB000A82D0E94212C80919302811102C044E033
:102BC00001C041E089E062E00E94B42D82E060E053
:102BD0000E94CE2B609191027091920280E090E071
:102BE0000E94E1312DEC3CEC4CEC5DE30E94423262
:102BF00042E00E94891A0E94912D002341F05E98C4
:102C00000E94DE2289E060E04AE00E94A82D173091
:102C1000A9F030F4153059F0163041F585E022C0A6
:102C20001930C9F0B0F01A3009F581E11BC083E01A
:102C300080938F0280938E0281E007C089E08093A9
:102C40008F0283E080938E0282E00E94871100E071
:102C500019C08BE007C08FE080938F0283E08093E0
:102C60008E02F3CF80938F0283E009C0812F90E022
:102C70000196982F990F890F80938F0282E080939D
:102C80008E0201E08091910290919202881599053F
:102C900079F08AE0F70111928A95E9F780E4F6016C
:102CA00011928A95E9F789E060E048E00E94A82D3A
:102CB00080918F0260918E020E94CE2B80919302B0
:102CC000882309F462C0002309F45FC00B2D04308F
:102CD00008F055C020E1029F4001112483E0B82E86
:102CE00082E061E00E94CE2B612C712CF301E80D93
:102CF000F91DEC0DFD1D808180310CF480E20E94F5
:102D0000962CFFEF6F1A7F0A20E16216710471F7AB
:102D100080918F0260918E020E94CE2B0E94A41C93
:102D20002B013C010E94A41CDC01CB0184199509F4
:102D3000A609B709843F9140A105B10540F480E0A0
:102D40000E94C52D80939002882309F4D2C089E0A7
:102D500060E00E94CE2B8DE993E0B7010E945730CE
:102D600080918F0260918E020E94CE2B8091900202
:102D7000882309F4AFC0033009F0B4C0B12C8091AE
:102D80009002882309F4A2CF04C080E061E00E9491
:102D90005115809091029090920280919002823021
:102DA00009F468C0833009F469C0813009F068C053
:102DB000812F90E08B30910508F057C0FC01E05B5B
:102DC000FF4F0C949A3480919302882309F44DC0EC
:102DD00080E02DC04BE6841643E0940608F445C01D
:102DE000C401019790939202809391023EC080911A
:102DF0009302882319F00E94D92237C080910403DE
:102E0000811102C04C99E1C00E94D52281E08093DB
:102E100093022BC058E3851654E0950630F5C401A3
:102E20000196E0CF809193028823F9F081E00E941F
:102E30004C1BD8CF80913B0290913C020DC080E0AA
:102E400012C080913D0290913E0206C081E00BC00D
:102E500080913F0290914002909392028093910260
:102E600012E003C082E00E94C61100919302AA24DE
:102E7000A3947BCE1A3020F41F5F02C011111150B1
:102E800000E073CEAA20F9F0809191029091920215
:102E90000AE010E0B8010E947234682F82E10E94BB
:102EA00046222091910230919202C901B8010E94FC
:102EB0007234F901E81BF90BCF01B8010E9472349A
:102EC00081E10E9446220E94672DC65BDF4FE0E150
:102ED0000C94983382E30E94E213BA94B11000CFAD
:102EE000033009F0B02E80919002811148CF0F5F1E
:102EF000EECE8091C0039091C10397FF0CC00E9459
:102F0000041A8091C6039091C7039C012227387F41
:102F10002115304219F080E090E028C08F70992789
:102F20004091C8035091C9039C01220F331F220F07
:102F3000331FF601E20FF31F5083E2E0F0E0EC0FE5
:102F4000FD1FE20FF31F40834091CA035091CB0352
:102F5000E3E0F0E0EC0FFD1FE20FF31F5083E4E02D
:102F6000F0E0EC0FFD1FE20FF31F4083FC013196F0
:102F7000EE0FFF1FEE0FFF1FEC0DFD1D10820E94D4
:102F8000041A8091C0039091C10397FF1BC08091E8
:102F9000C6039091C703843F51E0950798F42091B0
:102FA000CA033091CB0383709927880F991FF701CB
:102FB000E80FF91F3083E2E4F0E0EC0FFD1FE80FAB
:102FC000F91F2083F7011086ADCE0E94C5221CCFC9
:102FD000A0E0B0E0EEEEF7E10C9484336C017A01EE
:102FE0008B01C0E0D0E0CE15DF0589F0D8016D91EE
:102FF0008D01D601ED91FC910190F081E02DC6018B
:103000000995892B11F47E0102C02196ECCFC701EE
:10301000CDB7DEB7E8E00C94A03320918302309165
:1030200084022817390771F49091820280918102FD
:10303000981741F0E0918202F0E0EF5BFD4F808154
:1030400090E008958FEF9FEF089508951F93CF9319
:10305000DF93DC015C962D913C915D972115310544
:1030600039F481E090E013969C938E9312973DC0C3
:103070005196ED91FC91529750969C915097892FC3
:1030800080951FB75E964C915E9741FB772770F94C
:1030900041FD6095F8944081772311F0492B01C0E0
:1030A00048234083E9012197F1F748E0508160FF10
:1030B00002C0592B01C058235083E9012197F1F731
:1030C0006695415099F7772321F090818923808379
:1030D00003C08081982B90831FBF5C968D919C913B
:1030E0005D970197F1F721E030E0C901DF91CF91C1
:1030F0001F91089520918302309184022817390787
:1031000071F4809181022091820290E0805C9F4F57
:10311000821B910960E470E00E948634089580E08B
:1031200090E0089520918302309184022817390796
:10313000B9F49091820280918102981789F0E09110
:103140008202F0E0EF5BFD4F80812091820230E04F
:103150002F5F3F4F2F7333272093820290E0089513
:103160008FEF9FEF0895CF92DF92EF92FF92CF9370
:10317000DF936C01990FEE08FF08F7FE11C08DE296
:103180000E94962CEC0166277727CB016C197D09EC
:103190008E099F094AE00E94A22C8C0F9D1F05C03A
:1031A000C701B6014AE00E94A22CDF91CF91FF90A7
:1031B000EF90DF90CF900895CF93C62F80938F022A
:1031C00010928E0260E043E00E94A82D60918E0272
:1031D0006F5F80918F0243E00E94A82D8C2F90E0BA
:1031E0008D30910508F0D5C0FC01E55AFF4F809164
:1031F0008F020C949A3460918E0240E00E94B42DAC
:1032000081E067C060918E0241E00E94B42D82E0AF
:103210000E94962C60918E026F5F80918F0244E035
:103220000E94B42D87E014C060918E0246E00E9497
:10323000B42D86E00E94962C82E00E94962C60912C
:103240008E026F5F80918F0243E00E94B42D84E074
:103250000E94962C84E09BC060918E0246E00E9402
:10326000B42D86E00E94962C82E013C060918E02FD
:1032700043E00E94B42D84E00E94962C87E044C075
:1032800060918E0243E00E94B42D86E00E94962C4D
:1032900086E00E94962C60918E026F5F80918F0273
:1032A00044E022C060918E0240E00E94B42D86E08E
:1032B0000E94962C86E010C060918E0241E00E9430
:1032C000B42D81E01EC060918E0240E00E94B42DBA
:1032D00086E00E94962C82E00E94962C60918E02DD
:1032E0006F5F80918F0243E00E94B42D84E00E94C2
:1032F000962C85E04CC060918E0240E00E94B42D77
:1033000086E00E94962C82E00E94962C80918F028B
:1033100060918E026F5F8E5F47E00DC08F5F60919E
:103320008E0244E00E94B42D80918F0260918E0243
:103330006F5F8F5F44E00E94B42D2BC060918E02BE
:1033400040E00E94B42D82E00E94962C80E00E9412
:10335000962C60918E026F5F80918F0247E00E94F1
:10336000B42D83E00E94962C87E011C060918E02FC
:1033700047E00E94B42D80E00E94962C60918E025E
:103380006F5F80918F0247E00E94B42D83E00E941E
:10339000962CCF910895282FAB01672B61F4E09113
:1033A0009D03F0919E030190F081E02D8DE993E063
:1033B000622F09950895682F70E080E090E00E94E8
:1033C000A22C08951F93CF93DF9380E10E94282AB7
:1033D000C0EBD3E018816981229680ED93E00E94D2
:1033E000111E80ED93E0612F0E94111E83E0CC3B03
:1033F000D80781F70E94CB2991E0811190E0892FB5
:10340000DF91CF911F9108950F931F93CF93DF9377
:1034100080E190E060E270E00E94A92A8091CE03F2
:1034200090E02091CF03821B910980329105ECF34B
:10343000CAE0D0E080ED93E00E94CC1D8E01000F29
:10344000111F07551C4FF8011382848380ED93E010
:103450000E94CC1DF80123813481822B932B94830D
:103460008383C930D10539F02196C031D10511F7D8
:10347000C0E0D0E0DFCFDF91CF911F910F91089591
:103480000E94041AE9EAF3E08781908580649087BE
:1034900087830E94E2190895CF93DF935D9881E0BE
:1034A00090E00E94712C5D9A81E090E00E94712C66
:1034B0001092CF031092CE031092CD031092CC0342
:1034C0000E94961F0E94041AC9EAD3E080E091E8A6
:1034D0009A8B898B0E94E21984EF91E00E94712CF3
:1034E0000E94041A81E090EC98878F838B859C85DD
:1034F00098619C878B878D859E858F619E878D8740
:103500000E94E2198EE690E00E94712CDF91CF912B
:1035100008954F925F926F927F928F929F92AF9297
:10352000BF92CF92DF92EF92FF92CF93DF936B0126
:103530007C01B42EA70196010E946134882329F0F2
:103540008DE993E065EB71E00FC0C701B6019F778D
:103550002FEF3FEF4FE75FE70E945C3418163CF413
:103560008DE993E069EB71E00E94573086C0C70196
:10357000B6012FEF3FEF4FE75FE40E945C3418166F
:103580002CF48DE993E06DEB71E0EECFC701B6014D
:103590002FEF3FEF4FE75FEC0E94DC3187FDF1CF6B
:1035A000C701B60120E030E0A9010E94DC3187FFAD
:1035B00009C08DE20E94962CEC01F7FAF094F7F81E
:1035C000F09402C0C0E0D0E0A12C60E070E080E0A8
:1035D0009FE3AB1441F02DEC3CEC4CEC5DE30E941E
:1035E0004232A394F6CFA70196010E94C1332B016A
:1035F0003C010E942D346B017C010E94E1319B0152
:10360000AC01C301B2010E94C0332B013C01C701D0
:10361000B6014AE00E94A22CC80FD91FBB2029F096
:103620008EE20E94962CC80FD91FFB2CFF2021F19F
:10363000C301B20120E030E040E251E40E94423296
:103640002B013C010E942D344B01A12CB12CC50152
:10365000B4014AE00E94A22CC80FD91FC501B401D1
:103660000E94E1319B01AC01C301B2010E94C03351
:103670002B013C01FA94DACFCE01DF91CF91FF907C
:10368000EF90DF90CF90BF90AF909F908F907F9002
:103690006F905F904F900895A1E0B0E0E2E5FBE10C
:1036A0000C94883389830E94041A2091B0033091CE
:1036B000B103A9015B7F8981811106C0397F3093F5
:1036C000B1032093B00306C0CA0192609093B10386
:1036D0008093B0038091B0039091B1039160909377
:1036E000B1038093B0030E94E2190E94041A8091F2
:1036F000C0039091C10396FFF8CF0E94041A009175
:10370000C0031091C103002710728091B003909103
:10371000B1039E7F9093B1038093B0030E94E2199E
:103720000E94041A2091C0033091C103C901882767
:10373000907436FDF5CF0115110549F40E94041A65
:103740008091C2039091C303937085599C4F219639
:10375000E4E00C94A43390E0FC01E455FC4F349178
:10376000FC01EA5AFB4F2491FC01EE5BFB4FE49114
:10377000EE2309F43BC0332339F1333091F038F4B0
:103780003130A9F0323001F584B58F7D12C0373069
:1037900091F03830A1F03430B9F4809180008F7D01
:1037A00003C0809180008F77809380000DC084B526
:1037B0008F7784BD09C08091B0008F7703C080915E
:1037C000B0008F7D8093B000F0E0EE0FFF1FE25D50
:1037D000FB4FA591B4918FB7F894EC91611103C0A0
:1037E00020952E2301C02E2B2C938FBF0895CF93AD
:1037F000DF9390E0FC01EA5AFB4F2491FC01EE5B61
:10380000FB4F8491882361F190E0880F991FFC01A0
:10381000EE55FC4FC591D491FC01E25DFB4FA591A3
:10382000B491611109C09FB7F894888120958223D3
:103830008883EC912E230BC0623061F49FB7F8941B
:103840003881822F809583238883EC912E2B2C93B3
:103850009FBF06C08FB7F894E8812E2B28838FBFB7
:10386000DF91CF910895CF93DF93EC018AE061E07F
:103870000E94F71B209719F48AE060E005C0CF3F53
:10388000D10529F48AE061E00E94AB1B43C0E6EB5E
:10389000F3E0E491E330F9F048F4E130B9F0E230DC
:1038A000A1F584B5806284BDC8BD34C0E730E9F0BD
:1038B000E83019F1E43049F580918000806280930E
:1038C0008000D0938B00C0938A0024C084B58068A8
:1038D00084BDC7BD1FC08091800080688093800038
:1038E000D0938900C093880015C08091B000806893
:1038F0008093B000C093B3000DC08091B00080628F
:103900008093B000C093B40005C0C038D1050CF05E
:10391000B9CFB2CFDF91CF9108958E3008F08E509D
:103920008770806480937C0080917A0080648093AB
:103930007A0080917A0086FDFCCF809178002091FA
:10394000790090E0922B08952FB7F89460918A0245
:1039500070918B0280918C0290918D022FBF0895FF
:103960001F920F920FB60F9211242F933F938F93B4
:103970009F93AF93BF9380918A0290918B02A09105
:103980008C02B0918D023091890223E0230F2D37F4
:1039900020F40196A11DB11D05C026E8230F029653
:1039A000A11DB11D2093890280938A0290938B02FE
:1039B000A0938C02B0938D02809185029091860233
:1039C000A0918702B09188020196A11DB11D80933C
:1039D000850290938602A0938702B0938802BF91DC
:1039E000AF919F918F913F912F910F900FBE0F90AC
:1039F0001F9018951F920F920FB60F9211242F93BC
:103A00003F934F935F936F937F938F939F93AF9366
:103A1000BF93EF93FF93E0918302F091840230977C
:103A200009F451C0968DA685B785858591FF04C0A0
:103A30009C91892329F447C09C91892309F043C0B4
:103A4000A389B4899C918589809589238C938689E3
:103A500097890197F1F7608D718DA685B78555859A
:103A600038E020E0CB010197F1F7822F90E09595A7
:103A70008795282F4C91452309F02068315091F704
:103A8000868D81FD20958091810290E001968F7353
:103A9000992730918202381749F0A0918102B0E055
:103AA000AF5BBD4F2C938093810203C0868D8160F4
:103AB000868F828D938D0197F1F7A389B4899C91AC
:103AC0008589892B8C93FF91EF91BF91AF919F9145
:103AD0008F917F916F915F914F913F912F910F90B7
:103AE0000FBE0F901F901895E0918302F091840211
:103AF000E817F90769F4A389B4899C9185898095B1
:103B000089238C93109284021092830281E008959D
:103B100080E0089585ED8093BC008091BC0084FD19
:103B2000FCCF10925B0308954091DC02262F30E019
:103B3000240F311D21323105DCF420915B03243048
:103B4000C9F4FC0180E090E0861758F43091DC0263
:103B50002191DC01A654BD4FA30FB11D2C930196FA
:103B6000F3CF8091DC02680F6093DC0280E008955F
:103B700081E0089582E008950895E091CF03809157
:103B8000CE03E81730F4F0E0E25FFC4F808190E074
:103B900008958FEF9FEF08959091CF038091CE030A
:103BA000981750F4E92FF0E0E25FFC4F208130E0FD
:103BB0009F5F9093CF0302C02FEF3FEFC90108959D
:103BC0008091CE0390E02091CF03821B910908954C
:103BD000A0E0B0E0EEEEFDE10C9484337C01972F81
:103BE0008A0180915C03882391F0C62FD72F6E0144
:103BF000C40ED51ECC15DD0571F06991D701ED918C
:103C0000FC910190F081E02DC7010995F3CF862F3B
:103C1000642F0E94941DC801CDB7DEB7E8E00C9474
:103C2000A033A1E0B0E0E7E1FEE10C948A336983C0
:103C300020915C032223D1F02091CC03203240F06C
:103C400021E030E0FC013383228380E090E015C066
:103C50008091CD03E82FF0E0E35AFC4F99819083E7
:103C60008F5F8093CD038093CC0305C0CE01019676
:103C700061E00E94941D81E090E02196E2E00C94C6
:103C8000A6336093AF027093B0028093B102909319
:103C9000B202DC01CB01845D9E4FAF4FBF4F8093DA
:103CA000AB029093AC02A093AD02B093AE0282E05F
:103CB00090E09093AA028093A9020E94A41C6093B2
:103CC000A5027093A6028093A7029093A80208957C
:103CD0001F920F920FB60F9211242F933F934F9381
:103CE0005F936F937F938F939F93AF93BF93EF9364
:103CF000FF938091B900887F803609F49CC068F5F5
:103D0000883209F45BC090F4803109F454C038F46F
:103D1000882309F4F6C0883009F44DC0F6C0883114
:103D200009F44CC0803209F45DC0EFC0803409F45E
:103D300068C048F4803309F455C0883309F0E5C001
:103D400080935903D8C0803509F44FC0883509F4F1
:103D50005DC0883409F0D9C0D6C0883909F4C7C01D
:103D6000A8F4883709F467C038F4883609F463C0CA
:103D7000803709F460C0C9C0883809F4B8C08039F8
:103D800009F45FC0803809F0C0C05BC0803B09F413
:103D900086C038F4803A09F466C0883A09F47FC0D6
:103DA000B4C0803C09F4A7C0883C09F4A4C0883B97
:103DB00009F48AC0AAC08091360310C090915803BC
:103DC00080915703981770F5E091580381E08E0FAA
:103DD00080935803F0E0E95CFC4F80818093BB0046
:103DE00085EC86C0809359038EC0E091580381E032
:103DF0008E0F809358038091BB00F0E0E95CFC4F8C
:103E0000808390915803809157036EC0E0915803CE
:103E100081E08E0F809358038091BB00F0E0E95C55
:103E2000FC4F808380915A0381116DC081E08093A3
:103E3000350384EA61C083E080935B031092000342
:103E4000CFCF80910003803208F051C0E091000391
:103E500081E08E0F809300038091BB00F0E0E05280
:103E6000FD4F8083BDCF85EC8093BC0010925B0337
:103E700080910003803230F4E0910003F0E0E052E2
:103E8000FD4F10826091000370E0E091DE02F0913E
:103E9000DF0280EE92E009951092000336C084E0C4
:103EA00080935B031092DD021092DC02E091DA0253
:103EB000F091DB0209958091DC02811105C081E05F
:103EC0008093DC021092BA02E091DD0281E08E0F55
:103ED0008093DD02F0E0E654FD4F80818093BB00CB
:103EE0009091DD028091DC02981708F479CF85E883
:103EF0008093BC000AC085EC8093BC0010925B03E9
:103F000004C0109259030E948A1DFF91EF91BF9146
:103F1000AF919F918F917F916F915F914F913F9161
:103F20002F910F900FBE0F901F90189510925B036A
:103F300081E080935A031092350382E161E00E9490
:103F4000AB1B83E161E00E94AB1BE9EBF0E08081F9
:103F50008E7F808380818D7F808388E48093B8000A
:103F600085E48093BC000895A0E0B0E0EAEBFFE1B7
:103F70000C947B33382E962E842EF90184E6E816B5
:103F8000F1042CF082EBE81A87E0F80A03C08EE116
:103F9000E80EF11CE092B9020093B802E093B70278
:103FA0003092B5029092B4028092B302AE2DB0E08E
:103FB00020E833E341EE51E00E9467332B013C01DE
:103FC00022EB37E0FF2484E6C82ED12CC0E9D1E0F3
:103FD000C901825B97408E159F05DCF4C90183708F
:103FE0009927892B99F4C901B6010E948634892B3F
:103FF00031F4C901BE010E948634892B39F480E86E
:10400000480E81E5581E81E0681E711C2F5F3F4FEE
:10401000DFCF8EE4E81A88EFF80AC70164E670E0A3
:104020000E9486346C01C70160E971E00E94863409
:104030005C01C1E0D0E0112783E0E822FF24C01733
:10404000D1072CF5C230D10589F4E114F10471F4E3
:10405000C114D10419F4A114B10441F480E8480E4C
:104060008BE3581E86E2681E711C0FC0DE01A0544F
:10407000BE4FAC91B0E020E831E541E050E00E9455
:104080006733460E571E681E791E2196D8CF292DFC
:1040900030E0ACE3B0E00E94B1336B017C01C80CAE
:1040A000D11CE11CF11C232D30E0A0E1BEE00E94F8
:1040B000B133C60ED71EE81EF91EDF01BB271197CC
:1040C00020E831E541E050E00E947233DC01CB0191
:1040D0008C0D9D1DAE1DBF1DBC01CD01640D751D58
:1040E000861D971D0E94411ECDB7DEB7E1E10C94FD
:1040F0009733CF92DF92EF92FF920F931F930E941C
:10410000A41CC090A502D090A602E090A702F09057
:10411000A8028B019C010C191D092E093F098091F1
:10412000AF029091B002A091B102B091B202083EEC
:10413000134021053105D0F00196A11DB11D8093DA
:10414000AF029093B002A093B102B093B202B70154
:10415000A60148515C4F6F4F7F4F4093A50250938B
:10416000A6026093A7027093A802C9CF4091AB0248
:104170005091AC026091AD027091AE028417950728
:10418000A607B70788F1E091A302F091A402309747
:1041900059F10995611571058105910519F00E9484
:1041A000411E22C08091AF029091B002A091B10255
:1041B000B091B202845D9E4FAF4FBF4F8093AB0270
:1041C0009093AC02A093AD02B093AE0281E090E078
:1041D0002091A9023091AA02232B11F480E090E0F3
:1041E0009093AA028093A9026091AF027091B002ED
:1041F0008091B1029091B2021F910F91FF90EF90C8
:10420000DF90CF900895A0E0B0E0E9E0F1E20C94F7
:104210007C334B015C0180919F029091A002A091A0
:10422000A102B091A20288169906AA06BB0609F45B
:10423000C2C08CE3C82ED12CE12CF12CC501B401F5
:10424000A70196010E9426336093B302CA01B90107
:10425000A70196010E9426336093B402CA01B901F6
:1042600028E130E040E050E00E94263369017A0105
:104270006093B502CA01B9016C5F7F4F8F4F9F4FAA
:1042800027E030E040E050E00E9426336F5F60930B
:10429000B602412C512C320140E004E610E0C0E9A6
:1042A000D1E0242F30E02E54384FF901E370FF277E
:1042B000309789F4C901B8010E948634892B31F402
:1042C000C901BE010E948634892B29F48EE691E053
:1042D000A0E0B0E004C08DE691E0A0E0B0E0480EC0
:1042E000591E6A1E7B1ED301C201AA27BB27C8160E
:1042F000D906EA06FB0610F04F5FD3CF4093B90210
:10430000309799F4C90164E670E00E948634892BE5
:1043100039F4C90160E971E00E948634892B29F4DF
:104320008EE691E0A0E0B0E004C08DE691E0A0E070
:10433000B0E0481A590A6A0A7B0AC418D508E60888
:10434000F708C90164E670E00E948634EC01C901F7
:1043500060E971E00E948634A1ECB1E020E02130F8
:1043600039F4309749F4209729F4009729F402C0D2
:104370004C9103C04DE101C04CE150E060E070E0C1
:10438000C416D506E606F70640F0C41AD50AE60AB2
:10439000F70A2F5F11962C3011F72F5F2093B80288
:1043A000C394C092B70280929F029092A002A09202
:1043B000A102B092A202CDB7DEB7E0E10C9498332F
:1043C0000E9479200E9403218091B40208951F92D7
:1043D0000F920FB60F9211240F931F932F933F93B9
:1043E0004F935F936F937F938F939F93AF93BF93FD
:1043F000EF93FF930E94A41C20919D0230919E0296
:10440000890120E030E06017710782079307B8F058
:1044100080916F008D7F80936F0082E08093810098
:1044200081E080938000E0919B02F0919C0290815A
:1044300080919A0280958923808310929A02E0915C
:104440009B02F0919C02908180919A02892780833F
:10445000FF91EF91BF91AF919F918F917F916F915C
:104460005F914F913F912F911F910F910F900FBE30
:104470000F901F90189581EF91E090937F038093A8
:104480007E038EE793E00E94741D0895A1E0B0E0E2
:10449000ECE4F2E20C9488330091980210919902B6
:1044A000080F111DC80169830E94003369816817D4
:1044B00019F0C8010E9408332196E4E00C94A4335B
:1044C0002091980230919902A901480F511DCA010B
:1044D0000E9400330895A1E0B0E0E1E7F2E20C941D
:1044E0008833182F062F79830E94282A80ED93E0C5
:1044F00069810E94111E80ED93E0602F0E94111EC1
:104500000E94CB29812F90E061E070E00E94A92AEF
:1045100080ED93E00E94CC1D2196E4E00C94A4333E
:104520005E9886E490E00E94712C0895A2E0B0E0CD
:10453000ECE9F2E20C94883389839A830E949022FA
:1045400083E09A81692F498120E030E000E010E0AB
:104550000E94F42A84E60E94E21380919702882345
:1045600019F081E00E94952B80919602882349F0F2
:1045700081E164E040E020E030E000E010E00E94F3
:10458000F42A2296E4E00C94A4338EE00E94882B57
:1045900084E60E94E2131092960210929702109203
:1045A000950284E00E94952B08955F9810929402E2
:1045B00008950E94401A109293020895CF93DF93BA
:1045C0000E944C1A80919102909192022AE0289FB9
:1045D000E001299FD00D1124CE52D2420E94041A2C
:1045E0002091B2033091B30322273E7F3068CE0181
:1045F0006AE070E00E947234262B372B3093B303AD
:104600002093B2030E94E2190E94041A8091C00311
:104610009091C10396FFF8CF0E94041A8091B203D3
:104620009091B3039F779093B3038093B2030E945A
:10463000E2190E94041A8091C0039091C10396FD73
:10464000F8CFDF91CF910895CF93823009F477C0EE
:1046500038F4882321F1813009F0B8C0CAE060C085
:10466000843009F48BC008F472C0853009F0AEC004
:1046700088E592E068EC70E041E028EC30E00E94D0
:10468000A32F84EF91E068EC70E041E028EC30E08B
:104690000E94A32F80E991E068EC70E092C086E070
:1046A00091E06AEF70E041E02DE431E00E94A32F39
:1046B00084EC90E06DE770E041E027EA30E00E9492
:1046C000A32F84EC90E06DE770E041E027EA30E052
:1046D0000E94A32F8CED90E06AEF70E041E02DE4A2
:1046E00031E00E94A32F84EC90E06AEF70E041E09B
:1046F0002AE932E00E94A32F87EF90E06AEF70E092
:1047000041E02DE431E00E94A32F86E091E06AEFC2
:1047100070E041E02DE431E057C0C15009F456C0CB
:1047200088EB91E062E370E041E024E630E00E9433
:10473000A32F80919002843081F7C0E0EECF88EB08
:1047400091E068EC70E041E024EF31E03DC088E5A5
:1047500092E064E670E041E024E630E00E94A32F9E
:104760008CEB92E064E670E041E024E630E00E94E9
:10477000A32F80E293E064E670E023C088E592E036
:1047800060E570E041E024E630E00E94A32F80E97C
:1047900091E060E570E041E024E630E00E94A32F64
:1047A00084EF91E060E570E041E024E630E00E94B3
:1047B000A32F80E991E060E570E041E028EC30E073
:1047C00003C041E02CE231E00E94A32FCF91089575
:1047D000A0E0B0E0EEEEF3E20C948333EC01D62ED1
:1047E00023E0621711F064E601C06AE180E00E94F4
:1047F000E52C91E0D91203C09CE301E002C090E5F2
:1048000000E07E012CE3E20EF11C20E5829FE00C2B
:10481000F11C1124899FC00DD11D112410E0CC245E
:10482000C394C00E82E0B82EB00EEC1AFD0A80E5EB
:10483000BE010E946B22482F812F602F0E94B42D51
:1048400080E5BE016C5E7F4F0E946B22482F812F56
:104850006C2D0E94B42D80E5BE01685D7F4F0E94E3
:104860006B22482F812F6B2D0E94B42D81E08D1576
:1048700058F480E5B7016C0F7D1F0E946B22482F12
:10488000812F63E00E94B42D1F5F2196143179F6C9
:1048900081E061E00E945115CDB7DEB7E9E00C94EC
:1048A0009F330F931F93CF93DF93EC018C01065F2F
:1048B0001F4FC017D10750F480E5BE010E946B2244
:1048C000803211F00E94962C2196F3CFDF91CF9188
:1048D0001F910F910895CF92DF92EF92FF92CF93A5
:1048E000DF9383E991E00E949C2D8BE194E00E948C
:1048F000502C82E061E00E94CE2B8AE094E00E947E
:10490000502C82E062E00E94CE2B86E094E00E9470
:10491000502C82E063E00E94CE2B82E094E00E9463
:10492000502CC0E0D4E180919002843009F475C12C
:1049300083E061E00E94CE2B80910D03882319F063
:104940008EEF93E002C08AEF93E00E94502C80919A
:104950000C03811102C040E201C048E580E161E042
:104960000E94B42D86E062E00E94CE2B80910B0362
:104970008A3010F40E94892D80910B036AE070E068
:104980000E94CB198AE30E94962C80910A038A30F8
:1049900010F40E94892D80910A036AE070E00E9461
:1049A000CB190E94842D86E063E00E94CE2B80917B
:1049B00009038A3010F40E94892D809109036AE06E
:1049C00070E00E94CB198AE30E94962C8091080324
:1049D0008A3010F40E94892D809108036AE070E00B
:1049E0000E94CB190E94842DC23048F480E062E01E
:1049F00040E20E94B42D80E061E00E94CE2B8EEF59
:104A00008C0F843068F480E061E040E20E94B42DB5
:104A100080E063E040E20E94B42D80E062E009C0E3
:104A2000C63048F080E062E040E20E94B42D80E0B1
:104A300063E00E94CE2B8EE70E94962CCC2ED12CC8
:104A40008AE0C816D104E8F4F601E859FF4F0C9447
:104A50009A3483E001C080E161E011C086E005C0C6
:104A600087E003C089E001C08AE062E008C086E018
:104A700005C087E003C089E001C08AE063E00E94CE
:104A8000CE2B80E061E00E9451158091900282302F
:104A900009F4B9C0833009F4BBC0813009F043CFB9
:104AA0008AE0C816D10408F08FC0F601EE58FF4F17
:104AB0000C949A3490910D0381E0892780930D0323
:104AC00083C090910C0381E0892780930C037CC004
:104AD00080910B038E3020F4865F80930B0374C0AB
:104AE0006AE00E94663490930B036EC020910B0322
:104AF000822F6AE00E946634993011F4295001C077
:104B00002F5F20930B0380910B03883109F05CC069
:104B1000D0930B0359C080910A03813320F4865F40
:104B200080930A0351C06AE00E94663490930A039E
:104B30004BC020910A03822F6AE00E9466349930AC
:104B400011F4295001C02F5F20930A033DC08091CA
:104B500009038E3020F4865F8093090335C06AE034
:104B60000E946634909309032FC020910903822F7D
:104B70006AE00E946634993011F4295001C02F5F19
:104B800020930903809109038831F1F4D09309033C
:104B90001BC080910803813320F4865F8093080353
:104BA00013C06AE00E946634909308030DC0209100
:104BB0000803822F6AE00E946634993011F429506C
:104BC00001C02F5F209308038BE060910D030E94CA
:104BD00046228CE060910B030E9446228DE060919A
:104BE0000A030E9446228EE0609109030E94462239
:104BF0008FE0609108030E9446228CE160910C03D3
:104C00000E94462290CEC93008F08DCECF5F8BCE69
:104C1000CC2309F488CEC15086CE80E063E071E0F9
:104C20000E942B2CDF91CF91FF90EF90DF90CF90DF
:104C30000895CF93DF93C82F0E94C62B8EE70E9462
:104C4000962C89EE93E00E94502C8FE060E00E9449
:104C5000CE2B0E94212CC13019F48091070302C091
:104C6000809106036AE070E00E94CB190E949022B6
:104C700081E080930503D0E080919002843009F4B4
:104C80003FC08FE060E00E94CE2B81E061E00E9497
:104C9000511580919002813079F7C130A9F490913B
:104CA0000703953019F41092070303C09F5F909398
:104CB0000703809107036AE070E00E94CB1980919E
:104CC00007030E9424231AC0909106039A3019F416
:104CD0001092060303C09F5F909306038091060322
:104CE0006AE070E00E94CB1980919502811106C0A4
:104CF0008091060390E001960E949622D1E0BCCFFD
:104D0000DD2359F0C13021F487E06091070303C02F
:104D100083E1609106030E944622809195028111F1
:104D200003C08EE00E94882B10920503DF91CF9183
:104D30000895ADE0B0E0EFE9F6E20C948333E82E9D
:104D400081E06BE471E00E942B2C82E063E571E06E
:104D50000E942B2C83E063E471E00E942B2C8BE7F4
:104D600091E00E949C2D84E063E00E94CE2B8CEDAC
:104D700093E00E94502C8BE063E042E00E94B42D4F
:104D800080910403882319F042E0F42E02C0FF242E
:104D9000F39480919502811102C04C99FECF0E943C
:104DA000212C2EE1C22EDD24DA9438E2B32E80913C
:104DB0009002843009F4CAC182E060E00E94CE2BE8
:104DC00041E0E41267C0809102018A3010F40E9431
:104DD000892D809102016AE070E00E94CB190E9447
:104DE000912D6091020170E06F5C7F4F660F771F1D
:104DF00087E50E946B226AE070E00E94CB198AE38B
:104E00000E94962C6091020170E0660F771F6D5929
:104E10007F4F87E50E946B228A3020F48D870E94A5
:104E2000892D8D856AE070E00E94CB190E94912D3A
:104E300000E010E08091020190E00197B89EB0017F
:104E4000B99E700D11246D5D7E4F600F711F87E557
:104E50000E946B22482F802F61E00E94B42D809128
:104E6000020190E00197B89EB001B99E700D112427
:104E7000600F711F695C7E4F87E50E946B22482F8F
:104E8000802F62E00E94B42D0F5F1F4F0431110587
:104E900089F663C052E0E51259C04C9909C080916F
:104EA0000403811105C080919602882309F454C13E
:104EB00080919602882329F081ED93E00E94502C86
:104EC00014C084E60E94E21382E560E040E09E01A7
:104ED0002F5F3F4F0CE010E00E94F42A8DE993E031
:104EE000BE016F5F7F4F0E94573087E062E00E94F3
:104EF000CE2B4C9B05C080919602882309F447C1B4
:104F000080910001909101010A9710F40E94892D6F
:104F1000609100017091010180E090E04AE00E9400
:104F2000A22C8FE20E94962C8091010390910203A3
:104F30000A9710F40E94892D609101037091020379
:104F400080E090E04AE00E94A22C07C083E0E812D3
:104F500004C086EC93E00E94502C8FE060E00E9439
:104F6000CE2B80910403882329F080EC93E00E94EB
:104F7000502C05C08FE060E045E00E94A82D4C99C0
:104F800006C080910403811102C043E001C041E0EA
:104F900088E063E00E94B42D8F2D880F8F0D8B5F0A
:104FA00063E00E94CE2B81E061E00E945115809168
:104FB0009002823009F4B7C0833009F4BEC081305A
:104FC00009F0F5CE41E0F416F1F1F41648F052E0A4
:104FD000F51609F465C083E0F81609F468C0E7CE59
:104FE00041E0E41207C080910201823008F46BC0F6
:104FF000815067C052E0E51611F0F12CD8CE8091B7
:105000000001909101018230910528F00197909361
:1050100001018093000180919602882329F010926B
:10502000960281E0809397024C9BE7CF809100012C
:10503000909101018E519F4F20910303820F911D8A
:105040000E949622B4CE8091930281110E94D922AF
:105050004C9921C081E0E81208C0E092960280914C
:10506000020190E08E519F4F10C042E0E4120FC049
:1050700081E08093970280910001909101018E510F
:105080009F4F20910303820F911D0E94962281E081
:105090008093950202C00E94C5220E94D52287CE2D
:1050A0004C9987C080910403811183C080CE51E068
:1050B000E5121AC08091020190910303891718F438
:1050C0008F5F8093020180919702882329F01092CC
:1050D000970281E0809396024C9B69CE80910201F9
:1050E00090E08E519F4FACCF82E0E81260CE80916D
:1050F0000001909101012091010330910203821778
:10510000930728F401969093010180930001809108
:105110009602882329F01092960281E080939702EC
:105120004C9B45CE83CF80910403811140CE42E059
:105130004F1508F43CCEF3943ACE809104038111CC
:1051400036CEFF2009F459CFFA9431CE0E94672D54
:105150002D96E9E00C949F3340910001509101019C
:105160004E515F4F80910303480F511D83E0652F1F
:1051700020E030E000E010E00E94F42A84E60E9483
:10518000E2130E94C52284E60E94E21391CE84E6D7
:105190000E94E2138BE40E946C2B20910303A60172
:1051A000421B5109840F951F9093010180930001C8
:1051B000A7CE8091930281110E94D922809104038D
:1051C000882329F05E98109204038DE004C081E0EA
:1051D000809304038EE00E94882BE9CD8F929F92EA
:1051E000AF92BF92CF92DF92EF92FF92CF93DF9375
:1051F0006B017C010E94A41C4B015C018EE793E0D3
:105200000E947A18EC01892B69F40E94A41CAB015E
:10521000BC01481959096A097B094C155D056E05E1
:105220007F0560F3CE01DF91CF91FF90EF90DF908B
:10523000CF90BF90AF909F908F9008951092D3031E
:105240001092D20388EE93E0A0E0B0E08093D40304
:105250009093D503A093D603B093D70321EE31E00A
:105260003093D1032093D00325E02093A90322E1BA
:105270002093AA0323E12093AB031092A003109282
:105280009F0321E132E030939E0320939D0310920F
:10529000A10324E12093A60324E02093A70328E0A0
:1052A0002093A803109281031092800380938203BD
:1052B00090938303A0938403B093850381EF91E0DF
:1052C00090937F0380937E03109295031092940332
:1052D00010929703109296031092990310929803DC
:1052E00010929B0310929A0360919C036E7F6D7FD6
:1052F00060939C036695617081E0682783E00E945B
:10530000AB1B83E061E00E94F71BE9E5F4E0E49168
:10531000E0938E03E5E4F4E0E491F0E0EE0FFF1F8C
:10532000E25DFB4F859194919093900380938F035E
:1053300082E060E00E94F71B80919C0381FD04C025
:1053400082E061E00E94AB1B82E080938A03E8E583
:10535000F4E0E491E0938B03E4E4F4E0E491F0E022
:10536000EE0FFF1FE85CFB4F8591949190938D03A6
:1053700080938C0381E092E090937F0380937E037F
:105380001092CF031092CE031092CD031092CC0353
:105390000E94961F089590917D032091CC032132A5
:1053A00008F04AC080915B038111FCCF32E030935A
:1053B0005B0331E030935A033FEF3093590310926F
:1053C000580320935703ADE5B3E047E353E0FA01F8
:1053D0003E2F341B321718F43D913193F9CF1092C0
:1053E000360320913603990F922B909336039091B8
:1053F0003503913061F41092350390913603909308
:10540000BB009091BC0093FDF8CF95EC01C095EEE8
:105410009093BC0090915B039230E1F3909159031B
:105420009F3F79F080915903803241F08091590378
:10543000803331F084E005C081E003C082E001C028
:1054400083E01092CD031092CC0310925C03089578
:1054500091E090935C0380937D031092CD031092B2
:10546000CC0308950F931F93CF9388E60E94282AB8
:1054700080ED93E060E00E94111E0EE213E0F8015F
:105480008081CAE06C2F0E946634692FF0E18F9F03
:10549000600D112480ED93E00E94111EF8018181BE
:1054A0006C2F0E946634692FF0E18F9F600D1124EC
:1054B00080ED93E00E94111EF80182816C2F0E9402
:1054C0006634692FF0E18F9F600D112480ED93E029
:1054D0000E94111EF80183816C2F0E946634692F8F
:1054E000F0E18F9F600D112480ED93E00E94111E6A
:1054F000F80184816C2F0E946634692FF0E18F9F40
:10550000600D112480ED93E00E94111EF801858149
:105510006C2F0E946634692FF0E18F9F600D11247B
:1055200080ED93E00E94111EF80186818E516C2F50
:105530000E946634692FF0E18F9F600D112480ED89
:1055400093E00E94111E0E94CB29CF911F910F91D1
:10555000089590915B039111FCCF613208F060E2F5
:1055600091E090935B0390935A032FEF209359039C
:1055700010925803260F209357039093360390916F
:105580003603880F892B8093360380913503813051
:1055900061F410923503809136038093BB008091B3
:1055A000BC0083FDF8CF85EC01C085EE8093BC0084
:1055B00080915B038130E1F380915803861710F4EA
:1055C00060915803A7E3B3E02EE033E0F9018E2F9A
:1055D000821B861718F48D918193F9CF1092CF0317
:1055E0006093CE03862F0895A0E0B0E0EAEFFAE2E0
:1055F0000C948433E82EC62ED42EE901EDEFE80F8B
:10560000E03128F4F0E0E353FE4FF08001C0F12CCC
:105610006AE070E080E090E00E94EE28892B29F09B
:105620008EE793E00E949218F3CF8EE793E06EE747
:105630000E9426188EE793E062E06F0D0E94261804
:105640008EE793E06E2D0E942618FF2069F08EE70A
:1056500093E06C2D0E94261882E0F81205C08EE7B8
:1056600093E06D2D0E9426188EE793E06FEE0E9466
:105670002618209749F00115110531F0CE0160E0A0
:1056800070E0A8010E94A03468EE73E080E090E032
:105690000E94EE28E12CF12C0150110962E370E028
:1056A00080E090E00E94EE28892B89F08EE793E05D
:1056B0000E949218209791F3E016F10678F7FE0108
:1056C000EE0DFF1D8083C70101967C01E7CFCDB7AA
:1056D000DEB7E8E00C94A033A5E0B0E0E2E7FBE23F
:1056E0000C94883360E040E09E012F5F3F4F05E05F
:1056F00010E00E94F42ACE01019660E070E040E1E3
:1057000050E00E94B730CB012596E4E00C94A4331E
:105710000F931F9360E040E020E030E000E010E0F5
:105720000E94F42A1F910F9108950F931F93682FE1
:1057300081E140E020E030E000E010E00E94F42A47
:105740001F910F9108951092A8038DE993E060E0F6
:105750000E946D30089588E08093A8038DE993E05E
:1057600060E00E946D300895CF93C82F682F607F4E
:105770008DE993E00E94873080E1C89FB001112439
:105780008DE993E00E948730CF91089581E00E94D7
:10579000B42B8BE39FE10197F1F70895A8E0B0E007
:1057A000E4EDFBE20C948A3398E0EBE9F1E0DE01F2
:1057B000119601900D929A95E1F79091A503961795
:1057C00010F46FEF690FFE013196E60FF11DE60F41
:1057D000F11D9081890F80680E94B42B2896E2E029
:1057E0000C94A633CF93DF93CDE9D3E08E818B7FEA
:1057F0008E8388600E94B42B1B86CE0160E00E94DD
:105800006D30DF91CF910895CF93DF93CDE9D3E051
:105810008E81982F94609E838C600E94B42B88E0C8
:105820008B87CE0160E00E946D30DF91CF910895AB
:10583000EDE9F3E086818E7F868388600E94B42B39
:105840000895EDE9F3E08681982F91609683896051
:105850000E94B42B0895A2E0B0E0E1E3FCE20C94D6
:105860008633877028E0829FC00111248064698399
:105870007A830E94B42B6981E62E7A81F72E870104
:10588000085F1F4FF70161917F018DE993E00E944E
:10589000A030E016F106B1F72296E6E00C94A233B0
:1058A0000F931F93CF93DF938C01C0E0D0E0F801FA
:1058B000EC0FFD1F6491662371F0E0919D03F09160
:1058C0009E030190F081E02D8DE993E00995892BED
:1058D00011F02196ECCFCE01DF91CF911F910F9166
:1058E00008958F929F92AF92BF92CF92DF92EF92E4
:1058F000FF926C010E94A41C4B015C01E12CF12C75
:105900000E94A41CDC01CB0188199909AA09BB09D2
:105910008C159D05AE05BF0598F3FF90EF90DF90C5
:10592000CF90BF90AF909F908F900895682FE09197
:105930009D03F0919E030190F081E02D8DE993E0AD
:10594000099508958F929F92AF92BF920F931F93E4
:10595000CF93DF93CDB7DEB7A1970FB6F894DEBF34
:105960000FBECDBF19A2423008F44AE08E010F5D90
:105970001F4F842E912CA12CB12CA50194010E94C3
:105980002633E62FB901CA0101501109EA3014F497
:10599000E05D01C0E95CD801EC93232B242B252B7F
:1059A00061F78DE993E0B8010E945730A1960FB6D8
:1059B000F894DEBF0FBECDBFDF91CF911F910F9145
:1059C000BF90AF909F908F900895A0E0B0E0EBEE75
:1059D000FCE20C948033962F3FB7F89440918502F7
:1059E00050918602609187027091880226B5A89B2B
:1059F00006C02F3F21F04F5F5F4F6F4F7F4F3FBF7C
:105A0000762F652F542F4427420F511D611D711DA4
:105A1000E2E0440F551F661F771FEA95D1F7EA01B0
:105A2000CC0FDD1FCC0FDD1F4C275D27EA01CC0F0B
:105A3000CD2FCC1FDD0BD195C427D5277E01F69441
:105A4000FE2CEE24F794E794082F10E0692F70E005
:105A5000601B710B072E000C880B990B0E94E33121
:105A600020E830E040E857E30E9442324B015C01FD
:105A7000CE25DF25BE0180E090E00E94E1319B0150
:105A8000AC01C501B4010E9442326B017C01B80136
:105A9000110F880B990B0E94E3319B01AC01C701E8
:105AA000B6010E94C1330E942D34862FCDB7DEB7D8
:105AB000ECE00C949C3380E090E00E94331C0E9448
:105AC000F22B81E0809323021092280208950F9315
:105AD0001F93CF930E94C62B03E011E0C0E08C2FF0
