:100000000C9410020C9438020C9438020C942815AD
:100010000C9428150C9428150C9442290C94380241
:100020000C9438020C9438020C9438020C94381951
:100030000C9438020C9438020C9438020C94380258
:100040000C941B1F0C9438020C9438020C94380248
:100050000C9438020C9438020C9438020C94380238
:100060000C94B8150C9438023C0A3F0A410A430A22
:10007000450A480A4A0A4C0A4E0A500A520A1B0C00
:10008000280C390C450C500C5C0C720C830C880C41
:100090009A0C2A0B2C0B2F0B310B330B350B380B17
:1000A0003A0B3C0B3E0B5B0B620B690B770B8C0B1B
:1000B0009A0BA80BB60BCA0BD80B3C1C431C551C47
:1000C0006D1C771C811C931C9D1CA41CBC1CCF1C8C
:1000D000DF1CF71C3D2640264326462649264C2693
:1000E0004F26426972746864617900486170707962
:1000F000004963682062696E206869657221005B4F
:10010000205D204D5033005B205D20526164696F9B
:10011000005B205D205765636B746F6E0020205B71
:100120006175735D0020205B616E205D004D503372
:1001300000526164696F00546F6E005765636B74A1
:100140006F6E202020205B20202020205D004E6547
:100150007565205765636B7A656974006175730016
:10016000616E200062697300766F6E005B20202054
:100170005D2044696D6D656E205B205D004E61639E
:1001800068746D6F647573207374656C6C656E0054
:1001900061757300616E20002E3230004E6163681D
:1001A000746D6F647573205B2020205D004E657553
:1001B00065205568727A6569742F446174756D00A5
:1001C0005A3A2000416B6B753A0020543A20005295
:1001D000414D3A2020004932433A20002D3132303F
:1001E000353136004669726D776172653A2000627A
:1001F00079204E696B6F6C6169205261646B650098
:10020000446965736572204E4F4B4F2067656820C7
:100210007274004D65696E204E4F4B4F00446973F8
:1002200074616E7A6C696368742020205B205D00C5
:100230005374756D6D202020202020202020205B0D
:10024000205D00416B6B752073706172656E2020BC
:1002500020205B205D007765697465722E2E2E006C
:1002600044697374616E7A202B2F2D205B205D0012
:100270004576656E747320202B2F2D205B205D004A
:100280004C454420202020202B2F2D205B205D007A
:100290004E4F4B4F207374656C6C656E007A6569C8
:1002A00074207374656C6C656E00416C61726D20B6
:1002B0007374656C6C656E00537069656C20776152
:1002C0007320766F72004E61736520647220636BD9
:1002D000656E00206175662056002055706461745B
:1002E00065206572666F6C6772656963680050416E
:1002F000555345004B65696E65204D50337320673B
:100300006566756E64656E004765736368696368EA
:100310007465005B3C5D5B205D5B205D5B3E5D006A
:10032000476573636869636874656E20680041554A
:10033000582D45696E67616E6700456967656E6532
:1003400073206800526164696F20680020576563FC
:100350006B746F6E202B2F2D205B205D0000000042
:1003600000240027002A000000000800020100000D
:10037000030407000000000000000000000000254A
:100380000028002B000000000023002600290004A4
:10039000040404040404040202020202020303032C
:1003A0000303030102040810204080010204081026
:1003B00020010204081020205568720072656E004A
:1003C00047656275727473746167210053616D7360
:1003D000746167004672656974616700446F6E6E90
:1003E0002E746167004D697474776F6368004469A7
:1003F000656E73746167004D6F6E74616700536F53
:100400006E6E7461670020416C61726D20004E61F8
:10041000736520647220636B656E0000951F9319ED
:1004200011241FBECFEFD8E0DEBFCDBF12E0A0E0A9
:10043000B1E0ECE1F0E602C005900D92A631B10703
:10044000D9F723E0A6E1B2E001C01D92A73CB207B4
:10045000E1F712E0CFE0D2E004C02197FE010E9454
:10046000382CCE30D107C9F70E947F020C9401309E
:100470000C940000CF92DF92EF92FF920F931F93A4
:10048000E82FF92F05C0015011092109310961F147
:10049000908196239417B9F305C0015011092109E1
:1004A000310911F1908196239413F7CFC12CD12CEF
:1004B000E12CF12C0AC08FEFC81AD80AE80AF80A12
:1004C0000C151D052E053F0579F0808186238417C4
:1004D00091F36C2D7D2D8E2D9F2D1F910F91FF90EF
:1004E000EF90DF90CF90089560E070E080E090E0C2
:1004F0001F910F91FF90EF90DF90CF900895A5E0AE
:10050000B0E0E5E8F2E00C94BB2F789484B582600B
:1005100084BD84B5816084BD85B5826085BD85B5A7
:10052000816085BD80916E00816080936E00109225
:1005300081008091810082608093810080918100A0
:100540008160809381008091800081608093800031
:100550008091B10084608093B1008091B00081608F
:100560008093B00080917A00846080937A008091BB
:100570007A00826080937A0080917A008160809313
:100580007A0080917A00806880937A001092C1008E
:100590001CBC80E880BF8FE380937E008091640064
:1005A0008460809364008091640082608093640022
:1005B0008091640080648093640088EC8AB98CE246
:1005C00084B98EE387B980E48BB981E088B9109251
:1005D000800310927F0310927E0310927D0310928D
:1005E0007C0310927B038DE991E0909382038093CA
:1005F000810390917103963108F057C02DEB30E0E4
:1006000030937C0320937B032BE931E030937E030E
:1006100020937D032CE231E03093800320937F030D
:1006200020916800983050F031E09E3008F430E0BE
:1006300081E001C0880F3A95EAF701C084E0822B7F
:1006400080936800983038F09E3040F0963148F042
:1006500020E030E008C02DE630E005C02BE630E0B9
:1006600002C02CE630E03093790320937803983071
:1006700030F481E001C0880F9A95EAF70EC0292F67
:1006800030E09E3018F42850310902C02E50310954
:1006900081E001C0880F2A95EAF780937A03809160
:1006A0008103909182030197F1F780917F039091EC
:1006B0008003892B21F18091E8029091E90223E0E7
:1006C00085369207E1F0009711F00E94A215809103
:1006D00083038E7F809383031092E6021092E702D9
:1006E00085E693E09093E9028093E802E091780335
:1006F000F0917903908180917A03892B80830E9405
:1007000034228CE00E94272284EF91E00E9434255D
:1007100086E06EE140E020E030E000E010E00E9482
:10072000932184E00E94382281E090E00E94901999
:1007300091E0811101C090E09093B20382E090E0DB
:100740000E94901980932B0283E090E00E94901900
:1007500091E0811101C090E09093B30384E090E0B8
:100760000E9490198093BF0385E090E00E94901949
:100770008093BE0386E090E00E9490198093BD03B1
:1007800087E090E00E9490198093370288E090E023
:100790000E9490198093B60389E090E00E9490191E
:1007A00080932A028AE090E00E94901991E08111E2
:1007B00001C090E0909329028BE090E00E94901994
:1007C00091E0811101C090E0909331028CE090E0C3
:1007D0000E949019809330028DE090E00E94901961
:1007E00080932E028EE090E00E94901980932F0259
:1007F0008FE090E00E94901980932D0280E190E0BC
:100800000E94901991E0811101C090E0909328021C
:1008100081E190E00E949019182F82E190E00E94FF
:100820009019282F30E0C9014AE0149F800D911DD6
:100830001124909327028093260283E190E00E9486
:1008400090198093360210E2E12E12E0F12E05E1BC
:1008500010E0C8010E949019D82EC80101960E948C
:100860009019282F30E0C9016AE0D69E800D911DB5
:100870001124F701819391937F010E5F1F4F0B317C
:10088000110539F78BE190E00E94901991E08111F8
:1008900001C090E090931F028CE190E00E949019BB
:1008A00091E0811101C090E090931E0280E090E001
:1008B0000E94231D80931D0281E090E00E94231D71
:1008C00080931C021092320288E60E94C72081EABF
:1008D00093E06BE971E00E9463290E946A2084E141
:1008E0000E949D2488E60E94C72081EA93E06EE979
:1008F00071E00E9463290E946A200E940C2484E80F
:1009000093E064E144E020E00E94272A0E94E7256A
:1009100084E190E00E949019182F8A3008F045C0B9
:1009200084E893E00E948B298AED92E00E94E52200
:1009300083E061E046E50E94442780E090E00E9469
:10094000F41B8EE20E940623812F6AE00E94182C7D
:10095000892F90E00E94F41B83ED92E00E94E52233
:1009600081E090E00E94F41B8EE20E94062380E06A
:1009700090E00E94F41B84E064E00E94522286EC26
:1009800092E00E94E5228BE064E045EF0E9444275C
:1009900084E190E06AE00E948D1981E060E00E94AD
:1009A000C92484E893E00E948B290E949E1988E55F
:1009B00092E060E570E040E020E530E00E948626AD
:1009C00080E793E066E970E040E026E930E00E94CD
:1009D00086265E9A0E942E140E94DB1380932C02BE
:1009E00087E40E940B2290913202891B8F568093DC
:1009F0003402F3E6FC8323E62B83CE0101963C010F
:100A00000E942E1487E00E94F81E8132934024F049
:100A10008091B003882351F087E00E94F81E803255
:100A2000934004F58091B0038823E1F09091B003E6
:100A300081E089278093B00387E00E94F81E80320E
:100A4000934014F00C9425108091B503882311F481
:100A50000C94251080912902882311F40C94251000
:100A60000E94DB25809116032B81281709F463C1AE
:100A70008091B8038823E1F080911E028823C1F0A1
:100A80008091AF03811114C080912902882339F02D
:100A90008091B003811103C00E94DB2509C08091C1
:100AA000B503811105C00E94462281E08093B50301
:100AB00010921B02809117033C81381709F4B4C0CF
:100AC0008091AF03811179C00E940B2690911C0286
:100AD00080911A0398136DC090911D0280911903A3
:100AE000981367C081E08093B40380911A0281114A
:100AF00064C08091B803811160C06BE771E00E940F
:100B0000B4228091390281115F988091B2038111E2
:100B100007C080913A02811103C08FE60E94A41998
:100B200080ED97E00E9434250E9430197C01FF245B
:100B30000E943019E816F90621F04C9902C00C9475
:100B40003D1080913802843011F40C943D1084E8FB
:100B500093E00E948B2987E061E00E9452228BEE95
:100B600090E00E94E52286E062E00E94522282EE3E
:100B700090E00E94E52281E065E00E945925182F4F
:100B8000112391F080E064E10E94592560E040E08B
:100B90000E94442780E064E10E94592563E040E020
:100BA0000E9444271150ECCF84EF91E00E9403256E
:100BB000BFCF10921A021092B403109128020E9423
:100BC0009623181789F180911703843068F1112357
:100BD00011F40C944E1081508093170381E0D12EB4
:100BE000D826D0922802809117036091160370E0F6
:100BF0004091150350E02091190330E000911A0351
:100C000010E0E090BB03F090BC0390E00E9404175A
:100C10008091BB03825B80931B030E94D12080E103
:100C200090E06D2D0E948D198091AF03811102C05B
:100C30000E9455278091B80381117DC08091B20335
:100C4000811179C08091B9039091BA030A977CF41D
:100C50008091B00381110BC00E949E1988E993E036
:100C600060E570E040E020E530E00E9486264C9987
:100C700062C08091330281115EC08091B103811105
:100C80005AC08091B9039091BA0302970CF453C0F3
:100C9000E0912A02F0E0EF55FE4F108161E0610F14
:100CA00081E00E945925811346C00C9451101630E2
:100CB00010F00C94EA10143011F00C94E21083E060
:100CC00061E00E94522281EF90E00E94E522809133
:100CD0002B024CE1849FC00111240E949E1E0E94A1
:100CE0009E1980E293E06AEF70E040E02EE031E090
:100CF0000E94862680E293E066E970E040E024EB03
:100D000030E00E94862684E992E06AEF70E040E0DD
:100D10002AEF30E00E94862680ED97E00E940325AE
:100D200080E090E00E949E1E0E943F148091B503D7
:100D300081110C94D5108091AF0381117CC08091FA
:100D4000B703811178C08091B603882309F473C07A
:100D50002D988FE090E00197F1F72D9A83E290E0D3
:100D60000197F1F72D98EFEAF3E04491EBE9F3E016
:100D7000E491F0E0EE0FFF1FEB57FC4F859194914B
:100D8000642F00E412E42FE030E00E943A02611583
:100D900071058105910549F0DC01CB010196A11D8A
:100DA000B11DBC01CD019F7003C060E070E0CB01BC
:100DB0001091B6032AE330E040E050E00E94672F34
:100DC00069E1169FC0011124092E000CAA0BBB0B70
:100DD000281739074A075B0770F58091B503882308
:100DE00091F080911F02882371F084E893E00E94C3
:100DF00082290E940F1F609316027093170280933E
:100E00001802909319028091B803811114C0809147
:100E10001B02811110C08091B10381110CC080911F
:100E20003302811108C08091B203811104C04C9932
:100E300002C00C9475108091B5038823C9F080918D
:100E40001F028823A9F00E940F1F00911602109123
:100E5000170220911802309119020A561F4F2F4F86
:100E60003F4F061717072807390710F40C94801016
:100E7000809116038B83909117039C8380E00E94DE
:100E8000612A809338029091AF03823011F40C9460
:100E9000CE0F833011F40C94E20F813011F00C94DA
:100EA0001A1091110C941A1080E50E949D240E9442
:100EB0009F2284E893E00E948B298091B2038823CB
:100EC00031F088E70E9406238824839401C0812C96
:100ED00082E060E00E94522288EB92E00E94E522CC
:100EE00082E061E00E9452228AEA92E00E94E522BA
:100EF00081E062E00E9452220E9402268DE992E087
:100F00000E94E52282E063E00E94522280E992E0A2
:100F10000E94E522A82C80913802843011F40C94B0
:100F2000EA0F80E06A2D4EE70E94442780E061E0EE
:100F30000E94C92480913802823011F40C94B50FBC
:100F4000833011F40C94C20F813029F7E1E0AE1622
:100F500091F1AE1668F1F2E0AF1609F4E1C123E0B9
:100F6000A212D9CF84E893E00E948B2982E060E04E
:100F70000E94522280E892E00E94E52282E061E035
:100F80000E94522280E792E00E94E52282E062E025
:100F90000E94522280E692E00E94E52282E063E015
:100FA0000E94522286E592E00E94E52210E030C5C0
:100FB0000E942911B0CFA092350283E991E00E94EE
:100FC00028278091BE038A3010F40E940726809162
:100FD000BE036AE070E00E940C1D8AE30E940623B3
:100FE0008091BF038A3010F40E9407268091BF03CE
:100FF0006AE070E00E940C1D0E94022680E061E021
:101000000E9452228EE491E00E94E52282E063E099
:101010000E9452228BE391E00E94E5228EE063E081
:101020000E9452228091BD03813049F028F0823025
:1010300051F48DE291E005C087E391E002C081E3C5
:1010400091E00E94E5220E94A92200E010E0FAE06F
:10105000FF2EA4E1EA2E80913802843009F444C1C5
:10106000153010F062E001C063E080E040E20E94D1
:101070004427153010F063E001C062E080E04EE7E5
:101080000E94442782E062E00E9452228091BE03C7
:101090008A3010F40E9407268091BE036AE070E057
:1010A0000E940C1D8AE30E9406238091BF038A30B0
:1010B00010F40E9407268091BF036AE070E00E944E
:1010C0000C1D0E9402268091B303882319F085E24B
:1010D00091E002C08DE191E00E94E522123089F09A
:1010E00030F4112361F01130A1F483E00FC014300B
:1010F00061F048F0153069F48EE063E008C082E0EA
:1011000005C085E003C086E001C08EE062E00E9479
:10111000522280E061E00E94C9248091380282302E
:1011200009F4D6C0833009F4D8C0813009F093CFD8
:10113000123009F455C028F4112379F11130D9F196
:10114000D1C0143009F468C008F458C0153009F053
:10115000C9C00E949F22D090B3031092B30384E8C9
:1011600093E00E948B2982E060E00E94522281E19C
:1011700091E00E94E52282E061E00E94522287E035
:1011800091E00E94E52282E062E00E9452228FEF0D
:1011900090E00E94E52200E065C08091BE038E30A1
:1011A00020F4865F8093BE039DC06F2D0E94182C93
:1011B0009093BE0397C02091BE03822F6F2D0E9493
:1011C000182C993011F4295001C02F5F2093BE03D1
:1011D0008091BE03883109F085C0E092BE0382C0D1
:1011E0008091BF03813320F4865F8093BF037AC070
:1011F0006F2D0E94182C9093BF0374C02091BF03E1
:10120000822F6F2D0E94182C993011F4295001C0A3
:101210002F5F2093BF0366C09091B303892780930B
:10122000B30360C083E06091BD0348E50E9444279A
:1012300080E0602F4EE70E94442783E061E04DE2AA
:101240000E94442783E0602F0E94522280E061E0E8
:101250000E94C92480913802823001F1833039F133
:10126000813029F0809138028430E1F629C00130C4
:10127000C9F30093BD0386E090E0602F0E948D19B2
:101280008091BD03811103C081E00E94A81A809162
:10129000BD03823039F70E94A81AE4CF80E0602FA6
:1012A00040E20E9444270230E8F60F5FDBCF80E087
:1012B000602F40E20E9444270023A1F20150D2CFC8
:1012C000D092B30380E06BE071E00E94B4220AC0C8
:1012D000153008F0C0CE1F5FBECE112309F4BBCE7F
:1012E0001150B9CE01E0B7CE002391F083E090E039
:1012F0006091B3030E948D1984E090E06091BF0378
:101300000E948D1985E090E06091BE030E948D19C6
:1013100080E06BE071E00E94B42210923502FBCDB8
:10132000C090170390901603D0901903B0901A0341
:101330008BE891E00E9428278DEA91E00E94E52247
:1013400082E061E00E9452228CE991E00E94E52255
:101350000E94A9228091BB039091BC03805D9740BD
:101360009093BC038093BB0310E000E0E4E1EE2E19
:1013700080913802843009F400C382E062E00E9468
:10138000522239E03C1510F00E9407268C2D6AE0AD
:1013900070E00E940C1D8AE30E94062349E0491573
:1013A00010F00E940726892D6AE070E00E940C1D53
:1013B0000E94022682E063E00E94522269E06D15DD
:1013C00010F00E9407268D2D6AE070E00E940C1D2F
:1013D0008EE20E94062389E08B1510F00E940726FA
:1013E0008B2D6AE070E00E940C1D88E991E00E945C
:1013F000E5228091BB039091BC030A9714F40E94EC
:1014000007268091BB039091BC030E94F41B8EE0E1
:1014100061E00E94522280913102882319F084E910
:1014200091E002C080E991E00E94E52280E0011194
:101430006BC662E040E20E94442780E061E00E94C7
:1014400052228BEF800F863048F480E062E040E269
:101450000E94442780E063E00E9452228EE70E94AF
:101460000623202E312C9BE029163104F8F4F101DB
:10147000EC5CFF4F0C94382C8EE061E015C082E0EC
:1014800005C083E003C085E001C086E062E00CC0D7
:1014900082E009C083E007C085E005C086E003C0A4
:1014A0008AE001C08BE063E00E94522280E061E0AC
:1014B0000E94C92480913802823009F450C28330DE
:1014C00009F452C2813009F053CF002351F0F101E9
:1014D0003197EA30F10508F0B9C1E15CFF4F0C9497
:1014E000382C8BE891E00E9428278DE791E00E943C
:1014F000E52282E061E00E9452228CE691E00E94A7
:10150000E52282E062E00E94522288E691E00E9499
:10151000E52282E063E00E94522284E691E00E948C
:10152000E522F12C80913802843009F47EC183E0F9
:1015300061E00E94522280913102882319F080E6F6
:1015400091E002C08CE591E00E94E52280911E02AC
:10155000811102C040E201C048E580E161E00E94E3
:10156000442786E062E00E945222809130028A3055
:1015700010F40E940726809130026AE070E00E9419
:101580000C1D8AE30E94062380912E028A3010F4FB
:101590000E94072680912E026AE070E00E940C1DD6
:1015A0000E94022686E063E00E94522280912F0270
:1015B0008A3010F40E94072680912F026AE070E0C2
:1015C0000E940C1D8AE30E94062380912D028A301E
:1015D00010F40E94072680912D026AE070E00E94BC
:1015E0000C1D0E940226E1E0EF1548F080E062E069
:1015F00040E20E94442780E061E00E9452228EEF88
:101600008F0D843068F480E061E040E20E9444275E
:1016100080E063E040E20E94442780E062E00AC08C
:10162000F5E0FF1548F480E062E040E20E944427C4
:1016300080E063E00E9452228EE70E9406232F2C56
:10164000312C2AE022163104E8F4F101E75BFF4F68
:101650000C94382C83E001C080E161E011C086E089
:1016600005C087E003C089E001C08AE062E008C0ED
:1016700086E005C087E003C089E001C08AE063E03E
:101680000E94522280E061E00E94C92480913802C9
:10169000823009F4BFC0833009F4C2C0813009F040
:1016A00041CF3AE02316310408F08FC0F101ED5A22
:1016B000FF4F0C94382C9091310281E08927809360
:1016C000310283C090911E0281E0892780931E021F
:1016D0007CC0809130028E3020F4865F809330028F
:1016E00074C06AE00E94182C909330026EC0209162
:1016F0003002822F6AE00E94182C993011F4295090
:1017000001C02F5F2093300280913002883109F0B0
:101710005CC0E092300259C080912E02813320F4E7
:10172000865F80932E0251C06AE00E94182C90932D
:101730002E024BC020912E02822F6AE00E94182CAC
:10174000993011F4295001C02F5F20932E023DC023
:1017500080912F028E3020F4865F80932F0235C057
:101760006AE00E94182C90932F022FC020912F0224
:10177000822F6AE00E94182C993011F4295001C080
:101780002F5F20932F0280912F028831F1F4E09295
:101790002F021BC080912D02813320F4865F80933D
:1017A0002D0213C06AE00E94182C90932D020DC0E8
:1017B00020912D02822F6AE00E94182C993011F49A
:1017C000295001C02F5F20932D028BE090E06091A3
:1017D00031020E948D198CE090E0609130020E94ED
:1017E0008D198DE090E060912E020E948D198EE09F
:1017F00090E060912F020E948D198FE090E060913F
:101800002D020E948D198CE190E060911E020E94D1
:101810008D1988CE48E04F1508F484CEF39482CE1B
:10182000FF2009F47FCEFA947DCE80E06BE071E07A
:101830000E94B4229DCD6DE06C1518F08AE0C80EB0
:1018400005C08C2D6AE00E94182CC92E11E090CDA5
:101850008C2D6AE00E94182C993019F497EFC90E6C
:1018600001C0C394E8E111E0CE1282CD74E1C72E2D
:101870007FCDF0E3F91518F02AE0920EE7CF892D1D
:101880006AE00E94182C992EE1CF892D6AE00E940F
:10189000182C993019F437EF930ED8CF9394D6CFF4
:1018A00045E14D1518F06AE0D60ED0CF8D2D6AE0D7
:1018B0000E94182CD92E0DC08D2D6AE00E94182C84
:1018C000993019F487EFD80E01C0D3949FE19D158C
:1018D00030F0D110BBCF11E0DD24D39449CD6EE1BF
:1018E000D62EB4CFE2E0EB1518F0FAE0BF0EAECF83
:1018F0008B2D6AE00E94182CB92E9111A7CF11E010
:10190000BB24B39435CD2BE02B1598F1B3949ECF27
:101910008091BB039091BC038935910514F40A961C
:1019200004C06AE070E00E94242C9093BC03809372
:10193000BB038CCF2091BB033091BC03C9016AE08B
:1019400070E00E94242C099719F42950310902C033
:101950002F5F3F4F3093BC032093BB0377CF0A30F8
:1019600008F006CD0F5F04CD002309F401CD01502E
:10197000FFCC11E05AE0B52EFBCCE090BB03F09019
:10198000BC0330E3E31A38EFF30AF092BC03E092B1
:10199000BB03112341F1692D70E02D2D30E00B2D9B
:1019A00010E08C2D90E040E050E00E940417C092BF
:1019B00017039092160310921503D0921903B09258
:1019C0001A038091BB03825B80931B030E94D1208A
:1019D0000E943F140E949623682F8093280280E182
:1019E00090E00E948D1980E06BE071E00E94B422CB
:1019F00092CA82E390E00E943425809138028230BE
:101A000009F493C2833009F499C2813009F44BC0C0
:101A100080913802843009F49DC20E94A9221111DC
:101A200007C080912B024CE1849FC001112402C0A9
:101A300080E090E00E949E1E133011F40E949F22CD
:101A400080E0612F4EE70E9444278FE060E00E9413
:101A5000522280912B026AE070E00E940C1D8FE000
:101A600061E00E94522280912A026AE070E00E94A6
:101A70000C1D8FE062E00E9452228091B6036AE062
:101A800070E00E940C1D8FE0612F0E94522280E0C6
:101A90000E94612A809338028111ABCF84E690E0E6
:101AA0000E943425F4CF113009F444C060F11230A3
:101AB00009F451C0133009F0ABCF84E893E00E94E1
:101AC0008B2982E060E00E94522283E492E00E942F
:101AD000E52282E061E00E94522280E392E00E94CF
:101AE000E52282E062E00E9452228DE192E00E94B3
:101AF000E52282E063E00E94522283E192E00E94AC
:101B0000E52200E06DC080912B02893020F48F5FC8
:101B100080932B0202C010922B0260912B02ECE109
:101B20006E9FC00111246D830E949E1E82E090E092
:101B30006D810EC080912A02893020F48F5F8093DE
:101B40002A0202C010922A0289E090E060912A02E3
:101B50000E948D195DCF8091B603893020F48F5F8C
:101B60008093B60302C01092B60388E090E06091C3
:101B7000B603EECF80912902811137C040E282E1A5
:101B800060E00E9444278091B203811130C040E29E
:101B900082E161E00E94442780911F02811129C0E7
:101BA00040E282E162E00E94442780E0602F4EE73D
:101BB0000E94442782E1602F0E9452220330D8F411
:101BC0000E94A92280E061E00E94C924809138022D
:101BD000823009F496C1833009F49DC1813071F0DF
:101BE00080913802843031F613CF48E5C8CF48E5FC
:101BF000CFCF48E5D6CF0E949F22E4CF013011F12C
:101C0000C8F00230C9F1033059F783E791E00E9430
:101C1000282780E092E00E94E52281E160E04FEE1B
:101C20000E94442780E061E00E94522244E1E42EB9
:101C3000F12C2FC0609129026827609329028AE065
:101C400090E021C00E949F228091B203811109C0BF
:101C500082E161E04EE20E9444270E94D1190E9475
:101C6000E0196091B20381E068276093B20381E0DC
:101C700090E00E948D19B4CF60911F026827609395
:101C80001F028AE190E00E948D1982E30E949D2448
:101C9000A7CF8CEE8E0D843119F480E062E004C091
:101CA000883221F480E063E00E945222C7010E9442
:101CB000231D0E940623FFEFEF1AFF0A20E5E2161C
:101CC000F10439F780E060E00E94C92480E06BE015
:101CD00071E00E94B42284E893E00E948B2980E0A6
:101CE0006BE00E941D1C83E060E00E941D1C86E0EA
:101CF0006CE00E941D1C88E060E00E941D1C8DE0CD
:101D000061E00E941D1C80E161E044E00E944427E4
:101D100081E160E00E941D1C80E063E00E9452228D
:101D20008FEE91E00E94E52280913802843009F420
:101D300057CF80E00E94612A8093380280E00E94A1
:101D4000612A823089F780913802843069F380E01B
:101D50000E94612A8093380280E00E94612A8330C9
:101D600091F784E893E00E948B2980E060E00E9474
:101D7000522284EE91E00E94E52281E090E00E94F0
:101D8000F41B8EE20E94062380E090E00E94F41B88
:101D90008CED91E00E94E52280E061E00E945222F9
:101DA00086ED91E00E94E52238E0F32E8F2D0E940F
:101DB000C7200E946A20811108C088E70E9406237C
:101DC0008F2D60E170E00E940C1DF39438E7F31250
:101DD000EDCF80E062E00E9452228FEC91E00E9401
:101DE000E5228091C1039091C203009711F487EC22
:101DF00093E0F301E81BF90BCF010E94F41B8AEC7E
:101E000091E00E94E52288E60E94C72081EA93E0E3
:101E100061E10E94D1140E946A2088E690E062E0AD
:101E200070E00E94482181EA93E00E948C14B82E51
:101E300081EA93E00E948C1426E0959587952A9577
:101E4000E1F7BC01990F880B990B0E94242E20E02A
:101E500030E040E85EE30E94832E6B017C016B2D35
:101E600070E080E090E00E94222E9B01AC01C7014F
:101E7000B6010E94532C40E050E00E94501D8FEDAF
:101E80000E94062380E063E00E94522284EC91E0ED
:101E90000E94E5228BE063E00E94522280EC91E0F8
:101EA0000E94E52280912802882311F083E501C079
:101EB00087E50E94062380913802843009F443CFDD
:101EC00081E00E94612A8093380286E063E00E94EC
:101ED000522286E00E94F81EBC01990F880B990BD4
:101EE0000E94242E20E030E040EA5BE30E94832E33
:101EF00042E050E00E94501D84E690E00E940325DD
:101F0000DACF80E0602F40E20E944427033008F0DF
:101F100067CE0F5F65CE80E0602F40E20E944427CD
:101F2000002309F45DCE01505BCE80E0612F40E2DA
:101F30000E944427133048F41F5F07C080E0612FE0
:101F400040E20E9444271111115080E0612F0E944D
:101F500052225ECD8091B50381110C948B0780E0F5
:101F600090E00E949E1E0C948B0780E06A2D40E258
:101F70000E944427F2E0FA1510F40C948B07A39406
:101F80000C948B0780E06A2D40E20E9444278A145B
:101F900010F00C948B07AA940C948B0791114AC0F3
:101FA0008091B503811146C08091B603882309F45E
:101FB00041C09091B70381E089278093B7030E94C5
:101FC000552738C0992349F00E9490221092AF0300
:101FD0001092B5030E943F142DC0809129028823DE
:101FE00039F08091B003811103C00E94DB2522C02B
:101FF0009091B50381E089278093B5030E9455270E
:102000008091B503811109C080E090E00E949E1E7E
:1020100084E893E00E9482290AC080912B022CE17F
:10202000829FC00111240E949E1E0E94462282E3CC
:102030000E949D248091AF03811102C088E701C0F6
:1020400080EF0E949D240C94000587E00E94F81EFA
:102050008132934074F08091AF03882351F00E9445
:1020600090221092AF031092B5030E943F140C947B
:1020700032050E9455270C94320581E080931A02A4
:1020800080913A02811102C00E943422809139026B
:1020900081115F9A0E943F140C94DD058F5F0C94B0
:1020A000EC0584E06CE00E945925182F8091AF0365
:1020B00081111AE00E949F22183090F58091B5039B
:1020C000882361F080913102882321F08091B80348
:1020D000811104C084E893E00E948229153040F504
:1020E00084E893E00E948B2923C08DE361E50E9480
:1020F00059250E94A41981E080931B020C941B07B0
:102100000E9446220C94380761E040E20E94442776
:1021100080E063E040E20E94442780E062E08FC9F3
:1021200081E56FE60E9459250E94A4190C949B0634
:10213000153011F00C9457060E9430197C0180E094
:1021400063E771E00E94B422FF2401E00E9430198D
:10215000E816F90631F580913802843011F10093C8
:10216000350284E893E00E948B2981E064E10E94BB
:102170005925182F112381F080E064E10E94592530
:10218000D82E80E064E00E945925682F8D2D40E014
:102190000E9444271150EECF84EF91E00E94032566
:1021A000D5CF109235020C94940680913102882389
:1021B00029F08091B80381110C949B060E9446225D
:1021C0000C949B0681E56FE60E9459250E94A41994
:1021D0000C9494061630A1F418E284E893E068E1C8
:1021E0000E94792988EC90E00E94032580913802B2
:1021F000843009F411E01150123078F70C949406F1
:10220000173001F780E063E771E00E94B42200E03C
:1022100010E0812F602F40E00E94442786E990E083
:102220000E94032580913802843011F414E104E007
:10223000812F602F40E20E9444271F5F143148F332
:102240000F5F043028F380ED97E00E9403250C9483
:102250009406ACE0B0E0EFE2F1E10C94C62F80E030
:1022600063E871E00E94B42284E893E00E948B2925
:1022700082E060E00E94522284E493E00E94E52222
:102280000E94FA2582E061E00E9452228AE393E0F4
:102290000E94E5220E94FA2582E062E00E9452221A
:1022A0008EE293E00E94E52282E063E00E945222E7
:1022B00080E293E00E94E5220E94FA25E12C8091C1
:1022C0003802843009F42DC281E060E048E70E94C2
:1022D000442780913C02811102C040E201C040E0ED
:1022E00081E061E00E94442780913902811102C09F
:1022F00040E201C040E081E062E00E94442781E0CA
:1023000063E048E70E94442780E06E2D4EE70E947C
:10231000442781E061E00E94C92480913802823024
:1023200009F4EAC1833009F4F2C1813041F6E816BC
:1023300029F082E0E81609F4C5C1C1CF90913402BA
:1023400080913A02992309F425C1811102C04C9968
:10235000FECF81E063E571E00E94B42282E06BE58C
:1023600071E00E94B42283E06BE471E00E94B42229
:1023700083E891E00E94282784E063E00E945222D3
:1023800083E193E00E94E5228BE063E042E00E945B
:10239000442780913302882319F082E0F82E02C08E
:1023A000FF24F3940E94A922DD24D3948091380263
:1023B000843009F484C14C9909C0809133028111A1
:1023C00005C080913B02882309F4B1C182E060E03E
:1023D0000E94522280913B02882329F088E093E0FA
:1023E0000E94E52214C084E60E949D2482E560E0FC
:1023F00040E09E012F5F3F4F0CE010E00E949321D0
:1024000084E893E0BE016F5F7F4F0E94632987E0FD
:1024100062E00E9452224C9B05C080913B028823BF
:1024200009F49FC180910A018A3010F40E940726A6
:1024300080910A016AE070E00E940C1D8FE20E9408
:102440000623809134028A3010F40E94072680917E
:1024500034026AE070E00E940C1D8FE060E00E9490
:10246000522280913302882329F08EEE92E00E945E
:10247000E52205C08FE060E045E00E9437274C99D7
:1024800006C080913302811102C043E001C041E0E7
:1024900088E063E00E9444278F2D880F8F0D8B5FAB
:1024A00063E00E94522281E061E00E94C924809191
:1024B0003802823009F45BC0833009F462C0813095
:1024C00009F074CFF816E1F0F81638F082E0F8164B
:1024D00059F183E0F81679F169CF80910A018230D1
:1024E00018F0815080930A0180913B02882321F0EB
:1024F00010923B02D0923C024C9930C0F12C56CF46
:102500004C990DC0F0923C0290910A0180913202E8
:10251000890F81590E94A419F0923A0202C00E94C8
:10252000D1190E94E01942CF809133024C9923C106
:10253000811121C13BCF80910A019091340289170A
:1025400018F48F5F80930A0180913B02882321F069
:1025500010923B02D0923C024C9B28CF90910A01F2
:1025600080913202890F81590E94A4191FCF809156
:10257000330281111BCF82E08F1508F417CFF3943B
:1025800015CF80913302811111CFFF2009F4B6CF0E
:10259000FA940CCF811102C04C99FECF81E063E523
:1025A00071E00E94B42282E06BE571E00E94B422E7
:1025B00083E06BE471E00E94B42283E891E00E9422
:1025C000282784E063E00E94522283E193E00E9486
:1025D000E5228BE063E042E00E94442780913302D1
:1025E000882311F012E001C011E00E94A92280911D
:1025F0003802843009F463C080E061E00E94522216
:1026000084EF92E00E94E5228FE060E00E94522277
:1026100080913302882329F08EEE92E00E94E52219
:1026200005C08FE060E045E00E9437274C9906C066
:1026300080913302811102C043E001C041E088E093
:1026400063E00E944427812F880F810F8B5F63E036
:102650000E94522281E061E00E94C92480913802E8
:102660008230D9F0833011F1813009F6113021F038
:10267000123009F0BCCF0AC04C9903C010933A0243
:1026800002C00E94D1190E94E019B1CF809133029B
:102690004C997FC081117DC0AACF809133028111F6
:1026A000A6CF133008F0A3CF1F5FA1CF80913302D4
:1026B00081119DCF112309F49ACF115098CF0E9418
:1026C000E725FDCD80913902811109C08091330247
:1026D000811102C04C996CC05E985F9A02C05E9AEC
:1026E0005F989091390281E089278093390284EFC5
:1026F00091E00E943425E3CD80E06E2D40E20E94FF
:10270000442782E08E1508F4DACDE394D8CD80E03A
:102710006E2D40E20E944427EE2009F4D0CDEA94C9
:10272000CECD0E94E7252C96E7E00C94E22F409155
:10273000320250E041595F4F80910A01480F511D0C
:1027400083E0652F20E030E000E010E00E9493215C
:1027500084E60E949D240E94D11984E60E949D2453
:1027600035CE84E60E949D248BE40E940B2287597B
:1027700080930A0157CE882339F05E981092330275
:102780008DE00E94272212CED09233020E94342282
:102790000DCE882339F05E98109233028DE00E94AE
:1027A000272225CF81E0809333020E9434221FCF5D
:1027B0000E94D11991CFCF93809131028823E9F102
:1027C0008091300290912F0220911703981730F4D6
:1027D000C1E0821768F0291758F009C0891738F44A
:1027E000C0E0821728F4291718F4C1E001C0C0E046
:1027F000891310C050912E0230912D02351738F0F8
:1028000040911603451718F0341708F0C1E0381747
:1028100008F4C1E0281307C03091160380912E02FE
:10282000381708F0C1E0291309C090911603809170
:102830002D02981718F4C1E001C0C0E080912C026D
:10284000C81749F0CC2311F087E401C086E60E9446
:10285000A419C0932C028C2FCF910895CF93DF93AE
:102860000E943019C5E1D3E089830E94C9170E94F4
:10287000531880915A028A83DF91CF91089584E89A
:1028800093E00E948B290E94E7250E940B260E945C
:102890005527089585ED8093BC008091BC0084FD90
:1028A000FCCF10924203089540918102262F30E020
:1028B000240F311D21323105DCF4209142032430F4
:1028C000C9F4FC0180E090E0861758F43091810251
:1028D0002191DC01A15ABD4FA30FB11D2C9301968C
:1028E000F3CF80918102680F6093810280E00895A8
:1028F00081E0089582E008950895E091A003809119
:102900009F03E81730F4F0E0EB50FD4F808190E03A
:1029100008958FEF9FEF08959091A00380919F03FA
:10292000981750F4E92FF0E0EB50FD4F208130E094
:102930009F5F9093A00302C02FEF3FEFC90108955E
:1029400080919F0390E02091A003821B910908953C
:10295000A0E0B0E0EEEAF4E10C94C52F7C01972FE3
:102960008A0180914303882391F0C62FD72F6E01EF
:10297000C40ED51ECC15DD0571F06991D701ED911E
:10298000FC910190F081E02DC7010995F3CF862FCE
:10299000642F0E945414C801CDB7DEB7E8E00C9450
:1029A000E12FA1E0B0E0E7EDF4E10C94CB2F6983D7
:1029B000209143032223D1F020919D03203240F047
:1029C00021E030E0FC013383228380E090E015C0F9
:1029D00080919E03E82FF0E0EC5BFC4F998190839F
:1029E0008F5F80939E0380939D0305C0CE01019667
:1029F00061E00E94541481E090E02196E2E00C94A2
:102A0000E72F60935402709355028093560290937F
:102A10005702DC01CB01845D9E4FAF4FBF4F8093C7
:102A2000500290935102A0935202B093530282E05D
:102A300090E090934F0280934E020E940F1F60938C
:102A40004A0270934B0280934C0290934D0208957A
:102A50001F920F920FB60F9211242F933F934F9313
:102A60005F936F937F938F939F93AF93BF93EF93F6
:102A7000FF93E091E802F091E902309709F451C028
:102A8000968DA685B785858591FF04C09C91892385
:102A900029F447C09C91892309F043C0A389B489D4
:102AA0009C918589809589238C9386899789019744
:102AB000F1F7608D718DA685B785558538E020E0EA
:102AC000CB010197F1F7822F90E095958795282FFC
:102AD0004C91452309F02068315091F7868D81FD96
:102AE00020958091E60290E001968F7399273091AE
:102AF000E702381749F0A091E602B0E0AA55BD4FB1
:102B00002C938093E60203C0868D8160868F828D30
:102B1000938D0197F1F7A389B4899C918589892BBD
:102B20008C93FF91EF91BF91AF919F918F917F9186
:102B30006F915F914F913F912F910F900FBE0F902A
:102B40001F901895E091E802F091E902E817F90763
:102B500069F4A389B4899C918589809589238C9394
:102B60001092E9021092E80281E0089580E0089551
:102B70001F920F920FB60F9211242F933F934F93F2
:102B80005F936F937F938F939F93AF93BF93EF93D5
:102B9000FF938091B900887F803609F49CC068F566
:102BA000883209F45BC090F4803109F454C038F4E1
:102BB000882309F4F6C0883009F44DC0F6C0883186
:102BC00009F44CC0803209F45DC0EFC0803409F4D0
:102BD00068C048F4803309F455C0883309F0E5C073
:102BE00080934003D8C0803509F44FC0883509F47C
:102BF0005DC0883409F0D9C0D6C0883909F4C7C08F
:102C0000A8F4883709F467C038F4883609F463C03B
:102C1000803709F460C0C9C0883809F4B8C0803969
:102C200009F45FC0803809F0C0C05BC0803B09F484
:102C300086C038F4803A09F466C0883A09F47FC047
:102C4000B4C0803C09F4A7C0883C09F4A4C0883B08
:102C500009F48AC0AAC080911D0310C090913F035F
:102C600080913E03981770F5E0913F0381E08E0F4D
:102C700080933F03F0E0E25EFC4F80818093BB00D5
:102C800085EC86C0809340038EC0E0913F0381E0D5
:102C90008E0F80933F038091BB00F0E0E25EFC4F1B
:102CA000808390913F0380913E036EC0E0913F038B
:102CB00081E08E0F80933F038091BB00F0E0E25EE5
:102CC000FC4F80838091410381116DC081E080932E
:102CD0001C0384EA61C083E0809342031092A50242
:102CE000CFCF8091A502803208F051C0E091A502BB
:102CF00081E08E0F8093A5028091BB00F0E0EB573E
:102D0000FD4F8083BDCF85EC8093BC0010924203C1
:102D10008091A502803230F4E091A502F0E0EB57FB
:102D2000FD4F10826091A50270E0E0918302F09166
:102D3000840285E892E009951092A50236C084E0ED
:102D4000809342031092820210928102E0917F02EE
:102D5000F0918002099580918102811105C081E086
:102D60008093810210925F02E091820281E08E0FD7
:102D700080938202F0E0E15AFD4F80818093BB0096
:102D80009091820280918102981708F479CF85E8AA
:102D90008093BC000AC085EC8093BC001092420373
:102DA00004C0109240030E944A14FF91EF91BF911A
:102DB000AF919F918F917F916F915F914F913F91D3
:102DC0002F910F900FBE0F901F90189510924203F5
:102DD00081E08093410310921C0382E161E00E9434
:102DE000161E83E161E00E94161EE9EBF0E080818F
:102DF0008E7F808380818D7F808388E48093B8007C
:102E000085E48093BC000895A0E0B0E0EAE0F7E13B
:102E10000C94BC2F382E962E842EF90184E6E816E9
:102E2000F1042CF082EBE81A87E0F80A03C08EE187
:102E3000E80EF11CE0925E0200935D02E0935C02FA
:102E400030925A029092590280925802AE2DB0E010
:102E500020E833E341EE51E00E94A82F2B013C0112
:102E600022EB37E0FF2484E6C82ED12CC0E9D1E064
:102E7000C901825B97408E159F05DCF4C901837000
:102E80009927892B99F4C901B6010E94242C892B1A
:102E900031F4C901BE010E94242C892B39F480E849
:102EA000480E81E5581E81E0681E711C2F5F3F4F60
:102EB000DFCF8EE4E81A88EFF80AC70164E670E015
:102EC0000E94242C6C01C70160E971E00E94242C4F
:102ED0005C01C1E0D0E0112783E0E822FF24C017A5
:102EE000D1072CF5C230D10589F4E114F10471F455
:102EF000C114D10419F4A114B10441F480E8480EBE
:102F00008BE3581E86E2681E711C0FC0DE01A655B9
:102F1000BE4FAC91B0E020E831E541E050E00E94C6
:102F2000A82F460E571E681E791E2196D8CF292D30
:102F300030E0ACE3B0E00E94F22F6B017C01C80CE2
:102F4000D11CE11CF11C232D30E0A0E1BEE00E9469
:102F5000F22FC60ED71EE81EF91EDF01BB27119700
:102F600020E831E541E050E00E94B32FDC01CB01C5
:102F70008C0D9D1DAE1DBF1DBC01CD01640D751DC9
:102F8000861D971D0E940115CDB7DEB7E1E10C94B7
:102F9000D82FCF92DF92EF92FF920F931F930E9450
:102FA0000F1FC0904A02D0904B02E0904C02F0906C
:102FB0004D028B019C010C191D092E093F098091BE
:102FC000540290915502A0915602B0915702083ECA
:102FD000134021053105D0F00196A11DB11D80934C
:102FE000540290935502A0935602B0935702B70132
:102FF000A60148515C4F6F4F7F4F40934A02509358
:103000004B0260934C0270934D02C9CF4091500225
:1030100050915102609152027091530284179507AA
:10302000A607B70788F1E0914802F091490230976E
:1030300059F10995611571058105910519F00E94F5
:10304000011522C08091540290915502A091560220
:10305000B0915702845D9E4FAF4FBF4F8093500297
:1030600090935102A0935202B093530281E090E0FA
:1030700020914E0230914F02232B11F480E090E01A
:1030800090934F0280934E026091540270915502CA
:1030900080915602909157021F910F91FF90EF90EF
:1030A000DF90CF900895A0E0B0E0E9E5F8E10C945E
:1030B000BD2F4B015C018091440290914502A0918B
:1030C0004602B091470288169906AA06BB0609F483
:1030D000C2C08CE3C82ED12CE12CF12CC501B40167
:1030E000A70196010E94672F60935802CA01B90197
:1030F000A70196010E94672F60935902CA01B90186
:1031000028E130E040E050E00E94672F69017A0139
:1031100060935A02CA01B9016C5F7F4F8F4F9F4F76
:1031200027E030E040E050E00E94672F6F5F60933F
:103130005B02412C512C320140E004E610E0C0E972
:10314000D1E0242F30E02E54384FF901E370FF27EF
:10315000309789F4C901B8010E94242C892B31F4DD
:10316000C901BE010E94242C892B29F48EE691E02E
:10317000A0E0B0E004C08DE691E0A0E0B0E0480E31
:10318000591E6A1E7B1ED301C201AA27BB27C8167F
:10319000D906EA06FB0610F04F5FD3CF40935E02DC
:1031A000309799F4C90164E670E00E94242C892BC1
:1031B00039F4C90160E971E00E94242C892B29F4BB
:1031C0008EE691E0A0E0B0E004C08DE691E0A0E0E2
:1031D000B0E0481A590A6A0A7B0AC418D508E608FA
:1031E000F708C90164E670E00E94242CEC01C901D3
:1031F00060E971E00E94242CABEAB1E020E02130CC
:1032000039F4309749F4209729F4009729F402C043
:103210004C9103C04DE101C04CE150E060E070E032
:10322000C416D506E606F70640F0C41AD50AE60A23
:10323000F70A2F5F11962C3011F72F5F20935D0254
:10324000C394C0925C028092440290924502A09284
:103250004602B0924702CDB7DEB7E0E10C94D92F19
:103260000E94C9170E9453188091590290E0089556
:103270001F920F920FB60F9211240F931F932F934B
:103280003F934F935F936F937F938F939F93AF93EE
:10329000BF93EF93FF930E940F1F00914002109184
:1032A0004102209142023091430260177107820768
:1032B0009307B8F080916F008D7F80936F0082E05C
:1032C0008093810081E080938000E0913E02F09144
:1032D0003F02908180913D028095892380831092E6
:1032E0003D02E0913E02F0913F02908180913D02CB
:1032F00089278083FF91EF91BF91AF919F918F912B
:103300007F916F915F914F913F912F911F910F91FD
:103310000F900FBE0F901F9018950E94492F08958F
:103320000E94412F089589EE91E090936603809367
:10333000650385E693E00E94A21508955E9886E4F1
:1033400090E00E9434250895A1E0B0E0EAEAF9E1B6
:103350000C94C92F89830E949E1983E060E0498103
:1033600020E030E000E010E00E94932184E60E941B
:103370009D2480913C02882319F081E00E9438222C
:1033800080913B02882349F081E164E040E020E045
:1033900030E000E010E00E9493212196E4E00C94DC
:1033A000E52F0E94342284E60E949D2410923B0265
:1033B00010923C0210923A0284E00E943822089552
:1033C0005F98109239020895CF93823009F477C044
:1033D00038F4882321F1813009F0B8C0CAE060C018
:1033E000843009F48BC008F472C0853009F0AEC097
:1033F00088E592E068EC70E041E028EC30E00E9463
:10340000862684EF91E068EC70E041E028EC30E043
:103410000E94862680E991E068EC70E092C086E028
:1034200091E06AEF70E041E02DE431E00E948626F1
:1034300084EC90E06DE770E041E027EA30E00E9424
:10344000862684EC90E06DE770E041E027EA30E00A
:103450000E9486268CED90E06AEF70E041E02DE45A
:1034600031E00E94862684EC90E06AEF70E041E053
:103470002AE932E00E94862687EF90E06AEF70E04A
:1034800041E02DE431E00E94862686E091E06AEF7B
:1034900070E041E02DE431E057C0C15009F456C05E
:1034A00088EB91E062E370E041E024E630E00E94C6
:1034B000862680913802843081F7C0E0EECF88EB19
:1034C00091E068EC70E041E024EF31E03DC088E538
:1034D00092E064E670E041E024E630E00E94862657
:1034E0008CEB92E064E670E041E024E630E00E947C
:1034F000862680E293E064E670E023C088E592E0EF
:1035000060E570E041E024E630E00E94862680E934
:1035100091E060E570E041E024E630E00E9486261C
:1035200084EF91E060E570E041E024E630E00E9445
:10353000862680E991E060E570E041E028EC30E02B
:1035400003C041E02CE231E00E948626CF9108952D
:10355000CF93DF93C82F84E893E00E948B298EE7F6
:103560000E9406238CE493E00E94E5228FE060E055
:103570000E9452220E94A922C13019F48091370280
:1035800002C0809136026AE070E00E940C1D0E9429
:103590009E1981E080933502D0E08091380284301A
:1035A000F1F18FE060E00E94522281E061E00E9430
:1035B000C92480913802813081F7C130A9F49091FB
:1035C0003702953019F41092370203C09F5F909331
:1035D0003702809137026AE070E00E940C1D8091F2
:1035E00037020E94E41919C0909136029A3019F4FA
:1035F0001092360203C09F5F90933602809136028C
:103600006AE070E00E940C1D80913A02811105C0B1
:10361000809136028F5F0E94A419D1E0BECFDD23D6
:1036200069F0C13029F487E090E06091370204C06E
:1036300083E190E0609136020E948D1980913A02F8
:10364000811102C00E94342210923502DF91CF9185
:103650000895A0E0B0E0EFE2FBE10C94C52F6C010F
:103660007A018B01C0E0D0E0CE15DF0589F0D801EA
:103670006D918D01D601ED91FC910190F081E02DCD
:10368000C6010995892B11F47E0102C02196ECCF69
:10369000C701CDB7DEB7E8E00C94E12F2091E80236
:1036A0003091E9022817390771F49091E70280916F
:1036B000E602981741F0E091E702F0E0EA55FD4F8D
:1036C000808190E008958FEF9FEF089508951F93F4
:1036D000CF93DF93DC015C962D913C915D97211592
:1036E000310539F481E090E013969C938E93129704
:1036F0003DC05196ED91FC91529750969C915097F8
:10370000892F80951FB75E964C915E9741FB772776
:1037100070F941FD6095F8944081772311F0492BB1
:1037200001C048234083E9012197F1F748E0508127
:1037300060FF02C0592B01C058235083E901219733
:10374000F1F76695415099F7772321F0908189230D
:10375000808303C08081982B90831FBF5C968D91DE
:103760009C915D970197F1F721E030E0C901DF916D
:10377000CF911F9108952091E8023091E902281716
:10378000390771F48091E6022091E70290E0805CB5
:103790009F4F821B910960E470E00E94242C0895E1
:1037A00080E090E008952091E8023091E902281726
:1037B0003907B9F49091E7028091E602981789F0F1
:1037C000E091E702F0E0EA55FD4F80812091E702A9
:1037D00030E02F5F3F4F2F7333272093E70290E0B5
:1037E00008958FEF9FEF0895CF92DF92EF92FF92AF
:1037F000CF93DF936C01990FEE08FF08F7FE11C01D
:103800008DE20E940623EC0166277727CB016C1915
:103810007D098E099F094AE00E9412238C0F9D1F8B
:1038200005C0C701B6014AE00E941223DF91CF9183
:10383000FF90EF90DF90CF900895CF93C62F8093A5
:10384000F4021092F30260E043E00E943727609197
:10385000F3026F5F8091F40243E00E9437278C2FC0
:1038600090E08D30910508F0D5C0FC01E35AFF4F80
:103870008091F4020C94382C6091F30240E00E9495
:10388000442781E067C06091F30241E00E94442731
:1038900082E00E9406236091F3026F5F8091F40240
:1038A00044E00E94442787E014C06091F30246E0A0
:1038B0000E94442786E00E94062382E00E9406239D
:1038C0006091F3026F5F8091F40243E00E9444270D
:1038D00084E00E94062384E09BC06091F30246E0EE
:1038E0000E94442786E00E94062382E013C0609174
:1038F000F30243E00E94442784E00E94062387E00D
:1039000044C06091F30243E00E94442786E00E9495
:10391000062386E00E9406236091F3026F5F809188
:10392000F40244E022C06091F30240E00E94442788
:1039300086E00E94062386E010C06091F30241E019
:103940000E94442781E01EC06091F30240E00E9483
:10395000442786E00E94062382E00E9406236091AD
:10396000F3026F5F8091F40243E00E94442784E0F9
:103970000E94062385E04CC06091F30240E00E9463
:10398000442786E00E94062382E00E94062380915D
:10399000F4026091F3026F5F8E5F47E00DC08F5FAE
:1039A0006091F30244E00E9444278091F402609108
:1039B000F3026F5F8F5F44E00E9444272BC0609149
:1039C000F30240E00E94442782E00E94062380E048
:1039D0000E9406236091F3026F5F8091F40247E03A
:1039E0000E94442783E00E94062387E011C0609173
:1039F000F30247E00E94442780E00E940623609182
:103A0000F3026F5F8091F40247E00E94442783E055
:103A10000E940623CF910895282FAB01672B61F4F4
:103A2000E0918403F09185030190F081E02D84E81A
:103A300093E0622F09950895682F70E080E090E090
:103A40000E9412230895A1E0B0E0E9E2FDE10C94A8
:103A5000CA2F182F87E599830E94C72081EA93E037
:103A600069810E94D11481EA93E0612F0E94D114F0
:103A70000E946A2087E590E061E070E00E944821A2
:103A800090919F038091A003981729F081EA93E019
:103A90000E948C1401C08FEF2196E3E00C94E62F76
:103AA0004F925F926F927F928F929F92AF92BF924E
:103AB000CF92DF92EF92FF92CF93DF936B017C0165
:103AC000B42EA70196010E94F32C882329F084E8E4
:103AD00093E067EB71E00FC0C701B6019F772FEF4E
:103AE0003FEF4FE75FE70E94EE2C18163CF484E8A6
:103AF00093E06BEB71E00E94632989C0C701B601B6
:103B00002FEF3FEF4FE75FE40E94EE2C18162CF4E6
:103B100084E893E06FEB71E0EECFC701B6012FEFC1
:103B20003FEF4FE75FEC0E941D2E87FDF1CFC701ED
:103B3000B60120E030E0A9010E941D2E87FF09C0D8
:103B40008DE20E940623EC01F7FAF094F7F8F09466
:103B500002C0C0E0D0E0A12C60E070E080E09FE314
:103B6000AB1440F42DEC3CEC4CEC5DE30E94832E56
:103B7000A394F6CFA70196010E94532C2B013C0180
:103B80000E94BF2C6B017C010E94222E9B01AC0184
:103B9000C301B2010E94522C2B013C01C701B601A6
:103BA0004AE00E941223C80FD91FBB2041F084E8CD
:103BB00093E063EC71E00E946329C80FD91FFB2CCE
:103BC000FF2021F1C301B20120E030E040E251E4E6
:103BD0000E94832E2B013C010E94BF2C4B01A12C83
:103BE000B12CC501B4014AE00E941223C80FD91FAD
:103BF000C501B4010E94222E9B01AC01C301B20198
:103C00000E94522C2B013C01FA94DACFCE01DF91B5
:103C1000CF91FF90EF90DF90CF90BF90AF909F90AB
:103C20008F907F906F905F904F90089590E0FC018F
:103C3000E959FC4F3491FC01ED55FC4F2491FC01F6
:103C4000E157FC4FE491EE2309F43BC0332339F1F3
:103C5000333091F038F43130A9F0323001F584B5C9
:103C60008F7D12C0373091F03830A1F03430B9F484
:103C7000809180008F7D03C0809180008F7780933A
:103C800080000DC084B58F7784BD09C08091B000DD
:103C90008F7703C08091B0008F7D8093B000F0E0FB
:103CA000EE0FFF1FE558FC4FA591B4918FB7F89424
:103CB000EC91611103C020952E2301C02E2B2C9373
:103CC0008FBF0895CF93DF9390E0FC01ED55FC4F3B
:103CD0002491FC01E157FC4F8491882361F190E02D
:103CE000880F991FFC01E35AFC4FC591D491FC0148
:103CF000E558FC4FA591B491611109C09FB7F894A4
:103D00008881209582238883EC912E230BC062301A
:103D100061F49FB7F8943881822F8095832388833C
:103D2000EC912E2B2C939FBF06C08FB7F894E8819F
:103D30002E2B28838FBFDF91CF910895CF93DF93F0
:103D4000EC018AE061E00E94621E209719F48AE08B
:103D500060E005C0CF3FD10529F48AE061E00E9410
:103D6000161E43C0E1E7F3E0E491E330F9F048F4D4
:103D7000E130B9F0E230A1F584B5806284BDC8BD00
:103D800034C0E730E9F0E83019F1E43049F58091CA
:103D90008000806280938000D0938B00C0938A0063
:103DA00024C084B5806884BDC7BD1FC080918000D9
:103DB000806880938000D0938900C093880015C0EC
:103DC0008091B00080688093B000C093B3000DC0B4
:103DD0008091B00080628093B000C093B40005C0B1
:103DE000C038D1050CF0B9CFB2CFDF91CF91089593
:103DF0008E3008F08E508770806480937C008091B4
:103E00007A00806480937A0080917A0086FDFCCFEE
:103E1000809178002091790090E0922B08952FB73F
:103E2000F8946091EF027091F0028091F10290910C
:103E3000F2022FBF08951F920F920FB60F92112416
:103E40002F933F938F939F93AF93BF938091EF02F4
:103E50009091F002A091F102B091F2023091EE0245
:103E600023E0230F2D3720F40196A11DB11D05C0BD
:103E700026E8230F0296A11DB11D2093EE02809328
:103E8000EF029093F002A093F102B093F2028091BE
:103E9000EA029091EB02A091EC02B091ED02019642
:103EA000A11DB11D8093EA029093EB02A093EC0256
:103EB000B093ED02BF91AF919F918F913F912F9160
:103EC0000F900FBE0F901F9018958F929F92AF92F8
:103ED000BF92CF92DF92EF92FF92CF93DF936B016D
:103EE0007C010E940F1F4B015C0185E693E00E945C
:103EF000BB1BEC01892B69F40E940F1FAB01BC01B5
:103F0000481959096A097B094C155D056E057F053D
:103F100060F3CE01DF91CF91FF90EF90DF90CF90D3
:103F2000BF90AF909F908F900895CF92DF92EF92C5
:103F3000FF92CF931092A4031092A30398EEC92E80
:103F400093E0D92EE12CF12CC092A503D092A603C8
:103F5000E092A703F092A80389ED91E09093A20369
:103F60008093A103109287031092860389E092E068
:103F70009093850380938403109294038FEF809332
:103F80009303109292031092950387E280938F031C
:103F9000109290031092910310928E0310928D0351
:103FA00084E08093960382E080939703C1E0C093FE
:103FB000980380E18093990380E280939A0380E4E0
:103FC00080939B0380E880939C0384E893E063E004
:103FD00040E050E00E94912810926803109267031D
:103FE000C0926903D0926A03E0926B03F0926C0373
:103FF00089EE91E0909366038093650310927C03B1
:1040000010927B0310927E0310927D031092800326
:1040100010927F0310928203109281038091830398
:104020008E7F8D7F8093830386958170682F6C27A8
:1040300083E00E94161E83E061E00E94621EE6EAB1
:10404000F3E0E491E0937503E2E9F3E0E491F0E05A
:10405000EE0FFF1FE558FC4F8591949190937703E5
:104060008093760382E060E00E94621E8091830369
:1040700081FD04C082E061E00E94161E82E0809310
:104080007103E5EAF3E0E491E0937203E1E9F3E020
:10409000E491F0E0EE0FFF1FEB57FC4F85919491F8
:1040A000909374038093730389EF91E09093660378
:1040B000809365031092A00310929F0310929E03B9
:1040C00010929D030E94E616CF91FF90EF90DF9033
:1040D000CF9008959091640320919D03213208F0C0
:1040E0004AC0809142038111FCCF32E030934203F9
:1040F00031E0309341033FEF3093400310923F0390
:1041000020933E03A4E4B3E04EE153E0FA013E2FD6
:10411000341B321718F43D913193F9CF10921D03DF
:1041200020911D03990F922B90931D0390911C03D6
:10413000913061F410921C0390911D039093BB0089
:104140009091BC0093FDF8CF95EC01C095EE909353
:10415000BC00909142039230E1F3909140039F3F65
:1041600079F080914003803241F0809140038033A8
:1041700031F084E005C081E003C082E001C083E04B
:1041800010929E0310929D0310924303089591E0B4
:10419000909343038093640310929E0310929D03B7
:1041A00008950F931F93CF9388E60E94C72081EA5A
:1041B00093E060E00E94D11405E113E0F8018081F2
:1041C000CAE06C2F0E94182C692FF0E18F9F600DC0
:1041D000112481EA93E00E94D114F80181816C2FAF
:1041E0000E94182C692FF0E18F9F600D112481EA45
:1041F00093E00E94D114F80182816C2F0E94182C48
:10420000692FF0E18F9F600D112481EA93E00E94F5
:10421000D114F80183816C2F0E94182C692FF0E1D2
:104220008F9F600D112481EA93E00E94D114F80160
:1042300084816C2F0E94182C692FF0E18F9F600DF4
:10424000112481EA93E00E94D114F80185816C2F3A
:104250000E94182C692FF0E18F9F600D112481EAD4
:1042600093E00E94D114F80186818E516C2F0E9438
:10427000182C692FF0E18F9F600D112481EA93E0E3
:104280000E94D1140E946A20CF911F910F9108952E
:10429000909142039111FCCF613208F060E291E00D
:1042A00090934203909341032FEF20934003109289
:1042B0003F03260F20933E0390931D0390911D030F
:1042C000880F892B80931D0380911C03813061F43A
:1042D00010921C0380911D038093BB008091BC0051
:1042E00083FDF8CF85EC01C085EE8093BC00809102
:1042F00042038130E1F380913F03861710F460910F
:104300003F03AEE1B3E025EF32E0F9018E2F821BCF
:10431000861718F48D918193F9CF1092A0036093C2
:104320009F03862F0895A0E0B0E0E9E9F1E20C9444
:10433000C52FE82EC62ED42EE901EDEFE80FE031AF
:1043400028F4F0E0EB53FE4FF08001C0F12C6AE05E
:1043500070E080E090E00E94651F892B29F085E6DF
:1043600093E00E94D31BF3CF85E693E06EE70E94B3
:10437000671B85E693E062E06F0D0E94671B85E690
:1043800093E06E2D0E94671BFF2069F085E693E0A5
:104390006C2D0E94671B82E0F81205C085E693E051
:1043A0006D2D0E94671B85E693E06FEE0E94671BF0
:1043B000209749F00115110531F0CE0160E070E061
:1043C000A8010E94F82C68EE73E080E090E00E9463
:1043D000651FE12CF12C0150110962E370E080E0CF
:1043E00090E00E94651F892B89F085E693E00E948A
:1043F000D31B209791F3E016F10678F7FE01EE0D3E
:10440000FF1D8083C70101967C01E7CFCDB7DEB7E2
:10441000E8E00C94E12FA5E0B0E0E1E1F2E20C94D9
:10442000C92F60E040E09E012F5F3F4F05E010E0A4
:104430000E949321CE01019660E070E040E150E0DF
:104440000E94FF2CCB012596E4E00C94E52F0F93FE
:104450001F9360E040E020E030E000E010E00E94C8
:1044600093211F910F9108958EE00E9427220895B5
:104470000F931F93682F81E140E020E030E000E0DF
:1044800010E00E9493211F910F910895E091840301
:10449000F09185030084F185E02D84E893E060E0ED
:1044A00009950895A8E0B0E0E8E5F2E20C94CB2F7E
:1044B0001D8290E49E8324E12F8324E528871982BE
:1044C0009A8390E19B8390E59C8390918B0369177D
:1044D00010F06FEF690F40918C03262F30E0FE0142
:1044E000E20FF31F403121F4943011F4918101C0A7
:1044F0009581682F690F606884E893E00E947929AC
:104500002896E2E00C94E72F0E944622E4E8F3E0CC
:1045100065816B7F65836860CF010E94792908956A
:10452000E4E8F3E06581862F846085836C60CF01C9
:104530000E94792984E893E00E9482290895E4E8A2
:10454000F3E065816E7F65836860CF010E94792901
:104550000895E4E8F3E06581862F816085836960D2
:10456000CF010E9479290895A1E0B0E0EAEBF2E2E0
:104570000C94C52F162F877028E0829FC00111244C
:10458000682F606484E893E079830E94792983E747
:1045900090E00197F1F7C12E7981D72E8601085F4F
:1045A0001F4F8BE9E82EF12CF60161916F0184E831
:1045B00093E00E94A628C7010197F1F7C016D10623
:1045C00099F72196E8E00C94E12F0F931F93CF9376
:1045D000DF938C01C0E0D0E0F801EC0FFD1F649187
:1045E000662371F0E0918403F09185030190F081DE
:1045F000E02D84E893E00995892B11F02196ECCF0A
:10460000CE01DF91CF911F910F910895682FE09116
:104610008403F09185030190F081E02D84E893E01C
:10462000099508958F929F92AF92BF920F931F9317
:10463000CF93DF93CDB7DEB7A1970FB6F894DEBF67
:104640000FBECDBF19A2423008F44AE08E010F5DC3
:104650001F4F842E912CA12CB12CA50194010E94F6
:10466000672FE62FB901CA0101501109EA3014F48D
:10467000E05D01C0E95CD801EC93232B242B252BB2
:1046800061F784E893E0B8010E946329A1960FB610
:10469000F894DEBF0FBECDBFDF91CF911F910F9178
:1046A000BF90AF909F908F90089583FD02C098E0D7
:1046B00001C098E28770892B98E10FB6F894A8950D
:1046C000909360000FBE80936000A8958091600079
:1046D0008064809360008091B503882319F083B7CC
:1046E000817F0BC08091AF03882321F083B7817F46
:1046F000846003C083B7817F8C6083BF83B7816090
:1047000083BF889583B78E7F83BF0FB6F894A89533
:1047100080916000886180936000109260000FBEFD
:10472000809160008F7B80936000089580911A03D0
:104730009DEF980F983008F06DC09CEF980F963061
:1047400008F466C0833089F5209119034091BB03BA
:104750005091BC0335E0349FC001359F900D11246A
:1047600097FD03969595879595958795049667E0AF
:1047700070E00E94242C4FE150E0BA01681B790BD5
:1047800038E1369FA001379F500D11244F5F5F4FD6
:104790008091170378E1279F90011124280F311D84
:1047A00081E042175307BCF135C08A3099F520915A
:1047B00019034091BB035091BC0335E0349FC00105
:1047C000359F900D112497FD0396959587959595A6
:1047D0008795019667E070E00E94242C4FE150E03D
:1047E000BA01681B790B38E1369FA001379F500D45
:1047F00011244F5F5F4F8091170378E1279F90014D
:104800001124280F311D81E04217530724F402C000
:1048100081E0089580E00895EF92FF920F931F9337
:10482000CF93DF9388E60E94C72081EA93E060E09F
:104830000E94D1140E946A2088E690E067E070E050
:104840000E94482181EA93E00E948C14C5E1D3E0E4
:10485000982F9695969596959E70292F220F220F48
:10486000920F8F70890F888381EA93E00E948C14E5
:10487000982F92959F708F702AE0929F800D11243F
:10488000898381EA93E00E948C14982F96959695DF
:1048900096959670292F220F220F920F8F70890FF5
:1048A0008A8381EA93E00E948C14982F92959F70DE
:1048B0008F702AE0929F800D11248B8381EA93E010
:1048C0000E948C14982F92959F708F702AE0929F6F
:1048D000800D11248C8381EA93E00E948C14982F20
:1048E00092959F708F702AE0929F800D11248D8386
:1048F00081EA93E00E948C14982F9F70925E8295BB
:104900008F70E92E2AE0829FE00C1124EE828A81CA
:10491000698170E0488150E02C8130E00D8110E029
:10492000F12C9EE4E91A98EFF90A90E00E9404172E
:10493000CDB7DEB7E6E00C94E32FCF93C82F80917C
:10494000B503882329F0809164008062809364001D
:10495000C7FF04C083E00E945523C857C03420F02D
:1049600082E00E945523CC53C03220F081E00E94A7
:104970005523CE51C03118F080E00E94552380911C
:10498000B503882321F08091640010926400CF91D8
:104990000895CF92DF92EF92FF921F93CF93DF9310
:1049A000C82FD62F0E940F1F6B017C0120E6C20E7C
:1049B0002AEED21EE11CF11C1092380214E09091F4
:1049C0003802911115C08C2F0E94612A8093380201
:1049D000D11104C088E70E949D24F1CF0E940F1FCF
:1049E000C616D706E806F90650F710933802E7CF47
:1049F00082E30E949D24DF91CF911F91FF90EF9061
:104A0000DF90CF9008958F929F92AF92BF92CF92F6
:104A1000DF92EF92FF926C010E940F1F4B015C012D
:104A2000E12CF12C0E940F1FDC01CB0188199909A0
:104A3000AA09BB098C159D05AE05BF0528F481E0C8
:104A40000E94612A843071F781E00E94612A8430DB
:104A500011F480933802FF90EF90DF90CF90BF90D9
:104A6000AF909F908F9008958F929F92AF92BF9238
:104A7000CF92DF92EF92FF926C010E940F1F4B01C9
:104A80005C01E12CF12C0E940F1FDC01CB01881985
:104A90009909AA09BB098C159D05AE05BF0598F3B8
:104AA000FF90EF90DF90CF90BF90AF909F908F904E
:104AB0000895A0E0B0E0EFE5F5E20C94C52F962F45
:104AC0003FB7F8944091EA025091EB026091EC02FA
:104AD0007091ED0226B5A89B06C02F3F21F04F5FD5
:104AE0005F4F6F4F7F4F3FBF762F652F542F442767
:104AF000420F511D611D711DE2E0440F551F661FDD
:104B0000771FEA95D1F72091AD033091AE03420FA4
:104B1000531F611D711DEA01CC0FDD1FCC0FDD1F7E
:104B20004C275D27EA01CC0FCD2FCC1FDD0BD19593
:104B30004C275D27EA01D695DC2FCC27D795C79562
:104B4000C427D527D093AE03C093AD03082F10E040
:104B5000692F70E0601B710B072E000C880B990BFE
:104B60000E94242E20E830E040E857E30E94832E84
:104B70006B017C01BE0180E090E00E94222E9B012F
:104B8000AC01C701B6010E94832E6B017C01B80104
:104B9000110F880B990B0E94242E9B01AC01C701B9
:104BA000B6010E94532C0E94BF2C862FCDB7DEB7D2
:104BB000E8E00C94E12F80E090E00E949E1E0E94AD
:104BC000842281E08093AF031092B50308950F9380
:104BD0001F93CF930BE011E0C0E08C2FB8010E942F
:104BE000B422CF5F085F1F4FC830B9F7CF911F9134
:104BF0000F9108958FEE0E9406238CEB93E00E94A4
:104C0000E522089587EB93E00E94E522089580E372
:104C10000E94062308950E94C9170E94531880918C
:104C20005E0290E08E54984F9093BC038093BB0338
:104C30000E94C9170E94531880915C028093190347
:104C40000E94C9170E94531880915D0280931A0335
:104C500080E063E00E9452220E94C9170E9453180C
:104C6000E0915B028E2F90E0FC013197E730F10577
:104C7000D0F4E659FF4F0C94382C8EEF93E011C01E
:104C800087EF93E00EC08EEE93E00BC085EE93E0CD
:104C900008C08CED93E005C084ED93E002C08CEC7D
:104CA00093E00E94E5228AE063E00E945222809114
:104CB00019038A3010F40E940726809119036AE0D4
:104CC00070E00E940C1D8EE20E94062380911A0360
:104CD0008A3010F40E94072680911A036AE070E07F
:104CE0000E940C1D8EE20E9406238091BB039091CE
:104CF000BC030E94F41B8091B9039091BA030A97F8
:104D000024F482E160E00E9452220895A0E0B0E025
:104D1000ECE8F6E20C94C12F142FE9014B01A12C11
:104D2000B12C9C0140E050E060E079E08DE390E040
:104D30000E94672F69017A0181E0C81AD108E10851
:104D4000F108C114D104E1E0EE06F10458F0CD2CD5
:104D5000DE2CEF2CFF24F1E0CF1AD108E108F10896
:104D600004E001C001E081149104A104B10479F0D0
:104D70000E940F1F860E971EA81EB91E8092400229
:104D800090924102A0924202B09243020BC08FEF78
:104D90009FEFDC018093400290934102A093420276
:104DA000B093430280913D02811122C0EEEAF3E00C
:104DB000849180933D026AE973E0FB019491E92FAD
:104DC000F0E0EE0FFF1FE558FC4F25913491309332
:104DD0003F0220933E02FB016491E62FF0E0EE0FCC
:104DE000FF1FE35AFC4FA591B491EC918E2B8C934D
:104DF000D0928700C09286008091840090918500B7
:104E0000A0E0B0E0C816D906EA06FB0620F4D0926E
:104E10008500C092840000610093810080E180934E
:104E2000800080916F00826080936F00111104C038
:104E3000CE010E94342507C080913802843019F0D9
:104E4000CE010E940325CDB7DEB7ECE00C94DD2F38
:104E5000BC0180E00E94B42284E893E00E948B2988
:104E600080E00E94062380E20E9406230895CF93EB
:104E7000C42F0E945222CC2329F080E20E940623F4
:104E8000C150F9CFCF910895A1E0B0E0EAE4F7E294
:104E90000C94CB2F49830E9452224981842F0E9477
:104EA00006232196E2E00C94E72FCF930E942E1464
:104EB0000E94DB138093B803809117038A3018F4A3
:104EC00081E060E005C06AE00E94182C682F81E054
:104ED0000E941D1C80911703CAE06C2F0E94182CA1
:104EE00084E0692F0E941D1C87E06AE00E941D1C5F
:104EF000809116038A3018F48AE060E005C06C2FB8
:104F00000E94182C682F8AE00E941D1C80911603B5
:104F10006AE00E94182C8DE0692F0E941D1C81E11F
:104F200061E043E00E94372781E161E00E94522264
:104F30008091B703811104C08091B603811103C031
:104F400088E70E9406238091B503882319F084E442
:104F50000E94062380913102882349F08091B80392
:104F6000882311F08EE401C08EE60E940623809112
:104F7000B403882341F083E062E00E94522280EC77
:104F800093E00E94E52281E162E043E00E9437273E
:104F900081E162E00E9452228091B303882319F0DC
:104FA00084EF0E94062380913302882319F080E762
:104FB0000E9406238091B203882319F083E50E94A2
:104FC000062380913A02811108C080913902811133
:104FD00004C08091B103882319F080E50E94062364
:104FE00086E00E94F81E9093BA038093B903C4E050
:104FF0008AE00E949D2486E00E94F81E2091B90359
:105000003091BA03820F931F9093BA038093B90330
:10501000C15071F765E070E00E94242C072E000C4F
:10502000880B990B0E94242E20E030E040EA5BE3DD
:105030000E94832E26E636E646E350EC0E94532C6F
:105040002CE938ED49E952E40E94832E0E94BF2CDE
:105050001616170634F4643671052CF063E670E01A
:1050600002C061E070E0CB01072E000CAA0BBB0B65
:105070009C01AD016A337105A4F02953310941093E
:105080005109ABE5B0E00E94A82F2AE230E040E0F1
:1050900050E00E94892FDA01C9010896A11DB11DB7
:1050A00013C02150310941095109A7E0B0E00E9425
:1050B000A82F27E330E040E050E00E94892FDA017A
:1050C000C9010196A11DB11D9093BA038093B90344
:1050D00081E160E00E9452228091B9039091BA036D
:1050E0000A9744F481E160E040E20E9444270E9474
:1050F000A92202C00E949F228091B9039091BA0315
:105100000E94F41B8091B003882311F08BE201C050
:1051100085E20E94062382E160E00E945222CF9144
:10512000089521E001C0220F6A95EAF7DC011C9680
:105130002C931C971A965C934E931997ED91FC91C2
:105140000084F185E02D60E009950895DC01ED9182
:10515000FC910284F385E02D41E0099581E090E027
:105160000895CF93DF93FC012381222391F0EC017A
:10517000818180956823608382810E94C72081EAB3
:1051800093E068810E94D1140E946A20282F30E0A9
:1051900002C020E030E081E090E0232B11F080E0BD
:1051A00090E0DF91CF910895EF92FF920F931F93BC
:1051B000CF938C01FC01759684E0C0E060FF02C0D3
:1051C0009081C92B6695815031968111F7CF41307E
:1051D00011F4F8014489F8018585C82BC42B7801A6
:1051E000FEE0EF0EF11CF80162896C2BC7010E94F2
:1051F000B128F801628960956C23C7010E94B1282B
:10520000CF911F910F91FF90EF9008950F931F93EF
:10521000CF93DF938C01C42FD62FDF70423019F467
:105220006D2F40E00EC0262F30E0B90184E0759567
:1052300067958A95E1F7C8010E94D428C8016D2FAF
:105240004C2F0E94D428DF91CF911F910F91089588
:10525000FC0184858823A9F021853285211531053B
:1052600019F4611106C007C02130310521F4611124
:1052700002C0858701C01586CF010E9665850E9404
:10528000B12808951F920F920FB60F9211248F9399
:10529000EF93FF930FB6F894A89580916000886112
:1052A00080936000109260000FBEA895E0E6F0E0E9
:1052B00080818F7B8083FF91EF918F910F900FBE44
:1052C0000F901F9018956115710581F0FB010190F9
:1052D0000020E9F73197AF01461B570BDC01ED9138
:1052E000FC910280F381E02D0995089580E090E023
:1052F0000895DC01ED91FC910284F385E02D40E0FE
:1053000009950895DC01ED91FC910084F185E02D73
:105310006FEF0995089561E00E9479298BE39FE181
:105320000197F1F70895A0E0B0E0E9E9F9E20C9403
:10533000C52FEC01423018F08C8188608C834F833C
:105340006887222329F0413019F48C8184608C8392
:105350000E940F1F6B017C010E940F1FDC01CB011B
:105360008C199D09AE09BF0984369105A105B105C7
:1053700098F36C8164FD31C0E881F9810284F38582
:10538000E02DCE0163E042E009958BE496E40197BD
:10539000F1F7E881F9810284F385E02DCE0163E025
:1053A00042E0099503E512E0C8010197F1F7E881B1
:1053B000F9810284F385E02DCE0163E042E0099596
:1053C000C8010197F1F7E881F9810284F385E02DA6
:1053D000CE0162E042E0099517C06062CE010E94F2
:1053E00079298BE496E40197F1F76C816062CE0134
:1053F0000E94792903E512E0C8010197F1F76C8159
:105400006062CE010E947929C8010197F1F76C8191
:105410006062CE010E9479298BEE90E00197F1F74E
:1054200084E08D83CE016CE00E947929CE010E9438
:105430008B2982E08E83CE0166E00E947929CE011D
:105440000E948229CDB7DEB7E8E00C94E12FFF92ED
:105450000F931F93CF93DF93EC01F62E042F122F9F
:105460008B85888B1092A00310929F0310929E034D
:1054700010929D030E94E61688890E94C7200E9410
:105480006A2091E0811190E0998B992329F081EABB
:1054900093E00E948C148E878989882339F01F86B7
:1054A0001C82CE010E9660E00E94B128CE016F2DC5
:1054B000402F212F0E949329CDB7DEB7E5E00C9451
:1054C000E42FCF93C82F80913302811106C04C99ED
:1054D00004C080913A02811158C18091B903909122
:1054E000BA0305970CF4C1E04C990DC08091B1034B
:1054F000811109C080913902811105C08091350266
:10550000882309F445C18091B303882309F40CC1B1
:1055100080913502811108C10E942E149091C00320
:105520008091B3039111F7C0882309F4FDC0209145
:10553000BF03909116032913EEC02091BE039091F2
:1055400017032913E8C08091AF0381110E949022B4
:105550008091B503882321F084E893E00E9482299A
:105560005E9880E063E971E00E94B42284E893E0F1
:105570000E948B290E949F2287E060E00E945222B5
:10558000809117038A3010F40E9407268091170338
:105590006AE070E00E940C1D8AE30E94062380915D
:1055A00016038A3010F40E940726809116036AE0E1
:1055B00070E00E940C1D84E063E00E9452228EE0A5
:1055C00094E00E94E5228BE063E045EF0E944427CF
:1055D00081E0809335028091390281115F9880913A
:1055E000BD03813051F49091B103911106C09091A7
:1055F0003A02911102C08093B10310923802809157
:105600003802843009F44CC09091BF038091160396
:10561000981346C085E062E040E00E94442786E09F
:1056200094E00E94E52280E00E94062381E00E942F
:10563000612A809338028FEF90E00E949E1E809135
:10564000BD03882341F080913A02811104C080910A
:105650003302882321F0809137020E94E41980915F
:10566000BD03823039F44C9905C080913A028823F9
:1056700009F492C084EF91E00E94032585E062E086
:1056800049E00E94372780E090E00E949E1E84EF50
:1056900091E00E9403250E94301980931603AFCF3A
:1056A00080913A02811103C00E94342208C0809187
:1056B000BD03813021F48091390281115F9A1092EB
:1056C00035029091BF0380911603981309C0909101
:1056D000BE0380911703981303C081E08093C00339
:1056E00084E893E00E948B298091AF03882331F0F6
:1056F0008091B103811102C04C9B54C08091AF03D3
:1057000081110E9484228091B50381110E9446225A
:105710000E943F141FC0882339F09091BF038091ED
:10572000160398131092C0038EE00E94F81E893C65
:10573000910508F079C087399105B0F182E30E94A4
:105740009D248EE00E94F81E873991050CF467C0F5
:105750004C9B02C0C4E017C08091B2038111FACF04
:10576000C111F8CF809133028111F4CF81E065E05F
:105770000E945925C82F843069F78FE16DE30E949C
:1057800059250E94A4198C2F51C010923A02A5CE1F
:105790005E9A0E940C24B7CE809136028F5F0E94E1
:1057A000A41968CF5E9AAACF8536910550F082E39E
:1057B0000E949D248EE00E94F81E8536910584F596
:1057C0002EC0C39748F082E30E949D248EE00E9481
:1057D000F81EC3973CF523C082E30E949D248EE00F
:1057E0000E94F81E18161906D4F44C9916C0809120
:1057F000B203811112C0C11110C080913302811116
:105800000CC081E068E00E945925843031F48BE0BF
:105810006FE10E9459250E94A419C1E0B4CF06C0CF
:10582000C3E0B1CFC2E0AFCFC0E0ADCFCF9108951C
:10583000991B79E004C0991F961708F0961B881FE2
:105840007A95C9F78095089597FB072E16F4009472
:1058500007D077FD09D00E943E2C07FC05D03EF40E
:10586000909581959F4F0895709561957F4F08950C
:10587000EE0FFF1F0590F491E02D0994AA1BBB1BAE
:1058800051E107C0AA1FBB1FA617B70710F0A61B40
:10589000B70B881F991F5A95A9F780959095BC0161
:1058A000CD0108955058BB27AA270E946A2C0C945A
:1058B000072F0E94F92E38F00E94002F20F039F4B3
:1058C0009F3F19F426F40C94F62E0EF4E095E7FBB6
:1058D0000C94F02EE92F0E94182F58F3BA17620784
:1058E00073078407950720F079F4A6F50C943A2FF6
:1058F0000EF4E0950B2EBA2FA02D0B01B9019001EB
:105900000C01CA01A0011124FF27591B99F0593F2E
:1059100050F4503E68F11A16F040A22F232F342F76
:105920004427585FF3CF469537952795A795F040C4
:105930005395C9F77EF41F16BA0B620B730B840BD9
:10594000BAF09150A1F0FF0FBB1F661F771F881F91
:10595000C2F70EC0BA0F621F731F841F48F48795E9
:1059600077956795B795F7959E3F08F0B0CF9395DB
:10597000880F08F09927EE0F9795879508950E9454
:10598000202F88F09F5798F0B92F9927B751B0F082
:10599000E1F0660F771F881F991F1AF0BA95C9F7B3
:1059A00014C0B13091F00E943A2FB1E008950C94E8
:1059B0003A2F672F782F8827B85F39F0B93FCCF39B
:1059C000869577956795B395D9F73EF49095809530
:1059D000709561957F4F8F4F9F4F08950E945F2E66
:1059E00008F48FEF08950E945F2E880B990B08959D
:1059F000DC0101C06D9341505040E0F70895A6E0EE
:105A0000B0E0E5E0FDE20C94BB2F5C016B017A0194
:105A10006115710519F0DB018D939C93E114F1047C
:105A200029F0C7010297839708F0DCC03501BFEF6A
:105A30006B1A7B0AF5011081812F90E00E94112ED4
:105A4000892B11F05301F2CF1D3249F43501F2E0F8
:105A50006F0E711CD50111961C9101E009C01B321B
:105A600031F43501B2E06B0E711CF501118100E0DB
:105A7000E114F10409F4C4C0F0E1EF16F10489F473
:105A8000103399F5D3018C918F7D883509F0B2C020
:105A900011961C91B2E06B0E711C026050E1E52E74
:105AA000F12CEAE0EE16F10409F4B0C0F0E1EF16D3
:105AB000F104D9F028E0E216F10451F438E0E32EC5
:105AC000F12C88248A94982CA82C4FE1B42E13C072
:105AD0006FEF7FEFCB0197010F2C000C440B550BA0
